{
	"data": {
		"bytecode": {
			"linkReferences": {},
			"object": "60a060405260006080908152600a906200001a9082620004a8565b503480156200002857600080fd5b5060405162005967380380620059678339810160408190526200004b9162000623565b6008805460ff191690558280808385600c620000688282620004a8565b50600d620000778382620004a8565b506200008560003362000122565b620000b17f9f2df0fed2c77648de5860a4cc508cd0818c85b8b8a1ab4ceeef8d981c8956a63362000122565b620000dd7f69176e6a1211cc6eac938139a9a70e4dd65f1b7d76e806459e7a34b759878e853362000122565b50620000eb90508162000132565b50620000f78162000176565b50601180546001600160a01b0319166001600160a01b039290921691909117905550620006ad915050565b6200012e8282620001ba565b5050565b6200013f600e82620001e5565b6040516001600160a01b038216907f6ae172837ea30b801fbfcdd4108aa1d5bf8ff775444fd70256b44e6bf3dfc3f690600090a250565b62000183601082620001e5565b6040516001600160a01b038216907f6719d08c1888103bea251a4ed56406bd0c3e69723c8a1686e017e7bbe159b6f890600090a250565b620001c6828262000269565b6000828152600760205260409020620001e090826200030d565b505050565b620001f182826200032d565b15620002445760405162461bcd60e51b815260206004820152601f60248201527f526f6c65733a206163636f756e7420616c72656164792068617320726f6c650060448201526064015b60405180910390fd5b6001600160a01b0316600090815260209190915260409020805460ff19166001179055565b60008281526006602090815260408083206001600160a01b038516845290915290205460ff166200012e5760008281526006602090815260408083206001600160a01b03851684529091529020805460ff19166001179055620002c93390565b6001600160a01b0316816001600160a01b0316837f2f8788117e7eff1d82e926ec794901d17c78024a50270940304540a733656f0d60405160405180910390a45050565b600062000324836001600160a01b038416620003b2565b90505b92915050565b60006001600160a01b038216620003925760405162461bcd60e51b815260206004820152602260248201527f526f6c65733a206163636f756e7420697320746865207a65726f206164647265604482015261737360f01b60648201526084016200023b565b506001600160a01b03166000908152602091909152604090205460ff1690565b6000818152600183016020526040812054620003fb5750815460018181018455600084815260208082209093018490558454848252828601909352604090209190915562000327565b50600062000327565b634e487b7160e01b600052604160045260246000fd5b600181811c908216806200042f57607f821691505b6020821081036200045057634e487b7160e01b600052602260045260246000fd5b50919050565b601f821115620001e057600081815260208120601f850160051c810160208610156200047f5750805b601f850160051c820191505b81811015620004a0578281556001016200048b565b505050505050565b81516001600160401b03811115620004c457620004c462000404565b620004dc81620004d584546200041a565b8462000456565b602080601f831160018114620005145760008415620004fb5750858301515b600019600386901b1c1916600185901b178555620004a0565b600085815260208120601f198616915b82811015620005455788860151825594840194600190910190840162000524565b5085821015620005645787850151600019600388901b60f8161c191681555b5050505050600190811b01905550565b600082601f8301126200058657600080fd5b81516001600160401b0380821115620005a357620005a362000404565b604051601f8301601f19908116603f01168101908282118183101715620005ce57620005ce62000404565b81604052838152602092508683858801011115620005eb57600080fd5b600091505b838210156200060f5785820183015181830184015290820190620005f0565b600093810190920192909252949350505050565b6000806000606084860312156200063957600080fd5b83516001600160a01b03811681146200065157600080fd5b60208501519093506001600160401b03808211156200066f57600080fd5b6200067d8783880162000574565b935060408601519150808211156200069457600080fd5b50620006a38682870162000574565b9150509250925092565b6152aa80620006bd6000396000f3fe608060405234801561001057600080fd5b50600436106103765760003560e01c80639010d07c116101d3578063cfa84fc111610104578063e985e9c5116100a2578063f2fde38b1161007c578063f2fde38b14610805578063f5298aca14610818578063fabc1cbc1461082b578063fce550371461083e57600080fd5b8063e985e9c5146107a3578063ee51d26a146107df578063f242432a146107f257600080fd5b8063d81d0a15116100de578063d81d0a1514610760578063e63ab1e914610773578063e86e2f6d14610788578063e8a3d4851461079b57600080fd5b8063cfa84fc114610727578063d29d44ee1461073a578063d547741f1461074d57600080fd5b8063a4949b1811610171578063b56cf84f1161014b578063b56cf84f14610698578063bd85b039146106cb578063ca15c873146106eb578063cd53d08e146106fe57600080fd5b8063a4949b1814610651578063aa271e1a14610672578063afc587151461068557600080fd5b8063983b2d56116101ad578063983b2d561461061b578063986502751461062e578063a217fddf14610636578063a22cb4651461063e57600080fd5b80639010d07c146105ed57806391d148541461060057806395d89b411461061357600080fd5b806346fbf68e116102ad5780636ef8d66d1161024b578063836a104011610225578063836a10401461059a5780638456cb59146105ad578063862440e2146105b55780638da5cb5b146105c857600080fd5b80636ef8d66d14610577578063715018a61461057f57806382dc1ec41461058757600080fd5b806355f804b31161028757806355f804b3146105165780635c975abb146105295780636b20c454146105315780636e1c1cbb1461054457600080fd5b806346fbf68e146104d05780634b068c78146104e35780634e1273f4146104f657600080fd5b80632eb2c2d61161031a57806336568abe116102f457806336568abe1461048f5780633efd85d3146104a25780633f4ba83a146104b5578063415b1be4146104bd57600080fd5b80632eb2c2d6146104475780632f2ff15d1461045a5780632f54bf6e1461046d57600080fd5b806306fdde031161035657806306fdde03146103e75780630e89341c146103fc578063136439dd1461040f578063248a9ca31461042457600080fd5b8062dde10e1461037b578062fdd58e146103b357806301ffc9a7146103d4575b600080fd5b61039e6103893660046141d5565b60009081526009602052604090205460ff1690565b60405190151581526020015b60405180910390f35b6103c66103c1366004614203565b610851565b6040519081526020016103aa565b61039e6103e2366004614245565b6108e8565b6103ef610911565b6040516103aa91906142b2565b6103ef61040a3660046141d5565b6109a3565b61042261041d3660046141d5565b6109ae565b005b6103c66104323660046141d5565b60009081526006602052604090206001015490565b610422610455366004614408565b6109ba565b6104226104683660046144b5565b610a4f565b61039e61047b3660046144e5565b6011546001600160a01b0391821691161490565b61042261049d3660046144b5565b610a79565b6104226104b0366004614546565b610af7565b610422610b04565b6104226104cb366004614546565b610b42565b61039e6104de3660046144e5565b610b4f565b61039e6104f13660046145c8565b610b5a565b61050961050436600461467b565b610b6f565b6040516103aa9190614719565b61042261052436600461472c565b610c94565b61039e610cc7565b61042261053f366004614760565b610cda565b6103c66105523660046144b5565b6001600160a01b03166000908152600460209081526040808320938352929052205490565b610422610ce5565b610422610cee565b6104226105953660046144e5565b610d22565b6104226105a83660046147cb565b610d99565b610422610dd9565b6104226105c3366004614803565b610e15565b6011546001600160a01b03165b6040516001600160a01b0390911681526020016103aa565b6105d56105fb36600461483f565b610e49565b61039e61060e3660046144b5565b610e68565b6103ef610e93565b6104226106293660046144e5565b610ea2565b610422610ed0565b6103c6600081565b61042261064c366004614861565b610ed9565b61066461065f366004614894565b610ee4565b6040516103aa9291906148d9565b61039e6106803660046144e5565b610fa5565b610422610693366004614546565b610fb0565b6103c66106a63660046144b5565b6001600160a01b03166000908152600360209081526040808320938352929052205490565b6103c66106d93660046141d5565b60009081526001602052604090205490565b6103c66106f93660046141d5565b610fbd565b6105d561070c3660046141d5565b600f602052600090815260409020546001600160a01b031681565b610422610735366004614907565b610fd4565b6104226107483660046144e5565b6110d8565b61042261075b3660046144b5565b6111e8565b61042261076e366004614760565b61120d565b6103c660008051602061525583398151915281565b610422610796366004614546565b611218565b6103ef611225565b61039e6107b1366004614946565b6001600160a01b03918216600090815260026020908152604080832093909416825291909152205460ff1690565b6106646107ed366004614894565b611234565b610422610800366004614974565b6112da565b6104226108133660046144e5565b61131f565b6104226108263660046149dc565b611417565b6104226108393660046141d5565b611422565b61042261084c36600461472c565b61142b565b60006001600160a01b0383166108bf5760405162461bcd60e51b815260206004820152602860248201527f4b495033373a2061646472657373207a65726f206973206e6f7420612076616c60448201526734b21037bbb732b960c11b60648201526084015b60405180910390fd5b506000818152602081815260408083206001600160a01b03861684529091529020545b92915050565b60006108f38261148b565b806109025750610902826114cf565b806108e257506108e2826114f4565b6060600c805461092090614a11565b80601f016020809104026020016040519081016040528092919081815260200182805461094c90614a11565b80156109995780601f1061096e57610100808354040283529160200191610999565b820191906000526020600020905b81548152906001019060200180831161097c57829003601f168201915b5050505050905090565b60606108e282611528565b6109b781611607565b50565b6001600160a01b0385163314806109d657506109d685336107b1565b610a3b5760405162461bcd60e51b815260206004820152603060248201527f4b495033373a207472616e736665722063616c6c6572206973206e6f74206f7760448201526f1b995c881b9bdc88185c1c1c9bdd995960821b60648201526084016108b6565b610a488585858585611644565b5050505050565b600082815260066020526040902060010154610a6a816117ee565b610a7483836117f8565b505050565b6001600160a01b0381163314610ae95760405162461bcd60e51b815260206004820152602f60248201527f416363657373436f6e74726f6c3a2063616e206f6e6c792072656e6f756e636560448201526e103937b632b9903337b91039b2b63360891b60648201526084016108b6565b610af3828261181a565b5050565b610a48858585858561183c565b610b1c60008051602061525583398151915233610e68565b610b385760405162461bcd60e51b81526004016108b690614a4b565b610b40611849565b565b610a488585858585611869565b60006108e282611876565b6000610b67848484611883565b949350505050565b60608151835114610bd05760405162461bcd60e51b815260206004820152602560248201527f4b495033373a206f776e65727320616e6420696473206c656e677468206d69736044820152640dac2e8c6d60db1b60648201526084016108b6565b600083516001600160401b03811115610beb57610beb6142c5565b604051908082528060200260200182016040528015610c14578160200160208202803683370190505b50905060005b8451811015610c8c57610c5f858281518110610c3857610c38614aa8565b6020026020010151858381518110610c5257610c52614aa8565b6020026020010151610851565b828281518110610c7157610c71614aa8565b6020908102919091010152610c8581614ad4565b9050610c1a565b509392505050565b6011546001600160a01b03163314610cbe5760405162461bcd60e51b81526004016108b690614aed565b6109b7816119ba565b6000610cd560085460ff1690565b905090565b610a748383836119c3565b610b4033611a06565b6011546001600160a01b03163314610d185760405162461bcd60e51b81526004016108b690614aed565b610b4060006110d8565b610d2b33610b4f565b610d905760405162461bcd60e51b815260206004820152603060248201527f506175736572526f6c653a2063616c6c657220646f6573206e6f74206861766560448201526f207468652050617573657220726f6c6560801b60648201526084016108b6565b6109b781611a48565b610da233610fa5565b610dbe5760405162461bcd60e51b81526004016108b690614b24565b610a7482848360405180602001604052806000815250611a8a565b610df160008051602061525583398151915233610e68565b610e0d5760405162461bcd60e51b81526004016108b690614b74565b610b40611ba3565b6011546001600160a01b03163314610e3f5760405162461bcd60e51b81526004016108b690614aed565b610af38282611bc3565b6000828152600760205260408120610e619083611bcd565b9392505050565b60009182526006602090815260408084206001600160a01b0393909316845291905290205460ff1690565b6060600d805461092090614a11565b610eab33610fa5565b610ec75760405162461bcd60e51b81526004016108b690614b24565b6109b781611bd9565b610b4033611c1b565b610af3338383611c5d565b60608060608060005b60018651610efb9190614bd1565b811015610f97576001600160a01b038716600090815260046020526040812087518290899085908110610f3057610f30614aa8565b602002602001015181526020019081526020016000205490506000811115610f8457610f7584888481518110610f6857610f68614aa8565b6020026020010151611d3b565b9350610f818382611d3b565b92505b5080610f8f81614ad4565b915050610eed565b5090925090505b9250929050565b60006108e282611e0c565b610a488585858585611e19565b60008181526007602052604081206108e290611e26565b610fdd33610fa5565b610ff95760405162461bcd60e51b81526004016108b690614b24565b805182511461105c5760405162461bcd60e51b815260206004820152602960248201527f4b495033373a20746f4c69737420616e6420616d6f756e7473206c656e677468604482015268040dad2e6dac2e8c6d60bb1b60648201526084016108b6565b60005b82518110156110d257600083828151811061107c5761107c614aa8565b60200260200101519050600083838151811061109a5761109a614aa8565b602002602001015190506110bf82878360405180602001604052806000815250611a8a565b5050806110cb90614ad4565b905061105f565b50505050565b6011546001600160a01b031633146111025760405162461bcd60e51b81526004016108b690614aed565b61110b81611e0c565b6111185761111881611bd9565b60115461112d906001600160a01b0316611e0c565b1561114757601154611147906001600160a01b0316611c1b565b61115081611876565b61115d5761115d81611a48565b601154611172906001600160a01b0316611876565b1561118c5760115461118c906001600160a01b0316611a06565b6011546040516001600160a01b038084169216907f8be0079c531659141344cd1fd0a4f28419497f9722a3daafe3b4186f6b6457e090600090a3601180546001600160a01b0319166001600160a01b0392909216919091179055565b600082815260066020526040902060010154611203816117ee565b610a74838361181a565b610a74838383611e30565b610a488585858585611e8d565b60606012805461092090614a11565b60608060608060005b6001865161124b9190614bd1565b811015610f97576001600160a01b03871660009081526003602052604081208751829089908590811061128057611280614aa8565b6020026020010151815260200190815260200160002054905060008111156112c7576112b884888481518110610f6857610f68614aa8565b93506112c48382611d3b565b92505b50806112d281614ad4565b91505061123d565b6001600160a01b0385163314806112f657506112f685336107b1565b6113125760405162461bcd60e51b81526004016108b690614be4565b610a488585858585611e9a565b6011546001600160a01b031633146113495760405162461bcd60e51b81526004016108b690614aed565b6001600160a01b0381166113b05760405162461bcd60e51b815260206004820152602860248201527f4f776e6572526f6c653a206e6577206f776e657220697320746865207a65726f604482015267206164647265737360c01b60648201526084016108b6565b6011546001600160a01b039081169082160361140e5760405162461bcd60e51b815260206004820152601f60248201527f4f776e6572526f6c653a20616c726561647920697320746865206f776e65720060448201526064016108b6565b6109b7816110d8565b610a74838383611fd2565b6109b781612015565b6011546001600160a01b031633146114555760405162461bcd60e51b81526004016108b690614aed565b61145e81612052565b60405160200161146e9190614c2b565b60405160208183030381529060405260129081610af39190614cb6565b6000611496826114cf565b806114a557506114a5826114f4565b806114c057506001600160e01b03198216630b7f5a3560e31b145b806108e257506108e2826121b6565b60006001600160e01b03198216634f04a74f60e11b14806108e257506108e2826121f6565b60006001600160e01b03198216630e8ffdb760e01b14806115195750611519826121b6565b806108e257506108e2826121f6565b6000818152600b602052604081208054606092919061154690614a11565b80601f016020809104026020016040519081016040528092919081815260200182805461157290614a11565b80156115bf5780601f10611594576101008083540402835291602001916115bf565b820191906000526020600020905b8154815290600101906020018083116115a257829003601f168201915b5050505050905060008151116115dd576115d88361221b565b610e61565b600a816040516020016115f1929190614d75565b6040516020818303038152906040529392505050565b61161f60008051602061525583398151915233610e68565b61163b5760405162461bcd60e51b81526004016108b690614b74565b6109b7816122af565b81518351146116655760405162461bcd60e51b81526004016108b690614dfc565b6001600160a01b03841661168b5760405162461bcd60e51b81526004016108b690614e42565b3361169a818787878787612398565b60005b84518110156117805760008582815181106116ba576116ba614aa8565b6020026020010151905060008583815181106116d8576116d8614aa8565b602090810291909101810151600084815280835260408082206001600160a01b038e1683529093529190912054909150818110156117285760405162461bcd60e51b81526004016108b690614e85565b6000838152602081815260408083206001600160a01b038e8116855292528083208585039055908b16825281208054849290611765908490614ecd565b925050819055505050508061177990614ad4565b905061169d565b50846001600160a01b0316866001600160a01b0316826001600160a01b03167f4a39dc06d4c0dbc64b70af90fd698a233a518aa5d07e595d983b8c0526c8f7fb87876040516117d09291906148d9565b60405180910390a46117e68187878787876123a6565b505050505050565b6109b78133612445565b61180282826124a9565b6000828152600760205260409020610a74908261252f565b6118248282612544565b6000828152600760205260409020610a7490826125ab565b610a4885858585856125c0565b600080516020615255833981519152611861816117ee565b6109b76125f2565b610a488585858585612687565b60006108e26010836126b9565b600061188e33610fa5565b6118aa5760405162461bcd60e51b81526004016108b690614b24565b6000848152600f60205260409020546001600160a01b03161561190f5760405162461bcd60e51b815260206004820152601c60248201527f4b495033373a20746f6b656e20616c726561647920637265617465640000000060448201526064016108b6565b336000858152600f6020526040902080546001600160a01b0319166001600160a01b039290921691909117905561195733858560405180602001604052806000815250611a8a565b8151156119b0576000848152600b602052604090206119768382614cb6565b50837f6bb7ff708619ba0610cba295a58592e0451dee2622938c8755667688daf3529b836040516119a791906142b2565b60405180910390a25b5060019392505050565b6109b78161273c565b6001600160a01b0383163314806119df57506119df83336107b1565b6119fb5760405162461bcd60e51b81526004016108b690614be4565b610a74838383612748565b611a116010826128e4565b6040516001600160a01b038216907fcd265ebaf09df2871cc7bd4133404a235ba12eff2041bb89d9c714a2621c7c7e90600090a250565b611a53601082612966565b6040516001600160a01b038216907f6719d08c1888103bea251a4ed56406bd0c3e69723c8a1686e017e7bbe159b6f890600090a250565b6001600160a01b038416611ae05760405162461bcd60e51b815260206004820152601f60248201527f4b495033373a206d696e7420746f20746865207a65726f20616464726573730060448201526064016108b6565b336000611aec856129e2565b90506000611af9856129e2565b9050611b0a83600089858589612398565b6000868152602081815260408083206001600160a01b038b16845290915281208054879290611b3a908490614ecd565b909155505060408051878152602081018790526001600160a01b03808a1692600092918716917fc3d58168c5ae7397731d063d5bbf3d657854427343f4c083240f7aacaa2d0f62910160405180910390a4611b9a83600089898989612a2d565b50505050505050565b600080516020615255833981519152611bbb816117ee565b6109b7612a4f565b610af38282612acc565b6000610e618383612b29565b611be4600e82612966565b6040516001600160a01b038216907f6ae172837ea30b801fbfcdd4108aa1d5bf8ff775444fd70256b44e6bf3dfc3f690600090a250565b611c26600e826128e4565b6040516001600160a01b038216907fe94479a9f7e1952cc78f2d6baab678adc1b772d936c6583def489e524cb6669290600090a250565b816001600160a01b0316836001600160a01b031603611cce5760405162461bcd60e51b815260206004820152602760248201527f4b495033373a2073657474696e6720617070726f76616c20737461747573206660448201526637b91039b2b63360c91b60648201526084016108b6565b6001600160a01b03838116600081815260026020908152604080832094871680845294825291829020805460ff191686151590811790915591519182527f17307eab39ab6107e8899845ad3d59bd9653f200f220920489ca2b5937696c31910160405180910390a3505050565b6060600083516001611d4d9190614ecd565b6001600160401b03811115611d6457611d646142c5565b604051908082528060200260200182016040528015611d8d578160200160208202803683370190505b50905060005b8451811015611de557848181518110611dae57611dae614aa8565b6020026020010151828281518110611dc857611dc8614aa8565b602090810291909101015280611ddd81614ad4565b915050611d93565b508281855181518110611dfa57611dfa614aa8565b60209081029190910101529392505050565b60006108e2600e836126b9565b610a488585858585612b53565b60006108e2825490565b611e3933610fa5565b611e555760405162461bcd60e51b81526004016108b690614b24565b60005b8251811015611e7157611e6a81614ad4565b9050611e58565b50610a7483838360405180602001604052806000815250612b85565b610a488585858585612d0f565b6001600160a01b038416611ec05760405162461bcd60e51b81526004016108b690614e42565b336000611ecc856129e2565b90506000611ed9856129e2565b9050611ee9838989858589612398565b6000868152602081815260408083206001600160a01b038c16845290915290205485811015611f2a5760405162461bcd60e51b81526004016108b690614e85565b6000878152602081815260408083206001600160a01b038d8116855292528083208985039055908a16825281208054889290611f67908490614ecd565b909155505060408051888152602081018890526001600160a01b03808b16928c821692918816917fc3d58168c5ae7397731d063d5bbf3d657854427343f4c083240f7aacaa2d0f62910160405180910390a4611fc7848a8a8a8a8a612a2d565b505050505050505050565b6001600160a01b038316331480611fee5750611fee83336107b1565b61200a5760405162461bcd60e51b81526004016108b690614be4565b610a74838383612d41565b61202d60008051602061525583398151915233610e68565b6120495760405162461bcd60e51b81526004016108b690614a4b565b6109b781612e59565b6060815160000361207157505060408051602081019091526000815290565b600060405180606001604052806040815260200161521560409139905060006003845160026120a09190614ecd565b6120aa9190614ee0565b6120b5906004614f02565b905060006120c4826020614ecd565b6001600160401b038111156120db576120db6142c5565b6040519080825280601f01601f191660200182016040528015612105576020820181803683370190505b509050818152600183018586518101602084015b81831015612171576003830192508251603f8160121c168501518253600182019150603f81600c1c168501518253600182019150603f8160061c168501518253600182019150603f8116850151825350600101612119565b60038951066001811461218b576002811461219c576121a8565b613d3d60f01b6001198301526121a8565b603d60f81b6000198301525b509398975050505050505050565b60006001600160e01b03198216636433ca1f60e01b14806121e757506001600160e01b031982166303a24d0760e21b145b806108e257506108e282612f1f565b60006001600160e01b03198216635a05180f60e01b14806108e257506108e282612f35565b60606005805461222a90614a11565b80601f016020809104026020016040519081016040528092919081815260200182805461225690614a11565b80156122a35780601f10612278576101008083540402835291602001916122a3565b820191906000526020600020905b81548152906001019060200180831161228657829003601f168201915b50505050509050919050565b6000805160206152558339815191526122c7816117ee565b60008281526009602052604090205460ff16156123325760405162461bcd60e51b815260206004820152602360248201527f4b495033375061757361626c653a20746f6b656e20616c7265616479207061756044820152621cd95960ea1b60648201526084016108b6565b6000828152600960205260409020805460ff191660011790557f8622310c27420d43447724ef64e214ebf86405b8e9f149480fb03111f811e5196123733390565b604080516001600160a01b039092168252602082018590520160405180910390a15050565b6117e6868686868686612f5a565b6123b4868686868686612f68565b806123c857506123c8868686868686613060565b6117e65760405162461bcd60e51b815260206004820152604260248201527f4b495033373a207472616e7366657220746f206e6f6e20494b4950333752656360448201527f65697665722f4945524331313535526563656976657220696d706c656d656e7460648201526132b960f11b608482015260a4016108b6565b61244f8282610e68565b610af357612467816001600160a01b03166014613129565b612472836020613129565b604051602001612483929190614f19565b60408051601f198184030181529082905262461bcd60e51b82526108b6916004016142b2565b6124b38282610e68565b610af35760008281526006602090815260408083206001600160a01b03851684529091529020805460ff191660011790556124eb3390565b6001600160a01b0316816001600160a01b0316837f2f8788117e7eff1d82e926ec794901d17c78024a50270940304540a733656f0d60405160405180910390a45050565b6000610e61836001600160a01b0384166132c4565b61254e8282610e68565b15610af35760008281526006602090815260408083206001600160a01b0385168085529252808320805460ff1916905551339285917ff6391f5c32d9c69d2a47ea670b442974b53935d1edc7fd64eb21e047a839171b9190a45050565b6000610e61836001600160a01b038416613313565b6125c933610fa5565b6125e55760405162461bcd60e51b81526004016108b690614b24565b610a488585858585613406565b6125fa610cc7565b61263d5760405162461bcd60e51b815260206004820152601460248201527314185d5cd8589b194e881b9bdd081c185d5cd95960621b60448201526064016108b6565b6008805460ff191690557f5db9ee0a495bf2e6ff9c91a7834c1ba4fdd244a5e8aa4e537bd38aeae4b073aa335b6040516001600160a01b03909116815260200160405180910390a1565b61269033610fa5565b6126ac5760405162461bcd60e51b81526004016108b690614b24565b610a488585858585613597565b60006001600160a01b03821661271c5760405162461bcd60e51b815260206004820152602260248201527f526f6c65733a206163636f756e7420697320746865207a65726f206164647265604482015261737360f01b60648201526084016108b6565b506001600160a01b03166000908152602091909152604090205460ff1690565b600a610af38282614cb6565b6001600160a01b03831661276e5760405162461bcd60e51b81526004016108b690614f8e565b805182511461278f5760405162461bcd60e51b81526004016108b690614dfc565b60003390506127b281856000868660405180602001604052806000815250612398565b60005b83518110156128775760008482815181106127d2576127d2614aa8565b6020026020010151905060008483815181106127f0576127f0614aa8565b602090810291909101810151600084815280835260408082206001600160a01b038c1683529093529190912054909150818110156128405760405162461bcd60e51b81526004016108b690614fcf565b6000928352602083815260408085206001600160a01b038b168652909152909220910390558061286f81614ad4565b9150506127b5565b5060006001600160a01b0316846001600160a01b0316826001600160a01b03167f4a39dc06d4c0dbc64b70af90fd698a233a518aa5d07e595d983b8c0526c8f7fb86866040516128c89291906148d9565b60405180910390a46040805160208101909152600090526110d2565b6128ee82826126b9565b6129445760405162461bcd60e51b815260206004820152602160248201527f526f6c65733a206163636f756e7420646f6573206e6f74206861766520726f6c6044820152606560f81b60648201526084016108b6565b6001600160a01b0316600090815260209190915260409020805460ff19169055565b61297082826126b9565b156129bd5760405162461bcd60e51b815260206004820152601f60248201527f526f6c65733a206163636f756e7420616c72656164792068617320726f6c650060448201526064016108b6565b6001600160a01b0316600090815260209190915260409020805460ff19166001179055565b60408051600180825281830190925260609160009190602080830190803683370190505090508281600081518110612a1c57612a1c614aa8565b602090810291909101015292915050565b612a3b868686868686613853565b806123c857506123c886868686868661391c565b612a57610cc7565b15612a975760405162461bcd60e51b815260206004820152601060248201526f14185d5cd8589b194e881c185d5cd95960821b60448201526064016108b6565b6008805460ff191660011790557f62e78cea01bee320cd4e420270b5ea74000d11b0c9f74754ebdbfc544b05a25861266a3390565b6000828152600b60205260409020612ae48282614cb6565b50817f6bb7ff708619ba0610cba295a58592e0451dee2622938c8755667688daf3529b612b10846109a3565b604051612b1d91906142b2565b60405180910390a25050565b6000826000018281548110612b4057612b40614aa8565b9060005260206000200154905092915050565b612b5c33610fa5565b612b785760405162461bcd60e51b81526004016108b690614b24565b610a4885858585856139e5565b6001600160a01b038416612bdb5760405162461bcd60e51b815260206004820152601f60248201527f4b495033373a206d696e7420746f20746865207a65726f20616464726573730060448201526064016108b6565b8151835114612bfc5760405162461bcd60e51b81526004016108b690614dfc565b33612c0c81600087878787612398565b60005b8451811015612ca757838181518110612c2a57612c2a614aa8565b6020026020010151600080878481518110612c4757612c47614aa8565b602002602001015181526020019081526020016000206000886001600160a01b03166001600160a01b031681526020019081526020016000206000828254612c8f9190614ecd565b90915550819050612c9f81614ad4565b915050612c0f565b50846001600160a01b031660006001600160a01b0316826001600160a01b03167f4a39dc06d4c0dbc64b70af90fd698a233a518aa5d07e595d983b8c0526c8f7fb8787604051612cf89291906148d9565b60405180910390a4610a48816000878787876123a6565b612d1833610fa5565b612d345760405162461bcd60e51b81526004016108b690614b24565b610a488585858585613b76565b6001600160a01b038316612d675760405162461bcd60e51b81526004016108b690614f8e565b336000612d73846129e2565b90506000612d80846129e2565b9050612da083876000858560405180602001604052806000815250612398565b6000858152602081815260408083206001600160a01b038a16845290915290205484811015612de15760405162461bcd60e51b81526004016108b690614fcf565b6000868152602081815260408083206001600160a01b038b81168086529184528285208a8703905582518b81529384018a90529092908816917fc3d58168c5ae7397731d063d5bbf3d657854427343f4c083240f7aacaa2d0f62910160405180910390a4604080516020810190915260009052611b9a565b600080516020615255833981519152612e71816117ee565b60008281526009602052604090205460ff161515600114612ee25760405162461bcd60e51b815260206004820152602560248201527f4b495033375061757361626c653a20746f6b656e20616c726561647920756e70604482015264185d5cd95960da1b60648201526084016108b6565b6000828152600960205260409020805460ff191690557f9db9e80f56a6219278c09b5683f265be968540b2e4d3c07303262ff72916ad7833612373565b6001600160e01b0319166301ffc9a760e01b1490565b60006001600160e01b03198216637965db0b60e01b14806108e257506108e282612f1f565b6117e6868686868686613e32565b60006001600160a01b0385163b1561305257604051634da4f19960e11b81526001600160a01b03861690639b49e33290612fae908a908a90899089908990600401615011565b6020604051808303816000875af1925050508015612fe9575060408051601f3d908101601f19168201909252612fe69181019061506f565b60015b613038573d808015613017576040519150601f19603f3d011682016040523d82523d6000602084013e61301c565b606091505b508051600003613030576000915050613056565b805181602001fd5b6001600160e01b031916634da4f19960e11b149050613056565b5060015b9695505050505050565b60006001600160a01b0385163b156130525760405163bc197c8160e01b81526001600160a01b0386169063bc197c81906130a6908a908a90899089908990600401615011565b6020604051808303816000875af19250505080156130e1575060408051601f3d908101601f191682019092526130de9181019061506f565b60015b61310f573d808015613017576040519150601f19603f3d011682016040523d82523d6000602084013e61301c565b6001600160e01b03191663bc197c8160e01b149050613056565b60606000613138836002614f02565b613143906002614ecd565b6001600160401b0381111561315a5761315a6142c5565b6040519080825280601f01601f191660200182016040528015613184576020820181803683370190505b509050600360fc1b8160008151811061319f5761319f614aa8565b60200101906001600160f81b031916908160001a905350600f60fb1b816001815181106131ce576131ce614aa8565b60200101906001600160f81b031916908160001a90535060006131f2846002614f02565b6131fd906001614ecd565b90505b6001811115613275576f181899199a1a9b1b9c1cb0b131b232b360811b85600f166010811061323157613231614aa8565b1a60f81b82828151811061324757613247614aa8565b60200101906001600160f81b031916908160001a90535060049490941c9361326e8161508c565b9050613200565b508315610e615760405162461bcd60e51b815260206004820181905260248201527f537472696e67733a20686578206c656e67746820696e73756666696369656e7460448201526064016108b6565b600081815260018301602052604081205461330b575081546001818101845560008481526020808220909301849055845484825282860190935260409020919091556108e2565b5060006108e2565b600081815260018301602052604081205480156133fc576000613337600183614bd1565b855490915060009061334b90600190614bd1565b90508181146133b057600086600001828154811061336b5761336b614aa8565b906000526020600020015490508087600001848154811061338e5761338e614aa8565b6000918252602080832090910192909255918252600188019052604090208390555b85548690806133c1576133c16150a3565b6001900381819060005260206000200160009055905585600101600086815260200190815260200160002060009055600193505050506108e2565b60009150506108e2565b8281146134255760405162461bcd60e51b81526004016108b6906150b9565b60005b838110156117e65784848281811061344257613442614aa8565b905060200201356000036134685760405162461bcd60e51b81526004016108b6906150e8565b6001600160a01b03861660009081526003602052604081209086868481811061349357613493614aa8565b905060200201358152602001908152602001600020546000036134c85760405162461bcd60e51b81526004016108b690615112565b60008383838181106134dc576134dc614aa8565b9050602002013560036000896001600160a01b03166001600160a01b03168152602001908152602001600020600088888681811061351c5761351c614aa8565b9050602002013581526020019081526020016000205461353c9190614bd1565b90506001600160a01b0387166000908152600360205260408120829188888681811061356a5761356a614aa8565b9050602002013581526020019081526020016000208190555050808061358f90614ad4565b915050613428565b8281146135b65760405162461bcd60e51b81526004016108b6906150b9565b60005b838110156117e6578484828181106135d3576135d3614aa8565b905060200201356000036135f95760405162461bcd60e51b81526004016108b6906150e8565b600080600087878581811061361057613610614aa8565b9050602002013581526020019081526020016000206000886001600160a01b03166001600160a01b0316815260200190815260200160002054116136665760405162461bcd60e51b81526004016108b690615112565b600080600087878581811061367d5761367d614aa8565b6020908102929092013583525081810192909252604090810160009081206001600160a01b038b168252835281812054600390935290812091925090818888868181106136cc576136cc614aa8565b905060200201358152602001908152602001600020548585858181106136f4576136f4614aa8565b90506020020135600460008b6001600160a01b03166001600160a01b0316815260200190815260200160002060008a8a8881811061373457613734614aa8565b905060200201358152602001908152602001600020546137549190614ecd565b61375e9190614ecd565b9050808210156137805760405162461bcd60e51b81526004016108b690615140565b600085858581811061379457613794614aa8565b90506020020135600460008b6001600160a01b03166001600160a01b0316815260200190815260200160002060008a8a888181106137d4576137d4614aa8565b905060200201358152602001908152602001600020546137f49190614ecd565b6001600160a01b038a1660009081526004602052604081209192508291908a8a8881811061382457613824614aa8565b90506020020135815260200190815260200160002081905550505050808061384b90614ad4565b9150506135b9565b60006001600160a01b0385163b156130525760405163e78b332560e01b81526001600160a01b0386169063e78b332590613899908a908a90899089908990600401615185565b6020604051808303816000875af19250505080156138d4575060408051601f3d908101601f191682019092526138d19181019061506f565b60015b613902573d808015613017576040519150601f19603f3d011682016040523d82523d6000602084013e61301c565b6001600160e01b03191663e78b332560e01b149050613056565b60006001600160a01b0385163b156130525760405163f23a6e6160e01b81526001600160a01b0386169063f23a6e6190613962908a908a90899089908990600401615185565b6020604051808303816000875af192505050801561399d575060408051601f3d908101601f1916820190925261399a9181019061506f565b60015b6139cb573d808015613017576040519150601f19603f3d011682016040523d82523d6000602084013e61301c565b6001600160e01b03191663f23a6e6160e01b149050613056565b828114613a045760405162461bcd60e51b81526004016108b6906150b9565b60005b838110156117e657848482818110613a2157613a21614aa8565b90506020020135600003613a475760405162461bcd60e51b81526004016108b6906150e8565b6001600160a01b038616600090815260046020526040812090868684818110613a7257613a72614aa8565b90506020020135815260200190815260200160002054600003613aa75760405162461bcd60e51b81526004016108b690615112565b6000838383818110613abb57613abb614aa8565b9050602002013560046000896001600160a01b03166001600160a01b031681526020019081526020016000206000888886818110613afb57613afb614aa8565b90506020020135815260200190815260200160002054613b1b9190614bd1565b90506001600160a01b03871660009081526004602052604081208291888886818110613b4957613b49614aa8565b90506020020135815260200190815260200160002081905550508080613b6e90614ad4565b915050613a07565b828114613b955760405162461bcd60e51b81526004016108b6906150b9565b60005b838110156117e657848482818110613bb257613bb2614aa8565b90506020020135600003613bd85760405162461bcd60e51b81526004016108b6906150e8565b6000806000878785818110613bef57613bef614aa8565b9050602002013581526020019081526020016000206000886001600160a01b03166001600160a01b031681526020019081526020016000205411613c455760405162461bcd60e51b81526004016108b690615112565b6000806000878785818110613c5c57613c5c614aa8565b6020908102929092013583525081810192909252604090810160009081206001600160a01b038b16825283528181205460049093529081209192509081888886818110613cab57613cab614aa8565b90506020020135815260200190815260200160002054858585818110613cd357613cd3614aa8565b90506020020135600360008b6001600160a01b03166001600160a01b0316815260200190815260200160002060008a8a88818110613d1357613d13614aa8565b90506020020135815260200190815260200160002054613d339190614ecd565b613d3d9190614ecd565b905080821015613d5f5760405162461bcd60e51b81526004016108b690615140565b6000858585818110613d7357613d73614aa8565b90506020020135600360008b6001600160a01b03166001600160a01b0316815260200190815260200160002060008a8a88818110613db357613db3614aa8565b90506020020135815260200190815260200160002054613dd39190614ecd565b6001600160a01b038a1660009081526003602052604081209192508291908a8a88818110613e0357613e03614aa8565b905060200201358152602001908152602001600020819055505050508080613e2a90614ad4565b915050613b98565b613e40868686868686613ed7565b60005b8351811015613eb1576000848281518110613e6057613e60614aa8565b60200260200101519050613e838160009081526009602052604090205460ff1690565b15613ea05760405162461bcd60e51b81526004016108b6906151ca565b50613eaa81614ad4565b9050613e43565b50613eba610cc7565b156117e65760405162461bcd60e51b81526004016108b6906151ca565b60005b835181101561405d576001600160a01b038616600090815260046020526040812085518290879085908110613f1157613f11614aa8565b602002602001015181526020019081526020016000205460036000896001600160a01b03166001600160a01b031681526020019081526020016000206000878581518110613f6157613f61614aa8565b6020026020010151815260200190815260200160002054613f829190614ecd565b600080878581518110613f9757613f97614aa8565b602002602001015181526020019081526020016000206000896001600160a01b03166001600160a01b0316815260200190815260200160002054613fdb9190614bd1565b90506001600160a01b0387161580159061400d575083828151811061400257614002614aa8565b602002602001015181105b1561404c5760405162461bcd60e51b815260206004820152600f60248201526e151bdad95b881a5cc81b1bd8dad959608a1b60448201526064016108b6565b5061405681614ad4565b9050613eda565b506001600160a01b0385166140e55760005b83518110156140e35782818151811061408a5761408a614aa8565b6020026020010151600160008684815181106140a8576140a8614aa8565b6020026020010151815260200190815260200160002060008282546140cd9190614ecd565b909155506140dc905081614ad4565b905061406f565b505b6001600160a01b0384166117e65760005b8351811015611b9a57600084828151811061411357614113614aa8565b60200260200101519050600084838151811061413157614131614aa8565b60200260200101519050600060016000848152602001908152602001600020549050818110156141b25760405162461bcd60e51b815260206004820152602660248201527f4b495033373a206275726e20616d6f756e74206578636565647320746f74616c604482015265537570706c7960d01b60648201526084016108b6565b600092835260016020526040909220910390556141ce81614ad4565b90506140f6565b6000602082840312156141e757600080fd5b5035919050565b6001600160a01b03811681146109b757600080fd5b6000806040838503121561421657600080fd5b8235614221816141ee565b946020939093013593505050565b6001600160e01b0319811681146109b757600080fd5b60006020828403121561425757600080fd5b8135610e618161422f565b60005b8381101561427d578181015183820152602001614265565b50506000910152565b6000815180845261429e816020860160208601614262565b601f01601f19169290920160200192915050565b602081526000610e616020830184614286565b634e487b7160e01b600052604160045260246000fd5b604051601f8201601f191681016001600160401b0381118282101715614303576143036142c5565b604052919050565b60006001600160401b03821115614324576143246142c5565b5060051b60200190565b600082601f83011261433f57600080fd5b8135602061435461434f8361430b565b6142db565b82815260059290921b8401810191818101908684111561437357600080fd5b8286015b8481101561438e5780358352918301918301614377565b509695505050505050565b600082601f8301126143aa57600080fd5b81356001600160401b038111156143c3576143c36142c5565b6143d6601f8201601f19166020016142db565b8181528460208386010111156143eb57600080fd5b816020850160208301376000918101602001919091529392505050565b600080600080600060a0868803121561442057600080fd5b853561442b816141ee565b9450602086013561443b816141ee565b935060408601356001600160401b038082111561445757600080fd5b61446389838a0161432e565b9450606088013591508082111561447957600080fd5b61448589838a0161432e565b9350608088013591508082111561449b57600080fd5b506144a888828901614399565b9150509295509295909350565b600080604083850312156144c857600080fd5b8235915060208301356144da816141ee565b809150509250929050565b6000602082840312156144f757600080fd5b8135610e61816141ee565b60008083601f84011261451457600080fd5b5081356001600160401b0381111561452b57600080fd5b6020830191508360208260051b8501011115610f9e57600080fd5b60008060008060006060868803121561455e57600080fd5b8535614569816141ee565b945060208601356001600160401b038082111561458557600080fd5b61459189838a01614502565b909650945060408801359150808211156145aa57600080fd5b506145b788828901614502565b969995985093965092949392505050565b6000806000606084860312156145dd57600080fd5b833592506020840135915060408401356001600160401b0381111561460157600080fd5b61460d86828701614399565b9150509250925092565b600082601f83011261462857600080fd5b8135602061463861434f8361430b565b82815260059290921b8401810191818101908684111561465757600080fd5b8286015b8481101561438e57803561466e816141ee565b835291830191830161465b565b6000806040838503121561468e57600080fd5b82356001600160401b03808211156146a557600080fd5b6146b186838701614617565b935060208501359150808211156146c757600080fd5b506146d48582860161432e565b9150509250929050565b600081518084526020808501945080840160005b8381101561470e578151875295820195908201906001016146f2565b509495945050505050565b602081526000610e6160208301846146de565b60006020828403121561473e57600080fd5b81356001600160401b0381111561475457600080fd5b610b6784828501614399565b60008060006060848603121561477557600080fd5b8335614780816141ee565b925060208401356001600160401b038082111561479c57600080fd5b6147a88783880161432e565b935060408601359150808211156147be57600080fd5b5061460d8682870161432e565b6000806000606084860312156147e057600080fd5b8335925060208401356147f2816141ee565b929592945050506040919091013590565b6000806040838503121561481657600080fd5b8235915060208301356001600160401b0381111561483357600080fd5b6146d485828601614399565b6000806040838503121561485257600080fd5b50508035926020909101359150565b6000806040838503121561487457600080fd5b823561487f816141ee565b9150602083013580151581146144da57600080fd5b600080604083850312156148a757600080fd5b82356148b2816141ee565b915060208301356001600160401b038111156148cd57600080fd5b6146d48582860161432e565b6040815260006148ec60408301856146de565b82810360208401526148fe81856146de565b95945050505050565b60008060006060848603121561491c57600080fd5b8335925060208401356001600160401b038082111561493a57600080fd5b6147a887838801614617565b6000806040838503121561495957600080fd5b8235614964816141ee565b915060208301356144da816141ee565b600080600080600060a0868803121561498c57600080fd5b8535614997816141ee565b945060208601356149a7816141ee565b9350604086013592506060860135915060808601356001600160401b038111156149d057600080fd5b6144a888828901614399565b6000806000606084860312156149f157600080fd5b83356149fc816141ee565b95602085013595506040909401359392505050565b600181811c90821680614a2557607f821691505b602082108103614a4557634e487b7160e01b600052602260045260246000fd5b50919050565b60208082526039908201527f4b495033375072657365744d696e7465725061757365723a206d75737420686160408201527f76652070617573657220726f6c6520746f20756e706175736500000000000000606082015260800190565b634e487b7160e01b600052603260045260246000fd5b634e487b7160e01b600052601160045260246000fd5b600060018201614ae657614ae6614abe565b5060010190565b6020808252601e908201527f4f776e6572526f6c653a2063616c6c6572206973206e6f74206f776e65720000604082015260600190565b60208082526030908201527f4d696e746572526f6c653a2063616c6c657220646f6573206e6f74206861766560408201526f20746865204d696e74657220726f6c6560801b606082015260800190565b60208082526037908201527f4b495033375072657365744d696e7465725061757365723a206d75737420686160408201527f76652070617573657220726f6c6520746f207061757365000000000000000000606082015260800190565b818103818111156108e2576108e2614abe565b60208082526027908201527f4b495033373a2063616c6c6572206973206e6f74206f776e6572206e6f7220616040820152661c1c1c9bdd995960ca1b606082015260800190565b7f646174613a6170706c69636174696f6e2f6a736f6e3b6261736536342c000000815260008251614c6381601d850160208701614262565b91909101601d0192915050565b601f821115610a7457600081815260208120601f850160051c81016020861015614c975750805b601f850160051c820191505b818110156117e657828155600101614ca3565b81516001600160401b03811115614ccf57614ccf6142c5565b614ce381614cdd8454614a11565b84614c70565b602080601f831160018114614d185760008415614d005750858301515b600019600386901b1c1916600185901b1785556117e6565b600085815260208120601f198616915b82811015614d4757888601518255948401946001909101908401614d28565b5085821015614d655787850151600019600388901b60f8161c191681555b5050505050600190811b01905550565b6000808454614d8381614a11565b60018281168015614d9b5760018114614db057614ddf565b60ff1984168752821515830287019450614ddf565b8860005260208060002060005b85811015614dd65781548a820152908401908201614dbd565b50505082870194505b505050508351614df3818360208801614262565b01949350505050565b60208082526026908201527f4b495033373a2069647320616e6420616d6f756e7473206c656e677468206d696040820152650e6dac2e8c6d60d31b606082015260800190565b60208082526023908201527f4b495033373a207472616e7366657220746f20746865207a65726f206164647260408201526265737360e81b606082015260800190565b60208082526028908201527f4b495033373a20696e73756666696369656e742062616c616e636520666f72206040820152673a3930b739b332b960c11b606082015260800190565b808201808211156108e2576108e2614abe565b600082614efd57634e487b7160e01b600052601260045260246000fd5b500490565b80820281158282048414176108e2576108e2614abe565b7f416363657373436f6e74726f6c3a206163636f756e7420000000000000000000815260008351614f51816017850160208801614262565b7001034b99036b4b9b9b4b733903937b6329607d1b6017918401918201528351614f82816028840160208801614262565b01602801949350505050565b60208082526021908201527f4b495033373a206275726e2066726f6d20746865207a65726f206164647265736040820152607360f81b606082015260800190565b60208082526022908201527f4b495033373a206275726e20616d6f756e7420657863656564732062616c616e604082015261636560f01b606082015260800190565b6001600160a01b0386811682528516602082015260a06040820181905260009061503d908301866146de565b828103606084015261504f81866146de565b905082810360808401526150638185614286565b98975050505050505050565b60006020828403121561508157600080fd5b8151610e618161422f565b60008161509b5761509b614abe565b506000190190565b634e487b7160e01b600052603160045260246000fd5b602080825260159082015274496e76616c696420696e707574206c656e6774687360581b604082015260600190565b60208082526010908201526f125b9d985b1a59081d1bdad95b88125160821b604082015260600190565b602080825260149082015273151bdad95b88185b1c9958591e481b1bd8dad95960621b604082015260600190565b60208082526025908201527f546865206d6178696d756d206e756d62657220686173206265656e206578636560408201526432b232b21760d91b606082015260800190565b6001600160a01b03868116825285166020820152604081018490526060810183905260a0608082018190526000906151bf90830184614286565b979650505050505050565b6020808252602a908201527f4b495033375061757361626c653a20746f6b656e207472616e736665722077686040820152691a5b19481c185d5cd95960b21b60608201526080019056fe4142434445464748494a4b4c4d4e4f505152535455565758595a6162636465666768696a6b6c6d6e6f707172737475767778797a303132333435363738392b2f69176e6a1211cc6eac938139a9a70e4dd65f1b7d76e806459e7a34b759878e85a2646970667358221220921721b5dd69129be1daf432be786c369b81fbe3c22144534577bae2a8c4e3ae64736f6c63430008130033",
			"opcodes": "PUSH1 0xA0 PUSH1 0x40 MSTORE PUSH1 0x0 PUSH1 0x80 SWAP1 DUP2 MSTORE PUSH1 0xA SWAP1 PUSH3 0x1A SWAP1 DUP3 PUSH3 0x4A8 JUMP JUMPDEST POP CALLVALUE DUP1 ISZERO PUSH3 0x28 JUMPI PUSH1 0x0 DUP1 REVERT JUMPDEST POP PUSH1 0x40 MLOAD PUSH3 0x5967 CODESIZE SUB DUP1 PUSH3 0x5967 DUP4 CODECOPY DUP2 ADD PUSH1 0x40 DUP2 SWAP1 MSTORE PUSH3 0x4B SWAP2 PUSH3 0x623 JUMP JUMPDEST PUSH1 0x8 DUP1 SLOAD PUSH1 0xFF NOT AND SWAP1 SSTORE DUP3 DUP1 DUP1 DUP4 DUP6 PUSH1 0xC PUSH3 0x68 DUP3 DUP3 PUSH3 0x4A8 JUMP JUMPDEST POP PUSH1 0xD PUSH3 0x77 DUP4 DUP3 PUSH3 0x4A8 JUMP JUMPDEST POP PUSH3 0x85 PUSH1 0x0 CALLER PUSH3 0x122 JUMP JUMPDEST PUSH3 0xB1 PUSH32 0x9F2DF0FED2C77648DE5860A4CC508CD0818C85B8B8A1AB4CEEEF8D981C8956A6 CALLER PUSH3 0x122 JUMP JUMPDEST PUSH3 0xDD PUSH32 0x69176E6A1211CC6EAC938139A9A70E4DD65F1B7D76E806459E7A34B759878E85 CALLER PUSH3 0x122 JUMP JUMPDEST POP PUSH3 0xEB SWAP1 POP DUP2 PUSH3 0x132 JUMP JUMPDEST POP PUSH3 0xF7 DUP2 PUSH3 0x176 JUMP JUMPDEST POP PUSH1 0x11 DUP1 SLOAD PUSH1 0x1 PUSH1 0x1 PUSH1 0xA0 SHL SUB NOT AND PUSH1 0x1 PUSH1 0x1 PUSH1 0xA0 SHL SUB SWAP3 SWAP1 SWAP3 AND SWAP2 SWAP1 SWAP2 OR SWAP1 SSTORE POP PUSH3 0x6AD SWAP2 POP POP JUMP JUMPDEST PUSH3 0x12E DUP3 DUP3 PUSH3 0x1BA JUMP JUMPDEST POP POP JUMP JUMPDEST PUSH3 0x13F PUSH1 0xE DUP3 PUSH3 0x1E5 JUMP JUMPDEST PUSH1 0x40 MLOAD PUSH1 0x1 PUSH1 0x1 PUSH1 0xA0 SHL SUB DUP3 AND SWAP1 PUSH32 0x6AE172837EA30B801FBFCDD4108AA1D5BF8FF775444FD70256B44E6BF3DFC3F6 SWAP1 PUSH1 0x0 SWAP1 LOG2 POP JUMP JUMPDEST PUSH3 0x183 PUSH1 0x10 DUP3 PUSH3 0x1E5 JUMP JUMPDEST PUSH1 0x40 MLOAD PUSH1 0x1 PUSH1 0x1 PUSH1 0xA0 SHL SUB DUP3 AND SWAP1 PUSH32 0x6719D08C1888103BEA251A4ED56406BD0C3E69723C8A1686E017E7BBE159B6F8 SWAP1 PUSH1 0x0 SWAP1 LOG2 POP JUMP JUMPDEST PUSH3 0x1C6 DUP3 DUP3 PUSH3 0x269 JUMP JUMPDEST PUSH1 0x0 DUP3 DUP2 MSTORE PUSH1 0x7 PUSH1 0x20 MSTORE PUSH1 0x40 SWAP1 KECCAK256 PUSH3 0x1E0 SWAP1 DUP3 PUSH3 0x30D JUMP JUMPDEST POP POP POP JUMP JUMPDEST PUSH3 0x1F1 DUP3 DUP3 PUSH3 0x32D JUMP JUMPDEST ISZERO PUSH3 0x244 JUMPI PUSH1 0x40 MLOAD PUSH3 0x461BCD PUSH1 0xE5 SHL DUP2 MSTORE PUSH1 0x20 PUSH1 0x4 DUP3 ADD MSTORE PUSH1 0x1F PUSH1 0x24 DUP3 ADD MSTORE PUSH32 0x526F6C65733A206163636F756E7420616C72656164792068617320726F6C6500 PUSH1 0x44 DUP3 ADD MSTORE PUSH1 0x64 ADD JUMPDEST PUSH1 0x40 MLOAD DUP1 SWAP2 SUB SWAP1 REVERT JUMPDEST PUSH1 0x1 PUSH1 0x1 PUSH1 0xA0 SHL SUB AND PUSH1 0x0 SWAP1 DUP2 MSTORE PUSH1 0x20 SWAP2 SWAP1 SWAP2 MSTORE PUSH1 0x40 SWAP1 KECCAK256 DUP1 SLOAD PUSH1 0xFF NOT AND PUSH1 0x1 OR SWAP1 SSTORE JUMP JUMPDEST PUSH1 0x0 DUP3 DUP2 MSTORE PUSH1 0x6 PUSH1 0x20 SWAP1 DUP2 MSTORE PUSH1 0x40 DUP1 DUP4 KECCAK256 PUSH1 0x1 PUSH1 0x1 PUSH1 0xA0 SHL SUB DUP6 AND DUP5 MSTORE SWAP1 SWAP2 MSTORE SWAP1 KECCAK256 SLOAD PUSH1 0xFF AND PUSH3 0x12E JUMPI PUSH1 0x0 DUP3 DUP2 MSTORE PUSH1 0x6 PUSH1 0x20 SWAP1 DUP2 MSTORE PUSH1 0x40 DUP1 DUP4 KECCAK256 PUSH1 0x1 PUSH1 0x1 PUSH1 0xA0 SHL SUB DUP6 AND DUP5 MSTORE SWAP1 SWAP2 MSTORE SWAP1 KECCAK256 DUP1 SLOAD PUSH1 0xFF NOT AND PUSH1 0x1 OR SWAP1 SSTORE PUSH3 0x2C9 CALLER SWAP1 JUMP JUMPDEST PUSH1 0x1 PUSH1 0x1 PUSH1 0xA0 SHL SUB AND DUP2 PUSH1 0x1 PUSH1 0x1 PUSH1 0xA0 SHL SUB AND DUP4 PUSH32 0x2F8788117E7EFF1D82E926EC794901D17C78024A50270940304540A733656F0D PUSH1 0x40 MLOAD PUSH1 0x40 MLOAD DUP1 SWAP2 SUB SWAP1 LOG4 POP POP JUMP JUMPDEST PUSH1 0x0 PUSH3 0x324 DUP4 PUSH1 0x1 PUSH1 0x1 PUSH1 0xA0 SHL SUB DUP5 AND PUSH3 0x3B2 JUMP JUMPDEST SWAP1 POP JUMPDEST SWAP3 SWAP2 POP POP JUMP JUMPDEST PUSH1 0x0 PUSH1 0x1 PUSH1 0x1 PUSH1 0xA0 SHL SUB DUP3 AND PUSH3 0x392 JUMPI PUSH1 0x40 MLOAD PUSH3 0x461BCD PUSH1 0xE5 SHL DUP2 MSTORE PUSH1 0x20 PUSH1 0x4 DUP3 ADD MSTORE PUSH1 0x22 PUSH1 0x24 DUP3 ADD MSTORE PUSH32 0x526F6C65733A206163636F756E7420697320746865207A65726F206164647265 PUSH1 0x44 DUP3 ADD MSTORE PUSH2 0x7373 PUSH1 0xF0 SHL PUSH1 0x64 DUP3 ADD MSTORE PUSH1 0x84 ADD PUSH3 0x23B JUMP JUMPDEST POP PUSH1 0x1 PUSH1 0x1 PUSH1 0xA0 SHL SUB AND PUSH1 0x0 SWAP1 DUP2 MSTORE PUSH1 0x20 SWAP2 SWAP1 SWAP2 MSTORE PUSH1 0x40 SWAP1 KECCAK256 SLOAD PUSH1 0xFF AND SWAP1 JUMP JUMPDEST PUSH1 0x0 DUP2 DUP2 MSTORE PUSH1 0x1 DUP4 ADD PUSH1 0x20 MSTORE PUSH1 0x40 DUP2 KECCAK256 SLOAD PUSH3 0x3FB JUMPI POP DUP2 SLOAD PUSH1 0x1 DUP2 DUP2 ADD DUP5 SSTORE PUSH1 0x0 DUP5 DUP2 MSTORE PUSH1 0x20 DUP1 DUP3 KECCAK256 SWAP1 SWAP4 ADD DUP5 SWAP1 SSTORE DUP5 SLOAD DUP5 DUP3 MSTORE DUP3 DUP7 ADD SWAP1 SWAP4 MSTORE PUSH1 0x40 SWAP1 KECCAK256 SWAP2 SWAP1 SWAP2 SSTORE PUSH3 0x327 JUMP JUMPDEST POP PUSH1 0x0 PUSH3 0x327 JUMP JUMPDEST PUSH4 0x4E487B71 PUSH1 0xE0 SHL PUSH1 0x0 MSTORE PUSH1 0x41 PUSH1 0x4 MSTORE PUSH1 0x24 PUSH1 0x0 REVERT JUMPDEST PUSH1 0x1 DUP2 DUP2 SHR SWAP1 DUP3 AND DUP1 PUSH3 0x42F JUMPI PUSH1 0x7F DUP3 AND SWAP2 POP JUMPDEST PUSH1 0x20 DUP3 LT DUP2 SUB PUSH3 0x450 JUMPI PUSH4 0x4E487B71 PUSH1 0xE0 SHL PUSH1 0x0 MSTORE PUSH1 0x22 PUSH1 0x4 MSTORE PUSH1 0x24 PUSH1 0x0 REVERT JUMPDEST POP SWAP2 SWAP1 POP JUMP JUMPDEST PUSH1 0x1F DUP3 GT ISZERO PUSH3 0x1E0 JUMPI PUSH1 0x0 DUP2 DUP2 MSTORE PUSH1 0x20 DUP2 KECCAK256 PUSH1 0x1F DUP6 ADD PUSH1 0x5 SHR DUP2 ADD PUSH1 0x20 DUP7 LT ISZERO PUSH3 0x47F JUMPI POP DUP1 JUMPDEST PUSH1 0x1F DUP6 ADD PUSH1 0x5 SHR DUP3 ADD SWAP2 POP JUMPDEST DUP2 DUP2 LT ISZERO PUSH3 0x4A0 JUMPI DUP3 DUP2 SSTORE PUSH1 0x1 ADD PUSH3 0x48B JUMP JUMPDEST POP POP POP POP POP POP JUMP JUMPDEST DUP2 MLOAD PUSH1 0x1 PUSH1 0x1 PUSH1 0x40 SHL SUB DUP2 GT ISZERO PUSH3 0x4C4 JUMPI PUSH3 0x4C4 PUSH3 0x404 JUMP JUMPDEST PUSH3 0x4DC DUP2 PUSH3 0x4D5 DUP5 SLOAD PUSH3 0x41A JUMP JUMPDEST DUP5 PUSH3 0x456 JUMP JUMPDEST PUSH1 0x20 DUP1 PUSH1 0x1F DUP4 GT PUSH1 0x1 DUP2 EQ PUSH3 0x514 JUMPI PUSH1 0x0 DUP5 ISZERO PUSH3 0x4FB JUMPI POP DUP6 DUP4 ADD MLOAD JUMPDEST PUSH1 0x0 NOT PUSH1 0x3 DUP7 SWAP1 SHL SHR NOT AND PUSH1 0x1 DUP6 SWAP1 SHL OR DUP6 SSTORE PUSH3 0x4A0 JUMP JUMPDEST PUSH1 0x0 DUP6 DUP2 MSTORE PUSH1 0x20 DUP2 KECCAK256 PUSH1 0x1F NOT DUP7 AND SWAP2 JUMPDEST DUP3 DUP2 LT ISZERO PUSH3 0x545 JUMPI DUP9 DUP7 ADD MLOAD DUP3 SSTORE SWAP5 DUP5 ADD SWAP5 PUSH1 0x1 SWAP1 SWAP2 ADD SWAP1 DUP5 ADD PUSH3 0x524 JUMP JUMPDEST POP DUP6 DUP3 LT ISZERO PUSH3 0x564 JUMPI DUP8 DUP6 ADD MLOAD PUSH1 0x0 NOT PUSH1 0x3 DUP9 SWAP1 SHL PUSH1 0xF8 AND SHR NOT AND DUP2 SSTORE JUMPDEST POP POP POP POP POP PUSH1 0x1 SWAP1 DUP2 SHL ADD SWAP1 SSTORE POP JUMP JUMPDEST PUSH1 0x0 DUP3 PUSH1 0x1F DUP4 ADD SLT PUSH3 0x586 JUMPI PUSH1 0x0 DUP1 REVERT JUMPDEST DUP2 MLOAD PUSH1 0x1 PUSH1 0x1 PUSH1 0x40 SHL SUB DUP1 DUP3 GT ISZERO PUSH3 0x5A3 JUMPI PUSH3 0x5A3 PUSH3 0x404 JUMP JUMPDEST PUSH1 0x40 MLOAD PUSH1 0x1F DUP4 ADD PUSH1 0x1F NOT SWAP1 DUP2 AND PUSH1 0x3F ADD AND DUP2 ADD SWAP1 DUP3 DUP3 GT DUP2 DUP4 LT OR ISZERO PUSH3 0x5CE JUMPI PUSH3 0x5CE PUSH3 0x404 JUMP JUMPDEST DUP2 PUSH1 0x40 MSTORE DUP4 DUP2 MSTORE PUSH1 0x20 SWAP3 POP DUP7 DUP4 DUP6 DUP9 ADD ADD GT ISZERO PUSH3 0x5EB JUMPI PUSH1 0x0 DUP1 REVERT JUMPDEST PUSH1 0x0 SWAP2 POP JUMPDEST DUP4 DUP3 LT ISZERO PUSH3 0x60F JUMPI DUP6 DUP3 ADD DUP4 ADD MLOAD DUP2 DUP4 ADD DUP5 ADD MSTORE SWAP1 DUP3 ADD SWAP1 PUSH3 0x5F0 JUMP JUMPDEST PUSH1 0x0 SWAP4 DUP2 ADD SWAP1 SWAP3 ADD SWAP3 SWAP1 SWAP3 MSTORE SWAP5 SWAP4 POP POP POP POP JUMP JUMPDEST PUSH1 0x0 DUP1 PUSH1 0x0 PUSH1 0x60 DUP5 DUP7 SUB SLT ISZERO PUSH3 0x639 JUMPI PUSH1 0x0 DUP1 REVERT JUMPDEST DUP4 MLOAD PUSH1 0x1 PUSH1 0x1 PUSH1 0xA0 SHL SUB DUP2 AND DUP2 EQ PUSH3 0x651 JUMPI PUSH1 0x0 DUP1 REVERT JUMPDEST PUSH1 0x20 DUP6 ADD MLOAD SWAP1 SWAP4 POP PUSH1 0x1 PUSH1 0x1 PUSH1 0x40 SHL SUB DUP1 DUP3 GT ISZERO PUSH3 0x66F JUMPI PUSH1 0x0 DUP1 REVERT JUMPDEST PUSH3 0x67D DUP8 DUP4 DUP9 ADD PUSH3 0x574 JUMP JUMPDEST SWAP4 POP PUSH1 0x40 DUP7 ADD MLOAD SWAP2 POP DUP1 DUP3 GT ISZERO PUSH3 0x694 JUMPI PUSH1 0x0 DUP1 REVERT JUMPDEST POP PUSH3 0x6A3 DUP7 DUP3 DUP8 ADD PUSH3 0x574 JUMP JUMPDEST SWAP2 POP POP SWAP3 POP SWAP3 POP SWAP3 JUMP JUMPDEST PUSH2 0x52AA DUP1 PUSH3 0x6BD PUSH1 0x0 CODECOPY PUSH1 0x0 RETURN INVALID PUSH1 0x80 PUSH1 0x40 MSTORE CALLVALUE DUP1 ISZERO PUSH2 0x10 JUMPI PUSH1 0x0 DUP1 REVERT JUMPDEST POP PUSH1 0x4 CALLDATASIZE LT PUSH2 0x376 JUMPI PUSH1 0x0 CALLDATALOAD PUSH1 0xE0 SHR DUP1 PUSH4 0x9010D07C GT PUSH2 0x1D3 JUMPI DUP1 PUSH4 0xCFA84FC1 GT PUSH2 0x104 JUMPI DUP1 PUSH4 0xE985E9C5 GT PUSH2 0xA2 JUMPI DUP1 PUSH4 0xF2FDE38B GT PUSH2 0x7C JUMPI DUP1 PUSH4 0xF2FDE38B EQ PUSH2 0x805 JUMPI DUP1 PUSH4 0xF5298ACA EQ PUSH2 0x818 JUMPI DUP1 PUSH4 0xFABC1CBC EQ PUSH2 0x82B JUMPI DUP1 PUSH4 0xFCE55037 EQ PUSH2 0x83E JUMPI PUSH1 0x0 DUP1 REVERT JUMPDEST DUP1 PUSH4 0xE985E9C5 EQ PUSH2 0x7A3 JUMPI DUP1 PUSH4 0xEE51D26A EQ PUSH2 0x7DF JUMPI DUP1 PUSH4 0xF242432A EQ PUSH2 0x7F2 JUMPI PUSH1 0x0 DUP1 REVERT JUMPDEST DUP1 PUSH4 0xD81D0A15 GT PUSH2 0xDE JUMPI DUP1 PUSH4 0xD81D0A15 EQ PUSH2 0x760 JUMPI DUP1 PUSH4 0xE63AB1E9 EQ PUSH2 0x773 JUMPI DUP1 PUSH4 0xE86E2F6D EQ PUSH2 0x788 JUMPI DUP1 PUSH4 0xE8A3D485 EQ PUSH2 0x79B JUMPI PUSH1 0x0 DUP1 REVERT JUMPDEST DUP1 PUSH4 0xCFA84FC1 EQ PUSH2 0x727 JUMPI DUP1 PUSH4 0xD29D44EE EQ PUSH2 0x73A JUMPI DUP1 PUSH4 0xD547741F EQ PUSH2 0x74D JUMPI PUSH1 0x0 DUP1 REVERT JUMPDEST DUP1 PUSH4 0xA4949B18 GT PUSH2 0x171 JUMPI DUP1 PUSH4 0xB56CF84F GT PUSH2 0x14B JUMPI DUP1 PUSH4 0xB56CF84F EQ PUSH2 0x698 JUMPI DUP1 PUSH4 0xBD85B039 EQ PUSH2 0x6CB JUMPI DUP1 PUSH4 0xCA15C873 EQ PUSH2 0x6EB JUMPI DUP1 PUSH4 0xCD53D08E EQ PUSH2 0x6FE JUMPI PUSH1 0x0 DUP1 REVERT JUMPDEST DUP1 PUSH4 0xA4949B18 EQ PUSH2 0x651 JUMPI DUP1 PUSH4 0xAA271E1A EQ PUSH2 0x672 JUMPI DUP1 PUSH4 0xAFC58715 EQ PUSH2 0x685 JUMPI PUSH1 0x0 DUP1 REVERT JUMPDEST DUP1 PUSH4 0x983B2D56 GT PUSH2 0x1AD JUMPI DUP1 PUSH4 0x983B2D56 EQ PUSH2 0x61B JUMPI DUP1 PUSH4 0x98650275 EQ PUSH2 0x62E JUMPI DUP1 PUSH4 0xA217FDDF EQ PUSH2 0x636 JUMPI DUP1 PUSH4 0xA22CB465 EQ PUSH2 0x63E JUMPI PUSH1 0x0 DUP1 REVERT JUMPDEST DUP1 PUSH4 0x9010D07C EQ PUSH2 0x5ED JUMPI DUP1 PUSH4 0x91D14854 EQ PUSH2 0x600 JUMPI DUP1 PUSH4 0x95D89B41 EQ PUSH2 0x613 JUMPI PUSH1 0x0 DUP1 REVERT JUMPDEST DUP1 PUSH4 0x46FBF68E GT PUSH2 0x2AD JUMPI DUP1 PUSH4 0x6EF8D66D GT PUSH2 0x24B JUMPI DUP1 PUSH4 0x836A1040 GT PUSH2 0x225 JUMPI DUP1 PUSH4 0x836A1040 EQ PUSH2 0x59A JUMPI DUP1 PUSH4 0x8456CB59 EQ PUSH2 0x5AD JUMPI DUP1 PUSH4 0x862440E2 EQ PUSH2 0x5B5 JUMPI DUP1 PUSH4 0x8DA5CB5B EQ PUSH2 0x5C8 JUMPI PUSH1 0x0 DUP1 REVERT JUMPDEST DUP1 PUSH4 0x6EF8D66D EQ PUSH2 0x577 JUMPI DUP1 PUSH4 0x715018A6 EQ PUSH2 0x57F JUMPI DUP1 PUSH4 0x82DC1EC4 EQ PUSH2 0x587 JUMPI PUSH1 0x0 DUP1 REVERT JUMPDEST DUP1 PUSH4 0x55F804B3 GT PUSH2 0x287 JUMPI DUP1 PUSH4 0x55F804B3 EQ PUSH2 0x516 JUMPI DUP1 PUSH4 0x5C975ABB EQ PUSH2 0x529 JUMPI DUP1 PUSH4 0x6B20C454 EQ PUSH2 0x531 JUMPI DUP1 PUSH4 0x6E1C1CBB EQ PUSH2 0x544 JUMPI PUSH1 0x0 DUP1 REVERT JUMPDEST DUP1 PUSH4 0x46FBF68E EQ PUSH2 0x4D0 JUMPI DUP1 PUSH4 0x4B068C78 EQ PUSH2 0x4E3 JUMPI DUP1 PUSH4 0x4E1273F4 EQ PUSH2 0x4F6 JUMPI PUSH1 0x0 DUP1 REVERT JUMPDEST DUP1 PUSH4 0x2EB2C2D6 GT PUSH2 0x31A JUMPI DUP1 PUSH4 0x36568ABE GT PUSH2 0x2F4 JUMPI DUP1 PUSH4 0x36568ABE EQ PUSH2 0x48F JUMPI DUP1 PUSH4 0x3EFD85D3 EQ PUSH2 0x4A2 JUMPI DUP1 PUSH4 0x3F4BA83A EQ PUSH2 0x4B5 JUMPI DUP1 PUSH4 0x415B1BE4 EQ PUSH2 0x4BD JUMPI PUSH1 0x0 DUP1 REVERT JUMPDEST DUP1 PUSH4 0x2EB2C2D6 EQ PUSH2 0x447 JUMPI DUP1 PUSH4 0x2F2FF15D EQ PUSH2 0x45A JUMPI DUP1 PUSH4 0x2F54BF6E EQ PUSH2 0x46D JUMPI PUSH1 0x0 DUP1 REVERT JUMPDEST DUP1 PUSH4 0x6FDDE03 GT PUSH2 0x356 JUMPI DUP1 PUSH4 0x6FDDE03 EQ PUSH2 0x3E7 JUMPI DUP1 PUSH4 0xE89341C EQ PUSH2 0x3FC JUMPI DUP1 PUSH4 0x136439DD EQ PUSH2 0x40F JUMPI DUP1 PUSH4 0x248A9CA3 EQ PUSH2 0x424 JUMPI PUSH1 0x0 DUP1 REVERT JUMPDEST DUP1 PUSH3 0xDDE10E EQ PUSH2 0x37B JUMPI DUP1 PUSH3 0xFDD58E EQ PUSH2 0x3B3 JUMPI DUP1 PUSH4 0x1FFC9A7 EQ PUSH2 0x3D4 JUMPI JUMPDEST PUSH1 0x0 DUP1 REVERT JUMPDEST PUSH2 0x39E PUSH2 0x389 CALLDATASIZE PUSH1 0x4 PUSH2 0x41D5 JUMP JUMPDEST PUSH1 0x0 SWAP1 DUP2 MSTORE PUSH1 0x9 PUSH1 0x20 MSTORE PUSH1 0x40 SWAP1 KECCAK256 SLOAD PUSH1 0xFF AND SWAP1 JUMP JUMPDEST PUSH1 0x40 MLOAD SWAP1 ISZERO ISZERO DUP2 MSTORE PUSH1 0x20 ADD JUMPDEST PUSH1 0x40 MLOAD DUP1 SWAP2 SUB SWAP1 RETURN JUMPDEST PUSH2 0x3C6 PUSH2 0x3C1 CALLDATASIZE PUSH1 0x4 PUSH2 0x4203 JUMP JUMPDEST PUSH2 0x851 JUMP JUMPDEST PUSH1 0x40 MLOAD SWAP1 DUP2 MSTORE PUSH1 0x20 ADD PUSH2 0x3AA JUMP JUMPDEST PUSH2 0x39E PUSH2 0x3E2 CALLDATASIZE PUSH1 0x4 PUSH2 0x4245 JUMP JUMPDEST PUSH2 0x8E8 JUMP JUMPDEST PUSH2 0x3EF PUSH2 0x911 JUMP JUMPDEST PUSH1 0x40 MLOAD PUSH2 0x3AA SWAP2 SWAP1 PUSH2 0x42B2 JUMP JUMPDEST PUSH2 0x3EF PUSH2 0x40A CALLDATASIZE PUSH1 0x4 PUSH2 0x41D5 JUMP JUMPDEST PUSH2 0x9A3 JUMP JUMPDEST PUSH2 0x422 PUSH2 0x41D CALLDATASIZE PUSH1 0x4 PUSH2 0x41D5 JUMP JUMPDEST PUSH2 0x9AE JUMP JUMPDEST STOP JUMPDEST PUSH2 0x3C6 PUSH2 0x432 CALLDATASIZE PUSH1 0x4 PUSH2 0x41D5 JUMP JUMPDEST PUSH1 0x0 SWAP1 DUP2 MSTORE PUSH1 0x6 PUSH1 0x20 MSTORE PUSH1 0x40 SWAP1 KECCAK256 PUSH1 0x1 ADD SLOAD SWAP1 JUMP JUMPDEST PUSH2 0x422 PUSH2 0x455 CALLDATASIZE PUSH1 0x4 PUSH2 0x4408 JUMP JUMPDEST PUSH2 0x9BA JUMP JUMPDEST PUSH2 0x422 PUSH2 0x468 CALLDATASIZE PUSH1 0x4 PUSH2 0x44B5 JUMP JUMPDEST PUSH2 0xA4F JUMP JUMPDEST PUSH2 0x39E PUSH2 0x47B CALLDATASIZE PUSH1 0x4 PUSH2 0x44E5 JUMP JUMPDEST PUSH1 0x11 SLOAD PUSH1 0x1 PUSH1 0x1 PUSH1 0xA0 SHL SUB SWAP2 DUP3 AND SWAP2 AND EQ SWAP1 JUMP JUMPDEST PUSH2 0x422 PUSH2 0x49D CALLDATASIZE PUSH1 0x4 PUSH2 0x44B5 JUMP JUMPDEST PUSH2 0xA79 JUMP JUMPDEST PUSH2 0x422 PUSH2 0x4B0 CALLDATASIZE PUSH1 0x4 PUSH2 0x4546 JUMP JUMPDEST PUSH2 0xAF7 JUMP JUMPDEST PUSH2 0x422 PUSH2 0xB04 JUMP JUMPDEST PUSH2 0x422 PUSH2 0x4CB CALLDATASIZE PUSH1 0x4 PUSH2 0x4546 JUMP JUMPDEST PUSH2 0xB42 JUMP JUMPDEST PUSH2 0x39E PUSH2 0x4DE CALLDATASIZE PUSH1 0x4 PUSH2 0x44E5 JUMP JUMPDEST PUSH2 0xB4F JUMP JUMPDEST PUSH2 0x39E PUSH2 0x4F1 CALLDATASIZE PUSH1 0x4 PUSH2 0x45C8 JUMP JUMPDEST PUSH2 0xB5A JUMP JUMPDEST PUSH2 0x509 PUSH2 0x504 CALLDATASIZE PUSH1 0x4 PUSH2 0x467B JUMP JUMPDEST PUSH2 0xB6F JUMP JUMPDEST PUSH1 0x40 MLOAD PUSH2 0x3AA SWAP2 SWAP1 PUSH2 0x4719 JUMP JUMPDEST PUSH2 0x422 PUSH2 0x524 CALLDATASIZE PUSH1 0x4 PUSH2 0x472C JUMP JUMPDEST PUSH2 0xC94 JUMP JUMPDEST PUSH2 0x39E PUSH2 0xCC7 JUMP JUMPDEST PUSH2 0x422 PUSH2 0x53F CALLDATASIZE PUSH1 0x4 PUSH2 0x4760 JUMP JUMPDEST PUSH2 0xCDA JUMP JUMPDEST PUSH2 0x3C6 PUSH2 0x552 CALLDATASIZE PUSH1 0x4 PUSH2 0x44B5 JUMP JUMPDEST PUSH1 0x1 PUSH1 0x1 PUSH1 0xA0 SHL SUB AND PUSH1 0x0 SWAP1 DUP2 MSTORE PUSH1 0x4 PUSH1 0x20 SWAP1 DUP2 MSTORE PUSH1 0x40 DUP1 DUP4 KECCAK256 SWAP4 DUP4 MSTORE SWAP3 SWAP1 MSTORE KECCAK256 SLOAD SWAP1 JUMP JUMPDEST PUSH2 0x422 PUSH2 0xCE5 JUMP JUMPDEST PUSH2 0x422 PUSH2 0xCEE JUMP JUMPDEST PUSH2 0x422 PUSH2 0x595 CALLDATASIZE PUSH1 0x4 PUSH2 0x44E5 JUMP JUMPDEST PUSH2 0xD22 JUMP JUMPDEST PUSH2 0x422 PUSH2 0x5A8 CALLDATASIZE PUSH1 0x4 PUSH2 0x47CB JUMP JUMPDEST PUSH2 0xD99 JUMP JUMPDEST PUSH2 0x422 PUSH2 0xDD9 JUMP JUMPDEST PUSH2 0x422 PUSH2 0x5C3 CALLDATASIZE PUSH1 0x4 PUSH2 0x4803 JUMP JUMPDEST PUSH2 0xE15 JUMP JUMPDEST PUSH1 0x11 SLOAD PUSH1 0x1 PUSH1 0x1 PUSH1 0xA0 SHL SUB AND JUMPDEST PUSH1 0x40 MLOAD PUSH1 0x1 PUSH1 0x1 PUSH1 0xA0 SHL SUB SWAP1 SWAP2 AND DUP2 MSTORE PUSH1 0x20 ADD PUSH2 0x3AA JUMP JUMPDEST PUSH2 0x5D5 PUSH2 0x5FB CALLDATASIZE PUSH1 0x4 PUSH2 0x483F JUMP JUMPDEST PUSH2 0xE49 JUMP JUMPDEST PUSH2 0x39E PUSH2 0x60E CALLDATASIZE PUSH1 0x4 PUSH2 0x44B5 JUMP JUMPDEST PUSH2 0xE68 JUMP JUMPDEST PUSH2 0x3EF PUSH2 0xE93 JUMP JUMPDEST PUSH2 0x422 PUSH2 0x629 CALLDATASIZE PUSH1 0x4 PUSH2 0x44E5 JUMP JUMPDEST PUSH2 0xEA2 JUMP JUMPDEST PUSH2 0x422 PUSH2 0xED0 JUMP JUMPDEST PUSH2 0x3C6 PUSH1 0x0 DUP2 JUMP JUMPDEST PUSH2 0x422 PUSH2 0x64C CALLDATASIZE PUSH1 0x4 PUSH2 0x4861 JUMP JUMPDEST PUSH2 0xED9 JUMP JUMPDEST PUSH2 0x664 PUSH2 0x65F CALLDATASIZE PUSH1 0x4 PUSH2 0x4894 JUMP JUMPDEST PUSH2 0xEE4 JUMP JUMPDEST PUSH1 0x40 MLOAD PUSH2 0x3AA SWAP3 SWAP2 SWAP1 PUSH2 0x48D9 JUMP JUMPDEST PUSH2 0x39E PUSH2 0x680 CALLDATASIZE PUSH1 0x4 PUSH2 0x44E5 JUMP JUMPDEST PUSH2 0xFA5 JUMP JUMPDEST PUSH2 0x422 PUSH2 0x693 CALLDATASIZE PUSH1 0x4 PUSH2 0x4546 JUMP JUMPDEST PUSH2 0xFB0 JUMP JUMPDEST PUSH2 0x3C6 PUSH2 0x6A6 CALLDATASIZE PUSH1 0x4 PUSH2 0x44B5 JUMP JUMPDEST PUSH1 0x1 PUSH1 0x1 PUSH1 0xA0 SHL SUB AND PUSH1 0x0 SWAP1 DUP2 MSTORE PUSH1 0x3 PUSH1 0x20 SWAP1 DUP2 MSTORE PUSH1 0x40 DUP1 DUP4 KECCAK256 SWAP4 DUP4 MSTORE SWAP3 SWAP1 MSTORE KECCAK256 SLOAD SWAP1 JUMP JUMPDEST PUSH2 0x3C6 PUSH2 0x6D9 CALLDATASIZE PUSH1 0x4 PUSH2 0x41D5 JUMP JUMPDEST PUSH1 0x0 SWAP1 DUP2 MSTORE PUSH1 0x1 PUSH1 0x20 MSTORE PUSH1 0x40 SWAP1 KECCAK256 SLOAD SWAP1 JUMP JUMPDEST PUSH2 0x3C6 PUSH2 0x6F9 CALLDATASIZE PUSH1 0x4 PUSH2 0x41D5 JUMP JUMPDEST PUSH2 0xFBD JUMP JUMPDEST PUSH2 0x5D5 PUSH2 0x70C CALLDATASIZE PUSH1 0x4 PUSH2 0x41D5 JUMP JUMPDEST PUSH1 0xF PUSH1 0x20 MSTORE PUSH1 0x0 SWAP1 DUP2 MSTORE PUSH1 0x40 SWAP1 KECCAK256 SLOAD PUSH1 0x1 PUSH1 0x1 PUSH1 0xA0 SHL SUB AND DUP2 JUMP JUMPDEST PUSH2 0x422 PUSH2 0x735 CALLDATASIZE PUSH1 0x4 PUSH2 0x4907 JUMP JUMPDEST PUSH2 0xFD4 JUMP JUMPDEST PUSH2 0x422 PUSH2 0x748 CALLDATASIZE PUSH1 0x4 PUSH2 0x44E5 JUMP JUMPDEST PUSH2 0x10D8 JUMP JUMPDEST PUSH2 0x422 PUSH2 0x75B CALLDATASIZE PUSH1 0x4 PUSH2 0x44B5 JUMP JUMPDEST PUSH2 0x11E8 JUMP JUMPDEST PUSH2 0x422 PUSH2 0x76E CALLDATASIZE PUSH1 0x4 PUSH2 0x4760 JUMP JUMPDEST PUSH2 0x120D JUMP JUMPDEST PUSH2 0x3C6 PUSH1 0x0 DUP1 MLOAD PUSH1 0x20 PUSH2 0x5255 DUP4 CODECOPY DUP2 MLOAD SWAP2 MSTORE DUP2 JUMP JUMPDEST PUSH2 0x422 PUSH2 0x796 CALLDATASIZE PUSH1 0x4 PUSH2 0x4546 JUMP JUMPDEST PUSH2 0x1218 JUMP JUMPDEST PUSH2 0x3EF PUSH2 0x1225 JUMP JUMPDEST PUSH2 0x39E PUSH2 0x7B1 CALLDATASIZE PUSH1 0x4 PUSH2 0x4946 JUMP JUMPDEST PUSH1 0x1 PUSH1 0x1 PUSH1 0xA0 SHL SUB SWAP2 DUP3 AND PUSH1 0x0 SWAP1 DUP2 MSTORE PUSH1 0x2 PUSH1 0x20 SWAP1 DUP2 MSTORE PUSH1 0x40 DUP1 DUP4 KECCAK256 SWAP4 SWAP1 SWAP5 AND DUP3 MSTORE SWAP2 SWAP1 SWAP2 MSTORE KECCAK256 SLOAD PUSH1 0xFF AND SWAP1 JUMP JUMPDEST PUSH2 0x664 PUSH2 0x7ED CALLDATASIZE PUSH1 0x4 PUSH2 0x4894 JUMP JUMPDEST PUSH2 0x1234 JUMP JUMPDEST PUSH2 0x422 PUSH2 0x800 CALLDATASIZE PUSH1 0x4 PUSH2 0x4974 JUMP JUMPDEST PUSH2 0x12DA JUMP JUMPDEST PUSH2 0x422 PUSH2 0x813 CALLDATASIZE PUSH1 0x4 PUSH2 0x44E5 JUMP JUMPDEST PUSH2 0x131F JUMP JUMPDEST PUSH2 0x422 PUSH2 0x826 CALLDATASIZE PUSH1 0x4 PUSH2 0x49DC JUMP JUMPDEST PUSH2 0x1417 JUMP JUMPDEST PUSH2 0x422 PUSH2 0x839 CALLDATASIZE PUSH1 0x4 PUSH2 0x41D5 JUMP JUMPDEST PUSH2 0x1422 JUMP JUMPDEST PUSH2 0x422 PUSH2 0x84C CALLDATASIZE PUSH1 0x4 PUSH2 0x472C JUMP JUMPDEST PUSH2 0x142B JUMP JUMPDEST PUSH1 0x0 PUSH1 0x1 PUSH1 0x1 PUSH1 0xA0 SHL SUB DUP4 AND PUSH2 0x8BF JUMPI PUSH1 0x40 MLOAD PUSH3 0x461BCD PUSH1 0xE5 SHL DUP2 MSTORE PUSH1 0x20 PUSH1 0x4 DUP3 ADD MSTORE PUSH1 0x28 PUSH1 0x24 DUP3 ADD MSTORE PUSH32 0x4B495033373A2061646472657373207A65726F206973206E6F7420612076616C PUSH1 0x44 DUP3 ADD MSTORE PUSH8 0x34B21037BBB732B9 PUSH1 0xC1 SHL PUSH1 0x64 DUP3 ADD MSTORE PUSH1 0x84 ADD JUMPDEST PUSH1 0x40 MLOAD DUP1 SWAP2 SUB SWAP1 REVERT JUMPDEST POP PUSH1 0x0 DUP2 DUP2 MSTORE PUSH1 0x20 DUP2 DUP2 MSTORE PUSH1 0x40 DUP1 DUP4 KECCAK256 PUSH1 0x1 PUSH1 0x1 PUSH1 0xA0 SHL SUB DUP7 AND DUP5 MSTORE SWAP1 SWAP2 MSTORE SWAP1 KECCAK256 SLOAD JUMPDEST SWAP3 SWAP2 POP POP JUMP JUMPDEST PUSH1 0x0 PUSH2 0x8F3 DUP3 PUSH2 0x148B JUMP JUMPDEST DUP1 PUSH2 0x902 JUMPI POP PUSH2 0x902 DUP3 PUSH2 0x14CF JUMP JUMPDEST DUP1 PUSH2 0x8E2 JUMPI POP PUSH2 0x8E2 DUP3 PUSH2 0x14F4 JUMP JUMPDEST PUSH1 0x60 PUSH1 0xC DUP1 SLOAD PUSH2 0x920 SWAP1 PUSH2 0x4A11 JUMP JUMPDEST DUP1 PUSH1 0x1F ADD PUSH1 0x20 DUP1 SWAP2 DIV MUL PUSH1 0x20 ADD PUSH1 0x40 MLOAD SWAP1 DUP2 ADD PUSH1 0x40 MSTORE DUP1 SWAP3 SWAP2 SWAP1 DUP2 DUP2 MSTORE PUSH1 0x20 ADD DUP3 DUP1 SLOAD PUSH2 0x94C SWAP1 PUSH2 0x4A11 JUMP JUMPDEST DUP1 ISZERO PUSH2 0x999 JUMPI DUP1 PUSH1 0x1F LT PUSH2 0x96E JUMPI PUSH2 0x100 DUP1 DUP4 SLOAD DIV MUL DUP4 MSTORE SWAP2 PUSH1 0x20 ADD SWAP2 PUSH2 0x999 JUMP JUMPDEST DUP3 ADD SWAP2 SWAP1 PUSH1 0x0 MSTORE PUSH1 0x20 PUSH1 0x0 KECCAK256 SWAP1 JUMPDEST DUP2 SLOAD DUP2 MSTORE SWAP1 PUSH1 0x1 ADD SWAP1 PUSH1 0x20 ADD DUP1 DUP4 GT PUSH2 0x97C JUMPI DUP3 SWAP1 SUB PUSH1 0x1F AND DUP3 ADD SWAP2 JUMPDEST POP POP POP POP POP SWAP1 POP SWAP1 JUMP JUMPDEST PUSH1 0x60 PUSH2 0x8E2 DUP3 PUSH2 0x1528 JUMP JUMPDEST PUSH2 0x9B7 DUP2 PUSH2 0x1607 JUMP JUMPDEST POP JUMP JUMPDEST PUSH1 0x1 PUSH1 0x1 PUSH1 0xA0 SHL SUB DUP6 AND CALLER EQ DUP1 PUSH2 0x9D6 JUMPI POP PUSH2 0x9D6 DUP6 CALLER PUSH2 0x7B1 JUMP JUMPDEST PUSH2 0xA3B JUMPI PUSH1 0x40 MLOAD PUSH3 0x461BCD PUSH1 0xE5 SHL DUP2 MSTORE PUSH1 0x20 PUSH1 0x4 DUP3 ADD MSTORE PUSH1 0x30 PUSH1 0x24 DUP3 ADD MSTORE PUSH32 0x4B495033373A207472616E736665722063616C6C6572206973206E6F74206F77 PUSH1 0x44 DUP3 ADD MSTORE PUSH16 0x1B995C881B9BDC88185C1C1C9BDD9959 PUSH1 0x82 SHL PUSH1 0x64 DUP3 ADD MSTORE PUSH1 0x84 ADD PUSH2 0x8B6 JUMP JUMPDEST PUSH2 0xA48 DUP6 DUP6 DUP6 DUP6 DUP6 PUSH2 0x1644 JUMP JUMPDEST POP POP POP POP POP JUMP JUMPDEST PUSH1 0x0 DUP3 DUP2 MSTORE PUSH1 0x6 PUSH1 0x20 MSTORE PUSH1 0x40 SWAP1 KECCAK256 PUSH1 0x1 ADD SLOAD PUSH2 0xA6A DUP2 PUSH2 0x17EE JUMP JUMPDEST PUSH2 0xA74 DUP4 DUP4 PUSH2 0x17F8 JUMP JUMPDEST POP POP POP JUMP JUMPDEST PUSH1 0x1 PUSH1 0x1 PUSH1 0xA0 SHL SUB DUP2 AND CALLER EQ PUSH2 0xAE9 JUMPI PUSH1 0x40 MLOAD PUSH3 0x461BCD PUSH1 0xE5 SHL DUP2 MSTORE PUSH1 0x20 PUSH1 0x4 DUP3 ADD MSTORE PUSH1 0x2F PUSH1 0x24 DUP3 ADD MSTORE PUSH32 0x416363657373436F6E74726F6C3A2063616E206F6E6C792072656E6F756E6365 PUSH1 0x44 DUP3 ADD MSTORE PUSH15 0x103937B632B9903337B91039B2B633 PUSH1 0x89 SHL PUSH1 0x64 DUP3 ADD MSTORE PUSH1 0x84 ADD PUSH2 0x8B6 JUMP JUMPDEST PUSH2 0xAF3 DUP3 DUP3 PUSH2 0x181A JUMP JUMPDEST POP POP JUMP JUMPDEST PUSH2 0xA48 DUP6 DUP6 DUP6 DUP6 DUP6 PUSH2 0x183C JUMP JUMPDEST PUSH2 0xB1C PUSH1 0x0 DUP1 MLOAD PUSH1 0x20 PUSH2 0x5255 DUP4 CODECOPY DUP2 MLOAD SWAP2 MSTORE CALLER PUSH2 0xE68 JUMP JUMPDEST PUSH2 0xB38 JUMPI PUSH1 0x40 MLOAD PUSH3 0x461BCD PUSH1 0xE5 SHL DUP2 MSTORE PUSH1 0x4 ADD PUSH2 0x8B6 SWAP1 PUSH2 0x4A4B JUMP JUMPDEST PUSH2 0xB40 PUSH2 0x1849 JUMP JUMPDEST JUMP JUMPDEST PUSH2 0xA48 DUP6 DUP6 DUP6 DUP6 DUP6 PUSH2 0x1869 JUMP JUMPDEST PUSH1 0x0 PUSH2 0x8E2 DUP3 PUSH2 0x1876 JUMP JUMPDEST PUSH1 0x0 PUSH2 0xB67 DUP5 DUP5 DUP5 PUSH2 0x1883 JUMP JUMPDEST SWAP5 SWAP4 POP POP POP POP JUMP JUMPDEST PUSH1 0x60 DUP2 MLOAD DUP4 MLOAD EQ PUSH2 0xBD0 JUMPI PUSH1 0x40 MLOAD PUSH3 0x461BCD PUSH1 0xE5 SHL DUP2 MSTORE PUSH1 0x20 PUSH1 0x4 DUP3 ADD MSTORE PUSH1 0x25 PUSH1 0x24 DUP3 ADD MSTORE PUSH32 0x4B495033373A206F776E65727320616E6420696473206C656E677468206D6973 PUSH1 0x44 DUP3 ADD MSTORE PUSH5 0xDAC2E8C6D PUSH1 0xDB SHL PUSH1 0x64 DUP3 ADD MSTORE PUSH1 0x84 ADD PUSH2 0x8B6 JUMP JUMPDEST PUSH1 0x0 DUP4 MLOAD PUSH1 0x1 PUSH1 0x1 PUSH1 0x40 SHL SUB DUP2 GT ISZERO PUSH2 0xBEB JUMPI PUSH2 0xBEB PUSH2 0x42C5 JUMP JUMPDEST PUSH1 0x40 MLOAD SWAP1 DUP1 DUP3 MSTORE DUP1 PUSH1 0x20 MUL PUSH1 0x20 ADD DUP3 ADD PUSH1 0x40 MSTORE DUP1 ISZERO PUSH2 0xC14 JUMPI DUP2 PUSH1 0x20 ADD PUSH1 0x20 DUP3 MUL DUP1 CALLDATASIZE DUP4 CALLDATACOPY ADD SWAP1 POP JUMPDEST POP SWAP1 POP PUSH1 0x0 JUMPDEST DUP5 MLOAD DUP2 LT ISZERO PUSH2 0xC8C JUMPI PUSH2 0xC5F DUP6 DUP3 DUP2 MLOAD DUP2 LT PUSH2 0xC38 JUMPI PUSH2 0xC38 PUSH2 0x4AA8 JUMP JUMPDEST PUSH1 0x20 MUL PUSH1 0x20 ADD ADD MLOAD DUP6 DUP4 DUP2 MLOAD DUP2 LT PUSH2 0xC52 JUMPI PUSH2 0xC52 PUSH2 0x4AA8 JUMP JUMPDEST PUSH1 0x20 MUL PUSH1 0x20 ADD ADD MLOAD PUSH2 0x851 JUMP JUMPDEST DUP3 DUP3 DUP2 MLOAD DUP2 LT PUSH2 0xC71 JUMPI PUSH2 0xC71 PUSH2 0x4AA8 JUMP JUMPDEST PUSH1 0x20 SWAP1 DUP2 MUL SWAP2 SWAP1 SWAP2 ADD ADD MSTORE PUSH2 0xC85 DUP2 PUSH2 0x4AD4 JUMP JUMPDEST SWAP1 POP PUSH2 0xC1A JUMP JUMPDEST POP SWAP4 SWAP3 POP POP POP JUMP JUMPDEST PUSH1 0x11 SLOAD PUSH1 0x1 PUSH1 0x1 PUSH1 0xA0 SHL SUB AND CALLER EQ PUSH2 0xCBE JUMPI PUSH1 0x40 MLOAD PUSH3 0x461BCD PUSH1 0xE5 SHL DUP2 MSTORE PUSH1 0x4 ADD PUSH2 0x8B6 SWAP1 PUSH2 0x4AED JUMP JUMPDEST PUSH2 0x9B7 DUP2 PUSH2 0x19BA JUMP JUMPDEST PUSH1 0x0 PUSH2 0xCD5 PUSH1 0x8 SLOAD PUSH1 0xFF AND SWAP1 JUMP JUMPDEST SWAP1 POP SWAP1 JUMP JUMPDEST PUSH2 0xA74 DUP4 DUP4 DUP4 PUSH2 0x19C3 JUMP JUMPDEST PUSH2 0xB40 CALLER PUSH2 0x1A06 JUMP JUMPDEST PUSH1 0x11 SLOAD PUSH1 0x1 PUSH1 0x1 PUSH1 0xA0 SHL SUB AND CALLER EQ PUSH2 0xD18 JUMPI PUSH1 0x40 MLOAD PUSH3 0x461BCD PUSH1 0xE5 SHL DUP2 MSTORE PUSH1 0x4 ADD PUSH2 0x8B6 SWAP1 PUSH2 0x4AED JUMP JUMPDEST PUSH2 0xB40 PUSH1 0x0 PUSH2 0x10D8 JUMP JUMPDEST PUSH2 0xD2B CALLER PUSH2 0xB4F JUMP JUMPDEST PUSH2 0xD90 JUMPI PUSH1 0x40 MLOAD PUSH3 0x461BCD PUSH1 0xE5 SHL DUP2 MSTORE PUSH1 0x20 PUSH1 0x4 DUP3 ADD MSTORE PUSH1 0x30 PUSH1 0x24 DUP3 ADD MSTORE PUSH32 0x506175736572526F6C653A2063616C6C657220646F6573206E6F742068617665 PUSH1 0x44 DUP3 ADD MSTORE PUSH16 0x207468652050617573657220726F6C65 PUSH1 0x80 SHL PUSH1 0x64 DUP3 ADD MSTORE PUSH1 0x84 ADD PUSH2 0x8B6 JUMP JUMPDEST PUSH2 0x9B7 DUP2 PUSH2 0x1A48 JUMP JUMPDEST PUSH2 0xDA2 CALLER PUSH2 0xFA5 JUMP JUMPDEST PUSH2 0xDBE JUMPI PUSH1 0x40 MLOAD PUSH3 0x461BCD PUSH1 0xE5 SHL DUP2 MSTORE PUSH1 0x4 ADD PUSH2 0x8B6 SWAP1 PUSH2 0x4B24 JUMP JUMPDEST PUSH2 0xA74 DUP3 DUP5 DUP4 PUSH1 0x40 MLOAD DUP1 PUSH1 0x20 ADD PUSH1 0x40 MSTORE DUP1 PUSH1 0x0 DUP2 MSTORE POP PUSH2 0x1A8A JUMP JUMPDEST PUSH2 0xDF1 PUSH1 0x0 DUP1 MLOAD PUSH1 0x20 PUSH2 0x5255 DUP4 CODECOPY DUP2 MLOAD SWAP2 MSTORE CALLER PUSH2 0xE68 JUMP JUMPDEST PUSH2 0xE0D JUMPI PUSH1 0x40 MLOAD PUSH3 0x461BCD PUSH1 0xE5 SHL DUP2 MSTORE PUSH1 0x4 ADD PUSH2 0x8B6 SWAP1 PUSH2 0x4B74 JUMP JUMPDEST PUSH2 0xB40 PUSH2 0x1BA3 JUMP JUMPDEST PUSH1 0x11 SLOAD PUSH1 0x1 PUSH1 0x1 PUSH1 0xA0 SHL SUB AND CALLER EQ PUSH2 0xE3F JUMPI PUSH1 0x40 MLOAD PUSH3 0x461BCD PUSH1 0xE5 SHL DUP2 MSTORE PUSH1 0x4 ADD PUSH2 0x8B6 SWAP1 PUSH2 0x4AED JUMP JUMPDEST PUSH2 0xAF3 DUP3 DUP3 PUSH2 0x1BC3 JUMP JUMPDEST PUSH1 0x0 DUP3 DUP2 MSTORE PUSH1 0x7 PUSH1 0x20 MSTORE PUSH1 0x40 DUP2 KECCAK256 PUSH2 0xE61 SWAP1 DUP4 PUSH2 0x1BCD JUMP JUMPDEST SWAP4 SWAP3 POP POP POP JUMP JUMPDEST PUSH1 0x0 SWAP2 DUP3 MSTORE PUSH1 0x6 PUSH1 0x20 SWAP1 DUP2 MSTORE PUSH1 0x40 DUP1 DUP5 KECCAK256 PUSH1 0x1 PUSH1 0x1 PUSH1 0xA0 SHL SUB SWAP4 SWAP1 SWAP4 AND DUP5 MSTORE SWAP2 SWAP1 MSTORE SWAP1 KECCAK256 SLOAD PUSH1 0xFF AND SWAP1 JUMP JUMPDEST PUSH1 0x60 PUSH1 0xD DUP1 SLOAD PUSH2 0x920 SWAP1 PUSH2 0x4A11 JUMP JUMPDEST PUSH2 0xEAB CALLER PUSH2 0xFA5 JUMP JUMPDEST PUSH2 0xEC7 JUMPI PUSH1 0x40 MLOAD PUSH3 0x461BCD PUSH1 0xE5 SHL DUP2 MSTORE PUSH1 0x4 ADD PUSH2 0x8B6 SWAP1 PUSH2 0x4B24 JUMP JUMPDEST PUSH2 0x9B7 DUP2 PUSH2 0x1BD9 JUMP JUMPDEST PUSH2 0xB40 CALLER PUSH2 0x1C1B JUMP JUMPDEST PUSH2 0xAF3 CALLER DUP4 DUP4 PUSH2 0x1C5D JUMP JUMPDEST PUSH1 0x60 DUP1 PUSH1 0x60 DUP1 PUSH1 0x0 JUMPDEST PUSH1 0x1 DUP7 MLOAD PUSH2 0xEFB SWAP2 SWAP1 PUSH2 0x4BD1 JUMP JUMPDEST DUP2 LT ISZERO PUSH2 0xF97 JUMPI PUSH1 0x1 PUSH1 0x1 PUSH1 0xA0 SHL SUB DUP8 AND PUSH1 0x0 SWAP1 DUP2 MSTORE PUSH1 0x4 PUSH1 0x20 MSTORE PUSH1 0x40 DUP2 KECCAK256 DUP8 MLOAD DUP3 SWAP1 DUP10 SWAP1 DUP6 SWAP1 DUP2 LT PUSH2 0xF30 JUMPI PUSH2 0xF30 PUSH2 0x4AA8 JUMP JUMPDEST PUSH1 0x20 MUL PUSH1 0x20 ADD ADD MLOAD DUP2 MSTORE PUSH1 0x20 ADD SWAP1 DUP2 MSTORE PUSH1 0x20 ADD PUSH1 0x0 KECCAK256 SLOAD SWAP1 POP PUSH1 0x0 DUP2 GT ISZERO PUSH2 0xF84 JUMPI PUSH2 0xF75 DUP5 DUP9 DUP5 DUP2 MLOAD DUP2 LT PUSH2 0xF68 JUMPI PUSH2 0xF68 PUSH2 0x4AA8 JUMP JUMPDEST PUSH1 0x20 MUL PUSH1 0x20 ADD ADD MLOAD PUSH2 0x1D3B JUMP JUMPDEST SWAP4 POP PUSH2 0xF81 DUP4 DUP3 PUSH2 0x1D3B JUMP JUMPDEST SWAP3 POP JUMPDEST POP DUP1 PUSH2 0xF8F DUP2 PUSH2 0x4AD4 JUMP JUMPDEST SWAP2 POP POP PUSH2 0xEED JUMP JUMPDEST POP SWAP1 SWAP3 POP SWAP1 POP JUMPDEST SWAP3 POP SWAP3 SWAP1 POP JUMP JUMPDEST PUSH1 0x0 PUSH2 0x8E2 DUP3 PUSH2 0x1E0C JUMP JUMPDEST PUSH2 0xA48 DUP6 DUP6 DUP6 DUP6 DUP6 PUSH2 0x1E19 JUMP JUMPDEST PUSH1 0x0 DUP2 DUP2 MSTORE PUSH1 0x7 PUSH1 0x20 MSTORE PUSH1 0x40 DUP2 KECCAK256 PUSH2 0x8E2 SWAP1 PUSH2 0x1E26 JUMP JUMPDEST PUSH2 0xFDD CALLER PUSH2 0xFA5 JUMP JUMPDEST PUSH2 0xFF9 JUMPI PUSH1 0x40 MLOAD PUSH3 0x461BCD PUSH1 0xE5 SHL DUP2 MSTORE PUSH1 0x4 ADD PUSH2 0x8B6 SWAP1 PUSH2 0x4B24 JUMP JUMPDEST DUP1 MLOAD DUP3 MLOAD EQ PUSH2 0x105C JUMPI PUSH1 0x40 MLOAD PUSH3 0x461BCD PUSH1 0xE5 SHL DUP2 MSTORE PUSH1 0x20 PUSH1 0x4 DUP3 ADD MSTORE PUSH1 0x29 PUSH1 0x24 DUP3 ADD MSTORE PUSH32 0x4B495033373A20746F4C69737420616E6420616D6F756E7473206C656E677468 PUSH1 0x44 DUP3 ADD MSTORE PUSH9 0x40DAD2E6DAC2E8C6D PUSH1 0xBB SHL PUSH1 0x64 DUP3 ADD MSTORE PUSH1 0x84 ADD PUSH2 0x8B6 JUMP JUMPDEST PUSH1 0x0 JUMPDEST DUP3 MLOAD DUP2 LT ISZERO PUSH2 0x10D2 JUMPI PUSH1 0x0 DUP4 DUP3 DUP2 MLOAD DUP2 LT PUSH2 0x107C JUMPI PUSH2 0x107C PUSH2 0x4AA8 JUMP JUMPDEST PUSH1 0x20 MUL PUSH1 0x20 ADD ADD MLOAD SWAP1 POP PUSH1 0x0 DUP4 DUP4 DUP2 MLOAD DUP2 LT PUSH2 0x109A JUMPI PUSH2 0x109A PUSH2 0x4AA8 JUMP JUMPDEST PUSH1 0x20 MUL PUSH1 0x20 ADD ADD MLOAD SWAP1 POP PUSH2 0x10BF DUP3 DUP8 DUP4 PUSH1 0x40 MLOAD DUP1 PUSH1 0x20 ADD PUSH1 0x40 MSTORE DUP1 PUSH1 0x0 DUP2 MSTORE POP PUSH2 0x1A8A JUMP JUMPDEST POP POP DUP1 PUSH2 0x10CB SWAP1 PUSH2 0x4AD4 JUMP JUMPDEST SWAP1 POP PUSH2 0x105F JUMP JUMPDEST POP POP POP POP JUMP JUMPDEST PUSH1 0x11 SLOAD PUSH1 0x1 PUSH1 0x1 PUSH1 0xA0 SHL SUB AND CALLER EQ PUSH2 0x1102 JUMPI PUSH1 0x40 MLOAD PUSH3 0x461BCD PUSH1 0xE5 SHL DUP2 MSTORE PUSH1 0x4 ADD PUSH2 0x8B6 SWAP1 PUSH2 0x4AED JUMP JUMPDEST PUSH2 0x110B DUP2 PUSH2 0x1E0C JUMP JUMPDEST PUSH2 0x1118 JUMPI PUSH2 0x1118 DUP2 PUSH2 0x1BD9 JUMP JUMPDEST PUSH1 0x11 SLOAD PUSH2 0x112D SWAP1 PUSH1 0x1 PUSH1 0x1 PUSH1 0xA0 SHL SUB AND PUSH2 0x1E0C JUMP JUMPDEST ISZERO PUSH2 0x1147 JUMPI PUSH1 0x11 SLOAD PUSH2 0x1147 SWAP1 PUSH1 0x1 PUSH1 0x1 PUSH1 0xA0 SHL SUB AND PUSH2 0x1C1B JUMP JUMPDEST PUSH2 0x1150 DUP2 PUSH2 0x1876 JUMP JUMPDEST PUSH2 0x115D JUMPI PUSH2 0x115D DUP2 PUSH2 0x1A48 JUMP JUMPDEST PUSH1 0x11 SLOAD PUSH2 0x1172 SWAP1 PUSH1 0x1 PUSH1 0x1 PUSH1 0xA0 SHL SUB AND PUSH2 0x1876 JUMP JUMPDEST ISZERO PUSH2 0x118C JUMPI PUSH1 0x11 SLOAD PUSH2 0x118C SWAP1 PUSH1 0x1 PUSH1 0x1 PUSH1 0xA0 SHL SUB AND PUSH2 0x1A06 JUMP JUMPDEST PUSH1 0x11 SLOAD PUSH1 0x40 MLOAD PUSH1 0x1 PUSH1 0x1 PUSH1 0xA0 SHL SUB DUP1 DUP5 AND SWAP3 AND SWAP1 PUSH32 0x8BE0079C531659141344CD1FD0A4F28419497F9722A3DAAFE3B4186F6B6457E0 SWAP1 PUSH1 0x0 SWAP1 LOG3 PUSH1 0x11 DUP1 SLOAD PUSH1 0x1 PUSH1 0x1 PUSH1 0xA0 SHL SUB NOT AND PUSH1 0x1 PUSH1 0x1 PUSH1 0xA0 SHL SUB SWAP3 SWAP1 SWAP3 AND SWAP2 SWAP1 SWAP2 OR SWAP1 SSTORE JUMP JUMPDEST PUSH1 0x0 DUP3 DUP2 MSTORE PUSH1 0x6 PUSH1 0x20 MSTORE PUSH1 0x40 SWAP1 KECCAK256 PUSH1 0x1 ADD SLOAD PUSH2 0x1203 DUP2 PUSH2 0x17EE JUMP JUMPDEST PUSH2 0xA74 DUP4 DUP4 PUSH2 0x181A JUMP JUMPDEST PUSH2 0xA74 DUP4 DUP4 DUP4 PUSH2 0x1E30 JUMP JUMPDEST PUSH2 0xA48 DUP6 DUP6 DUP6 DUP6 DUP6 PUSH2 0x1E8D JUMP JUMPDEST PUSH1 0x60 PUSH1 0x12 DUP1 SLOAD PUSH2 0x920 SWAP1 PUSH2 0x4A11 JUMP JUMPDEST PUSH1 0x60 DUP1 PUSH1 0x60 DUP1 PUSH1 0x0 JUMPDEST PUSH1 0x1 DUP7 MLOAD PUSH2 0x124B SWAP2 SWAP1 PUSH2 0x4BD1 JUMP JUMPDEST DUP2 LT ISZERO PUSH2 0xF97 JUMPI PUSH1 0x1 PUSH1 0x1 PUSH1 0xA0 SHL SUB DUP8 AND PUSH1 0x0 SWAP1 DUP2 MSTORE PUSH1 0x3 PUSH1 0x20 MSTORE PUSH1 0x40 DUP2 KECCAK256 DUP8 MLOAD DUP3 SWAP1 DUP10 SWAP1 DUP6 SWAP1 DUP2 LT PUSH2 0x1280 JUMPI PUSH2 0x1280 PUSH2 0x4AA8 JUMP JUMPDEST PUSH1 0x20 MUL PUSH1 0x20 ADD ADD MLOAD DUP2 MSTORE PUSH1 0x20 ADD SWAP1 DUP2 MSTORE PUSH1 0x20 ADD PUSH1 0x0 KECCAK256 SLOAD SWAP1 POP PUSH1 0x0 DUP2 GT ISZERO PUSH2 0x12C7 JUMPI PUSH2 0x12B8 DUP5 DUP9 DUP5 DUP2 MLOAD DUP2 LT PUSH2 0xF68 JUMPI PUSH2 0xF68 PUSH2 0x4AA8 JUMP JUMPDEST SWAP4 POP PUSH2 0x12C4 DUP4 DUP3 PUSH2 0x1D3B JUMP JUMPDEST SWAP3 POP JUMPDEST POP DUP1 PUSH2 0x12D2 DUP2 PUSH2 0x4AD4 JUMP JUMPDEST SWAP2 POP POP PUSH2 0x123D JUMP JUMPDEST PUSH1 0x1 PUSH1 0x1 PUSH1 0xA0 SHL SUB DUP6 AND CALLER EQ DUP1 PUSH2 0x12F6 JUMPI POP PUSH2 0x12F6 DUP6 CALLER PUSH2 0x7B1 JUMP JUMPDEST PUSH2 0x1312 JUMPI PUSH1 0x40 MLOAD PUSH3 0x461BCD PUSH1 0xE5 SHL DUP2 MSTORE PUSH1 0x4 ADD PUSH2 0x8B6 SWAP1 PUSH2 0x4BE4 JUMP JUMPDEST PUSH2 0xA48 DUP6 DUP6 DUP6 DUP6 DUP6 PUSH2 0x1E9A JUMP JUMPDEST PUSH1 0x11 SLOAD PUSH1 0x1 PUSH1 0x1 PUSH1 0xA0 SHL SUB AND CALLER EQ PUSH2 0x1349 JUMPI PUSH1 0x40 MLOAD PUSH3 0x461BCD PUSH1 0xE5 SHL DUP2 MSTORE PUSH1 0x4 ADD PUSH2 0x8B6 SWAP1 PUSH2 0x4AED JUMP JUMPDEST PUSH1 0x1 PUSH1 0x1 PUSH1 0xA0 SHL SUB DUP2 AND PUSH2 0x13B0 JUMPI PUSH1 0x40 MLOAD PUSH3 0x461BCD PUSH1 0xE5 SHL DUP2 MSTORE PUSH1 0x20 PUSH1 0x4 DUP3 ADD MSTORE PUSH1 0x28 PUSH1 0x24 DUP3 ADD MSTORE PUSH32 0x4F776E6572526F6C653A206E6577206F776E657220697320746865207A65726F PUSH1 0x44 DUP3 ADD MSTORE PUSH8 0x2061646472657373 PUSH1 0xC0 SHL PUSH1 0x64 DUP3 ADD MSTORE PUSH1 0x84 ADD PUSH2 0x8B6 JUMP JUMPDEST PUSH1 0x11 SLOAD PUSH1 0x1 PUSH1 0x1 PUSH1 0xA0 SHL SUB SWAP1 DUP2 AND SWAP1 DUP3 AND SUB PUSH2 0x140E JUMPI PUSH1 0x40 MLOAD PUSH3 0x461BCD PUSH1 0xE5 SHL DUP2 MSTORE PUSH1 0x20 PUSH1 0x4 DUP3 ADD MSTORE PUSH1 0x1F PUSH1 0x24 DUP3 ADD MSTORE PUSH32 0x4F776E6572526F6C653A20616C726561647920697320746865206F776E657200 PUSH1 0x44 DUP3 ADD MSTORE PUSH1 0x64 ADD PUSH2 0x8B6 JUMP JUMPDEST PUSH2 0x9B7 DUP2 PUSH2 0x10D8 JUMP JUMPDEST PUSH2 0xA74 DUP4 DUP4 DUP4 PUSH2 0x1FD2 JUMP JUMPDEST PUSH2 0x9B7 DUP2 PUSH2 0x2015 JUMP JUMPDEST PUSH1 0x11 SLOAD PUSH1 0x1 PUSH1 0x1 PUSH1 0xA0 SHL SUB AND CALLER EQ PUSH2 0x1455 JUMPI PUSH1 0x40 MLOAD PUSH3 0x461BCD PUSH1 0xE5 SHL DUP2 MSTORE PUSH1 0x4 ADD PUSH2 0x8B6 SWAP1 PUSH2 0x4AED JUMP JUMPDEST PUSH2 0x145E DUP2 PUSH2 0x2052 JUMP JUMPDEST PUSH1 0x40 MLOAD PUSH1 0x20 ADD PUSH2 0x146E SWAP2 SWAP1 PUSH2 0x4C2B JUMP JUMPDEST PUSH1 0x40 MLOAD PUSH1 0x20 DUP2 DUP4 SUB SUB DUP2 MSTORE SWAP1 PUSH1 0x40 MSTORE PUSH1 0x12 SWAP1 DUP2 PUSH2 0xAF3 SWAP2 SWAP1 PUSH2 0x4CB6 JUMP JUMPDEST PUSH1 0x0 PUSH2 0x1496 DUP3 PUSH2 0x14CF JUMP JUMPDEST DUP1 PUSH2 0x14A5 JUMPI POP PUSH2 0x14A5 DUP3 PUSH2 0x14F4 JUMP JUMPDEST DUP1 PUSH2 0x14C0 JUMPI POP PUSH1 0x1 PUSH1 0x1 PUSH1 0xE0 SHL SUB NOT DUP3 AND PUSH4 0xB7F5A35 PUSH1 0xE3 SHL EQ JUMPDEST DUP1 PUSH2 0x8E2 JUMPI POP PUSH2 0x8E2 DUP3 PUSH2 0x21B6 JUMP JUMPDEST PUSH1 0x0 PUSH1 0x1 PUSH1 0x1 PUSH1 0xE0 SHL SUB NOT DUP3 AND PUSH4 0x4F04A74F PUSH1 0xE1 SHL EQ DUP1 PUSH2 0x8E2 JUMPI POP PUSH2 0x8E2 DUP3 PUSH2 0x21F6 JUMP JUMPDEST PUSH1 0x0 PUSH1 0x1 PUSH1 0x1 PUSH1 0xE0 SHL SUB NOT DUP3 AND PUSH4 0xE8FFDB7 PUSH1 0xE0 SHL EQ DUP1 PUSH2 0x1519 JUMPI POP PUSH2 0x1519 DUP3 PUSH2 0x21B6 JUMP JUMPDEST DUP1 PUSH2 0x8E2 JUMPI POP PUSH2 0x8E2 DUP3 PUSH2 0x21F6 JUMP JUMPDEST PUSH1 0x0 DUP2 DUP2 MSTORE PUSH1 0xB PUSH1 0x20 MSTORE PUSH1 0x40 DUP2 KECCAK256 DUP1 SLOAD PUSH1 0x60 SWAP3 SWAP2 SWAP1 PUSH2 0x1546 SWAP1 PUSH2 0x4A11 JUMP JUMPDEST DUP1 PUSH1 0x1F ADD PUSH1 0x20 DUP1 SWAP2 DIV MUL PUSH1 0x20 ADD PUSH1 0x40 MLOAD SWAP1 DUP2 ADD PUSH1 0x40 MSTORE DUP1 SWAP3 SWAP2 SWAP1 DUP2 DUP2 MSTORE PUSH1 0x20 ADD DUP3 DUP1 SLOAD PUSH2 0x1572 SWAP1 PUSH2 0x4A11 JUMP JUMPDEST DUP1 ISZERO PUSH2 0x15BF JUMPI DUP1 PUSH1 0x1F LT PUSH2 0x1594 JUMPI PUSH2 0x100 DUP1 DUP4 SLOAD DIV MUL DUP4 MSTORE SWAP2 PUSH1 0x20 ADD SWAP2 PUSH2 0x15BF JUMP JUMPDEST DUP3 ADD SWAP2 SWAP1 PUSH1 0x0 MSTORE PUSH1 0x20 PUSH1 0x0 KECCAK256 SWAP1 JUMPDEST DUP2 SLOAD DUP2 MSTORE SWAP1 PUSH1 0x1 ADD SWAP1 PUSH1 0x20 ADD DUP1 DUP4 GT PUSH2 0x15A2 JUMPI DUP3 SWAP1 SUB PUSH1 0x1F AND DUP3 ADD SWAP2 JUMPDEST POP POP POP POP POP SWAP1 POP PUSH1 0x0 DUP2 MLOAD GT PUSH2 0x15DD JUMPI PUSH2 0x15D8 DUP4 PUSH2 0x221B JUMP JUMPDEST PUSH2 0xE61 JUMP JUMPDEST PUSH1 0xA DUP2 PUSH1 0x40 MLOAD PUSH1 0x20 ADD PUSH2 0x15F1 SWAP3 SWAP2 SWAP1 PUSH2 0x4D75 JUMP JUMPDEST PUSH1 0x40 MLOAD PUSH1 0x20 DUP2 DUP4 SUB SUB DUP2 MSTORE SWAP1 PUSH1 0x40 MSTORE SWAP4 SWAP3 POP POP POP JUMP JUMPDEST PUSH2 0x161F PUSH1 0x0 DUP1 MLOAD PUSH1 0x20 PUSH2 0x5255 DUP4 CODECOPY DUP2 MLOAD SWAP2 MSTORE CALLER PUSH2 0xE68 JUMP JUMPDEST PUSH2 0x163B JUMPI PUSH1 0x40 MLOAD PUSH3 0x461BCD PUSH1 0xE5 SHL DUP2 MSTORE PUSH1 0x4 ADD PUSH2 0x8B6 SWAP1 PUSH2 0x4B74 JUMP JUMPDEST PUSH2 0x9B7 DUP2 PUSH2 0x22AF JUMP JUMPDEST DUP2 MLOAD DUP4 MLOAD EQ PUSH2 0x1665 JUMPI PUSH1 0x40 MLOAD PUSH3 0x461BCD PUSH1 0xE5 SHL DUP2 MSTORE PUSH1 0x4 ADD PUSH2 0x8B6 SWAP1 PUSH2 0x4DFC JUMP JUMPDEST PUSH1 0x1 PUSH1 0x1 PUSH1 0xA0 SHL SUB DUP5 AND PUSH2 0x168B JUMPI PUSH1 0x40 MLOAD PUSH3 0x461BCD PUSH1 0xE5 SHL DUP2 MSTORE PUSH1 0x4 ADD PUSH2 0x8B6 SWAP1 PUSH2 0x4E42 JUMP JUMPDEST CALLER PUSH2 0x169A DUP2 DUP8 DUP8 DUP8 DUP8 DUP8 PUSH2 0x2398 JUMP JUMPDEST PUSH1 0x0 JUMPDEST DUP5 MLOAD DUP2 LT ISZERO PUSH2 0x1780 JUMPI PUSH1 0x0 DUP6 DUP3 DUP2 MLOAD DUP2 LT PUSH2 0x16BA JUMPI PUSH2 0x16BA PUSH2 0x4AA8 JUMP JUMPDEST PUSH1 0x20 MUL PUSH1 0x20 ADD ADD MLOAD SWAP1 POP PUSH1 0x0 DUP6 DUP4 DUP2 MLOAD DUP2 LT PUSH2 0x16D8 JUMPI PUSH2 0x16D8 PUSH2 0x4AA8 JUMP JUMPDEST PUSH1 0x20 SWAP1 DUP2 MUL SWAP2 SWAP1 SWAP2 ADD DUP2 ADD MLOAD PUSH1 0x0 DUP5 DUP2 MSTORE DUP1 DUP4 MSTORE PUSH1 0x40 DUP1 DUP3 KECCAK256 PUSH1 0x1 PUSH1 0x1 PUSH1 0xA0 SHL SUB DUP15 AND DUP4 MSTORE SWAP1 SWAP4 MSTORE SWAP2 SWAP1 SWAP2 KECCAK256 SLOAD SWAP1 SWAP2 POP DUP2 DUP2 LT ISZERO PUSH2 0x1728 JUMPI PUSH1 0x40 MLOAD PUSH3 0x461BCD PUSH1 0xE5 SHL DUP2 MSTORE PUSH1 0x4 ADD PUSH2 0x8B6 SWAP1 PUSH2 0x4E85 JUMP JUMPDEST PUSH1 0x0 DUP4 DUP2 MSTORE PUSH1 0x20 DUP2 DUP2 MSTORE PUSH1 0x40 DUP1 DUP4 KECCAK256 PUSH1 0x1 PUSH1 0x1 PUSH1 0xA0 SHL SUB DUP15 DUP2 AND DUP6 MSTORE SWAP3 MSTORE DUP1 DUP4 KECCAK256 DUP6 DUP6 SUB SWAP1 SSTORE SWAP1 DUP12 AND DUP3 MSTORE DUP2 KECCAK256 DUP1 SLOAD DUP5 SWAP3 SWAP1 PUSH2 0x1765 SWAP1 DUP5 SWAP1 PUSH2 0x4ECD JUMP JUMPDEST SWAP3 POP POP DUP2 SWAP1 SSTORE POP POP POP POP DUP1 PUSH2 0x1779 SWAP1 PUSH2 0x4AD4 JUMP JUMPDEST SWAP1 POP PUSH2 0x169D JUMP JUMPDEST POP DUP5 PUSH1 0x1 PUSH1 0x1 PUSH1 0xA0 SHL SUB AND DUP7 PUSH1 0x1 PUSH1 0x1 PUSH1 0xA0 SHL SUB AND DUP3 PUSH1 0x1 PUSH1 0x1 PUSH1 0xA0 SHL SUB AND PUSH32 0x4A39DC06D4C0DBC64B70AF90FD698A233A518AA5D07E595D983B8C0526C8F7FB DUP8 DUP8 PUSH1 0x40 MLOAD PUSH2 0x17D0 SWAP3 SWAP2 SWAP1 PUSH2 0x48D9 JUMP JUMPDEST PUSH1 0x40 MLOAD DUP1 SWAP2 SUB SWAP1 LOG4 PUSH2 0x17E6 DUP2 DUP8 DUP8 DUP8 DUP8 DUP8 PUSH2 0x23A6 JUMP JUMPDEST POP POP POP POP POP POP JUMP JUMPDEST PUSH2 0x9B7 DUP2 CALLER PUSH2 0x2445 JUMP JUMPDEST PUSH2 0x1802 DUP3 DUP3 PUSH2 0x24A9 JUMP JUMPDEST PUSH1 0x0 DUP3 DUP2 MSTORE PUSH1 0x7 PUSH1 0x20 MSTORE PUSH1 0x40 SWAP1 KECCAK256 PUSH2 0xA74 SWAP1 DUP3 PUSH2 0x252F JUMP JUMPDEST PUSH2 0x1824 DUP3 DUP3 PUSH2 0x2544 JUMP JUMPDEST PUSH1 0x0 DUP3 DUP2 MSTORE PUSH1 0x7 PUSH1 0x20 MSTORE PUSH1 0x40 SWAP1 KECCAK256 PUSH2 0xA74 SWAP1 DUP3 PUSH2 0x25AB JUMP JUMPDEST PUSH2 0xA48 DUP6 DUP6 DUP6 DUP6 DUP6 PUSH2 0x25C0 JUMP JUMPDEST PUSH1 0x0 DUP1 MLOAD PUSH1 0x20 PUSH2 0x5255 DUP4 CODECOPY DUP2 MLOAD SWAP2 MSTORE PUSH2 0x1861 DUP2 PUSH2 0x17EE JUMP JUMPDEST PUSH2 0x9B7 PUSH2 0x25F2 JUMP JUMPDEST PUSH2 0xA48 DUP6 DUP6 DUP6 DUP6 DUP6 PUSH2 0x2687 JUMP JUMPDEST PUSH1 0x0 PUSH2 0x8E2 PUSH1 0x10 DUP4 PUSH2 0x26B9 JUMP JUMPDEST PUSH1 0x0 PUSH2 0x188E CALLER PUSH2 0xFA5 JUMP JUMPDEST PUSH2 0x18AA JUMPI PUSH1 0x40 MLOAD PUSH3 0x461BCD PUSH1 0xE5 SHL DUP2 MSTORE PUSH1 0x4 ADD PUSH2 0x8B6 SWAP1 PUSH2 0x4B24 JUMP JUMPDEST PUSH1 0x0 DUP5 DUP2 MSTORE PUSH1 0xF PUSH1 0x20 MSTORE PUSH1 0x40 SWAP1 KECCAK256 SLOAD PUSH1 0x1 PUSH1 0x1 PUSH1 0xA0 SHL SUB AND ISZERO PUSH2 0x190F JUMPI PUSH1 0x40 MLOAD PUSH3 0x461BCD PUSH1 0xE5 SHL DUP2 MSTORE PUSH1 0x20 PUSH1 0x4 DUP3 ADD MSTORE PUSH1 0x1C PUSH1 0x24 DUP3 ADD MSTORE PUSH32 0x4B495033373A20746F6B656E20616C7265616479206372656174656400000000 PUSH1 0x44 DUP3 ADD MSTORE PUSH1 0x64 ADD PUSH2 0x8B6 JUMP JUMPDEST CALLER PUSH1 0x0 DUP6 DUP2 MSTORE PUSH1 0xF PUSH1 0x20 MSTORE PUSH1 0x40 SWAP1 KECCAK256 DUP1 SLOAD PUSH1 0x1 PUSH1 0x1 PUSH1 0xA0 SHL SUB NOT AND PUSH1 0x1 PUSH1 0x1 PUSH1 0xA0 SHL SUB SWAP3 SWAP1 SWAP3 AND SWAP2 SWAP1 SWAP2 OR SWAP1 SSTORE PUSH2 0x1957 CALLER DUP6 DUP6 PUSH1 0x40 MLOAD DUP1 PUSH1 0x20 ADD PUSH1 0x40 MSTORE DUP1 PUSH1 0x0 DUP2 MSTORE POP PUSH2 0x1A8A JUMP JUMPDEST DUP2 MLOAD ISZERO PUSH2 0x19B0 JUMPI PUSH1 0x0 DUP5 DUP2 MSTORE PUSH1 0xB PUSH1 0x20 MSTORE PUSH1 0x40 SWAP1 KECCAK256 PUSH2 0x1976 DUP4 DUP3 PUSH2 0x4CB6 JUMP JUMPDEST POP DUP4 PUSH32 0x6BB7FF708619BA0610CBA295A58592E0451DEE2622938C8755667688DAF3529B DUP4 PUSH1 0x40 MLOAD PUSH2 0x19A7 SWAP2 SWAP1 PUSH2 0x42B2 JUMP JUMPDEST PUSH1 0x40 MLOAD DUP1 SWAP2 SUB SWAP1 LOG2 JUMPDEST POP PUSH1 0x1 SWAP4 SWAP3 POP POP POP JUMP JUMPDEST PUSH2 0x9B7 DUP2 PUSH2 0x273C JUMP JUMPDEST PUSH1 0x1 PUSH1 0x1 PUSH1 0xA0 SHL SUB DUP4 AND CALLER EQ DUP1 PUSH2 0x19DF JUMPI POP PUSH2 0x19DF DUP4 CALLER PUSH2 0x7B1 JUMP JUMPDEST PUSH2 0x19FB JUMPI PUSH1 0x40 MLOAD PUSH3 0x461BCD PUSH1 0xE5 SHL DUP2 MSTORE PUSH1 0x4 ADD PUSH2 0x8B6 SWAP1 PUSH2 0x4BE4 JUMP JUMPDEST PUSH2 0xA74 DUP4 DUP4 DUP4 PUSH2 0x2748 JUMP JUMPDEST PUSH2 0x1A11 PUSH1 0x10 DUP3 PUSH2 0x28E4 JUMP JUMPDEST PUSH1 0x40 MLOAD PUSH1 0x1 PUSH1 0x1 PUSH1 0xA0 SHL SUB DUP3 AND SWAP1 PUSH32 0xCD265EBAF09DF2871CC7BD4133404A235BA12EFF2041BB89D9C714A2621C7C7E SWAP1 PUSH1 0x0 SWAP1 LOG2 POP JUMP JUMPDEST PUSH2 0x1A53 PUSH1 0x10 DUP3 PUSH2 0x2966 JUMP JUMPDEST PUSH1 0x40 MLOAD PUSH1 0x1 PUSH1 0x1 PUSH1 0xA0 SHL SUB DUP3 AND SWAP1 PUSH32 0x6719D08C1888103BEA251A4ED56406BD0C3E69723C8A1686E017E7BBE159B6F8 SWAP1 PUSH1 0x0 SWAP1 LOG2 POP JUMP JUMPDEST PUSH1 0x1 PUSH1 0x1 PUSH1 0xA0 SHL SUB DUP5 AND PUSH2 0x1AE0 JUMPI PUSH1 0x40 MLOAD PUSH3 0x461BCD PUSH1 0xE5 SHL DUP2 MSTORE PUSH1 0x20 PUSH1 0x4 DUP3 ADD MSTORE PUSH1 0x1F PUSH1 0x24 DUP3 ADD MSTORE PUSH32 0x4B495033373A206D696E7420746F20746865207A65726F206164647265737300 PUSH1 0x44 DUP3 ADD MSTORE PUSH1 0x64 ADD PUSH2 0x8B6 JUMP JUMPDEST CALLER PUSH1 0x0 PUSH2 0x1AEC DUP6 PUSH2 0x29E2 JUMP JUMPDEST SWAP1 POP PUSH1 0x0 PUSH2 0x1AF9 DUP6 PUSH2 0x29E2 JUMP JUMPDEST SWAP1 POP PUSH2 0x1B0A DUP4 PUSH1 0x0 DUP10 DUP6 DUP6 DUP10 PUSH2 0x2398 JUMP JUMPDEST PUSH1 0x0 DUP7 DUP2 MSTORE PUSH1 0x20 DUP2 DUP2 MSTORE PUSH1 0x40 DUP1 DUP4 KECCAK256 PUSH1 0x1 PUSH1 0x1 PUSH1 0xA0 SHL SUB DUP12 AND DUP5 MSTORE SWAP1 SWAP2 MSTORE DUP2 KECCAK256 DUP1 SLOAD DUP8 SWAP3 SWAP1 PUSH2 0x1B3A SWAP1 DUP5 SWAP1 PUSH2 0x4ECD JUMP JUMPDEST SWAP1 SWAP2 SSTORE POP POP PUSH1 0x40 DUP1 MLOAD DUP8 DUP2 MSTORE PUSH1 0x20 DUP2 ADD DUP8 SWAP1 MSTORE PUSH1 0x1 PUSH1 0x1 PUSH1 0xA0 SHL SUB DUP1 DUP11 AND SWAP3 PUSH1 0x0 SWAP3 SWAP2 DUP8 AND SWAP2 PUSH32 0xC3D58168C5AE7397731D063D5BBF3D657854427343F4C083240F7AACAA2D0F62 SWAP2 ADD PUSH1 0x40 MLOAD DUP1 SWAP2 SUB SWAP1 LOG4 PUSH2 0x1B9A DUP4 PUSH1 0x0 DUP10 DUP10 DUP10 DUP10 PUSH2 0x2A2D JUMP JUMPDEST POP POP POP POP POP POP POP JUMP JUMPDEST PUSH1 0x0 DUP1 MLOAD PUSH1 0x20 PUSH2 0x5255 DUP4 CODECOPY DUP2 MLOAD SWAP2 MSTORE PUSH2 0x1BBB DUP2 PUSH2 0x17EE JUMP JUMPDEST PUSH2 0x9B7 PUSH2 0x2A4F JUMP JUMPDEST PUSH2 0xAF3 DUP3 DUP3 PUSH2 0x2ACC JUMP JUMPDEST PUSH1 0x0 PUSH2 0xE61 DUP4 DUP4 PUSH2 0x2B29 JUMP JUMPDEST PUSH2 0x1BE4 PUSH1 0xE DUP3 PUSH2 0x2966 JUMP JUMPDEST PUSH1 0x40 MLOAD PUSH1 0x1 PUSH1 0x1 PUSH1 0xA0 SHL SUB DUP3 AND SWAP1 PUSH32 0x6AE172837EA30B801FBFCDD4108AA1D5BF8FF775444FD70256B44E6BF3DFC3F6 SWAP1 PUSH1 0x0 SWAP1 LOG2 POP JUMP JUMPDEST PUSH2 0x1C26 PUSH1 0xE DUP3 PUSH2 0x28E4 JUMP JUMPDEST PUSH1 0x40 MLOAD PUSH1 0x1 PUSH1 0x1 PUSH1 0xA0 SHL SUB DUP3 AND SWAP1 PUSH32 0xE94479A9F7E1952CC78F2D6BAAB678ADC1B772D936C6583DEF489E524CB66692 SWAP1 PUSH1 0x0 SWAP1 LOG2 POP JUMP JUMPDEST DUP2 PUSH1 0x1 PUSH1 0x1 PUSH1 0xA0 SHL SUB AND DUP4 PUSH1 0x1 PUSH1 0x1 PUSH1 0xA0 SHL SUB AND SUB PUSH2 0x1CCE JUMPI PUSH1 0x40 MLOAD PUSH3 0x461BCD PUSH1 0xE5 SHL DUP2 MSTORE PUSH1 0x20 PUSH1 0x4 DUP3 ADD MSTORE PUSH1 0x27 PUSH1 0x24 DUP3 ADD MSTORE PUSH32 0x4B495033373A2073657474696E6720617070726F76616C207374617475732066 PUSH1 0x44 DUP3 ADD MSTORE PUSH7 0x37B91039B2B633 PUSH1 0xC9 SHL PUSH1 0x64 DUP3 ADD MSTORE PUSH1 0x84 ADD PUSH2 0x8B6 JUMP JUMPDEST PUSH1 0x1 PUSH1 0x1 PUSH1 0xA0 SHL SUB DUP4 DUP2 AND PUSH1 0x0 DUP2 DUP2 MSTORE PUSH1 0x2 PUSH1 0x20 SWAP1 DUP2 MSTORE PUSH1 0x40 DUP1 DUP4 KECCAK256 SWAP5 DUP8 AND DUP1 DUP5 MSTORE SWAP5 DUP3 MSTORE SWAP2 DUP3 SWAP1 KECCAK256 DUP1 SLOAD PUSH1 0xFF NOT AND DUP7 ISZERO ISZERO SWAP1 DUP2 OR SWAP1 SWAP2 SSTORE SWAP2 MLOAD SWAP2 DUP3 MSTORE PUSH32 0x17307EAB39AB6107E8899845AD3D59BD9653F200F220920489CA2B5937696C31 SWAP2 ADD PUSH1 0x40 MLOAD DUP1 SWAP2 SUB SWAP1 LOG3 POP POP POP JUMP JUMPDEST PUSH1 0x60 PUSH1 0x0 DUP4 MLOAD PUSH1 0x1 PUSH2 0x1D4D SWAP2 SWAP1 PUSH2 0x4ECD JUMP JUMPDEST PUSH1 0x1 PUSH1 0x1 PUSH1 0x40 SHL SUB DUP2 GT ISZERO PUSH2 0x1D64 JUMPI PUSH2 0x1D64 PUSH2 0x42C5 JUMP JUMPDEST PUSH1 0x40 MLOAD SWAP1 DUP1 DUP3 MSTORE DUP1 PUSH1 0x20 MUL PUSH1 0x20 ADD DUP3 ADD PUSH1 0x40 MSTORE DUP1 ISZERO PUSH2 0x1D8D JUMPI DUP2 PUSH1 0x20 ADD PUSH1 0x20 DUP3 MUL DUP1 CALLDATASIZE DUP4 CALLDATACOPY ADD SWAP1 POP JUMPDEST POP SWAP1 POP PUSH1 0x0 JUMPDEST DUP5 MLOAD DUP2 LT ISZERO PUSH2 0x1DE5 JUMPI DUP5 DUP2 DUP2 MLOAD DUP2 LT PUSH2 0x1DAE JUMPI PUSH2 0x1DAE PUSH2 0x4AA8 JUMP JUMPDEST PUSH1 0x20 MUL PUSH1 0x20 ADD ADD MLOAD DUP3 DUP3 DUP2 MLOAD DUP2 LT PUSH2 0x1DC8 JUMPI PUSH2 0x1DC8 PUSH2 0x4AA8 JUMP JUMPDEST PUSH1 0x20 SWAP1 DUP2 MUL SWAP2 SWAP1 SWAP2 ADD ADD MSTORE DUP1 PUSH2 0x1DDD DUP2 PUSH2 0x4AD4 JUMP JUMPDEST SWAP2 POP POP PUSH2 0x1D93 JUMP JUMPDEST POP DUP3 DUP2 DUP6 MLOAD DUP2 MLOAD DUP2 LT PUSH2 0x1DFA JUMPI PUSH2 0x1DFA PUSH2 0x4AA8 JUMP JUMPDEST PUSH1 0x20 SWAP1 DUP2 MUL SWAP2 SWAP1 SWAP2 ADD ADD MSTORE SWAP4 SWAP3 POP POP POP JUMP JUMPDEST PUSH1 0x0 PUSH2 0x8E2 PUSH1 0xE DUP4 PUSH2 0x26B9 JUMP JUMPDEST PUSH2 0xA48 DUP6 DUP6 DUP6 DUP6 DUP6 PUSH2 0x2B53 JUMP JUMPDEST PUSH1 0x0 PUSH2 0x8E2 DUP3 SLOAD SWAP1 JUMP JUMPDEST PUSH2 0x1E39 CALLER PUSH2 0xFA5 JUMP JUMPDEST PUSH2 0x1E55 JUMPI PUSH1 0x40 MLOAD PUSH3 0x461BCD PUSH1 0xE5 SHL DUP2 MSTORE PUSH1 0x4 ADD PUSH2 0x8B6 SWAP1 PUSH2 0x4B24 JUMP JUMPDEST PUSH1 0x0 JUMPDEST DUP3 MLOAD DUP2 LT ISZERO PUSH2 0x1E71 JUMPI PUSH2 0x1E6A DUP2 PUSH2 0x4AD4 JUMP JUMPDEST SWAP1 POP PUSH2 0x1E58 JUMP JUMPDEST POP PUSH2 0xA74 DUP4 DUP4 DUP4 PUSH1 0x40 MLOAD DUP1 PUSH1 0x20 ADD PUSH1 0x40 MSTORE DUP1 PUSH1 0x0 DUP2 MSTORE POP PUSH2 0x2B85 JUMP JUMPDEST PUSH2 0xA48 DUP6 DUP6 DUP6 DUP6 DUP6 PUSH2 0x2D0F JUMP JUMPDEST PUSH1 0x1 PUSH1 0x1 PUSH1 0xA0 SHL SUB DUP5 AND PUSH2 0x1EC0 JUMPI PUSH1 0x40 MLOAD PUSH3 0x461BCD PUSH1 0xE5 SHL DUP2 MSTORE PUSH1 0x4 ADD PUSH2 0x8B6 SWAP1 PUSH2 0x4E42 JUMP JUMPDEST CALLER PUSH1 0x0 PUSH2 0x1ECC DUP6 PUSH2 0x29E2 JUMP JUMPDEST SWAP1 POP PUSH1 0x0 PUSH2 0x1ED9 DUP6 PUSH2 0x29E2 JUMP JUMPDEST SWAP1 POP PUSH2 0x1EE9 DUP4 DUP10 DUP10 DUP6 DUP6 DUP10 PUSH2 0x2398 JUMP JUMPDEST PUSH1 0x0 DUP7 DUP2 MSTORE PUSH1 0x20 DUP2 DUP2 MSTORE PUSH1 0x40 DUP1 DUP4 KECCAK256 PUSH1 0x1 PUSH1 0x1 PUSH1 0xA0 SHL SUB DUP13 AND DUP5 MSTORE SWAP1 SWAP2 MSTORE SWAP1 KECCAK256 SLOAD DUP6 DUP2 LT ISZERO PUSH2 0x1F2A JUMPI PUSH1 0x40 MLOAD PUSH3 0x461BCD PUSH1 0xE5 SHL DUP2 MSTORE PUSH1 0x4 ADD PUSH2 0x8B6 SWAP1 PUSH2 0x4E85 JUMP JUMPDEST PUSH1 0x0 DUP8 DUP2 MSTORE PUSH1 0x20 DUP2 DUP2 MSTORE PUSH1 0x40 DUP1 DUP4 KECCAK256 PUSH1 0x1 PUSH1 0x1 PUSH1 0xA0 SHL SUB DUP14 DUP2 AND DUP6 MSTORE SWAP3 MSTORE DUP1 DUP4 KECCAK256 DUP10 DUP6 SUB SWAP1 SSTORE SWAP1 DUP11 AND DUP3 MSTORE DUP2 KECCAK256 DUP1 SLOAD DUP9 SWAP3 SWAP1 PUSH2 0x1F67 SWAP1 DUP5 SWAP1 PUSH2 0x4ECD JUMP JUMPDEST SWAP1 SWAP2 SSTORE POP POP PUSH1 0x40 DUP1 MLOAD DUP9 DUP2 MSTORE PUSH1 0x20 DUP2 ADD DUP9 SWAP1 MSTORE PUSH1 0x1 PUSH1 0x1 PUSH1 0xA0 SHL SUB DUP1 DUP12 AND SWAP3 DUP13 DUP3 AND SWAP3 SWAP2 DUP9 AND SWAP2 PUSH32 0xC3D58168C5AE7397731D063D5BBF3D657854427343F4C083240F7AACAA2D0F62 SWAP2 ADD PUSH1 0x40 MLOAD DUP1 SWAP2 SUB SWAP1 LOG4 PUSH2 0x1FC7 DUP5 DUP11 DUP11 DUP11 DUP11 DUP11 PUSH2 0x2A2D JUMP JUMPDEST POP POP POP POP POP POP POP POP POP JUMP JUMPDEST PUSH1 0x1 PUSH1 0x1 PUSH1 0xA0 SHL SUB DUP4 AND CALLER EQ DUP1 PUSH2 0x1FEE JUMPI POP PUSH2 0x1FEE DUP4 CALLER PUSH2 0x7B1 JUMP JUMPDEST PUSH2 0x200A JUMPI PUSH1 0x40 MLOAD PUSH3 0x461BCD PUSH1 0xE5 SHL DUP2 MSTORE PUSH1 0x4 ADD PUSH2 0x8B6 SWAP1 PUSH2 0x4BE4 JUMP JUMPDEST PUSH2 0xA74 DUP4 DUP4 DUP4 PUSH2 0x2D41 JUMP JUMPDEST PUSH2 0x202D PUSH1 0x0 DUP1 MLOAD PUSH1 0x20 PUSH2 0x5255 DUP4 CODECOPY DUP2 MLOAD SWAP2 MSTORE CALLER PUSH2 0xE68 JUMP JUMPDEST PUSH2 0x2049 JUMPI PUSH1 0x40 MLOAD PUSH3 0x461BCD PUSH1 0xE5 SHL DUP2 MSTORE PUSH1 0x4 ADD PUSH2 0x8B6 SWAP1 PUSH2 0x4A4B JUMP JUMPDEST PUSH2 0x9B7 DUP2 PUSH2 0x2E59 JUMP JUMPDEST PUSH1 0x60 DUP2 MLOAD PUSH1 0x0 SUB PUSH2 0x2071 JUMPI POP POP PUSH1 0x40 DUP1 MLOAD PUSH1 0x20 DUP2 ADD SWAP1 SWAP2 MSTORE PUSH1 0x0 DUP2 MSTORE SWAP1 JUMP JUMPDEST PUSH1 0x0 PUSH1 0x40 MLOAD DUP1 PUSH1 0x60 ADD PUSH1 0x40 MSTORE DUP1 PUSH1 0x40 DUP2 MSTORE PUSH1 0x20 ADD PUSH2 0x5215 PUSH1 0x40 SWAP2 CODECOPY SWAP1 POP PUSH1 0x0 PUSH1 0x3 DUP5 MLOAD PUSH1 0x2 PUSH2 0x20A0 SWAP2 SWAP1 PUSH2 0x4ECD JUMP JUMPDEST PUSH2 0x20AA SWAP2 SWAP1 PUSH2 0x4EE0 JUMP JUMPDEST PUSH2 0x20B5 SWAP1 PUSH1 0x4 PUSH2 0x4F02 JUMP JUMPDEST SWAP1 POP PUSH1 0x0 PUSH2 0x20C4 DUP3 PUSH1 0x20 PUSH2 0x4ECD JUMP JUMPDEST PUSH1 0x1 PUSH1 0x1 PUSH1 0x40 SHL SUB DUP2 GT ISZERO PUSH2 0x20DB JUMPI PUSH2 0x20DB PUSH2 0x42C5 JUMP JUMPDEST PUSH1 0x40 MLOAD SWAP1 DUP1 DUP3 MSTORE DUP1 PUSH1 0x1F ADD PUSH1 0x1F NOT AND PUSH1 0x20 ADD DUP3 ADD PUSH1 0x40 MSTORE DUP1 ISZERO PUSH2 0x2105 JUMPI PUSH1 0x20 DUP3 ADD DUP2 DUP1 CALLDATASIZE DUP4 CALLDATACOPY ADD SWAP1 POP JUMPDEST POP SWAP1 POP DUP2 DUP2 MSTORE PUSH1 0x1 DUP4 ADD DUP6 DUP7 MLOAD DUP2 ADD PUSH1 0x20 DUP5 ADD JUMPDEST DUP2 DUP4 LT ISZERO PUSH2 0x2171 JUMPI PUSH1 0x3 DUP4 ADD SWAP3 POP DUP3 MLOAD PUSH1 0x3F DUP2 PUSH1 0x12 SHR AND DUP6 ADD MLOAD DUP3 MSTORE8 PUSH1 0x1 DUP3 ADD SWAP2 POP PUSH1 0x3F DUP2 PUSH1 0xC SHR AND DUP6 ADD MLOAD DUP3 MSTORE8 PUSH1 0x1 DUP3 ADD SWAP2 POP PUSH1 0x3F DUP2 PUSH1 0x6 SHR AND DUP6 ADD MLOAD DUP3 MSTORE8 PUSH1 0x1 DUP3 ADD SWAP2 POP PUSH1 0x3F DUP2 AND DUP6 ADD MLOAD DUP3 MSTORE8 POP PUSH1 0x1 ADD PUSH2 0x2119 JUMP JUMPDEST PUSH1 0x3 DUP10 MLOAD MOD PUSH1 0x1 DUP2 EQ PUSH2 0x218B JUMPI PUSH1 0x2 DUP2 EQ PUSH2 0x219C JUMPI PUSH2 0x21A8 JUMP JUMPDEST PUSH2 0x3D3D PUSH1 0xF0 SHL PUSH1 0x1 NOT DUP4 ADD MSTORE PUSH2 0x21A8 JUMP JUMPDEST PUSH1 0x3D PUSH1 0xF8 SHL PUSH1 0x0 NOT DUP4 ADD MSTORE JUMPDEST POP SWAP4 SWAP9 SWAP8 POP POP POP POP POP POP POP POP JUMP JUMPDEST PUSH1 0x0 PUSH1 0x1 PUSH1 0x1 PUSH1 0xE0 SHL SUB NOT DUP3 AND PUSH4 0x6433CA1F PUSH1 0xE0 SHL EQ DUP1 PUSH2 0x21E7 JUMPI POP PUSH1 0x1 PUSH1 0x1 PUSH1 0xE0 SHL SUB NOT DUP3 AND PUSH4 0x3A24D07 PUSH1 0xE2 SHL EQ JUMPDEST DUP1 PUSH2 0x8E2 JUMPI POP PUSH2 0x8E2 DUP3 PUSH2 0x2F1F JUMP JUMPDEST PUSH1 0x0 PUSH1 0x1 PUSH1 0x1 PUSH1 0xE0 SHL SUB NOT DUP3 AND PUSH4 0x5A05180F PUSH1 0xE0 SHL EQ DUP1 PUSH2 0x8E2 JUMPI POP PUSH2 0x8E2 DUP3 PUSH2 0x2F35 JUMP JUMPDEST PUSH1 0x60 PUSH1 0x5 DUP1 SLOAD PUSH2 0x222A SWAP1 PUSH2 0x4A11 JUMP JUMPDEST DUP1 PUSH1 0x1F ADD PUSH1 0x20 DUP1 SWAP2 DIV MUL PUSH1 0x20 ADD PUSH1 0x40 MLOAD SWAP1 DUP2 ADD PUSH1 0x40 MSTORE DUP1 SWAP3 SWAP2 SWAP1 DUP2 DUP2 MSTORE PUSH1 0x20 ADD DUP3 DUP1 SLOAD PUSH2 0x2256 SWAP1 PUSH2 0x4A11 JUMP JUMPDEST DUP1 ISZERO PUSH2 0x22A3 JUMPI DUP1 PUSH1 0x1F LT PUSH2 0x2278 JUMPI PUSH2 0x100 DUP1 DUP4 SLOAD DIV MUL DUP4 MSTORE SWAP2 PUSH1 0x20 ADD SWAP2 PUSH2 0x22A3 JUMP JUMPDEST DUP3 ADD SWAP2 SWAP1 PUSH1 0x0 MSTORE PUSH1 0x20 PUSH1 0x0 KECCAK256 SWAP1 JUMPDEST DUP2 SLOAD DUP2 MSTORE SWAP1 PUSH1 0x1 ADD SWAP1 PUSH1 0x20 ADD DUP1 DUP4 GT PUSH2 0x2286 JUMPI DUP3 SWAP1 SUB PUSH1 0x1F AND DUP3 ADD SWAP2 JUMPDEST POP POP POP POP POP SWAP1 POP SWAP2 SWAP1 POP JUMP JUMPDEST PUSH1 0x0 DUP1 MLOAD PUSH1 0x20 PUSH2 0x5255 DUP4 CODECOPY DUP2 MLOAD SWAP2 MSTORE PUSH2 0x22C7 DUP2 PUSH2 0x17EE JUMP JUMPDEST PUSH1 0x0 DUP3 DUP2 MSTORE PUSH1 0x9 PUSH1 0x20 MSTORE PUSH1 0x40 SWAP1 KECCAK256 SLOAD PUSH1 0xFF AND ISZERO PUSH2 0x2332 JUMPI PUSH1 0x40 MLOAD PUSH3 0x461BCD PUSH1 0xE5 SHL DUP2 MSTORE PUSH1 0x20 PUSH1 0x4 DUP3 ADD MSTORE PUSH1 0x23 PUSH1 0x24 DUP3 ADD MSTORE PUSH32 0x4B495033375061757361626C653A20746F6B656E20616C726561647920706175 PUSH1 0x44 DUP3 ADD MSTORE PUSH3 0x1CD959 PUSH1 0xEA SHL PUSH1 0x64 DUP3 ADD MSTORE PUSH1 0x84 ADD PUSH2 0x8B6 JUMP JUMPDEST PUSH1 0x0 DUP3 DUP2 MSTORE PUSH1 0x9 PUSH1 0x20 MSTORE PUSH1 0x40 SWAP1 KECCAK256 DUP1 SLOAD PUSH1 0xFF NOT AND PUSH1 0x1 OR SWAP1 SSTORE PUSH32 0x8622310C27420D43447724EF64E214EBF86405B8E9F149480FB03111F811E519 PUSH2 0x2373 CALLER SWAP1 JUMP JUMPDEST PUSH1 0x40 DUP1 MLOAD PUSH1 0x1 PUSH1 0x1 PUSH1 0xA0 SHL SUB SWAP1 SWAP3 AND DUP3 MSTORE PUSH1 0x20 DUP3 ADD DUP6 SWAP1 MSTORE ADD PUSH1 0x40 MLOAD DUP1 SWAP2 SUB SWAP1 LOG1 POP POP JUMP JUMPDEST PUSH2 0x17E6 DUP7 DUP7 DUP7 DUP7 DUP7 DUP7 PUSH2 0x2F5A JUMP JUMPDEST PUSH2 0x23B4 DUP7 DUP7 DUP7 DUP7 DUP7 DUP7 PUSH2 0x2F68 JUMP JUMPDEST DUP1 PUSH2 0x23C8 JUMPI POP PUSH2 0x23C8 DUP7 DUP7 DUP7 DUP7 DUP7 DUP7 PUSH2 0x3060 JUMP JUMPDEST PUSH2 0x17E6 JUMPI PUSH1 0x40 MLOAD PUSH3 0x461BCD PUSH1 0xE5 SHL DUP2 MSTORE PUSH1 0x20 PUSH1 0x4 DUP3 ADD MSTORE PUSH1 0x42 PUSH1 0x24 DUP3 ADD MSTORE PUSH32 0x4B495033373A207472616E7366657220746F206E6F6E20494B49503337526563 PUSH1 0x44 DUP3 ADD MSTORE PUSH32 0x65697665722F4945524331313535526563656976657220696D706C656D656E74 PUSH1 0x64 DUP3 ADD MSTORE PUSH2 0x32B9 PUSH1 0xF1 SHL PUSH1 0x84 DUP3 ADD MSTORE PUSH1 0xA4 ADD PUSH2 0x8B6 JUMP JUMPDEST PUSH2 0x244F DUP3 DUP3 PUSH2 0xE68 JUMP JUMPDEST PUSH2 0xAF3 JUMPI PUSH2 0x2467 DUP2 PUSH1 0x1 PUSH1 0x1 PUSH1 0xA0 SHL SUB AND PUSH1 0x14 PUSH2 0x3129 JUMP JUMPDEST PUSH2 0x2472 DUP4 PUSH1 0x20 PUSH2 0x3129 JUMP JUMPDEST PUSH1 0x40 MLOAD PUSH1 0x20 ADD PUSH2 0x2483 SWAP3 SWAP2 SWAP1 PUSH2 0x4F19 JUMP JUMPDEST PUSH1 0x40 DUP1 MLOAD PUSH1 0x1F NOT DUP2 DUP5 SUB ADD DUP2 MSTORE SWAP1 DUP3 SWAP1 MSTORE PUSH3 0x461BCD PUSH1 0xE5 SHL DUP3 MSTORE PUSH2 0x8B6 SWAP2 PUSH1 0x4 ADD PUSH2 0x42B2 JUMP JUMPDEST PUSH2 0x24B3 DUP3 DUP3 PUSH2 0xE68 JUMP JUMPDEST PUSH2 0xAF3 JUMPI PUSH1 0x0 DUP3 DUP2 MSTORE PUSH1 0x6 PUSH1 0x20 SWAP1 DUP2 MSTORE PUSH1 0x40 DUP1 DUP4 KECCAK256 PUSH1 0x1 PUSH1 0x1 PUSH1 0xA0 SHL SUB DUP6 AND DUP5 MSTORE SWAP1 SWAP2 MSTORE SWAP1 KECCAK256 DUP1 SLOAD PUSH1 0xFF NOT AND PUSH1 0x1 OR SWAP1 SSTORE PUSH2 0x24EB CALLER SWAP1 JUMP JUMPDEST PUSH1 0x1 PUSH1 0x1 PUSH1 0xA0 SHL SUB AND DUP2 PUSH1 0x1 PUSH1 0x1 PUSH1 0xA0 SHL SUB AND DUP4 PUSH32 0x2F8788117E7EFF1D82E926EC794901D17C78024A50270940304540A733656F0D PUSH1 0x40 MLOAD PUSH1 0x40 MLOAD DUP1 SWAP2 SUB SWAP1 LOG4 POP POP JUMP JUMPDEST PUSH1 0x0 PUSH2 0xE61 DUP4 PUSH1 0x1 PUSH1 0x1 PUSH1 0xA0 SHL SUB DUP5 AND PUSH2 0x32C4 JUMP JUMPDEST PUSH2 0x254E DUP3 DUP3 PUSH2 0xE68 JUMP JUMPDEST ISZERO PUSH2 0xAF3 JUMPI PUSH1 0x0 DUP3 DUP2 MSTORE PUSH1 0x6 PUSH1 0x20 SWAP1 DUP2 MSTORE PUSH1 0x40 DUP1 DUP4 KECCAK256 PUSH1 0x1 PUSH1 0x1 PUSH1 0xA0 SHL SUB DUP6 AND DUP1 DUP6 MSTORE SWAP3 MSTORE DUP1 DUP4 KECCAK256 DUP1 SLOAD PUSH1 0xFF NOT AND SWAP1 SSTORE MLOAD CALLER SWAP3 DUP6 SWAP2 PUSH32 0xF6391F5C32D9C69D2A47EA670B442974B53935D1EDC7FD64EB21E047A839171B SWAP2 SWAP1 LOG4 POP POP JUMP JUMPDEST PUSH1 0x0 PUSH2 0xE61 DUP4 PUSH1 0x1 PUSH1 0x1 PUSH1 0xA0 SHL SUB DUP5 AND PUSH2 0x3313 JUMP JUMPDEST PUSH2 0x25C9 CALLER PUSH2 0xFA5 JUMP JUMPDEST PUSH2 0x25E5 JUMPI PUSH1 0x40 MLOAD PUSH3 0x461BCD PUSH1 0xE5 SHL DUP2 MSTORE PUSH1 0x4 ADD PUSH2 0x8B6 SWAP1 PUSH2 0x4B24 JUMP JUMPDEST PUSH2 0xA48 DUP6 DUP6 DUP6 DUP6 DUP6 PUSH2 0x3406 JUMP JUMPDEST PUSH2 0x25FA PUSH2 0xCC7 JUMP JUMPDEST PUSH2 0x263D JUMPI PUSH1 0x40 MLOAD PUSH3 0x461BCD PUSH1 0xE5 SHL DUP2 MSTORE PUSH1 0x20 PUSH1 0x4 DUP3 ADD MSTORE PUSH1 0x14 PUSH1 0x24 DUP3 ADD MSTORE PUSH20 0x14185D5CD8589B194E881B9BDD081C185D5CD959 PUSH1 0x62 SHL PUSH1 0x44 DUP3 ADD MSTORE PUSH1 0x64 ADD PUSH2 0x8B6 JUMP JUMPDEST PUSH1 0x8 DUP1 SLOAD PUSH1 0xFF NOT AND SWAP1 SSTORE PUSH32 0x5DB9EE0A495BF2E6FF9C91A7834C1BA4FDD244A5E8AA4E537BD38AEAE4B073AA CALLER JUMPDEST PUSH1 0x40 MLOAD PUSH1 0x1 PUSH1 0x1 PUSH1 0xA0 SHL SUB SWAP1 SWAP2 AND DUP2 MSTORE PUSH1 0x20 ADD PUSH1 0x40 MLOAD DUP1 SWAP2 SUB SWAP1 LOG1 JUMP JUMPDEST PUSH2 0x2690 CALLER PUSH2 0xFA5 JUMP JUMPDEST PUSH2 0x26AC JUMPI PUSH1 0x40 MLOAD PUSH3 0x461BCD PUSH1 0xE5 SHL DUP2 MSTORE PUSH1 0x4 ADD PUSH2 0x8B6 SWAP1 PUSH2 0x4B24 JUMP JUMPDEST PUSH2 0xA48 DUP6 DUP6 DUP6 DUP6 DUP6 PUSH2 0x3597 JUMP JUMPDEST PUSH1 0x0 PUSH1 0x1 PUSH1 0x1 PUSH1 0xA0 SHL SUB DUP3 AND PUSH2 0x271C JUMPI PUSH1 0x40 MLOAD PUSH3 0x461BCD PUSH1 0xE5 SHL DUP2 MSTORE PUSH1 0x20 PUSH1 0x4 DUP3 ADD MSTORE PUSH1 0x22 PUSH1 0x24 DUP3 ADD MSTORE PUSH32 0x526F6C65733A206163636F756E7420697320746865207A65726F206164647265 PUSH1 0x44 DUP3 ADD MSTORE PUSH2 0x7373 PUSH1 0xF0 SHL PUSH1 0x64 DUP3 ADD MSTORE PUSH1 0x84 ADD PUSH2 0x8B6 JUMP JUMPDEST POP PUSH1 0x1 PUSH1 0x1 PUSH1 0xA0 SHL SUB AND PUSH1 0x0 SWAP1 DUP2 MSTORE PUSH1 0x20 SWAP2 SWAP1 SWAP2 MSTORE PUSH1 0x40 SWAP1 KECCAK256 SLOAD PUSH1 0xFF AND SWAP1 JUMP JUMPDEST PUSH1 0xA PUSH2 0xAF3 DUP3 DUP3 PUSH2 0x4CB6 JUMP JUMPDEST PUSH1 0x1 PUSH1 0x1 PUSH1 0xA0 SHL SUB DUP4 AND PUSH2 0x276E JUMPI PUSH1 0x40 MLOAD PUSH3 0x461BCD PUSH1 0xE5 SHL DUP2 MSTORE PUSH1 0x4 ADD PUSH2 0x8B6 SWAP1 PUSH2 0x4F8E JUMP JUMPDEST DUP1 MLOAD DUP3 MLOAD EQ PUSH2 0x278F JUMPI PUSH1 0x40 MLOAD PUSH3 0x461BCD PUSH1 0xE5 SHL DUP2 MSTORE PUSH1 0x4 ADD PUSH2 0x8B6 SWAP1 PUSH2 0x4DFC JUMP JUMPDEST PUSH1 0x0 CALLER SWAP1 POP PUSH2 0x27B2 DUP2 DUP6 PUSH1 0x0 DUP7 DUP7 PUSH1 0x40 MLOAD DUP1 PUSH1 0x20 ADD PUSH1 0x40 MSTORE DUP1 PUSH1 0x0 DUP2 MSTORE POP PUSH2 0x2398 JUMP JUMPDEST PUSH1 0x0 JUMPDEST DUP4 MLOAD DUP2 LT ISZERO PUSH2 0x2877 JUMPI PUSH1 0x0 DUP5 DUP3 DUP2 MLOAD DUP2 LT PUSH2 0x27D2 JUMPI PUSH2 0x27D2 PUSH2 0x4AA8 JUMP JUMPDEST PUSH1 0x20 MUL PUSH1 0x20 ADD ADD MLOAD SWAP1 POP PUSH1 0x0 DUP5 DUP4 DUP2 MLOAD DUP2 LT PUSH2 0x27F0 JUMPI PUSH2 0x27F0 PUSH2 0x4AA8 JUMP JUMPDEST PUSH1 0x20 SWAP1 DUP2 MUL SWAP2 SWAP1 SWAP2 ADD DUP2 ADD MLOAD PUSH1 0x0 DUP5 DUP2 MSTORE DUP1 DUP4 MSTORE PUSH1 0x40 DUP1 DUP3 KECCAK256 PUSH1 0x1 PUSH1 0x1 PUSH1 0xA0 SHL SUB DUP13 AND DUP4 MSTORE SWAP1 SWAP4 MSTORE SWAP2 SWAP1 SWAP2 KECCAK256 SLOAD SWAP1 SWAP2 POP DUP2 DUP2 LT ISZERO PUSH2 0x2840 JUMPI PUSH1 0x40 MLOAD PUSH3 0x461BCD PUSH1 0xE5 SHL DUP2 MSTORE PUSH1 0x4 ADD PUSH2 0x8B6 SWAP1 PUSH2 0x4FCF JUMP JUMPDEST PUSH1 0x0 SWAP3 DUP4 MSTORE PUSH1 0x20 DUP4 DUP2 MSTORE PUSH1 0x40 DUP1 DUP6 KECCAK256 PUSH1 0x1 PUSH1 0x1 PUSH1 0xA0 SHL SUB DUP12 AND DUP7 MSTORE SWAP1 SWAP2 MSTORE SWAP1 SWAP3 KECCAK256 SWAP2 SUB SWAP1 SSTORE DUP1 PUSH2 0x286F DUP2 PUSH2 0x4AD4 JUMP JUMPDEST SWAP2 POP POP PUSH2 0x27B5 JUMP JUMPDEST POP PUSH1 0x0 PUSH1 0x1 PUSH1 0x1 PUSH1 0xA0 SHL SUB AND DUP5 PUSH1 0x1 PUSH1 0x1 PUSH1 0xA0 SHL SUB AND DUP3 PUSH1 0x1 PUSH1 0x1 PUSH1 0xA0 SHL SUB AND PUSH32 0x4A39DC06D4C0DBC64B70AF90FD698A233A518AA5D07E595D983B8C0526C8F7FB DUP7 DUP7 PUSH1 0x40 MLOAD PUSH2 0x28C8 SWAP3 SWAP2 SWAP1 PUSH2 0x48D9 JUMP JUMPDEST PUSH1 0x40 MLOAD DUP1 SWAP2 SUB SWAP1 LOG4 PUSH1 0x40 DUP1 MLOAD PUSH1 0x20 DUP2 ADD SWAP1 SWAP2 MSTORE PUSH1 0x0 SWAP1 MSTORE PUSH2 0x10D2 JUMP JUMPDEST PUSH2 0x28EE DUP3 DUP3 PUSH2 0x26B9 JUMP JUMPDEST PUSH2 0x2944 JUMPI PUSH1 0x40 MLOAD PUSH3 0x461BCD PUSH1 0xE5 SHL DUP2 MSTORE PUSH1 0x20 PUSH1 0x4 DUP3 ADD MSTORE PUSH1 0x21 PUSH1 0x24 DUP3 ADD MSTORE PUSH32 0x526F6C65733A206163636F756E7420646F6573206E6F74206861766520726F6C PUSH1 0x44 DUP3 ADD MSTORE PUSH1 0x65 PUSH1 0xF8 SHL PUSH1 0x64 DUP3 ADD MSTORE PUSH1 0x84 ADD PUSH2 0x8B6 JUMP JUMPDEST PUSH1 0x1 PUSH1 0x1 PUSH1 0xA0 SHL SUB AND PUSH1 0x0 SWAP1 DUP2 MSTORE PUSH1 0x20 SWAP2 SWAP1 SWAP2 MSTORE PUSH1 0x40 SWAP1 KECCAK256 DUP1 SLOAD PUSH1 0xFF NOT AND SWAP1 SSTORE JUMP JUMPDEST PUSH2 0x2970 DUP3 DUP3 PUSH2 0x26B9 JUMP JUMPDEST ISZERO PUSH2 0x29BD JUMPI PUSH1 0x40 MLOAD PUSH3 0x461BCD PUSH1 0xE5 SHL DUP2 MSTORE PUSH1 0x20 PUSH1 0x4 DUP3 ADD MSTORE PUSH1 0x1F PUSH1 0x24 DUP3 ADD MSTORE PUSH32 0x526F6C65733A206163636F756E7420616C72656164792068617320726F6C6500 PUSH1 0x44 DUP3 ADD MSTORE PUSH1 0x64 ADD PUSH2 0x8B6 JUMP JUMPDEST PUSH1 0x1 PUSH1 0x1 PUSH1 0xA0 SHL SUB AND PUSH1 0x0 SWAP1 DUP2 MSTORE PUSH1 0x20 SWAP2 SWAP1 SWAP2 MSTORE PUSH1 0x40 SWAP1 KECCAK256 DUP1 SLOAD PUSH1 0xFF NOT AND PUSH1 0x1 OR SWAP1 SSTORE JUMP JUMPDEST PUSH1 0x40 DUP1 MLOAD PUSH1 0x1 DUP1 DUP3 MSTORE DUP2 DUP4 ADD SWAP1 SWAP3 MSTORE PUSH1 0x60 SWAP2 PUSH1 0x0 SWAP2 SWAP1 PUSH1 0x20 DUP1 DUP4 ADD SWAP1 DUP1 CALLDATASIZE DUP4 CALLDATACOPY ADD SWAP1 POP POP SWAP1 POP DUP3 DUP2 PUSH1 0x0 DUP2 MLOAD DUP2 LT PUSH2 0x2A1C JUMPI PUSH2 0x2A1C PUSH2 0x4AA8 JUMP JUMPDEST PUSH1 0x20 SWAP1 DUP2 MUL SWAP2 SWAP1 SWAP2 ADD ADD MSTORE SWAP3 SWAP2 POP POP JUMP JUMPDEST PUSH2 0x2A3B DUP7 DUP7 DUP7 DUP7 DUP7 DUP7 PUSH2 0x3853 JUMP JUMPDEST DUP1 PUSH2 0x23C8 JUMPI POP PUSH2 0x23C8 DUP7 DUP7 DUP7 DUP7 DUP7 DUP7 PUSH2 0x391C JUMP JUMPDEST PUSH2 0x2A57 PUSH2 0xCC7 JUMP JUMPDEST ISZERO PUSH2 0x2A97 JUMPI PUSH1 0x40 MLOAD PUSH3 0x461BCD PUSH1 0xE5 SHL DUP2 MSTORE PUSH1 0x20 PUSH1 0x4 DUP3 ADD MSTORE PUSH1 0x10 PUSH1 0x24 DUP3 ADD MSTORE PUSH16 0x14185D5CD8589B194E881C185D5CD959 PUSH1 0x82 SHL PUSH1 0x44 DUP3 ADD MSTORE PUSH1 0x64 ADD PUSH2 0x8B6 JUMP JUMPDEST PUSH1 0x8 DUP1 SLOAD PUSH1 0xFF NOT AND PUSH1 0x1 OR SWAP1 SSTORE PUSH32 0x62E78CEA01BEE320CD4E420270B5EA74000D11B0C9F74754EBDBFC544B05A258 PUSH2 0x266A CALLER SWAP1 JUMP JUMPDEST PUSH1 0x0 DUP3 DUP2 MSTORE PUSH1 0xB PUSH1 0x20 MSTORE PUSH1 0x40 SWAP1 KECCAK256 PUSH2 0x2AE4 DUP3 DUP3 PUSH2 0x4CB6 JUMP JUMPDEST POP DUP2 PUSH32 0x6BB7FF708619BA0610CBA295A58592E0451DEE2622938C8755667688DAF3529B PUSH2 0x2B10 DUP5 PUSH2 0x9A3 JUMP JUMPDEST PUSH1 0x40 MLOAD PUSH2 0x2B1D SWAP2 SWAP1 PUSH2 0x42B2 JUMP JUMPDEST PUSH1 0x40 MLOAD DUP1 SWAP2 SUB SWAP1 LOG2 POP POP JUMP JUMPDEST PUSH1 0x0 DUP3 PUSH1 0x0 ADD DUP3 DUP2 SLOAD DUP2 LT PUSH2 0x2B40 JUMPI PUSH2 0x2B40 PUSH2 0x4AA8 JUMP JUMPDEST SWAP1 PUSH1 0x0 MSTORE PUSH1 0x20 PUSH1 0x0 KECCAK256 ADD SLOAD SWAP1 POP SWAP3 SWAP2 POP POP JUMP JUMPDEST PUSH2 0x2B5C CALLER PUSH2 0xFA5 JUMP JUMPDEST PUSH2 0x2B78 JUMPI PUSH1 0x40 MLOAD PUSH3 0x461BCD PUSH1 0xE5 SHL DUP2 MSTORE PUSH1 0x4 ADD PUSH2 0x8B6 SWAP1 PUSH2 0x4B24 JUMP JUMPDEST PUSH2 0xA48 DUP6 DUP6 DUP6 DUP6 DUP6 PUSH2 0x39E5 JUMP JUMPDEST PUSH1 0x1 PUSH1 0x1 PUSH1 0xA0 SHL SUB DUP5 AND PUSH2 0x2BDB JUMPI PUSH1 0x40 MLOAD PUSH3 0x461BCD PUSH1 0xE5 SHL DUP2 MSTORE PUSH1 0x20 PUSH1 0x4 DUP3 ADD MSTORE PUSH1 0x1F PUSH1 0x24 DUP3 ADD MSTORE PUSH32 0x4B495033373A206D696E7420746F20746865207A65726F206164647265737300 PUSH1 0x44 DUP3 ADD MSTORE PUSH1 0x64 ADD PUSH2 0x8B6 JUMP JUMPDEST DUP2 MLOAD DUP4 MLOAD EQ PUSH2 0x2BFC JUMPI PUSH1 0x40 MLOAD PUSH3 0x461BCD PUSH1 0xE5 SHL DUP2 MSTORE PUSH1 0x4 ADD PUSH2 0x8B6 SWAP1 PUSH2 0x4DFC JUMP JUMPDEST CALLER PUSH2 0x2C0C DUP2 PUSH1 0x0 DUP8 DUP8 DUP8 DUP8 PUSH2 0x2398 JUMP JUMPDEST PUSH1 0x0 JUMPDEST DUP5 MLOAD DUP2 LT ISZERO PUSH2 0x2CA7 JUMPI DUP4 DUP2 DUP2 MLOAD DUP2 LT PUSH2 0x2C2A JUMPI PUSH2 0x2C2A PUSH2 0x4AA8 JUMP JUMPDEST PUSH1 0x20 MUL PUSH1 0x20 ADD ADD MLOAD PUSH1 0x0 DUP1 DUP8 DUP5 DUP2 MLOAD DUP2 LT PUSH2 0x2C47 JUMPI PUSH2 0x2C47 PUSH2 0x4AA8 JUMP JUMPDEST PUSH1 0x20 MUL PUSH1 0x20 ADD ADD MLOAD DUP2 MSTORE PUSH1 0x20 ADD SWAP1 DUP2 MSTORE PUSH1 0x20 ADD PUSH1 0x0 KECCAK256 PUSH1 0x0 DUP9 PUSH1 0x1 PUSH1 0x1 PUSH1 0xA0 SHL SUB AND PUSH1 0x1 PUSH1 0x1 PUSH1 0xA0 SHL SUB AND DUP2 MSTORE PUSH1 0x20 ADD SWAP1 DUP2 MSTORE PUSH1 0x20 ADD PUSH1 0x0 KECCAK256 PUSH1 0x0 DUP3 DUP3 SLOAD PUSH2 0x2C8F SWAP2 SWAP1 PUSH2 0x4ECD JUMP JUMPDEST SWAP1 SWAP2 SSTORE POP DUP2 SWAP1 POP PUSH2 0x2C9F DUP2 PUSH2 0x4AD4 JUMP JUMPDEST SWAP2 POP POP PUSH2 0x2C0F JUMP JUMPDEST POP DUP5 PUSH1 0x1 PUSH1 0x1 PUSH1 0xA0 SHL SUB AND PUSH1 0x0 PUSH1 0x1 PUSH1 0x1 PUSH1 0xA0 SHL SUB AND DUP3 PUSH1 0x1 PUSH1 0x1 PUSH1 0xA0 SHL SUB AND PUSH32 0x4A39DC06D4C0DBC64B70AF90FD698A233A518AA5D07E595D983B8C0526C8F7FB DUP8 DUP8 PUSH1 0x40 MLOAD PUSH2 0x2CF8 SWAP3 SWAP2 SWAP1 PUSH2 0x48D9 JUMP JUMPDEST PUSH1 0x40 MLOAD DUP1 SWAP2 SUB SWAP1 LOG4 PUSH2 0xA48 DUP2 PUSH1 0x0 DUP8 DUP8 DUP8 DUP8 PUSH2 0x23A6 JUMP JUMPDEST PUSH2 0x2D18 CALLER PUSH2 0xFA5 JUMP JUMPDEST PUSH2 0x2D34 JUMPI PUSH1 0x40 MLOAD PUSH3 0x461BCD PUSH1 0xE5 SHL DUP2 MSTORE PUSH1 0x4 ADD PUSH2 0x8B6 SWAP1 PUSH2 0x4B24 JUMP JUMPDEST PUSH2 0xA48 DUP6 DUP6 DUP6 DUP6 DUP6 PUSH2 0x3B76 JUMP JUMPDEST PUSH1 0x1 PUSH1 0x1 PUSH1 0xA0 SHL SUB DUP4 AND PUSH2 0x2D67 JUMPI PUSH1 0x40 MLOAD PUSH3 0x461BCD PUSH1 0xE5 SHL DUP2 MSTORE PUSH1 0x4 ADD PUSH2 0x8B6 SWAP1 PUSH2 0x4F8E JUMP JUMPDEST CALLER PUSH1 0x0 PUSH2 0x2D73 DUP5 PUSH2 0x29E2 JUMP JUMPDEST SWAP1 POP PUSH1 0x0 PUSH2 0x2D80 DUP5 PUSH2 0x29E2 JUMP JUMPDEST SWAP1 POP PUSH2 0x2DA0 DUP4 DUP8 PUSH1 0x0 DUP6 DUP6 PUSH1 0x40 MLOAD DUP1 PUSH1 0x20 ADD PUSH1 0x40 MSTORE DUP1 PUSH1 0x0 DUP2 MSTORE POP PUSH2 0x2398 JUMP JUMPDEST PUSH1 0x0 DUP6 DUP2 MSTORE PUSH1 0x20 DUP2 DUP2 MSTORE PUSH1 0x40 DUP1 DUP4 KECCAK256 PUSH1 0x1 PUSH1 0x1 PUSH1 0xA0 SHL SUB DUP11 AND DUP5 MSTORE SWAP1 SWAP2 MSTORE SWAP1 KECCAK256 SLOAD DUP5 DUP2 LT ISZERO PUSH2 0x2DE1 JUMPI PUSH1 0x40 MLOAD PUSH3 0x461BCD PUSH1 0xE5 SHL DUP2 MSTORE PUSH1 0x4 ADD PUSH2 0x8B6 SWAP1 PUSH2 0x4FCF JUMP JUMPDEST PUSH1 0x0 DUP7 DUP2 MSTORE PUSH1 0x20 DUP2 DUP2 MSTORE PUSH1 0x40 DUP1 DUP4 KECCAK256 PUSH1 0x1 PUSH1 0x1 PUSH1 0xA0 SHL SUB DUP12 DUP2 AND DUP1 DUP7 MSTORE SWAP2 DUP5 MSTORE DUP3 DUP6 KECCAK256 DUP11 DUP8 SUB SWAP1 SSTORE DUP3 MLOAD DUP12 DUP2 MSTORE SWAP4 DUP5 ADD DUP11 SWAP1 MSTORE SWAP1 SWAP3 SWAP1 DUP9 AND SWAP2 PUSH32 0xC3D58168C5AE7397731D063D5BBF3D657854427343F4C083240F7AACAA2D0F62 SWAP2 ADD PUSH1 0x40 MLOAD DUP1 SWAP2 SUB SWAP1 LOG4 PUSH1 0x40 DUP1 MLOAD PUSH1 0x20 DUP2 ADD SWAP1 SWAP2 MSTORE PUSH1 0x0 SWAP1 MSTORE PUSH2 0x1B9A JUMP JUMPDEST PUSH1 0x0 DUP1 MLOAD PUSH1 0x20 PUSH2 0x5255 DUP4 CODECOPY DUP2 MLOAD SWAP2 MSTORE PUSH2 0x2E71 DUP2 PUSH2 0x17EE JUMP JUMPDEST PUSH1 0x0 DUP3 DUP2 MSTORE PUSH1 0x9 PUSH1 0x20 MSTORE PUSH1 0x40 SWAP1 KECCAK256 SLOAD PUSH1 0xFF AND ISZERO ISZERO PUSH1 0x1 EQ PUSH2 0x2EE2 JUMPI PUSH1 0x40 MLOAD PUSH3 0x461BCD PUSH1 0xE5 SHL DUP2 MSTORE PUSH1 0x20 PUSH1 0x4 DUP3 ADD MSTORE PUSH1 0x25 PUSH1 0x24 DUP3 ADD MSTORE PUSH32 0x4B495033375061757361626C653A20746F6B656E20616C726561647920756E70 PUSH1 0x44 DUP3 ADD MSTORE PUSH5 0x185D5CD959 PUSH1 0xDA SHL PUSH1 0x64 DUP3 ADD MSTORE PUSH1 0x84 ADD PUSH2 0x8B6 JUMP JUMPDEST PUSH1 0x0 DUP3 DUP2 MSTORE PUSH1 0x9 PUSH1 0x20 MSTORE PUSH1 0x40 SWAP1 KECCAK256 DUP1 SLOAD PUSH1 0xFF NOT AND SWAP1 SSTORE PUSH32 0x9DB9E80F56A6219278C09B5683F265BE968540B2E4D3C07303262FF72916AD78 CALLER PUSH2 0x2373 JUMP JUMPDEST PUSH1 0x1 PUSH1 0x1 PUSH1 0xE0 SHL SUB NOT AND PUSH4 0x1FFC9A7 PUSH1 0xE0 SHL EQ SWAP1 JUMP JUMPDEST PUSH1 0x0 PUSH1 0x1 PUSH1 0x1 PUSH1 0xE0 SHL SUB NOT DUP3 AND PUSH4 0x7965DB0B PUSH1 0xE0 SHL EQ DUP1 PUSH2 0x8E2 JUMPI POP PUSH2 0x8E2 DUP3 PUSH2 0x2F1F JUMP JUMPDEST PUSH2 0x17E6 DUP7 DUP7 DUP7 DUP7 DUP7 DUP7 PUSH2 0x3E32 JUMP JUMPDEST PUSH1 0x0 PUSH1 0x1 PUSH1 0x1 PUSH1 0xA0 SHL SUB DUP6 AND EXTCODESIZE ISZERO PUSH2 0x3052 JUMPI PUSH1 0x40 MLOAD PUSH4 0x4DA4F199 PUSH1 0xE1 SHL DUP2 MSTORE PUSH1 0x1 PUSH1 0x1 PUSH1 0xA0 SHL SUB DUP7 AND SWAP1 PUSH4 0x9B49E332 SWAP1 PUSH2 0x2FAE SWAP1 DUP11 SWAP1 DUP11 SWAP1 DUP10 SWAP1 DUP10 SWAP1 DUP10 SWAP1 PUSH1 0x4 ADD PUSH2 0x5011 JUMP JUMPDEST PUSH1 0x20 PUSH1 0x40 MLOAD DUP1 DUP4 SUB DUP2 PUSH1 0x0 DUP8 GAS CALL SWAP3 POP POP POP DUP1 ISZERO PUSH2 0x2FE9 JUMPI POP PUSH1 0x40 DUP1 MLOAD PUSH1 0x1F RETURNDATASIZE SWAP1 DUP2 ADD PUSH1 0x1F NOT AND DUP3 ADD SWAP1 SWAP3 MSTORE PUSH2 0x2FE6 SWAP2 DUP2 ADD SWAP1 PUSH2 0x506F JUMP JUMPDEST PUSH1 0x1 JUMPDEST PUSH2 0x3038 JUMPI RETURNDATASIZE DUP1 DUP1 ISZERO PUSH2 0x3017 JUMPI PUSH1 0x40 MLOAD SWAP2 POP PUSH1 0x1F NOT PUSH1 0x3F RETURNDATASIZE ADD AND DUP3 ADD PUSH1 0x40 MSTORE RETURNDATASIZE DUP3 MSTORE RETURNDATASIZE PUSH1 0x0 PUSH1 0x20 DUP5 ADD RETURNDATACOPY PUSH2 0x301C JUMP JUMPDEST PUSH1 0x60 SWAP2 POP JUMPDEST POP DUP1 MLOAD PUSH1 0x0 SUB PUSH2 0x3030 JUMPI PUSH1 0x0 SWAP2 POP POP PUSH2 0x3056 JUMP JUMPDEST DUP1 MLOAD DUP2 PUSH1 0x20 ADD REVERT JUMPDEST PUSH1 0x1 PUSH1 0x1 PUSH1 0xE0 SHL SUB NOT AND PUSH4 0x4DA4F199 PUSH1 0xE1 SHL EQ SWAP1 POP PUSH2 0x3056 JUMP JUMPDEST POP PUSH1 0x1 JUMPDEST SWAP7 SWAP6 POP POP POP POP POP POP JUMP JUMPDEST PUSH1 0x0 PUSH1 0x1 PUSH1 0x1 PUSH1 0xA0 SHL SUB DUP6 AND EXTCODESIZE ISZERO PUSH2 0x3052 JUMPI PUSH1 0x40 MLOAD PUSH4 0xBC197C81 PUSH1 0xE0 SHL DUP2 MSTORE PUSH1 0x1 PUSH1 0x1 PUSH1 0xA0 SHL SUB DUP7 AND SWAP1 PUSH4 0xBC197C81 SWAP1 PUSH2 0x30A6 SWAP1 DUP11 SWAP1 DUP11 SWAP1 DUP10 SWAP1 DUP10 SWAP1 DUP10 SWAP1 PUSH1 0x4 ADD PUSH2 0x5011 JUMP JUMPDEST PUSH1 0x20 PUSH1 0x40 MLOAD DUP1 DUP4 SUB DUP2 PUSH1 0x0 DUP8 GAS CALL SWAP3 POP POP POP DUP1 ISZERO PUSH2 0x30E1 JUMPI POP PUSH1 0x40 DUP1 MLOAD PUSH1 0x1F RETURNDATASIZE SWAP1 DUP2 ADD PUSH1 0x1F NOT AND DUP3 ADD SWAP1 SWAP3 MSTORE PUSH2 0x30DE SWAP2 DUP2 ADD SWAP1 PUSH2 0x506F JUMP JUMPDEST PUSH1 0x1 JUMPDEST PUSH2 0x310F JUMPI RETURNDATASIZE DUP1 DUP1 ISZERO PUSH2 0x3017 JUMPI PUSH1 0x40 MLOAD SWAP2 POP PUSH1 0x1F NOT PUSH1 0x3F RETURNDATASIZE ADD AND DUP3 ADD PUSH1 0x40 MSTORE RETURNDATASIZE DUP3 MSTORE RETURNDATASIZE PUSH1 0x0 PUSH1 0x20 DUP5 ADD RETURNDATACOPY PUSH2 0x301C JUMP JUMPDEST PUSH1 0x1 PUSH1 0x1 PUSH1 0xE0 SHL SUB NOT AND PUSH4 0xBC197C81 PUSH1 0xE0 SHL EQ SWAP1 POP PUSH2 0x3056 JUMP JUMPDEST PUSH1 0x60 PUSH1 0x0 PUSH2 0x3138 DUP4 PUSH1 0x2 PUSH2 0x4F02 JUMP JUMPDEST PUSH2 0x3143 SWAP1 PUSH1 0x2 PUSH2 0x4ECD JUMP JUMPDEST PUSH1 0x1 PUSH1 0x1 PUSH1 0x40 SHL SUB DUP2 GT ISZERO PUSH2 0x315A JUMPI PUSH2 0x315A PUSH2 0x42C5 JUMP JUMPDEST PUSH1 0x40 MLOAD SWAP1 DUP1 DUP3 MSTORE DUP1 PUSH1 0x1F ADD PUSH1 0x1F NOT AND PUSH1 0x20 ADD DUP3 ADD PUSH1 0x40 MSTORE DUP1 ISZERO PUSH2 0x3184 JUMPI PUSH1 0x20 DUP3 ADD DUP2 DUP1 CALLDATASIZE DUP4 CALLDATACOPY ADD SWAP1 POP JUMPDEST POP SWAP1 POP PUSH1 0x3 PUSH1 0xFC SHL DUP2 PUSH1 0x0 DUP2 MLOAD DUP2 LT PUSH2 0x319F JUMPI PUSH2 0x319F PUSH2 0x4AA8 JUMP JUMPDEST PUSH1 0x20 ADD ADD SWAP1 PUSH1 0x1 PUSH1 0x1 PUSH1 0xF8 SHL SUB NOT AND SWAP1 DUP2 PUSH1 0x0 BYTE SWAP1 MSTORE8 POP PUSH1 0xF PUSH1 0xFB SHL DUP2 PUSH1 0x1 DUP2 MLOAD DUP2 LT PUSH2 0x31CE JUMPI PUSH2 0x31CE PUSH2 0x4AA8 JUMP JUMPDEST PUSH1 0x20 ADD ADD SWAP1 PUSH1 0x1 PUSH1 0x1 PUSH1 0xF8 SHL SUB NOT AND SWAP1 DUP2 PUSH1 0x0 BYTE SWAP1 MSTORE8 POP PUSH1 0x0 PUSH2 0x31F2 DUP5 PUSH1 0x2 PUSH2 0x4F02 JUMP JUMPDEST PUSH2 0x31FD SWAP1 PUSH1 0x1 PUSH2 0x4ECD JUMP JUMPDEST SWAP1 POP JUMPDEST PUSH1 0x1 DUP2 GT ISZERO PUSH2 0x3275 JUMPI PUSH16 0x181899199A1A9B1B9C1CB0B131B232B3 PUSH1 0x81 SHL DUP6 PUSH1 0xF AND PUSH1 0x10 DUP2 LT PUSH2 0x3231 JUMPI PUSH2 0x3231 PUSH2 0x4AA8 JUMP JUMPDEST BYTE PUSH1 0xF8 SHL DUP3 DUP3 DUP2 MLOAD DUP2 LT PUSH2 0x3247 JUMPI PUSH2 0x3247 PUSH2 0x4AA8 JUMP JUMPDEST PUSH1 0x20 ADD ADD SWAP1 PUSH1 0x1 PUSH1 0x1 PUSH1 0xF8 SHL SUB NOT AND SWAP1 DUP2 PUSH1 0x0 BYTE SWAP1 MSTORE8 POP PUSH1 0x4 SWAP5 SWAP1 SWAP5 SHR SWAP4 PUSH2 0x326E DUP2 PUSH2 0x508C JUMP JUMPDEST SWAP1 POP PUSH2 0x3200 JUMP JUMPDEST POP DUP4 ISZERO PUSH2 0xE61 JUMPI PUSH1 0x40 MLOAD PUSH3 0x461BCD PUSH1 0xE5 SHL DUP2 MSTORE PUSH1 0x20 PUSH1 0x4 DUP3 ADD DUP2 SWAP1 MSTORE PUSH1 0x24 DUP3 ADD MSTORE PUSH32 0x537472696E67733A20686578206C656E67746820696E73756666696369656E74 PUSH1 0x44 DUP3 ADD MSTORE PUSH1 0x64 ADD PUSH2 0x8B6 JUMP JUMPDEST PUSH1 0x0 DUP2 DUP2 MSTORE PUSH1 0x1 DUP4 ADD PUSH1 0x20 MSTORE PUSH1 0x40 DUP2 KECCAK256 SLOAD PUSH2 0x330B JUMPI POP DUP2 SLOAD PUSH1 0x1 DUP2 DUP2 ADD DUP5 SSTORE PUSH1 0x0 DUP5 DUP2 MSTORE PUSH1 0x20 DUP1 DUP3 KECCAK256 SWAP1 SWAP4 ADD DUP5 SWAP1 SSTORE DUP5 SLOAD DUP5 DUP3 MSTORE DUP3 DUP7 ADD SWAP1 SWAP4 MSTORE PUSH1 0x40 SWAP1 KECCAK256 SWAP2 SWAP1 SWAP2 SSTORE PUSH2 0x8E2 JUMP JUMPDEST POP PUSH1 0x0 PUSH2 0x8E2 JUMP JUMPDEST PUSH1 0x0 DUP2 DUP2 MSTORE PUSH1 0x1 DUP4 ADD PUSH1 0x20 MSTORE PUSH1 0x40 DUP2 KECCAK256 SLOAD DUP1 ISZERO PUSH2 0x33FC JUMPI PUSH1 0x0 PUSH2 0x3337 PUSH1 0x1 DUP4 PUSH2 0x4BD1 JUMP JUMPDEST DUP6 SLOAD SWAP1 SWAP2 POP PUSH1 0x0 SWAP1 PUSH2 0x334B SWAP1 PUSH1 0x1 SWAP1 PUSH2 0x4BD1 JUMP JUMPDEST SWAP1 POP DUP2 DUP2 EQ PUSH2 0x33B0 JUMPI PUSH1 0x0 DUP7 PUSH1 0x0 ADD DUP3 DUP2 SLOAD DUP2 LT PUSH2 0x336B JUMPI PUSH2 0x336B PUSH2 0x4AA8 JUMP JUMPDEST SWAP1 PUSH1 0x0 MSTORE PUSH1 0x20 PUSH1 0x0 KECCAK256 ADD SLOAD SWAP1 POP DUP1 DUP8 PUSH1 0x0 ADD DUP5 DUP2 SLOAD DUP2 LT PUSH2 0x338E JUMPI PUSH2 0x338E PUSH2 0x4AA8 JUMP JUMPDEST PUSH1 0x0 SWAP2 DUP3 MSTORE PUSH1 0x20 DUP1 DUP4 KECCAK256 SWAP1 SWAP2 ADD SWAP3 SWAP1 SWAP3 SSTORE SWAP2 DUP3 MSTORE PUSH1 0x1 DUP9 ADD SWAP1 MSTORE PUSH1 0x40 SWAP1 KECCAK256 DUP4 SWAP1 SSTORE JUMPDEST DUP6 SLOAD DUP7 SWAP1 DUP1 PUSH2 0x33C1 JUMPI PUSH2 0x33C1 PUSH2 0x50A3 JUMP JUMPDEST PUSH1 0x1 SWAP1 SUB DUP2 DUP2 SWAP1 PUSH1 0x0 MSTORE PUSH1 0x20 PUSH1 0x0 KECCAK256 ADD PUSH1 0x0 SWAP1 SSTORE SWAP1 SSTORE DUP6 PUSH1 0x1 ADD PUSH1 0x0 DUP7 DUP2 MSTORE PUSH1 0x20 ADD SWAP1 DUP2 MSTORE PUSH1 0x20 ADD PUSH1 0x0 KECCAK256 PUSH1 0x0 SWAP1 SSTORE PUSH1 0x1 SWAP4 POP POP POP POP PUSH2 0x8E2 JUMP JUMPDEST PUSH1 0x0 SWAP2 POP POP PUSH2 0x8E2 JUMP JUMPDEST DUP3 DUP2 EQ PUSH2 0x3425 JUMPI PUSH1 0x40 MLOAD PUSH3 0x461BCD PUSH1 0xE5 SHL DUP2 MSTORE PUSH1 0x4 ADD PUSH2 0x8B6 SWAP1 PUSH2 0x50B9 JUMP JUMPDEST PUSH1 0x0 JUMPDEST DUP4 DUP2 LT ISZERO PUSH2 0x17E6 JUMPI DUP5 DUP5 DUP3 DUP2 DUP2 LT PUSH2 0x3442 JUMPI PUSH2 0x3442 PUSH2 0x4AA8 JUMP JUMPDEST SWAP1 POP PUSH1 0x20 MUL ADD CALLDATALOAD PUSH1 0x0 SUB PUSH2 0x3468 JUMPI PUSH1 0x40 MLOAD PUSH3 0x461BCD PUSH1 0xE5 SHL DUP2 MSTORE PUSH1 0x4 ADD PUSH2 0x8B6 SWAP1 PUSH2 0x50E8 JUMP JUMPDEST PUSH1 0x1 PUSH1 0x1 PUSH1 0xA0 SHL SUB DUP7 AND PUSH1 0x0 SWAP1 DUP2 MSTORE PUSH1 0x3 PUSH1 0x20 MSTORE PUSH1 0x40 DUP2 KECCAK256 SWAP1 DUP7 DUP7 DUP5 DUP2 DUP2 LT PUSH2 0x3493 JUMPI PUSH2 0x3493 PUSH2 0x4AA8 JUMP JUMPDEST SWAP1 POP PUSH1 0x20 MUL ADD CALLDATALOAD DUP2 MSTORE PUSH1 0x20 ADD SWAP1 DUP2 MSTORE PUSH1 0x20 ADD PUSH1 0x0 KECCAK256 SLOAD PUSH1 0x0 SUB PUSH2 0x34C8 JUMPI PUSH1 0x40 MLOAD PUSH3 0x461BCD PUSH1 0xE5 SHL DUP2 MSTORE PUSH1 0x4 ADD PUSH2 0x8B6 SWAP1 PUSH2 0x5112 JUMP JUMPDEST PUSH1 0x0 DUP4 DUP4 DUP4 DUP2 DUP2 LT PUSH2 0x34DC JUMPI PUSH2 0x34DC PUSH2 0x4AA8 JUMP JUMPDEST SWAP1 POP PUSH1 0x20 MUL ADD CALLDATALOAD PUSH1 0x3 PUSH1 0x0 DUP10 PUSH1 0x1 PUSH1 0x1 PUSH1 0xA0 SHL SUB AND PUSH1 0x1 PUSH1 0x1 PUSH1 0xA0 SHL SUB AND DUP2 MSTORE PUSH1 0x20 ADD SWAP1 DUP2 MSTORE PUSH1 0x20 ADD PUSH1 0x0 KECCAK256 PUSH1 0x0 DUP9 DUP9 DUP7 DUP2 DUP2 LT PUSH2 0x351C JUMPI PUSH2 0x351C PUSH2 0x4AA8 JUMP JUMPDEST SWAP1 POP PUSH1 0x20 MUL ADD CALLDATALOAD DUP2 MSTORE PUSH1 0x20 ADD SWAP1 DUP2 MSTORE PUSH1 0x20 ADD PUSH1 0x0 KECCAK256 SLOAD PUSH2 0x353C SWAP2 SWAP1 PUSH2 0x4BD1 JUMP JUMPDEST SWAP1 POP PUSH1 0x1 PUSH1 0x1 PUSH1 0xA0 SHL SUB DUP8 AND PUSH1 0x0 SWAP1 DUP2 MSTORE PUSH1 0x3 PUSH1 0x20 MSTORE PUSH1 0x40 DUP2 KECCAK256 DUP3 SWAP2 DUP9 DUP9 DUP7 DUP2 DUP2 LT PUSH2 0x356A JUMPI PUSH2 0x356A PUSH2 0x4AA8 JUMP JUMPDEST SWAP1 POP PUSH1 0x20 MUL ADD CALLDATALOAD DUP2 MSTORE PUSH1 0x20 ADD SWAP1 DUP2 MSTORE PUSH1 0x20 ADD PUSH1 0x0 KECCAK256 DUP2 SWAP1 SSTORE POP POP DUP1 DUP1 PUSH2 0x358F SWAP1 PUSH2 0x4AD4 JUMP JUMPDEST SWAP2 POP POP PUSH2 0x3428 JUMP JUMPDEST DUP3 DUP2 EQ PUSH2 0x35B6 JUMPI PUSH1 0x40 MLOAD PUSH3 0x461BCD PUSH1 0xE5 SHL DUP2 MSTORE PUSH1 0x4 ADD PUSH2 0x8B6 SWAP1 PUSH2 0x50B9 JUMP JUMPDEST PUSH1 0x0 JUMPDEST DUP4 DUP2 LT ISZERO PUSH2 0x17E6 JUMPI DUP5 DUP5 DUP3 DUP2 DUP2 LT PUSH2 0x35D3 JUMPI PUSH2 0x35D3 PUSH2 0x4AA8 JUMP JUMPDEST SWAP1 POP PUSH1 0x20 MUL ADD CALLDATALOAD PUSH1 0x0 SUB PUSH2 0x35F9 JUMPI PUSH1 0x40 MLOAD PUSH3 0x461BCD PUSH1 0xE5 SHL DUP2 MSTORE PUSH1 0x4 ADD PUSH2 0x8B6 SWAP1 PUSH2 0x50E8 JUMP JUMPDEST PUSH1 0x0 DUP1 PUSH1 0x0 DUP8 DUP8 DUP6 DUP2 DUP2 LT PUSH2 0x3610 JUMPI PUSH2 0x3610 PUSH2 0x4AA8 JUMP JUMPDEST SWAP1 POP PUSH1 0x20 MUL ADD CALLDATALOAD DUP2 MSTORE PUSH1 0x20 ADD SWAP1 DUP2 MSTORE PUSH1 0x20 ADD PUSH1 0x0 KECCAK256 PUSH1 0x0 DUP9 PUSH1 0x1 PUSH1 0x1 PUSH1 0xA0 SHL SUB AND PUSH1 0x1 PUSH1 0x1 PUSH1 0xA0 SHL SUB AND DUP2 MSTORE PUSH1 0x20 ADD SWAP1 DUP2 MSTORE PUSH1 0x20 ADD PUSH1 0x0 KECCAK256 SLOAD GT PUSH2 0x3666 JUMPI PUSH1 0x40 MLOAD PUSH3 0x461BCD PUSH1 0xE5 SHL DUP2 MSTORE PUSH1 0x4 ADD PUSH2 0x8B6 SWAP1 PUSH2 0x5112 JUMP JUMPDEST PUSH1 0x0 DUP1 PUSH1 0x0 DUP8 DUP8 DUP6 DUP2 DUP2 LT PUSH2 0x367D JUMPI PUSH2 0x367D PUSH2 0x4AA8 JUMP JUMPDEST PUSH1 0x20 SWAP1 DUP2 MUL SWAP3 SWAP1 SWAP3 ADD CALLDATALOAD DUP4 MSTORE POP DUP2 DUP2 ADD SWAP3 SWAP1 SWAP3 MSTORE PUSH1 0x40 SWAP1 DUP2 ADD PUSH1 0x0 SWAP1 DUP2 KECCAK256 PUSH1 0x1 PUSH1 0x1 PUSH1 0xA0 SHL SUB DUP12 AND DUP3 MSTORE DUP4 MSTORE DUP2 DUP2 KECCAK256 SLOAD PUSH1 0x3 SWAP1 SWAP4 MSTORE SWAP1 DUP2 KECCAK256 SWAP2 SWAP3 POP SWAP1 DUP2 DUP9 DUP9 DUP7 DUP2 DUP2 LT PUSH2 0x36CC JUMPI PUSH2 0x36CC PUSH2 0x4AA8 JUMP JUMPDEST SWAP1 POP PUSH1 0x20 MUL ADD CALLDATALOAD DUP2 MSTORE PUSH1 0x20 ADD SWAP1 DUP2 MSTORE PUSH1 0x20 ADD PUSH1 0x0 KECCAK256 SLOAD DUP6 DUP6 DUP6 DUP2 DUP2 LT PUSH2 0x36F4 JUMPI PUSH2 0x36F4 PUSH2 0x4AA8 JUMP JUMPDEST SWAP1 POP PUSH1 0x20 MUL ADD CALLDATALOAD PUSH1 0x4 PUSH1 0x0 DUP12 PUSH1 0x1 PUSH1 0x1 PUSH1 0xA0 SHL SUB AND PUSH1 0x1 PUSH1 0x1 PUSH1 0xA0 SHL SUB AND DUP2 MSTORE PUSH1 0x20 ADD SWAP1 DUP2 MSTORE PUSH1 0x20 ADD PUSH1 0x0 KECCAK256 PUSH1 0x0 DUP11 DUP11 DUP9 DUP2 DUP2 LT PUSH2 0x3734 JUMPI PUSH2 0x3734 PUSH2 0x4AA8 JUMP JUMPDEST SWAP1 POP PUSH1 0x20 MUL ADD CALLDATALOAD DUP2 MSTORE PUSH1 0x20 ADD SWAP1 DUP2 MSTORE PUSH1 0x20 ADD PUSH1 0x0 KECCAK256 SLOAD PUSH2 0x3754 SWAP2 SWAP1 PUSH2 0x4ECD JUMP JUMPDEST PUSH2 0x375E SWAP2 SWAP1 PUSH2 0x4ECD JUMP JUMPDEST SWAP1 POP DUP1 DUP3 LT ISZERO PUSH2 0x3780 JUMPI PUSH1 0x40 MLOAD PUSH3 0x461BCD PUSH1 0xE5 SHL DUP2 MSTORE PUSH1 0x4 ADD PUSH2 0x8B6 SWAP1 PUSH2 0x5140 JUMP JUMPDEST PUSH1 0x0 DUP6 DUP6 DUP6 DUP2 DUP2 LT PUSH2 0x3794 JUMPI PUSH2 0x3794 PUSH2 0x4AA8 JUMP JUMPDEST SWAP1 POP PUSH1 0x20 MUL ADD CALLDATALOAD PUSH1 0x4 PUSH1 0x0 DUP12 PUSH1 0x1 PUSH1 0x1 PUSH1 0xA0 SHL SUB AND PUSH1 0x1 PUSH1 0x1 PUSH1 0xA0 SHL SUB AND DUP2 MSTORE PUSH1 0x20 ADD SWAP1 DUP2 MSTORE PUSH1 0x20 ADD PUSH1 0x0 KECCAK256 PUSH1 0x0 DUP11 DUP11 DUP9 DUP2 DUP2 LT PUSH2 0x37D4 JUMPI PUSH2 0x37D4 PUSH2 0x4AA8 JUMP JUMPDEST SWAP1 POP PUSH1 0x20 MUL ADD CALLDATALOAD DUP2 MSTORE PUSH1 0x20 ADD SWAP1 DUP2 MSTORE PUSH1 0x20 ADD PUSH1 0x0 KECCAK256 SLOAD PUSH2 0x37F4 SWAP2 SWAP1 PUSH2 0x4ECD JUMP JUMPDEST PUSH1 0x1 PUSH1 0x1 PUSH1 0xA0 SHL SUB DUP11 AND PUSH1 0x0 SWAP1 DUP2 MSTORE PUSH1 0x4 PUSH1 0x20 MSTORE PUSH1 0x40 DUP2 KECCAK256 SWAP2 SWAP3 POP DUP3 SWAP2 SWAP1 DUP11 DUP11 DUP9 DUP2 DUP2 LT PUSH2 0x3824 JUMPI PUSH2 0x3824 PUSH2 0x4AA8 JUMP JUMPDEST SWAP1 POP PUSH1 0x20 MUL ADD CALLDATALOAD DUP2 MSTORE PUSH1 0x20 ADD SWAP1 DUP2 MSTORE PUSH1 0x20 ADD PUSH1 0x0 KECCAK256 DUP2 SWAP1 SSTORE POP POP POP POP DUP1 DUP1 PUSH2 0x384B SWAP1 PUSH2 0x4AD4 JUMP JUMPDEST SWAP2 POP POP PUSH2 0x35B9 JUMP JUMPDEST PUSH1 0x0 PUSH1 0x1 PUSH1 0x1 PUSH1 0xA0 SHL SUB DUP6 AND EXTCODESIZE ISZERO PUSH2 0x3052 JUMPI PUSH1 0x40 MLOAD PUSH4 0xE78B3325 PUSH1 0xE0 SHL DUP2 MSTORE PUSH1 0x1 PUSH1 0x1 PUSH1 0xA0 SHL SUB DUP7 AND SWAP1 PUSH4 0xE78B3325 SWAP1 PUSH2 0x3899 SWAP1 DUP11 SWAP1 DUP11 SWAP1 DUP10 SWAP1 DUP10 SWAP1 DUP10 SWAP1 PUSH1 0x4 ADD PUSH2 0x5185 JUMP JUMPDEST PUSH1 0x20 PUSH1 0x40 MLOAD DUP1 DUP4 SUB DUP2 PUSH1 0x0 DUP8 GAS CALL SWAP3 POP POP POP DUP1 ISZERO PUSH2 0x38D4 JUMPI POP PUSH1 0x40 DUP1 MLOAD PUSH1 0x1F RETURNDATASIZE SWAP1 DUP2 ADD PUSH1 0x1F NOT AND DUP3 ADD SWAP1 SWAP3 MSTORE PUSH2 0x38D1 SWAP2 DUP2 ADD SWAP1 PUSH2 0x506F JUMP JUMPDEST PUSH1 0x1 JUMPDEST PUSH2 0x3902 JUMPI RETURNDATASIZE DUP1 DUP1 ISZERO PUSH2 0x3017 JUMPI PUSH1 0x40 MLOAD SWAP2 POP PUSH1 0x1F NOT PUSH1 0x3F RETURNDATASIZE ADD AND DUP3 ADD PUSH1 0x40 MSTORE RETURNDATASIZE DUP3 MSTORE RETURNDATASIZE PUSH1 0x0 PUSH1 0x20 DUP5 ADD RETURNDATACOPY PUSH2 0x301C JUMP JUMPDEST PUSH1 0x1 PUSH1 0x1 PUSH1 0xE0 SHL SUB NOT AND PUSH4 0xE78B3325 PUSH1 0xE0 SHL EQ SWAP1 POP PUSH2 0x3056 JUMP JUMPDEST PUSH1 0x0 PUSH1 0x1 PUSH1 0x1 PUSH1 0xA0 SHL SUB DUP6 AND EXTCODESIZE ISZERO PUSH2 0x3052 JUMPI PUSH1 0x40 MLOAD PUSH4 0xF23A6E61 PUSH1 0xE0 SHL DUP2 MSTORE PUSH1 0x1 PUSH1 0x1 PUSH1 0xA0 SHL SUB DUP7 AND SWAP1 PUSH4 0xF23A6E61 SWAP1 PUSH2 0x3962 SWAP1 DUP11 SWAP1 DUP11 SWAP1 DUP10 SWAP1 DUP10 SWAP1 DUP10 SWAP1 PUSH1 0x4 ADD PUSH2 0x5185 JUMP JUMPDEST PUSH1 0x20 PUSH1 0x40 MLOAD DUP1 DUP4 SUB DUP2 PUSH1 0x0 DUP8 GAS CALL SWAP3 POP POP POP DUP1 ISZERO PUSH2 0x399D JUMPI POP PUSH1 0x40 DUP1 MLOAD PUSH1 0x1F RETURNDATASIZE SWAP1 DUP2 ADD PUSH1 0x1F NOT AND DUP3 ADD SWAP1 SWAP3 MSTORE PUSH2 0x399A SWAP2 DUP2 ADD SWAP1 PUSH2 0x506F JUMP JUMPDEST PUSH1 0x1 JUMPDEST PUSH2 0x39CB JUMPI RETURNDATASIZE DUP1 DUP1 ISZERO PUSH2 0x3017 JUMPI PUSH1 0x40 MLOAD SWAP2 POP PUSH1 0x1F NOT PUSH1 0x3F RETURNDATASIZE ADD AND DUP3 ADD PUSH1 0x40 MSTORE RETURNDATASIZE DUP3 MSTORE RETURNDATASIZE PUSH1 0x0 PUSH1 0x20 DUP5 ADD RETURNDATACOPY PUSH2 0x301C JUMP JUMPDEST PUSH1 0x1 PUSH1 0x1 PUSH1 0xE0 SHL SUB NOT AND PUSH4 0xF23A6E61 PUSH1 0xE0 SHL EQ SWAP1 POP PUSH2 0x3056 JUMP JUMPDEST DUP3 DUP2 EQ PUSH2 0x3A04 JUMPI PUSH1 0x40 MLOAD PUSH3 0x461BCD PUSH1 0xE5 SHL DUP2 MSTORE PUSH1 0x4 ADD PUSH2 0x8B6 SWAP1 PUSH2 0x50B9 JUMP JUMPDEST PUSH1 0x0 JUMPDEST DUP4 DUP2 LT ISZERO PUSH2 0x17E6 JUMPI DUP5 DUP5 DUP3 DUP2 DUP2 LT PUSH2 0x3A21 JUMPI PUSH2 0x3A21 PUSH2 0x4AA8 JUMP JUMPDEST SWAP1 POP PUSH1 0x20 MUL ADD CALLDATALOAD PUSH1 0x0 SUB PUSH2 0x3A47 JUMPI PUSH1 0x40 MLOAD PUSH3 0x461BCD PUSH1 0xE5 SHL DUP2 MSTORE PUSH1 0x4 ADD PUSH2 0x8B6 SWAP1 PUSH2 0x50E8 JUMP JUMPDEST PUSH1 0x1 PUSH1 0x1 PUSH1 0xA0 SHL SUB DUP7 AND PUSH1 0x0 SWAP1 DUP2 MSTORE PUSH1 0x4 PUSH1 0x20 MSTORE PUSH1 0x40 DUP2 KECCAK256 SWAP1 DUP7 DUP7 DUP5 DUP2 DUP2 LT PUSH2 0x3A72 JUMPI PUSH2 0x3A72 PUSH2 0x4AA8 JUMP JUMPDEST SWAP1 POP PUSH1 0x20 MUL ADD CALLDATALOAD DUP2 MSTORE PUSH1 0x20 ADD SWAP1 DUP2 MSTORE PUSH1 0x20 ADD PUSH1 0x0 KECCAK256 SLOAD PUSH1 0x0 SUB PUSH2 0x3AA7 JUMPI PUSH1 0x40 MLOAD PUSH3 0x461BCD PUSH1 0xE5 SHL DUP2 MSTORE PUSH1 0x4 ADD PUSH2 0x8B6 SWAP1 PUSH2 0x5112 JUMP JUMPDEST PUSH1 0x0 DUP4 DUP4 DUP4 DUP2 DUP2 LT PUSH2 0x3ABB JUMPI PUSH2 0x3ABB PUSH2 0x4AA8 JUMP JUMPDEST SWAP1 POP PUSH1 0x20 MUL ADD CALLDATALOAD PUSH1 0x4 PUSH1 0x0 DUP10 PUSH1 0x1 PUSH1 0x1 PUSH1 0xA0 SHL SUB AND PUSH1 0x1 PUSH1 0x1 PUSH1 0xA0 SHL SUB AND DUP2 MSTORE PUSH1 0x20 ADD SWAP1 DUP2 MSTORE PUSH1 0x20 ADD PUSH1 0x0 KECCAK256 PUSH1 0x0 DUP9 DUP9 DUP7 DUP2 DUP2 LT PUSH2 0x3AFB JUMPI PUSH2 0x3AFB PUSH2 0x4AA8 JUMP JUMPDEST SWAP1 POP PUSH1 0x20 MUL ADD CALLDATALOAD DUP2 MSTORE PUSH1 0x20 ADD SWAP1 DUP2 MSTORE PUSH1 0x20 ADD PUSH1 0x0 KECCAK256 SLOAD PUSH2 0x3B1B SWAP2 SWAP1 PUSH2 0x4BD1 JUMP JUMPDEST SWAP1 POP PUSH1 0x1 PUSH1 0x1 PUSH1 0xA0 SHL SUB DUP8 AND PUSH1 0x0 SWAP1 DUP2 MSTORE PUSH1 0x4 PUSH1 0x20 MSTORE PUSH1 0x40 DUP2 KECCAK256 DUP3 SWAP2 DUP9 DUP9 DUP7 DUP2 DUP2 LT PUSH2 0x3B49 JUMPI PUSH2 0x3B49 PUSH2 0x4AA8 JUMP JUMPDEST SWAP1 POP PUSH1 0x20 MUL ADD CALLDATALOAD DUP2 MSTORE PUSH1 0x20 ADD SWAP1 DUP2 MSTORE PUSH1 0x20 ADD PUSH1 0x0 KECCAK256 DUP2 SWAP1 SSTORE POP POP DUP1 DUP1 PUSH2 0x3B6E SWAP1 PUSH2 0x4AD4 JUMP JUMPDEST SWAP2 POP POP PUSH2 0x3A07 JUMP JUMPDEST DUP3 DUP2 EQ PUSH2 0x3B95 JUMPI PUSH1 0x40 MLOAD PUSH3 0x461BCD PUSH1 0xE5 SHL DUP2 MSTORE PUSH1 0x4 ADD PUSH2 0x8B6 SWAP1 PUSH2 0x50B9 JUMP JUMPDEST PUSH1 0x0 JUMPDEST DUP4 DUP2 LT ISZERO PUSH2 0x17E6 JUMPI DUP5 DUP5 DUP3 DUP2 DUP2 LT PUSH2 0x3BB2 JUMPI PUSH2 0x3BB2 PUSH2 0x4AA8 JUMP JUMPDEST SWAP1 POP PUSH1 0x20 MUL ADD CALLDATALOAD PUSH1 0x0 SUB PUSH2 0x3BD8 JUMPI PUSH1 0x40 MLOAD PUSH3 0x461BCD PUSH1 0xE5 SHL DUP2 MSTORE PUSH1 0x4 ADD PUSH2 0x8B6 SWAP1 PUSH2 0x50E8 JUMP JUMPDEST PUSH1 0x0 DUP1 PUSH1 0x0 DUP8 DUP8 DUP6 DUP2 DUP2 LT PUSH2 0x3BEF JUMPI PUSH2 0x3BEF PUSH2 0x4AA8 JUMP JUMPDEST SWAP1 POP PUSH1 0x20 MUL ADD CALLDATALOAD DUP2 MSTORE PUSH1 0x20 ADD SWAP1 DUP2 MSTORE PUSH1 0x20 ADD PUSH1 0x0 KECCAK256 PUSH1 0x0 DUP9 PUSH1 0x1 PUSH1 0x1 PUSH1 0xA0 SHL SUB AND PUSH1 0x1 PUSH1 0x1 PUSH1 0xA0 SHL SUB AND DUP2 MSTORE PUSH1 0x20 ADD SWAP1 DUP2 MSTORE PUSH1 0x20 ADD PUSH1 0x0 KECCAK256 SLOAD GT PUSH2 0x3C45 JUMPI PUSH1 0x40 MLOAD PUSH3 0x461BCD PUSH1 0xE5 SHL DUP2 MSTORE PUSH1 0x4 ADD PUSH2 0x8B6 SWAP1 PUSH2 0x5112 JUMP JUMPDEST PUSH1 0x0 DUP1 PUSH1 0x0 DUP8 DUP8 DUP6 DUP2 DUP2 LT PUSH2 0x3C5C JUMPI PUSH2 0x3C5C PUSH2 0x4AA8 JUMP JUMPDEST PUSH1 0x20 SWAP1 DUP2 MUL SWAP3 SWAP1 SWAP3 ADD CALLDATALOAD DUP4 MSTORE POP DUP2 DUP2 ADD SWAP3 SWAP1 SWAP3 MSTORE PUSH1 0x40 SWAP1 DUP2 ADD PUSH1 0x0 SWAP1 DUP2 KECCAK256 PUSH1 0x1 PUSH1 0x1 PUSH1 0xA0 SHL SUB DUP12 AND DUP3 MSTORE DUP4 MSTORE DUP2 DUP2 KECCAK256 SLOAD PUSH1 0x4 SWAP1 SWAP4 MSTORE SWAP1 DUP2 KECCAK256 SWAP2 SWAP3 POP SWAP1 DUP2 DUP9 DUP9 DUP7 DUP2 DUP2 LT PUSH2 0x3CAB JUMPI PUSH2 0x3CAB PUSH2 0x4AA8 JUMP JUMPDEST SWAP1 POP PUSH1 0x20 MUL ADD CALLDATALOAD DUP2 MSTORE PUSH1 0x20 ADD SWAP1 DUP2 MSTORE PUSH1 0x20 ADD PUSH1 0x0 KECCAK256 SLOAD DUP6 DUP6 DUP6 DUP2 DUP2 LT PUSH2 0x3CD3 JUMPI PUSH2 0x3CD3 PUSH2 0x4AA8 JUMP JUMPDEST SWAP1 POP PUSH1 0x20 MUL ADD CALLDATALOAD PUSH1 0x3 PUSH1 0x0 DUP12 PUSH1 0x1 PUSH1 0x1 PUSH1 0xA0 SHL SUB AND PUSH1 0x1 PUSH1 0x1 PUSH1 0xA0 SHL SUB AND DUP2 MSTORE PUSH1 0x20 ADD SWAP1 DUP2 MSTORE PUSH1 0x20 ADD PUSH1 0x0 KECCAK256 PUSH1 0x0 DUP11 DUP11 DUP9 DUP2 DUP2 LT PUSH2 0x3D13 JUMPI PUSH2 0x3D13 PUSH2 0x4AA8 JUMP JUMPDEST SWAP1 POP PUSH1 0x20 MUL ADD CALLDATALOAD DUP2 MSTORE PUSH1 0x20 ADD SWAP1 DUP2 MSTORE PUSH1 0x20 ADD PUSH1 0x0 KECCAK256 SLOAD PUSH2 0x3D33 SWAP2 SWAP1 PUSH2 0x4ECD JUMP JUMPDEST PUSH2 0x3D3D SWAP2 SWAP1 PUSH2 0x4ECD JUMP JUMPDEST SWAP1 POP DUP1 DUP3 LT ISZERO PUSH2 0x3D5F JUMPI PUSH1 0x40 MLOAD PUSH3 0x461BCD PUSH1 0xE5 SHL DUP2 MSTORE PUSH1 0x4 ADD PUSH2 0x8B6 SWAP1 PUSH2 0x5140 JUMP JUMPDEST PUSH1 0x0 DUP6 DUP6 DUP6 DUP2 DUP2 LT PUSH2 0x3D73 JUMPI PUSH2 0x3D73 PUSH2 0x4AA8 JUMP JUMPDEST SWAP1 POP PUSH1 0x20 MUL ADD CALLDATALOAD PUSH1 0x3 PUSH1 0x0 DUP12 PUSH1 0x1 PUSH1 0x1 PUSH1 0xA0 SHL SUB AND PUSH1 0x1 PUSH1 0x1 PUSH1 0xA0 SHL SUB AND DUP2 MSTORE PUSH1 0x20 ADD SWAP1 DUP2 MSTORE PUSH1 0x20 ADD PUSH1 0x0 KECCAK256 PUSH1 0x0 DUP11 DUP11 DUP9 DUP2 DUP2 LT PUSH2 0x3DB3 JUMPI PUSH2 0x3DB3 PUSH2 0x4AA8 JUMP JUMPDEST SWAP1 POP PUSH1 0x20 MUL ADD CALLDATALOAD DUP2 MSTORE PUSH1 0x20 ADD SWAP1 DUP2 MSTORE PUSH1 0x20 ADD PUSH1 0x0 KECCAK256 SLOAD PUSH2 0x3DD3 SWAP2 SWAP1 PUSH2 0x4ECD JUMP JUMPDEST PUSH1 0x1 PUSH1 0x1 PUSH1 0xA0 SHL SUB DUP11 AND PUSH1 0x0 SWAP1 DUP2 MSTORE PUSH1 0x3 PUSH1 0x20 MSTORE PUSH1 0x40 DUP2 KECCAK256 SWAP2 SWAP3 POP DUP3 SWAP2 SWAP1 DUP11 DUP11 DUP9 DUP2 DUP2 LT PUSH2 0x3E03 JUMPI PUSH2 0x3E03 PUSH2 0x4AA8 JUMP JUMPDEST SWAP1 POP PUSH1 0x20 MUL ADD CALLDATALOAD DUP2 MSTORE PUSH1 0x20 ADD SWAP1 DUP2 MSTORE PUSH1 0x20 ADD PUSH1 0x0 KECCAK256 DUP2 SWAP1 SSTORE POP POP POP POP DUP1 DUP1 PUSH2 0x3E2A SWAP1 PUSH2 0x4AD4 JUMP JUMPDEST SWAP2 POP POP PUSH2 0x3B98 JUMP JUMPDEST PUSH2 0x3E40 DUP7 DUP7 DUP7 DUP7 DUP7 DUP7 PUSH2 0x3ED7 JUMP JUMPDEST PUSH1 0x0 JUMPDEST DUP4 MLOAD DUP2 LT ISZERO PUSH2 0x3EB1 JUMPI PUSH1 0x0 DUP5 DUP3 DUP2 MLOAD DUP2 LT PUSH2 0x3E60 JUMPI PUSH2 0x3E60 PUSH2 0x4AA8 JUMP JUMPDEST PUSH1 0x20 MUL PUSH1 0x20 ADD ADD MLOAD SWAP1 POP PUSH2 0x3E83 DUP2 PUSH1 0x0 SWAP1 DUP2 MSTORE PUSH1 0x9 PUSH1 0x20 MSTORE PUSH1 0x40 SWAP1 KECCAK256 SLOAD PUSH1 0xFF AND SWAP1 JUMP JUMPDEST ISZERO PUSH2 0x3EA0 JUMPI PUSH1 0x40 MLOAD PUSH3 0x461BCD PUSH1 0xE5 SHL DUP2 MSTORE PUSH1 0x4 ADD PUSH2 0x8B6 SWAP1 PUSH2 0x51CA JUMP JUMPDEST POP PUSH2 0x3EAA DUP2 PUSH2 0x4AD4 JUMP JUMPDEST SWAP1 POP PUSH2 0x3E43 JUMP JUMPDEST POP PUSH2 0x3EBA PUSH2 0xCC7 JUMP JUMPDEST ISZERO PUSH2 0x17E6 JUMPI PUSH1 0x40 MLOAD PUSH3 0x461BCD PUSH1 0xE5 SHL DUP2 MSTORE PUSH1 0x4 ADD PUSH2 0x8B6 SWAP1 PUSH2 0x51CA JUMP JUMPDEST PUSH1 0x0 JUMPDEST DUP4 MLOAD DUP2 LT ISZERO PUSH2 0x405D JUMPI PUSH1 0x1 PUSH1 0x1 PUSH1 0xA0 SHL SUB DUP7 AND PUSH1 0x0 SWAP1 DUP2 MSTORE PUSH1 0x4 PUSH1 0x20 MSTORE PUSH1 0x40 DUP2 KECCAK256 DUP6 MLOAD DUP3 SWAP1 DUP8 SWAP1 DUP6 SWAP1 DUP2 LT PUSH2 0x3F11 JUMPI PUSH2 0x3F11 PUSH2 0x4AA8 JUMP JUMPDEST PUSH1 0x20 MUL PUSH1 0x20 ADD ADD MLOAD DUP2 MSTORE PUSH1 0x20 ADD SWAP1 DUP2 MSTORE PUSH1 0x20 ADD PUSH1 0x0 KECCAK256 SLOAD PUSH1 0x3 PUSH1 0x0 DUP10 PUSH1 0x1 PUSH1 0x1 PUSH1 0xA0 SHL SUB AND PUSH1 0x1 PUSH1 0x1 PUSH1 0xA0 SHL SUB AND DUP2 MSTORE PUSH1 0x20 ADD SWAP1 DUP2 MSTORE PUSH1 0x20 ADD PUSH1 0x0 KECCAK256 PUSH1 0x0 DUP8 DUP6 DUP2 MLOAD DUP2 LT PUSH2 0x3F61 JUMPI PUSH2 0x3F61 PUSH2 0x4AA8 JUMP JUMPDEST PUSH1 0x20 MUL PUSH1 0x20 ADD ADD MLOAD DUP2 MSTORE PUSH1 0x20 ADD SWAP1 DUP2 MSTORE PUSH1 0x20 ADD PUSH1 0x0 KECCAK256 SLOAD PUSH2 0x3F82 SWAP2 SWAP1 PUSH2 0x4ECD JUMP JUMPDEST PUSH1 0x0 DUP1 DUP8 DUP6 DUP2 MLOAD DUP2 LT PUSH2 0x3F97 JUMPI PUSH2 0x3F97 PUSH2 0x4AA8 JUMP JUMPDEST PUSH1 0x20 MUL PUSH1 0x20 ADD ADD MLOAD DUP2 MSTORE PUSH1 0x20 ADD SWAP1 DUP2 MSTORE PUSH1 0x20 ADD PUSH1 0x0 KECCAK256 PUSH1 0x0 DUP10 PUSH1 0x1 PUSH1 0x1 PUSH1 0xA0 SHL SUB AND PUSH1 0x1 PUSH1 0x1 PUSH1 0xA0 SHL SUB AND DUP2 MSTORE PUSH1 0x20 ADD SWAP1 DUP2 MSTORE PUSH1 0x20 ADD PUSH1 0x0 KECCAK256 SLOAD PUSH2 0x3FDB SWAP2 SWAP1 PUSH2 0x4BD1 JUMP JUMPDEST SWAP1 POP PUSH1 0x1 PUSH1 0x1 PUSH1 0xA0 SHL SUB DUP8 AND ISZERO DUP1 ISZERO SWAP1 PUSH2 0x400D JUMPI POP DUP4 DUP3 DUP2 MLOAD DUP2 LT PUSH2 0x4002 JUMPI PUSH2 0x4002 PUSH2 0x4AA8 JUMP JUMPDEST PUSH1 0x20 MUL PUSH1 0x20 ADD ADD MLOAD DUP2 LT JUMPDEST ISZERO PUSH2 0x404C JUMPI PUSH1 0x40 MLOAD PUSH3 0x461BCD PUSH1 0xE5 SHL DUP2 MSTORE PUSH1 0x20 PUSH1 0x4 DUP3 ADD MSTORE PUSH1 0xF PUSH1 0x24 DUP3 ADD MSTORE PUSH15 0x151BDAD95B881A5CC81B1BD8DAD959 PUSH1 0x8A SHL PUSH1 0x44 DUP3 ADD MSTORE PUSH1 0x64 ADD PUSH2 0x8B6 JUMP JUMPDEST POP PUSH2 0x4056 DUP2 PUSH2 0x4AD4 JUMP JUMPDEST SWAP1 POP PUSH2 0x3EDA JUMP JUMPDEST POP PUSH1 0x1 PUSH1 0x1 PUSH1 0xA0 SHL SUB DUP6 AND PUSH2 0x40E5 JUMPI PUSH1 0x0 JUMPDEST DUP4 MLOAD DUP2 LT ISZERO PUSH2 0x40E3 JUMPI DUP3 DUP2 DUP2 MLOAD DUP2 LT PUSH2 0x408A JUMPI PUSH2 0x408A PUSH2 0x4AA8 JUMP JUMPDEST PUSH1 0x20 MUL PUSH1 0x20 ADD ADD MLOAD PUSH1 0x1 PUSH1 0x0 DUP7 DUP5 DUP2 MLOAD DUP2 LT PUSH2 0x40A8 JUMPI PUSH2 0x40A8 PUSH2 0x4AA8 JUMP JUMPDEST PUSH1 0x20 MUL PUSH1 0x20 ADD ADD MLOAD DUP2 MSTORE PUSH1 0x20 ADD SWAP1 DUP2 MSTORE PUSH1 0x20 ADD PUSH1 0x0 KECCAK256 PUSH1 0x0 DUP3 DUP3 SLOAD PUSH2 0x40CD SWAP2 SWAP1 PUSH2 0x4ECD JUMP JUMPDEST SWAP1 SWAP2 SSTORE POP PUSH2 0x40DC SWAP1 POP DUP2 PUSH2 0x4AD4 JUMP JUMPDEST SWAP1 POP PUSH2 0x406F JUMP JUMPDEST POP JUMPDEST PUSH1 0x1 PUSH1 0x1 PUSH1 0xA0 SHL SUB DUP5 AND PUSH2 0x17E6 JUMPI PUSH1 0x0 JUMPDEST DUP4 MLOAD DUP2 LT ISZERO PUSH2 0x1B9A JUMPI PUSH1 0x0 DUP5 DUP3 DUP2 MLOAD DUP2 LT PUSH2 0x4113 JUMPI PUSH2 0x4113 PUSH2 0x4AA8 JUMP JUMPDEST PUSH1 0x20 MUL PUSH1 0x20 ADD ADD MLOAD SWAP1 POP PUSH1 0x0 DUP5 DUP4 DUP2 MLOAD DUP2 LT PUSH2 0x4131 JUMPI PUSH2 0x4131 PUSH2 0x4AA8 JUMP JUMPDEST PUSH1 0x20 MUL PUSH1 0x20 ADD ADD MLOAD SWAP1 POP PUSH1 0x0 PUSH1 0x1 PUSH1 0x0 DUP5 DUP2 MSTORE PUSH1 0x20 ADD SWAP1 DUP2 MSTORE PUSH1 0x20 ADD PUSH1 0x0 KECCAK256 SLOAD SWAP1 POP DUP2 DUP2 LT ISZERO PUSH2 0x41B2 JUMPI PUSH1 0x40 MLOAD PUSH3 0x461BCD PUSH1 0xE5 SHL DUP2 MSTORE PUSH1 0x20 PUSH1 0x4 DUP3 ADD MSTORE PUSH1 0x26 PUSH1 0x24 DUP3 ADD MSTORE PUSH32 0x4B495033373A206275726E20616D6F756E74206578636565647320746F74616C PUSH1 0x44 DUP3 ADD MSTORE PUSH6 0x537570706C79 PUSH1 0xD0 SHL PUSH1 0x64 DUP3 ADD MSTORE PUSH1 0x84 ADD PUSH2 0x8B6 JUMP JUMPDEST PUSH1 0x0 SWAP3 DUP4 MSTORE PUSH1 0x1 PUSH1 0x20 MSTORE PUSH1 0x40 SWAP1 SWAP3 KECCAK256 SWAP2 SUB SWAP1 SSTORE PUSH2 0x41CE DUP2 PUSH2 0x4AD4 JUMP JUMPDEST SWAP1 POP PUSH2 0x40F6 JUMP JUMPDEST PUSH1 0x0 PUSH1 0x20 DUP3 DUP5 SUB SLT ISZERO PUSH2 0x41E7 JUMPI PUSH1 0x0 DUP1 REVERT JUMPDEST POP CALLDATALOAD SWAP2 SWAP1 POP JUMP JUMPDEST PUSH1 0x1 PUSH1 0x1 PUSH1 0xA0 SHL SUB DUP2 AND DUP2 EQ PUSH2 0x9B7 JUMPI PUSH1 0x0 DUP1 REVERT JUMPDEST PUSH1 0x0 DUP1 PUSH1 0x40 DUP4 DUP6 SUB SLT ISZERO PUSH2 0x4216 JUMPI PUSH1 0x0 DUP1 REVERT JUMPDEST DUP3 CALLDATALOAD PUSH2 0x4221 DUP2 PUSH2 0x41EE JUMP JUMPDEST SWAP5 PUSH1 0x20 SWAP4 SWAP1 SWAP4 ADD CALLDATALOAD SWAP4 POP POP POP JUMP JUMPDEST PUSH1 0x1 PUSH1 0x1 PUSH1 0xE0 SHL SUB NOT DUP2 AND DUP2 EQ PUSH2 0x9B7 JUMPI PUSH1 0x0 DUP1 REVERT JUMPDEST PUSH1 0x0 PUSH1 0x20 DUP3 DUP5 SUB SLT ISZERO PUSH2 0x4257 JUMPI PUSH1 0x0 DUP1 REVERT JUMPDEST DUP2 CALLDATALOAD PUSH2 0xE61 DUP2 PUSH2 0x422F JUMP JUMPDEST PUSH1 0x0 JUMPDEST DUP4 DUP2 LT ISZERO PUSH2 0x427D JUMPI DUP2 DUP2 ADD MLOAD DUP4 DUP3 ADD MSTORE PUSH1 0x20 ADD PUSH2 0x4265 JUMP JUMPDEST POP POP PUSH1 0x0 SWAP2 ADD MSTORE JUMP JUMPDEST PUSH1 0x0 DUP2 MLOAD DUP1 DUP5 MSTORE PUSH2 0x429E DUP2 PUSH1 0x20 DUP7 ADD PUSH1 0x20 DUP7 ADD PUSH2 0x4262 JUMP JUMPDEST PUSH1 0x1F ADD PUSH1 0x1F NOT AND SWAP3 SWAP1 SWAP3 ADD PUSH1 0x20 ADD SWAP3 SWAP2 POP POP JUMP JUMPDEST PUSH1 0x20 DUP2 MSTORE PUSH1 0x0 PUSH2 0xE61 PUSH1 0x20 DUP4 ADD DUP5 PUSH2 0x4286 JUMP JUMPDEST PUSH4 0x4E487B71 PUSH1 0xE0 SHL PUSH1 0x0 MSTORE PUSH1 0x41 PUSH1 0x4 MSTORE PUSH1 0x24 PUSH1 0x0 REVERT JUMPDEST PUSH1 0x40 MLOAD PUSH1 0x1F DUP3 ADD PUSH1 0x1F NOT AND DUP2 ADD PUSH1 0x1 PUSH1 0x1 PUSH1 0x40 SHL SUB DUP2 GT DUP3 DUP3 LT OR ISZERO PUSH2 0x4303 JUMPI PUSH2 0x4303 PUSH2 0x42C5 JUMP JUMPDEST PUSH1 0x40 MSTORE SWAP2 SWAP1 POP JUMP JUMPDEST PUSH1 0x0 PUSH1 0x1 PUSH1 0x1 PUSH1 0x40 SHL SUB DUP3 GT ISZERO PUSH2 0x4324 JUMPI PUSH2 0x4324 PUSH2 0x42C5 JUMP JUMPDEST POP PUSH1 0x5 SHL PUSH1 0x20 ADD SWAP1 JUMP JUMPDEST PUSH1 0x0 DUP3 PUSH1 0x1F DUP4 ADD SLT PUSH2 0x433F JUMPI PUSH1 0x0 DUP1 REVERT JUMPDEST DUP2 CALLDATALOAD PUSH1 0x20 PUSH2 0x4354 PUSH2 0x434F DUP4 PUSH2 0x430B JUMP JUMPDEST PUSH2 0x42DB JUMP JUMPDEST DUP3 DUP2 MSTORE PUSH1 0x5 SWAP3 SWAP1 SWAP3 SHL DUP5 ADD DUP2 ADD SWAP2 DUP2 DUP2 ADD SWAP1 DUP7 DUP5 GT ISZERO PUSH2 0x4373 JUMPI PUSH1 0x0 DUP1 REVERT JUMPDEST DUP3 DUP7 ADD JUMPDEST DUP5 DUP2 LT ISZERO PUSH2 0x438E JUMPI DUP1 CALLDATALOAD DUP4 MSTORE SWAP2 DUP4 ADD SWAP2 DUP4 ADD PUSH2 0x4377 JUMP JUMPDEST POP SWAP7 SWAP6 POP POP POP POP POP POP JUMP JUMPDEST PUSH1 0x0 DUP3 PUSH1 0x1F DUP4 ADD SLT PUSH2 0x43AA JUMPI PUSH1 0x0 DUP1 REVERT JUMPDEST DUP2 CALLDATALOAD PUSH1 0x1 PUSH1 0x1 PUSH1 0x40 SHL SUB DUP2 GT ISZERO PUSH2 0x43C3 JUMPI PUSH2 0x43C3 PUSH2 0x42C5 JUMP JUMPDEST PUSH2 0x43D6 PUSH1 0x1F DUP3 ADD PUSH1 0x1F NOT AND PUSH1 0x20 ADD PUSH2 0x42DB JUMP JUMPDEST DUP2 DUP2 MSTORE DUP5 PUSH1 0x20 DUP4 DUP7 ADD ADD GT ISZERO PUSH2 0x43EB JUMPI PUSH1 0x0 DUP1 REVERT JUMPDEST DUP2 PUSH1 0x20 DUP6 ADD PUSH1 0x20 DUP4 ADD CALLDATACOPY PUSH1 0x0 SWAP2 DUP2 ADD PUSH1 0x20 ADD SWAP2 SWAP1 SWAP2 MSTORE SWAP4 SWAP3 POP POP POP JUMP JUMPDEST PUSH1 0x0 DUP1 PUSH1 0x0 DUP1 PUSH1 0x0 PUSH1 0xA0 DUP7 DUP9 SUB SLT ISZERO PUSH2 0x4420 JUMPI PUSH1 0x0 DUP1 REVERT JUMPDEST DUP6 CALLDATALOAD PUSH2 0x442B DUP2 PUSH2 0x41EE JUMP JUMPDEST SWAP5 POP PUSH1 0x20 DUP7 ADD CALLDATALOAD PUSH2 0x443B DUP2 PUSH2 0x41EE JUMP JUMPDEST SWAP4 POP PUSH1 0x40 DUP7 ADD CALLDATALOAD PUSH1 0x1 PUSH1 0x1 PUSH1 0x40 SHL SUB DUP1 DUP3 GT ISZERO PUSH2 0x4457 JUMPI PUSH1 0x0 DUP1 REVERT JUMPDEST PUSH2 0x4463 DUP10 DUP4 DUP11 ADD PUSH2 0x432E JUMP JUMPDEST SWAP5 POP PUSH1 0x60 DUP9 ADD CALLDATALOAD SWAP2 POP DUP1 DUP3 GT ISZERO PUSH2 0x4479 JUMPI PUSH1 0x0 DUP1 REVERT JUMPDEST PUSH2 0x4485 DUP10 DUP4 DUP11 ADD PUSH2 0x432E JUMP JUMPDEST SWAP4 POP PUSH1 0x80 DUP9 ADD CALLDATALOAD SWAP2 POP DUP1 DUP3 GT ISZERO PUSH2 0x449B JUMPI PUSH1 0x0 DUP1 REVERT JUMPDEST POP PUSH2 0x44A8 DUP9 DUP3 DUP10 ADD PUSH2 0x4399 JUMP JUMPDEST SWAP2 POP POP SWAP3 SWAP6 POP SWAP3 SWAP6 SWAP1 SWAP4 POP JUMP JUMPDEST PUSH1 0x0 DUP1 PUSH1 0x40 DUP4 DUP6 SUB SLT ISZERO PUSH2 0x44C8 JUMPI PUSH1 0x0 DUP1 REVERT JUMPDEST DUP3 CALLDATALOAD SWAP2 POP PUSH1 0x20 DUP4 ADD CALLDATALOAD PUSH2 0x44DA DUP2 PUSH2 0x41EE JUMP JUMPDEST DUP1 SWAP2 POP POP SWAP3 POP SWAP3 SWAP1 POP JUMP JUMPDEST PUSH1 0x0 PUSH1 0x20 DUP3 DUP5 SUB SLT ISZERO PUSH2 0x44F7 JUMPI PUSH1 0x0 DUP1 REVERT JUMPDEST DUP2 CALLDATALOAD PUSH2 0xE61 DUP2 PUSH2 0x41EE JUMP JUMPDEST PUSH1 0x0 DUP1 DUP4 PUSH1 0x1F DUP5 ADD SLT PUSH2 0x4514 JUMPI PUSH1 0x0 DUP1 REVERT JUMPDEST POP DUP2 CALLDATALOAD PUSH1 0x1 PUSH1 0x1 PUSH1 0x40 SHL SUB DUP2 GT ISZERO PUSH2 0x452B JUMPI PUSH1 0x0 DUP1 REVERT JUMPDEST PUSH1 0x20 DUP4 ADD SWAP2 POP DUP4 PUSH1 0x20 DUP3 PUSH1 0x5 SHL DUP6 ADD ADD GT ISZERO PUSH2 0xF9E JUMPI PUSH1 0x0 DUP1 REVERT JUMPDEST PUSH1 0x0 DUP1 PUSH1 0x0 DUP1 PUSH1 0x0 PUSH1 0x60 DUP7 DUP9 SUB SLT ISZERO PUSH2 0x455E JUMPI PUSH1 0x0 DUP1 REVERT JUMPDEST DUP6 CALLDATALOAD PUSH2 0x4569 DUP2 PUSH2 0x41EE JUMP JUMPDEST SWAP5 POP PUSH1 0x20 DUP7 ADD CALLDATALOAD PUSH1 0x1 PUSH1 0x1 PUSH1 0x40 SHL SUB DUP1 DUP3 GT ISZERO PUSH2 0x4585 JUMPI PUSH1 0x0 DUP1 REVERT JUMPDEST PUSH2 0x4591 DUP10 DUP4 DUP11 ADD PUSH2 0x4502 JUMP JUMPDEST SWAP1 SWAP7 POP SWAP5 POP PUSH1 0x40 DUP9 ADD CALLDATALOAD SWAP2 POP DUP1 DUP3 GT ISZERO PUSH2 0x45AA JUMPI PUSH1 0x0 DUP1 REVERT JUMPDEST POP PUSH2 0x45B7 DUP9 DUP3 DUP10 ADD PUSH2 0x4502 JUMP JUMPDEST SWAP7 SWAP10 SWAP6 SWAP9 POP SWAP4 SWAP7 POP SWAP3 SWAP5 SWAP4 SWAP3 POP POP POP JUMP JUMPDEST PUSH1 0x0 DUP1 PUSH1 0x0 PUSH1 0x60 DUP5 DUP7 SUB SLT ISZERO PUSH2 0x45DD JUMPI PUSH1 0x0 DUP1 REVERT JUMPDEST DUP4 CALLDATALOAD SWAP3 POP PUSH1 0x20 DUP5 ADD CALLDATALOAD SWAP2 POP PUSH1 0x40 DUP5 ADD CALLDATALOAD PUSH1 0x1 PUSH1 0x1 PUSH1 0x40 SHL SUB DUP2 GT ISZERO PUSH2 0x4601 JUMPI PUSH1 0x0 DUP1 REVERT JUMPDEST PUSH2 0x460D DUP7 DUP3 DUP8 ADD PUSH2 0x4399 JUMP JUMPDEST SWAP2 POP POP SWAP3 POP SWAP3 POP SWAP3 JUMP JUMPDEST PUSH1 0x0 DUP3 PUSH1 0x1F DUP4 ADD SLT PUSH2 0x4628 JUMPI PUSH1 0x0 DUP1 REVERT JUMPDEST DUP2 CALLDATALOAD PUSH1 0x20 PUSH2 0x4638 PUSH2 0x434F DUP4 PUSH2 0x430B JUMP JUMPDEST DUP3 DUP2 MSTORE PUSH1 0x5 SWAP3 SWAP1 SWAP3 SHL DUP5 ADD DUP2 ADD SWAP2 DUP2 DUP2 ADD SWAP1 DUP7 DUP5 GT ISZERO PUSH2 0x4657 JUMPI PUSH1 0x0 DUP1 REVERT JUMPDEST DUP3 DUP7 ADD JUMPDEST DUP5 DUP2 LT ISZERO PUSH2 0x438E JUMPI DUP1 CALLDATALOAD PUSH2 0x466E DUP2 PUSH2 0x41EE JUMP JUMPDEST DUP4 MSTORE SWAP2 DUP4 ADD SWAP2 DUP4 ADD PUSH2 0x465B JUMP JUMPDEST PUSH1 0x0 DUP1 PUSH1 0x40 DUP4 DUP6 SUB SLT ISZERO PUSH2 0x468E JUMPI PUSH1 0x0 DUP1 REVERT JUMPDEST DUP3 CALLDATALOAD PUSH1 0x1 PUSH1 0x1 PUSH1 0x40 SHL SUB DUP1 DUP3 GT ISZERO PUSH2 0x46A5 JUMPI PUSH1 0x0 DUP1 REVERT JUMPDEST PUSH2 0x46B1 DUP7 DUP4 DUP8 ADD PUSH2 0x4617 JUMP JUMPDEST SWAP4 POP PUSH1 0x20 DUP6 ADD CALLDATALOAD SWAP2 POP DUP1 DUP3 GT ISZERO PUSH2 0x46C7 JUMPI PUSH1 0x0 DUP1 REVERT JUMPDEST POP PUSH2 0x46D4 DUP6 DUP3 DUP7 ADD PUSH2 0x432E JUMP JUMPDEST SWAP2 POP POP SWAP3 POP SWAP3 SWAP1 POP JUMP JUMPDEST PUSH1 0x0 DUP2 MLOAD DUP1 DUP5 MSTORE PUSH1 0x20 DUP1 DUP6 ADD SWAP5 POP DUP1 DUP5 ADD PUSH1 0x0 JUMPDEST DUP4 DUP2 LT ISZERO PUSH2 0x470E JUMPI DUP2 MLOAD DUP8 MSTORE SWAP6 DUP3 ADD SWAP6 SWAP1 DUP3 ADD SWAP1 PUSH1 0x1 ADD PUSH2 0x46F2 JUMP JUMPDEST POP SWAP5 SWAP6 SWAP5 POP POP POP POP POP JUMP JUMPDEST PUSH1 0x20 DUP2 MSTORE PUSH1 0x0 PUSH2 0xE61 PUSH1 0x20 DUP4 ADD DUP5 PUSH2 0x46DE JUMP JUMPDEST PUSH1 0x0 PUSH1 0x20 DUP3 DUP5 SUB SLT ISZERO PUSH2 0x473E JUMPI PUSH1 0x0 DUP1 REVERT JUMPDEST DUP2 CALLDATALOAD PUSH1 0x1 PUSH1 0x1 PUSH1 0x40 SHL SUB DUP2 GT ISZERO PUSH2 0x4754 JUMPI PUSH1 0x0 DUP1 REVERT JUMPDEST PUSH2 0xB67 DUP5 DUP3 DUP6 ADD PUSH2 0x4399 JUMP JUMPDEST PUSH1 0x0 DUP1 PUSH1 0x0 PUSH1 0x60 DUP5 DUP7 SUB SLT ISZERO PUSH2 0x4775 JUMPI PUSH1 0x0 DUP1 REVERT JUMPDEST DUP4 CALLDATALOAD PUSH2 0x4780 DUP2 PUSH2 0x41EE JUMP JUMPDEST SWAP3 POP PUSH1 0x20 DUP5 ADD CALLDATALOAD PUSH1 0x1 PUSH1 0x1 PUSH1 0x40 SHL SUB DUP1 DUP3 GT ISZERO PUSH2 0x479C JUMPI PUSH1 0x0 DUP1 REVERT JUMPDEST PUSH2 0x47A8 DUP8 DUP4 DUP9 ADD PUSH2 0x432E JUMP JUMPDEST SWAP4 POP PUSH1 0x40 DUP7 ADD CALLDATALOAD SWAP2 POP DUP1 DUP3 GT ISZERO PUSH2 0x47BE JUMPI PUSH1 0x0 DUP1 REVERT JUMPDEST POP PUSH2 0x460D DUP7 DUP3 DUP8 ADD PUSH2 0x432E JUMP JUMPDEST PUSH1 0x0 DUP1 PUSH1 0x0 PUSH1 0x60 DUP5 DUP7 SUB SLT ISZERO PUSH2 0x47E0 JUMPI PUSH1 0x0 DUP1 REVERT JUMPDEST DUP4 CALLDATALOAD SWAP3 POP PUSH1 0x20 DUP5 ADD CALLDATALOAD PUSH2 0x47F2 DUP2 PUSH2 0x41EE JUMP JUMPDEST SWAP3 SWAP6 SWAP3 SWAP5 POP POP POP PUSH1 0x40 SWAP2 SWAP1 SWAP2 ADD CALLDATALOAD SWAP1 JUMP JUMPDEST PUSH1 0x0 DUP1 PUSH1 0x40 DUP4 DUP6 SUB SLT ISZERO PUSH2 0x4816 JUMPI PUSH1 0x0 DUP1 REVERT JUMPDEST DUP3 CALLDATALOAD SWAP2 POP PUSH1 0x20 DUP4 ADD CALLDATALOAD PUSH1 0x1 PUSH1 0x1 PUSH1 0x40 SHL SUB DUP2 GT ISZERO PUSH2 0x4833 JUMPI PUSH1 0x0 DUP1 REVERT JUMPDEST PUSH2 0x46D4 DUP6 DUP3 DUP7 ADD PUSH2 0x4399 JUMP JUMPDEST PUSH1 0x0 DUP1 PUSH1 0x40 DUP4 DUP6 SUB SLT ISZERO PUSH2 0x4852 JUMPI PUSH1 0x0 DUP1 REVERT JUMPDEST POP POP DUP1 CALLDATALOAD SWAP3 PUSH1 0x20 SWAP1 SWAP2 ADD CALLDATALOAD SWAP2 POP JUMP JUMPDEST PUSH1 0x0 DUP1 PUSH1 0x40 DUP4 DUP6 SUB SLT ISZERO PUSH2 0x4874 JUMPI PUSH1 0x0 DUP1 REVERT JUMPDEST DUP3 CALLDATALOAD PUSH2 0x487F DUP2 PUSH2 0x41EE JUMP JUMPDEST SWAP2 POP PUSH1 0x20 DUP4 ADD CALLDATALOAD DUP1 ISZERO ISZERO DUP2 EQ PUSH2 0x44DA JUMPI PUSH1 0x0 DUP1 REVERT JUMPDEST PUSH1 0x0 DUP1 PUSH1 0x40 DUP4 DUP6 SUB SLT ISZERO PUSH2 0x48A7 JUMPI PUSH1 0x0 DUP1 REVERT JUMPDEST DUP3 CALLDATALOAD PUSH2 0x48B2 DUP2 PUSH2 0x41EE JUMP JUMPDEST SWAP2 POP PUSH1 0x20 DUP4 ADD CALLDATALOAD PUSH1 0x1 PUSH1 0x1 PUSH1 0x40 SHL SUB DUP2 GT ISZERO PUSH2 0x48CD JUMPI PUSH1 0x0 DUP1 REVERT JUMPDEST PUSH2 0x46D4 DUP6 DUP3 DUP7 ADD PUSH2 0x432E JUMP JUMPDEST PUSH1 0x40 DUP2 MSTORE PUSH1 0x0 PUSH2 0x48EC PUSH1 0x40 DUP4 ADD DUP6 PUSH2 0x46DE JUMP JUMPDEST DUP3 DUP2 SUB PUSH1 0x20 DUP5 ADD MSTORE PUSH2 0x48FE DUP2 DUP6 PUSH2 0x46DE JUMP JUMPDEST SWAP6 SWAP5 POP POP POP POP POP JUMP JUMPDEST PUSH1 0x0 DUP1 PUSH1 0x0 PUSH1 0x60 DUP5 DUP7 SUB SLT ISZERO PUSH2 0x491C JUMPI PUSH1 0x0 DUP1 REVERT JUMPDEST DUP4 CALLDATALOAD SWAP3 POP PUSH1 0x20 DUP5 ADD CALLDATALOAD PUSH1 0x1 PUSH1 0x1 PUSH1 0x40 SHL SUB DUP1 DUP3 GT ISZERO PUSH2 0x493A JUMPI PUSH1 0x0 DUP1 REVERT JUMPDEST PUSH2 0x47A8 DUP8 DUP4 DUP9 ADD PUSH2 0x4617 JUMP JUMPDEST PUSH1 0x0 DUP1 PUSH1 0x40 DUP4 DUP6 SUB SLT ISZERO PUSH2 0x4959 JUMPI PUSH1 0x0 DUP1 REVERT JUMPDEST DUP3 CALLDATALOAD PUSH2 0x4964 DUP2 PUSH2 0x41EE JUMP JUMPDEST SWAP2 POP PUSH1 0x20 DUP4 ADD CALLDATALOAD PUSH2 0x44DA DUP2 PUSH2 0x41EE JUMP JUMPDEST PUSH1 0x0 DUP1 PUSH1 0x0 DUP1 PUSH1 0x0 PUSH1 0xA0 DUP7 DUP9 SUB SLT ISZERO PUSH2 0x498C JUMPI PUSH1 0x0 DUP1 REVERT JUMPDEST DUP6 CALLDATALOAD PUSH2 0x4997 DUP2 PUSH2 0x41EE JUMP JUMPDEST SWAP5 POP PUSH1 0x20 DUP7 ADD CALLDATALOAD PUSH2 0x49A7 DUP2 PUSH2 0x41EE JUMP JUMPDEST SWAP4 POP PUSH1 0x40 DUP7 ADD CALLDATALOAD SWAP3 POP PUSH1 0x60 DUP7 ADD CALLDATALOAD SWAP2 POP PUSH1 0x80 DUP7 ADD CALLDATALOAD PUSH1 0x1 PUSH1 0x1 PUSH1 0x40 SHL SUB DUP2 GT ISZERO PUSH2 0x49D0 JUMPI PUSH1 0x0 DUP1 REVERT JUMPDEST PUSH2 0x44A8 DUP9 DUP3 DUP10 ADD PUSH2 0x4399 JUMP JUMPDEST PUSH1 0x0 DUP1 PUSH1 0x0 PUSH1 0x60 DUP5 DUP7 SUB SLT ISZERO PUSH2 0x49F1 JUMPI PUSH1 0x0 DUP1 REVERT JUMPDEST DUP4 CALLDATALOAD PUSH2 0x49FC DUP2 PUSH2 0x41EE JUMP JUMPDEST SWAP6 PUSH1 0x20 DUP6 ADD CALLDATALOAD SWAP6 POP PUSH1 0x40 SWAP1 SWAP5 ADD CALLDATALOAD SWAP4 SWAP3 POP POP POP JUMP JUMPDEST PUSH1 0x1 DUP2 DUP2 SHR SWAP1 DUP3 AND DUP1 PUSH2 0x4A25 JUMPI PUSH1 0x7F DUP3 AND SWAP2 POP JUMPDEST PUSH1 0x20 DUP3 LT DUP2 SUB PUSH2 0x4A45 JUMPI PUSH4 0x4E487B71 PUSH1 0xE0 SHL PUSH1 0x0 MSTORE PUSH1 0x22 PUSH1 0x4 MSTORE PUSH1 0x24 PUSH1 0x0 REVERT JUMPDEST POP SWAP2 SWAP1 POP JUMP JUMPDEST PUSH1 0x20 DUP1 DUP3 MSTORE PUSH1 0x39 SWAP1 DUP3 ADD MSTORE PUSH32 0x4B495033375072657365744D696E7465725061757365723A206D757374206861 PUSH1 0x40 DUP3 ADD MSTORE PUSH32 0x76652070617573657220726F6C6520746F20756E706175736500000000000000 PUSH1 0x60 DUP3 ADD MSTORE PUSH1 0x80 ADD SWAP1 JUMP JUMPDEST PUSH4 0x4E487B71 PUSH1 0xE0 SHL PUSH1 0x0 MSTORE PUSH1 0x32 PUSH1 0x4 MSTORE PUSH1 0x24 PUSH1 0x0 REVERT JUMPDEST PUSH4 0x4E487B71 PUSH1 0xE0 SHL PUSH1 0x0 MSTORE PUSH1 0x11 PUSH1 0x4 MSTORE PUSH1 0x24 PUSH1 0x0 REVERT JUMPDEST PUSH1 0x0 PUSH1 0x1 DUP3 ADD PUSH2 0x4AE6 JUMPI PUSH2 0x4AE6 PUSH2 0x4ABE JUMP JUMPDEST POP PUSH1 0x1 ADD SWAP1 JUMP JUMPDEST PUSH1 0x20 DUP1 DUP3 MSTORE PUSH1 0x1E SWAP1 DUP3 ADD MSTORE PUSH32 0x4F776E6572526F6C653A2063616C6C6572206973206E6F74206F776E65720000 PUSH1 0x40 DUP3 ADD MSTORE PUSH1 0x60 ADD SWAP1 JUMP JUMPDEST PUSH1 0x20 DUP1 DUP3 MSTORE PUSH1 0x30 SWAP1 DUP3 ADD MSTORE PUSH32 0x4D696E746572526F6C653A2063616C6C657220646F6573206E6F742068617665 PUSH1 0x40 DUP3 ADD MSTORE PUSH16 0x20746865204D696E74657220726F6C65 PUSH1 0x80 SHL PUSH1 0x60 DUP3 ADD MSTORE PUSH1 0x80 ADD SWAP1 JUMP JUMPDEST PUSH1 0x20 DUP1 DUP3 MSTORE PUSH1 0x37 SWAP1 DUP3 ADD MSTORE PUSH32 0x4B495033375072657365744D696E7465725061757365723A206D757374206861 PUSH1 0x40 DUP3 ADD MSTORE PUSH32 0x76652070617573657220726F6C6520746F207061757365000000000000000000 PUSH1 0x60 DUP3 ADD MSTORE PUSH1 0x80 ADD SWAP1 JUMP JUMPDEST DUP2 DUP2 SUB DUP2 DUP2 GT ISZERO PUSH2 0x8E2 JUMPI PUSH2 0x8E2 PUSH2 0x4ABE JUMP JUMPDEST PUSH1 0x20 DUP1 DUP3 MSTORE PUSH1 0x27 SWAP1 DUP3 ADD MSTORE PUSH32 0x4B495033373A2063616C6C6572206973206E6F74206F776E6572206E6F722061 PUSH1 0x40 DUP3 ADD MSTORE PUSH7 0x1C1C1C9BDD9959 PUSH1 0xCA SHL PUSH1 0x60 DUP3 ADD MSTORE PUSH1 0x80 ADD SWAP1 JUMP JUMPDEST PUSH32 0x646174613A6170706C69636174696F6E2F6A736F6E3B6261736536342C000000 DUP2 MSTORE PUSH1 0x0 DUP3 MLOAD PUSH2 0x4C63 DUP2 PUSH1 0x1D DUP6 ADD PUSH1 0x20 DUP8 ADD PUSH2 0x4262 JUMP JUMPDEST SWAP2 SWAP1 SWAP2 ADD PUSH1 0x1D ADD SWAP3 SWAP2 POP POP JUMP JUMPDEST PUSH1 0x1F DUP3 GT ISZERO PUSH2 0xA74 JUMPI PUSH1 0x0 DUP2 DUP2 MSTORE PUSH1 0x20 DUP2 KECCAK256 PUSH1 0x1F DUP6 ADD PUSH1 0x5 SHR DUP2 ADD PUSH1 0x20 DUP7 LT ISZERO PUSH2 0x4C97 JUMPI POP DUP1 JUMPDEST PUSH1 0x1F DUP6 ADD PUSH1 0x5 SHR DUP3 ADD SWAP2 POP JUMPDEST DUP2 DUP2 LT ISZERO PUSH2 0x17E6 JUMPI DUP3 DUP2 SSTORE PUSH1 0x1 ADD PUSH2 0x4CA3 JUMP JUMPDEST DUP2 MLOAD PUSH1 0x1 PUSH1 0x1 PUSH1 0x40 SHL SUB DUP2 GT ISZERO PUSH2 0x4CCF JUMPI PUSH2 0x4CCF PUSH2 0x42C5 JUMP JUMPDEST PUSH2 0x4CE3 DUP2 PUSH2 0x4CDD DUP5 SLOAD PUSH2 0x4A11 JUMP JUMPDEST DUP5 PUSH2 0x4C70 JUMP JUMPDEST PUSH1 0x20 DUP1 PUSH1 0x1F DUP4 GT PUSH1 0x1 DUP2 EQ PUSH2 0x4D18 JUMPI PUSH1 0x0 DUP5 ISZERO PUSH2 0x4D00 JUMPI POP DUP6 DUP4 ADD MLOAD JUMPDEST PUSH1 0x0 NOT PUSH1 0x3 DUP7 SWAP1 SHL SHR NOT AND PUSH1 0x1 DUP6 SWAP1 SHL OR DUP6 SSTORE PUSH2 0x17E6 JUMP JUMPDEST PUSH1 0x0 DUP6 DUP2 MSTORE PUSH1 0x20 DUP2 KECCAK256 PUSH1 0x1F NOT DUP7 AND SWAP2 JUMPDEST DUP3 DUP2 LT ISZERO PUSH2 0x4D47 JUMPI DUP9 DUP7 ADD MLOAD DUP3 SSTORE SWAP5 DUP5 ADD SWAP5 PUSH1 0x1 SWAP1 SWAP2 ADD SWAP1 DUP5 ADD PUSH2 0x4D28 JUMP JUMPDEST POP DUP6 DUP3 LT ISZERO PUSH2 0x4D65 JUMPI DUP8 DUP6 ADD MLOAD PUSH1 0x0 NOT PUSH1 0x3 DUP9 SWAP1 SHL PUSH1 0xF8 AND SHR NOT AND DUP2 SSTORE JUMPDEST POP POP POP POP POP PUSH1 0x1 SWAP1 DUP2 SHL ADD SWAP1 SSTORE POP JUMP JUMPDEST PUSH1 0x0 DUP1 DUP5 SLOAD PUSH2 0x4D83 DUP2 PUSH2 0x4A11 JUMP JUMPDEST PUSH1 0x1 DUP3 DUP2 AND DUP1 ISZERO PUSH2 0x4D9B JUMPI PUSH1 0x1 DUP2 EQ PUSH2 0x4DB0 JUMPI PUSH2 0x4DDF JUMP JUMPDEST PUSH1 0xFF NOT DUP5 AND DUP8 MSTORE DUP3 ISZERO ISZERO DUP4 MUL DUP8 ADD SWAP5 POP PUSH2 0x4DDF JUMP JUMPDEST DUP9 PUSH1 0x0 MSTORE PUSH1 0x20 DUP1 PUSH1 0x0 KECCAK256 PUSH1 0x0 JUMPDEST DUP6 DUP2 LT ISZERO PUSH2 0x4DD6 JUMPI DUP2 SLOAD DUP11 DUP3 ADD MSTORE SWAP1 DUP5 ADD SWAP1 DUP3 ADD PUSH2 0x4DBD JUMP JUMPDEST POP POP POP DUP3 DUP8 ADD SWAP5 POP JUMPDEST POP POP POP POP DUP4 MLOAD PUSH2 0x4DF3 DUP2 DUP4 PUSH1 0x20 DUP9 ADD PUSH2 0x4262 JUMP JUMPDEST ADD SWAP5 SWAP4 POP POP POP POP JUMP JUMPDEST PUSH1 0x20 DUP1 DUP3 MSTORE PUSH1 0x26 SWAP1 DUP3 ADD MSTORE PUSH32 0x4B495033373A2069647320616E6420616D6F756E7473206C656E677468206D69 PUSH1 0x40 DUP3 ADD MSTORE PUSH6 0xE6DAC2E8C6D PUSH1 0xD3 SHL PUSH1 0x60 DUP3 ADD MSTORE PUSH1 0x80 ADD SWAP1 JUMP JUMPDEST PUSH1 0x20 DUP1 DUP3 MSTORE PUSH1 0x23 SWAP1 DUP3 ADD MSTORE PUSH32 0x4B495033373A207472616E7366657220746F20746865207A65726F2061646472 PUSH1 0x40 DUP3 ADD MSTORE PUSH3 0x657373 PUSH1 0xE8 SHL PUSH1 0x60 DUP3 ADD MSTORE PUSH1 0x80 ADD SWAP1 JUMP JUMPDEST PUSH1 0x20 DUP1 DUP3 MSTORE PUSH1 0x28 SWAP1 DUP3 ADD MSTORE PUSH32 0x4B495033373A20696E73756666696369656E742062616C616E636520666F7220 PUSH1 0x40 DUP3 ADD MSTORE PUSH8 0x3A3930B739B332B9 PUSH1 0xC1 SHL PUSH1 0x60 DUP3 ADD MSTORE PUSH1 0x80 ADD SWAP1 JUMP JUMPDEST DUP1 DUP3 ADD DUP1 DUP3 GT ISZERO PUSH2 0x8E2 JUMPI PUSH2 0x8E2 PUSH2 0x4ABE JUMP JUMPDEST PUSH1 0x0 DUP3 PUSH2 0x4EFD JUMPI PUSH4 0x4E487B71 PUSH1 0xE0 SHL PUSH1 0x0 MSTORE PUSH1 0x12 PUSH1 0x4 MSTORE PUSH1 0x24 PUSH1 0x0 REVERT JUMPDEST POP DIV SWAP1 JUMP JUMPDEST DUP1 DUP3 MUL DUP2 ISZERO DUP3 DUP3 DIV DUP5 EQ OR PUSH2 0x8E2 JUMPI PUSH2 0x8E2 PUSH2 0x4ABE JUMP JUMPDEST PUSH32 0x416363657373436F6E74726F6C3A206163636F756E7420000000000000000000 DUP2 MSTORE PUSH1 0x0 DUP4 MLOAD PUSH2 0x4F51 DUP2 PUSH1 0x17 DUP6 ADD PUSH1 0x20 DUP9 ADD PUSH2 0x4262 JUMP JUMPDEST PUSH17 0x1034B99036B4B9B9B4B733903937B6329 PUSH1 0x7D SHL PUSH1 0x17 SWAP2 DUP5 ADD SWAP2 DUP3 ADD MSTORE DUP4 MLOAD PUSH2 0x4F82 DUP2 PUSH1 0x28 DUP5 ADD PUSH1 0x20 DUP9 ADD PUSH2 0x4262 JUMP JUMPDEST ADD PUSH1 0x28 ADD SWAP5 SWAP4 POP POP POP POP JUMP JUMPDEST PUSH1 0x20 DUP1 DUP3 MSTORE PUSH1 0x21 SWAP1 DUP3 ADD MSTORE PUSH32 0x4B495033373A206275726E2066726F6D20746865207A65726F20616464726573 PUSH1 0x40 DUP3 ADD MSTORE PUSH1 0x73 PUSH1 0xF8 SHL PUSH1 0x60 DUP3 ADD MSTORE PUSH1 0x80 ADD SWAP1 JUMP JUMPDEST PUSH1 0x20 DUP1 DUP3 MSTORE PUSH1 0x22 SWAP1 DUP3 ADD MSTORE PUSH32 0x4B495033373A206275726E20616D6F756E7420657863656564732062616C616E PUSH1 0x40 DUP3 ADD MSTORE PUSH2 0x6365 PUSH1 0xF0 SHL PUSH1 0x60 DUP3 ADD MSTORE PUSH1 0x80 ADD SWAP1 JUMP JUMPDEST PUSH1 0x1 PUSH1 0x1 PUSH1 0xA0 SHL SUB DUP7 DUP2 AND DUP3 MSTORE DUP6 AND PUSH1 0x20 DUP3 ADD MSTORE PUSH1 0xA0 PUSH1 0x40 DUP3 ADD DUP2 SWAP1 MSTORE PUSH1 0x0 SWAP1 PUSH2 0x503D SWAP1 DUP4 ADD DUP7 PUSH2 0x46DE JUMP JUMPDEST DUP3 DUP2 SUB PUSH1 0x60 DUP5 ADD MSTORE PUSH2 0x504F DUP2 DUP7 PUSH2 0x46DE JUMP JUMPDEST SWAP1 POP DUP3 DUP2 SUB PUSH1 0x80 DUP5 ADD MSTORE PUSH2 0x5063 DUP2 DUP6 PUSH2 0x4286 JUMP JUMPDEST SWAP9 SWAP8 POP POP POP POP POP POP POP POP JUMP JUMPDEST PUSH1 0x0 PUSH1 0x20 DUP3 DUP5 SUB SLT ISZERO PUSH2 0x5081 JUMPI PUSH1 0x0 DUP1 REVERT JUMPDEST DUP2 MLOAD PUSH2 0xE61 DUP2 PUSH2 0x422F JUMP JUMPDEST PUSH1 0x0 DUP2 PUSH2 0x509B JUMPI PUSH2 0x509B PUSH2 0x4ABE JUMP JUMPDEST POP PUSH1 0x0 NOT ADD SWAP1 JUMP JUMPDEST PUSH4 0x4E487B71 PUSH1 0xE0 SHL PUSH1 0x0 MSTORE PUSH1 0x31 PUSH1 0x4 MSTORE PUSH1 0x24 PUSH1 0x0 REVERT JUMPDEST PUSH1 0x20 DUP1 DUP3 MSTORE PUSH1 0x15 SWAP1 DUP3 ADD MSTORE PUSH21 0x496E76616C696420696E707574206C656E67746873 PUSH1 0x58 SHL PUSH1 0x40 DUP3 ADD MSTORE PUSH1 0x60 ADD SWAP1 JUMP JUMPDEST PUSH1 0x20 DUP1 DUP3 MSTORE PUSH1 0x10 SWAP1 DUP3 ADD MSTORE PUSH16 0x125B9D985B1A59081D1BDAD95B881251 PUSH1 0x82 SHL PUSH1 0x40 DUP3 ADD MSTORE PUSH1 0x60 ADD SWAP1 JUMP JUMPDEST PUSH1 0x20 DUP1 DUP3 MSTORE PUSH1 0x14 SWAP1 DUP3 ADD MSTORE PUSH20 0x151BDAD95B88185B1C9958591E481B1BD8DAD959 PUSH1 0x62 SHL PUSH1 0x40 DUP3 ADD MSTORE PUSH1 0x60 ADD SWAP1 JUMP JUMPDEST PUSH1 0x20 DUP1 DUP3 MSTORE PUSH1 0x25 SWAP1 DUP3 ADD MSTORE PUSH32 0x546865206D6178696D756D206E756D62657220686173206265656E2065786365 PUSH1 0x40 DUP3 ADD MSTORE PUSH5 0x32B232B217 PUSH1 0xD9 SHL PUSH1 0x60 DUP3 ADD MSTORE PUSH1 0x80 ADD SWAP1 JUMP JUMPDEST PUSH1 0x1 PUSH1 0x1 PUSH1 0xA0 SHL SUB DUP7 DUP2 AND DUP3 MSTORE DUP6 AND PUSH1 0x20 DUP3 ADD MSTORE PUSH1 0x40 DUP2 ADD DUP5 SWAP1 MSTORE PUSH1 0x60 DUP2 ADD DUP4 SWAP1 MSTORE PUSH1 0xA0 PUSH1 0x80 DUP3 ADD DUP2 SWAP1 MSTORE PUSH1 0x0 SWAP1 PUSH2 0x51BF SWAP1 DUP4 ADD DUP5 PUSH2 0x4286 JUMP JUMPDEST SWAP8 SWAP7 POP POP POP POP POP POP POP JUMP JUMPDEST PUSH1 0x20 DUP1 DUP3 MSTORE PUSH1 0x2A SWAP1 DUP3 ADD MSTORE PUSH32 0x4B495033375061757361626C653A20746F6B656E207472616E73666572207768 PUSH1 0x40 DUP3 ADD MSTORE PUSH10 0x1A5B19481C185D5CD959 PUSH1 0xB2 SHL PUSH1 0x60 DUP3 ADD MSTORE PUSH1 0x80 ADD SWAP1 JUMP INVALID COINBASE TIMESTAMP NUMBER PREVRANDAO GASLIMIT CHAINID SELFBALANCE BASEFEE 0x49 0x4A 0x4B 0x4C 0x4D 0x4E 0x4F POP MLOAD MSTORE MSTORE8 SLOAD SSTORE JUMP JUMPI PC MSIZE GAS PUSH2 0x6263 PUSH5 0x6566676869 PUSH11 0x6B6C6D6E6F707172737475 PUSH23 0x7778797A303132333435363738392B2F69176E6A1211CC PUSH15 0xAC938139A9A70E4DD65F1B7D76E806 GASLIMIT SWAP15 PUSH27 0x34B759878E85A2646970667358221220921721B5DD69129BE1DAF4 ORIGIN 0xBE PUSH25 0x6C369B81FBE3C22144534577BAE2A8C4E3AE64736F6C634300 ADDMOD SGT STOP CALLER "
		},
		"gasEstimates": {
			"creation": {
				"codeDepositCost": "4232400",
				"executionCost": "infinite",
				"totalCost": "infinite"
			},
			"external": {
				"DEFAULT_ADMIN_ROLE()": "307",
				"PAUSER_ROLE()": "infinite",
				"_transferOwnership(address)": "infinite",
				"addMinter(address)": "infinite",
				"addPauser(address)": "infinite",
				"balanceOf(address,uint256)": "2773",
				"balanceOfBatch(address[],uint256[])": "infinite",
				"burn(address,uint256,uint256)": "infinite",
				"burnBatch(address,uint256[],uint256[])": "infinite",
				"contractURI()": "infinite",
				"create(uint256,uint256,string)": "infinite",
				"creators(uint256)": "2610",
				"getAllLockedTokensByAddress(address,uint256[])": "infinite",
				"getAllProcerssLockedByAddress(address,uint256[])": "infinite",
				"getRoleAdmin(bytes32)": "2579",
				"getRoleMember(bytes32,uint256)": "infinite",
				"getRoleMemberCount(bytes32)": "infinite",
				"grantRole(bytes32,address)": "infinite",
				"hasRole(bytes32,address)": "2744",
				"isApprovedForAll(address,address)": "infinite",
				"isMinter(address)": "infinite",
				"isOwner(address)": "2588",
				"isPauser(address)": "infinite",
				"isProcessLocked(uint256,address)": "2765",
				"isTokenLocked(uint256,address)": "2698",
				"lockTokens(address,uint256[],uint256[])": "infinite",
				"mint(uint256,address,uint256)": "infinite",
				"mint(uint256,address[],uint256[])": "infinite",
				"mintBatch(address,uint256[],uint256[])": "infinite",
				"name()": "infinite",
				"owner()": "2453",
				"pause()": "infinite",
				"pause(uint256)": "infinite",
				"paused()": "2421",
				"paused(uint256)": "2509",
				"processLockTokens(address,uint256[],uint256[])": "infinite",
				"processUnLockTokens(address,uint256[],uint256[])": "infinite",
				"renounceMinter()": "28053",
				"renounceOwnership()": "4743",
				"renouncePauser()": "28031",
				"renounceRole(bytes32,address)": "infinite",
				"revokeRole(bytes32,address)": "infinite",
				"safeBatchTransferFrom(address,address,uint256[],uint256[],bytes)": "infinite",
				"safeTransferFrom(address,address,uint256,uint256,bytes)": "infinite",
				"setApprovalForAll(address,bool)": "26811",
				"setBaseURI(string)": "infinite",
				"setContractMetadata(string)": "infinite",
				"setURI(uint256,string)": "infinite",
				"supportsInterface(bytes4)": "infinite",
				"symbol()": "infinite",
				"totalSupply(uint256)": "2527",
				"transferOwnership(address)": "infinite",
				"unLockTokens(address,uint256[],uint256[])": "infinite",
				"unpause()": "infinite",
				"unpause(uint256)": "infinite",
				"uri(uint256)": "infinite"
			},
			"internal": {
				"_beforeTokenTransfer(address,address,address,uint256[] memory,uint256[] memory,bytes memory)": "infinite",
				"_lockTokens(address,uint256[] calldata,uint256[] calldata)": "infinite",
				"_processLockTokens(address,uint256[] calldata,uint256[] calldata)": "infinite",
				"_processUnLockTokens(address,uint256[] calldata,uint256[] calldata)": "infinite",
				"_setBaseURI(string memory)": "infinite",
				"_setURI(uint256,string memory)": "infinite",
				"_unLockTokens(address,uint256[] calldata,uint256[] calldata)": "infinite"
			}
		},
		"methodIdentifiers": {
			"DEFAULT_ADMIN_ROLE()": "a217fddf",
			"PAUSER_ROLE()": "e63ab1e9",
			"_transferOwnership(address)": "d29d44ee",
			"addMinter(address)": "983b2d56",
			"addPauser(address)": "82dc1ec4",
			"balanceOf(address,uint256)": "00fdd58e",
			"balanceOfBatch(address[],uint256[])": "4e1273f4",
			"burn(address,uint256,uint256)": "f5298aca",
			"burnBatch(address,uint256[],uint256[])": "6b20c454",
			"contractURI()": "e8a3d485",
			"create(uint256,uint256,string)": "4b068c78",
			"creators(uint256)": "cd53d08e",
			"getAllLockedTokensByAddress(address,uint256[])": "ee51d26a",
			"getAllProcerssLockedByAddress(address,uint256[])": "a4949b18",
			"getRoleAdmin(bytes32)": "248a9ca3",
			"getRoleMember(bytes32,uint256)": "9010d07c",
			"getRoleMemberCount(bytes32)": "ca15c873",
			"grantRole(bytes32,address)": "2f2ff15d",
			"hasRole(bytes32,address)": "91d14854",
			"isApprovedForAll(address,address)": "e985e9c5",
			"isMinter(address)": "aa271e1a",
			"isOwner(address)": "2f54bf6e",
			"isPauser(address)": "46fbf68e",
			"isProcessLocked(uint256,address)": "6e1c1cbb",
			"isTokenLocked(uint256,address)": "b56cf84f",
			"lockTokens(address,uint256[],uint256[])": "e86e2f6d",
			"mint(uint256,address,uint256)": "836a1040",
			"mint(uint256,address[],uint256[])": "cfa84fc1",
			"mintBatch(address,uint256[],uint256[])": "d81d0a15",
			"name()": "06fdde03",
			"owner()": "8da5cb5b",
			"pause()": "8456cb59",
			"pause(uint256)": "136439dd",
			"paused()": "5c975abb",
			"paused(uint256)": "00dde10e",
			"processLockTokens(address,uint256[],uint256[])": "415b1be4",
			"processUnLockTokens(address,uint256[],uint256[])": "afc58715",
			"renounceMinter()": "98650275",
			"renounceOwnership()": "715018a6",
			"renouncePauser()": "6ef8d66d",
			"renounceRole(bytes32,address)": "36568abe",
			"revokeRole(bytes32,address)": "d547741f",
			"safeBatchTransferFrom(address,address,uint256[],uint256[],bytes)": "2eb2c2d6",
			"safeTransferFrom(address,address,uint256,uint256,bytes)": "f242432a",
			"setApprovalForAll(address,bool)": "a22cb465",
			"setBaseURI(string)": "55f804b3",
			"setContractMetadata(string)": "fce55037",
			"setURI(uint256,string)": "862440e2",
			"supportsInterface(bytes4)": "01ffc9a7",
			"symbol()": "95d89b41",
			"totalSupply(uint256)": "bd85b039",
			"transferOwnership(address)": "f2fde38b",
			"unLockTokens(address,uint256[],uint256[])": "3efd85d3",
			"unpause()": "3f4ba83a",
			"unpause(uint256)": "fabc1cbc",
			"uri(uint256)": "0e89341c"
		}
	},
	"abi": [
		{
			"inputs": [
				{
					"internalType": "address payable",
					"name": "owner",
					"type": "address"
				},
				{
					"internalType": "string",
					"name": "name",
					"type": "string"
				},
				{
					"internalType": "string",
					"name": "symbol",
					"type": "string"
				}
			],
			"stateMutability": "nonpayable",
			"type": "constructor"
		},
		{
			"anonymous": false,
			"inputs": [
				{
					"indexed": true,
					"internalType": "address",
					"name": "owner",
					"type": "address"
				},
				{
					"indexed": true,
					"internalType": "address",
					"name": "operator",
					"type": "address"
				},
				{
					"indexed": false,
					"internalType": "bool",
					"name": "approved",
					"type": "bool"
				}
			],
			"name": "ApprovalForAll",
			"type": "event"
		},
		{
			"anonymous": false,
			"inputs": [
				{
					"indexed": true,
					"internalType": "address",
					"name": "account",
					"type": "address"
				}
			],
			"name": "MinterAdded",
			"type": "event"
		},
		{
			"anonymous": false,
			"inputs": [
				{
					"indexed": true,
					"internalType": "address",
					"name": "account",
					"type": "address"
				}
			],
			"name": "MinterRemoved",
			"type": "event"
		},
		{
			"anonymous": false,
			"inputs": [
				{
					"indexed": true,
					"internalType": "address",
					"name": "previousOwner",
					"type": "address"
				},
				{
					"indexed": true,
					"internalType": "address",
					"name": "newOwner",
					"type": "address"
				}
			],
			"name": "OwnershipTransferred",
			"type": "event"
		},
		{
			"anonymous": false,
			"inputs": [
				{
					"indexed": false,
					"internalType": "address",
					"name": "account",
					"type": "address"
				}
			],
			"name": "Paused",
			"type": "event"
		},
		{
			"anonymous": false,
			"inputs": [
				{
					"indexed": true,
					"internalType": "address",
					"name": "account",
					"type": "address"
				}
			],
			"name": "PauserAdded",
			"type": "event"
		},
		{
			"anonymous": false,
			"inputs": [
				{
					"indexed": true,
					"internalType": "address",
					"name": "account",
					"type": "address"
				}
			],
			"name": "PauserRemoved",
			"type": "event"
		},
		{
			"anonymous": false,
			"inputs": [
				{
					"indexed": true,
					"internalType": "bytes32",
					"name": "role",
					"type": "bytes32"
				},
				{
					"indexed": true,
					"internalType": "bytes32",
					"name": "previousAdminRole",
					"type": "bytes32"
				},
				{
					"indexed": true,
					"internalType": "bytes32",
					"name": "newAdminRole",
					"type": "bytes32"
				}
			],
			"name": "RoleAdminChanged",
			"type": "event"
		},
		{
			"anonymous": false,
			"inputs": [
				{
					"indexed": true,
					"internalType": "bytes32",
					"name": "role",
					"type": "bytes32"
				},
				{
					"indexed": true,
					"internalType": "address",
					"name": "account",
					"type": "address"
				},
				{
					"indexed": true,
					"internalType": "address",
					"name": "sender",
					"type": "address"
				}
			],
			"name": "RoleGranted",
			"type": "event"
		},
		{
			"anonymous": false,
			"inputs": [
				{
					"indexed": true,
					"internalType": "bytes32",
					"name": "role",
					"type": "bytes32"
				},
				{
					"indexed": true,
					"internalType": "address",
					"name": "account",
					"type": "address"
				},
				{
					"indexed": true,
					"internalType": "address",
					"name": "sender",
					"type": "address"
				}
			],
			"name": "RoleRevoked",
			"type": "event"
		},
		{
			"anonymous": false,
			"inputs": [
				{
					"indexed": false,
					"internalType": "address",
					"name": "account",
					"type": "address"
				},
				{
					"indexed": false,
					"internalType": "uint256",
					"name": "id",
					"type": "uint256"
				}
			],
			"name": "TokenPaused",
			"type": "event"
		},
		{
			"anonymous": false,
			"inputs": [
				{
					"indexed": false,
					"internalType": "address",
					"name": "account",
					"type": "address"
				},
				{
					"indexed": false,
					"internalType": "uint256",
					"name": "id",
					"type": "uint256"
				}
			],
			"name": "TokenUnpaused",
			"type": "event"
		},
		{
			"anonymous": false,
			"inputs": [
				{
					"indexed": true,
					"internalType": "address",
					"name": "operator",
					"type": "address"
				},
				{
					"indexed": true,
					"internalType": "address",
					"name": "from",
					"type": "address"
				},
				{
					"indexed": true,
					"internalType": "address",
					"name": "to",
					"type": "address"
				},
				{
					"indexed": false,
					"internalType": "uint256[]",
					"name": "ids",
					"type": "uint256[]"
				},
				{
					"indexed": false,
					"internalType": "uint256[]",
					"name": "amounts",
					"type": "uint256[]"
				}
			],
			"name": "TransferBatch",
			"type": "event"
		},
		{
			"anonymous": false,
			"inputs": [
				{
					"indexed": true,
					"internalType": "address",
					"name": "operator",
					"type": "address"
				},
				{
					"indexed": true,
					"internalType": "address",
					"name": "from",
					"type": "address"
				},
				{
					"indexed": true,
					"internalType": "address",
					"name": "to",
					"type": "address"
				},
				{
					"indexed": false,
					"internalType": "uint256",
					"name": "id",
					"type": "uint256"
				},
				{
					"indexed": false,
					"internalType": "uint256",
					"name": "amount",
					"type": "uint256"
				}
			],
			"name": "TransferSingle",
			"type": "event"
		},
		{
			"anonymous": false,
			"inputs": [
				{
					"indexed": false,
					"internalType": "string",
					"name": "value",
					"type": "string"
				},
				{
					"indexed": true,
					"internalType": "uint256",
					"name": "id",
					"type": "uint256"
				}
			],
			"name": "URI",
			"type": "event"
		},
		{
			"anonymous": false,
			"inputs": [
				{
					"indexed": false,
					"internalType": "address",
					"name": "account",
					"type": "address"
				}
			],
			"name": "Unpaused",
			"type": "event"
		},
		{
			"inputs": [],
			"name": "DEFAULT_ADMIN_ROLE",
			"outputs": [
				{
					"internalType": "bytes32",
					"name": "",
					"type": "bytes32"
				}
			],
			"stateMutability": "view",
			"type": "function"
		},
		{
			"inputs": [],
			"name": "PAUSER_ROLE",
			"outputs": [
				{
					"internalType": "bytes32",
					"name": "",
					"type": "bytes32"
				}
			],
			"stateMutability": "view",
			"type": "function"
		},
		{
			"inputs": [
				{
					"internalType": "address payable",
					"name": "newOwner",
					"type": "address"
				}
			],
			"name": "_transferOwnership",
			"outputs": [],
			"stateMutability": "nonpayable",
			"type": "function"
		},
		{
			"inputs": [
				{
					"internalType": "address",
					"name": "account",
					"type": "address"
				}
			],
			"name": "addMinter",
			"outputs": [],
			"stateMutability": "nonpayable",
			"type": "function"
		},
		{
			"inputs": [
				{
					"internalType": "address",
					"name": "account",
					"type": "address"
				}
			],
			"name": "addPauser",
			"outputs": [],
			"stateMutability": "nonpayable",
			"type": "function"
		},
		{
			"inputs": [
				{
					"internalType": "address",
					"name": "owner",
					"type": "address"
				},
				{
					"internalType": "uint256",
					"name": "id",
					"type": "uint256"
				}
			],
			"name": "balanceOf",
			"outputs": [
				{
					"internalType": "uint256",
					"name": "",
					"type": "uint256"
				}
			],
			"stateMutability": "view",
			"type": "function"
		},
		{
			"inputs": [
				{
					"internalType": "address[]",
					"name": "owners",
					"type": "address[]"
				},
				{
					"internalType": "uint256[]",
					"name": "ids",
					"type": "uint256[]"
				}
			],
			"name": "balanceOfBatch",
			"outputs": [
				{
					"internalType": "uint256[]",
					"name": "",
					"type": "uint256[]"
				}
			],
			"stateMutability": "view",
			"type": "function"
		},
		{
			"inputs": [
				{
					"internalType": "address",
					"name": "to",
					"type": "address"
				},
				{
					"internalType": "uint256",
					"name": "tokenId",
					"type": "uint256"
				},
				{
					"internalType": "uint256",
					"name": "amount",
					"type": "uint256"
				}
			],
			"name": "burn",
			"outputs": [],
			"stateMutability": "nonpayable",
			"type": "function"
		},
		{
			"inputs": [
				{
					"internalType": "address",
					"name": "to",
					"type": "address"
				},
				{
					"internalType": "uint256[]",
					"name": "tokenIds",
					"type": "uint256[]"
				},
				{
					"internalType": "uint256[]",
					"name": "amounts",
					"type": "uint256[]"
				}
			],
			"name": "burnBatch",
			"outputs": [],
			"stateMutability": "nonpayable",
			"type": "function"
		},
		{
			"inputs": [],
			"name": "contractURI",
			"outputs": [
				{
					"internalType": "string",
					"name": "",
					"type": "string"
				}
			],
			"stateMutability": "view",
			"type": "function"
		},
		{
			"inputs": [
				{
					"internalType": "uint256",
					"name": "id",
					"type": "uint256"
				},
				{
					"internalType": "uint256",
					"name": "initialSupply",
					"type": "uint256"
				},
				{
					"internalType": "string",
					"name": "uri_",
					"type": "string"
				}
			],
			"name": "create",
			"outputs": [
				{
					"internalType": "bool",
					"name": "",
					"type": "bool"
				}
			],
			"stateMutability": "nonpayable",
			"type": "function"
		},
		{
			"inputs": [
				{
					"internalType": "uint256",
					"name": "",
					"type": "uint256"
				}
			],
			"name": "creators",
			"outputs": [
				{
					"internalType": "address",
					"name": "",
					"type": "address"
				}
			],
			"stateMutability": "view",
			"type": "function"
		},
		{
			"inputs": [
				{
					"internalType": "address",
					"name": "_addr",
					"type": "address"
				},
				{
					"internalType": "uint256[]",
					"name": "tokenIds",
					"type": "uint256[]"
				}
			],
			"name": "getAllLockedTokensByAddress",
			"outputs": [
				{
					"internalType": "uint256[]",
					"name": "",
					"type": "uint256[]"
				},
				{
					"internalType": "uint256[]",
					"name": "",
					"type": "uint256[]"
				}
			],
			"stateMutability": "view",
			"type": "function"
		},
		{
			"inputs": [
				{
					"internalType": "address",
					"name": "_addr",
					"type": "address"
				},
				{
					"internalType": "uint256[]",
					"name": "tokenIds",
					"type": "uint256[]"
				}
			],
			"name": "getAllProcerssLockedByAddress",
			"outputs": [
				{
					"internalType": "uint256[]",
					"name": "",
					"type": "uint256[]"
				},
				{
					"internalType": "uint256[]",
					"name": "",
					"type": "uint256[]"
				}
			],
			"stateMutability": "view",
			"type": "function"
		},
		{
			"inputs": [
				{
					"internalType": "bytes32",
					"name": "role",
					"type": "bytes32"
				}
			],
			"name": "getRoleAdmin",
			"outputs": [
				{
					"internalType": "bytes32",
					"name": "",
					"type": "bytes32"
				}
			],
			"stateMutability": "view",
			"type": "function"
		},
		{
			"inputs": [
				{
					"internalType": "bytes32",
					"name": "role",
					"type": "bytes32"
				},
				{
					"internalType": "uint256",
					"name": "index",
					"type": "uint256"
				}
			],
			"name": "getRoleMember",
			"outputs": [
				{
					"internalType": "address",
					"name": "",
					"type": "address"
				}
			],
			"stateMutability": "view",
			"type": "function"
		},
		{
			"inputs": [
				{
					"internalType": "bytes32",
					"name": "role",
					"type": "bytes32"
				}
			],
			"name": "getRoleMemberCount",
			"outputs": [
				{
					"internalType": "uint256",
					"name": "",
					"type": "uint256"
				}
			],
			"stateMutability": "view",
			"type": "function"
		},
		{
			"inputs": [
				{
					"internalType": "bytes32",
					"name": "role",
					"type": "bytes32"
				},
				{
					"internalType": "address",
					"name": "account",
					"type": "address"
				}
			],
			"name": "grantRole",
			"outputs": [],
			"stateMutability": "nonpayable",
			"type": "function"
		},
		{
			"inputs": [
				{
					"internalType": "bytes32",
					"name": "role",
					"type": "bytes32"
				},
				{
					"internalType": "address",
					"name": "account",
					"type": "address"
				}
			],
			"name": "hasRole",
			"outputs": [
				{
					"internalType": "bool",
					"name": "",
					"type": "bool"
				}
			],
			"stateMutability": "view",
			"type": "function"
		},
		{
			"inputs": [
				{
					"internalType": "address",
					"name": "owner",
					"type": "address"
				},
				{
					"internalType": "address",
					"name": "operator",
					"type": "address"
				}
			],
			"name": "isApprovedForAll",
			"outputs": [
				{
					"internalType": "bool",
					"name": "",
					"type": "bool"
				}
			],
			"stateMutability": "view",
			"type": "function"
		},
		{
			"inputs": [
				{
					"internalType": "address",
					"name": "account",
					"type": "address"
				}
			],
			"name": "isMinter",
			"outputs": [
				{
					"internalType": "bool",
					"name": "",
					"type": "bool"
				}
			],
			"stateMutability": "view",
			"type": "function"
		},
		{
			"inputs": [
				{
					"internalType": "address",
					"name": "account",
					"type": "address"
				}
			],
			"name": "isOwner",
			"outputs": [
				{
					"internalType": "bool",
					"name": "",
					"type": "bool"
				}
			],
			"stateMutability": "view",
			"type": "function"
		},
		{
			"inputs": [
				{
					"internalType": "address",
					"name": "account",
					"type": "address"
				}
			],
			"name": "isPauser",
			"outputs": [
				{
					"internalType": "bool",
					"name": "",
					"type": "bool"
				}
			],
			"stateMutability": "view",
			"type": "function"
		},
		{
			"inputs": [
				{
					"internalType": "uint256",
					"name": "tokenId",
					"type": "uint256"
				},
				{
					"internalType": "address",
					"name": "owner",
					"type": "address"
				}
			],
			"name": "isProcessLocked",
			"outputs": [
				{
					"internalType": "uint256",
					"name": "",
					"type": "uint256"
				}
			],
			"stateMutability": "view",
			"type": "function"
		},
		{
			"inputs": [
				{
					"internalType": "uint256",
					"name": "tokenId",
					"type": "uint256"
				},
				{
					"internalType": "address",
					"name": "owner",
					"type": "address"
				}
			],
			"name": "isTokenLocked",
			"outputs": [
				{
					"internalType": "uint256",
					"name": "",
					"type": "uint256"
				}
			],
			"stateMutability": "view",
			"type": "function"
		},
		{
			"inputs": [
				{
					"internalType": "address",
					"name": "owner",
					"type": "address"
				},
				{
					"internalType": "uint256[]",
					"name": "tokenIds",
					"type": "uint256[]"
				},
				{
					"internalType": "uint256[]",
					"name": "amounts",
					"type": "uint256[]"
				}
			],
			"name": "lockTokens",
			"outputs": [],
			"stateMutability": "nonpayable",
			"type": "function"
		},
		{
			"inputs": [
				{
					"internalType": "uint256",
					"name": "id",
					"type": "uint256"
				},
				{
					"internalType": "address",
					"name": "to",
					"type": "address"
				},
				{
					"internalType": "uint256",
					"name": "amount",
					"type": "uint256"
				}
			],
			"name": "mint",
			"outputs": [],
			"stateMutability": "nonpayable",
			"type": "function"
		},
		{
			"inputs": [
				{
					"internalType": "uint256",
					"name": "id",
					"type": "uint256"
				},
				{
					"internalType": "address[]",
					"name": "toList",
					"type": "address[]"
				},
				{
					"internalType": "uint256[]",
					"name": "amounts",
					"type": "uint256[]"
				}
			],
			"name": "mint",
			"outputs": [],
			"stateMutability": "nonpayable",
			"type": "function"
		},
		{
			"inputs": [
				{
					"internalType": "address",
					"name": "to",
					"type": "address"
				},
				{
					"internalType": "uint256[]",
					"name": "tokenIds",
					"type": "uint256[]"
				},
				{
					"internalType": "uint256[]",
					"name": "amounts",
					"type": "uint256[]"
				}
			],
			"name": "mintBatch",
			"outputs": [],
			"stateMutability": "nonpayable",
			"type": "function"
		},
		{
			"inputs": [],
			"name": "name",
			"outputs": [
				{
					"internalType": "string",
					"name": "",
					"type": "string"
				}
			],
			"stateMutability": "view",
			"type": "function"
		},
		{
			"inputs": [],
			"name": "owner",
			"outputs": [
				{
					"internalType": "address",
					"name": "",
					"type": "address"
				}
			],
			"stateMutability": "view",
			"type": "function"
		},
		{
			"inputs": [
				{
					"internalType": "uint256",
					"name": "tokenId",
					"type": "uint256"
				}
			],
			"name": "pause",
			"outputs": [],
			"stateMutability": "nonpayable",
			"type": "function"
		},
		{
			"inputs": [],
			"name": "pause",
			"outputs": [],
			"stateMutability": "nonpayable",
			"type": "function"
		},
		{
			"inputs": [
				{
					"internalType": "uint256",
					"name": "id",
					"type": "uint256"
				}
			],
			"name": "paused",
			"outputs": [
				{
					"internalType": "bool",
					"name": "",
					"type": "bool"
				}
			],
			"stateMutability": "view",
			"type": "function"
		},
		{
			"inputs": [],
			"name": "paused",
			"outputs": [
				{
					"internalType": "bool",
					"name": "",
					"type": "bool"
				}
			],
			"stateMutability": "view",
			"type": "function"
		},
		{
			"inputs": [
				{
					"internalType": "address",
					"name": "owner",
					"type": "address"
				},
				{
					"internalType": "uint256[]",
					"name": "tokenIds",
					"type": "uint256[]"
				},
				{
					"internalType": "uint256[]",
					"name": "amounts",
					"type": "uint256[]"
				}
			],
			"name": "processLockTokens",
			"outputs": [],
			"stateMutability": "nonpayable",
			"type": "function"
		},
		{
			"inputs": [
				{
					"internalType": "address",
					"name": "owner",
					"type": "address"
				},
				{
					"internalType": "uint256[]",
					"name": "tokenIds",
					"type": "uint256[]"
				},
				{
					"internalType": "uint256[]",
					"name": "amounts",
					"type": "uint256[]"
				}
			],
			"name": "processUnLockTokens",
			"outputs": [],
			"stateMutability": "nonpayable",
			"type": "function"
		},
		{
			"inputs": [],
			"name": "renounceMinter",
			"outputs": [],
			"stateMutability": "nonpayable",
			"type": "function"
		},
		{
			"inputs": [],
			"name": "renounceOwnership",
			"outputs": [],
			"stateMutability": "nonpayable",
			"type": "function"
		},
		{
			"inputs": [],
			"name": "renouncePauser",
			"outputs": [],
			"stateMutability": "nonpayable",
			"type": "function"
		},
		{
			"inputs": [
				{
					"internalType": "bytes32",
					"name": "role",
					"type": "bytes32"
				},
				{
					"internalType": "address",
					"name": "account",
					"type": "address"
				}
			],
			"name": "renounceRole",
			"outputs": [],
			"stateMutability": "nonpayable",
			"type": "function"
		},
		{
			"inputs": [
				{
					"internalType": "bytes32",
					"name": "role",
					"type": "bytes32"
				},
				{
					"internalType": "address",
					"name": "account",
					"type": "address"
				}
			],
			"name": "revokeRole",
			"outputs": [],
			"stateMutability": "nonpayable",
			"type": "function"
		},
		{
			"inputs": [
				{
					"internalType": "address",
					"name": "from",
					"type": "address"
				},
				{
					"internalType": "address",
					"name": "to",
					"type": "address"
				},
				{
					"internalType": "uint256[]",
					"name": "ids",
					"type": "uint256[]"
				},
				{
					"internalType": "uint256[]",
					"name": "amounts",
					"type": "uint256[]"
				},
				{
					"internalType": "bytes",
					"name": "data",
					"type": "bytes"
				}
			],
			"name": "safeBatchTransferFrom",
			"outputs": [],
			"stateMutability": "nonpayable",
			"type": "function"
		},
		{
			"inputs": [
				{
					"internalType": "address",
					"name": "from",
					"type": "address"
				},
				{
					"internalType": "address",
					"name": "to",
					"type": "address"
				},
				{
					"internalType": "uint256",
					"name": "id",
					"type": "uint256"
				},
				{
					"internalType": "uint256",
					"name": "amount",
					"type": "uint256"
				},
				{
					"internalType": "bytes",
					"name": "data",
					"type": "bytes"
				}
			],
			"name": "safeTransferFrom",
			"outputs": [],
			"stateMutability": "nonpayable",
			"type": "function"
		},
		{
			"inputs": [
				{
					"internalType": "address",
					"name": "operator",
					"type": "address"
				},
				{
					"internalType": "bool",
					"name": "approved",
					"type": "bool"
				}
			],
			"name": "setApprovalForAll",
			"outputs": [],
			"stateMutability": "nonpayable",
			"type": "function"
		},
		{
			"inputs": [
				{
					"internalType": "string",
					"name": "baseURI",
					"type": "string"
				}
			],
			"name": "setBaseURI",
			"outputs": [],
			"stateMutability": "nonpayable",
			"type": "function"
		},
		{
			"inputs": [
				{
					"internalType": "string",
					"name": "contractMetadata",
					"type": "string"
				}
			],
			"name": "setContractMetadata",
			"outputs": [],
			"stateMutability": "nonpayable",
			"type": "function"
		},
		{
			"inputs": [
				{
					"internalType": "uint256",
					"name": "tokenId",
					"type": "uint256"
				},
				{
					"internalType": "string",
					"name": "tokenURI",
					"type": "string"
				}
			],
			"name": "setURI",
			"outputs": [],
			"stateMutability": "nonpayable",
			"type": "function"
		},
		{
			"inputs": [
				{
					"internalType": "bytes4",
					"name": "interfaceId",
					"type": "bytes4"
				}
			],
			"name": "supportsInterface",
			"outputs": [
				{
					"internalType": "bool",
					"name": "",
					"type": "bool"
				}
			],
			"stateMutability": "view",
			"type": "function"
		},
		{
			"inputs": [],
			"name": "symbol",
			"outputs": [
				{
					"internalType": "string",
					"name": "",
					"type": "string"
				}
			],
			"stateMutability": "view",
			"type": "function"
		},
		{
			"inputs": [
				{
					"internalType": "uint256",
					"name": "id",
					"type": "uint256"
				}
			],
			"name": "totalSupply",
			"outputs": [
				{
					"internalType": "uint256",
					"name": "",
					"type": "uint256"
				}
			],
			"stateMutability": "view",
			"type": "function"
		},
		{
			"inputs": [
				{
					"internalType": "address payable",
					"name": "newOwner",
					"type": "address"
				}
			],
			"name": "transferOwnership",
			"outputs": [],
			"stateMutability": "nonpayable",
			"type": "function"
		},
		{
			"inputs": [
				{
					"internalType": "address",
					"name": "owner",
					"type": "address"
				},
				{
					"internalType": "uint256[]",
					"name": "tokenIds",
					"type": "uint256[]"
				},
				{
					"internalType": "uint256[]",
					"name": "amounts",
					"type": "uint256[]"
				}
			],
			"name": "unLockTokens",
			"outputs": [],
			"stateMutability": "nonpayable",
			"type": "function"
		},
		{
			"inputs": [],
			"name": "unpause",
			"outputs": [],
			"stateMutability": "nonpayable",
			"type": "function"
		},
		{
			"inputs": [
				{
					"internalType": "uint256",
					"name": "tokenId",
					"type": "uint256"
				}
			],
			"name": "unpause",
			"outputs": [],
			"stateMutability": "nonpayable",
			"type": "function"
		},
		{
			"inputs": [
				{
					"internalType": "uint256",
					"name": "tokenId",
					"type": "uint256"
				}
			],
			"name": "uri",
			"outputs": [
				{
					"internalType": "string",
					"name": "",
					"type": "string"
				}
			],
			"stateMutability": "view",
			"type": "function"
		}
	]
}