{
	"data": {
		"bytecode": {
			"linkReferences": {},
			"object": "608060405234801561001057600080fd5b50611b75806100206000396000f3fe608060405234801561001057600080fd5b50600436106100ce5760003560e01c8063a22cb4651161008c578063bd85b03911610066578063bd85b0391461020b578063e985e9c51461022b578063ee51d26a14610267578063f242432a1461027a57600080fd5b8063a22cb465146101a4578063a4949b18146101b7578063b56cf84f146101d857600080fd5b8062fdd58e146100d357806301ffc9a7146100f95780630e89341c1461011c5780632eb2c2d61461013c5780634e1273f4146101515780636e1c1cbb14610171575b600080fd5b6100e66100e136600461140f565b61028d565b6040519081526020015b60405180910390f35b61010c610107366004611452565b610324565b60405190151581526020016100f0565b61012f61012a366004611476565b610374565b6040516100f091906114d5565b61014f61014a36600461162e565b610408565b005b61016461015f3660046116d8565b61049d565b6040516100f091906117d3565b6100e661017f3660046117e6565b6001600160a01b03166000908152600460209081526040808320938352929052205490565b61014f6101b2366004611812565b6105c3565b6101ca6101c536600461184e565b6105d2565b6040516100f0929190611892565b6100e66101e63660046117e6565b6001600160a01b03166000908152600360209081526040808320938352929052205490565b6100e6610219366004611476565b60009081526001602052604090205490565b61010c6102393660046118c0565b6001600160a01b03918216600090815260026020908152604080832093909416825291909152205460ff1690565b6101ca61027536600461184e565b610691565b61014f6102883660046118ea565b610737565b60006001600160a01b0383166102fb5760405162461bcd60e51b815260206004820152602860248201527f4b495033373a2061646472657373207a65726f206973206e6f7420612076616c60448201526734b21037bbb732b960c11b60648201526084015b60405180910390fd5b506000818152602081815260408083206001600160a01b03861684529091529020545b92915050565b60006001600160e01b03198216636433ca1f60e01b148061035557506001600160e01b031982166303a24d0760e21b145b8061031e57506301ffc9a760e01b6001600160e01b031983161461031e565b6060600580546103839061194f565b80601f01602080910402602001604051908101604052809291908181526020018280546103af9061194f565b80156103fc5780601f106103d1576101008083540402835291602001916103fc565b820191906000526020600020905b8154815290600101906020018083116103df57829003601f168201915b50505050509050919050565b6001600160a01b03851633148061042457506104248533610239565b6104895760405162461bcd60e51b815260206004820152603060248201527f4b495033373a207472616e736665722063616c6c6572206973206e6f74206f7760448201526f1b995c881b9bdc88185c1c1c9bdd995960821b60648201526084016102f2565b61049685858585856107bc565b5050505050565b606081518351146104fe5760405162461bcd60e51b815260206004820152602560248201527f4b495033373a206f776e65727320616e6420696473206c656e677468206d69736044820152640dac2e8c6d60db1b60648201526084016102f2565b6000835167ffffffffffffffff81111561051a5761051a6114e8565b604051908082528060200260200182016040528015610543578160200160208202803683370190505b50905060005b84518110156105bb5761058e85828151811061056757610567611989565b602002602001015185838151811061058157610581611989565b602002602001015161028d565b8282815181106105a0576105a0611989565b60209081029190910101526105b4816119b5565b9050610549565b509392505050565b6105ce3383836109a5565b5050565b60608060608060005b600186516105e991906119ce565b811015610685576001600160a01b03871660009081526004602052604081208751829089908590811061061e5761061e611989565b602002602001015181526020019081526020016000205490506000811115610672576106638488848151811061065657610656611989565b6020026020010151610a83565b935061066f8382610a83565b92505b508061067d816119b5565b9150506105db565b50909590945092505050565b60608060608060005b600186516106a891906119ce565b811015610685576001600160a01b0387166000908152600360205260408120875182908990859081106106dd576106dd611989565b602002602001015181526020019081526020016000205490506000811115610724576107158488848151811061065657610656611989565b93506107218382610a83565b92505b508061072f816119b5565b91505061069a565b6001600160a01b03851633148061075357506107538533610239565b6107af5760405162461bcd60e51b815260206004820152602760248201527f4b495033373a2063616c6c6572206973206e6f74206f776e6572206e6f7220616044820152661c1c1c9bdd995960ca1b60648201526084016102f2565b6104968585858585610b55565b815183511461081c5760405162461bcd60e51b815260206004820152602660248201527f4b495033373a2069647320616e6420616d6f756e7473206c656e677468206d696044820152650e6dac2e8c6d60d31b60648201526084016102f2565b6001600160a01b0384166108425760405162461bcd60e51b81526004016102f2906119e1565b33610851818787878787610c8d565b60005b845181101561093757600085828151811061087157610871611989565b60200260200101519050600085838151811061088f5761088f611989565b602090810291909101810151600084815280835260408082206001600160a01b038e1683529093529190912054909150818110156108df5760405162461bcd60e51b81526004016102f290611a24565b6000838152602081815260408083206001600160a01b038e8116855292528083208585039055908b1682528120805484929061091c908490611a6c565b9250508190555050505080610930906119b5565b9050610854565b50846001600160a01b0316866001600160a01b0316826001600160a01b03167f4a39dc06d4c0dbc64b70af90fd698a233a518aa5d07e595d983b8c0526c8f7fb8787604051610987929190611892565b60405180910390a461099d818787878787610f94565b505050505050565b816001600160a01b0316836001600160a01b031603610a165760405162461bcd60e51b815260206004820152602760248201527f4b495033373a2073657474696e6720617070726f76616c20737461747573206660448201526637b91039b2b63360c91b60648201526084016102f2565b6001600160a01b03838116600081815260026020908152604080832094871680845294825291829020805460ff191686151590811790915591519182527f17307eab39ab6107e8899845ad3d59bd9653f200f220920489ca2b5937696c31910160405180910390a3505050565b6060600083516001610a959190611a6c565b67ffffffffffffffff811115610aad57610aad6114e8565b604051908082528060200260200182016040528015610ad6578160200160208202803683370190505b50905060005b8451811015610b2e57848181518110610af757610af7611989565b6020026020010151828281518110610b1157610b11611989565b602090810291909101015280610b26816119b5565b915050610adc565b508281855181518110610b4357610b43611989565b60209081029190910101529392505050565b6001600160a01b038416610b7b5760405162461bcd60e51b81526004016102f2906119e1565b336000610b8785611033565b90506000610b9485611033565b9050610ba4838989858589610c8d565b6000868152602081815260408083206001600160a01b038c16845290915290205485811015610be55760405162461bcd60e51b81526004016102f290611a24565b6000878152602081815260408083206001600160a01b038d8116855292528083208985039055908a16825281208054889290610c22908490611a6c565b909155505060408051888152602081018890526001600160a01b03808b16928c821692918816917fc3d58168c5ae7397731d063d5bbf3d657854427343f4c083240f7aacaa2d0f62910160405180910390a4610c82848a8a8a8a8a61107e565b505050505050505050565b60005b8351811015610e13576001600160a01b038616600090815260046020526040812085518290879085908110610cc757610cc7611989565b602002602001015181526020019081526020016000205460036000896001600160a01b03166001600160a01b031681526020019081526020016000206000878581518110610d1757610d17611989565b6020026020010151815260200190815260200160002054610d389190611a6c565b600080878581518110610d4d57610d4d611989565b602002602001015181526020019081526020016000206000896001600160a01b03166001600160a01b0316815260200190815260200160002054610d9191906119ce565b90506001600160a01b03871615801590610dc35750838281518110610db857610db8611989565b602002602001015181105b15610e025760405162461bcd60e51b815260206004820152600f60248201526e151bdad95b881a5cc81b1bd8dad959608a1b60448201526064016102f2565b50610e0c816119b5565b9050610c90565b506001600160a01b038516610e9b5760005b8351811015610e9957828181518110610e4057610e40611989565b602002602001015160016000868481518110610e5e57610e5e611989565b602002602001015181526020019081526020016000206000828254610e839190611a6c565b90915550610e929050816119b5565b9050610e25565b505b6001600160a01b03841661099d5760005b8351811015610f8b576000848281518110610ec957610ec9611989565b602002602001015190506000848381518110610ee757610ee7611989565b6020026020010151905060006001600084815260200190815260200160002054905081811015610f685760405162461bcd60e51b815260206004820152602660248201527f4b495033373a206275726e20616d6f756e74206578636565647320746f74616c604482015265537570706c7960d01b60648201526084016102f2565b60009283526001602052604090922091039055610f84816119b5565b9050610eac565b50505050505050565b610fa28686868686866110a0565b80610fb65750610fb6868686868686611198565b61099d5760405162461bcd60e51b815260206004820152604260248201527f4b495033373a207472616e7366657220746f206e6f6e20494b4950333752656360448201527f65697665722f4945524331313535526563656976657220696d706c656d656e7460648201526132b960f11b608482015260a4016102f2565b6040805160018082528183019092526060916000919060208083019080368337019050509050828160008151811061106d5761106d611989565b602090810291909101015292915050565b61108c868686868686611261565b80610fb65750610fb686868686868661132a565b60006001600160a01b0385163b1561118a57604051634da4f19960e11b81526001600160a01b03861690639b49e332906110e6908a908a90899089908990600401611a7f565b6020604051808303816000875af1925050508015611121575060408051601f3d908101601f1916820190925261111e91810190611add565b60015b611170573d80801561114f576040519150601f19603f3d011682016040523d82523d6000602084013e611154565b606091505b50805160000361116857600091505061118e565b805181602001fd5b6001600160e01b031916634da4f19960e11b14905061118e565b5060015b9695505050505050565b60006001600160a01b0385163b1561118a5760405163bc197c8160e01b81526001600160a01b0386169063bc197c81906111de908a908a90899089908990600401611a7f565b6020604051808303816000875af1925050508015611219575060408051601f3d908101601f1916820190925261121691810190611add565b60015b611247573d80801561114f576040519150601f19603f3d011682016040523d82523d6000602084013e611154565b6001600160e01b03191663bc197c8160e01b14905061118e565b60006001600160a01b0385163b1561118a5760405163e78b332560e01b81526001600160a01b0386169063e78b3325906112a7908a908a90899089908990600401611afa565b6020604051808303816000875af19250505080156112e2575060408051601f3d908101601f191682019092526112df91810190611add565b60015b611310573d80801561114f576040519150601f19603f3d011682016040523d82523d6000602084013e611154565b6001600160e01b03191663e78b332560e01b14905061118e565b60006001600160a01b0385163b1561118a5760405163f23a6e6160e01b81526001600160a01b0386169063f23a6e6190611370908a908a90899089908990600401611afa565b6020604051808303816000875af19250505080156113ab575060408051601f3d908101601f191682019092526113a891810190611add565b60015b6113d9573d80801561114f576040519150601f19603f3d011682016040523d82523d6000602084013e611154565b6001600160e01b03191663f23a6e6160e01b14905061118e565b80356001600160a01b038116811461140a57600080fd5b919050565b6000806040838503121561142257600080fd5b61142b836113f3565b946020939093013593505050565b6001600160e01b03198116811461144f57600080fd5b50565b60006020828403121561146457600080fd5b813561146f81611439565b9392505050565b60006020828403121561148857600080fd5b5035919050565b6000815180845260005b818110156114b557602081850181015186830182015201611499565b506000602082860101526020601f19601f83011685010191505092915050565b60208152600061146f602083018461148f565b634e487b7160e01b600052604160045260246000fd5b604051601f8201601f1916810167ffffffffffffffff81118282101715611527576115276114e8565b604052919050565b600067ffffffffffffffff821115611549576115496114e8565b5060051b60200190565b600082601f83011261156457600080fd5b813560206115796115748361152f565b6114fe565b82815260059290921b8401810191818101908684111561159857600080fd5b8286015b848110156115b3578035835291830191830161159c565b509695505050505050565b600082601f8301126115cf57600080fd5b813567ffffffffffffffff8111156115e9576115e96114e8565b6115fc601f8201601f19166020016114fe565b81815284602083860101111561161157600080fd5b816020850160208301376000918101602001919091529392505050565b600080600080600060a0868803121561164657600080fd5b61164f866113f3565b945061165d602087016113f3565b9350604086013567ffffffffffffffff8082111561167a57600080fd5b61168689838a01611553565b9450606088013591508082111561169c57600080fd5b6116a889838a01611553565b935060808801359150808211156116be57600080fd5b506116cb888289016115be565b9150509295509295909350565b600080604083850312156116eb57600080fd5b823567ffffffffffffffff8082111561170357600080fd5b818501915085601f83011261171757600080fd5b813560206117276115748361152f565b82815260059290921b8401810191818101908984111561174657600080fd5b948201945b8386101561176b5761175c866113f3565b8252948201949082019061174b565b9650508601359250508082111561178157600080fd5b5061178e85828601611553565b9150509250929050565b600081518084526020808501945080840160005b838110156117c8578151875295820195908201906001016117ac565b509495945050505050565b60208152600061146f6020830184611798565b600080604083850312156117f957600080fd5b82359150611809602084016113f3565b90509250929050565b6000806040838503121561182557600080fd5b61182e836113f3565b91506020830135801515811461184357600080fd5b809150509250929050565b6000806040838503121561186157600080fd5b61186a836113f3565b9150602083013567ffffffffffffffff81111561188657600080fd5b61178e85828601611553565b6040815260006118a56040830185611798565b82810360208401526118b78185611798565b95945050505050565b600080604083850312156118d357600080fd5b6118dc836113f3565b9150611809602084016113f3565b600080600080600060a0868803121561190257600080fd5b61190b866113f3565b9450611919602087016113f3565b93506040860135925060608601359150608086013567ffffffffffffffff81111561194357600080fd5b6116cb888289016115be565b600181811c9082168061196357607f821691505b60208210810361198357634e487b7160e01b600052602260045260246000fd5b50919050565b634e487b7160e01b600052603260045260246000fd5b634e487b7160e01b600052601160045260246000fd5b6000600182016119c7576119c761199f565b5060010190565b8181038181111561031e5761031e61199f565b60208082526023908201527f4b495033373a207472616e7366657220746f20746865207a65726f206164647260408201526265737360e81b606082015260800190565b60208082526028908201527f4b495033373a20696e73756666696369656e742062616c616e636520666f72206040820152673a3930b739b332b960c11b606082015260800190565b8082018082111561031e5761031e61199f565b6001600160a01b0386811682528516602082015260a060408201819052600090611aab90830186611798565b8281036060840152611abd8186611798565b90508281036080840152611ad1818561148f565b98975050505050505050565b600060208284031215611aef57600080fd5b815161146f81611439565b6001600160a01b03868116825285166020820152604081018490526060810183905260a060808201819052600090611b349083018461148f565b97965050505050505056fea26469706673582212201fd4f312a9bfeceb58ca2b48a32cb037eb1d1731aaaa53856e92610f934768e964736f6c63430008130033",
			"opcodes": "PUSH1 0x80 PUSH1 0x40 MSTORE CALLVALUE DUP1 ISZERO PUSH2 0x10 JUMPI PUSH1 0x0 DUP1 REVERT JUMPDEST POP PUSH2 0x1B75 DUP1 PUSH2 0x20 PUSH1 0x0 CODECOPY PUSH1 0x0 RETURN INVALID PUSH1 0x80 PUSH1 0x40 MSTORE CALLVALUE DUP1 ISZERO PUSH2 0x10 JUMPI PUSH1 0x0 DUP1 REVERT JUMPDEST POP PUSH1 0x4 CALLDATASIZE LT PUSH2 0xCE JUMPI PUSH1 0x0 CALLDATALOAD PUSH1 0xE0 SHR DUP1 PUSH4 0xA22CB465 GT PUSH2 0x8C JUMPI DUP1 PUSH4 0xBD85B039 GT PUSH2 0x66 JUMPI DUP1 PUSH4 0xBD85B039 EQ PUSH2 0x20B JUMPI DUP1 PUSH4 0xE985E9C5 EQ PUSH2 0x22B JUMPI DUP1 PUSH4 0xEE51D26A EQ PUSH2 0x267 JUMPI DUP1 PUSH4 0xF242432A EQ PUSH2 0x27A JUMPI PUSH1 0x0 DUP1 REVERT JUMPDEST DUP1 PUSH4 0xA22CB465 EQ PUSH2 0x1A4 JUMPI DUP1 PUSH4 0xA4949B18 EQ PUSH2 0x1B7 JUMPI DUP1 PUSH4 0xB56CF84F EQ PUSH2 0x1D8 JUMPI PUSH1 0x0 DUP1 REVERT JUMPDEST DUP1 PUSH3 0xFDD58E EQ PUSH2 0xD3 JUMPI DUP1 PUSH4 0x1FFC9A7 EQ PUSH2 0xF9 JUMPI DUP1 PUSH4 0xE89341C EQ PUSH2 0x11C JUMPI DUP1 PUSH4 0x2EB2C2D6 EQ PUSH2 0x13C JUMPI DUP1 PUSH4 0x4E1273F4 EQ PUSH2 0x151 JUMPI DUP1 PUSH4 0x6E1C1CBB EQ PUSH2 0x171 JUMPI JUMPDEST PUSH1 0x0 DUP1 REVERT JUMPDEST PUSH2 0xE6 PUSH2 0xE1 CALLDATASIZE PUSH1 0x4 PUSH2 0x140F JUMP JUMPDEST PUSH2 0x28D JUMP JUMPDEST PUSH1 0x40 MLOAD SWAP1 DUP2 MSTORE PUSH1 0x20 ADD JUMPDEST PUSH1 0x40 MLOAD DUP1 SWAP2 SUB SWAP1 RETURN JUMPDEST PUSH2 0x10C PUSH2 0x107 CALLDATASIZE PUSH1 0x4 PUSH2 0x1452 JUMP JUMPDEST PUSH2 0x324 JUMP JUMPDEST PUSH1 0x40 MLOAD SWAP1 ISZERO ISZERO DUP2 MSTORE PUSH1 0x20 ADD PUSH2 0xF0 JUMP JUMPDEST PUSH2 0x12F PUSH2 0x12A CALLDATASIZE PUSH1 0x4 PUSH2 0x1476 JUMP JUMPDEST PUSH2 0x374 JUMP JUMPDEST PUSH1 0x40 MLOAD PUSH2 0xF0 SWAP2 SWAP1 PUSH2 0x14D5 JUMP JUMPDEST PUSH2 0x14F PUSH2 0x14A CALLDATASIZE PUSH1 0x4 PUSH2 0x162E JUMP JUMPDEST PUSH2 0x408 JUMP JUMPDEST STOP JUMPDEST PUSH2 0x164 PUSH2 0x15F CALLDATASIZE PUSH1 0x4 PUSH2 0x16D8 JUMP JUMPDEST PUSH2 0x49D JUMP JUMPDEST PUSH1 0x40 MLOAD PUSH2 0xF0 SWAP2 SWAP1 PUSH2 0x17D3 JUMP JUMPDEST PUSH2 0xE6 PUSH2 0x17F CALLDATASIZE PUSH1 0x4 PUSH2 0x17E6 JUMP JUMPDEST PUSH1 0x1 PUSH1 0x1 PUSH1 0xA0 SHL SUB AND PUSH1 0x0 SWAP1 DUP2 MSTORE PUSH1 0x4 PUSH1 0x20 SWAP1 DUP2 MSTORE PUSH1 0x40 DUP1 DUP4 KECCAK256 SWAP4 DUP4 MSTORE SWAP3 SWAP1 MSTORE KECCAK256 SLOAD SWAP1 JUMP JUMPDEST PUSH2 0x14F PUSH2 0x1B2 CALLDATASIZE PUSH1 0x4 PUSH2 0x1812 JUMP JUMPDEST PUSH2 0x5C3 JUMP JUMPDEST PUSH2 0x1CA PUSH2 0x1C5 CALLDATASIZE PUSH1 0x4 PUSH2 0x184E JUMP JUMPDEST PUSH2 0x5D2 JUMP JUMPDEST PUSH1 0x40 MLOAD PUSH2 0xF0 SWAP3 SWAP2 SWAP1 PUSH2 0x1892 JUMP JUMPDEST PUSH2 0xE6 PUSH2 0x1E6 CALLDATASIZE PUSH1 0x4 PUSH2 0x17E6 JUMP JUMPDEST PUSH1 0x1 PUSH1 0x1 PUSH1 0xA0 SHL SUB AND PUSH1 0x0 SWAP1 DUP2 MSTORE PUSH1 0x3 PUSH1 0x20 SWAP1 DUP2 MSTORE PUSH1 0x40 DUP1 DUP4 KECCAK256 SWAP4 DUP4 MSTORE SWAP3 SWAP1 MSTORE KECCAK256 SLOAD SWAP1 JUMP JUMPDEST PUSH2 0xE6 PUSH2 0x219 CALLDATASIZE PUSH1 0x4 PUSH2 0x1476 JUMP JUMPDEST PUSH1 0x0 SWAP1 DUP2 MSTORE PUSH1 0x1 PUSH1 0x20 MSTORE PUSH1 0x40 SWAP1 KECCAK256 SLOAD SWAP1 JUMP JUMPDEST PUSH2 0x10C PUSH2 0x239 CALLDATASIZE PUSH1 0x4 PUSH2 0x18C0 JUMP JUMPDEST PUSH1 0x1 PUSH1 0x1 PUSH1 0xA0 SHL SUB SWAP2 DUP3 AND PUSH1 0x0 SWAP1 DUP2 MSTORE PUSH1 0x2 PUSH1 0x20 SWAP1 DUP2 MSTORE PUSH1 0x40 DUP1 DUP4 KECCAK256 SWAP4 SWAP1 SWAP5 AND DUP3 MSTORE SWAP2 SWAP1 SWAP2 MSTORE KECCAK256 SLOAD PUSH1 0xFF AND SWAP1 JUMP JUMPDEST PUSH2 0x1CA PUSH2 0x275 CALLDATASIZE PUSH1 0x4 PUSH2 0x184E JUMP JUMPDEST PUSH2 0x691 JUMP JUMPDEST PUSH2 0x14F PUSH2 0x288 CALLDATASIZE PUSH1 0x4 PUSH2 0x18EA JUMP JUMPDEST PUSH2 0x737 JUMP JUMPDEST PUSH1 0x0 PUSH1 0x1 PUSH1 0x1 PUSH1 0xA0 SHL SUB DUP4 AND PUSH2 0x2FB JUMPI PUSH1 0x40 MLOAD PUSH3 0x461BCD PUSH1 0xE5 SHL DUP2 MSTORE PUSH1 0x20 PUSH1 0x4 DUP3 ADD MSTORE PUSH1 0x28 PUSH1 0x24 DUP3 ADD MSTORE PUSH32 0x4B495033373A2061646472657373207A65726F206973206E6F7420612076616C PUSH1 0x44 DUP3 ADD MSTORE PUSH8 0x34B21037BBB732B9 PUSH1 0xC1 SHL PUSH1 0x64 DUP3 ADD MSTORE PUSH1 0x84 ADD JUMPDEST PUSH1 0x40 MLOAD DUP1 SWAP2 SUB SWAP1 REVERT JUMPDEST POP PUSH1 0x0 DUP2 DUP2 MSTORE PUSH1 0x20 DUP2 DUP2 MSTORE PUSH1 0x40 DUP1 DUP4 KECCAK256 PUSH1 0x1 PUSH1 0x1 PUSH1 0xA0 SHL SUB DUP7 AND DUP5 MSTORE SWAP1 SWAP2 MSTORE SWAP1 KECCAK256 SLOAD JUMPDEST SWAP3 SWAP2 POP POP JUMP JUMPDEST PUSH1 0x0 PUSH1 0x1 PUSH1 0x1 PUSH1 0xE0 SHL SUB NOT DUP3 AND PUSH4 0x6433CA1F PUSH1 0xE0 SHL EQ DUP1 PUSH2 0x355 JUMPI POP PUSH1 0x1 PUSH1 0x1 PUSH1 0xE0 SHL SUB NOT DUP3 AND PUSH4 0x3A24D07 PUSH1 0xE2 SHL EQ JUMPDEST DUP1 PUSH2 0x31E JUMPI POP PUSH4 0x1FFC9A7 PUSH1 0xE0 SHL PUSH1 0x1 PUSH1 0x1 PUSH1 0xE0 SHL SUB NOT DUP4 AND EQ PUSH2 0x31E JUMP JUMPDEST PUSH1 0x60 PUSH1 0x5 DUP1 SLOAD PUSH2 0x383 SWAP1 PUSH2 0x194F JUMP JUMPDEST DUP1 PUSH1 0x1F ADD PUSH1 0x20 DUP1 SWAP2 DIV MUL PUSH1 0x20 ADD PUSH1 0x40 MLOAD SWAP1 DUP2 ADD PUSH1 0x40 MSTORE DUP1 SWAP3 SWAP2 SWAP1 DUP2 DUP2 MSTORE PUSH1 0x20 ADD DUP3 DUP1 SLOAD PUSH2 0x3AF SWAP1 PUSH2 0x194F JUMP JUMPDEST DUP1 ISZERO PUSH2 0x3FC JUMPI DUP1 PUSH1 0x1F LT PUSH2 0x3D1 JUMPI PUSH2 0x100 DUP1 DUP4 SLOAD DIV MUL DUP4 MSTORE SWAP2 PUSH1 0x20 ADD SWAP2 PUSH2 0x3FC JUMP JUMPDEST DUP3 ADD SWAP2 SWAP1 PUSH1 0x0 MSTORE PUSH1 0x20 PUSH1 0x0 KECCAK256 SWAP1 JUMPDEST DUP2 SLOAD DUP2 MSTORE SWAP1 PUSH1 0x1 ADD SWAP1 PUSH1 0x20 ADD DUP1 DUP4 GT PUSH2 0x3DF JUMPI DUP3 SWAP1 SUB PUSH1 0x1F AND DUP3 ADD SWAP2 JUMPDEST POP POP POP POP POP SWAP1 POP SWAP2 SWAP1 POP JUMP JUMPDEST PUSH1 0x1 PUSH1 0x1 PUSH1 0xA0 SHL SUB DUP6 AND CALLER EQ DUP1 PUSH2 0x424 JUMPI POP PUSH2 0x424 DUP6 CALLER PUSH2 0x239 JUMP JUMPDEST PUSH2 0x489 JUMPI PUSH1 0x40 MLOAD PUSH3 0x461BCD PUSH1 0xE5 SHL DUP2 MSTORE PUSH1 0x20 PUSH1 0x4 DUP3 ADD MSTORE PUSH1 0x30 PUSH1 0x24 DUP3 ADD MSTORE PUSH32 0x4B495033373A207472616E736665722063616C6C6572206973206E6F74206F77 PUSH1 0x44 DUP3 ADD MSTORE PUSH16 0x1B995C881B9BDC88185C1C1C9BDD9959 PUSH1 0x82 SHL PUSH1 0x64 DUP3 ADD MSTORE PUSH1 0x84 ADD PUSH2 0x2F2 JUMP JUMPDEST PUSH2 0x496 DUP6 DUP6 DUP6 DUP6 DUP6 PUSH2 0x7BC JUMP JUMPDEST POP POP POP POP POP JUMP JUMPDEST PUSH1 0x60 DUP2 MLOAD DUP4 MLOAD EQ PUSH2 0x4FE JUMPI PUSH1 0x40 MLOAD PUSH3 0x461BCD PUSH1 0xE5 SHL DUP2 MSTORE PUSH1 0x20 PUSH1 0x4 DUP3 ADD MSTORE PUSH1 0x25 PUSH1 0x24 DUP3 ADD MSTORE PUSH32 0x4B495033373A206F776E65727320616E6420696473206C656E677468206D6973 PUSH1 0x44 DUP3 ADD MSTORE PUSH5 0xDAC2E8C6D PUSH1 0xDB SHL PUSH1 0x64 DUP3 ADD MSTORE PUSH1 0x84 ADD PUSH2 0x2F2 JUMP JUMPDEST PUSH1 0x0 DUP4 MLOAD PUSH8 0xFFFFFFFFFFFFFFFF DUP2 GT ISZERO PUSH2 0x51A JUMPI PUSH2 0x51A PUSH2 0x14E8 JUMP JUMPDEST PUSH1 0x40 MLOAD SWAP1 DUP1 DUP3 MSTORE DUP1 PUSH1 0x20 MUL PUSH1 0x20 ADD DUP3 ADD PUSH1 0x40 MSTORE DUP1 ISZERO PUSH2 0x543 JUMPI DUP2 PUSH1 0x20 ADD PUSH1 0x20 DUP3 MUL DUP1 CALLDATASIZE DUP4 CALLDATACOPY ADD SWAP1 POP JUMPDEST POP SWAP1 POP PUSH1 0x0 JUMPDEST DUP5 MLOAD DUP2 LT ISZERO PUSH2 0x5BB JUMPI PUSH2 0x58E DUP6 DUP3 DUP2 MLOAD DUP2 LT PUSH2 0x567 JUMPI PUSH2 0x567 PUSH2 0x1989 JUMP JUMPDEST PUSH1 0x20 MUL PUSH1 0x20 ADD ADD MLOAD DUP6 DUP4 DUP2 MLOAD DUP2 LT PUSH2 0x581 JUMPI PUSH2 0x581 PUSH2 0x1989 JUMP JUMPDEST PUSH1 0x20 MUL PUSH1 0x20 ADD ADD MLOAD PUSH2 0x28D JUMP JUMPDEST DUP3 DUP3 DUP2 MLOAD DUP2 LT PUSH2 0x5A0 JUMPI PUSH2 0x5A0 PUSH2 0x1989 JUMP JUMPDEST PUSH1 0x20 SWAP1 DUP2 MUL SWAP2 SWAP1 SWAP2 ADD ADD MSTORE PUSH2 0x5B4 DUP2 PUSH2 0x19B5 JUMP JUMPDEST SWAP1 POP PUSH2 0x549 JUMP JUMPDEST POP SWAP4 SWAP3 POP POP POP JUMP JUMPDEST PUSH2 0x5CE CALLER DUP4 DUP4 PUSH2 0x9A5 JUMP JUMPDEST POP POP JUMP JUMPDEST PUSH1 0x60 DUP1 PUSH1 0x60 DUP1 PUSH1 0x0 JUMPDEST PUSH1 0x1 DUP7 MLOAD PUSH2 0x5E9 SWAP2 SWAP1 PUSH2 0x19CE JUMP JUMPDEST DUP2 LT ISZERO PUSH2 0x685 JUMPI PUSH1 0x1 PUSH1 0x1 PUSH1 0xA0 SHL SUB DUP8 AND PUSH1 0x0 SWAP1 DUP2 MSTORE PUSH1 0x4 PUSH1 0x20 MSTORE PUSH1 0x40 DUP2 KECCAK256 DUP8 MLOAD DUP3 SWAP1 DUP10 SWAP1 DUP6 SWAP1 DUP2 LT PUSH2 0x61E JUMPI PUSH2 0x61E PUSH2 0x1989 JUMP JUMPDEST PUSH1 0x20 MUL PUSH1 0x20 ADD ADD MLOAD DUP2 MSTORE PUSH1 0x20 ADD SWAP1 DUP2 MSTORE PUSH1 0x20 ADD PUSH1 0x0 KECCAK256 SLOAD SWAP1 POP PUSH1 0x0 DUP2 GT ISZERO PUSH2 0x672 JUMPI PUSH2 0x663 DUP5 DUP9 DUP5 DUP2 MLOAD DUP2 LT PUSH2 0x656 JUMPI PUSH2 0x656 PUSH2 0x1989 JUMP JUMPDEST PUSH1 0x20 MUL PUSH1 0x20 ADD ADD MLOAD PUSH2 0xA83 JUMP JUMPDEST SWAP4 POP PUSH2 0x66F DUP4 DUP3 PUSH2 0xA83 JUMP JUMPDEST SWAP3 POP JUMPDEST POP DUP1 PUSH2 0x67D DUP2 PUSH2 0x19B5 JUMP JUMPDEST SWAP2 POP POP PUSH2 0x5DB JUMP JUMPDEST POP SWAP1 SWAP6 SWAP1 SWAP5 POP SWAP3 POP POP POP JUMP JUMPDEST PUSH1 0x60 DUP1 PUSH1 0x60 DUP1 PUSH1 0x0 JUMPDEST PUSH1 0x1 DUP7 MLOAD PUSH2 0x6A8 SWAP2 SWAP1 PUSH2 0x19CE JUMP JUMPDEST DUP2 LT ISZERO PUSH2 0x685 JUMPI PUSH1 0x1 PUSH1 0x1 PUSH1 0xA0 SHL SUB DUP8 AND PUSH1 0x0 SWAP1 DUP2 MSTORE PUSH1 0x3 PUSH1 0x20 MSTORE PUSH1 0x40 DUP2 KECCAK256 DUP8 MLOAD DUP3 SWAP1 DUP10 SWAP1 DUP6 SWAP1 DUP2 LT PUSH2 0x6DD JUMPI PUSH2 0x6DD PUSH2 0x1989 JUMP JUMPDEST PUSH1 0x20 MUL PUSH1 0x20 ADD ADD MLOAD DUP2 MSTORE PUSH1 0x20 ADD SWAP1 DUP2 MSTORE PUSH1 0x20 ADD PUSH1 0x0 KECCAK256 SLOAD SWAP1 POP PUSH1 0x0 DUP2 GT ISZERO PUSH2 0x724 JUMPI PUSH2 0x715 DUP5 DUP9 DUP5 DUP2 MLOAD DUP2 LT PUSH2 0x656 JUMPI PUSH2 0x656 PUSH2 0x1989 JUMP JUMPDEST SWAP4 POP PUSH2 0x721 DUP4 DUP3 PUSH2 0xA83 JUMP JUMPDEST SWAP3 POP JUMPDEST POP DUP1 PUSH2 0x72F DUP2 PUSH2 0x19B5 JUMP JUMPDEST SWAP2 POP POP PUSH2 0x69A JUMP JUMPDEST PUSH1 0x1 PUSH1 0x1 PUSH1 0xA0 SHL SUB DUP6 AND CALLER EQ DUP1 PUSH2 0x753 JUMPI POP PUSH2 0x753 DUP6 CALLER PUSH2 0x239 JUMP JUMPDEST PUSH2 0x7AF JUMPI PUSH1 0x40 MLOAD PUSH3 0x461BCD PUSH1 0xE5 SHL DUP2 MSTORE PUSH1 0x20 PUSH1 0x4 DUP3 ADD MSTORE PUSH1 0x27 PUSH1 0x24 DUP3 ADD MSTORE PUSH32 0x4B495033373A2063616C6C6572206973206E6F74206F776E6572206E6F722061 PUSH1 0x44 DUP3 ADD MSTORE PUSH7 0x1C1C1C9BDD9959 PUSH1 0xCA SHL PUSH1 0x64 DUP3 ADD MSTORE PUSH1 0x84 ADD PUSH2 0x2F2 JUMP JUMPDEST PUSH2 0x496 DUP6 DUP6 DUP6 DUP6 DUP6 PUSH2 0xB55 JUMP JUMPDEST DUP2 MLOAD DUP4 MLOAD EQ PUSH2 0x81C JUMPI PUSH1 0x40 MLOAD PUSH3 0x461BCD PUSH1 0xE5 SHL DUP2 MSTORE PUSH1 0x20 PUSH1 0x4 DUP3 ADD MSTORE PUSH1 0x26 PUSH1 0x24 DUP3 ADD MSTORE PUSH32 0x4B495033373A2069647320616E6420616D6F756E7473206C656E677468206D69 PUSH1 0x44 DUP3 ADD MSTORE PUSH6 0xE6DAC2E8C6D PUSH1 0xD3 SHL PUSH1 0x64 DUP3 ADD MSTORE PUSH1 0x84 ADD PUSH2 0x2F2 JUMP JUMPDEST PUSH1 0x1 PUSH1 0x1 PUSH1 0xA0 SHL SUB DUP5 AND PUSH2 0x842 JUMPI PUSH1 0x40 MLOAD PUSH3 0x461BCD PUSH1 0xE5 SHL DUP2 MSTORE PUSH1 0x4 ADD PUSH2 0x2F2 SWAP1 PUSH2 0x19E1 JUMP JUMPDEST CALLER PUSH2 0x851 DUP2 DUP8 DUP8 DUP8 DUP8 DUP8 PUSH2 0xC8D JUMP JUMPDEST PUSH1 0x0 JUMPDEST DUP5 MLOAD DUP2 LT ISZERO PUSH2 0x937 JUMPI PUSH1 0x0 DUP6 DUP3 DUP2 MLOAD DUP2 LT PUSH2 0x871 JUMPI PUSH2 0x871 PUSH2 0x1989 JUMP JUMPDEST PUSH1 0x20 MUL PUSH1 0x20 ADD ADD MLOAD SWAP1 POP PUSH1 0x0 DUP6 DUP4 DUP2 MLOAD DUP2 LT PUSH2 0x88F JUMPI PUSH2 0x88F PUSH2 0x1989 JUMP JUMPDEST PUSH1 0x20 SWAP1 DUP2 MUL SWAP2 SWAP1 SWAP2 ADD DUP2 ADD MLOAD PUSH1 0x0 DUP5 DUP2 MSTORE DUP1 DUP4 MSTORE PUSH1 0x40 DUP1 DUP3 KECCAK256 PUSH1 0x1 PUSH1 0x1 PUSH1 0xA0 SHL SUB DUP15 AND DUP4 MSTORE SWAP1 SWAP4 MSTORE SWAP2 SWAP1 SWAP2 KECCAK256 SLOAD SWAP1 SWAP2 POP DUP2 DUP2 LT ISZERO PUSH2 0x8DF JUMPI PUSH1 0x40 MLOAD PUSH3 0x461BCD PUSH1 0xE5 SHL DUP2 MSTORE PUSH1 0x4 ADD PUSH2 0x2F2 SWAP1 PUSH2 0x1A24 JUMP JUMPDEST PUSH1 0x0 DUP4 DUP2 MSTORE PUSH1 0x20 DUP2 DUP2 MSTORE PUSH1 0x40 DUP1 DUP4 KECCAK256 PUSH1 0x1 PUSH1 0x1 PUSH1 0xA0 SHL SUB DUP15 DUP2 AND DUP6 MSTORE SWAP3 MSTORE DUP1 DUP4 KECCAK256 DUP6 DUP6 SUB SWAP1 SSTORE SWAP1 DUP12 AND DUP3 MSTORE DUP2 KECCAK256 DUP1 SLOAD DUP5 SWAP3 SWAP1 PUSH2 0x91C SWAP1 DUP5 SWAP1 PUSH2 0x1A6C JUMP JUMPDEST SWAP3 POP POP DUP2 SWAP1 SSTORE POP POP POP POP DUP1 PUSH2 0x930 SWAP1 PUSH2 0x19B5 JUMP JUMPDEST SWAP1 POP PUSH2 0x854 JUMP JUMPDEST POP DUP5 PUSH1 0x1 PUSH1 0x1 PUSH1 0xA0 SHL SUB AND DUP7 PUSH1 0x1 PUSH1 0x1 PUSH1 0xA0 SHL SUB AND DUP3 PUSH1 0x1 PUSH1 0x1 PUSH1 0xA0 SHL SUB AND PUSH32 0x4A39DC06D4C0DBC64B70AF90FD698A233A518AA5D07E595D983B8C0526C8F7FB DUP8 DUP8 PUSH1 0x40 MLOAD PUSH2 0x987 SWAP3 SWAP2 SWAP1 PUSH2 0x1892 JUMP JUMPDEST PUSH1 0x40 MLOAD DUP1 SWAP2 SUB SWAP1 LOG4 PUSH2 0x99D DUP2 DUP8 DUP8 DUP8 DUP8 DUP8 PUSH2 0xF94 JUMP JUMPDEST POP POP POP POP POP POP JUMP JUMPDEST DUP2 PUSH1 0x1 PUSH1 0x1 PUSH1 0xA0 SHL SUB AND DUP4 PUSH1 0x1 PUSH1 0x1 PUSH1 0xA0 SHL SUB AND SUB PUSH2 0xA16 JUMPI PUSH1 0x40 MLOAD PUSH3 0x461BCD PUSH1 0xE5 SHL DUP2 MSTORE PUSH1 0x20 PUSH1 0x4 DUP3 ADD MSTORE PUSH1 0x27 PUSH1 0x24 DUP3 ADD MSTORE PUSH32 0x4B495033373A2073657474696E6720617070726F76616C207374617475732066 PUSH1 0x44 DUP3 ADD MSTORE PUSH7 0x37B91039B2B633 PUSH1 0xC9 SHL PUSH1 0x64 DUP3 ADD MSTORE PUSH1 0x84 ADD PUSH2 0x2F2 JUMP JUMPDEST PUSH1 0x1 PUSH1 0x1 PUSH1 0xA0 SHL SUB DUP4 DUP2 AND PUSH1 0x0 DUP2 DUP2 MSTORE PUSH1 0x2 PUSH1 0x20 SWAP1 DUP2 MSTORE PUSH1 0x40 DUP1 DUP4 KECCAK256 SWAP5 DUP8 AND DUP1 DUP5 MSTORE SWAP5 DUP3 MSTORE SWAP2 DUP3 SWAP1 KECCAK256 DUP1 SLOAD PUSH1 0xFF NOT AND DUP7 ISZERO ISZERO SWAP1 DUP2 OR SWAP1 SWAP2 SSTORE SWAP2 MLOAD SWAP2 DUP3 MSTORE PUSH32 0x17307EAB39AB6107E8899845AD3D59BD9653F200F220920489CA2B5937696C31 SWAP2 ADD PUSH1 0x40 MLOAD DUP1 SWAP2 SUB SWAP1 LOG3 POP POP POP JUMP JUMPDEST PUSH1 0x60 PUSH1 0x0 DUP4 MLOAD PUSH1 0x1 PUSH2 0xA95 SWAP2 SWAP1 PUSH2 0x1A6C JUMP JUMPDEST PUSH8 0xFFFFFFFFFFFFFFFF DUP2 GT ISZERO PUSH2 0xAAD JUMPI PUSH2 0xAAD PUSH2 0x14E8 JUMP JUMPDEST PUSH1 0x40 MLOAD SWAP1 DUP1 DUP3 MSTORE DUP1 PUSH1 0x20 MUL PUSH1 0x20 ADD DUP3 ADD PUSH1 0x40 MSTORE DUP1 ISZERO PUSH2 0xAD6 JUMPI DUP2 PUSH1 0x20 ADD PUSH1 0x20 DUP3 MUL DUP1 CALLDATASIZE DUP4 CALLDATACOPY ADD SWAP1 POP JUMPDEST POP SWAP1 POP PUSH1 0x0 JUMPDEST DUP5 MLOAD DUP2 LT ISZERO PUSH2 0xB2E JUMPI DUP5 DUP2 DUP2 MLOAD DUP2 LT PUSH2 0xAF7 JUMPI PUSH2 0xAF7 PUSH2 0x1989 JUMP JUMPDEST PUSH1 0x20 MUL PUSH1 0x20 ADD ADD MLOAD DUP3 DUP3 DUP2 MLOAD DUP2 LT PUSH2 0xB11 JUMPI PUSH2 0xB11 PUSH2 0x1989 JUMP JUMPDEST PUSH1 0x20 SWAP1 DUP2 MUL SWAP2 SWAP1 SWAP2 ADD ADD MSTORE DUP1 PUSH2 0xB26 DUP2 PUSH2 0x19B5 JUMP JUMPDEST SWAP2 POP POP PUSH2 0xADC JUMP JUMPDEST POP DUP3 DUP2 DUP6 MLOAD DUP2 MLOAD DUP2 LT PUSH2 0xB43 JUMPI PUSH2 0xB43 PUSH2 0x1989 JUMP JUMPDEST PUSH1 0x20 SWAP1 DUP2 MUL SWAP2 SWAP1 SWAP2 ADD ADD MSTORE SWAP4 SWAP3 POP POP POP JUMP JUMPDEST PUSH1 0x1 PUSH1 0x1 PUSH1 0xA0 SHL SUB DUP5 AND PUSH2 0xB7B JUMPI PUSH1 0x40 MLOAD PUSH3 0x461BCD PUSH1 0xE5 SHL DUP2 MSTORE PUSH1 0x4 ADD PUSH2 0x2F2 SWAP1 PUSH2 0x19E1 JUMP JUMPDEST CALLER PUSH1 0x0 PUSH2 0xB87 DUP6 PUSH2 0x1033 JUMP JUMPDEST SWAP1 POP PUSH1 0x0 PUSH2 0xB94 DUP6 PUSH2 0x1033 JUMP JUMPDEST SWAP1 POP PUSH2 0xBA4 DUP4 DUP10 DUP10 DUP6 DUP6 DUP10 PUSH2 0xC8D JUMP JUMPDEST PUSH1 0x0 DUP7 DUP2 MSTORE PUSH1 0x20 DUP2 DUP2 MSTORE PUSH1 0x40 DUP1 DUP4 KECCAK256 PUSH1 0x1 PUSH1 0x1 PUSH1 0xA0 SHL SUB DUP13 AND DUP5 MSTORE SWAP1 SWAP2 MSTORE SWAP1 KECCAK256 SLOAD DUP6 DUP2 LT ISZERO PUSH2 0xBE5 JUMPI PUSH1 0x40 MLOAD PUSH3 0x461BCD PUSH1 0xE5 SHL DUP2 MSTORE PUSH1 0x4 ADD PUSH2 0x2F2 SWAP1 PUSH2 0x1A24 JUMP JUMPDEST PUSH1 0x0 DUP8 DUP2 MSTORE PUSH1 0x20 DUP2 DUP2 MSTORE PUSH1 0x40 DUP1 DUP4 KECCAK256 PUSH1 0x1 PUSH1 0x1 PUSH1 0xA0 SHL SUB DUP14 DUP2 AND DUP6 MSTORE SWAP3 MSTORE DUP1 DUP4 KECCAK256 DUP10 DUP6 SUB SWAP1 SSTORE SWAP1 DUP11 AND DUP3 MSTORE DUP2 KECCAK256 DUP1 SLOAD DUP9 SWAP3 SWAP1 PUSH2 0xC22 SWAP1 DUP5 SWAP1 PUSH2 0x1A6C JUMP JUMPDEST SWAP1 SWAP2 SSTORE POP POP PUSH1 0x40 DUP1 MLOAD DUP9 DUP2 MSTORE PUSH1 0x20 DUP2 ADD DUP9 SWAP1 MSTORE PUSH1 0x1 PUSH1 0x1 PUSH1 0xA0 SHL SUB DUP1 DUP12 AND SWAP3 DUP13 DUP3 AND SWAP3 SWAP2 DUP9 AND SWAP2 PUSH32 0xC3D58168C5AE7397731D063D5BBF3D657854427343F4C083240F7AACAA2D0F62 SWAP2 ADD PUSH1 0x40 MLOAD DUP1 SWAP2 SUB SWAP1 LOG4 PUSH2 0xC82 DUP5 DUP11 DUP11 DUP11 DUP11 DUP11 PUSH2 0x107E JUMP JUMPDEST POP POP POP POP POP POP POP POP POP JUMP JUMPDEST PUSH1 0x0 JUMPDEST DUP4 MLOAD DUP2 LT ISZERO PUSH2 0xE13 JUMPI PUSH1 0x1 PUSH1 0x1 PUSH1 0xA0 SHL SUB DUP7 AND PUSH1 0x0 SWAP1 DUP2 MSTORE PUSH1 0x4 PUSH1 0x20 MSTORE PUSH1 0x40 DUP2 KECCAK256 DUP6 MLOAD DUP3 SWAP1 DUP8 SWAP1 DUP6 SWAP1 DUP2 LT PUSH2 0xCC7 JUMPI PUSH2 0xCC7 PUSH2 0x1989 JUMP JUMPDEST PUSH1 0x20 MUL PUSH1 0x20 ADD ADD MLOAD DUP2 MSTORE PUSH1 0x20 ADD SWAP1 DUP2 MSTORE PUSH1 0x20 ADD PUSH1 0x0 KECCAK256 SLOAD PUSH1 0x3 PUSH1 0x0 DUP10 PUSH1 0x1 PUSH1 0x1 PUSH1 0xA0 SHL SUB AND PUSH1 0x1 PUSH1 0x1 PUSH1 0xA0 SHL SUB AND DUP2 MSTORE PUSH1 0x20 ADD SWAP1 DUP2 MSTORE PUSH1 0x20 ADD PUSH1 0x0 KECCAK256 PUSH1 0x0 DUP8 DUP6 DUP2 MLOAD DUP2 LT PUSH2 0xD17 JUMPI PUSH2 0xD17 PUSH2 0x1989 JUMP JUMPDEST PUSH1 0x20 MUL PUSH1 0x20 ADD ADD MLOAD DUP2 MSTORE PUSH1 0x20 ADD SWAP1 DUP2 MSTORE PUSH1 0x20 ADD PUSH1 0x0 KECCAK256 SLOAD PUSH2 0xD38 SWAP2 SWAP1 PUSH2 0x1A6C JUMP JUMPDEST PUSH1 0x0 DUP1 DUP8 DUP6 DUP2 MLOAD DUP2 LT PUSH2 0xD4D JUMPI PUSH2 0xD4D PUSH2 0x1989 JUMP JUMPDEST PUSH1 0x20 MUL PUSH1 0x20 ADD ADD MLOAD DUP2 MSTORE PUSH1 0x20 ADD SWAP1 DUP2 MSTORE PUSH1 0x20 ADD PUSH1 0x0 KECCAK256 PUSH1 0x0 DUP10 PUSH1 0x1 PUSH1 0x1 PUSH1 0xA0 SHL SUB AND PUSH1 0x1 PUSH1 0x1 PUSH1 0xA0 SHL SUB AND DUP2 MSTORE PUSH1 0x20 ADD SWAP1 DUP2 MSTORE PUSH1 0x20 ADD PUSH1 0x0 KECCAK256 SLOAD PUSH2 0xD91 SWAP2 SWAP1 PUSH2 0x19CE JUMP JUMPDEST SWAP1 POP PUSH1 0x1 PUSH1 0x1 PUSH1 0xA0 SHL SUB DUP8 AND ISZERO DUP1 ISZERO SWAP1 PUSH2 0xDC3 JUMPI POP DUP4 DUP3 DUP2 MLOAD DUP2 LT PUSH2 0xDB8 JUMPI PUSH2 0xDB8 PUSH2 0x1989 JUMP JUMPDEST PUSH1 0x20 MUL PUSH1 0x20 ADD ADD MLOAD DUP2 LT JUMPDEST ISZERO PUSH2 0xE02 JUMPI PUSH1 0x40 MLOAD PUSH3 0x461BCD PUSH1 0xE5 SHL DUP2 MSTORE PUSH1 0x20 PUSH1 0x4 DUP3 ADD MSTORE PUSH1 0xF PUSH1 0x24 DUP3 ADD MSTORE PUSH15 0x151BDAD95B881A5CC81B1BD8DAD959 PUSH1 0x8A SHL PUSH1 0x44 DUP3 ADD MSTORE PUSH1 0x64 ADD PUSH2 0x2F2 JUMP JUMPDEST POP PUSH2 0xE0C DUP2 PUSH2 0x19B5 JUMP JUMPDEST SWAP1 POP PUSH2 0xC90 JUMP JUMPDEST POP PUSH1 0x1 PUSH1 0x1 PUSH1 0xA0 SHL SUB DUP6 AND PUSH2 0xE9B JUMPI PUSH1 0x0 JUMPDEST DUP4 MLOAD DUP2 LT ISZERO PUSH2 0xE99 JUMPI DUP3 DUP2 DUP2 MLOAD DUP2 LT PUSH2 0xE40 JUMPI PUSH2 0xE40 PUSH2 0x1989 JUMP JUMPDEST PUSH1 0x20 MUL PUSH1 0x20 ADD ADD MLOAD PUSH1 0x1 PUSH1 0x0 DUP7 DUP5 DUP2 MLOAD DUP2 LT PUSH2 0xE5E JUMPI PUSH2 0xE5E PUSH2 0x1989 JUMP JUMPDEST PUSH1 0x20 MUL PUSH1 0x20 ADD ADD MLOAD DUP2 MSTORE PUSH1 0x20 ADD SWAP1 DUP2 MSTORE PUSH1 0x20 ADD PUSH1 0x0 KECCAK256 PUSH1 0x0 DUP3 DUP3 SLOAD PUSH2 0xE83 SWAP2 SWAP1 PUSH2 0x1A6C JUMP JUMPDEST SWAP1 SWAP2 SSTORE POP PUSH2 0xE92 SWAP1 POP DUP2 PUSH2 0x19B5 JUMP JUMPDEST SWAP1 POP PUSH2 0xE25 JUMP JUMPDEST POP JUMPDEST PUSH1 0x1 PUSH1 0x1 PUSH1 0xA0 SHL SUB DUP5 AND PUSH2 0x99D JUMPI PUSH1 0x0 JUMPDEST DUP4 MLOAD DUP2 LT ISZERO PUSH2 0xF8B JUMPI PUSH1 0x0 DUP5 DUP3 DUP2 MLOAD DUP2 LT PUSH2 0xEC9 JUMPI PUSH2 0xEC9 PUSH2 0x1989 JUMP JUMPDEST PUSH1 0x20 MUL PUSH1 0x20 ADD ADD MLOAD SWAP1 POP PUSH1 0x0 DUP5 DUP4 DUP2 MLOAD DUP2 LT PUSH2 0xEE7 JUMPI PUSH2 0xEE7 PUSH2 0x1989 JUMP JUMPDEST PUSH1 0x20 MUL PUSH1 0x20 ADD ADD MLOAD SWAP1 POP PUSH1 0x0 PUSH1 0x1 PUSH1 0x0 DUP5 DUP2 MSTORE PUSH1 0x20 ADD SWAP1 DUP2 MSTORE PUSH1 0x20 ADD PUSH1 0x0 KECCAK256 SLOAD SWAP1 POP DUP2 DUP2 LT ISZERO PUSH2 0xF68 JUMPI PUSH1 0x40 MLOAD PUSH3 0x461BCD PUSH1 0xE5 SHL DUP2 MSTORE PUSH1 0x20 PUSH1 0x4 DUP3 ADD MSTORE PUSH1 0x26 PUSH1 0x24 DUP3 ADD MSTORE PUSH32 0x4B495033373A206275726E20616D6F756E74206578636565647320746F74616C PUSH1 0x44 DUP3 ADD MSTORE PUSH6 0x537570706C79 PUSH1 0xD0 SHL PUSH1 0x64 DUP3 ADD MSTORE PUSH1 0x84 ADD PUSH2 0x2F2 JUMP JUMPDEST PUSH1 0x0 SWAP3 DUP4 MSTORE PUSH1 0x1 PUSH1 0x20 MSTORE PUSH1 0x40 SWAP1 SWAP3 KECCAK256 SWAP2 SUB SWAP1 SSTORE PUSH2 0xF84 DUP2 PUSH2 0x19B5 JUMP JUMPDEST SWAP1 POP PUSH2 0xEAC JUMP JUMPDEST POP POP POP POP POP POP POP JUMP JUMPDEST PUSH2 0xFA2 DUP7 DUP7 DUP7 DUP7 DUP7 DUP7 PUSH2 0x10A0 JUMP JUMPDEST DUP1 PUSH2 0xFB6 JUMPI POP PUSH2 0xFB6 DUP7 DUP7 DUP7 DUP7 DUP7 DUP7 PUSH2 0x1198 JUMP JUMPDEST PUSH2 0x99D JUMPI PUSH1 0x40 MLOAD PUSH3 0x461BCD PUSH1 0xE5 SHL DUP2 MSTORE PUSH1 0x20 PUSH1 0x4 DUP3 ADD MSTORE PUSH1 0x42 PUSH1 0x24 DUP3 ADD MSTORE PUSH32 0x4B495033373A207472616E7366657220746F206E6F6E20494B49503337526563 PUSH1 0x44 DUP3 ADD MSTORE PUSH32 0x65697665722F4945524331313535526563656976657220696D706C656D656E74 PUSH1 0x64 DUP3 ADD MSTORE PUSH2 0x32B9 PUSH1 0xF1 SHL PUSH1 0x84 DUP3 ADD MSTORE PUSH1 0xA4 ADD PUSH2 0x2F2 JUMP JUMPDEST PUSH1 0x40 DUP1 MLOAD PUSH1 0x1 DUP1 DUP3 MSTORE DUP2 DUP4 ADD SWAP1 SWAP3 MSTORE PUSH1 0x60 SWAP2 PUSH1 0x0 SWAP2 SWAP1 PUSH1 0x20 DUP1 DUP4 ADD SWAP1 DUP1 CALLDATASIZE DUP4 CALLDATACOPY ADD SWAP1 POP POP SWAP1 POP DUP3 DUP2 PUSH1 0x0 DUP2 MLOAD DUP2 LT PUSH2 0x106D JUMPI PUSH2 0x106D PUSH2 0x1989 JUMP JUMPDEST PUSH1 0x20 SWAP1 DUP2 MUL SWAP2 SWAP1 SWAP2 ADD ADD MSTORE SWAP3 SWAP2 POP POP JUMP JUMPDEST PUSH2 0x108C DUP7 DUP7 DUP7 DUP7 DUP7 DUP7 PUSH2 0x1261 JUMP JUMPDEST DUP1 PUSH2 0xFB6 JUMPI POP PUSH2 0xFB6 DUP7 DUP7 DUP7 DUP7 DUP7 DUP7 PUSH2 0x132A JUMP JUMPDEST PUSH1 0x0 PUSH1 0x1 PUSH1 0x1 PUSH1 0xA0 SHL SUB DUP6 AND EXTCODESIZE ISZERO PUSH2 0x118A JUMPI PUSH1 0x40 MLOAD PUSH4 0x4DA4F199 PUSH1 0xE1 SHL DUP2 MSTORE PUSH1 0x1 PUSH1 0x1 PUSH1 0xA0 SHL SUB DUP7 AND SWAP1 PUSH4 0x9B49E332 SWAP1 PUSH2 0x10E6 SWAP1 DUP11 SWAP1 DUP11 SWAP1 DUP10 SWAP1 DUP10 SWAP1 DUP10 SWAP1 PUSH1 0x4 ADD PUSH2 0x1A7F JUMP JUMPDEST PUSH1 0x20 PUSH1 0x40 MLOAD DUP1 DUP4 SUB DUP2 PUSH1 0x0 DUP8 GAS CALL SWAP3 POP POP POP DUP1 ISZERO PUSH2 0x1121 JUMPI POP PUSH1 0x40 DUP1 MLOAD PUSH1 0x1F RETURNDATASIZE SWAP1 DUP2 ADD PUSH1 0x1F NOT AND DUP3 ADD SWAP1 SWAP3 MSTORE PUSH2 0x111E SWAP2 DUP2 ADD SWAP1 PUSH2 0x1ADD JUMP JUMPDEST PUSH1 0x1 JUMPDEST PUSH2 0x1170 JUMPI RETURNDATASIZE DUP1 DUP1 ISZERO PUSH2 0x114F JUMPI PUSH1 0x40 MLOAD SWAP2 POP PUSH1 0x1F NOT PUSH1 0x3F RETURNDATASIZE ADD AND DUP3 ADD PUSH1 0x40 MSTORE RETURNDATASIZE DUP3 MSTORE RETURNDATASIZE PUSH1 0x0 PUSH1 0x20 DUP5 ADD RETURNDATACOPY PUSH2 0x1154 JUMP JUMPDEST PUSH1 0x60 SWAP2 POP JUMPDEST POP DUP1 MLOAD PUSH1 0x0 SUB PUSH2 0x1168 JUMPI PUSH1 0x0 SWAP2 POP POP PUSH2 0x118E JUMP JUMPDEST DUP1 MLOAD DUP2 PUSH1 0x20 ADD REVERT JUMPDEST PUSH1 0x1 PUSH1 0x1 PUSH1 0xE0 SHL SUB NOT AND PUSH4 0x4DA4F199 PUSH1 0xE1 SHL EQ SWAP1 POP PUSH2 0x118E JUMP JUMPDEST POP PUSH1 0x1 JUMPDEST SWAP7 SWAP6 POP POP POP POP POP POP JUMP JUMPDEST PUSH1 0x0 PUSH1 0x1 PUSH1 0x1 PUSH1 0xA0 SHL SUB DUP6 AND EXTCODESIZE ISZERO PUSH2 0x118A JUMPI PUSH1 0x40 MLOAD PUSH4 0xBC197C81 PUSH1 0xE0 SHL DUP2 MSTORE PUSH1 0x1 PUSH1 0x1 PUSH1 0xA0 SHL SUB DUP7 AND SWAP1 PUSH4 0xBC197C81 SWAP1 PUSH2 0x11DE SWAP1 DUP11 SWAP1 DUP11 SWAP1 DUP10 SWAP1 DUP10 SWAP1 DUP10 SWAP1 PUSH1 0x4 ADD PUSH2 0x1A7F JUMP JUMPDEST PUSH1 0x20 PUSH1 0x40 MLOAD DUP1 DUP4 SUB DUP2 PUSH1 0x0 DUP8 GAS CALL SWAP3 POP POP POP DUP1 ISZERO PUSH2 0x1219 JUMPI POP PUSH1 0x40 DUP1 MLOAD PUSH1 0x1F RETURNDATASIZE SWAP1 DUP2 ADD PUSH1 0x1F NOT AND DUP3 ADD SWAP1 SWAP3 MSTORE PUSH2 0x1216 SWAP2 DUP2 ADD SWAP1 PUSH2 0x1ADD JUMP JUMPDEST PUSH1 0x1 JUMPDEST PUSH2 0x1247 JUMPI RETURNDATASIZE DUP1 DUP1 ISZERO PUSH2 0x114F JUMPI PUSH1 0x40 MLOAD SWAP2 POP PUSH1 0x1F NOT PUSH1 0x3F RETURNDATASIZE ADD AND DUP3 ADD PUSH1 0x40 MSTORE RETURNDATASIZE DUP3 MSTORE RETURNDATASIZE PUSH1 0x0 PUSH1 0x20 DUP5 ADD RETURNDATACOPY PUSH2 0x1154 JUMP JUMPDEST PUSH1 0x1 PUSH1 0x1 PUSH1 0xE0 SHL SUB NOT AND PUSH4 0xBC197C81 PUSH1 0xE0 SHL EQ SWAP1 POP PUSH2 0x118E JUMP JUMPDEST PUSH1 0x0 PUSH1 0x1 PUSH1 0x1 PUSH1 0xA0 SHL SUB DUP6 AND EXTCODESIZE ISZERO PUSH2 0x118A JUMPI PUSH1 0x40 MLOAD PUSH4 0xE78B3325 PUSH1 0xE0 SHL DUP2 MSTORE PUSH1 0x1 PUSH1 0x1 PUSH1 0xA0 SHL SUB DUP7 AND SWAP1 PUSH4 0xE78B3325 SWAP1 PUSH2 0x12A7 SWAP1 DUP11 SWAP1 DUP11 SWAP1 DUP10 SWAP1 DUP10 SWAP1 DUP10 SWAP1 PUSH1 0x4 ADD PUSH2 0x1AFA JUMP JUMPDEST PUSH1 0x20 PUSH1 0x40 MLOAD DUP1 DUP4 SUB DUP2 PUSH1 0x0 DUP8 GAS CALL SWAP3 POP POP POP DUP1 ISZERO PUSH2 0x12E2 JUMPI POP PUSH1 0x40 DUP1 MLOAD PUSH1 0x1F RETURNDATASIZE SWAP1 DUP2 ADD PUSH1 0x1F NOT AND DUP3 ADD SWAP1 SWAP3 MSTORE PUSH2 0x12DF SWAP2 DUP2 ADD SWAP1 PUSH2 0x1ADD JUMP JUMPDEST PUSH1 0x1 JUMPDEST PUSH2 0x1310 JUMPI RETURNDATASIZE DUP1 DUP1 ISZERO PUSH2 0x114F JUMPI PUSH1 0x40 MLOAD SWAP2 POP PUSH1 0x1F NOT PUSH1 0x3F RETURNDATASIZE ADD AND DUP3 ADD PUSH1 0x40 MSTORE RETURNDATASIZE DUP3 MSTORE RETURNDATASIZE PUSH1 0x0 PUSH1 0x20 DUP5 ADD RETURNDATACOPY PUSH2 0x1154 JUMP JUMPDEST PUSH1 0x1 PUSH1 0x1 PUSH1 0xE0 SHL SUB NOT AND PUSH4 0xE78B3325 PUSH1 0xE0 SHL EQ SWAP1 POP PUSH2 0x118E JUMP JUMPDEST PUSH1 0x0 PUSH1 0x1 PUSH1 0x1 PUSH1 0xA0 SHL SUB DUP6 AND EXTCODESIZE ISZERO PUSH2 0x118A JUMPI PUSH1 0x40 MLOAD PUSH4 0xF23A6E61 PUSH1 0xE0 SHL DUP2 MSTORE PUSH1 0x1 PUSH1 0x1 PUSH1 0xA0 SHL SUB DUP7 AND SWAP1 PUSH4 0xF23A6E61 SWAP1 PUSH2 0x1370 SWAP1 DUP11 SWAP1 DUP11 SWAP1 DUP10 SWAP1 DUP10 SWAP1 DUP10 SWAP1 PUSH1 0x4 ADD PUSH2 0x1AFA JUMP JUMPDEST PUSH1 0x20 PUSH1 0x40 MLOAD DUP1 DUP4 SUB DUP2 PUSH1 0x0 DUP8 GAS CALL SWAP3 POP POP POP DUP1 ISZERO PUSH2 0x13AB JUMPI POP PUSH1 0x40 DUP1 MLOAD PUSH1 0x1F RETURNDATASIZE SWAP1 DUP2 ADD PUSH1 0x1F NOT AND DUP3 ADD SWAP1 SWAP3 MSTORE PUSH2 0x13A8 SWAP2 DUP2 ADD SWAP1 PUSH2 0x1ADD JUMP JUMPDEST PUSH1 0x1 JUMPDEST PUSH2 0x13D9 JUMPI RETURNDATASIZE DUP1 DUP1 ISZERO PUSH2 0x114F JUMPI PUSH1 0x40 MLOAD SWAP2 POP PUSH1 0x1F NOT PUSH1 0x3F RETURNDATASIZE ADD AND DUP3 ADD PUSH1 0x40 MSTORE RETURNDATASIZE DUP3 MSTORE RETURNDATASIZE PUSH1 0x0 PUSH1 0x20 DUP5 ADD RETURNDATACOPY PUSH2 0x1154 JUMP JUMPDEST PUSH1 0x1 PUSH1 0x1 PUSH1 0xE0 SHL SUB NOT AND PUSH4 0xF23A6E61 PUSH1 0xE0 SHL EQ SWAP1 POP PUSH2 0x118E JUMP JUMPDEST DUP1 CALLDATALOAD PUSH1 0x1 PUSH1 0x1 PUSH1 0xA0 SHL SUB DUP2 AND DUP2 EQ PUSH2 0x140A JUMPI PUSH1 0x0 DUP1 REVERT JUMPDEST SWAP2 SWAP1 POP JUMP JUMPDEST PUSH1 0x0 DUP1 PUSH1 0x40 DUP4 DUP6 SUB SLT ISZERO PUSH2 0x1422 JUMPI PUSH1 0x0 DUP1 REVERT JUMPDEST PUSH2 0x142B DUP4 PUSH2 0x13F3 JUMP JUMPDEST SWAP5 PUSH1 0x20 SWAP4 SWAP1 SWAP4 ADD CALLDATALOAD SWAP4 POP POP POP JUMP JUMPDEST PUSH1 0x1 PUSH1 0x1 PUSH1 0xE0 SHL SUB NOT DUP2 AND DUP2 EQ PUSH2 0x144F JUMPI PUSH1 0x0 DUP1 REVERT JUMPDEST POP JUMP JUMPDEST PUSH1 0x0 PUSH1 0x20 DUP3 DUP5 SUB SLT ISZERO PUSH2 0x1464 JUMPI PUSH1 0x0 DUP1 REVERT JUMPDEST DUP2 CALLDATALOAD PUSH2 0x146F DUP2 PUSH2 0x1439 JUMP JUMPDEST SWAP4 SWAP3 POP POP POP JUMP JUMPDEST PUSH1 0x0 PUSH1 0x20 DUP3 DUP5 SUB SLT ISZERO PUSH2 0x1488 JUMPI PUSH1 0x0 DUP1 REVERT JUMPDEST POP CALLDATALOAD SWAP2 SWAP1 POP JUMP JUMPDEST PUSH1 0x0 DUP2 MLOAD DUP1 DUP5 MSTORE PUSH1 0x0 JUMPDEST DUP2 DUP2 LT ISZERO PUSH2 0x14B5 JUMPI PUSH1 0x20 DUP2 DUP6 ADD DUP2 ADD MLOAD DUP7 DUP4 ADD DUP3 ADD MSTORE ADD PUSH2 0x1499 JUMP JUMPDEST POP PUSH1 0x0 PUSH1 0x20 DUP3 DUP7 ADD ADD MSTORE PUSH1 0x20 PUSH1 0x1F NOT PUSH1 0x1F DUP4 ADD AND DUP6 ADD ADD SWAP2 POP POP SWAP3 SWAP2 POP POP JUMP JUMPDEST PUSH1 0x20 DUP2 MSTORE PUSH1 0x0 PUSH2 0x146F PUSH1 0x20 DUP4 ADD DUP5 PUSH2 0x148F JUMP JUMPDEST PUSH4 0x4E487B71 PUSH1 0xE0 SHL PUSH1 0x0 MSTORE PUSH1 0x41 PUSH1 0x4 MSTORE PUSH1 0x24 PUSH1 0x0 REVERT JUMPDEST PUSH1 0x40 MLOAD PUSH1 0x1F DUP3 ADD PUSH1 0x1F NOT AND DUP2 ADD PUSH8 0xFFFFFFFFFFFFFFFF DUP2 GT DUP3 DUP3 LT OR ISZERO PUSH2 0x1527 JUMPI PUSH2 0x1527 PUSH2 0x14E8 JUMP JUMPDEST PUSH1 0x40 MSTORE SWAP2 SWAP1 POP JUMP JUMPDEST PUSH1 0x0 PUSH8 0xFFFFFFFFFFFFFFFF DUP3 GT ISZERO PUSH2 0x1549 JUMPI PUSH2 0x1549 PUSH2 0x14E8 JUMP JUMPDEST POP PUSH1 0x5 SHL PUSH1 0x20 ADD SWAP1 JUMP JUMPDEST PUSH1 0x0 DUP3 PUSH1 0x1F DUP4 ADD SLT PUSH2 0x1564 JUMPI PUSH1 0x0 DUP1 REVERT JUMPDEST DUP2 CALLDATALOAD PUSH1 0x20 PUSH2 0x1579 PUSH2 0x1574 DUP4 PUSH2 0x152F JUMP JUMPDEST PUSH2 0x14FE JUMP JUMPDEST DUP3 DUP2 MSTORE PUSH1 0x5 SWAP3 SWAP1 SWAP3 SHL DUP5 ADD DUP2 ADD SWAP2 DUP2 DUP2 ADD SWAP1 DUP7 DUP5 GT ISZERO PUSH2 0x1598 JUMPI PUSH1 0x0 DUP1 REVERT JUMPDEST DUP3 DUP7 ADD JUMPDEST DUP5 DUP2 LT ISZERO PUSH2 0x15B3 JUMPI DUP1 CALLDATALOAD DUP4 MSTORE SWAP2 DUP4 ADD SWAP2 DUP4 ADD PUSH2 0x159C JUMP JUMPDEST POP SWAP7 SWAP6 POP POP POP POP POP POP JUMP JUMPDEST PUSH1 0x0 DUP3 PUSH1 0x1F DUP4 ADD SLT PUSH2 0x15CF JUMPI PUSH1 0x0 DUP1 REVERT JUMPDEST DUP2 CALLDATALOAD PUSH8 0xFFFFFFFFFFFFFFFF DUP2 GT ISZERO PUSH2 0x15E9 JUMPI PUSH2 0x15E9 PUSH2 0x14E8 JUMP JUMPDEST PUSH2 0x15FC PUSH1 0x1F DUP3 ADD PUSH1 0x1F NOT AND PUSH1 0x20 ADD PUSH2 0x14FE JUMP JUMPDEST DUP2 DUP2 MSTORE DUP5 PUSH1 0x20 DUP4 DUP7 ADD ADD GT ISZERO PUSH2 0x1611 JUMPI PUSH1 0x0 DUP1 REVERT JUMPDEST DUP2 PUSH1 0x20 DUP6 ADD PUSH1 0x20 DUP4 ADD CALLDATACOPY PUSH1 0x0 SWAP2 DUP2 ADD PUSH1 0x20 ADD SWAP2 SWAP1 SWAP2 MSTORE SWAP4 SWAP3 POP POP POP JUMP JUMPDEST PUSH1 0x0 DUP1 PUSH1 0x0 DUP1 PUSH1 0x0 PUSH1 0xA0 DUP7 DUP9 SUB SLT ISZERO PUSH2 0x1646 JUMPI PUSH1 0x0 DUP1 REVERT JUMPDEST PUSH2 0x164F DUP7 PUSH2 0x13F3 JUMP JUMPDEST SWAP5 POP PUSH2 0x165D PUSH1 0x20 DUP8 ADD PUSH2 0x13F3 JUMP JUMPDEST SWAP4 POP PUSH1 0x40 DUP7 ADD CALLDATALOAD PUSH8 0xFFFFFFFFFFFFFFFF DUP1 DUP3 GT ISZERO PUSH2 0x167A JUMPI PUSH1 0x0 DUP1 REVERT JUMPDEST PUSH2 0x1686 DUP10 DUP4 DUP11 ADD PUSH2 0x1553 JUMP JUMPDEST SWAP5 POP PUSH1 0x60 DUP9 ADD CALLDATALOAD SWAP2 POP DUP1 DUP3 GT ISZERO PUSH2 0x169C JUMPI PUSH1 0x0 DUP1 REVERT JUMPDEST PUSH2 0x16A8 DUP10 DUP4 DUP11 ADD PUSH2 0x1553 JUMP JUMPDEST SWAP4 POP PUSH1 0x80 DUP9 ADD CALLDATALOAD SWAP2 POP DUP1 DUP3 GT ISZERO PUSH2 0x16BE JUMPI PUSH1 0x0 DUP1 REVERT JUMPDEST POP PUSH2 0x16CB DUP9 DUP3 DUP10 ADD PUSH2 0x15BE JUMP JUMPDEST SWAP2 POP POP SWAP3 SWAP6 POP SWAP3 SWAP6 SWAP1 SWAP4 POP JUMP JUMPDEST PUSH1 0x0 DUP1 PUSH1 0x40 DUP4 DUP6 SUB SLT ISZERO PUSH2 0x16EB JUMPI PUSH1 0x0 DUP1 REVERT JUMPDEST DUP3 CALLDATALOAD PUSH8 0xFFFFFFFFFFFFFFFF DUP1 DUP3 GT ISZERO PUSH2 0x1703 JUMPI PUSH1 0x0 DUP1 REVERT JUMPDEST DUP2 DUP6 ADD SWAP2 POP DUP6 PUSH1 0x1F DUP4 ADD SLT PUSH2 0x1717 JUMPI PUSH1 0x0 DUP1 REVERT JUMPDEST DUP2 CALLDATALOAD PUSH1 0x20 PUSH2 0x1727 PUSH2 0x1574 DUP4 PUSH2 0x152F JUMP JUMPDEST DUP3 DUP2 MSTORE PUSH1 0x5 SWAP3 SWAP1 SWAP3 SHL DUP5 ADD DUP2 ADD SWAP2 DUP2 DUP2 ADD SWAP1 DUP10 DUP5 GT ISZERO PUSH2 0x1746 JUMPI PUSH1 0x0 DUP1 REVERT JUMPDEST SWAP5 DUP3 ADD SWAP5 JUMPDEST DUP4 DUP7 LT ISZERO PUSH2 0x176B JUMPI PUSH2 0x175C DUP7 PUSH2 0x13F3 JUMP JUMPDEST DUP3 MSTORE SWAP5 DUP3 ADD SWAP5 SWAP1 DUP3 ADD SWAP1 PUSH2 0x174B JUMP JUMPDEST SWAP7 POP POP DUP7 ADD CALLDATALOAD SWAP3 POP POP DUP1 DUP3 GT ISZERO PUSH2 0x1781 JUMPI PUSH1 0x0 DUP1 REVERT JUMPDEST POP PUSH2 0x178E DUP6 DUP3 DUP7 ADD PUSH2 0x1553 JUMP JUMPDEST SWAP2 POP POP SWAP3 POP SWAP3 SWAP1 POP JUMP JUMPDEST PUSH1 0x0 DUP2 MLOAD DUP1 DUP5 MSTORE PUSH1 0x20 DUP1 DUP6 ADD SWAP5 POP DUP1 DUP5 ADD PUSH1 0x0 JUMPDEST DUP4 DUP2 LT ISZERO PUSH2 0x17C8 JUMPI DUP2 MLOAD DUP8 MSTORE SWAP6 DUP3 ADD SWAP6 SWAP1 DUP3 ADD SWAP1 PUSH1 0x1 ADD PUSH2 0x17AC JUMP JUMPDEST POP SWAP5 SWAP6 SWAP5 POP POP POP POP POP JUMP JUMPDEST PUSH1 0x20 DUP2 MSTORE PUSH1 0x0 PUSH2 0x146F PUSH1 0x20 DUP4 ADD DUP5 PUSH2 0x1798 JUMP JUMPDEST PUSH1 0x0 DUP1 PUSH1 0x40 DUP4 DUP6 SUB SLT ISZERO PUSH2 0x17F9 JUMPI PUSH1 0x0 DUP1 REVERT JUMPDEST DUP3 CALLDATALOAD SWAP2 POP PUSH2 0x1809 PUSH1 0x20 DUP5 ADD PUSH2 0x13F3 JUMP JUMPDEST SWAP1 POP SWAP3 POP SWAP3 SWAP1 POP JUMP JUMPDEST PUSH1 0x0 DUP1 PUSH1 0x40 DUP4 DUP6 SUB SLT ISZERO PUSH2 0x1825 JUMPI PUSH1 0x0 DUP1 REVERT JUMPDEST PUSH2 0x182E DUP4 PUSH2 0x13F3 JUMP JUMPDEST SWAP2 POP PUSH1 0x20 DUP4 ADD CALLDATALOAD DUP1 ISZERO ISZERO DUP2 EQ PUSH2 0x1843 JUMPI PUSH1 0x0 DUP1 REVERT JUMPDEST DUP1 SWAP2 POP POP SWAP3 POP SWAP3 SWAP1 POP JUMP JUMPDEST PUSH1 0x0 DUP1 PUSH1 0x40 DUP4 DUP6 SUB SLT ISZERO PUSH2 0x1861 JUMPI PUSH1 0x0 DUP1 REVERT JUMPDEST PUSH2 0x186A DUP4 PUSH2 0x13F3 JUMP JUMPDEST SWAP2 POP PUSH1 0x20 DUP4 ADD CALLDATALOAD PUSH8 0xFFFFFFFFFFFFFFFF DUP2 GT ISZERO PUSH2 0x1886 JUMPI PUSH1 0x0 DUP1 REVERT JUMPDEST PUSH2 0x178E DUP6 DUP3 DUP7 ADD PUSH2 0x1553 JUMP JUMPDEST PUSH1 0x40 DUP2 MSTORE PUSH1 0x0 PUSH2 0x18A5 PUSH1 0x40 DUP4 ADD DUP6 PUSH2 0x1798 JUMP JUMPDEST DUP3 DUP2 SUB PUSH1 0x20 DUP5 ADD MSTORE PUSH2 0x18B7 DUP2 DUP6 PUSH2 0x1798 JUMP JUMPDEST SWAP6 SWAP5 POP POP POP POP POP JUMP JUMPDEST PUSH1 0x0 DUP1 PUSH1 0x40 DUP4 DUP6 SUB SLT ISZERO PUSH2 0x18D3 JUMPI PUSH1 0x0 DUP1 REVERT JUMPDEST PUSH2 0x18DC DUP4 PUSH2 0x13F3 JUMP JUMPDEST SWAP2 POP PUSH2 0x1809 PUSH1 0x20 DUP5 ADD PUSH2 0x13F3 JUMP JUMPDEST PUSH1 0x0 DUP1 PUSH1 0x0 DUP1 PUSH1 0x0 PUSH1 0xA0 DUP7 DUP9 SUB SLT ISZERO PUSH2 0x1902 JUMPI PUSH1 0x0 DUP1 REVERT JUMPDEST PUSH2 0x190B DUP7 PUSH2 0x13F3 JUMP JUMPDEST SWAP5 POP PUSH2 0x1919 PUSH1 0x20 DUP8 ADD PUSH2 0x13F3 JUMP JUMPDEST SWAP4 POP PUSH1 0x40 DUP7 ADD CALLDATALOAD SWAP3 POP PUSH1 0x60 DUP7 ADD CALLDATALOAD SWAP2 POP PUSH1 0x80 DUP7 ADD CALLDATALOAD PUSH8 0xFFFFFFFFFFFFFFFF DUP2 GT ISZERO PUSH2 0x1943 JUMPI PUSH1 0x0 DUP1 REVERT JUMPDEST PUSH2 0x16CB DUP9 DUP3 DUP10 ADD PUSH2 0x15BE JUMP JUMPDEST PUSH1 0x1 DUP2 DUP2 SHR SWAP1 DUP3 AND DUP1 PUSH2 0x1963 JUMPI PUSH1 0x7F DUP3 AND SWAP2 POP JUMPDEST PUSH1 0x20 DUP3 LT DUP2 SUB PUSH2 0x1983 JUMPI PUSH4 0x4E487B71 PUSH1 0xE0 SHL PUSH1 0x0 MSTORE PUSH1 0x22 PUSH1 0x4 MSTORE PUSH1 0x24 PUSH1 0x0 REVERT JUMPDEST POP SWAP2 SWAP1 POP JUMP JUMPDEST PUSH4 0x4E487B71 PUSH1 0xE0 SHL PUSH1 0x0 MSTORE PUSH1 0x32 PUSH1 0x4 MSTORE PUSH1 0x24 PUSH1 0x0 REVERT JUMPDEST PUSH4 0x4E487B71 PUSH1 0xE0 SHL PUSH1 0x0 MSTORE PUSH1 0x11 PUSH1 0x4 MSTORE PUSH1 0x24 PUSH1 0x0 REVERT JUMPDEST PUSH1 0x0 PUSH1 0x1 DUP3 ADD PUSH2 0x19C7 JUMPI PUSH2 0x19C7 PUSH2 0x199F JUMP JUMPDEST POP PUSH1 0x1 ADD SWAP1 JUMP JUMPDEST DUP2 DUP2 SUB DUP2 DUP2 GT ISZERO PUSH2 0x31E JUMPI PUSH2 0x31E PUSH2 0x199F JUMP JUMPDEST PUSH1 0x20 DUP1 DUP3 MSTORE PUSH1 0x23 SWAP1 DUP3 ADD MSTORE PUSH32 0x4B495033373A207472616E7366657220746F20746865207A65726F2061646472 PUSH1 0x40 DUP3 ADD MSTORE PUSH3 0x657373 PUSH1 0xE8 SHL PUSH1 0x60 DUP3 ADD MSTORE PUSH1 0x80 ADD SWAP1 JUMP JUMPDEST PUSH1 0x20 DUP1 DUP3 MSTORE PUSH1 0x28 SWAP1 DUP3 ADD MSTORE PUSH32 0x4B495033373A20696E73756666696369656E742062616C616E636520666F7220 PUSH1 0x40 DUP3 ADD MSTORE PUSH8 0x3A3930B739B332B9 PUSH1 0xC1 SHL PUSH1 0x60 DUP3 ADD MSTORE PUSH1 0x80 ADD SWAP1 JUMP JUMPDEST DUP1 DUP3 ADD DUP1 DUP3 GT ISZERO PUSH2 0x31E JUMPI PUSH2 0x31E PUSH2 0x199F JUMP JUMPDEST PUSH1 0x1 PUSH1 0x1 PUSH1 0xA0 SHL SUB DUP7 DUP2 AND DUP3 MSTORE DUP6 AND PUSH1 0x20 DUP3 ADD MSTORE PUSH1 0xA0 PUSH1 0x40 DUP3 ADD DUP2 SWAP1 MSTORE PUSH1 0x0 SWAP1 PUSH2 0x1AAB SWAP1 DUP4 ADD DUP7 PUSH2 0x1798 JUMP JUMPDEST DUP3 DUP2 SUB PUSH1 0x60 DUP5 ADD MSTORE PUSH2 0x1ABD DUP2 DUP7 PUSH2 0x1798 JUMP JUMPDEST SWAP1 POP DUP3 DUP2 SUB PUSH1 0x80 DUP5 ADD MSTORE PUSH2 0x1AD1 DUP2 DUP6 PUSH2 0x148F JUMP JUMPDEST SWAP9 SWAP8 POP POP POP POP POP POP POP POP JUMP JUMPDEST PUSH1 0x0 PUSH1 0x20 DUP3 DUP5 SUB SLT ISZERO PUSH2 0x1AEF JUMPI PUSH1 0x0 DUP1 REVERT JUMPDEST DUP2 MLOAD PUSH2 0x146F DUP2 PUSH2 0x1439 JUMP JUMPDEST PUSH1 0x1 PUSH1 0x1 PUSH1 0xA0 SHL SUB DUP7 DUP2 AND DUP3 MSTORE DUP6 AND PUSH1 0x20 DUP3 ADD MSTORE PUSH1 0x40 DUP2 ADD DUP5 SWAP1 MSTORE PUSH1 0x60 DUP2 ADD DUP4 SWAP1 MSTORE PUSH1 0xA0 PUSH1 0x80 DUP3 ADD DUP2 SWAP1 MSTORE PUSH1 0x0 SWAP1 PUSH2 0x1B34 SWAP1 DUP4 ADD DUP5 PUSH2 0x148F JUMP JUMPDEST SWAP8 SWAP7 POP POP POP POP POP POP POP JUMP INVALID LOG2 PUSH5 0x6970667358 0x22 SLT KECCAK256 0x1F 0xD4 RETURN SLT 0xA9 0xBF 0xEC 0xEB PC 0xCA 0x2B BASEFEE LOG3 0x2C 0xB0 CALLDATACOPY 0xEB SAR OR BALANCE 0xAA 0xAA MSTORE8 DUP6 PUSH15 0x92610F934768E964736F6C63430008 SGT STOP CALLER "
		},
		"gasEstimates": {
			"creation": {
				"codeDepositCost": "1405800",
				"executionCost": "1465",
				"totalCost": "1407265"
			},
			"external": {
				"balanceOf(address,uint256)": "2677",
				"balanceOfBatch(address[],uint256[])": "infinite",
				"getAllLockedTokensByAddress(address,uint256[])": "infinite",
				"getAllProcerssLockedByAddress(address,uint256[])": "infinite",
				"isApprovedForAll(address,address)": "infinite",
				"isProcessLocked(uint256,address)": "2732",
				"isTokenLocked(uint256,address)": "2688",
				"safeBatchTransferFrom(address,address,uint256[],uint256[],bytes)": "infinite",
				"safeTransferFrom(address,address,uint256,uint256,bytes)": "infinite",
				"setApprovalForAll(address,bool)": "26706",
				"supportsInterface(bytes4)": "555",
				"totalSupply(uint256)": "2449",
				"uri(uint256)": "infinite"
			},
			"internal": {
				"_afterTokenTransfer(address,address,address,uint256[] memory,uint256[] memory,bytes memory)": "infinite",
				"_asSingletonArray(uint256)": "infinite",
				"_beforeTokenTransfer(address,address,address,uint256[] memory,uint256[] memory,bytes memory)": "infinite",
				"_burn(address,uint256,uint256)": "infinite",
				"_burnBatch(address,uint256[] memory,uint256[] memory)": "infinite",
				"_checkOnERC1155BatchReceived(address,address,address,uint256[] memory,uint256[] memory,bytes memory)": "infinite",
				"_checkOnERC1155Received(address,address,address,uint256,uint256,bytes memory)": "infinite",
				"_checkOnKIP37BatchReceived(address,address,address,uint256[] memory,uint256[] memory,bytes memory)": "infinite",
				"_checkOnKIP37Received(address,address,address,uint256,uint256,bytes memory)": "infinite",
				"_doSafeBatchTransferAcceptanceCheck(address,address,address,uint256[] memory,uint256[] memory,bytes memory)": "infinite",
				"_doSafeTransferAcceptanceCheck(address,address,address,uint256,uint256,bytes memory)": "infinite",
				"_lockTokens(address,uint256[] calldata,uint256[] calldata)": "infinite",
				"_mint(address,uint256,uint256,bytes memory)": "infinite",
				"_mintBatch(address,uint256[] memory,uint256[] memory,bytes memory)": "infinite",
				"_processLockTokens(address,uint256[] calldata,uint256[] calldata)": "infinite",
				"_processUnLockTokens(address,uint256[] calldata,uint256[] calldata)": "infinite",
				"_safeBatchTransferFrom(address,address,uint256[] memory,uint256[] memory,bytes memory)": "infinite",
				"_safeTransferFrom(address,address,uint256,uint256,bytes memory)": "infinite",
				"_setApprovalForAll(address,address,bool)": "infinite",
				"_setURI(string memory)": "infinite",
				"_unLockTokens(address,uint256[] calldata,uint256[] calldata)": "infinite",
				"appendUint256ToArray(uint256[] memory,uint256)": "infinite"
			}
		},
		"methodIdentifiers": {
			"balanceOf(address,uint256)": "00fdd58e",
			"balanceOfBatch(address[],uint256[])": "4e1273f4",
			"getAllLockedTokensByAddress(address,uint256[])": "ee51d26a",
			"getAllProcerssLockedByAddress(address,uint256[])": "a4949b18",
			"isApprovedForAll(address,address)": "e985e9c5",
			"isProcessLocked(uint256,address)": "6e1c1cbb",
			"isTokenLocked(uint256,address)": "b56cf84f",
			"safeBatchTransferFrom(address,address,uint256[],uint256[],bytes)": "2eb2c2d6",
			"safeTransferFrom(address,address,uint256,uint256,bytes)": "f242432a",
			"setApprovalForAll(address,bool)": "a22cb465",
			"supportsInterface(bytes4)": "01ffc9a7",
			"totalSupply(uint256)": "bd85b039",
			"uri(uint256)": "0e89341c"
		}
	},
	"abi": [
		{
			"inputs": [],
			"stateMutability": "nonpayable",
			"type": "constructor"
		},
		{
			"anonymous": false,
			"inputs": [
				{
					"indexed": true,
					"internalType": "address",
					"name": "owner",
					"type": "address"
				},
				{
					"indexed": true,
					"internalType": "address",
					"name": "operator",
					"type": "address"
				},
				{
					"indexed": false,
					"internalType": "bool",
					"name": "approved",
					"type": "bool"
				}
			],
			"name": "ApprovalForAll",
			"type": "event"
		},
		{
			"anonymous": false,
			"inputs": [
				{
					"indexed": true,
					"internalType": "address",
					"name": "operator",
					"type": "address"
				},
				{
					"indexed": true,
					"internalType": "address",
					"name": "from",
					"type": "address"
				},
				{
					"indexed": true,
					"internalType": "address",
					"name": "to",
					"type": "address"
				},
				{
					"indexed": false,
					"internalType": "uint256[]",
					"name": "ids",
					"type": "uint256[]"
				},
				{
					"indexed": false,
					"internalType": "uint256[]",
					"name": "amounts",
					"type": "uint256[]"
				}
			],
			"name": "TransferBatch",
			"type": "event"
		},
		{
			"anonymous": false,
			"inputs": [
				{
					"indexed": true,
					"internalType": "address",
					"name": "operator",
					"type": "address"
				},
				{
					"indexed": true,
					"internalType": "address",
					"name": "from",
					"type": "address"
				},
				{
					"indexed": true,
					"internalType": "address",
					"name": "to",
					"type": "address"
				},
				{
					"indexed": false,
					"internalType": "uint256",
					"name": "id",
					"type": "uint256"
				},
				{
					"indexed": false,
					"internalType": "uint256",
					"name": "amount",
					"type": "uint256"
				}
			],
			"name": "TransferSingle",
			"type": "event"
		},
		{
			"anonymous": false,
			"inputs": [
				{
					"indexed": false,
					"internalType": "string",
					"name": "value",
					"type": "string"
				},
				{
					"indexed": true,
					"internalType": "uint256",
					"name": "id",
					"type": "uint256"
				}
			],
			"name": "URI",
			"type": "event"
		},
		{
			"inputs": [
				{
					"internalType": "address",
					"name": "owner",
					"type": "address"
				},
				{
					"internalType": "uint256",
					"name": "id",
					"type": "uint256"
				}
			],
			"name": "balanceOf",
			"outputs": [
				{
					"internalType": "uint256",
					"name": "",
					"type": "uint256"
				}
			],
			"stateMutability": "view",
			"type": "function"
		},
		{
			"inputs": [
				{
					"internalType": "address[]",
					"name": "owners",
					"type": "address[]"
				},
				{
					"internalType": "uint256[]",
					"name": "ids",
					"type": "uint256[]"
				}
			],
			"name": "balanceOfBatch",
			"outputs": [
				{
					"internalType": "uint256[]",
					"name": "",
					"type": "uint256[]"
				}
			],
			"stateMutability": "view",
			"type": "function"
		},
		{
			"inputs": [
				{
					"internalType": "address",
					"name": "_addr",
					"type": "address"
				},
				{
					"internalType": "uint256[]",
					"name": "tokenIds",
					"type": "uint256[]"
				}
			],
			"name": "getAllLockedTokensByAddress",
			"outputs": [
				{
					"internalType": "uint256[]",
					"name": "",
					"type": "uint256[]"
				},
				{
					"internalType": "uint256[]",
					"name": "",
					"type": "uint256[]"
				}
			],
			"stateMutability": "view",
			"type": "function"
		},
		{
			"inputs": [
				{
					"internalType": "address",
					"name": "_addr",
					"type": "address"
				},
				{
					"internalType": "uint256[]",
					"name": "tokenIds",
					"type": "uint256[]"
				}
			],
			"name": "getAllProcerssLockedByAddress",
			"outputs": [
				{
					"internalType": "uint256[]",
					"name": "",
					"type": "uint256[]"
				},
				{
					"internalType": "uint256[]",
					"name": "",
					"type": "uint256[]"
				}
			],
			"stateMutability": "view",
			"type": "function"
		},
		{
			"inputs": [
				{
					"internalType": "address",
					"name": "owner",
					"type": "address"
				},
				{
					"internalType": "address",
					"name": "operator",
					"type": "address"
				}
			],
			"name": "isApprovedForAll",
			"outputs": [
				{
					"internalType": "bool",
					"name": "",
					"type": "bool"
				}
			],
			"stateMutability": "view",
			"type": "function"
		},
		{
			"inputs": [
				{
					"internalType": "uint256",
					"name": "tokenId",
					"type": "uint256"
				},
				{
					"internalType": "address",
					"name": "owner",
					"type": "address"
				}
			],
			"name": "isProcessLocked",
			"outputs": [
				{
					"internalType": "uint256",
					"name": "",
					"type": "uint256"
				}
			],
			"stateMutability": "view",
			"type": "function"
		},
		{
			"inputs": [
				{
					"internalType": "uint256",
					"name": "tokenId",
					"type": "uint256"
				},
				{
					"internalType": "address",
					"name": "owner",
					"type": "address"
				}
			],
			"name": "isTokenLocked",
			"outputs": [
				{
					"internalType": "uint256",
					"name": "",
					"type": "uint256"
				}
			],
			"stateMutability": "view",
			"type": "function"
		},
		{
			"inputs": [
				{
					"internalType": "address",
					"name": "from",
					"type": "address"
				},
				{
					"internalType": "address",
					"name": "to",
					"type": "address"
				},
				{
					"internalType": "uint256[]",
					"name": "ids",
					"type": "uint256[]"
				},
				{
					"internalType": "uint256[]",
					"name": "amounts",
					"type": "uint256[]"
				},
				{
					"internalType": "bytes",
					"name": "data",
					"type": "bytes"
				}
			],
			"name": "safeBatchTransferFrom",
			"outputs": [],
			"stateMutability": "nonpayable",
			"type": "function"
		},
		{
			"inputs": [
				{
					"internalType": "address",
					"name": "from",
					"type": "address"
				},
				{
					"internalType": "address",
					"name": "to",
					"type": "address"
				},
				{
					"internalType": "uint256",
					"name": "id",
					"type": "uint256"
				},
				{
					"internalType": "uint256",
					"name": "amount",
					"type": "uint256"
				},
				{
					"internalType": "bytes",
					"name": "data",
					"type": "bytes"
				}
			],
			"name": "safeTransferFrom",
			"outputs": [],
			"stateMutability": "nonpayable",
			"type": "function"
		},
		{
			"inputs": [
				{
					"internalType": "address",
					"name": "operator",
					"type": "address"
				},
				{
					"internalType": "bool",
					"name": "approved",
					"type": "bool"
				}
			],
			"name": "setApprovalForAll",
			"outputs": [],
			"stateMutability": "nonpayable",
			"type": "function"
		},
		{
			"inputs": [
				{
					"internalType": "bytes4",
					"name": "interfaceId",
					"type": "bytes4"
				}
			],
			"name": "supportsInterface",
			"outputs": [
				{
					"internalType": "bool",
					"name": "",
					"type": "bool"
				}
			],
			"stateMutability": "view",
			"type": "function"
		},
		{
			"inputs": [
				{
					"internalType": "uint256",
					"name": "id",
					"type": "uint256"
				}
			],
			"name": "totalSupply",
			"outputs": [
				{
					"internalType": "uint256",
					"name": "",
					"type": "uint256"
				}
			],
			"stateMutability": "view",
			"type": "function"
		},
		{
			"inputs": [
				{
					"internalType": "uint256",
					"name": "",
					"type": "uint256"
				}
			],
			"name": "uri",
			"outputs": [
				{
					"internalType": "string",
					"name": "",
					"type": "string"
				}
			],
			"stateMutability": "view",
			"type": "function"
		}
	]
}