{
	"data": {
		"bytecode": {
			"linkReferences": {},
			"object": "60806040523480156200001157600080fd5b5060405162003471380380620034718339810160408190526200003491620002f7565b6007805460ff1916905560096200004c8282620003ef565b50600a6200005b8382620003ef565b5062000069600033620000c9565b620000957f9f2df0fed2c77648de5860a4cc508cd0818c85b8b8a1ab4ceeef8d981c8956a633620000c9565b620000c17f69176e6a1211cc6eac938139a9a70e4dd65f1b7d76e806459e7a34b759878e8533620000c9565b5050620004bb565b620000d58282620000d9565b5050565b620000f082826200011c60201b62000bf71760201c565b60008281526006602090815260409091206200011791839062000c7d620001c0821b17901c565b505050565b60008281526005602090815260408083206001600160a01b038516845290915290205460ff16620000d55760008281526005602090815260408083206001600160a01b03851684529091529020805460ff191660011790556200017c3390565b6001600160a01b0316816001600160a01b0316837f2f8788117e7eff1d82e926ec794901d17c78024a50270940304540a733656f0d60405160405180910390a45050565b6000620001d7836001600160a01b038416620001e0565b90505b92915050565b60008181526001830160205260408120546200022957508154600181810184556000848152602080822090930184905584548482528286019093526040902091909155620001da565b506000620001da565b634e487b7160e01b600052604160045260246000fd5b600082601f8301126200025a57600080fd5b81516001600160401b038082111562000277576200027762000232565b604051601f8301601f19908116603f01168101908282118183101715620002a257620002a262000232565b81604052838152602092508683858801011115620002bf57600080fd5b600091505b83821015620002e35785820183015181830184015290820190620002c4565b600093810190920192909252949350505050565b600080604083850312156200030b57600080fd5b82516001600160401b03808211156200032357600080fd5b620003318683870162000248565b935060208501519150808211156200034857600080fd5b50620003578582860162000248565b9150509250929050565b600181811c908216806200037657607f821691505b6020821081036200039757634e487b7160e01b600052602260045260246000fd5b50919050565b601f8211156200011757600081815260208120601f850160051c81016020861015620003c65750805b601f850160051c820191505b81811015620003e757828155600101620003d2565b505050505050565b81516001600160401b038111156200040b576200040b62000232565b62000423816200041c845462000361565b846200039d565b602080601f8311600181146200045b5760008415620004425750858301515b600019600386901b1c1916600185901b178555620003e7565b600085815260208120601f198616915b828110156200048c578886015182559484019460019091019084016200046b565b5085821015620004ab5787850151600019600388901b60f8161c191681555b5050505050600190811b01905550565b612fa680620004cb6000396000f3fe608060405234801561001057600080fd5b50600436106101e35760003560e01c80638456cb591161010f578063ca15c873116100a2578063ee51d26a11610071578063ee51d26a1461048e578063f242432a146104af578063f5298aca146104c2578063fabc1cbc146104d557600080fd5b8063ca15c87314610417578063d547741f1461042a578063e63ab1e91461043d578063e985e9c51461045257600080fd5b8063a217fddf116100de578063a217fddf146103a9578063a22cb465146103b1578063b56cf84f146103c4578063bd85b039146103f757600080fd5b80638456cb591461035b5780639010d07c1461036357806391d148541461038e57806395d89b41146103a157600080fd5b80632eb2c2d6116101875780634e1273f4116101565780634e1273f4146102f557806353719b6e146103155780635c975abb146103405780636b20c4541461034857600080fd5b80632eb2c2d6146102b45780632f2ff15d146102c757806336568abe146102da5780633f4ba83a146102ed57600080fd5b806306fdde03116101c357806306fdde03146102545780630e89341c14610269578063136439dd1461027c578063248a9ca31461029157600080fd5b8062dde10e146101e8578062fdd58e1461022057806301ffc9a714610241575b600080fd5b61020b6101f636600461246e565b60009081526008602052604090205460ff1690565b60405190151581526020015b60405180910390f35b61023361022e3660046124a3565b6104e8565b604051908152602001610217565b61020b61024f3660046124e3565b61057f565b61025c6105c3565b6040516102179190612550565b61025c61027736600461246e565b610655565b61028f61028a36600461246e565b610660565b005b61023361029f36600461246e565b60009081526005602052604090206001015490565b61028f6102c23660046126a9565b6106a0565b61028f6102d5366004612753565b610735565b61028f6102e8366004612753565b61075f565b61028f6107dd565b61030861030336600461277f565b61081b565b604051610217919061287a565b6102336103233660046124a3565b600360209081526000928352604080842090915290825290205481565b61020b610941565b61028f61035636600461288d565b610954565b61028f610997565b610376610371366004612901565b6109d3565b6040516001600160a01b039091168152602001610217565b61020b61039c366004612753565b6109f2565b61025c610a1d565b610233600081565b61028f6103bf366004612923565b610a2c565b6102336103d2366004612753565b6001600160a01b03166000908152600360209081526040808320938352929052205490565b61023361040536600461246e565b60009081526001602052604090205490565b61023361042536600461246e565b610a37565b61028f610438366004612753565b610a4e565b610233600080516020612f5183398151915281565b61020b61046036600461295f565b6001600160a01b03918216600090815260026020908152604080832093909416825291909152205460ff1690565b6104a161049c366004612989565b610a73565b6040516102179291906129cd565b61028f6104bd3660046129fb565b610b32565b61028f6104d0366004612a60565b610b77565b61028f6104e336600461246e565b610bba565b60006001600160a01b0383166105565760405162461bcd60e51b815260206004820152602860248201527f4b495033373a2061646472657373207a65726f206973206e6f7420612076616c60448201526734b21037bbb732b960c11b60648201526084015b60405180910390fd5b506000818152602081815260408083206001600160a01b03861684529091529020545b92915050565b600061058a82610c92565b80610599575061059982610cb7565b806105b457506001600160e01b03198216630b7f5a3560e31b145b80610579575061057982610ceb565b6060600980546105d290612a93565b80601f01602080910402602001604051908101604052809291908181526020018280546105fe90612a93565b801561064b5780601f106106205761010080835404028352916020019161064b565b820191906000526020600020905b81548152906001019060200180831161062e57829003601f168201915b5050505050905090565b606061057982610d2b565b610678600080516020612f51833981519152336109f2565b6106945760405162461bcd60e51b815260040161054d90612acd565b61069d81610dbf565b50565b6001600160a01b0385163314806106bc57506106bc8533610460565b6107215760405162461bcd60e51b815260206004820152603060248201527f4b495033373a207472616e736665722063616c6c6572206973206e6f74206f7760448201526f1b995c881b9bdc88185c1c1c9bdd995960821b606482015260840161054d565b61072e8585858585610ea8565b5050505050565b60008281526005602052604090206001015461075081611052565b61075a838361105c565b505050565b6001600160a01b03811633146107cf5760405162461bcd60e51b815260206004820152602f60248201527f416363657373436f6e74726f6c3a2063616e206f6e6c792072656e6f756e636560448201526e103937b632b9903337b91039b2b63360891b606482015260840161054d565b6107d9828261107e565b5050565b6107f5600080516020612f51833981519152336109f2565b6108115760405162461bcd60e51b815260040161054d90612b2a565b6108196110a0565b565b6060815183511461087c5760405162461bcd60e51b815260206004820152602560248201527f4b495033373a206f776e65727320616e6420696473206c656e677468206d69736044820152640dac2e8c6d60db1b606482015260840161054d565b6000835167ffffffffffffffff81111561089857610898612563565b6040519080825280602002602001820160405280156108c1578160200160208202803683370190505b50905060005b84518110156109395761090c8582815181106108e5576108e5612b87565b60200260200101518583815181106108ff576108ff612b87565b60200260200101516104e8565b82828151811061091e5761091e612b87565b602090810291909101015261093281612bb3565b90506108c7565b509392505050565b600061094f60075460ff1690565b905090565b6001600160a01b03831633148061097057506109708333610460565b61098c5760405162461bcd60e51b815260040161054d90612bcc565b61075a8383836110c0565b6109af600080516020612f51833981519152336109f2565b6109cb5760405162461bcd60e51b815260040161054d90612acd565b61081961125d565b60008281526006602052604081206109eb908361127d565b9392505050565b60009182526005602090815260408084206001600160a01b0393909316845291905290205460ff1690565b6060600a80546105d290612a93565b6107d9338383611289565b600081815260066020526040812061057990611367565b600082815260056020526040902060010154610a6981611052565b61075a838361107e565b60608060608060005b60018651610a8a9190612c13565b811015610b26576001600160a01b038716600090815260036020526040812087518290899085908110610abf57610abf612b87565b602002602001015181526020019081526020016000205490506000811115610b1357610b0484888481518110610af757610af7612b87565b6020026020010151611371565b9350610b108382611371565b92505b5080610b1e81612bb3565b915050610a7c565b50909590945092505050565b6001600160a01b038516331480610b4e5750610b4e8533610460565b610b6a5760405162461bcd60e51b815260040161054d90612bcc565b61072e8585858585611443565b6001600160a01b038316331480610b935750610b938333610460565b610baf5760405162461bcd60e51b815260040161054d90612bcc565b61075a83838361157b565b610bd2600080516020612f51833981519152336109f2565b610bee5760405162461bcd60e51b815260040161054d90612b2a565b61069d81611698565b610c0182826109f2565b6107d95760008281526005602090815260408083206001600160a01b03851684529091529020805460ff19166001179055610c393390565b6001600160a01b0316816001600160a01b0316837f2f8788117e7eff1d82e926ec794901d17c78024a50270940304540a733656f0d60405160405180910390a45050565b60006109eb836001600160a01b03841661175e565b60006001600160e01b03198216634f04a74f60e11b14806105795750610579826117ad565b60006001600160e01b03198216630e8ffdb760e01b1480610cdc5750610cdc82610ceb565b806105795750610579826117ad565b60006001600160e01b03198216636433ca1f60e01b1480610d1c57506001600160e01b031982166303a24d0760e21b145b806105795750610579826117d2565b606060048054610d3a90612a93565b80601f0160208091040260200160405190810160405280929190818152602001828054610d6690612a93565b8015610db35780601f10610d8857610100808354040283529160200191610db3565b820191906000526020600020905b815481529060010190602001808311610d9657829003601f168201915b50505050509050919050565b600080516020612f51833981519152610dd781611052565b60008281526008602052604090205460ff1615610e425760405162461bcd60e51b815260206004820152602360248201527f4b495033375061757361626c653a20746f6b656e20616c7265616479207061756044820152621cd95960ea1b606482015260840161054d565b6000828152600860205260409020805460ff191660011790557f8622310c27420d43447724ef64e214ebf86405b8e9f149480fb03111f811e519610e833390565b604080516001600160a01b039092168252602082018590520160405180910390a15050565b8151835114610ec95760405162461bcd60e51b815260040161054d90612c26565b6001600160a01b038416610eef5760405162461bcd60e51b815260040161054d90612c6c565b33610efe8187878787876117e8565b60005b8451811015610fe4576000858281518110610f1e57610f1e612b87565b602002602001015190506000858381518110610f3c57610f3c612b87565b602090810291909101810151600084815280835260408082206001600160a01b038e168352909352919091205490915081811015610f8c5760405162461bcd60e51b815260040161054d90612caf565b6000838152602081815260408083206001600160a01b038e8116855292528083208585039055908b16825281208054849290610fc9908490612cf7565b9250508190555050505080610fdd90612bb3565b9050610f01565b50846001600160a01b0316866001600160a01b0316826001600160a01b03167f4a39dc06d4c0dbc64b70af90fd698a233a518aa5d07e595d983b8c0526c8f7fb87876040516110349291906129cd565b60405180910390a461104a8187878787876117f6565b505050505050565b61069d8133611895565b6110668282610bf7565b600082815260066020526040902061075a9082610c7d565b61108882826118f9565b600082815260066020526040902061075a9082611960565b600080516020612f518339815191526110b881611052565b61069d611975565b6001600160a01b0383166110e65760405162461bcd60e51b815260040161054d90612d0a565b80518251146111075760405162461bcd60e51b815260040161054d90612c26565b600033905061112a818560008686604051806020016040528060008152506117e8565b60005b83518110156111ef57600084828151811061114a5761114a612b87565b60200260200101519050600084838151811061116857611168612b87565b602090810291909101810151600084815280835260408082206001600160a01b038c1683529093529190912054909150818110156111b85760405162461bcd60e51b815260040161054d90612d4b565b6000928352602083815260408085206001600160a01b038b16865290915290922091039055806111e781612bb3565b91505061112d565b5060006001600160a01b0316846001600160a01b0316826001600160a01b03167f4a39dc06d4c0dbc64b70af90fd698a233a518aa5d07e595d983b8c0526c8f7fb86866040516112409291906129cd565b60405180910390a460408051602081019091526000905250505050565b600080516020612f5183398151915261127581611052565b61069d611a0a565b60006109eb8383611a87565b816001600160a01b0316836001600160a01b0316036112fa5760405162461bcd60e51b815260206004820152602760248201527f4b495033373a2073657474696e6720617070726f76616c20737461747573206660448201526637b91039b2b63360c91b606482015260840161054d565b6001600160a01b03838116600081815260026020908152604080832094871680845294825291829020805460ff191686151590811790915591519182527f17307eab39ab6107e8899845ad3d59bd9653f200f220920489ca2b5937696c31910160405180910390a3505050565b6000610579825490565b60606000835160016113839190612cf7565b67ffffffffffffffff81111561139b5761139b612563565b6040519080825280602002602001820160405280156113c4578160200160208202803683370190505b50905060005b845181101561141c578481815181106113e5576113e5612b87565b60200260200101518282815181106113ff576113ff612b87565b60209081029190910101528061141481612bb3565b9150506113ca565b50828185518151811061143157611431612b87565b60209081029190910101529392505050565b6001600160a01b0384166114695760405162461bcd60e51b815260040161054d90612c6c565b33600061147585611ab1565b9050600061148285611ab1565b90506114928389898585896117e8565b6000868152602081815260408083206001600160a01b038c168452909152902054858110156114d35760405162461bcd60e51b815260040161054d90612caf565b6000878152602081815260408083206001600160a01b038d8116855292528083208985039055908a16825281208054889290611510908490612cf7565b909155505060408051888152602081018890526001600160a01b03808b16928c821692918816917fc3d58168c5ae7397731d063d5bbf3d657854427343f4c083240f7aacaa2d0f62910160405180910390a4611570848a8a8a8a8a611afc565b505050505050505050565b6001600160a01b0383166115a15760405162461bcd60e51b815260040161054d90612d0a565b3360006115ad84611ab1565b905060006115ba84611ab1565b90506115da838760008585604051806020016040528060008152506117e8565b6000858152602081815260408083206001600160a01b038a1684529091529020548481101561161b5760405162461bcd60e51b815260040161054d90612d4b565b6000868152602081815260408083206001600160a01b038b81168086529184528285208a8703905582518b81529384018a90529092908816917fc3d58168c5ae7397731d063d5bbf3d657854427343f4c083240f7aacaa2d0f62910160405180910390a46040805160208101909152600090525b50505050505050565b600080516020612f518339815191526116b081611052565b60008281526008602052604090205460ff1615156001146117215760405162461bcd60e51b815260206004820152602560248201527f4b495033375061757361626c653a20746f6b656e20616c726561647920756e70604482015264185d5cd95960da1b606482015260840161054d565b6000828152600860205260409020805460ff191690557f9db9e80f56a6219278c09b5683f265be968540b2e4d3c07303262ff72916ad7833610e83565b60008181526001830160205260408120546117a557508154600181810184556000848152602080822090930184905584548482528286019093526040902091909155610579565b506000610579565b60006001600160e01b03198216635a05180f60e01b1480610579575061057982611b1e565b6001600160e01b0319166301ffc9a760e01b1490565b61104a868686868686611b43565b611804868686868686611be8565b806118185750611818868686868686611ce0565b61104a5760405162461bcd60e51b815260206004820152604260248201527f4b495033373a207472616e7366657220746f206e6f6e20494b4950333752656360448201527f65697665722f4945524331313535526563656976657220696d706c656d656e7460648201526132b960f11b608482015260a40161054d565b61189f82826109f2565b6107d9576118b7816001600160a01b03166014611da9565b6118c2836020611da9565b6040516020016118d3929190612d8d565b60408051601f198184030181529082905262461bcd60e51b825261054d91600401612550565b61190382826109f2565b156107d95760008281526005602090815260408083206001600160a01b0385168085529252808320805460ff1916905551339285917ff6391f5c32d9c69d2a47ea670b442974b53935d1edc7fd64eb21e047a839171b9190a45050565b60006109eb836001600160a01b038416611f45565b61197d610941565b6119c05760405162461bcd60e51b815260206004820152601460248201527314185d5cd8589b194e881b9bdd081c185d5cd95960621b604482015260640161054d565b6007805460ff191690557f5db9ee0a495bf2e6ff9c91a7834c1ba4fdd244a5e8aa4e537bd38aeae4b073aa335b6040516001600160a01b03909116815260200160405180910390a1565b611a12610941565b15611a525760405162461bcd60e51b815260206004820152601060248201526f14185d5cd8589b194e881c185d5cd95960821b604482015260640161054d565b6007805460ff191660011790557f62e78cea01bee320cd4e420270b5ea74000d11b0c9f74754ebdbfc544b05a2586119ed3390565b6000826000018281548110611a9e57611a9e612b87565b9060005260206000200154905092915050565b60408051600180825281830190925260609160009190602080830190803683370190505090508281600081518110611aeb57611aeb612b87565b602090810291909101015292915050565b611b0a868686868686612038565b806118185750611818868686868686612101565b60006001600160e01b03198216637965db0b60e01b14806105795750610579826117d2565b611b518686868686866121ca565b60005b8351811015611bc2576000848281518110611b7157611b71612b87565b60200260200101519050611b948160009081526008602052604090205460ff1690565b15611bb15760405162461bcd60e51b815260040161054d90612e02565b50611bbb81612bb3565b9050611b54565b50611bcb610941565b1561104a5760405162461bcd60e51b815260040161054d90612e02565b60006001600160a01b0385163b15611cd257604051634da4f19960e11b81526001600160a01b03861690639b49e33290611c2e908a908a90899089908990600401612e4c565b6020604051808303816000875af1925050508015611c69575060408051601f3d908101601f19168201909252611c6691810190612eaa565b60015b611cb8573d808015611c97576040519150601f19603f3d011682016040523d82523d6000602084013e611c9c565b606091505b508051600003611cb0576000915050611cd6565b805181602001fd5b6001600160e01b031916634da4f19960e11b149050611cd6565b5060015b9695505050505050565b60006001600160a01b0385163b15611cd25760405163bc197c8160e01b81526001600160a01b0386169063bc197c8190611d26908a908a90899089908990600401612e4c565b6020604051808303816000875af1925050508015611d61575060408051601f3d908101601f19168201909252611d5e91810190612eaa565b60015b611d8f573d808015611c97576040519150601f19603f3d011682016040523d82523d6000602084013e611c9c565b6001600160e01b03191663bc197c8160e01b149050611cd6565b60606000611db8836002612ec7565b611dc3906002612cf7565b67ffffffffffffffff811115611ddb57611ddb612563565b6040519080825280601f01601f191660200182016040528015611e05576020820181803683370190505b509050600360fc1b81600081518110611e2057611e20612b87565b60200101906001600160f81b031916908160001a905350600f60fb1b81600181518110611e4f57611e4f612b87565b60200101906001600160f81b031916908160001a9053506000611e73846002612ec7565b611e7e906001612cf7565b90505b6001811115611ef6576f181899199a1a9b1b9c1cb0b131b232b360811b85600f1660108110611eb257611eb2612b87565b1a60f81b828281518110611ec857611ec8612b87565b60200101906001600160f81b031916908160001a90535060049490941c93611eef81612ede565b9050611e81565b5083156109eb5760405162461bcd60e51b815260206004820181905260248201527f537472696e67733a20686578206c656e67746820696e73756666696369656e74604482015260640161054d565b6000818152600183016020526040812054801561202e576000611f69600183612c13565b8554909150600090611f7d90600190612c13565b9050818114611fe2576000866000018281548110611f9d57611f9d612b87565b9060005260206000200154905080876000018481548110611fc057611fc0612b87565b6000918252602080832090910192909255918252600188019052604090208390555b8554869080611ff357611ff3612ef5565b600190038181906000526020600020016000905590558560010160008681526020019081526020016000206000905560019350505050610579565b6000915050610579565b60006001600160a01b0385163b15611cd25760405163e78b332560e01b81526001600160a01b0386169063e78b33259061207e908a908a90899089908990600401612f0b565b6020604051808303816000875af19250505080156120b9575060408051601f3d908101601f191682019092526120b691810190612eaa565b60015b6120e7573d808015611c97576040519150601f19603f3d011682016040523d82523d6000602084013e611c9c565b6001600160e01b03191663e78b332560e01b149050611cd6565b60006001600160a01b0385163b15611cd25760405163f23a6e6160e01b81526001600160a01b0386169063f23a6e6190612147908a908a90899089908990600401612f0b565b6020604051808303816000875af1925050508015612182575060408051601f3d908101601f1916820190925261217f91810190612eaa565b60015b6121b0573d808015611c97576040519150601f19603f3d011682016040523d82523d6000602084013e611c9c565b6001600160e01b03191663f23a6e6160e01b149050611cd6565b60005b83518110156122f6576001600160a01b03861660009081526003602052604081208551829087908590811061220457612204612b87565b602002602001015181526020019081526020016000205460008087858151811061223057612230612b87565b602002602001015181526020019081526020016000206000896001600160a01b03166001600160a01b03168152602001908152602001600020546122749190612c13565b90506001600160a01b038716158015906122a6575083828151811061229b5761229b612b87565b602002602001015181105b156122e55760405162461bcd60e51b815260206004820152600f60248201526e151bdad95b881a5cc81b1bd8dad959608a1b604482015260640161054d565b506122ef81612bb3565b90506121cd565b506001600160a01b03851661237e5760005b835181101561237c5782818151811061232357612323612b87565b60200260200101516001600086848151811061234157612341612b87565b6020026020010151815260200190815260200160002060008282546123669190612cf7565b90915550612375905081612bb3565b9050612308565b505b6001600160a01b03841661104a5760005b835181101561168f5760008482815181106123ac576123ac612b87565b6020026020010151905060008483815181106123ca576123ca612b87565b602002602001015190506000600160008481526020019081526020016000205490508181101561244b5760405162461bcd60e51b815260206004820152602660248201527f4b495033373a206275726e20616d6f756e74206578636565647320746f74616c604482015265537570706c7960d01b606482015260840161054d565b6000928352600160205260409092209103905561246781612bb3565b905061238f565b60006020828403121561248057600080fd5b5035919050565b80356001600160a01b038116811461249e57600080fd5b919050565b600080604083850312156124b657600080fd5b6124bf83612487565b946020939093013593505050565b6001600160e01b03198116811461069d57600080fd5b6000602082840312156124f557600080fd5b81356109eb816124cd565b60005b8381101561251b578181015183820152602001612503565b50506000910152565b6000815180845261253c816020860160208601612500565b601f01601f19169290920160200192915050565b6020815260006109eb6020830184612524565b634e487b7160e01b600052604160045260246000fd5b604051601f8201601f1916810167ffffffffffffffff811182821017156125a2576125a2612563565b604052919050565b600067ffffffffffffffff8211156125c4576125c4612563565b5060051b60200190565b600082601f8301126125df57600080fd5b813560206125f46125ef836125aa565b612579565b82815260059290921b8401810191818101908684111561261357600080fd5b8286015b8481101561262e5780358352918301918301612617565b509695505050505050565b600082601f83011261264a57600080fd5b813567ffffffffffffffff81111561266457612664612563565b612677601f8201601f1916602001612579565b81815284602083860101111561268c57600080fd5b816020850160208301376000918101602001919091529392505050565b600080600080600060a086880312156126c157600080fd5b6126ca86612487565b94506126d860208701612487565b9350604086013567ffffffffffffffff808211156126f557600080fd5b61270189838a016125ce565b9450606088013591508082111561271757600080fd5b61272389838a016125ce565b9350608088013591508082111561273957600080fd5b5061274688828901612639565b9150509295509295909350565b6000806040838503121561276657600080fd5b8235915061277660208401612487565b90509250929050565b6000806040838503121561279257600080fd5b823567ffffffffffffffff808211156127aa57600080fd5b818501915085601f8301126127be57600080fd5b813560206127ce6125ef836125aa565b82815260059290921b840181019181810190898411156127ed57600080fd5b948201945b838610156128125761280386612487565b825294820194908201906127f2565b9650508601359250508082111561282857600080fd5b50612835858286016125ce565b9150509250929050565b600081518084526020808501945080840160005b8381101561286f57815187529582019590820190600101612853565b509495945050505050565b6020815260006109eb602083018461283f565b6000806000606084860312156128a257600080fd5b6128ab84612487565b9250602084013567ffffffffffffffff808211156128c857600080fd5b6128d4878388016125ce565b935060408601359150808211156128ea57600080fd5b506128f7868287016125ce565b9150509250925092565b6000806040838503121561291457600080fd5b50508035926020909101359150565b6000806040838503121561293657600080fd5b61293f83612487565b91506020830135801515811461295457600080fd5b809150509250929050565b6000806040838503121561297257600080fd5b61297b83612487565b915061277660208401612487565b6000806040838503121561299c57600080fd5b6129a583612487565b9150602083013567ffffffffffffffff8111156129c157600080fd5b612835858286016125ce565b6040815260006129e0604083018561283f565b82810360208401526129f2818561283f565b95945050505050565b600080600080600060a08688031215612a1357600080fd5b612a1c86612487565b9450612a2a60208701612487565b93506040860135925060608601359150608086013567ffffffffffffffff811115612a5457600080fd5b61274688828901612639565b600080600060608486031215612a7557600080fd5b612a7e84612487565b95602085013595506040909401359392505050565b600181811c90821680612aa757607f821691505b602082108103612ac757634e487b7160e01b600052602260045260246000fd5b50919050565b60208082526037908201527f4b495033375072657365744d696e7465725061757365723a206d75737420686160408201527f76652070617573657220726f6c6520746f207061757365000000000000000000606082015260800190565b60208082526039908201527f4b495033375072657365744d696e7465725061757365723a206d75737420686160408201527f76652070617573657220726f6c6520746f20756e706175736500000000000000606082015260800190565b634e487b7160e01b600052603260045260246000fd5b634e487b7160e01b600052601160045260246000fd5b600060018201612bc557612bc5612b9d565b5060010190565b60208082526027908201527f4b495033373a2063616c6c6572206973206e6f74206f776e6572206e6f7220616040820152661c1c1c9bdd995960ca1b606082015260800190565b8181038181111561057957610579612b9d565b60208082526026908201527f4b495033373a2069647320616e6420616d6f756e7473206c656e677468206d696040820152650e6dac2e8c6d60d31b606082015260800190565b60208082526023908201527f4b495033373a207472616e7366657220746f20746865207a65726f206164647260408201526265737360e81b606082015260800190565b60208082526028908201527f4b495033373a20696e73756666696369656e742062616c616e636520666f72206040820152673a3930b739b332b960c11b606082015260800190565b8082018082111561057957610579612b9d565b60208082526021908201527f4b495033373a206275726e2066726f6d20746865207a65726f206164647265736040820152607360f81b606082015260800190565b60208082526022908201527f4b495033373a206275726e20616d6f756e7420657863656564732062616c616e604082015261636560f01b606082015260800190565b7f416363657373436f6e74726f6c3a206163636f756e7420000000000000000000815260008351612dc5816017850160208801612500565b7001034b99036b4b9b9b4b733903937b6329607d1b6017918401918201528351612df6816028840160208801612500565b01602801949350505050565b6020808252602a908201527f4b495033375061757361626c653a20746f6b656e207472616e736665722077686040820152691a5b19481c185d5cd95960b21b606082015260800190565b6001600160a01b0386811682528516602082015260a060408201819052600090612e789083018661283f565b8281036060840152612e8a818661283f565b90508281036080840152612e9e8185612524565b98975050505050505050565b600060208284031215612ebc57600080fd5b81516109eb816124cd565b808202811582820484141761057957610579612b9d565b600081612eed57612eed612b9d565b506000190190565b634e487b7160e01b600052603160045260246000fd5b6001600160a01b03868116825285166020820152604081018490526060810183905260a060808201819052600090612f4590830184612524565b97965050505050505056fe69176e6a1211cc6eac938139a9a70e4dd65f1b7d76e806459e7a34b759878e85a26469706673582212202cb6f0924b4d597f449146943cdfe172f41a3a3d00d17b8385cb1a9072fabdc464736f6c63430008120033",
			"opcodes": "PUSH1 0x80 PUSH1 0x40 MSTORE CALLVALUE DUP1 ISZERO PUSH3 0x11 JUMPI PUSH1 0x0 DUP1 REVERT JUMPDEST POP PUSH1 0x40 MLOAD PUSH3 0x3471 CODESIZE SUB DUP1 PUSH3 0x3471 DUP4 CODECOPY DUP2 ADD PUSH1 0x40 DUP2 SWAP1 MSTORE PUSH3 0x34 SWAP2 PUSH3 0x2F7 JUMP JUMPDEST PUSH1 0x7 DUP1 SLOAD PUSH1 0xFF NOT AND SWAP1 SSTORE PUSH1 0x9 PUSH3 0x4C DUP3 DUP3 PUSH3 0x3EF JUMP JUMPDEST POP PUSH1 0xA PUSH3 0x5B DUP4 DUP3 PUSH3 0x3EF JUMP JUMPDEST POP PUSH3 0x69 PUSH1 0x0 CALLER PUSH3 0xC9 JUMP JUMPDEST PUSH3 0x95 PUSH32 0x9F2DF0FED2C77648DE5860A4CC508CD0818C85B8B8A1AB4CEEEF8D981C8956A6 CALLER PUSH3 0xC9 JUMP JUMPDEST PUSH3 0xC1 PUSH32 0x69176E6A1211CC6EAC938139A9A70E4DD65F1B7D76E806459E7A34B759878E85 CALLER PUSH3 0xC9 JUMP JUMPDEST POP POP PUSH3 0x4BB JUMP JUMPDEST PUSH3 0xD5 DUP3 DUP3 PUSH3 0xD9 JUMP JUMPDEST POP POP JUMP JUMPDEST PUSH3 0xF0 DUP3 DUP3 PUSH3 0x11C PUSH1 0x20 SHL PUSH3 0xBF7 OR PUSH1 0x20 SHR JUMP JUMPDEST PUSH1 0x0 DUP3 DUP2 MSTORE PUSH1 0x6 PUSH1 0x20 SWAP1 DUP2 MSTORE PUSH1 0x40 SWAP1 SWAP2 KECCAK256 PUSH3 0x117 SWAP2 DUP4 SWAP1 PUSH3 0xC7D PUSH3 0x1C0 DUP3 SHL OR SWAP1 SHR JUMP JUMPDEST POP POP POP JUMP JUMPDEST PUSH1 0x0 DUP3 DUP2 MSTORE PUSH1 0x5 PUSH1 0x20 SWAP1 DUP2 MSTORE PUSH1 0x40 DUP1 DUP4 KECCAK256 PUSH1 0x1 PUSH1 0x1 PUSH1 0xA0 SHL SUB DUP6 AND DUP5 MSTORE SWAP1 SWAP2 MSTORE SWAP1 KECCAK256 SLOAD PUSH1 0xFF AND PUSH3 0xD5 JUMPI PUSH1 0x0 DUP3 DUP2 MSTORE PUSH1 0x5 PUSH1 0x20 SWAP1 DUP2 MSTORE PUSH1 0x40 DUP1 DUP4 KECCAK256 PUSH1 0x1 PUSH1 0x1 PUSH1 0xA0 SHL SUB DUP6 AND DUP5 MSTORE SWAP1 SWAP2 MSTORE SWAP1 KECCAK256 DUP1 SLOAD PUSH1 0xFF NOT AND PUSH1 0x1 OR SWAP1 SSTORE PUSH3 0x17C CALLER SWAP1 JUMP JUMPDEST PUSH1 0x1 PUSH1 0x1 PUSH1 0xA0 SHL SUB AND DUP2 PUSH1 0x1 PUSH1 0x1 PUSH1 0xA0 SHL SUB AND DUP4 PUSH32 0x2F8788117E7EFF1D82E926EC794901D17C78024A50270940304540A733656F0D PUSH1 0x40 MLOAD PUSH1 0x40 MLOAD DUP1 SWAP2 SUB SWAP1 LOG4 POP POP JUMP JUMPDEST PUSH1 0x0 PUSH3 0x1D7 DUP4 PUSH1 0x1 PUSH1 0x1 PUSH1 0xA0 SHL SUB DUP5 AND PUSH3 0x1E0 JUMP JUMPDEST SWAP1 POP JUMPDEST SWAP3 SWAP2 POP POP JUMP JUMPDEST PUSH1 0x0 DUP2 DUP2 MSTORE PUSH1 0x1 DUP4 ADD PUSH1 0x20 MSTORE PUSH1 0x40 DUP2 KECCAK256 SLOAD PUSH3 0x229 JUMPI POP DUP2 SLOAD PUSH1 0x1 DUP2 DUP2 ADD DUP5 SSTORE PUSH1 0x0 DUP5 DUP2 MSTORE PUSH1 0x20 DUP1 DUP3 KECCAK256 SWAP1 SWAP4 ADD DUP5 SWAP1 SSTORE DUP5 SLOAD DUP5 DUP3 MSTORE DUP3 DUP7 ADD SWAP1 SWAP4 MSTORE PUSH1 0x40 SWAP1 KECCAK256 SWAP2 SWAP1 SWAP2 SSTORE PUSH3 0x1DA JUMP JUMPDEST POP PUSH1 0x0 PUSH3 0x1DA JUMP JUMPDEST PUSH4 0x4E487B71 PUSH1 0xE0 SHL PUSH1 0x0 MSTORE PUSH1 0x41 PUSH1 0x4 MSTORE PUSH1 0x24 PUSH1 0x0 REVERT JUMPDEST PUSH1 0x0 DUP3 PUSH1 0x1F DUP4 ADD SLT PUSH3 0x25A JUMPI PUSH1 0x0 DUP1 REVERT JUMPDEST DUP2 MLOAD PUSH1 0x1 PUSH1 0x1 PUSH1 0x40 SHL SUB DUP1 DUP3 GT ISZERO PUSH3 0x277 JUMPI PUSH3 0x277 PUSH3 0x232 JUMP JUMPDEST PUSH1 0x40 MLOAD PUSH1 0x1F DUP4 ADD PUSH1 0x1F NOT SWAP1 DUP2 AND PUSH1 0x3F ADD AND DUP2 ADD SWAP1 DUP3 DUP3 GT DUP2 DUP4 LT OR ISZERO PUSH3 0x2A2 JUMPI PUSH3 0x2A2 PUSH3 0x232 JUMP JUMPDEST DUP2 PUSH1 0x40 MSTORE DUP4 DUP2 MSTORE PUSH1 0x20 SWAP3 POP DUP7 DUP4 DUP6 DUP9 ADD ADD GT ISZERO PUSH3 0x2BF JUMPI PUSH1 0x0 DUP1 REVERT JUMPDEST PUSH1 0x0 SWAP2 POP JUMPDEST DUP4 DUP3 LT ISZERO PUSH3 0x2E3 JUMPI DUP6 DUP3 ADD DUP4 ADD MLOAD DUP2 DUP4 ADD DUP5 ADD MSTORE SWAP1 DUP3 ADD SWAP1 PUSH3 0x2C4 JUMP JUMPDEST PUSH1 0x0 SWAP4 DUP2 ADD SWAP1 SWAP3 ADD SWAP3 SWAP1 SWAP3 MSTORE SWAP5 SWAP4 POP POP POP POP JUMP JUMPDEST PUSH1 0x0 DUP1 PUSH1 0x40 DUP4 DUP6 SUB SLT ISZERO PUSH3 0x30B JUMPI PUSH1 0x0 DUP1 REVERT JUMPDEST DUP3 MLOAD PUSH1 0x1 PUSH1 0x1 PUSH1 0x40 SHL SUB DUP1 DUP3 GT ISZERO PUSH3 0x323 JUMPI PUSH1 0x0 DUP1 REVERT JUMPDEST PUSH3 0x331 DUP7 DUP4 DUP8 ADD PUSH3 0x248 JUMP JUMPDEST SWAP4 POP PUSH1 0x20 DUP6 ADD MLOAD SWAP2 POP DUP1 DUP3 GT ISZERO PUSH3 0x348 JUMPI PUSH1 0x0 DUP1 REVERT JUMPDEST POP PUSH3 0x357 DUP6 DUP3 DUP7 ADD PUSH3 0x248 JUMP JUMPDEST SWAP2 POP POP SWAP3 POP SWAP3 SWAP1 POP JUMP JUMPDEST PUSH1 0x1 DUP2 DUP2 SHR SWAP1 DUP3 AND DUP1 PUSH3 0x376 JUMPI PUSH1 0x7F DUP3 AND SWAP2 POP JUMPDEST PUSH1 0x20 DUP3 LT DUP2 SUB PUSH3 0x397 JUMPI PUSH4 0x4E487B71 PUSH1 0xE0 SHL PUSH1 0x0 MSTORE PUSH1 0x22 PUSH1 0x4 MSTORE PUSH1 0x24 PUSH1 0x0 REVERT JUMPDEST POP SWAP2 SWAP1 POP JUMP JUMPDEST PUSH1 0x1F DUP3 GT ISZERO PUSH3 0x117 JUMPI PUSH1 0x0 DUP2 DUP2 MSTORE PUSH1 0x20 DUP2 KECCAK256 PUSH1 0x1F DUP6 ADD PUSH1 0x5 SHR DUP2 ADD PUSH1 0x20 DUP7 LT ISZERO PUSH3 0x3C6 JUMPI POP DUP1 JUMPDEST PUSH1 0x1F DUP6 ADD PUSH1 0x5 SHR DUP3 ADD SWAP2 POP JUMPDEST DUP2 DUP2 LT ISZERO PUSH3 0x3E7 JUMPI DUP3 DUP2 SSTORE PUSH1 0x1 ADD PUSH3 0x3D2 JUMP JUMPDEST POP POP POP POP POP POP JUMP JUMPDEST DUP2 MLOAD PUSH1 0x1 PUSH1 0x1 PUSH1 0x40 SHL SUB DUP2 GT ISZERO PUSH3 0x40B JUMPI PUSH3 0x40B PUSH3 0x232 JUMP JUMPDEST PUSH3 0x423 DUP2 PUSH3 0x41C DUP5 SLOAD PUSH3 0x361 JUMP JUMPDEST DUP5 PUSH3 0x39D JUMP JUMPDEST PUSH1 0x20 DUP1 PUSH1 0x1F DUP4 GT PUSH1 0x1 DUP2 EQ PUSH3 0x45B JUMPI PUSH1 0x0 DUP5 ISZERO PUSH3 0x442 JUMPI POP DUP6 DUP4 ADD MLOAD JUMPDEST PUSH1 0x0 NOT PUSH1 0x3 DUP7 SWAP1 SHL SHR NOT AND PUSH1 0x1 DUP6 SWAP1 SHL OR DUP6 SSTORE PUSH3 0x3E7 JUMP JUMPDEST PUSH1 0x0 DUP6 DUP2 MSTORE PUSH1 0x20 DUP2 KECCAK256 PUSH1 0x1F NOT DUP7 AND SWAP2 JUMPDEST DUP3 DUP2 LT ISZERO PUSH3 0x48C JUMPI DUP9 DUP7 ADD MLOAD DUP3 SSTORE SWAP5 DUP5 ADD SWAP5 PUSH1 0x1 SWAP1 SWAP2 ADD SWAP1 DUP5 ADD PUSH3 0x46B JUMP JUMPDEST POP DUP6 DUP3 LT ISZERO PUSH3 0x4AB JUMPI DUP8 DUP6 ADD MLOAD PUSH1 0x0 NOT PUSH1 0x3 DUP9 SWAP1 SHL PUSH1 0xF8 AND SHR NOT AND DUP2 SSTORE JUMPDEST POP POP POP POP POP PUSH1 0x1 SWAP1 DUP2 SHL ADD SWAP1 SSTORE POP JUMP JUMPDEST PUSH2 0x2FA6 DUP1 PUSH3 0x4CB PUSH1 0x0 CODECOPY PUSH1 0x0 RETURN INVALID PUSH1 0x80 PUSH1 0x40 MSTORE CALLVALUE DUP1 ISZERO PUSH2 0x10 JUMPI PUSH1 0x0 DUP1 REVERT JUMPDEST POP PUSH1 0x4 CALLDATASIZE LT PUSH2 0x1E3 JUMPI PUSH1 0x0 CALLDATALOAD PUSH1 0xE0 SHR DUP1 PUSH4 0x8456CB59 GT PUSH2 0x10F JUMPI DUP1 PUSH4 0xCA15C873 GT PUSH2 0xA2 JUMPI DUP1 PUSH4 0xEE51D26A GT PUSH2 0x71 JUMPI DUP1 PUSH4 0xEE51D26A EQ PUSH2 0x48E JUMPI DUP1 PUSH4 0xF242432A EQ PUSH2 0x4AF JUMPI DUP1 PUSH4 0xF5298ACA EQ PUSH2 0x4C2 JUMPI DUP1 PUSH4 0xFABC1CBC EQ PUSH2 0x4D5 JUMPI PUSH1 0x0 DUP1 REVERT JUMPDEST DUP1 PUSH4 0xCA15C873 EQ PUSH2 0x417 JUMPI DUP1 PUSH4 0xD547741F EQ PUSH2 0x42A JUMPI DUP1 PUSH4 0xE63AB1E9 EQ PUSH2 0x43D JUMPI DUP1 PUSH4 0xE985E9C5 EQ PUSH2 0x452 JUMPI PUSH1 0x0 DUP1 REVERT JUMPDEST DUP1 PUSH4 0xA217FDDF GT PUSH2 0xDE JUMPI DUP1 PUSH4 0xA217FDDF EQ PUSH2 0x3A9 JUMPI DUP1 PUSH4 0xA22CB465 EQ PUSH2 0x3B1 JUMPI DUP1 PUSH4 0xB56CF84F EQ PUSH2 0x3C4 JUMPI DUP1 PUSH4 0xBD85B039 EQ PUSH2 0x3F7 JUMPI PUSH1 0x0 DUP1 REVERT JUMPDEST DUP1 PUSH4 0x8456CB59 EQ PUSH2 0x35B JUMPI DUP1 PUSH4 0x9010D07C EQ PUSH2 0x363 JUMPI DUP1 PUSH4 0x91D14854 EQ PUSH2 0x38E JUMPI DUP1 PUSH4 0x95D89B41 EQ PUSH2 0x3A1 JUMPI PUSH1 0x0 DUP1 REVERT JUMPDEST DUP1 PUSH4 0x2EB2C2D6 GT PUSH2 0x187 JUMPI DUP1 PUSH4 0x4E1273F4 GT PUSH2 0x156 JUMPI DUP1 PUSH4 0x4E1273F4 EQ PUSH2 0x2F5 JUMPI DUP1 PUSH4 0x53719B6E EQ PUSH2 0x315 JUMPI DUP1 PUSH4 0x5C975ABB EQ PUSH2 0x340 JUMPI DUP1 PUSH4 0x6B20C454 EQ PUSH2 0x348 JUMPI PUSH1 0x0 DUP1 REVERT JUMPDEST DUP1 PUSH4 0x2EB2C2D6 EQ PUSH2 0x2B4 JUMPI DUP1 PUSH4 0x2F2FF15D EQ PUSH2 0x2C7 JUMPI DUP1 PUSH4 0x36568ABE EQ PUSH2 0x2DA JUMPI DUP1 PUSH4 0x3F4BA83A EQ PUSH2 0x2ED JUMPI PUSH1 0x0 DUP1 REVERT JUMPDEST DUP1 PUSH4 0x6FDDE03 GT PUSH2 0x1C3 JUMPI DUP1 PUSH4 0x6FDDE03 EQ PUSH2 0x254 JUMPI DUP1 PUSH4 0xE89341C EQ PUSH2 0x269 JUMPI DUP1 PUSH4 0x136439DD EQ PUSH2 0x27C JUMPI DUP1 PUSH4 0x248A9CA3 EQ PUSH2 0x291 JUMPI PUSH1 0x0 DUP1 REVERT JUMPDEST DUP1 PUSH3 0xDDE10E EQ PUSH2 0x1E8 JUMPI DUP1 PUSH3 0xFDD58E EQ PUSH2 0x220 JUMPI DUP1 PUSH4 0x1FFC9A7 EQ PUSH2 0x241 JUMPI JUMPDEST PUSH1 0x0 DUP1 REVERT JUMPDEST PUSH2 0x20B PUSH2 0x1F6 CALLDATASIZE PUSH1 0x4 PUSH2 0x246E JUMP JUMPDEST PUSH1 0x0 SWAP1 DUP2 MSTORE PUSH1 0x8 PUSH1 0x20 MSTORE PUSH1 0x40 SWAP1 KECCAK256 SLOAD PUSH1 0xFF AND SWAP1 JUMP JUMPDEST PUSH1 0x40 MLOAD SWAP1 ISZERO ISZERO DUP2 MSTORE PUSH1 0x20 ADD JUMPDEST PUSH1 0x40 MLOAD DUP1 SWAP2 SUB SWAP1 RETURN JUMPDEST PUSH2 0x233 PUSH2 0x22E CALLDATASIZE PUSH1 0x4 PUSH2 0x24A3 JUMP JUMPDEST PUSH2 0x4E8 JUMP JUMPDEST PUSH1 0x40 MLOAD SWAP1 DUP2 MSTORE PUSH1 0x20 ADD PUSH2 0x217 JUMP JUMPDEST PUSH2 0x20B PUSH2 0x24F CALLDATASIZE PUSH1 0x4 PUSH2 0x24E3 JUMP JUMPDEST PUSH2 0x57F JUMP JUMPDEST PUSH2 0x25C PUSH2 0x5C3 JUMP JUMPDEST PUSH1 0x40 MLOAD PUSH2 0x217 SWAP2 SWAP1 PUSH2 0x2550 JUMP JUMPDEST PUSH2 0x25C PUSH2 0x277 CALLDATASIZE PUSH1 0x4 PUSH2 0x246E JUMP JUMPDEST PUSH2 0x655 JUMP JUMPDEST PUSH2 0x28F PUSH2 0x28A CALLDATASIZE PUSH1 0x4 PUSH2 0x246E JUMP JUMPDEST PUSH2 0x660 JUMP JUMPDEST STOP JUMPDEST PUSH2 0x233 PUSH2 0x29F CALLDATASIZE PUSH1 0x4 PUSH2 0x246E JUMP JUMPDEST PUSH1 0x0 SWAP1 DUP2 MSTORE PUSH1 0x5 PUSH1 0x20 MSTORE PUSH1 0x40 SWAP1 KECCAK256 PUSH1 0x1 ADD SLOAD SWAP1 JUMP JUMPDEST PUSH2 0x28F PUSH2 0x2C2 CALLDATASIZE PUSH1 0x4 PUSH2 0x26A9 JUMP JUMPDEST PUSH2 0x6A0 JUMP JUMPDEST PUSH2 0x28F PUSH2 0x2D5 CALLDATASIZE PUSH1 0x4 PUSH2 0x2753 JUMP JUMPDEST PUSH2 0x735 JUMP JUMPDEST PUSH2 0x28F PUSH2 0x2E8 CALLDATASIZE PUSH1 0x4 PUSH2 0x2753 JUMP JUMPDEST PUSH2 0x75F JUMP JUMPDEST PUSH2 0x28F PUSH2 0x7DD JUMP JUMPDEST PUSH2 0x308 PUSH2 0x303 CALLDATASIZE PUSH1 0x4 PUSH2 0x277F JUMP JUMPDEST PUSH2 0x81B JUMP JUMPDEST PUSH1 0x40 MLOAD PUSH2 0x217 SWAP2 SWAP1 PUSH2 0x287A JUMP JUMPDEST PUSH2 0x233 PUSH2 0x323 CALLDATASIZE PUSH1 0x4 PUSH2 0x24A3 JUMP JUMPDEST PUSH1 0x3 PUSH1 0x20 SWAP1 DUP2 MSTORE PUSH1 0x0 SWAP3 DUP4 MSTORE PUSH1 0x40 DUP1 DUP5 KECCAK256 SWAP1 SWAP2 MSTORE SWAP1 DUP3 MSTORE SWAP1 KECCAK256 SLOAD DUP2 JUMP JUMPDEST PUSH2 0x20B PUSH2 0x941 JUMP JUMPDEST PUSH2 0x28F PUSH2 0x356 CALLDATASIZE PUSH1 0x4 PUSH2 0x288D JUMP JUMPDEST PUSH2 0x954 JUMP JUMPDEST PUSH2 0x28F PUSH2 0x997 JUMP JUMPDEST PUSH2 0x376 PUSH2 0x371 CALLDATASIZE PUSH1 0x4 PUSH2 0x2901 JUMP JUMPDEST PUSH2 0x9D3 JUMP JUMPDEST PUSH1 0x40 MLOAD PUSH1 0x1 PUSH1 0x1 PUSH1 0xA0 SHL SUB SWAP1 SWAP2 AND DUP2 MSTORE PUSH1 0x20 ADD PUSH2 0x217 JUMP JUMPDEST PUSH2 0x20B PUSH2 0x39C CALLDATASIZE PUSH1 0x4 PUSH2 0x2753 JUMP JUMPDEST PUSH2 0x9F2 JUMP JUMPDEST PUSH2 0x25C PUSH2 0xA1D JUMP JUMPDEST PUSH2 0x233 PUSH1 0x0 DUP2 JUMP JUMPDEST PUSH2 0x28F PUSH2 0x3BF CALLDATASIZE PUSH1 0x4 PUSH2 0x2923 JUMP JUMPDEST PUSH2 0xA2C JUMP JUMPDEST PUSH2 0x233 PUSH2 0x3D2 CALLDATASIZE PUSH1 0x4 PUSH2 0x2753 JUMP JUMPDEST PUSH1 0x1 PUSH1 0x1 PUSH1 0xA0 SHL SUB AND PUSH1 0x0 SWAP1 DUP2 MSTORE PUSH1 0x3 PUSH1 0x20 SWAP1 DUP2 MSTORE PUSH1 0x40 DUP1 DUP4 KECCAK256 SWAP4 DUP4 MSTORE SWAP3 SWAP1 MSTORE KECCAK256 SLOAD SWAP1 JUMP JUMPDEST PUSH2 0x233 PUSH2 0x405 CALLDATASIZE PUSH1 0x4 PUSH2 0x246E JUMP JUMPDEST PUSH1 0x0 SWAP1 DUP2 MSTORE PUSH1 0x1 PUSH1 0x20 MSTORE PUSH1 0x40 SWAP1 KECCAK256 SLOAD SWAP1 JUMP JUMPDEST PUSH2 0x233 PUSH2 0x425 CALLDATASIZE PUSH1 0x4 PUSH2 0x246E JUMP JUMPDEST PUSH2 0xA37 JUMP JUMPDEST PUSH2 0x28F PUSH2 0x438 CALLDATASIZE PUSH1 0x4 PUSH2 0x2753 JUMP JUMPDEST PUSH2 0xA4E JUMP JUMPDEST PUSH2 0x233 PUSH1 0x0 DUP1 MLOAD PUSH1 0x20 PUSH2 0x2F51 DUP4 CODECOPY DUP2 MLOAD SWAP2 MSTORE DUP2 JUMP JUMPDEST PUSH2 0x20B PUSH2 0x460 CALLDATASIZE PUSH1 0x4 PUSH2 0x295F JUMP JUMPDEST PUSH1 0x1 PUSH1 0x1 PUSH1 0xA0 SHL SUB SWAP2 DUP3 AND PUSH1 0x0 SWAP1 DUP2 MSTORE PUSH1 0x2 PUSH1 0x20 SWAP1 DUP2 MSTORE PUSH1 0x40 DUP1 DUP4 KECCAK256 SWAP4 SWAP1 SWAP5 AND DUP3 MSTORE SWAP2 SWAP1 SWAP2 MSTORE KECCAK256 SLOAD PUSH1 0xFF AND SWAP1 JUMP JUMPDEST PUSH2 0x4A1 PUSH2 0x49C CALLDATASIZE PUSH1 0x4 PUSH2 0x2989 JUMP JUMPDEST PUSH2 0xA73 JUMP JUMPDEST PUSH1 0x40 MLOAD PUSH2 0x217 SWAP3 SWAP2 SWAP1 PUSH2 0x29CD JUMP JUMPDEST PUSH2 0x28F PUSH2 0x4BD CALLDATASIZE PUSH1 0x4 PUSH2 0x29FB JUMP JUMPDEST PUSH2 0xB32 JUMP JUMPDEST PUSH2 0x28F PUSH2 0x4D0 CALLDATASIZE PUSH1 0x4 PUSH2 0x2A60 JUMP JUMPDEST PUSH2 0xB77 JUMP JUMPDEST PUSH2 0x28F PUSH2 0x4E3 CALLDATASIZE PUSH1 0x4 PUSH2 0x246E JUMP JUMPDEST PUSH2 0xBBA JUMP JUMPDEST PUSH1 0x0 PUSH1 0x1 PUSH1 0x1 PUSH1 0xA0 SHL SUB DUP4 AND PUSH2 0x556 JUMPI PUSH1 0x40 MLOAD PUSH3 0x461BCD PUSH1 0xE5 SHL DUP2 MSTORE PUSH1 0x20 PUSH1 0x4 DUP3 ADD MSTORE PUSH1 0x28 PUSH1 0x24 DUP3 ADD MSTORE PUSH32 0x4B495033373A2061646472657373207A65726F206973206E6F7420612076616C PUSH1 0x44 DUP3 ADD MSTORE PUSH8 0x34B21037BBB732B9 PUSH1 0xC1 SHL PUSH1 0x64 DUP3 ADD MSTORE PUSH1 0x84 ADD JUMPDEST PUSH1 0x40 MLOAD DUP1 SWAP2 SUB SWAP1 REVERT JUMPDEST POP PUSH1 0x0 DUP2 DUP2 MSTORE PUSH1 0x20 DUP2 DUP2 MSTORE PUSH1 0x40 DUP1 DUP4 KECCAK256 PUSH1 0x1 PUSH1 0x1 PUSH1 0xA0 SHL SUB DUP7 AND DUP5 MSTORE SWAP1 SWAP2 MSTORE SWAP1 KECCAK256 SLOAD JUMPDEST SWAP3 SWAP2 POP POP JUMP JUMPDEST PUSH1 0x0 PUSH2 0x58A DUP3 PUSH2 0xC92 JUMP JUMPDEST DUP1 PUSH2 0x599 JUMPI POP PUSH2 0x599 DUP3 PUSH2 0xCB7 JUMP JUMPDEST DUP1 PUSH2 0x5B4 JUMPI POP PUSH1 0x1 PUSH1 0x1 PUSH1 0xE0 SHL SUB NOT DUP3 AND PUSH4 0xB7F5A35 PUSH1 0xE3 SHL EQ JUMPDEST DUP1 PUSH2 0x579 JUMPI POP PUSH2 0x579 DUP3 PUSH2 0xCEB JUMP JUMPDEST PUSH1 0x60 PUSH1 0x9 DUP1 SLOAD PUSH2 0x5D2 SWAP1 PUSH2 0x2A93 JUMP JUMPDEST DUP1 PUSH1 0x1F ADD PUSH1 0x20 DUP1 SWAP2 DIV MUL PUSH1 0x20 ADD PUSH1 0x40 MLOAD SWAP1 DUP2 ADD PUSH1 0x40 MSTORE DUP1 SWAP3 SWAP2 SWAP1 DUP2 DUP2 MSTORE PUSH1 0x20 ADD DUP3 DUP1 SLOAD PUSH2 0x5FE SWAP1 PUSH2 0x2A93 JUMP JUMPDEST DUP1 ISZERO PUSH2 0x64B JUMPI DUP1 PUSH1 0x1F LT PUSH2 0x620 JUMPI PUSH2 0x100 DUP1 DUP4 SLOAD DIV MUL DUP4 MSTORE SWAP2 PUSH1 0x20 ADD SWAP2 PUSH2 0x64B JUMP JUMPDEST DUP3 ADD SWAP2 SWAP1 PUSH1 0x0 MSTORE PUSH1 0x20 PUSH1 0x0 KECCAK256 SWAP1 JUMPDEST DUP2 SLOAD DUP2 MSTORE SWAP1 PUSH1 0x1 ADD SWAP1 PUSH1 0x20 ADD DUP1 DUP4 GT PUSH2 0x62E JUMPI DUP3 SWAP1 SUB PUSH1 0x1F AND DUP3 ADD SWAP2 JUMPDEST POP POP POP POP POP SWAP1 POP SWAP1 JUMP JUMPDEST PUSH1 0x60 PUSH2 0x579 DUP3 PUSH2 0xD2B JUMP JUMPDEST PUSH2 0x678 PUSH1 0x0 DUP1 MLOAD PUSH1 0x20 PUSH2 0x2F51 DUP4 CODECOPY DUP2 MLOAD SWAP2 MSTORE CALLER PUSH2 0x9F2 JUMP JUMPDEST PUSH2 0x694 JUMPI PUSH1 0x40 MLOAD PUSH3 0x461BCD PUSH1 0xE5 SHL DUP2 MSTORE PUSH1 0x4 ADD PUSH2 0x54D SWAP1 PUSH2 0x2ACD JUMP JUMPDEST PUSH2 0x69D DUP2 PUSH2 0xDBF JUMP JUMPDEST POP JUMP JUMPDEST PUSH1 0x1 PUSH1 0x1 PUSH1 0xA0 SHL SUB DUP6 AND CALLER EQ DUP1 PUSH2 0x6BC JUMPI POP PUSH2 0x6BC DUP6 CALLER PUSH2 0x460 JUMP JUMPDEST PUSH2 0x721 JUMPI PUSH1 0x40 MLOAD PUSH3 0x461BCD PUSH1 0xE5 SHL DUP2 MSTORE PUSH1 0x20 PUSH1 0x4 DUP3 ADD MSTORE PUSH1 0x30 PUSH1 0x24 DUP3 ADD MSTORE PUSH32 0x4B495033373A207472616E736665722063616C6C6572206973206E6F74206F77 PUSH1 0x44 DUP3 ADD MSTORE PUSH16 0x1B995C881B9BDC88185C1C1C9BDD9959 PUSH1 0x82 SHL PUSH1 0x64 DUP3 ADD MSTORE PUSH1 0x84 ADD PUSH2 0x54D JUMP JUMPDEST PUSH2 0x72E DUP6 DUP6 DUP6 DUP6 DUP6 PUSH2 0xEA8 JUMP JUMPDEST POP POP POP POP POP JUMP JUMPDEST PUSH1 0x0 DUP3 DUP2 MSTORE PUSH1 0x5 PUSH1 0x20 MSTORE PUSH1 0x40 SWAP1 KECCAK256 PUSH1 0x1 ADD SLOAD PUSH2 0x750 DUP2 PUSH2 0x1052 JUMP JUMPDEST PUSH2 0x75A DUP4 DUP4 PUSH2 0x105C JUMP JUMPDEST POP POP POP JUMP JUMPDEST PUSH1 0x1 PUSH1 0x1 PUSH1 0xA0 SHL SUB DUP2 AND CALLER EQ PUSH2 0x7CF JUMPI PUSH1 0x40 MLOAD PUSH3 0x461BCD PUSH1 0xE5 SHL DUP2 MSTORE PUSH1 0x20 PUSH1 0x4 DUP3 ADD MSTORE PUSH1 0x2F PUSH1 0x24 DUP3 ADD MSTORE PUSH32 0x416363657373436F6E74726F6C3A2063616E206F6E6C792072656E6F756E6365 PUSH1 0x44 DUP3 ADD MSTORE PUSH15 0x103937B632B9903337B91039B2B633 PUSH1 0x89 SHL PUSH1 0x64 DUP3 ADD MSTORE PUSH1 0x84 ADD PUSH2 0x54D JUMP JUMPDEST PUSH2 0x7D9 DUP3 DUP3 PUSH2 0x107E JUMP JUMPDEST POP POP JUMP JUMPDEST PUSH2 0x7F5 PUSH1 0x0 DUP1 MLOAD PUSH1 0x20 PUSH2 0x2F51 DUP4 CODECOPY DUP2 MLOAD SWAP2 MSTORE CALLER PUSH2 0x9F2 JUMP JUMPDEST PUSH2 0x811 JUMPI PUSH1 0x40 MLOAD PUSH3 0x461BCD PUSH1 0xE5 SHL DUP2 MSTORE PUSH1 0x4 ADD PUSH2 0x54D SWAP1 PUSH2 0x2B2A JUMP JUMPDEST PUSH2 0x819 PUSH2 0x10A0 JUMP JUMPDEST JUMP JUMPDEST PUSH1 0x60 DUP2 MLOAD DUP4 MLOAD EQ PUSH2 0x87C JUMPI PUSH1 0x40 MLOAD PUSH3 0x461BCD PUSH1 0xE5 SHL DUP2 MSTORE PUSH1 0x20 PUSH1 0x4 DUP3 ADD MSTORE PUSH1 0x25 PUSH1 0x24 DUP3 ADD MSTORE PUSH32 0x4B495033373A206F776E65727320616E6420696473206C656E677468206D6973 PUSH1 0x44 DUP3 ADD MSTORE PUSH5 0xDAC2E8C6D PUSH1 0xDB SHL PUSH1 0x64 DUP3 ADD MSTORE PUSH1 0x84 ADD PUSH2 0x54D JUMP JUMPDEST PUSH1 0x0 DUP4 MLOAD PUSH8 0xFFFFFFFFFFFFFFFF DUP2 GT ISZERO PUSH2 0x898 JUMPI PUSH2 0x898 PUSH2 0x2563 JUMP JUMPDEST PUSH1 0x40 MLOAD SWAP1 DUP1 DUP3 MSTORE DUP1 PUSH1 0x20 MUL PUSH1 0x20 ADD DUP3 ADD PUSH1 0x40 MSTORE DUP1 ISZERO PUSH2 0x8C1 JUMPI DUP2 PUSH1 0x20 ADD PUSH1 0x20 DUP3 MUL DUP1 CALLDATASIZE DUP4 CALLDATACOPY ADD SWAP1 POP JUMPDEST POP SWAP1 POP PUSH1 0x0 JUMPDEST DUP5 MLOAD DUP2 LT ISZERO PUSH2 0x939 JUMPI PUSH2 0x90C DUP6 DUP3 DUP2 MLOAD DUP2 LT PUSH2 0x8E5 JUMPI PUSH2 0x8E5 PUSH2 0x2B87 JUMP JUMPDEST PUSH1 0x20 MUL PUSH1 0x20 ADD ADD MLOAD DUP6 DUP4 DUP2 MLOAD DUP2 LT PUSH2 0x8FF JUMPI PUSH2 0x8FF PUSH2 0x2B87 JUMP JUMPDEST PUSH1 0x20 MUL PUSH1 0x20 ADD ADD MLOAD PUSH2 0x4E8 JUMP JUMPDEST DUP3 DUP3 DUP2 MLOAD DUP2 LT PUSH2 0x91E JUMPI PUSH2 0x91E PUSH2 0x2B87 JUMP JUMPDEST PUSH1 0x20 SWAP1 DUP2 MUL SWAP2 SWAP1 SWAP2 ADD ADD MSTORE PUSH2 0x932 DUP2 PUSH2 0x2BB3 JUMP JUMPDEST SWAP1 POP PUSH2 0x8C7 JUMP JUMPDEST POP SWAP4 SWAP3 POP POP POP JUMP JUMPDEST PUSH1 0x0 PUSH2 0x94F PUSH1 0x7 SLOAD PUSH1 0xFF AND SWAP1 JUMP JUMPDEST SWAP1 POP SWAP1 JUMP JUMPDEST PUSH1 0x1 PUSH1 0x1 PUSH1 0xA0 SHL SUB DUP4 AND CALLER EQ DUP1 PUSH2 0x970 JUMPI POP PUSH2 0x970 DUP4 CALLER PUSH2 0x460 JUMP JUMPDEST PUSH2 0x98C JUMPI PUSH1 0x40 MLOAD PUSH3 0x461BCD PUSH1 0xE5 SHL DUP2 MSTORE PUSH1 0x4 ADD PUSH2 0x54D SWAP1 PUSH2 0x2BCC JUMP JUMPDEST PUSH2 0x75A DUP4 DUP4 DUP4 PUSH2 0x10C0 JUMP JUMPDEST PUSH2 0x9AF PUSH1 0x0 DUP1 MLOAD PUSH1 0x20 PUSH2 0x2F51 DUP4 CODECOPY DUP2 MLOAD SWAP2 MSTORE CALLER PUSH2 0x9F2 JUMP JUMPDEST PUSH2 0x9CB JUMPI PUSH1 0x40 MLOAD PUSH3 0x461BCD PUSH1 0xE5 SHL DUP2 MSTORE PUSH1 0x4 ADD PUSH2 0x54D SWAP1 PUSH2 0x2ACD JUMP JUMPDEST PUSH2 0x819 PUSH2 0x125D JUMP JUMPDEST PUSH1 0x0 DUP3 DUP2 MSTORE PUSH1 0x6 PUSH1 0x20 MSTORE PUSH1 0x40 DUP2 KECCAK256 PUSH2 0x9EB SWAP1 DUP4 PUSH2 0x127D JUMP JUMPDEST SWAP4 SWAP3 POP POP POP JUMP JUMPDEST PUSH1 0x0 SWAP2 DUP3 MSTORE PUSH1 0x5 PUSH1 0x20 SWAP1 DUP2 MSTORE PUSH1 0x40 DUP1 DUP5 KECCAK256 PUSH1 0x1 PUSH1 0x1 PUSH1 0xA0 SHL SUB SWAP4 SWAP1 SWAP4 AND DUP5 MSTORE SWAP2 SWAP1 MSTORE SWAP1 KECCAK256 SLOAD PUSH1 0xFF AND SWAP1 JUMP JUMPDEST PUSH1 0x60 PUSH1 0xA DUP1 SLOAD PUSH2 0x5D2 SWAP1 PUSH2 0x2A93 JUMP JUMPDEST PUSH2 0x7D9 CALLER DUP4 DUP4 PUSH2 0x1289 JUMP JUMPDEST PUSH1 0x0 DUP2 DUP2 MSTORE PUSH1 0x6 PUSH1 0x20 MSTORE PUSH1 0x40 DUP2 KECCAK256 PUSH2 0x579 SWAP1 PUSH2 0x1367 JUMP JUMPDEST PUSH1 0x0 DUP3 DUP2 MSTORE PUSH1 0x5 PUSH1 0x20 MSTORE PUSH1 0x40 SWAP1 KECCAK256 PUSH1 0x1 ADD SLOAD PUSH2 0xA69 DUP2 PUSH2 0x1052 JUMP JUMPDEST PUSH2 0x75A DUP4 DUP4 PUSH2 0x107E JUMP JUMPDEST PUSH1 0x60 DUP1 PUSH1 0x60 DUP1 PUSH1 0x0 JUMPDEST PUSH1 0x1 DUP7 MLOAD PUSH2 0xA8A SWAP2 SWAP1 PUSH2 0x2C13 JUMP JUMPDEST DUP2 LT ISZERO PUSH2 0xB26 JUMPI PUSH1 0x1 PUSH1 0x1 PUSH1 0xA0 SHL SUB DUP8 AND PUSH1 0x0 SWAP1 DUP2 MSTORE PUSH1 0x3 PUSH1 0x20 MSTORE PUSH1 0x40 DUP2 KECCAK256 DUP8 MLOAD DUP3 SWAP1 DUP10 SWAP1 DUP6 SWAP1 DUP2 LT PUSH2 0xABF JUMPI PUSH2 0xABF PUSH2 0x2B87 JUMP JUMPDEST PUSH1 0x20 MUL PUSH1 0x20 ADD ADD MLOAD DUP2 MSTORE PUSH1 0x20 ADD SWAP1 DUP2 MSTORE PUSH1 0x20 ADD PUSH1 0x0 KECCAK256 SLOAD SWAP1 POP PUSH1 0x0 DUP2 GT ISZERO PUSH2 0xB13 JUMPI PUSH2 0xB04 DUP5 DUP9 DUP5 DUP2 MLOAD DUP2 LT PUSH2 0xAF7 JUMPI PUSH2 0xAF7 PUSH2 0x2B87 JUMP JUMPDEST PUSH1 0x20 MUL PUSH1 0x20 ADD ADD MLOAD PUSH2 0x1371 JUMP JUMPDEST SWAP4 POP PUSH2 0xB10 DUP4 DUP3 PUSH2 0x1371 JUMP JUMPDEST SWAP3 POP JUMPDEST POP DUP1 PUSH2 0xB1E DUP2 PUSH2 0x2BB3 JUMP JUMPDEST SWAP2 POP POP PUSH2 0xA7C JUMP JUMPDEST POP SWAP1 SWAP6 SWAP1 SWAP5 POP SWAP3 POP POP POP JUMP JUMPDEST PUSH1 0x1 PUSH1 0x1 PUSH1 0xA0 SHL SUB DUP6 AND CALLER EQ DUP1 PUSH2 0xB4E JUMPI POP PUSH2 0xB4E DUP6 CALLER PUSH2 0x460 JUMP JUMPDEST PUSH2 0xB6A JUMPI PUSH1 0x40 MLOAD PUSH3 0x461BCD PUSH1 0xE5 SHL DUP2 MSTORE PUSH1 0x4 ADD PUSH2 0x54D SWAP1 PUSH2 0x2BCC JUMP JUMPDEST PUSH2 0x72E DUP6 DUP6 DUP6 DUP6 DUP6 PUSH2 0x1443 JUMP JUMPDEST PUSH1 0x1 PUSH1 0x1 PUSH1 0xA0 SHL SUB DUP4 AND CALLER EQ DUP1 PUSH2 0xB93 JUMPI POP PUSH2 0xB93 DUP4 CALLER PUSH2 0x460 JUMP JUMPDEST PUSH2 0xBAF JUMPI PUSH1 0x40 MLOAD PUSH3 0x461BCD PUSH1 0xE5 SHL DUP2 MSTORE PUSH1 0x4 ADD PUSH2 0x54D SWAP1 PUSH2 0x2BCC JUMP JUMPDEST PUSH2 0x75A DUP4 DUP4 DUP4 PUSH2 0x157B JUMP JUMPDEST PUSH2 0xBD2 PUSH1 0x0 DUP1 MLOAD PUSH1 0x20 PUSH2 0x2F51 DUP4 CODECOPY DUP2 MLOAD SWAP2 MSTORE CALLER PUSH2 0x9F2 JUMP JUMPDEST PUSH2 0xBEE JUMPI PUSH1 0x40 MLOAD PUSH3 0x461BCD PUSH1 0xE5 SHL DUP2 MSTORE PUSH1 0x4 ADD PUSH2 0x54D SWAP1 PUSH2 0x2B2A JUMP JUMPDEST PUSH2 0x69D DUP2 PUSH2 0x1698 JUMP JUMPDEST PUSH2 0xC01 DUP3 DUP3 PUSH2 0x9F2 JUMP JUMPDEST PUSH2 0x7D9 JUMPI PUSH1 0x0 DUP3 DUP2 MSTORE PUSH1 0x5 PUSH1 0x20 SWAP1 DUP2 MSTORE PUSH1 0x40 DUP1 DUP4 KECCAK256 PUSH1 0x1 PUSH1 0x1 PUSH1 0xA0 SHL SUB DUP6 AND DUP5 MSTORE SWAP1 SWAP2 MSTORE SWAP1 KECCAK256 DUP1 SLOAD PUSH1 0xFF NOT AND PUSH1 0x1 OR SWAP1 SSTORE PUSH2 0xC39 CALLER SWAP1 JUMP JUMPDEST PUSH1 0x1 PUSH1 0x1 PUSH1 0xA0 SHL SUB AND DUP2 PUSH1 0x1 PUSH1 0x1 PUSH1 0xA0 SHL SUB AND DUP4 PUSH32 0x2F8788117E7EFF1D82E926EC794901D17C78024A50270940304540A733656F0D PUSH1 0x40 MLOAD PUSH1 0x40 MLOAD DUP1 SWAP2 SUB SWAP1 LOG4 POP POP JUMP JUMPDEST PUSH1 0x0 PUSH2 0x9EB DUP4 PUSH1 0x1 PUSH1 0x1 PUSH1 0xA0 SHL SUB DUP5 AND PUSH2 0x175E JUMP JUMPDEST PUSH1 0x0 PUSH1 0x1 PUSH1 0x1 PUSH1 0xE0 SHL SUB NOT DUP3 AND PUSH4 0x4F04A74F PUSH1 0xE1 SHL EQ DUP1 PUSH2 0x579 JUMPI POP PUSH2 0x579 DUP3 PUSH2 0x17AD JUMP JUMPDEST PUSH1 0x0 PUSH1 0x1 PUSH1 0x1 PUSH1 0xE0 SHL SUB NOT DUP3 AND PUSH4 0xE8FFDB7 PUSH1 0xE0 SHL EQ DUP1 PUSH2 0xCDC JUMPI POP PUSH2 0xCDC DUP3 PUSH2 0xCEB JUMP JUMPDEST DUP1 PUSH2 0x579 JUMPI POP PUSH2 0x579 DUP3 PUSH2 0x17AD JUMP JUMPDEST PUSH1 0x0 PUSH1 0x1 PUSH1 0x1 PUSH1 0xE0 SHL SUB NOT DUP3 AND PUSH4 0x6433CA1F PUSH1 0xE0 SHL EQ DUP1 PUSH2 0xD1C JUMPI POP PUSH1 0x1 PUSH1 0x1 PUSH1 0xE0 SHL SUB NOT DUP3 AND PUSH4 0x3A24D07 PUSH1 0xE2 SHL EQ JUMPDEST DUP1 PUSH2 0x579 JUMPI POP PUSH2 0x579 DUP3 PUSH2 0x17D2 JUMP JUMPDEST PUSH1 0x60 PUSH1 0x4 DUP1 SLOAD PUSH2 0xD3A SWAP1 PUSH2 0x2A93 JUMP JUMPDEST DUP1 PUSH1 0x1F ADD PUSH1 0x20 DUP1 SWAP2 DIV MUL PUSH1 0x20 ADD PUSH1 0x40 MLOAD SWAP1 DUP2 ADD PUSH1 0x40 MSTORE DUP1 SWAP3 SWAP2 SWAP1 DUP2 DUP2 MSTORE PUSH1 0x20 ADD DUP3 DUP1 SLOAD PUSH2 0xD66 SWAP1 PUSH2 0x2A93 JUMP JUMPDEST DUP1 ISZERO PUSH2 0xDB3 JUMPI DUP1 PUSH1 0x1F LT PUSH2 0xD88 JUMPI PUSH2 0x100 DUP1 DUP4 SLOAD DIV MUL DUP4 MSTORE SWAP2 PUSH1 0x20 ADD SWAP2 PUSH2 0xDB3 JUMP JUMPDEST DUP3 ADD SWAP2 SWAP1 PUSH1 0x0 MSTORE PUSH1 0x20 PUSH1 0x0 KECCAK256 SWAP1 JUMPDEST DUP2 SLOAD DUP2 MSTORE SWAP1 PUSH1 0x1 ADD SWAP1 PUSH1 0x20 ADD DUP1 DUP4 GT PUSH2 0xD96 JUMPI DUP3 SWAP1 SUB PUSH1 0x1F AND DUP3 ADD SWAP2 JUMPDEST POP POP POP POP POP SWAP1 POP SWAP2 SWAP1 POP JUMP JUMPDEST PUSH1 0x0 DUP1 MLOAD PUSH1 0x20 PUSH2 0x2F51 DUP4 CODECOPY DUP2 MLOAD SWAP2 MSTORE PUSH2 0xDD7 DUP2 PUSH2 0x1052 JUMP JUMPDEST PUSH1 0x0 DUP3 DUP2 MSTORE PUSH1 0x8 PUSH1 0x20 MSTORE PUSH1 0x40 SWAP1 KECCAK256 SLOAD PUSH1 0xFF AND ISZERO PUSH2 0xE42 JUMPI PUSH1 0x40 MLOAD PUSH3 0x461BCD PUSH1 0xE5 SHL DUP2 MSTORE PUSH1 0x20 PUSH1 0x4 DUP3 ADD MSTORE PUSH1 0x23 PUSH1 0x24 DUP3 ADD MSTORE PUSH32 0x4B495033375061757361626C653A20746F6B656E20616C726561647920706175 PUSH1 0x44 DUP3 ADD MSTORE PUSH3 0x1CD959 PUSH1 0xEA SHL PUSH1 0x64 DUP3 ADD MSTORE PUSH1 0x84 ADD PUSH2 0x54D JUMP JUMPDEST PUSH1 0x0 DUP3 DUP2 MSTORE PUSH1 0x8 PUSH1 0x20 MSTORE PUSH1 0x40 SWAP1 KECCAK256 DUP1 SLOAD PUSH1 0xFF NOT AND PUSH1 0x1 OR SWAP1 SSTORE PUSH32 0x8622310C27420D43447724EF64E214EBF86405B8E9F149480FB03111F811E519 PUSH2 0xE83 CALLER SWAP1 JUMP JUMPDEST PUSH1 0x40 DUP1 MLOAD PUSH1 0x1 PUSH1 0x1 PUSH1 0xA0 SHL SUB SWAP1 SWAP3 AND DUP3 MSTORE PUSH1 0x20 DUP3 ADD DUP6 SWAP1 MSTORE ADD PUSH1 0x40 MLOAD DUP1 SWAP2 SUB SWAP1 LOG1 POP POP JUMP JUMPDEST DUP2 MLOAD DUP4 MLOAD EQ PUSH2 0xEC9 JUMPI PUSH1 0x40 MLOAD PUSH3 0x461BCD PUSH1 0xE5 SHL DUP2 MSTORE PUSH1 0x4 ADD PUSH2 0x54D SWAP1 PUSH2 0x2C26 JUMP JUMPDEST PUSH1 0x1 PUSH1 0x1 PUSH1 0xA0 SHL SUB DUP5 AND PUSH2 0xEEF JUMPI PUSH1 0x40 MLOAD PUSH3 0x461BCD PUSH1 0xE5 SHL DUP2 MSTORE PUSH1 0x4 ADD PUSH2 0x54D SWAP1 PUSH2 0x2C6C JUMP JUMPDEST CALLER PUSH2 0xEFE DUP2 DUP8 DUP8 DUP8 DUP8 DUP8 PUSH2 0x17E8 JUMP JUMPDEST PUSH1 0x0 JUMPDEST DUP5 MLOAD DUP2 LT ISZERO PUSH2 0xFE4 JUMPI PUSH1 0x0 DUP6 DUP3 DUP2 MLOAD DUP2 LT PUSH2 0xF1E JUMPI PUSH2 0xF1E PUSH2 0x2B87 JUMP JUMPDEST PUSH1 0x20 MUL PUSH1 0x20 ADD ADD MLOAD SWAP1 POP PUSH1 0x0 DUP6 DUP4 DUP2 MLOAD DUP2 LT PUSH2 0xF3C JUMPI PUSH2 0xF3C PUSH2 0x2B87 JUMP JUMPDEST PUSH1 0x20 SWAP1 DUP2 MUL SWAP2 SWAP1 SWAP2 ADD DUP2 ADD MLOAD PUSH1 0x0 DUP5 DUP2 MSTORE DUP1 DUP4 MSTORE PUSH1 0x40 DUP1 DUP3 KECCAK256 PUSH1 0x1 PUSH1 0x1 PUSH1 0xA0 SHL SUB DUP15 AND DUP4 MSTORE SWAP1 SWAP4 MSTORE SWAP2 SWAP1 SWAP2 KECCAK256 SLOAD SWAP1 SWAP2 POP DUP2 DUP2 LT ISZERO PUSH2 0xF8C JUMPI PUSH1 0x40 MLOAD PUSH3 0x461BCD PUSH1 0xE5 SHL DUP2 MSTORE PUSH1 0x4 ADD PUSH2 0x54D SWAP1 PUSH2 0x2CAF JUMP JUMPDEST PUSH1 0x0 DUP4 DUP2 MSTORE PUSH1 0x20 DUP2 DUP2 MSTORE PUSH1 0x40 DUP1 DUP4 KECCAK256 PUSH1 0x1 PUSH1 0x1 PUSH1 0xA0 SHL SUB DUP15 DUP2 AND DUP6 MSTORE SWAP3 MSTORE DUP1 DUP4 KECCAK256 DUP6 DUP6 SUB SWAP1 SSTORE SWAP1 DUP12 AND DUP3 MSTORE DUP2 KECCAK256 DUP1 SLOAD DUP5 SWAP3 SWAP1 PUSH2 0xFC9 SWAP1 DUP5 SWAP1 PUSH2 0x2CF7 JUMP JUMPDEST SWAP3 POP POP DUP2 SWAP1 SSTORE POP POP POP POP DUP1 PUSH2 0xFDD SWAP1 PUSH2 0x2BB3 JUMP JUMPDEST SWAP1 POP PUSH2 0xF01 JUMP JUMPDEST POP DUP5 PUSH1 0x1 PUSH1 0x1 PUSH1 0xA0 SHL SUB AND DUP7 PUSH1 0x1 PUSH1 0x1 PUSH1 0xA0 SHL SUB AND DUP3 PUSH1 0x1 PUSH1 0x1 PUSH1 0xA0 SHL SUB AND PUSH32 0x4A39DC06D4C0DBC64B70AF90FD698A233A518AA5D07E595D983B8C0526C8F7FB DUP8 DUP8 PUSH1 0x40 MLOAD PUSH2 0x1034 SWAP3 SWAP2 SWAP1 PUSH2 0x29CD JUMP JUMPDEST PUSH1 0x40 MLOAD DUP1 SWAP2 SUB SWAP1 LOG4 PUSH2 0x104A DUP2 DUP8 DUP8 DUP8 DUP8 DUP8 PUSH2 0x17F6 JUMP JUMPDEST POP POP POP POP POP POP JUMP JUMPDEST PUSH2 0x69D DUP2 CALLER PUSH2 0x1895 JUMP JUMPDEST PUSH2 0x1066 DUP3 DUP3 PUSH2 0xBF7 JUMP JUMPDEST PUSH1 0x0 DUP3 DUP2 MSTORE PUSH1 0x6 PUSH1 0x20 MSTORE PUSH1 0x40 SWAP1 KECCAK256 PUSH2 0x75A SWAP1 DUP3 PUSH2 0xC7D JUMP JUMPDEST PUSH2 0x1088 DUP3 DUP3 PUSH2 0x18F9 JUMP JUMPDEST PUSH1 0x0 DUP3 DUP2 MSTORE PUSH1 0x6 PUSH1 0x20 MSTORE PUSH1 0x40 SWAP1 KECCAK256 PUSH2 0x75A SWAP1 DUP3 PUSH2 0x1960 JUMP JUMPDEST PUSH1 0x0 DUP1 MLOAD PUSH1 0x20 PUSH2 0x2F51 DUP4 CODECOPY DUP2 MLOAD SWAP2 MSTORE PUSH2 0x10B8 DUP2 PUSH2 0x1052 JUMP JUMPDEST PUSH2 0x69D PUSH2 0x1975 JUMP JUMPDEST PUSH1 0x1 PUSH1 0x1 PUSH1 0xA0 SHL SUB DUP4 AND PUSH2 0x10E6 JUMPI PUSH1 0x40 MLOAD PUSH3 0x461BCD PUSH1 0xE5 SHL DUP2 MSTORE PUSH1 0x4 ADD PUSH2 0x54D SWAP1 PUSH2 0x2D0A JUMP JUMPDEST DUP1 MLOAD DUP3 MLOAD EQ PUSH2 0x1107 JUMPI PUSH1 0x40 MLOAD PUSH3 0x461BCD PUSH1 0xE5 SHL DUP2 MSTORE PUSH1 0x4 ADD PUSH2 0x54D SWAP1 PUSH2 0x2C26 JUMP JUMPDEST PUSH1 0x0 CALLER SWAP1 POP PUSH2 0x112A DUP2 DUP6 PUSH1 0x0 DUP7 DUP7 PUSH1 0x40 MLOAD DUP1 PUSH1 0x20 ADD PUSH1 0x40 MSTORE DUP1 PUSH1 0x0 DUP2 MSTORE POP PUSH2 0x17E8 JUMP JUMPDEST PUSH1 0x0 JUMPDEST DUP4 MLOAD DUP2 LT ISZERO PUSH2 0x11EF JUMPI PUSH1 0x0 DUP5 DUP3 DUP2 MLOAD DUP2 LT PUSH2 0x114A JUMPI PUSH2 0x114A PUSH2 0x2B87 JUMP JUMPDEST PUSH1 0x20 MUL PUSH1 0x20 ADD ADD MLOAD SWAP1 POP PUSH1 0x0 DUP5 DUP4 DUP2 MLOAD DUP2 LT PUSH2 0x1168 JUMPI PUSH2 0x1168 PUSH2 0x2B87 JUMP JUMPDEST PUSH1 0x20 SWAP1 DUP2 MUL SWAP2 SWAP1 SWAP2 ADD DUP2 ADD MLOAD PUSH1 0x0 DUP5 DUP2 MSTORE DUP1 DUP4 MSTORE PUSH1 0x40 DUP1 DUP3 KECCAK256 PUSH1 0x1 PUSH1 0x1 PUSH1 0xA0 SHL SUB DUP13 AND DUP4 MSTORE SWAP1 SWAP4 MSTORE SWAP2 SWAP1 SWAP2 KECCAK256 SLOAD SWAP1 SWAP2 POP DUP2 DUP2 LT ISZERO PUSH2 0x11B8 JUMPI PUSH1 0x40 MLOAD PUSH3 0x461BCD PUSH1 0xE5 SHL DUP2 MSTORE PUSH1 0x4 ADD PUSH2 0x54D SWAP1 PUSH2 0x2D4B JUMP JUMPDEST PUSH1 0x0 SWAP3 DUP4 MSTORE PUSH1 0x20 DUP4 DUP2 MSTORE PUSH1 0x40 DUP1 DUP6 KECCAK256 PUSH1 0x1 PUSH1 0x1 PUSH1 0xA0 SHL SUB DUP12 AND DUP7 MSTORE SWAP1 SWAP2 MSTORE SWAP1 SWAP3 KECCAK256 SWAP2 SUB SWAP1 SSTORE DUP1 PUSH2 0x11E7 DUP2 PUSH2 0x2BB3 JUMP JUMPDEST SWAP2 POP POP PUSH2 0x112D JUMP JUMPDEST POP PUSH1 0x0 PUSH1 0x1 PUSH1 0x1 PUSH1 0xA0 SHL SUB AND DUP5 PUSH1 0x1 PUSH1 0x1 PUSH1 0xA0 SHL SUB AND DUP3 PUSH1 0x1 PUSH1 0x1 PUSH1 0xA0 SHL SUB AND PUSH32 0x4A39DC06D4C0DBC64B70AF90FD698A233A518AA5D07E595D983B8C0526C8F7FB DUP7 DUP7 PUSH1 0x40 MLOAD PUSH2 0x1240 SWAP3 SWAP2 SWAP1 PUSH2 0x29CD JUMP JUMPDEST PUSH1 0x40 MLOAD DUP1 SWAP2 SUB SWAP1 LOG4 PUSH1 0x40 DUP1 MLOAD PUSH1 0x20 DUP2 ADD SWAP1 SWAP2 MSTORE PUSH1 0x0 SWAP1 MSTORE POP POP POP POP JUMP JUMPDEST PUSH1 0x0 DUP1 MLOAD PUSH1 0x20 PUSH2 0x2F51 DUP4 CODECOPY DUP2 MLOAD SWAP2 MSTORE PUSH2 0x1275 DUP2 PUSH2 0x1052 JUMP JUMPDEST PUSH2 0x69D PUSH2 0x1A0A JUMP JUMPDEST PUSH1 0x0 PUSH2 0x9EB DUP4 DUP4 PUSH2 0x1A87 JUMP JUMPDEST DUP2 PUSH1 0x1 PUSH1 0x1 PUSH1 0xA0 SHL SUB AND DUP4 PUSH1 0x1 PUSH1 0x1 PUSH1 0xA0 SHL SUB AND SUB PUSH2 0x12FA JUMPI PUSH1 0x40 MLOAD PUSH3 0x461BCD PUSH1 0xE5 SHL DUP2 MSTORE PUSH1 0x20 PUSH1 0x4 DUP3 ADD MSTORE PUSH1 0x27 PUSH1 0x24 DUP3 ADD MSTORE PUSH32 0x4B495033373A2073657474696E6720617070726F76616C207374617475732066 PUSH1 0x44 DUP3 ADD MSTORE PUSH7 0x37B91039B2B633 PUSH1 0xC9 SHL PUSH1 0x64 DUP3 ADD MSTORE PUSH1 0x84 ADD PUSH2 0x54D JUMP JUMPDEST PUSH1 0x1 PUSH1 0x1 PUSH1 0xA0 SHL SUB DUP4 DUP2 AND PUSH1 0x0 DUP2 DUP2 MSTORE PUSH1 0x2 PUSH1 0x20 SWAP1 DUP2 MSTORE PUSH1 0x40 DUP1 DUP4 KECCAK256 SWAP5 DUP8 AND DUP1 DUP5 MSTORE SWAP5 DUP3 MSTORE SWAP2 DUP3 SWAP1 KECCAK256 DUP1 SLOAD PUSH1 0xFF NOT AND DUP7 ISZERO ISZERO SWAP1 DUP2 OR SWAP1 SWAP2 SSTORE SWAP2 MLOAD SWAP2 DUP3 MSTORE PUSH32 0x17307EAB39AB6107E8899845AD3D59BD9653F200F220920489CA2B5937696C31 SWAP2 ADD PUSH1 0x40 MLOAD DUP1 SWAP2 SUB SWAP1 LOG3 POP POP POP JUMP JUMPDEST PUSH1 0x0 PUSH2 0x579 DUP3 SLOAD SWAP1 JUMP JUMPDEST PUSH1 0x60 PUSH1 0x0 DUP4 MLOAD PUSH1 0x1 PUSH2 0x1383 SWAP2 SWAP1 PUSH2 0x2CF7 JUMP JUMPDEST PUSH8 0xFFFFFFFFFFFFFFFF DUP2 GT ISZERO PUSH2 0x139B JUMPI PUSH2 0x139B PUSH2 0x2563 JUMP JUMPDEST PUSH1 0x40 MLOAD SWAP1 DUP1 DUP3 MSTORE DUP1 PUSH1 0x20 MUL PUSH1 0x20 ADD DUP3 ADD PUSH1 0x40 MSTORE DUP1 ISZERO PUSH2 0x13C4 JUMPI DUP2 PUSH1 0x20 ADD PUSH1 0x20 DUP3 MUL DUP1 CALLDATASIZE DUP4 CALLDATACOPY ADD SWAP1 POP JUMPDEST POP SWAP1 POP PUSH1 0x0 JUMPDEST DUP5 MLOAD DUP2 LT ISZERO PUSH2 0x141C JUMPI DUP5 DUP2 DUP2 MLOAD DUP2 LT PUSH2 0x13E5 JUMPI PUSH2 0x13E5 PUSH2 0x2B87 JUMP JUMPDEST PUSH1 0x20 MUL PUSH1 0x20 ADD ADD MLOAD DUP3 DUP3 DUP2 MLOAD DUP2 LT PUSH2 0x13FF JUMPI PUSH2 0x13FF PUSH2 0x2B87 JUMP JUMPDEST PUSH1 0x20 SWAP1 DUP2 MUL SWAP2 SWAP1 SWAP2 ADD ADD MSTORE DUP1 PUSH2 0x1414 DUP2 PUSH2 0x2BB3 JUMP JUMPDEST SWAP2 POP POP PUSH2 0x13CA JUMP JUMPDEST POP DUP3 DUP2 DUP6 MLOAD DUP2 MLOAD DUP2 LT PUSH2 0x1431 JUMPI PUSH2 0x1431 PUSH2 0x2B87 JUMP JUMPDEST PUSH1 0x20 SWAP1 DUP2 MUL SWAP2 SWAP1 SWAP2 ADD ADD MSTORE SWAP4 SWAP3 POP POP POP JUMP JUMPDEST PUSH1 0x1 PUSH1 0x1 PUSH1 0xA0 SHL SUB DUP5 AND PUSH2 0x1469 JUMPI PUSH1 0x40 MLOAD PUSH3 0x461BCD PUSH1 0xE5 SHL DUP2 MSTORE PUSH1 0x4 ADD PUSH2 0x54D SWAP1 PUSH2 0x2C6C JUMP JUMPDEST CALLER PUSH1 0x0 PUSH2 0x1475 DUP6 PUSH2 0x1AB1 JUMP JUMPDEST SWAP1 POP PUSH1 0x0 PUSH2 0x1482 DUP6 PUSH2 0x1AB1 JUMP JUMPDEST SWAP1 POP PUSH2 0x1492 DUP4 DUP10 DUP10 DUP6 DUP6 DUP10 PUSH2 0x17E8 JUMP JUMPDEST PUSH1 0x0 DUP7 DUP2 MSTORE PUSH1 0x20 DUP2 DUP2 MSTORE PUSH1 0x40 DUP1 DUP4 KECCAK256 PUSH1 0x1 PUSH1 0x1 PUSH1 0xA0 SHL SUB DUP13 AND DUP5 MSTORE SWAP1 SWAP2 MSTORE SWAP1 KECCAK256 SLOAD DUP6 DUP2 LT ISZERO PUSH2 0x14D3 JUMPI PUSH1 0x40 MLOAD PUSH3 0x461BCD PUSH1 0xE5 SHL DUP2 MSTORE PUSH1 0x4 ADD PUSH2 0x54D SWAP1 PUSH2 0x2CAF JUMP JUMPDEST PUSH1 0x0 DUP8 DUP2 MSTORE PUSH1 0x20 DUP2 DUP2 MSTORE PUSH1 0x40 DUP1 DUP4 KECCAK256 PUSH1 0x1 PUSH1 0x1 PUSH1 0xA0 SHL SUB DUP14 DUP2 AND DUP6 MSTORE SWAP3 MSTORE DUP1 DUP4 KECCAK256 DUP10 DUP6 SUB SWAP1 SSTORE SWAP1 DUP11 AND DUP3 MSTORE DUP2 KECCAK256 DUP1 SLOAD DUP9 SWAP3 SWAP1 PUSH2 0x1510 SWAP1 DUP5 SWAP1 PUSH2 0x2CF7 JUMP JUMPDEST SWAP1 SWAP2 SSTORE POP POP PUSH1 0x40 DUP1 MLOAD DUP9 DUP2 MSTORE PUSH1 0x20 DUP2 ADD DUP9 SWAP1 MSTORE PUSH1 0x1 PUSH1 0x1 PUSH1 0xA0 SHL SUB DUP1 DUP12 AND SWAP3 DUP13 DUP3 AND SWAP3 SWAP2 DUP9 AND SWAP2 PUSH32 0xC3D58168C5AE7397731D063D5BBF3D657854427343F4C083240F7AACAA2D0F62 SWAP2 ADD PUSH1 0x40 MLOAD DUP1 SWAP2 SUB SWAP1 LOG4 PUSH2 0x1570 DUP5 DUP11 DUP11 DUP11 DUP11 DUP11 PUSH2 0x1AFC JUMP JUMPDEST POP POP POP POP POP POP POP POP POP JUMP JUMPDEST PUSH1 0x1 PUSH1 0x1 PUSH1 0xA0 SHL SUB DUP4 AND PUSH2 0x15A1 JUMPI PUSH1 0x40 MLOAD PUSH3 0x461BCD PUSH1 0xE5 SHL DUP2 MSTORE PUSH1 0x4 ADD PUSH2 0x54D SWAP1 PUSH2 0x2D0A JUMP JUMPDEST CALLER PUSH1 0x0 PUSH2 0x15AD DUP5 PUSH2 0x1AB1 JUMP JUMPDEST SWAP1 POP PUSH1 0x0 PUSH2 0x15BA DUP5 PUSH2 0x1AB1 JUMP JUMPDEST SWAP1 POP PUSH2 0x15DA DUP4 DUP8 PUSH1 0x0 DUP6 DUP6 PUSH1 0x40 MLOAD DUP1 PUSH1 0x20 ADD PUSH1 0x40 MSTORE DUP1 PUSH1 0x0 DUP2 MSTORE POP PUSH2 0x17E8 JUMP JUMPDEST PUSH1 0x0 DUP6 DUP2 MSTORE PUSH1 0x20 DUP2 DUP2 MSTORE PUSH1 0x40 DUP1 DUP4 KECCAK256 PUSH1 0x1 PUSH1 0x1 PUSH1 0xA0 SHL SUB DUP11 AND DUP5 MSTORE SWAP1 SWAP2 MSTORE SWAP1 KECCAK256 SLOAD DUP5 DUP2 LT ISZERO PUSH2 0x161B JUMPI PUSH1 0x40 MLOAD PUSH3 0x461BCD PUSH1 0xE5 SHL DUP2 MSTORE PUSH1 0x4 ADD PUSH2 0x54D SWAP1 PUSH2 0x2D4B JUMP JUMPDEST PUSH1 0x0 DUP7 DUP2 MSTORE PUSH1 0x20 DUP2 DUP2 MSTORE PUSH1 0x40 DUP1 DUP4 KECCAK256 PUSH1 0x1 PUSH1 0x1 PUSH1 0xA0 SHL SUB DUP12 DUP2 AND DUP1 DUP7 MSTORE SWAP2 DUP5 MSTORE DUP3 DUP6 KECCAK256 DUP11 DUP8 SUB SWAP1 SSTORE DUP3 MLOAD DUP12 DUP2 MSTORE SWAP4 DUP5 ADD DUP11 SWAP1 MSTORE SWAP1 SWAP3 SWAP1 DUP9 AND SWAP2 PUSH32 0xC3D58168C5AE7397731D063D5BBF3D657854427343F4C083240F7AACAA2D0F62 SWAP2 ADD PUSH1 0x40 MLOAD DUP1 SWAP2 SUB SWAP1 LOG4 PUSH1 0x40 DUP1 MLOAD PUSH1 0x20 DUP2 ADD SWAP1 SWAP2 MSTORE PUSH1 0x0 SWAP1 MSTORE JUMPDEST POP POP POP POP POP POP POP JUMP JUMPDEST PUSH1 0x0 DUP1 MLOAD PUSH1 0x20 PUSH2 0x2F51 DUP4 CODECOPY DUP2 MLOAD SWAP2 MSTORE PUSH2 0x16B0 DUP2 PUSH2 0x1052 JUMP JUMPDEST PUSH1 0x0 DUP3 DUP2 MSTORE PUSH1 0x8 PUSH1 0x20 MSTORE PUSH1 0x40 SWAP1 KECCAK256 SLOAD PUSH1 0xFF AND ISZERO ISZERO PUSH1 0x1 EQ PUSH2 0x1721 JUMPI PUSH1 0x40 MLOAD PUSH3 0x461BCD PUSH1 0xE5 SHL DUP2 MSTORE PUSH1 0x20 PUSH1 0x4 DUP3 ADD MSTORE PUSH1 0x25 PUSH1 0x24 DUP3 ADD MSTORE PUSH32 0x4B495033375061757361626C653A20746F6B656E20616C726561647920756E70 PUSH1 0x44 DUP3 ADD MSTORE PUSH5 0x185D5CD959 PUSH1 0xDA SHL PUSH1 0x64 DUP3 ADD MSTORE PUSH1 0x84 ADD PUSH2 0x54D JUMP JUMPDEST PUSH1 0x0 DUP3 DUP2 MSTORE PUSH1 0x8 PUSH1 0x20 MSTORE PUSH1 0x40 SWAP1 KECCAK256 DUP1 SLOAD PUSH1 0xFF NOT AND SWAP1 SSTORE PUSH32 0x9DB9E80F56A6219278C09B5683F265BE968540B2E4D3C07303262FF72916AD78 CALLER PUSH2 0xE83 JUMP JUMPDEST PUSH1 0x0 DUP2 DUP2 MSTORE PUSH1 0x1 DUP4 ADD PUSH1 0x20 MSTORE PUSH1 0x40 DUP2 KECCAK256 SLOAD PUSH2 0x17A5 JUMPI POP DUP2 SLOAD PUSH1 0x1 DUP2 DUP2 ADD DUP5 SSTORE PUSH1 0x0 DUP5 DUP2 MSTORE PUSH1 0x20 DUP1 DUP3 KECCAK256 SWAP1 SWAP4 ADD DUP5 SWAP1 SSTORE DUP5 SLOAD DUP5 DUP3 MSTORE DUP3 DUP7 ADD SWAP1 SWAP4 MSTORE PUSH1 0x40 SWAP1 KECCAK256 SWAP2 SWAP1 SWAP2 SSTORE PUSH2 0x579 JUMP JUMPDEST POP PUSH1 0x0 PUSH2 0x579 JUMP JUMPDEST PUSH1 0x0 PUSH1 0x1 PUSH1 0x1 PUSH1 0xE0 SHL SUB NOT DUP3 AND PUSH4 0x5A05180F PUSH1 0xE0 SHL EQ DUP1 PUSH2 0x579 JUMPI POP PUSH2 0x579 DUP3 PUSH2 0x1B1E JUMP JUMPDEST PUSH1 0x1 PUSH1 0x1 PUSH1 0xE0 SHL SUB NOT AND PUSH4 0x1FFC9A7 PUSH1 0xE0 SHL EQ SWAP1 JUMP JUMPDEST PUSH2 0x104A DUP7 DUP7 DUP7 DUP7 DUP7 DUP7 PUSH2 0x1B43 JUMP JUMPDEST PUSH2 0x1804 DUP7 DUP7 DUP7 DUP7 DUP7 DUP7 PUSH2 0x1BE8 JUMP JUMPDEST DUP1 PUSH2 0x1818 JUMPI POP PUSH2 0x1818 DUP7 DUP7 DUP7 DUP7 DUP7 DUP7 PUSH2 0x1CE0 JUMP JUMPDEST PUSH2 0x104A JUMPI PUSH1 0x40 MLOAD PUSH3 0x461BCD PUSH1 0xE5 SHL DUP2 MSTORE PUSH1 0x20 PUSH1 0x4 DUP3 ADD MSTORE PUSH1 0x42 PUSH1 0x24 DUP3 ADD MSTORE PUSH32 0x4B495033373A207472616E7366657220746F206E6F6E20494B49503337526563 PUSH1 0x44 DUP3 ADD MSTORE PUSH32 0x65697665722F4945524331313535526563656976657220696D706C656D656E74 PUSH1 0x64 DUP3 ADD MSTORE PUSH2 0x32B9 PUSH1 0xF1 SHL PUSH1 0x84 DUP3 ADD MSTORE PUSH1 0xA4 ADD PUSH2 0x54D JUMP JUMPDEST PUSH2 0x189F DUP3 DUP3 PUSH2 0x9F2 JUMP JUMPDEST PUSH2 0x7D9 JUMPI PUSH2 0x18B7 DUP2 PUSH1 0x1 PUSH1 0x1 PUSH1 0xA0 SHL SUB AND PUSH1 0x14 PUSH2 0x1DA9 JUMP JUMPDEST PUSH2 0x18C2 DUP4 PUSH1 0x20 PUSH2 0x1DA9 JUMP JUMPDEST PUSH1 0x40 MLOAD PUSH1 0x20 ADD PUSH2 0x18D3 SWAP3 SWAP2 SWAP1 PUSH2 0x2D8D JUMP JUMPDEST PUSH1 0x40 DUP1 MLOAD PUSH1 0x1F NOT DUP2 DUP5 SUB ADD DUP2 MSTORE SWAP1 DUP3 SWAP1 MSTORE PUSH3 0x461BCD PUSH1 0xE5 SHL DUP3 MSTORE PUSH2 0x54D SWAP2 PUSH1 0x4 ADD PUSH2 0x2550 JUMP JUMPDEST PUSH2 0x1903 DUP3 DUP3 PUSH2 0x9F2 JUMP JUMPDEST ISZERO PUSH2 0x7D9 JUMPI PUSH1 0x0 DUP3 DUP2 MSTORE PUSH1 0x5 PUSH1 0x20 SWAP1 DUP2 MSTORE PUSH1 0x40 DUP1 DUP4 KECCAK256 PUSH1 0x1 PUSH1 0x1 PUSH1 0xA0 SHL SUB DUP6 AND DUP1 DUP6 MSTORE SWAP3 MSTORE DUP1 DUP4 KECCAK256 DUP1 SLOAD PUSH1 0xFF NOT AND SWAP1 SSTORE MLOAD CALLER SWAP3 DUP6 SWAP2 PUSH32 0xF6391F5C32D9C69D2A47EA670B442974B53935D1EDC7FD64EB21E047A839171B SWAP2 SWAP1 LOG4 POP POP JUMP JUMPDEST PUSH1 0x0 PUSH2 0x9EB DUP4 PUSH1 0x1 PUSH1 0x1 PUSH1 0xA0 SHL SUB DUP5 AND PUSH2 0x1F45 JUMP JUMPDEST PUSH2 0x197D PUSH2 0x941 JUMP JUMPDEST PUSH2 0x19C0 JUMPI PUSH1 0x40 MLOAD PUSH3 0x461BCD PUSH1 0xE5 SHL DUP2 MSTORE PUSH1 0x20 PUSH1 0x4 DUP3 ADD MSTORE PUSH1 0x14 PUSH1 0x24 DUP3 ADD MSTORE PUSH20 0x14185D5CD8589B194E881B9BDD081C185D5CD959 PUSH1 0x62 SHL PUSH1 0x44 DUP3 ADD MSTORE PUSH1 0x64 ADD PUSH2 0x54D JUMP JUMPDEST PUSH1 0x7 DUP1 SLOAD PUSH1 0xFF NOT AND SWAP1 SSTORE PUSH32 0x5DB9EE0A495BF2E6FF9C91A7834C1BA4FDD244A5E8AA4E537BD38AEAE4B073AA CALLER JUMPDEST PUSH1 0x40 MLOAD PUSH1 0x1 PUSH1 0x1 PUSH1 0xA0 SHL SUB SWAP1 SWAP2 AND DUP2 MSTORE PUSH1 0x20 ADD PUSH1 0x40 MLOAD DUP1 SWAP2 SUB SWAP1 LOG1 JUMP JUMPDEST PUSH2 0x1A12 PUSH2 0x941 JUMP JUMPDEST ISZERO PUSH2 0x1A52 JUMPI PUSH1 0x40 MLOAD PUSH3 0x461BCD PUSH1 0xE5 SHL DUP2 MSTORE PUSH1 0x20 PUSH1 0x4 DUP3 ADD MSTORE PUSH1 0x10 PUSH1 0x24 DUP3 ADD MSTORE PUSH16 0x14185D5CD8589B194E881C185D5CD959 PUSH1 0x82 SHL PUSH1 0x44 DUP3 ADD MSTORE PUSH1 0x64 ADD PUSH2 0x54D JUMP JUMPDEST PUSH1 0x7 DUP1 SLOAD PUSH1 0xFF NOT AND PUSH1 0x1 OR SWAP1 SSTORE PUSH32 0x62E78CEA01BEE320CD4E420270B5EA74000D11B0C9F74754EBDBFC544B05A258 PUSH2 0x19ED CALLER SWAP1 JUMP JUMPDEST PUSH1 0x0 DUP3 PUSH1 0x0 ADD DUP3 DUP2 SLOAD DUP2 LT PUSH2 0x1A9E JUMPI PUSH2 0x1A9E PUSH2 0x2B87 JUMP JUMPDEST SWAP1 PUSH1 0x0 MSTORE PUSH1 0x20 PUSH1 0x0 KECCAK256 ADD SLOAD SWAP1 POP SWAP3 SWAP2 POP POP JUMP JUMPDEST PUSH1 0x40 DUP1 MLOAD PUSH1 0x1 DUP1 DUP3 MSTORE DUP2 DUP4 ADD SWAP1 SWAP3 MSTORE PUSH1 0x60 SWAP2 PUSH1 0x0 SWAP2 SWAP1 PUSH1 0x20 DUP1 DUP4 ADD SWAP1 DUP1 CALLDATASIZE DUP4 CALLDATACOPY ADD SWAP1 POP POP SWAP1 POP DUP3 DUP2 PUSH1 0x0 DUP2 MLOAD DUP2 LT PUSH2 0x1AEB JUMPI PUSH2 0x1AEB PUSH2 0x2B87 JUMP JUMPDEST PUSH1 0x20 SWAP1 DUP2 MUL SWAP2 SWAP1 SWAP2 ADD ADD MSTORE SWAP3 SWAP2 POP POP JUMP JUMPDEST PUSH2 0x1B0A DUP7 DUP7 DUP7 DUP7 DUP7 DUP7 PUSH2 0x2038 JUMP JUMPDEST DUP1 PUSH2 0x1818 JUMPI POP PUSH2 0x1818 DUP7 DUP7 DUP7 DUP7 DUP7 DUP7 PUSH2 0x2101 JUMP JUMPDEST PUSH1 0x0 PUSH1 0x1 PUSH1 0x1 PUSH1 0xE0 SHL SUB NOT DUP3 AND PUSH4 0x7965DB0B PUSH1 0xE0 SHL EQ DUP1 PUSH2 0x579 JUMPI POP PUSH2 0x579 DUP3 PUSH2 0x17D2 JUMP JUMPDEST PUSH2 0x1B51 DUP7 DUP7 DUP7 DUP7 DUP7 DUP7 PUSH2 0x21CA JUMP JUMPDEST PUSH1 0x0 JUMPDEST DUP4 MLOAD DUP2 LT ISZERO PUSH2 0x1BC2 JUMPI PUSH1 0x0 DUP5 DUP3 DUP2 MLOAD DUP2 LT PUSH2 0x1B71 JUMPI PUSH2 0x1B71 PUSH2 0x2B87 JUMP JUMPDEST PUSH1 0x20 MUL PUSH1 0x20 ADD ADD MLOAD SWAP1 POP PUSH2 0x1B94 DUP2 PUSH1 0x0 SWAP1 DUP2 MSTORE PUSH1 0x8 PUSH1 0x20 MSTORE PUSH1 0x40 SWAP1 KECCAK256 SLOAD PUSH1 0xFF AND SWAP1 JUMP JUMPDEST ISZERO PUSH2 0x1BB1 JUMPI PUSH1 0x40 MLOAD PUSH3 0x461BCD PUSH1 0xE5 SHL DUP2 MSTORE PUSH1 0x4 ADD PUSH2 0x54D SWAP1 PUSH2 0x2E02 JUMP JUMPDEST POP PUSH2 0x1BBB DUP2 PUSH2 0x2BB3 JUMP JUMPDEST SWAP1 POP PUSH2 0x1B54 JUMP JUMPDEST POP PUSH2 0x1BCB PUSH2 0x941 JUMP JUMPDEST ISZERO PUSH2 0x104A JUMPI PUSH1 0x40 MLOAD PUSH3 0x461BCD PUSH1 0xE5 SHL DUP2 MSTORE PUSH1 0x4 ADD PUSH2 0x54D SWAP1 PUSH2 0x2E02 JUMP JUMPDEST PUSH1 0x0 PUSH1 0x1 PUSH1 0x1 PUSH1 0xA0 SHL SUB DUP6 AND EXTCODESIZE ISZERO PUSH2 0x1CD2 JUMPI PUSH1 0x40 MLOAD PUSH4 0x4DA4F199 PUSH1 0xE1 SHL DUP2 MSTORE PUSH1 0x1 PUSH1 0x1 PUSH1 0xA0 SHL SUB DUP7 AND SWAP1 PUSH4 0x9B49E332 SWAP1 PUSH2 0x1C2E SWAP1 DUP11 SWAP1 DUP11 SWAP1 DUP10 SWAP1 DUP10 SWAP1 DUP10 SWAP1 PUSH1 0x4 ADD PUSH2 0x2E4C JUMP JUMPDEST PUSH1 0x20 PUSH1 0x40 MLOAD DUP1 DUP4 SUB DUP2 PUSH1 0x0 DUP8 GAS CALL SWAP3 POP POP POP DUP1 ISZERO PUSH2 0x1C69 JUMPI POP PUSH1 0x40 DUP1 MLOAD PUSH1 0x1F RETURNDATASIZE SWAP1 DUP2 ADD PUSH1 0x1F NOT AND DUP3 ADD SWAP1 SWAP3 MSTORE PUSH2 0x1C66 SWAP2 DUP2 ADD SWAP1 PUSH2 0x2EAA JUMP JUMPDEST PUSH1 0x1 JUMPDEST PUSH2 0x1CB8 JUMPI RETURNDATASIZE DUP1 DUP1 ISZERO PUSH2 0x1C97 JUMPI PUSH1 0x40 MLOAD SWAP2 POP PUSH1 0x1F NOT PUSH1 0x3F RETURNDATASIZE ADD AND DUP3 ADD PUSH1 0x40 MSTORE RETURNDATASIZE DUP3 MSTORE RETURNDATASIZE PUSH1 0x0 PUSH1 0x20 DUP5 ADD RETURNDATACOPY PUSH2 0x1C9C JUMP JUMPDEST PUSH1 0x60 SWAP2 POP JUMPDEST POP DUP1 MLOAD PUSH1 0x0 SUB PUSH2 0x1CB0 JUMPI PUSH1 0x0 SWAP2 POP POP PUSH2 0x1CD6 JUMP JUMPDEST DUP1 MLOAD DUP2 PUSH1 0x20 ADD REVERT JUMPDEST PUSH1 0x1 PUSH1 0x1 PUSH1 0xE0 SHL SUB NOT AND PUSH4 0x4DA4F199 PUSH1 0xE1 SHL EQ SWAP1 POP PUSH2 0x1CD6 JUMP JUMPDEST POP PUSH1 0x1 JUMPDEST SWAP7 SWAP6 POP POP POP POP POP POP JUMP JUMPDEST PUSH1 0x0 PUSH1 0x1 PUSH1 0x1 PUSH1 0xA0 SHL SUB DUP6 AND EXTCODESIZE ISZERO PUSH2 0x1CD2 JUMPI PUSH1 0x40 MLOAD PUSH4 0xBC197C81 PUSH1 0xE0 SHL DUP2 MSTORE PUSH1 0x1 PUSH1 0x1 PUSH1 0xA0 SHL SUB DUP7 AND SWAP1 PUSH4 0xBC197C81 SWAP1 PUSH2 0x1D26 SWAP1 DUP11 SWAP1 DUP11 SWAP1 DUP10 SWAP1 DUP10 SWAP1 DUP10 SWAP1 PUSH1 0x4 ADD PUSH2 0x2E4C JUMP JUMPDEST PUSH1 0x20 PUSH1 0x40 MLOAD DUP1 DUP4 SUB DUP2 PUSH1 0x0 DUP8 GAS CALL SWAP3 POP POP POP DUP1 ISZERO PUSH2 0x1D61 JUMPI POP PUSH1 0x40 DUP1 MLOAD PUSH1 0x1F RETURNDATASIZE SWAP1 DUP2 ADD PUSH1 0x1F NOT AND DUP3 ADD SWAP1 SWAP3 MSTORE PUSH2 0x1D5E SWAP2 DUP2 ADD SWAP1 PUSH2 0x2EAA JUMP JUMPDEST PUSH1 0x1 JUMPDEST PUSH2 0x1D8F JUMPI RETURNDATASIZE DUP1 DUP1 ISZERO PUSH2 0x1C97 JUMPI PUSH1 0x40 MLOAD SWAP2 POP PUSH1 0x1F NOT PUSH1 0x3F RETURNDATASIZE ADD AND DUP3 ADD PUSH1 0x40 MSTORE RETURNDATASIZE DUP3 MSTORE RETURNDATASIZE PUSH1 0x0 PUSH1 0x20 DUP5 ADD RETURNDATACOPY PUSH2 0x1C9C JUMP JUMPDEST PUSH1 0x1 PUSH1 0x1 PUSH1 0xE0 SHL SUB NOT AND PUSH4 0xBC197C81 PUSH1 0xE0 SHL EQ SWAP1 POP PUSH2 0x1CD6 JUMP JUMPDEST PUSH1 0x60 PUSH1 0x0 PUSH2 0x1DB8 DUP4 PUSH1 0x2 PUSH2 0x2EC7 JUMP JUMPDEST PUSH2 0x1DC3 SWAP1 PUSH1 0x2 PUSH2 0x2CF7 JUMP JUMPDEST PUSH8 0xFFFFFFFFFFFFFFFF DUP2 GT ISZERO PUSH2 0x1DDB JUMPI PUSH2 0x1DDB PUSH2 0x2563 JUMP JUMPDEST PUSH1 0x40 MLOAD SWAP1 DUP1 DUP3 MSTORE DUP1 PUSH1 0x1F ADD PUSH1 0x1F NOT AND PUSH1 0x20 ADD DUP3 ADD PUSH1 0x40 MSTORE DUP1 ISZERO PUSH2 0x1E05 JUMPI PUSH1 0x20 DUP3 ADD DUP2 DUP1 CALLDATASIZE DUP4 CALLDATACOPY ADD SWAP1 POP JUMPDEST POP SWAP1 POP PUSH1 0x3 PUSH1 0xFC SHL DUP2 PUSH1 0x0 DUP2 MLOAD DUP2 LT PUSH2 0x1E20 JUMPI PUSH2 0x1E20 PUSH2 0x2B87 JUMP JUMPDEST PUSH1 0x20 ADD ADD SWAP1 PUSH1 0x1 PUSH1 0x1 PUSH1 0xF8 SHL SUB NOT AND SWAP1 DUP2 PUSH1 0x0 BYTE SWAP1 MSTORE8 POP PUSH1 0xF PUSH1 0xFB SHL DUP2 PUSH1 0x1 DUP2 MLOAD DUP2 LT PUSH2 0x1E4F JUMPI PUSH2 0x1E4F PUSH2 0x2B87 JUMP JUMPDEST PUSH1 0x20 ADD ADD SWAP1 PUSH1 0x1 PUSH1 0x1 PUSH1 0xF8 SHL SUB NOT AND SWAP1 DUP2 PUSH1 0x0 BYTE SWAP1 MSTORE8 POP PUSH1 0x0 PUSH2 0x1E73 DUP5 PUSH1 0x2 PUSH2 0x2EC7 JUMP JUMPDEST PUSH2 0x1E7E SWAP1 PUSH1 0x1 PUSH2 0x2CF7 JUMP JUMPDEST SWAP1 POP JUMPDEST PUSH1 0x1 DUP2 GT ISZERO PUSH2 0x1EF6 JUMPI PUSH16 0x181899199A1A9B1B9C1CB0B131B232B3 PUSH1 0x81 SHL DUP6 PUSH1 0xF AND PUSH1 0x10 DUP2 LT PUSH2 0x1EB2 JUMPI PUSH2 0x1EB2 PUSH2 0x2B87 JUMP JUMPDEST BYTE PUSH1 0xF8 SHL DUP3 DUP3 DUP2 MLOAD DUP2 LT PUSH2 0x1EC8 JUMPI PUSH2 0x1EC8 PUSH2 0x2B87 JUMP JUMPDEST PUSH1 0x20 ADD ADD SWAP1 PUSH1 0x1 PUSH1 0x1 PUSH1 0xF8 SHL SUB NOT AND SWAP1 DUP2 PUSH1 0x0 BYTE SWAP1 MSTORE8 POP PUSH1 0x4 SWAP5 SWAP1 SWAP5 SHR SWAP4 PUSH2 0x1EEF DUP2 PUSH2 0x2EDE JUMP JUMPDEST SWAP1 POP PUSH2 0x1E81 JUMP JUMPDEST POP DUP4 ISZERO PUSH2 0x9EB JUMPI PUSH1 0x40 MLOAD PUSH3 0x461BCD PUSH1 0xE5 SHL DUP2 MSTORE PUSH1 0x20 PUSH1 0x4 DUP3 ADD DUP2 SWAP1 MSTORE PUSH1 0x24 DUP3 ADD MSTORE PUSH32 0x537472696E67733A20686578206C656E67746820696E73756666696369656E74 PUSH1 0x44 DUP3 ADD MSTORE PUSH1 0x64 ADD PUSH2 0x54D JUMP JUMPDEST PUSH1 0x0 DUP2 DUP2 MSTORE PUSH1 0x1 DUP4 ADD PUSH1 0x20 MSTORE PUSH1 0x40 DUP2 KECCAK256 SLOAD DUP1 ISZERO PUSH2 0x202E JUMPI PUSH1 0x0 PUSH2 0x1F69 PUSH1 0x1 DUP4 PUSH2 0x2C13 JUMP JUMPDEST DUP6 SLOAD SWAP1 SWAP2 POP PUSH1 0x0 SWAP1 PUSH2 0x1F7D SWAP1 PUSH1 0x1 SWAP1 PUSH2 0x2C13 JUMP JUMPDEST SWAP1 POP DUP2 DUP2 EQ PUSH2 0x1FE2 JUMPI PUSH1 0x0 DUP7 PUSH1 0x0 ADD DUP3 DUP2 SLOAD DUP2 LT PUSH2 0x1F9D JUMPI PUSH2 0x1F9D PUSH2 0x2B87 JUMP JUMPDEST SWAP1 PUSH1 0x0 MSTORE PUSH1 0x20 PUSH1 0x0 KECCAK256 ADD SLOAD SWAP1 POP DUP1 DUP8 PUSH1 0x0 ADD DUP5 DUP2 SLOAD DUP2 LT PUSH2 0x1FC0 JUMPI PUSH2 0x1FC0 PUSH2 0x2B87 JUMP JUMPDEST PUSH1 0x0 SWAP2 DUP3 MSTORE PUSH1 0x20 DUP1 DUP4 KECCAK256 SWAP1 SWAP2 ADD SWAP3 SWAP1 SWAP3 SSTORE SWAP2 DUP3 MSTORE PUSH1 0x1 DUP9 ADD SWAP1 MSTORE PUSH1 0x40 SWAP1 KECCAK256 DUP4 SWAP1 SSTORE JUMPDEST DUP6 SLOAD DUP7 SWAP1 DUP1 PUSH2 0x1FF3 JUMPI PUSH2 0x1FF3 PUSH2 0x2EF5 JUMP JUMPDEST PUSH1 0x1 SWAP1 SUB DUP2 DUP2 SWAP1 PUSH1 0x0 MSTORE PUSH1 0x20 PUSH1 0x0 KECCAK256 ADD PUSH1 0x0 SWAP1 SSTORE SWAP1 SSTORE DUP6 PUSH1 0x1 ADD PUSH1 0x0 DUP7 DUP2 MSTORE PUSH1 0x20 ADD SWAP1 DUP2 MSTORE PUSH1 0x20 ADD PUSH1 0x0 KECCAK256 PUSH1 0x0 SWAP1 SSTORE PUSH1 0x1 SWAP4 POP POP POP POP PUSH2 0x579 JUMP JUMPDEST PUSH1 0x0 SWAP2 POP POP PUSH2 0x579 JUMP JUMPDEST PUSH1 0x0 PUSH1 0x1 PUSH1 0x1 PUSH1 0xA0 SHL SUB DUP6 AND EXTCODESIZE ISZERO PUSH2 0x1CD2 JUMPI PUSH1 0x40 MLOAD PUSH4 0xE78B3325 PUSH1 0xE0 SHL DUP2 MSTORE PUSH1 0x1 PUSH1 0x1 PUSH1 0xA0 SHL SUB DUP7 AND SWAP1 PUSH4 0xE78B3325 SWAP1 PUSH2 0x207E SWAP1 DUP11 SWAP1 DUP11 SWAP1 DUP10 SWAP1 DUP10 SWAP1 DUP10 SWAP1 PUSH1 0x4 ADD PUSH2 0x2F0B JUMP JUMPDEST PUSH1 0x20 PUSH1 0x40 MLOAD DUP1 DUP4 SUB DUP2 PUSH1 0x0 DUP8 GAS CALL SWAP3 POP POP POP DUP1 ISZERO PUSH2 0x20B9 JUMPI POP PUSH1 0x40 DUP1 MLOAD PUSH1 0x1F RETURNDATASIZE SWAP1 DUP2 ADD PUSH1 0x1F NOT AND DUP3 ADD SWAP1 SWAP3 MSTORE PUSH2 0x20B6 SWAP2 DUP2 ADD SWAP1 PUSH2 0x2EAA JUMP JUMPDEST PUSH1 0x1 JUMPDEST PUSH2 0x20E7 JUMPI RETURNDATASIZE DUP1 DUP1 ISZERO PUSH2 0x1C97 JUMPI PUSH1 0x40 MLOAD SWAP2 POP PUSH1 0x1F NOT PUSH1 0x3F RETURNDATASIZE ADD AND DUP3 ADD PUSH1 0x40 MSTORE RETURNDATASIZE DUP3 MSTORE RETURNDATASIZE PUSH1 0x0 PUSH1 0x20 DUP5 ADD RETURNDATACOPY PUSH2 0x1C9C JUMP JUMPDEST PUSH1 0x1 PUSH1 0x1 PUSH1 0xE0 SHL SUB NOT AND PUSH4 0xE78B3325 PUSH1 0xE0 SHL EQ SWAP1 POP PUSH2 0x1CD6 JUMP JUMPDEST PUSH1 0x0 PUSH1 0x1 PUSH1 0x1 PUSH1 0xA0 SHL SUB DUP6 AND EXTCODESIZE ISZERO PUSH2 0x1CD2 JUMPI PUSH1 0x40 MLOAD PUSH4 0xF23A6E61 PUSH1 0xE0 SHL DUP2 MSTORE PUSH1 0x1 PUSH1 0x1 PUSH1 0xA0 SHL SUB DUP7 AND SWAP1 PUSH4 0xF23A6E61 SWAP1 PUSH2 0x2147 SWAP1 DUP11 SWAP1 DUP11 SWAP1 DUP10 SWAP1 DUP10 SWAP1 DUP10 SWAP1 PUSH1 0x4 ADD PUSH2 0x2F0B JUMP JUMPDEST PUSH1 0x20 PUSH1 0x40 MLOAD DUP1 DUP4 SUB DUP2 PUSH1 0x0 DUP8 GAS CALL SWAP3 POP POP POP DUP1 ISZERO PUSH2 0x2182 JUMPI POP PUSH1 0x40 DUP1 MLOAD PUSH1 0x1F RETURNDATASIZE SWAP1 DUP2 ADD PUSH1 0x1F NOT AND DUP3 ADD SWAP1 SWAP3 MSTORE PUSH2 0x217F SWAP2 DUP2 ADD SWAP1 PUSH2 0x2EAA JUMP JUMPDEST PUSH1 0x1 JUMPDEST PUSH2 0x21B0 JUMPI RETURNDATASIZE DUP1 DUP1 ISZERO PUSH2 0x1C97 JUMPI PUSH1 0x40 MLOAD SWAP2 POP PUSH1 0x1F NOT PUSH1 0x3F RETURNDATASIZE ADD AND DUP3 ADD PUSH1 0x40 MSTORE RETURNDATASIZE DUP3 MSTORE RETURNDATASIZE PUSH1 0x0 PUSH1 0x20 DUP5 ADD RETURNDATACOPY PUSH2 0x1C9C JUMP JUMPDEST PUSH1 0x1 PUSH1 0x1 PUSH1 0xE0 SHL SUB NOT AND PUSH4 0xF23A6E61 PUSH1 0xE0 SHL EQ SWAP1 POP PUSH2 0x1CD6 JUMP JUMPDEST PUSH1 0x0 JUMPDEST DUP4 MLOAD DUP2 LT ISZERO PUSH2 0x22F6 JUMPI PUSH1 0x1 PUSH1 0x1 PUSH1 0xA0 SHL SUB DUP7 AND PUSH1 0x0 SWAP1 DUP2 MSTORE PUSH1 0x3 PUSH1 0x20 MSTORE PUSH1 0x40 DUP2 KECCAK256 DUP6 MLOAD DUP3 SWAP1 DUP8 SWAP1 DUP6 SWAP1 DUP2 LT PUSH2 0x2204 JUMPI PUSH2 0x2204 PUSH2 0x2B87 JUMP JUMPDEST PUSH1 0x20 MUL PUSH1 0x20 ADD ADD MLOAD DUP2 MSTORE PUSH1 0x20 ADD SWAP1 DUP2 MSTORE PUSH1 0x20 ADD PUSH1 0x0 KECCAK256 SLOAD PUSH1 0x0 DUP1 DUP8 DUP6 DUP2 MLOAD DUP2 LT PUSH2 0x2230 JUMPI PUSH2 0x2230 PUSH2 0x2B87 JUMP JUMPDEST PUSH1 0x20 MUL PUSH1 0x20 ADD ADD MLOAD DUP2 MSTORE PUSH1 0x20 ADD SWAP1 DUP2 MSTORE PUSH1 0x20 ADD PUSH1 0x0 KECCAK256 PUSH1 0x0 DUP10 PUSH1 0x1 PUSH1 0x1 PUSH1 0xA0 SHL SUB AND PUSH1 0x1 PUSH1 0x1 PUSH1 0xA0 SHL SUB AND DUP2 MSTORE PUSH1 0x20 ADD SWAP1 DUP2 MSTORE PUSH1 0x20 ADD PUSH1 0x0 KECCAK256 SLOAD PUSH2 0x2274 SWAP2 SWAP1 PUSH2 0x2C13 JUMP JUMPDEST SWAP1 POP PUSH1 0x1 PUSH1 0x1 PUSH1 0xA0 SHL SUB DUP8 AND ISZERO DUP1 ISZERO SWAP1 PUSH2 0x22A6 JUMPI POP DUP4 DUP3 DUP2 MLOAD DUP2 LT PUSH2 0x229B JUMPI PUSH2 0x229B PUSH2 0x2B87 JUMP JUMPDEST PUSH1 0x20 MUL PUSH1 0x20 ADD ADD MLOAD DUP2 LT JUMPDEST ISZERO PUSH2 0x22E5 JUMPI PUSH1 0x40 MLOAD PUSH3 0x461BCD PUSH1 0xE5 SHL DUP2 MSTORE PUSH1 0x20 PUSH1 0x4 DUP3 ADD MSTORE PUSH1 0xF PUSH1 0x24 DUP3 ADD MSTORE PUSH15 0x151BDAD95B881A5CC81B1BD8DAD959 PUSH1 0x8A SHL PUSH1 0x44 DUP3 ADD MSTORE PUSH1 0x64 ADD PUSH2 0x54D JUMP JUMPDEST POP PUSH2 0x22EF DUP2 PUSH2 0x2BB3 JUMP JUMPDEST SWAP1 POP PUSH2 0x21CD JUMP JUMPDEST POP PUSH1 0x1 PUSH1 0x1 PUSH1 0xA0 SHL SUB DUP6 AND PUSH2 0x237E JUMPI PUSH1 0x0 JUMPDEST DUP4 MLOAD DUP2 LT ISZERO PUSH2 0x237C JUMPI DUP3 DUP2 DUP2 MLOAD DUP2 LT PUSH2 0x2323 JUMPI PUSH2 0x2323 PUSH2 0x2B87 JUMP JUMPDEST PUSH1 0x20 MUL PUSH1 0x20 ADD ADD MLOAD PUSH1 0x1 PUSH1 0x0 DUP7 DUP5 DUP2 MLOAD DUP2 LT PUSH2 0x2341 JUMPI PUSH2 0x2341 PUSH2 0x2B87 JUMP JUMPDEST PUSH1 0x20 MUL PUSH1 0x20 ADD ADD MLOAD DUP2 MSTORE PUSH1 0x20 ADD SWAP1 DUP2 MSTORE PUSH1 0x20 ADD PUSH1 0x0 KECCAK256 PUSH1 0x0 DUP3 DUP3 SLOAD PUSH2 0x2366 SWAP2 SWAP1 PUSH2 0x2CF7 JUMP JUMPDEST SWAP1 SWAP2 SSTORE POP PUSH2 0x2375 SWAP1 POP DUP2 PUSH2 0x2BB3 JUMP JUMPDEST SWAP1 POP PUSH2 0x2308 JUMP JUMPDEST POP JUMPDEST PUSH1 0x1 PUSH1 0x1 PUSH1 0xA0 SHL SUB DUP5 AND PUSH2 0x104A JUMPI PUSH1 0x0 JUMPDEST DUP4 MLOAD DUP2 LT ISZERO PUSH2 0x168F JUMPI PUSH1 0x0 DUP5 DUP3 DUP2 MLOAD DUP2 LT PUSH2 0x23AC JUMPI PUSH2 0x23AC PUSH2 0x2B87 JUMP JUMPDEST PUSH1 0x20 MUL PUSH1 0x20 ADD ADD MLOAD SWAP1 POP PUSH1 0x0 DUP5 DUP4 DUP2 MLOAD DUP2 LT PUSH2 0x23CA JUMPI PUSH2 0x23CA PUSH2 0x2B87 JUMP JUMPDEST PUSH1 0x20 MUL PUSH1 0x20 ADD ADD MLOAD SWAP1 POP PUSH1 0x0 PUSH1 0x1 PUSH1 0x0 DUP5 DUP2 MSTORE PUSH1 0x20 ADD SWAP1 DUP2 MSTORE PUSH1 0x20 ADD PUSH1 0x0 KECCAK256 SLOAD SWAP1 POP DUP2 DUP2 LT ISZERO PUSH2 0x244B JUMPI PUSH1 0x40 MLOAD PUSH3 0x461BCD PUSH1 0xE5 SHL DUP2 MSTORE PUSH1 0x20 PUSH1 0x4 DUP3 ADD MSTORE PUSH1 0x26 PUSH1 0x24 DUP3 ADD MSTORE PUSH32 0x4B495033373A206275726E20616D6F756E74206578636565647320746F74616C PUSH1 0x44 DUP3 ADD MSTORE PUSH6 0x537570706C79 PUSH1 0xD0 SHL PUSH1 0x64 DUP3 ADD MSTORE PUSH1 0x84 ADD PUSH2 0x54D JUMP JUMPDEST PUSH1 0x0 SWAP3 DUP4 MSTORE PUSH1 0x1 PUSH1 0x20 MSTORE PUSH1 0x40 SWAP1 SWAP3 KECCAK256 SWAP2 SUB SWAP1 SSTORE PUSH2 0x2467 DUP2 PUSH2 0x2BB3 JUMP JUMPDEST SWAP1 POP PUSH2 0x238F JUMP JUMPDEST PUSH1 0x0 PUSH1 0x20 DUP3 DUP5 SUB SLT ISZERO PUSH2 0x2480 JUMPI PUSH1 0x0 DUP1 REVERT JUMPDEST POP CALLDATALOAD SWAP2 SWAP1 POP JUMP JUMPDEST DUP1 CALLDATALOAD PUSH1 0x1 PUSH1 0x1 PUSH1 0xA0 SHL SUB DUP2 AND DUP2 EQ PUSH2 0x249E JUMPI PUSH1 0x0 DUP1 REVERT JUMPDEST SWAP2 SWAP1 POP JUMP JUMPDEST PUSH1 0x0 DUP1 PUSH1 0x40 DUP4 DUP6 SUB SLT ISZERO PUSH2 0x24B6 JUMPI PUSH1 0x0 DUP1 REVERT JUMPDEST PUSH2 0x24BF DUP4 PUSH2 0x2487 JUMP JUMPDEST SWAP5 PUSH1 0x20 SWAP4 SWAP1 SWAP4 ADD CALLDATALOAD SWAP4 POP POP POP JUMP JUMPDEST PUSH1 0x1 PUSH1 0x1 PUSH1 0xE0 SHL SUB NOT DUP2 AND DUP2 EQ PUSH2 0x69D JUMPI PUSH1 0x0 DUP1 REVERT JUMPDEST PUSH1 0x0 PUSH1 0x20 DUP3 DUP5 SUB SLT ISZERO PUSH2 0x24F5 JUMPI PUSH1 0x0 DUP1 REVERT JUMPDEST DUP2 CALLDATALOAD PUSH2 0x9EB DUP2 PUSH2 0x24CD JUMP JUMPDEST PUSH1 0x0 JUMPDEST DUP4 DUP2 LT ISZERO PUSH2 0x251B JUMPI DUP2 DUP2 ADD MLOAD DUP4 DUP3 ADD MSTORE PUSH1 0x20 ADD PUSH2 0x2503 JUMP JUMPDEST POP POP PUSH1 0x0 SWAP2 ADD MSTORE JUMP JUMPDEST PUSH1 0x0 DUP2 MLOAD DUP1 DUP5 MSTORE PUSH2 0x253C DUP2 PUSH1 0x20 DUP7 ADD PUSH1 0x20 DUP7 ADD PUSH2 0x2500 JUMP JUMPDEST PUSH1 0x1F ADD PUSH1 0x1F NOT AND SWAP3 SWAP1 SWAP3 ADD PUSH1 0x20 ADD SWAP3 SWAP2 POP POP JUMP JUMPDEST PUSH1 0x20 DUP2 MSTORE PUSH1 0x0 PUSH2 0x9EB PUSH1 0x20 DUP4 ADD DUP5 PUSH2 0x2524 JUMP JUMPDEST PUSH4 0x4E487B71 PUSH1 0xE0 SHL PUSH1 0x0 MSTORE PUSH1 0x41 PUSH1 0x4 MSTORE PUSH1 0x24 PUSH1 0x0 REVERT JUMPDEST PUSH1 0x40 MLOAD PUSH1 0x1F DUP3 ADD PUSH1 0x1F NOT AND DUP2 ADD PUSH8 0xFFFFFFFFFFFFFFFF DUP2 GT DUP3 DUP3 LT OR ISZERO PUSH2 0x25A2 JUMPI PUSH2 0x25A2 PUSH2 0x2563 JUMP JUMPDEST PUSH1 0x40 MSTORE SWAP2 SWAP1 POP JUMP JUMPDEST PUSH1 0x0 PUSH8 0xFFFFFFFFFFFFFFFF DUP3 GT ISZERO PUSH2 0x25C4 JUMPI PUSH2 0x25C4 PUSH2 0x2563 JUMP JUMPDEST POP PUSH1 0x5 SHL PUSH1 0x20 ADD SWAP1 JUMP JUMPDEST PUSH1 0x0 DUP3 PUSH1 0x1F DUP4 ADD SLT PUSH2 0x25DF JUMPI PUSH1 0x0 DUP1 REVERT JUMPDEST DUP2 CALLDATALOAD PUSH1 0x20 PUSH2 0x25F4 PUSH2 0x25EF DUP4 PUSH2 0x25AA JUMP JUMPDEST PUSH2 0x2579 JUMP JUMPDEST DUP3 DUP2 MSTORE PUSH1 0x5 SWAP3 SWAP1 SWAP3 SHL DUP5 ADD DUP2 ADD SWAP2 DUP2 DUP2 ADD SWAP1 DUP7 DUP5 GT ISZERO PUSH2 0x2613 JUMPI PUSH1 0x0 DUP1 REVERT JUMPDEST DUP3 DUP7 ADD JUMPDEST DUP5 DUP2 LT ISZERO PUSH2 0x262E JUMPI DUP1 CALLDATALOAD DUP4 MSTORE SWAP2 DUP4 ADD SWAP2 DUP4 ADD PUSH2 0x2617 JUMP JUMPDEST POP SWAP7 SWAP6 POP POP POP POP POP POP JUMP JUMPDEST PUSH1 0x0 DUP3 PUSH1 0x1F DUP4 ADD SLT PUSH2 0x264A JUMPI PUSH1 0x0 DUP1 REVERT JUMPDEST DUP2 CALLDATALOAD PUSH8 0xFFFFFFFFFFFFFFFF DUP2 GT ISZERO PUSH2 0x2664 JUMPI PUSH2 0x2664 PUSH2 0x2563 JUMP JUMPDEST PUSH2 0x2677 PUSH1 0x1F DUP3 ADD PUSH1 0x1F NOT AND PUSH1 0x20 ADD PUSH2 0x2579 JUMP JUMPDEST DUP2 DUP2 MSTORE DUP5 PUSH1 0x20 DUP4 DUP7 ADD ADD GT ISZERO PUSH2 0x268C JUMPI PUSH1 0x0 DUP1 REVERT JUMPDEST DUP2 PUSH1 0x20 DUP6 ADD PUSH1 0x20 DUP4 ADD CALLDATACOPY PUSH1 0x0 SWAP2 DUP2 ADD PUSH1 0x20 ADD SWAP2 SWAP1 SWAP2 MSTORE SWAP4 SWAP3 POP POP POP JUMP JUMPDEST PUSH1 0x0 DUP1 PUSH1 0x0 DUP1 PUSH1 0x0 PUSH1 0xA0 DUP7 DUP9 SUB SLT ISZERO PUSH2 0x26C1 JUMPI PUSH1 0x0 DUP1 REVERT JUMPDEST PUSH2 0x26CA DUP7 PUSH2 0x2487 JUMP JUMPDEST SWAP5 POP PUSH2 0x26D8 PUSH1 0x20 DUP8 ADD PUSH2 0x2487 JUMP JUMPDEST SWAP4 POP PUSH1 0x40 DUP7 ADD CALLDATALOAD PUSH8 0xFFFFFFFFFFFFFFFF DUP1 DUP3 GT ISZERO PUSH2 0x26F5 JUMPI PUSH1 0x0 DUP1 REVERT JUMPDEST PUSH2 0x2701 DUP10 DUP4 DUP11 ADD PUSH2 0x25CE JUMP JUMPDEST SWAP5 POP PUSH1 0x60 DUP9 ADD CALLDATALOAD SWAP2 POP DUP1 DUP3 GT ISZERO PUSH2 0x2717 JUMPI PUSH1 0x0 DUP1 REVERT JUMPDEST PUSH2 0x2723 DUP10 DUP4 DUP11 ADD PUSH2 0x25CE JUMP JUMPDEST SWAP4 POP PUSH1 0x80 DUP9 ADD CALLDATALOAD SWAP2 POP DUP1 DUP3 GT ISZERO PUSH2 0x2739 JUMPI PUSH1 0x0 DUP1 REVERT JUMPDEST POP PUSH2 0x2746 DUP9 DUP3 DUP10 ADD PUSH2 0x2639 JUMP JUMPDEST SWAP2 POP POP SWAP3 SWAP6 POP SWAP3 SWAP6 SWAP1 SWAP4 POP JUMP JUMPDEST PUSH1 0x0 DUP1 PUSH1 0x40 DUP4 DUP6 SUB SLT ISZERO PUSH2 0x2766 JUMPI PUSH1 0x0 DUP1 REVERT JUMPDEST DUP3 CALLDATALOAD SWAP2 POP PUSH2 0x2776 PUSH1 0x20 DUP5 ADD PUSH2 0x2487 JUMP JUMPDEST SWAP1 POP SWAP3 POP SWAP3 SWAP1 POP JUMP JUMPDEST PUSH1 0x0 DUP1 PUSH1 0x40 DUP4 DUP6 SUB SLT ISZERO PUSH2 0x2792 JUMPI PUSH1 0x0 DUP1 REVERT JUMPDEST DUP3 CALLDATALOAD PUSH8 0xFFFFFFFFFFFFFFFF DUP1 DUP3 GT ISZERO PUSH2 0x27AA JUMPI PUSH1 0x0 DUP1 REVERT JUMPDEST DUP2 DUP6 ADD SWAP2 POP DUP6 PUSH1 0x1F DUP4 ADD SLT PUSH2 0x27BE JUMPI PUSH1 0x0 DUP1 REVERT JUMPDEST DUP2 CALLDATALOAD PUSH1 0x20 PUSH2 0x27CE PUSH2 0x25EF DUP4 PUSH2 0x25AA JUMP JUMPDEST DUP3 DUP2 MSTORE PUSH1 0x5 SWAP3 SWAP1 SWAP3 SHL DUP5 ADD DUP2 ADD SWAP2 DUP2 DUP2 ADD SWAP1 DUP10 DUP5 GT ISZERO PUSH2 0x27ED JUMPI PUSH1 0x0 DUP1 REVERT JUMPDEST SWAP5 DUP3 ADD SWAP5 JUMPDEST DUP4 DUP7 LT ISZERO PUSH2 0x2812 JUMPI PUSH2 0x2803 DUP7 PUSH2 0x2487 JUMP JUMPDEST DUP3 MSTORE SWAP5 DUP3 ADD SWAP5 SWAP1 DUP3 ADD SWAP1 PUSH2 0x27F2 JUMP JUMPDEST SWAP7 POP POP DUP7 ADD CALLDATALOAD SWAP3 POP POP DUP1 DUP3 GT ISZERO PUSH2 0x2828 JUMPI PUSH1 0x0 DUP1 REVERT JUMPDEST POP PUSH2 0x2835 DUP6 DUP3 DUP7 ADD PUSH2 0x25CE JUMP JUMPDEST SWAP2 POP POP SWAP3 POP SWAP3 SWAP1 POP JUMP JUMPDEST PUSH1 0x0 DUP2 MLOAD DUP1 DUP5 MSTORE PUSH1 0x20 DUP1 DUP6 ADD SWAP5 POP DUP1 DUP5 ADD PUSH1 0x0 JUMPDEST DUP4 DUP2 LT ISZERO PUSH2 0x286F JUMPI DUP2 MLOAD DUP8 MSTORE SWAP6 DUP3 ADD SWAP6 SWAP1 DUP3 ADD SWAP1 PUSH1 0x1 ADD PUSH2 0x2853 JUMP JUMPDEST POP SWAP5 SWAP6 SWAP5 POP POP POP POP POP JUMP JUMPDEST PUSH1 0x20 DUP2 MSTORE PUSH1 0x0 PUSH2 0x9EB PUSH1 0x20 DUP4 ADD DUP5 PUSH2 0x283F JUMP JUMPDEST PUSH1 0x0 DUP1 PUSH1 0x0 PUSH1 0x60 DUP5 DUP7 SUB SLT ISZERO PUSH2 0x28A2 JUMPI PUSH1 0x0 DUP1 REVERT JUMPDEST PUSH2 0x28AB DUP5 PUSH2 0x2487 JUMP JUMPDEST SWAP3 POP PUSH1 0x20 DUP5 ADD CALLDATALOAD PUSH8 0xFFFFFFFFFFFFFFFF DUP1 DUP3 GT ISZERO PUSH2 0x28C8 JUMPI PUSH1 0x0 DUP1 REVERT JUMPDEST PUSH2 0x28D4 DUP8 DUP4 DUP9 ADD PUSH2 0x25CE JUMP JUMPDEST SWAP4 POP PUSH1 0x40 DUP7 ADD CALLDATALOAD SWAP2 POP DUP1 DUP3 GT ISZERO PUSH2 0x28EA JUMPI PUSH1 0x0 DUP1 REVERT JUMPDEST POP PUSH2 0x28F7 DUP7 DUP3 DUP8 ADD PUSH2 0x25CE JUMP JUMPDEST SWAP2 POP POP SWAP3 POP SWAP3 POP SWAP3 JUMP JUMPDEST PUSH1 0x0 DUP1 PUSH1 0x40 DUP4 DUP6 SUB SLT ISZERO PUSH2 0x2914 JUMPI PUSH1 0x0 DUP1 REVERT JUMPDEST POP POP DUP1 CALLDATALOAD SWAP3 PUSH1 0x20 SWAP1 SWAP2 ADD CALLDATALOAD SWAP2 POP JUMP JUMPDEST PUSH1 0x0 DUP1 PUSH1 0x40 DUP4 DUP6 SUB SLT ISZERO PUSH2 0x2936 JUMPI PUSH1 0x0 DUP1 REVERT JUMPDEST PUSH2 0x293F DUP4 PUSH2 0x2487 JUMP JUMPDEST SWAP2 POP PUSH1 0x20 DUP4 ADD CALLDATALOAD DUP1 ISZERO ISZERO DUP2 EQ PUSH2 0x2954 JUMPI PUSH1 0x0 DUP1 REVERT JUMPDEST DUP1 SWAP2 POP POP SWAP3 POP SWAP3 SWAP1 POP JUMP JUMPDEST PUSH1 0x0 DUP1 PUSH1 0x40 DUP4 DUP6 SUB SLT ISZERO PUSH2 0x2972 JUMPI PUSH1 0x0 DUP1 REVERT JUMPDEST PUSH2 0x297B DUP4 PUSH2 0x2487 JUMP JUMPDEST SWAP2 POP PUSH2 0x2776 PUSH1 0x20 DUP5 ADD PUSH2 0x2487 JUMP JUMPDEST PUSH1 0x0 DUP1 PUSH1 0x40 DUP4 DUP6 SUB SLT ISZERO PUSH2 0x299C JUMPI PUSH1 0x0 DUP1 REVERT JUMPDEST PUSH2 0x29A5 DUP4 PUSH2 0x2487 JUMP JUMPDEST SWAP2 POP PUSH1 0x20 DUP4 ADD CALLDATALOAD PUSH8 0xFFFFFFFFFFFFFFFF DUP2 GT ISZERO PUSH2 0x29C1 JUMPI PUSH1 0x0 DUP1 REVERT JUMPDEST PUSH2 0x2835 DUP6 DUP3 DUP7 ADD PUSH2 0x25CE JUMP JUMPDEST PUSH1 0x40 DUP2 MSTORE PUSH1 0x0 PUSH2 0x29E0 PUSH1 0x40 DUP4 ADD DUP6 PUSH2 0x283F JUMP JUMPDEST DUP3 DUP2 SUB PUSH1 0x20 DUP5 ADD MSTORE PUSH2 0x29F2 DUP2 DUP6 PUSH2 0x283F JUMP JUMPDEST SWAP6 SWAP5 POP POP POP POP POP JUMP JUMPDEST PUSH1 0x0 DUP1 PUSH1 0x0 DUP1 PUSH1 0x0 PUSH1 0xA0 DUP7 DUP9 SUB SLT ISZERO PUSH2 0x2A13 JUMPI PUSH1 0x0 DUP1 REVERT JUMPDEST PUSH2 0x2A1C DUP7 PUSH2 0x2487 JUMP JUMPDEST SWAP5 POP PUSH2 0x2A2A PUSH1 0x20 DUP8 ADD PUSH2 0x2487 JUMP JUMPDEST SWAP4 POP PUSH1 0x40 DUP7 ADD CALLDATALOAD SWAP3 POP PUSH1 0x60 DUP7 ADD CALLDATALOAD SWAP2 POP PUSH1 0x80 DUP7 ADD CALLDATALOAD PUSH8 0xFFFFFFFFFFFFFFFF DUP2 GT ISZERO PUSH2 0x2A54 JUMPI PUSH1 0x0 DUP1 REVERT JUMPDEST PUSH2 0x2746 DUP9 DUP3 DUP10 ADD PUSH2 0x2639 JUMP JUMPDEST PUSH1 0x0 DUP1 PUSH1 0x0 PUSH1 0x60 DUP5 DUP7 SUB SLT ISZERO PUSH2 0x2A75 JUMPI PUSH1 0x0 DUP1 REVERT JUMPDEST PUSH2 0x2A7E DUP5 PUSH2 0x2487 JUMP JUMPDEST SWAP6 PUSH1 0x20 DUP6 ADD CALLDATALOAD SWAP6 POP PUSH1 0x40 SWAP1 SWAP5 ADD CALLDATALOAD SWAP4 SWAP3 POP POP POP JUMP JUMPDEST PUSH1 0x1 DUP2 DUP2 SHR SWAP1 DUP3 AND DUP1 PUSH2 0x2AA7 JUMPI PUSH1 0x7F DUP3 AND SWAP2 POP JUMPDEST PUSH1 0x20 DUP3 LT DUP2 SUB PUSH2 0x2AC7 JUMPI PUSH4 0x4E487B71 PUSH1 0xE0 SHL PUSH1 0x0 MSTORE PUSH1 0x22 PUSH1 0x4 MSTORE PUSH1 0x24 PUSH1 0x0 REVERT JUMPDEST POP SWAP2 SWAP1 POP JUMP JUMPDEST PUSH1 0x20 DUP1 DUP3 MSTORE PUSH1 0x37 SWAP1 DUP3 ADD MSTORE PUSH32 0x4B495033375072657365744D696E7465725061757365723A206D757374206861 PUSH1 0x40 DUP3 ADD MSTORE PUSH32 0x76652070617573657220726F6C6520746F207061757365000000000000000000 PUSH1 0x60 DUP3 ADD MSTORE PUSH1 0x80 ADD SWAP1 JUMP JUMPDEST PUSH1 0x20 DUP1 DUP3 MSTORE PUSH1 0x39 SWAP1 DUP3 ADD MSTORE PUSH32 0x4B495033375072657365744D696E7465725061757365723A206D757374206861 PUSH1 0x40 DUP3 ADD MSTORE PUSH32 0x76652070617573657220726F6C6520746F20756E706175736500000000000000 PUSH1 0x60 DUP3 ADD MSTORE PUSH1 0x80 ADD SWAP1 JUMP JUMPDEST PUSH4 0x4E487B71 PUSH1 0xE0 SHL PUSH1 0x0 MSTORE PUSH1 0x32 PUSH1 0x4 MSTORE PUSH1 0x24 PUSH1 0x0 REVERT JUMPDEST PUSH4 0x4E487B71 PUSH1 0xE0 SHL PUSH1 0x0 MSTORE PUSH1 0x11 PUSH1 0x4 MSTORE PUSH1 0x24 PUSH1 0x0 REVERT JUMPDEST PUSH1 0x0 PUSH1 0x1 DUP3 ADD PUSH2 0x2BC5 JUMPI PUSH2 0x2BC5 PUSH2 0x2B9D JUMP JUMPDEST POP PUSH1 0x1 ADD SWAP1 JUMP JUMPDEST PUSH1 0x20 DUP1 DUP3 MSTORE PUSH1 0x27 SWAP1 DUP3 ADD MSTORE PUSH32 0x4B495033373A2063616C6C6572206973206E6F74206F776E6572206E6F722061 PUSH1 0x40 DUP3 ADD MSTORE PUSH7 0x1C1C1C9BDD9959 PUSH1 0xCA SHL PUSH1 0x60 DUP3 ADD MSTORE PUSH1 0x80 ADD SWAP1 JUMP JUMPDEST DUP2 DUP2 SUB DUP2 DUP2 GT ISZERO PUSH2 0x579 JUMPI PUSH2 0x579 PUSH2 0x2B9D JUMP JUMPDEST PUSH1 0x20 DUP1 DUP3 MSTORE PUSH1 0x26 SWAP1 DUP3 ADD MSTORE PUSH32 0x4B495033373A2069647320616E6420616D6F756E7473206C656E677468206D69 PUSH1 0x40 DUP3 ADD MSTORE PUSH6 0xE6DAC2E8C6D PUSH1 0xD3 SHL PUSH1 0x60 DUP3 ADD MSTORE PUSH1 0x80 ADD SWAP1 JUMP JUMPDEST PUSH1 0x20 DUP1 DUP3 MSTORE PUSH1 0x23 SWAP1 DUP3 ADD MSTORE PUSH32 0x4B495033373A207472616E7366657220746F20746865207A65726F2061646472 PUSH1 0x40 DUP3 ADD MSTORE PUSH3 0x657373 PUSH1 0xE8 SHL PUSH1 0x60 DUP3 ADD MSTORE PUSH1 0x80 ADD SWAP1 JUMP JUMPDEST PUSH1 0x20 DUP1 DUP3 MSTORE PUSH1 0x28 SWAP1 DUP3 ADD MSTORE PUSH32 0x4B495033373A20696E73756666696369656E742062616C616E636520666F7220 PUSH1 0x40 DUP3 ADD MSTORE PUSH8 0x3A3930B739B332B9 PUSH1 0xC1 SHL PUSH1 0x60 DUP3 ADD MSTORE PUSH1 0x80 ADD SWAP1 JUMP JUMPDEST DUP1 DUP3 ADD DUP1 DUP3 GT ISZERO PUSH2 0x579 JUMPI PUSH2 0x579 PUSH2 0x2B9D JUMP JUMPDEST PUSH1 0x20 DUP1 DUP3 MSTORE PUSH1 0x21 SWAP1 DUP3 ADD MSTORE PUSH32 0x4B495033373A206275726E2066726F6D20746865207A65726F20616464726573 PUSH1 0x40 DUP3 ADD MSTORE PUSH1 0x73 PUSH1 0xF8 SHL PUSH1 0x60 DUP3 ADD MSTORE PUSH1 0x80 ADD SWAP1 JUMP JUMPDEST PUSH1 0x20 DUP1 DUP3 MSTORE PUSH1 0x22 SWAP1 DUP3 ADD MSTORE PUSH32 0x4B495033373A206275726E20616D6F756E7420657863656564732062616C616E PUSH1 0x40 DUP3 ADD MSTORE PUSH2 0x6365 PUSH1 0xF0 SHL PUSH1 0x60 DUP3 ADD MSTORE PUSH1 0x80 ADD SWAP1 JUMP JUMPDEST PUSH32 0x416363657373436F6E74726F6C3A206163636F756E7420000000000000000000 DUP2 MSTORE PUSH1 0x0 DUP4 MLOAD PUSH2 0x2DC5 DUP2 PUSH1 0x17 DUP6 ADD PUSH1 0x20 DUP9 ADD PUSH2 0x2500 JUMP JUMPDEST PUSH17 0x1034B99036B4B9B9B4B733903937B6329 PUSH1 0x7D SHL PUSH1 0x17 SWAP2 DUP5 ADD SWAP2 DUP3 ADD MSTORE DUP4 MLOAD PUSH2 0x2DF6 DUP2 PUSH1 0x28 DUP5 ADD PUSH1 0x20 DUP9 ADD PUSH2 0x2500 JUMP JUMPDEST ADD PUSH1 0x28 ADD SWAP5 SWAP4 POP POP POP POP JUMP JUMPDEST PUSH1 0x20 DUP1 DUP3 MSTORE PUSH1 0x2A SWAP1 DUP3 ADD MSTORE PUSH32 0x4B495033375061757361626C653A20746F6B656E207472616E73666572207768 PUSH1 0x40 DUP3 ADD MSTORE PUSH10 0x1A5B19481C185D5CD959 PUSH1 0xB2 SHL PUSH1 0x60 DUP3 ADD MSTORE PUSH1 0x80 ADD SWAP1 JUMP JUMPDEST PUSH1 0x1 PUSH1 0x1 PUSH1 0xA0 SHL SUB DUP7 DUP2 AND DUP3 MSTORE DUP6 AND PUSH1 0x20 DUP3 ADD MSTORE PUSH1 0xA0 PUSH1 0x40 DUP3 ADD DUP2 SWAP1 MSTORE PUSH1 0x0 SWAP1 PUSH2 0x2E78 SWAP1 DUP4 ADD DUP7 PUSH2 0x283F JUMP JUMPDEST DUP3 DUP2 SUB PUSH1 0x60 DUP5 ADD MSTORE PUSH2 0x2E8A DUP2 DUP7 PUSH2 0x283F JUMP JUMPDEST SWAP1 POP DUP3 DUP2 SUB PUSH1 0x80 DUP5 ADD MSTORE PUSH2 0x2E9E DUP2 DUP6 PUSH2 0x2524 JUMP JUMPDEST SWAP9 SWAP8 POP POP POP POP POP POP POP POP JUMP JUMPDEST PUSH1 0x0 PUSH1 0x20 DUP3 DUP5 SUB SLT ISZERO PUSH2 0x2EBC JUMPI PUSH1 0x0 DUP1 REVERT JUMPDEST DUP2 MLOAD PUSH2 0x9EB DUP2 PUSH2 0x24CD JUMP JUMPDEST DUP1 DUP3 MUL DUP2 ISZERO DUP3 DUP3 DIV DUP5 EQ OR PUSH2 0x579 JUMPI PUSH2 0x579 PUSH2 0x2B9D JUMP JUMPDEST PUSH1 0x0 DUP2 PUSH2 0x2EED JUMPI PUSH2 0x2EED PUSH2 0x2B9D JUMP JUMPDEST POP PUSH1 0x0 NOT ADD SWAP1 JUMP JUMPDEST PUSH4 0x4E487B71 PUSH1 0xE0 SHL PUSH1 0x0 MSTORE PUSH1 0x31 PUSH1 0x4 MSTORE PUSH1 0x24 PUSH1 0x0 REVERT JUMPDEST PUSH1 0x1 PUSH1 0x1 PUSH1 0xA0 SHL SUB DUP7 DUP2 AND DUP3 MSTORE DUP6 AND PUSH1 0x20 DUP3 ADD MSTORE PUSH1 0x40 DUP2 ADD DUP5 SWAP1 MSTORE PUSH1 0x60 DUP2 ADD DUP4 SWAP1 MSTORE PUSH1 0xA0 PUSH1 0x80 DUP3 ADD DUP2 SWAP1 MSTORE PUSH1 0x0 SWAP1 PUSH2 0x2F45 SWAP1 DUP4 ADD DUP5 PUSH2 0x2524 JUMP JUMPDEST SWAP8 SWAP7 POP POP POP POP POP POP POP JUMP INVALID PUSH10 0x176E6A1211CC6EAC9381 CODECOPY 0xA9 0xA7 0xE 0x4D 0xD6 0x5F SHL PUSH30 0x76E806459E7A34B759878E85A26469706673582212202CB6F0924B4D597F PREVRANDAO SWAP2 CHAINID SWAP5 EXTCODECOPY 0xDF 0xE1 PUSH19 0xF41A3A3D00D17B8385CB1A9072FABDC464736F PUSH13 0x63430008120033000000000000 "
		},
		"gasEstimates": {
			"creation": {
				"codeDepositCost": "2439600",
				"executionCost": "infinite",
				"totalCost": "infinite"
			},
			"external": {
				"DEFAULT_ADMIN_ROLE()": "240",
				"PAUSER_ROLE()": "infinite",
				"balanceOf(address,uint256)": "2756",
				"balanceOfBatch(address[],uint256[])": "infinite",
				"burn(address,uint256,uint256)": "infinite",
				"burnBatch(address,uint256[],uint256[])": "infinite",
				"getAllLockedTokensByAddress(address,uint256[])": "infinite",
				"getRoleAdmin(bytes32)": "2556",
				"getRoleMember(bytes32,uint256)": "infinite",
				"getRoleMemberCount(bytes32)": "infinite",
				"grantRole(bytes32,address)": "infinite",
				"hasRole(bytes32,address)": "2744",
				"isApprovedForAll(address,address)": "infinite",
				"isTokenLocked(uint256,address)": "2721",
				"lockedTokens(address,uint256)": "2679",
				"name()": "infinite",
				"pause()": "infinite",
				"pause(uint256)": "infinite",
				"paused()": "2420",
				"paused(uint256)": "2486",
				"renounceRole(bytes32,address)": "infinite",
				"revokeRole(bytes32,address)": "infinite",
				"safeBatchTransferFrom(address,address,uint256[],uint256[],bytes)": "infinite",
				"safeTransferFrom(address,address,uint256,uint256,bytes)": "infinite",
				"setApprovalForAll(address,bool)": "26750",
				"supportsInterface(bytes4)": "infinite",
				"symbol()": "infinite",
				"totalSupply(uint256)": "2549",
				"unpause()": "infinite",
				"unpause(uint256)": "infinite",
				"uri(uint256)": "infinite"
			},
			"internal": {
				"_beforeTokenTransfer(address,address,address,uint256[] memory,uint256[] memory,bytes memory)": "infinite"
			}
		},
		"methodIdentifiers": {
			"DEFAULT_ADMIN_ROLE()": "a217fddf",
			"PAUSER_ROLE()": "e63ab1e9",
			"balanceOf(address,uint256)": "00fdd58e",
			"balanceOfBatch(address[],uint256[])": "4e1273f4",
			"burn(address,uint256,uint256)": "f5298aca",
			"burnBatch(address,uint256[],uint256[])": "6b20c454",
			"getAllLockedTokensByAddress(address,uint256[])": "ee51d26a",
			"getRoleAdmin(bytes32)": "248a9ca3",
			"getRoleMember(bytes32,uint256)": "9010d07c",
			"getRoleMemberCount(bytes32)": "ca15c873",
			"grantRole(bytes32,address)": "2f2ff15d",
			"hasRole(bytes32,address)": "91d14854",
			"isApprovedForAll(address,address)": "e985e9c5",
			"isTokenLocked(uint256,address)": "b56cf84f",
			"lockedTokens(address,uint256)": "53719b6e",
			"name()": "06fdde03",
			"pause()": "8456cb59",
			"pause(uint256)": "136439dd",
			"paused()": "5c975abb",
			"paused(uint256)": "00dde10e",
			"renounceRole(bytes32,address)": "36568abe",
			"revokeRole(bytes32,address)": "d547741f",
			"safeBatchTransferFrom(address,address,uint256[],uint256[],bytes)": "2eb2c2d6",
			"safeTransferFrom(address,address,uint256,uint256,bytes)": "f242432a",
			"setApprovalForAll(address,bool)": "a22cb465",
			"supportsInterface(bytes4)": "01ffc9a7",
			"symbol()": "95d89b41",
			"totalSupply(uint256)": "bd85b039",
			"unpause()": "3f4ba83a",
			"unpause(uint256)": "fabc1cbc",
			"uri(uint256)": "0e89341c"
		}
	},
	"abi": [
		{
			"inputs": [
				{
					"internalType": "string",
					"name": "symbol_",
					"type": "string"
				},
				{
					"internalType": "string",
					"name": "name_",
					"type": "string"
				}
			],
			"stateMutability": "nonpayable",
			"type": "constructor"
		},
		{
			"anonymous": false,
			"inputs": [
				{
					"indexed": true,
					"internalType": "address",
					"name": "owner",
					"type": "address"
				},
				{
					"indexed": true,
					"internalType": "address",
					"name": "operator",
					"type": "address"
				},
				{
					"indexed": false,
					"internalType": "bool",
					"name": "approved",
					"type": "bool"
				}
			],
			"name": "ApprovalForAll",
			"type": "event"
		},
		{
			"anonymous": false,
			"inputs": [
				{
					"indexed": false,
					"internalType": "address",
					"name": "account",
					"type": "address"
				}
			],
			"name": "Paused",
			"type": "event"
		},
		{
			"anonymous": false,
			"inputs": [
				{
					"indexed": true,
					"internalType": "bytes32",
					"name": "role",
					"type": "bytes32"
				},
				{
					"indexed": true,
					"internalType": "bytes32",
					"name": "previousAdminRole",
					"type": "bytes32"
				},
				{
					"indexed": true,
					"internalType": "bytes32",
					"name": "newAdminRole",
					"type": "bytes32"
				}
			],
			"name": "RoleAdminChanged",
			"type": "event"
		},
		{
			"anonymous": false,
			"inputs": [
				{
					"indexed": true,
					"internalType": "bytes32",
					"name": "role",
					"type": "bytes32"
				},
				{
					"indexed": true,
					"internalType": "address",
					"name": "account",
					"type": "address"
				},
				{
					"indexed": true,
					"internalType": "address",
					"name": "sender",
					"type": "address"
				}
			],
			"name": "RoleGranted",
			"type": "event"
		},
		{
			"anonymous": false,
			"inputs": [
				{
					"indexed": true,
					"internalType": "bytes32",
					"name": "role",
					"type": "bytes32"
				},
				{
					"indexed": true,
					"internalType": "address",
					"name": "account",
					"type": "address"
				},
				{
					"indexed": true,
					"internalType": "address",
					"name": "sender",
					"type": "address"
				}
			],
			"name": "RoleRevoked",
			"type": "event"
		},
		{
			"anonymous": false,
			"inputs": [
				{
					"indexed": false,
					"internalType": "address",
					"name": "account",
					"type": "address"
				},
				{
					"indexed": false,
					"internalType": "uint256",
					"name": "id",
					"type": "uint256"
				}
			],
			"name": "TokenPaused",
			"type": "event"
		},
		{
			"anonymous": false,
			"inputs": [
				{
					"indexed": false,
					"internalType": "address",
					"name": "account",
					"type": "address"
				},
				{
					"indexed": false,
					"internalType": "uint256",
					"name": "id",
					"type": "uint256"
				}
			],
			"name": "TokenUnpaused",
			"type": "event"
		},
		{
			"anonymous": false,
			"inputs": [
				{
					"indexed": true,
					"internalType": "address",
					"name": "operator",
					"type": "address"
				},
				{
					"indexed": true,
					"internalType": "address",
					"name": "from",
					"type": "address"
				},
				{
					"indexed": true,
					"internalType": "address",
					"name": "to",
					"type": "address"
				},
				{
					"indexed": false,
					"internalType": "uint256[]",
					"name": "ids",
					"type": "uint256[]"
				},
				{
					"indexed": false,
					"internalType": "uint256[]",
					"name": "amounts",
					"type": "uint256[]"
				}
			],
			"name": "TransferBatch",
			"type": "event"
		},
		{
			"anonymous": false,
			"inputs": [
				{
					"indexed": true,
					"internalType": "address",
					"name": "operator",
					"type": "address"
				},
				{
					"indexed": true,
					"internalType": "address",
					"name": "from",
					"type": "address"
				},
				{
					"indexed": true,
					"internalType": "address",
					"name": "to",
					"type": "address"
				},
				{
					"indexed": false,
					"internalType": "uint256",
					"name": "id",
					"type": "uint256"
				},
				{
					"indexed": false,
					"internalType": "uint256",
					"name": "amount",
					"type": "uint256"
				}
			],
			"name": "TransferSingle",
			"type": "event"
		},
		{
			"anonymous": false,
			"inputs": [
				{
					"indexed": false,
					"internalType": "string",
					"name": "value",
					"type": "string"
				},
				{
					"indexed": true,
					"internalType": "uint256",
					"name": "id",
					"type": "uint256"
				}
			],
			"name": "URI",
			"type": "event"
		},
		{
			"anonymous": false,
			"inputs": [
				{
					"indexed": false,
					"internalType": "address",
					"name": "account",
					"type": "address"
				}
			],
			"name": "Unpaused",
			"type": "event"
		},
		{
			"inputs": [],
			"name": "DEFAULT_ADMIN_ROLE",
			"outputs": [
				{
					"internalType": "bytes32",
					"name": "",
					"type": "bytes32"
				}
			],
			"stateMutability": "view",
			"type": "function"
		},
		{
			"inputs": [],
			"name": "PAUSER_ROLE",
			"outputs": [
				{
					"internalType": "bytes32",
					"name": "",
					"type": "bytes32"
				}
			],
			"stateMutability": "view",
			"type": "function"
		},
		{
			"inputs": [
				{
					"internalType": "address",
					"name": "owner",
					"type": "address"
				},
				{
					"internalType": "uint256",
					"name": "id",
					"type": "uint256"
				}
			],
			"name": "balanceOf",
			"outputs": [
				{
					"internalType": "uint256",
					"name": "",
					"type": "uint256"
				}
			],
			"stateMutability": "view",
			"type": "function"
		},
		{
			"inputs": [
				{
					"internalType": "address[]",
					"name": "owners",
					"type": "address[]"
				},
				{
					"internalType": "uint256[]",
					"name": "ids",
					"type": "uint256[]"
				}
			],
			"name": "balanceOfBatch",
			"outputs": [
				{
					"internalType": "uint256[]",
					"name": "",
					"type": "uint256[]"
				}
			],
			"stateMutability": "view",
			"type": "function"
		},
		{
			"inputs": [
				{
					"internalType": "address",
					"name": "account",
					"type": "address"
				},
				{
					"internalType": "uint256",
					"name": "id",
					"type": "uint256"
				},
				{
					"internalType": "uint256",
					"name": "amount",
					"type": "uint256"
				}
			],
			"name": "burn",
			"outputs": [],
			"stateMutability": "nonpayable",
			"type": "function"
		},
		{
			"inputs": [
				{
					"internalType": "address",
					"name": "account",
					"type": "address"
				},
				{
					"internalType": "uint256[]",
					"name": "ids",
					"type": "uint256[]"
				},
				{
					"internalType": "uint256[]",
					"name": "amounts",
					"type": "uint256[]"
				}
			],
			"name": "burnBatch",
			"outputs": [],
			"stateMutability": "nonpayable",
			"type": "function"
		},
		{
			"inputs": [
				{
					"internalType": "address",
					"name": "_addr",
					"type": "address"
				},
				{
					"internalType": "uint256[]",
					"name": "tokenIds",
					"type": "uint256[]"
				}
			],
			"name": "getAllLockedTokensByAddress",
			"outputs": [
				{
					"internalType": "uint256[]",
					"name": "",
					"type": "uint256[]"
				},
				{
					"internalType": "uint256[]",
					"name": "",
					"type": "uint256[]"
				}
			],
			"stateMutability": "view",
			"type": "function"
		},
		{
			"inputs": [
				{
					"internalType": "bytes32",
					"name": "role",
					"type": "bytes32"
				}
			],
			"name": "getRoleAdmin",
			"outputs": [
				{
					"internalType": "bytes32",
					"name": "",
					"type": "bytes32"
				}
			],
			"stateMutability": "view",
			"type": "function"
		},
		{
			"inputs": [
				{
					"internalType": "bytes32",
					"name": "role",
					"type": "bytes32"
				},
				{
					"internalType": "uint256",
					"name": "index",
					"type": "uint256"
				}
			],
			"name": "getRoleMember",
			"outputs": [
				{
					"internalType": "address",
					"name": "",
					"type": "address"
				}
			],
			"stateMutability": "view",
			"type": "function"
		},
		{
			"inputs": [
				{
					"internalType": "bytes32",
					"name": "role",
					"type": "bytes32"
				}
			],
			"name": "getRoleMemberCount",
			"outputs": [
				{
					"internalType": "uint256",
					"name": "",
					"type": "uint256"
				}
			],
			"stateMutability": "view",
			"type": "function"
		},
		{
			"inputs": [
				{
					"internalType": "bytes32",
					"name": "role",
					"type": "bytes32"
				},
				{
					"internalType": "address",
					"name": "account",
					"type": "address"
				}
			],
			"name": "grantRole",
			"outputs": [],
			"stateMutability": "nonpayable",
			"type": "function"
		},
		{
			"inputs": [
				{
					"internalType": "bytes32",
					"name": "role",
					"type": "bytes32"
				},
				{
					"internalType": "address",
					"name": "account",
					"type": "address"
				}
			],
			"name": "hasRole",
			"outputs": [
				{
					"internalType": "bool",
					"name": "",
					"type": "bool"
				}
			],
			"stateMutability": "view",
			"type": "function"
		},
		{
			"inputs": [
				{
					"internalType": "address",
					"name": "owner",
					"type": "address"
				},
				{
					"internalType": "address",
					"name": "operator",
					"type": "address"
				}
			],
			"name": "isApprovedForAll",
			"outputs": [
				{
					"internalType": "bool",
					"name": "",
					"type": "bool"
				}
			],
			"stateMutability": "view",
			"type": "function"
		},
		{
			"inputs": [
				{
					"internalType": "uint256",
					"name": "tokenId",
					"type": "uint256"
				},
				{
					"internalType": "address",
					"name": "owner",
					"type": "address"
				}
			],
			"name": "isTokenLocked",
			"outputs": [
				{
					"internalType": "uint256",
					"name": "",
					"type": "uint256"
				}
			],
			"stateMutability": "view",
			"type": "function"
		},
		{
			"inputs": [
				{
					"internalType": "address",
					"name": "",
					"type": "address"
				},
				{
					"internalType": "uint256",
					"name": "",
					"type": "uint256"
				}
			],
			"name": "lockedTokens",
			"outputs": [
				{
					"internalType": "uint256",
					"name": "",
					"type": "uint256"
				}
			],
			"stateMutability": "view",
			"type": "function"
		},
		{
			"inputs": [],
			"name": "name",
			"outputs": [
				{
					"internalType": "string",
					"name": "",
					"type": "string"
				}
			],
			"stateMutability": "view",
			"type": "function"
		},
		{
			"inputs": [
				{
					"internalType": "uint256",
					"name": "id",
					"type": "uint256"
				}
			],
			"name": "pause",
			"outputs": [],
			"stateMutability": "nonpayable",
			"type": "function"
		},
		{
			"inputs": [],
			"name": "pause",
			"outputs": [],
			"stateMutability": "nonpayable",
			"type": "function"
		},
		{
			"inputs": [
				{
					"internalType": "uint256",
					"name": "id",
					"type": "uint256"
				}
			],
			"name": "paused",
			"outputs": [
				{
					"internalType": "bool",
					"name": "",
					"type": "bool"
				}
			],
			"stateMutability": "view",
			"type": "function"
		},
		{
			"inputs": [],
			"name": "paused",
			"outputs": [
				{
					"internalType": "bool",
					"name": "",
					"type": "bool"
				}
			],
			"stateMutability": "view",
			"type": "function"
		},
		{
			"inputs": [
				{
					"internalType": "bytes32",
					"name": "role",
					"type": "bytes32"
				},
				{
					"internalType": "address",
					"name": "account",
					"type": "address"
				}
			],
			"name": "renounceRole",
			"outputs": [],
			"stateMutability": "nonpayable",
			"type": "function"
		},
		{
			"inputs": [
				{
					"internalType": "bytes32",
					"name": "role",
					"type": "bytes32"
				},
				{
					"internalType": "address",
					"name": "account",
					"type": "address"
				}
			],
			"name": "revokeRole",
			"outputs": [],
			"stateMutability": "nonpayable",
			"type": "function"
		},
		{
			"inputs": [
				{
					"internalType": "address",
					"name": "from",
					"type": "address"
				},
				{
					"internalType": "address",
					"name": "to",
					"type": "address"
				},
				{
					"internalType": "uint256[]",
					"name": "ids",
					"type": "uint256[]"
				},
				{
					"internalType": "uint256[]",
					"name": "amounts",
					"type": "uint256[]"
				},
				{
					"internalType": "bytes",
					"name": "data",
					"type": "bytes"
				}
			],
			"name": "safeBatchTransferFrom",
			"outputs": [],
			"stateMutability": "nonpayable",
			"type": "function"
		},
		{
			"inputs": [
				{
					"internalType": "address",
					"name": "from",
					"type": "address"
				},
				{
					"internalType": "address",
					"name": "to",
					"type": "address"
				},
				{
					"internalType": "uint256",
					"name": "id",
					"type": "uint256"
				},
				{
					"internalType": "uint256",
					"name": "amount",
					"type": "uint256"
				},
				{
					"internalType": "bytes",
					"name": "data",
					"type": "bytes"
				}
			],
			"name": "safeTransferFrom",
			"outputs": [],
			"stateMutability": "nonpayable",
			"type": "function"
		},
		{
			"inputs": [
				{
					"internalType": "address",
					"name": "operator",
					"type": "address"
				},
				{
					"internalType": "bool",
					"name": "approved",
					"type": "bool"
				}
			],
			"name": "setApprovalForAll",
			"outputs": [],
			"stateMutability": "nonpayable",
			"type": "function"
		},
		{
			"inputs": [
				{
					"internalType": "bytes4",
					"name": "interfaceId",
					"type": "bytes4"
				}
			],
			"name": "supportsInterface",
			"outputs": [
				{
					"internalType": "bool",
					"name": "",
					"type": "bool"
				}
			],
			"stateMutability": "view",
			"type": "function"
		},
		{
			"inputs": [],
			"name": "symbol",
			"outputs": [
				{
					"internalType": "string",
					"name": "",
					"type": "string"
				}
			],
			"stateMutability": "view",
			"type": "function"
		},
		{
			"inputs": [
				{
					"internalType": "uint256",
					"name": "id",
					"type": "uint256"
				}
			],
			"name": "totalSupply",
			"outputs": [
				{
					"internalType": "uint256",
					"name": "",
					"type": "uint256"
				}
			],
			"stateMutability": "view",
			"type": "function"
		},
		{
			"inputs": [],
			"name": "unpause",
			"outputs": [],
			"stateMutability": "nonpayable",
			"type": "function"
		},
		{
			"inputs": [
				{
					"internalType": "uint256",
					"name": "id",
					"type": "uint256"
				}
			],
			"name": "unpause",
			"outputs": [],
			"stateMutability": "nonpayable",
			"type": "function"
		},
		{
			"inputs": [
				{
					"internalType": "uint256",
					"name": "tokenId",
					"type": "uint256"
				}
			],
			"name": "uri",
			"outputs": [
				{
					"internalType": "string",
					"name": "",
					"type": "string"
				}
			],
			"stateMutability": "view",
			"type": "function"
		}
	]
}