{
	"KIP37/MinterRole.sol": {
		"MinterRole": {
			"abi": [
				{
					"inputs": [
						{
							"internalType": "address",
							"name": "owner",
							"type": "address"
						}
					],
					"stateMutability": "nonpayable",
					"type": "constructor"
				},
				{
					"anonymous": false,
					"inputs": [
						{
							"indexed": true,
							"internalType": "address",
							"name": "account",
							"type": "address"
						}
					],
					"name": "MinterAdded",
					"type": "event"
				},
				{
					"anonymous": false,
					"inputs": [
						{
							"indexed": true,
							"internalType": "address",
							"name": "account",
							"type": "address"
						}
					],
					"name": "MinterRemoved",
					"type": "event"
				},
				{
					"inputs": [
						{
							"internalType": "address",
							"name": "account",
							"type": "address"
						}
					],
					"name": "addMinter",
					"outputs": [],
					"stateMutability": "nonpayable",
					"type": "function"
				},
				{
					"inputs": [
						{
							"internalType": "address",
							"name": "account",
							"type": "address"
						}
					],
					"name": "isMinter",
					"outputs": [
						{
							"internalType": "bool",
							"name": "",
							"type": "bool"
						}
					],
					"stateMutability": "view",
					"type": "function"
				},
				{
					"inputs": [],
					"name": "renounceMinter",
					"outputs": [],
					"stateMutability": "nonpayable",
					"type": "function"
				}
			],
			"devdoc": {
				"kind": "dev",
				"methods": {},
				"version": 1
			},
			"evm": {
				"assembly": "    /* \"KIP37/MinterRole.sol\":93:1229  contract MinterRole {... */\n  mstore(0x40, 0x80)\n    /* \"KIP37/MinterRole.sol\":435:499  constructor (address owner) {... */\n  callvalue\n  dup1\n  iszero\n  tag_1\n  jumpi\n  0x00\n  dup1\n  revert\ntag_1:\n  pop\n  mload(0x40)\n  sub(codesize, bytecodeSize)\n  dup1\n  bytecodeSize\n  dup4\n  codecopy\n  dup2\n  add\n  0x40\n  dup2\n  swap1\n  mstore\n  tag_2\n  swap2\n  tag_3\n  jump\t// in\ntag_2:\n    /* \"KIP37/MinterRole.sol\":474:491  _addMinter(owner) */\n  tag_6\n    /* \"KIP37/MinterRole.sol\":485:490  owner */\n  dup2\n    /* \"KIP37/MinterRole.sol\":474:484  _addMinter */\n  tag_7\n    /* \"KIP37/MinterRole.sol\":474:491  _addMinter(owner) */\n  jump\t// in\ntag_6:\n    /* \"KIP37/MinterRole.sol\":435:499  constructor (address owner) {... */\n  pop\n    /* \"KIP37/MinterRole.sol\":93:1229  contract MinterRole {... */\n  jump(tag_22)\n    /* \"KIP37/MinterRole.sol\":962:1086  function _addMinter(address account) internal {... */\ntag_7:\n    /* \"KIP37/MinterRole.sol\":1019:1040  _minters.add(account) */\n  tag_10\n    /* \"KIP37/MinterRole.sol\":1019:1027  _minters */\n  0x00\n    /* \"KIP37/MinterRole.sol\":1032:1039  account */\n  dup3\n    /* \"KIP37/MinterRole.sol\":1019:1031  _minters.add */\n  tag_11\n    /* \"KIP37/MinterRole.sol\":1019:1040  _minters.add(account) */\n  jump\t// in\ntag_10:\n    /* \"KIP37/MinterRole.sol\":1058:1078  MinterAdded(account) */\n  mload(0x40)\n  sub(shl(0xa0, 0x01), 0x01)\n  dup3\n  and\n  swap1\n  0x6ae172837ea30b801fbfcdd4108aa1d5bf8ff775444fd70256b44e6bf3dfc3f6\n  swap1\n  0x00\n  swap1\n  log2\n    /* \"KIP37/MinterRole.sol\":962:1086  function _addMinter(address account) internal {... */\n  pop\n  jump\t// out\n    /* \"KIP37/Roles.sol\":160:340  function add(Role storage role, address account) internal {... */\ntag_11:\n    /* \"KIP37/Roles.sol\":238:256  has(role, account) */\n  tag_13\n    /* \"KIP37/Roles.sol\":242:246  role */\n  dup3\n    /* \"KIP37/Roles.sol\":248:255  account */\n  dup3\n    /* \"KIP37/Roles.sol\":238:241  has */\n  tag_14\n    /* \"KIP37/Roles.sol\":238:256  has(role, account) */\n  jump\t// in\ntag_13:\n    /* \"KIP37/Roles.sol\":237:256  !has(role, account) */\n  iszero\n    /* \"KIP37/Roles.sol\":229:292  require(!has(role, account), \"Roles: account already has role\") */\n  tag_15\n  jumpi\n  mload(0x40)\n  shl(0xe5, 0x461bcd)\n  dup2\n  mstore\n    /* \"#utility.yul\":511:513   */\n  0x20\n    /* \"KIP37/Roles.sol\":229:292  require(!has(role, account), \"Roles: account already has role\") */\n  0x04\n  dup3\n  add\n    /* \"#utility.yul\":493:514   */\n  mstore\n    /* \"#utility.yul\":550:552   */\n  0x1f\n    /* \"#utility.yul\":530:548   */\n  0x24\n  dup3\n  add\n    /* \"#utility.yul\":523:553   */\n  mstore\n    /* \"#utility.yul\":589:622   */\n  0x526f6c65733a206163636f756e7420616c72656164792068617320726f6c6500\n    /* \"#utility.yul\":569:587   */\n  0x44\n  dup3\n  add\n    /* \"#utility.yul\":562:623   */\n  mstore\n    /* \"#utility.yul\":640:658   */\n  0x64\n  add\n    /* \"KIP37/Roles.sol\":229:292  require(!has(role, account), \"Roles: account already has role\") */\ntag_16:\n  mload(0x40)\n  dup1\n  swap2\n  sub\n  swap1\n  revert\ntag_15:\n  sub(shl(0xa0, 0x01), 0x01)\n    /* \"KIP37/Roles.sol\":305:325  role.bearer[account] */\n  and\n    /* \"KIP37/Roles.sol\":305:316  role.bearer */\n  0x00\n    /* \"KIP37/Roles.sol\":305:325  role.bearer[account] */\n  swap1\n  dup2\n  mstore\n  0x20\n  swap2\n  swap1\n  swap2\n  mstore\n  0x40\n  swap1\n  keccak256\n    /* \"KIP37/Roles.sol\":305:332  role.bearer[account] = true */\n  dup1\n  sload\n  not(0xff)\n  and\n    /* \"KIP37/Roles.sol\":328:332  true */\n  0x01\n    /* \"KIP37/Roles.sol\":305:332  role.bearer[account] = true */\n  or\n  swap1\n  sstore\n    /* \"KIP37/Roles.sol\":160:340  function add(Role storage role, address account) internal {... */\n  jump\t// out\n    /* \"KIP37/Roles.sol\":541:746  function has(Role storage role, address account) internal view returns (bool) {... */\ntag_14:\n    /* \"KIP37/Roles.sol\":613:617  bool */\n  0x00\n  sub(shl(0xa0, 0x01), 0x01)\n    /* \"KIP37/Roles.sol\":638:659  account != address(0) */\n  dup3\n  and\n    /* \"KIP37/Roles.sol\":630:698  require(account != address(0), \"Roles: account is the zero address\") */\n  tag_19\n  jumpi\n  mload(0x40)\n  shl(0xe5, 0x461bcd)\n  dup2\n  mstore\n    /* \"#utility.yul\":871:873   */\n  0x20\n    /* \"KIP37/Roles.sol\":630:698  require(account != address(0), \"Roles: account is the zero address\") */\n  0x04\n  dup3\n  add\n    /* \"#utility.yul\":853:874   */\n  mstore\n    /* \"#utility.yul\":910:912   */\n  0x22\n    /* \"#utility.yul\":890:908   */\n  0x24\n  dup3\n  add\n    /* \"#utility.yul\":883:913   */\n  mstore\n    /* \"#utility.yul\":949:983   */\n  0x526f6c65733a206163636f756e7420697320746865207a65726f206164647265\n    /* \"#utility.yul\":929:947   */\n  0x44\n  dup3\n  add\n    /* \"#utility.yul\":922:984   */\n  mstore\n  shl(0xf0, 0x7373)\n    /* \"#utility.yul\":1000:1018   */\n  0x64\n  dup3\n  add\n    /* \"#utility.yul\":993:1025   */\n  mstore\n    /* \"#utility.yul\":1042:1061   */\n  0x84\n  add\n    /* \"KIP37/Roles.sol\":630:698  require(account != address(0), \"Roles: account is the zero address\") */\n  tag_16\n    /* \"#utility.yul\":669:1067   */\n  jump\n    /* \"KIP37/Roles.sol\":630:698  require(account != address(0), \"Roles: account is the zero address\") */\ntag_19:\n  pop\n  sub(shl(0xa0, 0x01), 0x01)\n    /* \"KIP37/Roles.sol\":718:738  role.bearer[account] */\n  and\n    /* \"KIP37/Roles.sol\":718:729  role.bearer */\n  0x00\n    /* \"KIP37/Roles.sol\":718:738  role.bearer[account] */\n  swap1\n  dup2\n  mstore\n  0x20\n  swap2\n  swap1\n  swap2\n  mstore\n  0x40\n  swap1\n  keccak256\n  sload\n  0xff\n  and\n  swap1\n    /* \"KIP37/Roles.sol\":541:746  function has(Role storage role, address account) internal view returns (bool) {... */\n  jump\t// out\n    /* \"#utility.yul\":14:304   */\ntag_3:\n    /* \"#utility.yul\":84:90   */\n  0x00\n    /* \"#utility.yul\":137:139   */\n  0x20\n    /* \"#utility.yul\":125:134   */\n  dup3\n    /* \"#utility.yul\":116:123   */\n  dup5\n    /* \"#utility.yul\":112:135   */\n  sub\n    /* \"#utility.yul\":108:140   */\n  slt\n    /* \"#utility.yul\":105:157   */\n  iszero\n  tag_24\n  jumpi\n    /* \"#utility.yul\":153:154   */\n  0x00\n    /* \"#utility.yul\":150:151   */\n  dup1\n    /* \"#utility.yul\":143:155   */\n  revert\n    /* \"#utility.yul\":105:157   */\ntag_24:\n    /* \"#utility.yul\":179:195   */\n  dup2\n  mload\n  sub(shl(0xa0, 0x01), 0x01)\n    /* \"#utility.yul\":224:255   */\n  dup2\n  and\n    /* \"#utility.yul\":214:256   */\n  dup2\n  eq\n    /* \"#utility.yul\":204:274   */\n  tag_25\n  jumpi\n    /* \"#utility.yul\":270:271   */\n  0x00\n    /* \"#utility.yul\":267:268   */\n  dup1\n    /* \"#utility.yul\":260:272   */\n  revert\n    /* \"#utility.yul\":204:274   */\ntag_25:\n    /* \"#utility.yul\":293:298   */\n  swap4\n    /* \"#utility.yul\":14:304   */\n  swap3\n  pop\n  pop\n  pop\n  jump\t// out\n    /* \"#utility.yul\":669:1067   */\ntag_22:\n    /* \"KIP37/MinterRole.sol\":93:1229  contract MinterRole {... */\n  dataSize(sub_0)\n  dup1\n  dataOffset(sub_0)\n  0x00\n  codecopy\n  0x00\n  return\nstop\n\nsub_0: assembly {\n        /* \"KIP37/MinterRole.sol\":93:1229  contract MinterRole {... */\n      mstore(0x40, 0x80)\n      callvalue\n      dup1\n      iszero\n      tag_1\n      jumpi\n      0x00\n      dup1\n      revert\n    tag_1:\n      pop\n      jumpi(tag_2, lt(calldatasize, 0x04))\n      shr(0xe0, calldataload(0x00))\n      dup1\n      0x983b2d56\n      eq\n      tag_3\n      jumpi\n      dup1\n      0x98650275\n      eq\n      tag_4\n      jumpi\n      dup1\n      0xaa271e1a\n      eq\n      tag_5\n      jumpi\n    tag_2:\n      0x00\n      dup1\n      revert\n        /* \"KIP37/MinterRole.sol\":621:713  function addMinter(address account) public onlyMinter {... */\n    tag_3:\n      tag_6\n      tag_7\n      calldatasize\n      0x04\n      tag_8\n      jump\t// in\n    tag_7:\n      tag_9\n      jump\t// in\n    tag_6:\n      stop\n        /* \"KIP37/MinterRole.sol\":721:798  function renounceMinter() public {... */\n    tag_4:\n      tag_6\n      tag_11\n      jump\t// in\n        /* \"KIP37/MinterRole.sol\":507:613  function isMinter(address account) public view returns (bool) {... */\n    tag_5:\n      tag_12\n      tag_13\n      calldatasize\n      0x04\n      tag_8\n      jump\t// in\n    tag_13:\n      tag_14\n      jump\t// in\n    tag_12:\n      mload(0x40)\n        /* \"#utility.yul\":470:484   */\n      swap1\n      iszero\n        /* \"#utility.yul\":463:485   */\n      iszero\n        /* \"#utility.yul\":445:486   */\n      dup2\n      mstore\n        /* \"#utility.yul\":433:435   */\n      0x20\n        /* \"#utility.yul\":418:436   */\n      add\n        /* \"KIP37/MinterRole.sol\":507:613  function isMinter(address account) public view returns (bool) {... */\n      mload(0x40)\n      dup1\n      swap2\n      sub\n      swap1\n      return\n        /* \"KIP37/MinterRole.sol\":621:713  function addMinter(address account) public onlyMinter {... */\n    tag_9:\n        /* \"KIP37/MinterRole.sol\":334:354  isMinter(msg.sender) */\n      tag_18\n        /* \"KIP37/MinterRole.sol\":343:353  msg.sender */\n      caller\n        /* \"KIP37/MinterRole.sol\":334:342  isMinter */\n      tag_14\n        /* \"KIP37/MinterRole.sol\":334:354  isMinter(msg.sender) */\n      jump\t// in\n    tag_18:\n        /* \"KIP37/MinterRole.sol\":326:407  require(isMinter(msg.sender), \"MinterRole: caller does not have the Minter role\") */\n      tag_19\n      jumpi\n      mload(0x40)\n      shl(0xe5, 0x461bcd)\n      dup2\n      mstore\n        /* \"#utility.yul\":699:701   */\n      0x20\n        /* \"KIP37/MinterRole.sol\":326:407  require(isMinter(msg.sender), \"MinterRole: caller does not have the Minter role\") */\n      0x04\n      dup3\n      add\n        /* \"#utility.yul\":681:702   */\n      mstore\n        /* \"#utility.yul\":738:740   */\n      0x30\n        /* \"#utility.yul\":718:736   */\n      0x24\n      dup3\n      add\n        /* \"#utility.yul\":711:741   */\n      mstore\n        /* \"#utility.yul\":777:811   */\n      0x4d696e746572526f6c653a2063616c6c657220646f6573206e6f742068617665\n        /* \"#utility.yul\":757:775   */\n      0x44\n      dup3\n      add\n        /* \"#utility.yul\":750:812   */\n      mstore\n      shl(0x80, 0x20746865204d696e74657220726f6c65)\n        /* \"#utility.yul\":828:846   */\n      0x64\n      dup3\n      add\n        /* \"#utility.yul\":821:867   */\n      mstore\n        /* \"#utility.yul\":884:903   */\n      0x84\n      add\n        /* \"KIP37/MinterRole.sol\":326:407  require(isMinter(msg.sender), \"MinterRole: caller does not have the Minter role\") */\n    tag_20:\n      mload(0x40)\n      dup1\n      swap2\n      sub\n      swap1\n      revert\n    tag_19:\n        /* \"KIP37/MinterRole.sol\":686:705  _addMinter(account) */\n      tag_23\n        /* \"KIP37/MinterRole.sol\":697:704  account */\n      dup2\n        /* \"KIP37/MinterRole.sol\":686:696  _addMinter */\n      tag_24\n        /* \"KIP37/MinterRole.sol\":686:705  _addMinter(account) */\n      jump\t// in\n    tag_23:\n        /* \"KIP37/MinterRole.sol\":621:713  function addMinter(address account) public onlyMinter {... */\n      pop\n      jump\t// out\n        /* \"KIP37/MinterRole.sol\":721:798  function renounceMinter() public {... */\n    tag_11:\n        /* \"KIP37/MinterRole.sol\":765:790  _removeMinter(msg.sender) */\n      tag_26\n        /* \"KIP37/MinterRole.sol\":779:789  msg.sender */\n      caller\n        /* \"KIP37/MinterRole.sol\":765:778  _removeMinter */\n      tag_27\n        /* \"KIP37/MinterRole.sol\":765:790  _removeMinter(msg.sender) */\n      jump\t// in\n    tag_26:\n        /* \"KIP37/MinterRole.sol\":721:798  function renounceMinter() public {... */\n      jump\t// out\n        /* \"KIP37/MinterRole.sol\":507:613  function isMinter(address account) public view returns (bool) {... */\n    tag_14:\n        /* \"KIP37/MinterRole.sol\":563:567  bool */\n      0x00\n        /* \"KIP37/MinterRole.sol\":587:605  _isMinter(account) */\n      tag_29\n        /* \"KIP37/MinterRole.sol\":597:604  account */\n      dup3\n        /* \"KIP37/MinterRole.sol\":587:596  _isMinter */\n      tag_30\n        /* \"KIP37/MinterRole.sol\":587:605  _isMinter(account) */\n      jump\t// in\n    tag_29:\n        /* \"KIP37/MinterRole.sol\":580:605  return _isMinter(account) */\n      swap3\n        /* \"KIP37/MinterRole.sol\":507:613  function isMinter(address account) public view returns (bool) {... */\n      swap2\n      pop\n      pop\n      jump\t// out\n        /* \"KIP37/MinterRole.sol\":962:1086  function _addMinter(address account) internal {... */\n    tag_24:\n        /* \"KIP37/MinterRole.sol\":1019:1040  _minters.add(account) */\n      tag_32\n        /* \"KIP37/MinterRole.sol\":1019:1027  _minters */\n      0x00\n        /* \"KIP37/MinterRole.sol\":1032:1039  account */\n      dup3\n        /* \"KIP37/MinterRole.sol\":1019:1031  _minters.add */\n      tag_33\n        /* \"KIP37/MinterRole.sol\":1019:1040  _minters.add(account) */\n      jump\t// in\n    tag_32:\n        /* \"KIP37/MinterRole.sol\":1058:1078  MinterAdded(account) */\n      mload(0x40)\n      sub(shl(0xa0, 0x01), 0x01)\n      dup3\n      and\n      swap1\n      0x6ae172837ea30b801fbfcdd4108aa1d5bf8ff775444fd70256b44e6bf3dfc3f6\n      swap1\n      0x00\n      swap1\n      log2\n        /* \"KIP37/MinterRole.sol\":962:1086  function _addMinter(address account) internal {... */\n      pop\n      jump\t// out\n        /* \"KIP37/MinterRole.sol\":1094:1226  function _removeMinter(address account) internal {... */\n    tag_27:\n        /* \"KIP37/MinterRole.sol\":1154:1178  _minters.remove(account) */\n      tag_35\n        /* \"KIP37/MinterRole.sol\":1154:1162  _minters */\n      0x00\n        /* \"KIP37/MinterRole.sol\":1170:1177  account */\n      dup3\n        /* \"KIP37/MinterRole.sol\":1154:1169  _minters.remove */\n      tag_36\n        /* \"KIP37/MinterRole.sol\":1154:1178  _minters.remove(account) */\n      jump\t// in\n    tag_35:\n        /* \"KIP37/MinterRole.sol\":1196:1218  MinterRemoved(account) */\n      mload(0x40)\n      sub(shl(0xa0, 0x01), 0x01)\n      dup3\n      and\n      swap1\n      0xe94479a9f7e1952cc78f2d6baab678adc1b772d936c6583def489e524cb66692\n      swap1\n      0x00\n      swap1\n      log2\n        /* \"KIP37/MinterRole.sol\":1094:1226  function _removeMinter(address account) internal {... */\n      pop\n      jump\t// out\n        /* \"KIP37/MinterRole.sol\":842:954  function _isMinter(address account) internal view returns (bool) {... */\n    tag_30:\n        /* \"KIP37/MinterRole.sol\":901:905  bool */\n      0x00\n        /* \"KIP37/MinterRole.sol\":925:946  _minters.has(account) */\n      tag_29\n        /* \"KIP37/MinterRole.sol\":901:905  bool */\n      dup2\n        /* \"KIP37/MinterRole.sol\":938:945  account */\n      dup4\n        /* \"KIP37/MinterRole.sol\":925:937  _minters.has */\n      tag_39\n        /* \"KIP37/MinterRole.sol\":925:946  _minters.has(account) */\n      jump\t// in\n        /* \"KIP37/Roles.sol\":160:340  function add(Role storage role, address account) internal {... */\n    tag_33:\n        /* \"KIP37/Roles.sol\":238:256  has(role, account) */\n      tag_41\n        /* \"KIP37/Roles.sol\":242:246  role */\n      dup3\n        /* \"KIP37/Roles.sol\":248:255  account */\n      dup3\n        /* \"KIP37/Roles.sol\":238:241  has */\n      tag_39\n        /* \"KIP37/Roles.sol\":238:256  has(role, account) */\n      jump\t// in\n    tag_41:\n        /* \"KIP37/Roles.sol\":237:256  !has(role, account) */\n      iszero\n        /* \"KIP37/Roles.sol\":229:292  require(!has(role, account), \"Roles: account already has role\") */\n      tag_42\n      jumpi\n      mload(0x40)\n      shl(0xe5, 0x461bcd)\n      dup2\n      mstore\n        /* \"#utility.yul\":1116:1118   */\n      0x20\n        /* \"KIP37/Roles.sol\":229:292  require(!has(role, account), \"Roles: account already has role\") */\n      0x04\n      dup3\n      add\n        /* \"#utility.yul\":1098:1119   */\n      mstore\n        /* \"#utility.yul\":1155:1157   */\n      0x1f\n        /* \"#utility.yul\":1135:1153   */\n      0x24\n      dup3\n      add\n        /* \"#utility.yul\":1128:1158   */\n      mstore\n        /* \"#utility.yul\":1194:1227   */\n      0x526f6c65733a206163636f756e7420616c72656164792068617320726f6c6500\n        /* \"#utility.yul\":1174:1192   */\n      0x44\n      dup3\n      add\n        /* \"#utility.yul\":1167:1228   */\n      mstore\n        /* \"#utility.yul\":1245:1263   */\n      0x64\n      add\n        /* \"KIP37/Roles.sol\":229:292  require(!has(role, account), \"Roles: account already has role\") */\n      tag_20\n        /* \"#utility.yul\":914:1269   */\n      jump\n        /* \"KIP37/Roles.sol\":229:292  require(!has(role, account), \"Roles: account already has role\") */\n    tag_42:\n      sub(shl(0xa0, 0x01), 0x01)\n        /* \"KIP37/Roles.sol\":305:325  role.bearer[account] */\n      and\n        /* \"KIP37/Roles.sol\":305:316  role.bearer */\n      0x00\n        /* \"KIP37/Roles.sol\":305:325  role.bearer[account] */\n      swap1\n      dup2\n      mstore\n      0x20\n      swap2\n      swap1\n      swap2\n      mstore\n      0x40\n      swap1\n      keccak256\n        /* \"KIP37/Roles.sol\":305:332  role.bearer[account] = true */\n      dup1\n      sload\n      not(0xff)\n      and\n        /* \"KIP37/Roles.sol\":328:332  true */\n      0x01\n        /* \"KIP37/Roles.sol\":305:332  role.bearer[account] = true */\n      or\n      swap1\n      sstore\n        /* \"KIP37/Roles.sol\":160:340  function add(Role storage role, address account) internal {... */\n      jump\t// out\n        /* \"KIP37/Roles.sol\":348:533  function remove(Role storage role, address account) internal {... */\n    tag_36:\n        /* \"KIP37/Roles.sol\":428:446  has(role, account) */\n      tag_46\n        /* \"KIP37/Roles.sol\":432:436  role */\n      dup3\n        /* \"KIP37/Roles.sol\":438:445  account */\n      dup3\n        /* \"KIP37/Roles.sol\":428:431  has */\n      tag_39\n        /* \"KIP37/Roles.sol\":428:446  has(role, account) */\n      jump\t// in\n    tag_46:\n        /* \"KIP37/Roles.sol\":420:484  require(has(role, account), \"Roles: account does not have role\") */\n      tag_47\n      jumpi\n      mload(0x40)\n      shl(0xe5, 0x461bcd)\n      dup2\n      mstore\n        /* \"#utility.yul\":1476:1478   */\n      0x20\n        /* \"KIP37/Roles.sol\":420:484  require(has(role, account), \"Roles: account does not have role\") */\n      0x04\n      dup3\n      add\n        /* \"#utility.yul\":1458:1479   */\n      mstore\n        /* \"#utility.yul\":1515:1517   */\n      0x21\n        /* \"#utility.yul\":1495:1513   */\n      0x24\n      dup3\n      add\n        /* \"#utility.yul\":1488:1518   */\n      mstore\n        /* \"#utility.yul\":1554:1588   */\n      0x526f6c65733a206163636f756e7420646f6573206e6f74206861766520726f6c\n        /* \"#utility.yul\":1534:1552   */\n      0x44\n      dup3\n      add\n        /* \"#utility.yul\":1527:1589   */\n      mstore\n      shl(0xf8, 0x65)\n        /* \"#utility.yul\":1605:1623   */\n      0x64\n      dup3\n      add\n        /* \"#utility.yul\":1598:1629   */\n      mstore\n        /* \"#utility.yul\":1646:1665   */\n      0x84\n      add\n        /* \"KIP37/Roles.sol\":420:484  require(has(role, account), \"Roles: account does not have role\") */\n      tag_20\n        /* \"#utility.yul\":1274:1671   */\n      jump\n        /* \"KIP37/Roles.sol\":420:484  require(has(role, account), \"Roles: account does not have role\") */\n    tag_47:\n      sub(shl(0xa0, 0x01), 0x01)\n        /* \"KIP37/Roles.sol\":497:517  role.bearer[account] */\n      and\n        /* \"KIP37/Roles.sol\":520:525  false */\n      0x00\n        /* \"KIP37/Roles.sol\":497:517  role.bearer[account] */\n      swap1\n      dup2\n      mstore\n      0x20\n      swap2\n      swap1\n      swap2\n      mstore\n      0x40\n      swap1\n      keccak256\n        /* \"KIP37/Roles.sol\":497:525  role.bearer[account] = false */\n      dup1\n      sload\n      not(0xff)\n      and\n      swap1\n      sstore\n        /* \"KIP37/Roles.sol\":348:533  function remove(Role storage role, address account) internal {... */\n      jump\t// out\n        /* \"KIP37/Roles.sol\":541:746  function has(Role storage role, address account) internal view returns (bool) {... */\n    tag_39:\n        /* \"KIP37/Roles.sol\":613:617  bool */\n      0x00\n      sub(shl(0xa0, 0x01), 0x01)\n        /* \"KIP37/Roles.sol\":638:659  account != address(0) */\n      dup3\n      and\n        /* \"KIP37/Roles.sol\":630:698  require(account != address(0), \"Roles: account is the zero address\") */\n      tag_51\n      jumpi\n      mload(0x40)\n      shl(0xe5, 0x461bcd)\n      dup2\n      mstore\n        /* \"#utility.yul\":1878:1880   */\n      0x20\n        /* \"KIP37/Roles.sol\":630:698  require(account != address(0), \"Roles: account is the zero address\") */\n      0x04\n      dup3\n      add\n        /* \"#utility.yul\":1860:1881   */\n      mstore\n        /* \"#utility.yul\":1917:1919   */\n      0x22\n        /* \"#utility.yul\":1897:1915   */\n      0x24\n      dup3\n      add\n        /* \"#utility.yul\":1890:1920   */\n      mstore\n        /* \"#utility.yul\":1956:1990   */\n      0x526f6c65733a206163636f756e7420697320746865207a65726f206164647265\n        /* \"#utility.yul\":1936:1954   */\n      0x44\n      dup3\n      add\n        /* \"#utility.yul\":1929:1991   */\n      mstore\n      shl(0xf0, 0x7373)\n        /* \"#utility.yul\":2007:2025   */\n      0x64\n      dup3\n      add\n        /* \"#utility.yul\":2000:2032   */\n      mstore\n        /* \"#utility.yul\":2049:2068   */\n      0x84\n      add\n        /* \"KIP37/Roles.sol\":630:698  require(account != address(0), \"Roles: account is the zero address\") */\n      tag_20\n        /* \"#utility.yul\":1676:2074   */\n      jump\n        /* \"KIP37/Roles.sol\":630:698  require(account != address(0), \"Roles: account is the zero address\") */\n    tag_51:\n      pop\n      sub(shl(0xa0, 0x01), 0x01)\n        /* \"KIP37/Roles.sol\":718:738  role.bearer[account] */\n      and\n        /* \"KIP37/Roles.sol\":718:729  role.bearer */\n      0x00\n        /* \"KIP37/Roles.sol\":718:738  role.bearer[account] */\n      swap1\n      dup2\n      mstore\n      0x20\n      swap2\n      swap1\n      swap2\n      mstore\n      0x40\n      swap1\n      keccak256\n      sload\n      0xff\n      and\n      swap1\n        /* \"KIP37/Roles.sol\":541:746  function has(Role storage role, address account) internal view returns (bool) {... */\n      jump\t// out\n        /* \"#utility.yul\":14:300   */\n    tag_8:\n        /* \"#utility.yul\":73:79   */\n      0x00\n        /* \"#utility.yul\":126:128   */\n      0x20\n        /* \"#utility.yul\":114:123   */\n      dup3\n        /* \"#utility.yul\":105:112   */\n      dup5\n        /* \"#utility.yul\":101:124   */\n      sub\n        /* \"#utility.yul\":97:129   */\n      slt\n        /* \"#utility.yul\":94:146   */\n      iszero\n      tag_56\n      jumpi\n        /* \"#utility.yul\":142:143   */\n      0x00\n        /* \"#utility.yul\":139:140   */\n      dup1\n        /* \"#utility.yul\":132:144   */\n      revert\n        /* \"#utility.yul\":94:146   */\n    tag_56:\n        /* \"#utility.yul\":168:191   */\n      dup2\n      calldataload\n      sub(shl(0xa0, 0x01), 0x01)\n        /* \"#utility.yul\":220:251   */\n      dup2\n      and\n        /* \"#utility.yul\":210:252   */\n      dup2\n      eq\n        /* \"#utility.yul\":200:270   */\n      tag_57\n      jumpi\n        /* \"#utility.yul\":266:267   */\n      0x00\n        /* \"#utility.yul\":263:264   */\n      dup1\n        /* \"#utility.yul\":256:268   */\n      revert\n        /* \"#utility.yul\":200:270   */\n    tag_57:\n        /* \"#utility.yul\":289:294   */\n      swap4\n        /* \"#utility.yul\":14:300   */\n      swap3\n      pop\n      pop\n      pop\n      jump\t// out\n\n    auxdata: 0xa264697066735822122079ab41c395f1b5a19586bd4a05f6af4421a238d600ffe1b411f853ad638e1b7164736f6c63430008130033\n}\n",
				"bytecode": {
					"linkReferences": {},
					"object": "608060405234801561001057600080fd5b5060405161055f38038061055f83398101604081905261002f91610184565b6100388161003e565b506101b4565b610049600082610080565b6040516001600160a01b038216907f6ae172837ea30b801fbfcdd4108aa1d5bf8ff775444fd70256b44e6bf3dfc3f690600090a250565b61008a8282610101565b156100dc5760405162461bcd60e51b815260206004820152601f60248201527f526f6c65733a206163636f756e7420616c72656164792068617320726f6c650060448201526064015b60405180910390fd5b6001600160a01b0316600090815260209190915260409020805460ff19166001179055565b60006001600160a01b0382166101645760405162461bcd60e51b815260206004820152602260248201527f526f6c65733a206163636f756e7420697320746865207a65726f206164647265604482015261737360f01b60648201526084016100d3565b506001600160a01b03166000908152602091909152604090205460ff1690565b60006020828403121561019657600080fd5b81516001600160a01b03811681146101ad57600080fd5b9392505050565b61039c806101c36000396000f3fe608060405234801561001057600080fd5b50600436106100415760003560e01c8063983b2d5614610046578063986502751461005b578063aa271e1a14610063575b600080fd5b610059610054366004610336565b61008a565b005b610059610109565b610076610071366004610336565b610114565b604051901515815260200160405180910390f35b61009333610114565b6100fd5760405162461bcd60e51b815260206004820152603060248201527f4d696e746572526f6c653a2063616c6c657220646f6573206e6f74206861766560448201526f20746865204d696e74657220726f6c6560801b60648201526084015b60405180910390fd5b61010681610125565b50565b61011233610167565b565b600061011f826101a9565b92915050565b6101306000826101b5565b6040516001600160a01b038216907f6ae172837ea30b801fbfcdd4108aa1d5bf8ff775444fd70256b44e6bf3dfc3f690600090a250565b610172600082610231565b6040516001600160a01b038216907fe94479a9f7e1952cc78f2d6baab678adc1b772d936c6583def489e524cb6669290600090a250565b600061011f81836102b3565b6101bf82826102b3565b1561020c5760405162461bcd60e51b815260206004820152601f60248201527f526f6c65733a206163636f756e7420616c72656164792068617320726f6c650060448201526064016100f4565b6001600160a01b0316600090815260209190915260409020805460ff19166001179055565b61023b82826102b3565b6102915760405162461bcd60e51b815260206004820152602160248201527f526f6c65733a206163636f756e7420646f6573206e6f74206861766520726f6c6044820152606560f81b60648201526084016100f4565b6001600160a01b0316600090815260209190915260409020805460ff19169055565b60006001600160a01b0382166103165760405162461bcd60e51b815260206004820152602260248201527f526f6c65733a206163636f756e7420697320746865207a65726f206164647265604482015261737360f01b60648201526084016100f4565b506001600160a01b03166000908152602091909152604090205460ff1690565b60006020828403121561034857600080fd5b81356001600160a01b038116811461035f57600080fd5b939250505056fea264697066735822122079ab41c395f1b5a19586bd4a05f6af4421a238d600ffe1b411f853ad638e1b7164736f6c63430008130033",
					"opcodes": "PUSH1 0x80 PUSH1 0x40 MSTORE CALLVALUE DUP1 ISZERO PUSH2 0x10 JUMPI PUSH1 0x0 DUP1 REVERT JUMPDEST POP PUSH1 0x40 MLOAD PUSH2 0x55F CODESIZE SUB DUP1 PUSH2 0x55F DUP4 CODECOPY DUP2 ADD PUSH1 0x40 DUP2 SWAP1 MSTORE PUSH2 0x2F SWAP2 PUSH2 0x184 JUMP JUMPDEST PUSH2 0x38 DUP2 PUSH2 0x3E JUMP JUMPDEST POP PUSH2 0x1B4 JUMP JUMPDEST PUSH2 0x49 PUSH1 0x0 DUP3 PUSH2 0x80 JUMP JUMPDEST PUSH1 0x40 MLOAD PUSH1 0x1 PUSH1 0x1 PUSH1 0xA0 SHL SUB DUP3 AND SWAP1 PUSH32 0x6AE172837EA30B801FBFCDD4108AA1D5BF8FF775444FD70256B44E6BF3DFC3F6 SWAP1 PUSH1 0x0 SWAP1 LOG2 POP JUMP JUMPDEST PUSH2 0x8A DUP3 DUP3 PUSH2 0x101 JUMP JUMPDEST ISZERO PUSH2 0xDC JUMPI PUSH1 0x40 MLOAD PUSH3 0x461BCD PUSH1 0xE5 SHL DUP2 MSTORE PUSH1 0x20 PUSH1 0x4 DUP3 ADD MSTORE PUSH1 0x1F PUSH1 0x24 DUP3 ADD MSTORE PUSH32 0x526F6C65733A206163636F756E7420616C72656164792068617320726F6C6500 PUSH1 0x44 DUP3 ADD MSTORE PUSH1 0x64 ADD JUMPDEST PUSH1 0x40 MLOAD DUP1 SWAP2 SUB SWAP1 REVERT JUMPDEST PUSH1 0x1 PUSH1 0x1 PUSH1 0xA0 SHL SUB AND PUSH1 0x0 SWAP1 DUP2 MSTORE PUSH1 0x20 SWAP2 SWAP1 SWAP2 MSTORE PUSH1 0x40 SWAP1 KECCAK256 DUP1 SLOAD PUSH1 0xFF NOT AND PUSH1 0x1 OR SWAP1 SSTORE JUMP JUMPDEST PUSH1 0x0 PUSH1 0x1 PUSH1 0x1 PUSH1 0xA0 SHL SUB DUP3 AND PUSH2 0x164 JUMPI PUSH1 0x40 MLOAD PUSH3 0x461BCD PUSH1 0xE5 SHL DUP2 MSTORE PUSH1 0x20 PUSH1 0x4 DUP3 ADD MSTORE PUSH1 0x22 PUSH1 0x24 DUP3 ADD MSTORE PUSH32 0x526F6C65733A206163636F756E7420697320746865207A65726F206164647265 PUSH1 0x44 DUP3 ADD MSTORE PUSH2 0x7373 PUSH1 0xF0 SHL PUSH1 0x64 DUP3 ADD MSTORE PUSH1 0x84 ADD PUSH2 0xD3 JUMP JUMPDEST POP PUSH1 0x1 PUSH1 0x1 PUSH1 0xA0 SHL SUB AND PUSH1 0x0 SWAP1 DUP2 MSTORE PUSH1 0x20 SWAP2 SWAP1 SWAP2 MSTORE PUSH1 0x40 SWAP1 KECCAK256 SLOAD PUSH1 0xFF AND SWAP1 JUMP JUMPDEST PUSH1 0x0 PUSH1 0x20 DUP3 DUP5 SUB SLT ISZERO PUSH2 0x196 JUMPI PUSH1 0x0 DUP1 REVERT JUMPDEST DUP2 MLOAD PUSH1 0x1 PUSH1 0x1 PUSH1 0xA0 SHL SUB DUP2 AND DUP2 EQ PUSH2 0x1AD JUMPI PUSH1 0x0 DUP1 REVERT JUMPDEST SWAP4 SWAP3 POP POP POP JUMP JUMPDEST PUSH2 0x39C DUP1 PUSH2 0x1C3 PUSH1 0x0 CODECOPY PUSH1 0x0 RETURN INVALID PUSH1 0x80 PUSH1 0x40 MSTORE CALLVALUE DUP1 ISZERO PUSH2 0x10 JUMPI PUSH1 0x0 DUP1 REVERT JUMPDEST POP PUSH1 0x4 CALLDATASIZE LT PUSH2 0x41 JUMPI PUSH1 0x0 CALLDATALOAD PUSH1 0xE0 SHR DUP1 PUSH4 0x983B2D56 EQ PUSH2 0x46 JUMPI DUP1 PUSH4 0x98650275 EQ PUSH2 0x5B JUMPI DUP1 PUSH4 0xAA271E1A EQ PUSH2 0x63 JUMPI JUMPDEST PUSH1 0x0 DUP1 REVERT JUMPDEST PUSH2 0x59 PUSH2 0x54 CALLDATASIZE PUSH1 0x4 PUSH2 0x336 JUMP JUMPDEST PUSH2 0x8A JUMP JUMPDEST STOP JUMPDEST PUSH2 0x59 PUSH2 0x109 JUMP JUMPDEST PUSH2 0x76 PUSH2 0x71 CALLDATASIZE PUSH1 0x4 PUSH2 0x336 JUMP JUMPDEST PUSH2 0x114 JUMP JUMPDEST PUSH1 0x40 MLOAD SWAP1 ISZERO ISZERO DUP2 MSTORE PUSH1 0x20 ADD PUSH1 0x40 MLOAD DUP1 SWAP2 SUB SWAP1 RETURN JUMPDEST PUSH2 0x93 CALLER PUSH2 0x114 JUMP JUMPDEST PUSH2 0xFD JUMPI PUSH1 0x40 MLOAD PUSH3 0x461BCD PUSH1 0xE5 SHL DUP2 MSTORE PUSH1 0x20 PUSH1 0x4 DUP3 ADD MSTORE PUSH1 0x30 PUSH1 0x24 DUP3 ADD MSTORE PUSH32 0x4D696E746572526F6C653A2063616C6C657220646F6573206E6F742068617665 PUSH1 0x44 DUP3 ADD MSTORE PUSH16 0x20746865204D696E74657220726F6C65 PUSH1 0x80 SHL PUSH1 0x64 DUP3 ADD MSTORE PUSH1 0x84 ADD JUMPDEST PUSH1 0x40 MLOAD DUP1 SWAP2 SUB SWAP1 REVERT JUMPDEST PUSH2 0x106 DUP2 PUSH2 0x125 JUMP JUMPDEST POP JUMP JUMPDEST PUSH2 0x112 CALLER PUSH2 0x167 JUMP JUMPDEST JUMP JUMPDEST PUSH1 0x0 PUSH2 0x11F DUP3 PUSH2 0x1A9 JUMP JUMPDEST SWAP3 SWAP2 POP POP JUMP JUMPDEST PUSH2 0x130 PUSH1 0x0 DUP3 PUSH2 0x1B5 JUMP JUMPDEST PUSH1 0x40 MLOAD PUSH1 0x1 PUSH1 0x1 PUSH1 0xA0 SHL SUB DUP3 AND SWAP1 PUSH32 0x6AE172837EA30B801FBFCDD4108AA1D5BF8FF775444FD70256B44E6BF3DFC3F6 SWAP1 PUSH1 0x0 SWAP1 LOG2 POP JUMP JUMPDEST PUSH2 0x172 PUSH1 0x0 DUP3 PUSH2 0x231 JUMP JUMPDEST PUSH1 0x40 MLOAD PUSH1 0x1 PUSH1 0x1 PUSH1 0xA0 SHL SUB DUP3 AND SWAP1 PUSH32 0xE94479A9F7E1952CC78F2D6BAAB678ADC1B772D936C6583DEF489E524CB66692 SWAP1 PUSH1 0x0 SWAP1 LOG2 POP JUMP JUMPDEST PUSH1 0x0 PUSH2 0x11F DUP2 DUP4 PUSH2 0x2B3 JUMP JUMPDEST PUSH2 0x1BF DUP3 DUP3 PUSH2 0x2B3 JUMP JUMPDEST ISZERO PUSH2 0x20C JUMPI PUSH1 0x40 MLOAD PUSH3 0x461BCD PUSH1 0xE5 SHL DUP2 MSTORE PUSH1 0x20 PUSH1 0x4 DUP3 ADD MSTORE PUSH1 0x1F PUSH1 0x24 DUP3 ADD MSTORE PUSH32 0x526F6C65733A206163636F756E7420616C72656164792068617320726F6C6500 PUSH1 0x44 DUP3 ADD MSTORE PUSH1 0x64 ADD PUSH2 0xF4 JUMP JUMPDEST PUSH1 0x1 PUSH1 0x1 PUSH1 0xA0 SHL SUB AND PUSH1 0x0 SWAP1 DUP2 MSTORE PUSH1 0x20 SWAP2 SWAP1 SWAP2 MSTORE PUSH1 0x40 SWAP1 KECCAK256 DUP1 SLOAD PUSH1 0xFF NOT AND PUSH1 0x1 OR SWAP1 SSTORE JUMP JUMPDEST PUSH2 0x23B DUP3 DUP3 PUSH2 0x2B3 JUMP JUMPDEST PUSH2 0x291 JUMPI PUSH1 0x40 MLOAD PUSH3 0x461BCD PUSH1 0xE5 SHL DUP2 MSTORE PUSH1 0x20 PUSH1 0x4 DUP3 ADD MSTORE PUSH1 0x21 PUSH1 0x24 DUP3 ADD MSTORE PUSH32 0x526F6C65733A206163636F756E7420646F6573206E6F74206861766520726F6C PUSH1 0x44 DUP3 ADD MSTORE PUSH1 0x65 PUSH1 0xF8 SHL PUSH1 0x64 DUP3 ADD MSTORE PUSH1 0x84 ADD PUSH2 0xF4 JUMP JUMPDEST PUSH1 0x1 PUSH1 0x1 PUSH1 0xA0 SHL SUB AND PUSH1 0x0 SWAP1 DUP2 MSTORE PUSH1 0x20 SWAP2 SWAP1 SWAP2 MSTORE PUSH1 0x40 SWAP1 KECCAK256 DUP1 SLOAD PUSH1 0xFF NOT AND SWAP1 SSTORE JUMP JUMPDEST PUSH1 0x0 PUSH1 0x1 PUSH1 0x1 PUSH1 0xA0 SHL SUB DUP3 AND PUSH2 0x316 JUMPI PUSH1 0x40 MLOAD PUSH3 0x461BCD PUSH1 0xE5 SHL DUP2 MSTORE PUSH1 0x20 PUSH1 0x4 DUP3 ADD MSTORE PUSH1 0x22 PUSH1 0x24 DUP3 ADD MSTORE PUSH32 0x526F6C65733A206163636F756E7420697320746865207A65726F206164647265 PUSH1 0x44 DUP3 ADD MSTORE PUSH2 0x7373 PUSH1 0xF0 SHL PUSH1 0x64 DUP3 ADD MSTORE PUSH1 0x84 ADD PUSH2 0xF4 JUMP JUMPDEST POP PUSH1 0x1 PUSH1 0x1 PUSH1 0xA0 SHL SUB AND PUSH1 0x0 SWAP1 DUP2 MSTORE PUSH1 0x20 SWAP2 SWAP1 SWAP2 MSTORE PUSH1 0x40 SWAP1 KECCAK256 SLOAD PUSH1 0xFF AND SWAP1 JUMP JUMPDEST PUSH1 0x0 PUSH1 0x20 DUP3 DUP5 SUB SLT ISZERO PUSH2 0x348 JUMPI PUSH1 0x0 DUP1 REVERT JUMPDEST DUP2 CALLDATALOAD PUSH1 0x1 PUSH1 0x1 PUSH1 0xA0 SHL SUB DUP2 AND DUP2 EQ PUSH2 0x35F JUMPI PUSH1 0x0 DUP1 REVERT JUMPDEST SWAP4 SWAP3 POP POP POP JUMP INVALID LOG2 PUSH5 0x6970667358 0x22 SLT KECCAK256 PUSH26 0xAB41C395F1B5A19586BD4A05F6AF4421A238D600FFE1B411F853 0xAD PUSH4 0x8E1B7164 PUSH20 0x6F6C634300081300330000000000000000000000 "
				},
				"gasEstimates": {
					"creation": {
						"codeDepositCost": "184800",
						"executionCost": "infinite",
						"totalCost": "infinite"
					},
					"external": {
						"addMinter(address)": "infinite",
						"isMinter(address)": "infinite",
						"renounceMinter()": "27963"
					},
					"internal": {
						"_addMinter(address)": "infinite",
						"_isMinter(address)": "infinite",
						"_removeMinter(address)": "infinite"
					}
				},
				"methodIdentifiers": {
					"addMinter(address)": "983b2d56",
					"isMinter(address)": "aa271e1a",
					"renounceMinter()": "98650275"
				}
			},
			"storageLayout": {
				"storage": [
					{
						"astId": 9,
						"contract": "KIP37/MinterRole.sol:MinterRole",
						"label": "_minters",
						"offset": 0,
						"slot": "0",
						"type": "t_struct(Role)125_storage"
					}
				],
				"types": {
					"t_address": {
						"encoding": "inplace",
						"label": "address",
						"numberOfBytes": "20"
					},
					"t_bool": {
						"encoding": "inplace",
						"label": "bool",
						"numberOfBytes": "1"
					},
					"t_mapping(t_address,t_bool)": {
						"encoding": "mapping",
						"key": "t_address",
						"label": "mapping(address => bool)",
						"numberOfBytes": "32",
						"value": "t_bool"
					},
					"t_struct(Role)125_storage": {
						"encoding": "inplace",
						"label": "struct Roles.Role",
						"members": [
							{
								"astId": 124,
								"contract": "KIP37/MinterRole.sol:MinterRole",
								"label": "bearer",
								"offset": 0,
								"slot": "0",
								"type": "t_mapping(t_address,t_bool)"
							}
						],
						"numberOfBytes": "32"
					}
				}
			},
			"userdoc": {
				"kind": "user",
				"methods": {},
				"version": 1
			}
		}
	}
}