{
	"KIP37/PauserRole.sol": {
		"PauserRole": {
			"abi": [
				{
					"inputs": [
						{
							"internalType": "address",
							"name": "owner",
							"type": "address"
						}
					],
					"stateMutability": "nonpayable",
					"type": "constructor"
				},
				{
					"anonymous": false,
					"inputs": [
						{
							"indexed": true,
							"internalType": "address",
							"name": "account",
							"type": "address"
						}
					],
					"name": "PauserAdded",
					"type": "event"
				},
				{
					"anonymous": false,
					"inputs": [
						{
							"indexed": true,
							"internalType": "address",
							"name": "account",
							"type": "address"
						}
					],
					"name": "PauserRemoved",
					"type": "event"
				},
				{
					"inputs": [
						{
							"internalType": "address",
							"name": "account",
							"type": "address"
						}
					],
					"name": "addPauser",
					"outputs": [],
					"stateMutability": "nonpayable",
					"type": "function"
				},
				{
					"inputs": [
						{
							"internalType": "address",
							"name": "account",
							"type": "address"
						}
					],
					"name": "isPauser",
					"outputs": [
						{
							"internalType": "bool",
							"name": "",
							"type": "bool"
						}
					],
					"stateMutability": "view",
					"type": "function"
				},
				{
					"inputs": [],
					"name": "renouncePauser",
					"outputs": [],
					"stateMutability": "nonpayable",
					"type": "function"
				}
			],
			"devdoc": {
				"kind": "dev",
				"methods": {},
				"version": 1
			},
			"evm": {
				"assembly": "    /* \"KIP37/PauserRole.sol\":93:1229  contract PauserRole {... */\n  mstore(0x40, 0x80)\n    /* \"KIP37/PauserRole.sol\":435:499  constructor (address owner) {... */\n  callvalue\n  dup1\n  iszero\n  tag_1\n  jumpi\n  0x00\n  dup1\n  revert\ntag_1:\n  pop\n  mload(0x40)\n  sub(codesize, bytecodeSize)\n  dup1\n  bytecodeSize\n  dup4\n  codecopy\n  dup2\n  add\n  0x40\n  dup2\n  swap1\n  mstore\n  tag_2\n  swap2\n  tag_3\n  jump\t// in\ntag_2:\n    /* \"KIP37/PauserRole.sol\":474:491  _addPauser(owner) */\n  tag_6\n    /* \"KIP37/PauserRole.sol\":485:490  owner */\n  dup2\n    /* \"KIP37/PauserRole.sol\":474:484  _addPauser */\n  tag_7\n    /* \"KIP37/PauserRole.sol\":474:491  _addPauser(owner) */\n  jump\t// in\ntag_6:\n    /* \"KIP37/PauserRole.sol\":435:499  constructor (address owner) {... */\n  pop\n    /* \"KIP37/PauserRole.sol\":93:1229  contract PauserRole {... */\n  jump(tag_22)\n    /* \"KIP37/PauserRole.sol\":962:1086  function _addPauser(address account) internal {... */\ntag_7:\n    /* \"KIP37/PauserRole.sol\":1019:1040  _pausers.add(account) */\n  tag_10\n    /* \"KIP37/PauserRole.sol\":1019:1027  _pausers */\n  0x00\n    /* \"KIP37/PauserRole.sol\":1032:1039  account */\n  dup3\n    /* \"KIP37/PauserRole.sol\":1019:1031  _pausers.add */\n  tag_11\n    /* \"KIP37/PauserRole.sol\":1019:1040  _pausers.add(account) */\n  jump\t// in\ntag_10:\n    /* \"KIP37/PauserRole.sol\":1058:1078  PauserAdded(account) */\n  mload(0x40)\n  sub(shl(0xa0, 0x01), 0x01)\n  dup3\n  and\n  swap1\n  0x6719d08c1888103bea251a4ed56406bd0c3e69723c8a1686e017e7bbe159b6f8\n  swap1\n  0x00\n  swap1\n  log2\n    /* \"KIP37/PauserRole.sol\":962:1086  function _addPauser(address account) internal {... */\n  pop\n  jump\t// out\n    /* \"KIP37/Roles.sol\":160:340  function add(Role storage role, address account) internal {... */\ntag_11:\n    /* \"KIP37/Roles.sol\":238:256  has(role, account) */\n  tag_13\n    /* \"KIP37/Roles.sol\":242:246  role */\n  dup3\n    /* \"KIP37/Roles.sol\":248:255  account */\n  dup3\n    /* \"KIP37/Roles.sol\":238:241  has */\n  tag_14\n    /* \"KIP37/Roles.sol\":238:256  has(role, account) */\n  jump\t// in\ntag_13:\n    /* \"KIP37/Roles.sol\":237:256  !has(role, account) */\n  iszero\n    /* \"KIP37/Roles.sol\":229:292  require(!has(role, account), \"Roles: account already has role\") */\n  tag_15\n  jumpi\n  mload(0x40)\n  shl(0xe5, 0x461bcd)\n  dup2\n  mstore\n    /* \"#utility.yul\":511:513   */\n  0x20\n    /* \"KIP37/Roles.sol\":229:292  require(!has(role, account), \"Roles: account already has role\") */\n  0x04\n  dup3\n  add\n    /* \"#utility.yul\":493:514   */\n  mstore\n    /* \"#utility.yul\":550:552   */\n  0x1f\n    /* \"#utility.yul\":530:548   */\n  0x24\n  dup3\n  add\n    /* \"#utility.yul\":523:553   */\n  mstore\n    /* \"#utility.yul\":589:622   */\n  0x526f6c65733a206163636f756e7420616c72656164792068617320726f6c6500\n    /* \"#utility.yul\":569:587   */\n  0x44\n  dup3\n  add\n    /* \"#utility.yul\":562:623   */\n  mstore\n    /* \"#utility.yul\":640:658   */\n  0x64\n  add\n    /* \"KIP37/Roles.sol\":229:292  require(!has(role, account), \"Roles: account already has role\") */\ntag_16:\n  mload(0x40)\n  dup1\n  swap2\n  sub\n  swap1\n  revert\ntag_15:\n  sub(shl(0xa0, 0x01), 0x01)\n    /* \"KIP37/Roles.sol\":305:325  role.bearer[account] */\n  and\n    /* \"KIP37/Roles.sol\":305:316  role.bearer */\n  0x00\n    /* \"KIP37/Roles.sol\":305:325  role.bearer[account] */\n  swap1\n  dup2\n  mstore\n  0x20\n  swap2\n  swap1\n  swap2\n  mstore\n  0x40\n  swap1\n  keccak256\n    /* \"KIP37/Roles.sol\":305:332  role.bearer[account] = true */\n  dup1\n  sload\n  not(0xff)\n  and\n    /* \"KIP37/Roles.sol\":328:332  true */\n  0x01\n    /* \"KIP37/Roles.sol\":305:332  role.bearer[account] = true */\n  or\n  swap1\n  sstore\n    /* \"KIP37/Roles.sol\":160:340  function add(Role storage role, address account) internal {... */\n  jump\t// out\n    /* \"KIP37/Roles.sol\":541:746  function has(Role storage role, address account) internal view returns (bool) {... */\ntag_14:\n    /* \"KIP37/Roles.sol\":613:617  bool */\n  0x00\n  sub(shl(0xa0, 0x01), 0x01)\n    /* \"KIP37/Roles.sol\":638:659  account != address(0) */\n  dup3\n  and\n    /* \"KIP37/Roles.sol\":630:698  require(account != address(0), \"Roles: account is the zero address\") */\n  tag_19\n  jumpi\n  mload(0x40)\n  shl(0xe5, 0x461bcd)\n  dup2\n  mstore\n    /* \"#utility.yul\":871:873   */\n  0x20\n    /* \"KIP37/Roles.sol\":630:698  require(account != address(0), \"Roles: account is the zero address\") */\n  0x04\n  dup3\n  add\n    /* \"#utility.yul\":853:874   */\n  mstore\n    /* \"#utility.yul\":910:912   */\n  0x22\n    /* \"#utility.yul\":890:908   */\n  0x24\n  dup3\n  add\n    /* \"#utility.yul\":883:913   */\n  mstore\n    /* \"#utility.yul\":949:983   */\n  0x526f6c65733a206163636f756e7420697320746865207a65726f206164647265\n    /* \"#utility.yul\":929:947   */\n  0x44\n  dup3\n  add\n    /* \"#utility.yul\":922:984   */\n  mstore\n  shl(0xf0, 0x7373)\n    /* \"#utility.yul\":1000:1018   */\n  0x64\n  dup3\n  add\n    /* \"#utility.yul\":993:1025   */\n  mstore\n    /* \"#utility.yul\":1042:1061   */\n  0x84\n  add\n    /* \"KIP37/Roles.sol\":630:698  require(account != address(0), \"Roles: account is the zero address\") */\n  tag_16\n    /* \"#utility.yul\":669:1067   */\n  jump\n    /* \"KIP37/Roles.sol\":630:698  require(account != address(0), \"Roles: account is the zero address\") */\ntag_19:\n  pop\n  sub(shl(0xa0, 0x01), 0x01)\n    /* \"KIP37/Roles.sol\":718:738  role.bearer[account] */\n  and\n    /* \"KIP37/Roles.sol\":718:729  role.bearer */\n  0x00\n    /* \"KIP37/Roles.sol\":718:738  role.bearer[account] */\n  swap1\n  dup2\n  mstore\n  0x20\n  swap2\n  swap1\n  swap2\n  mstore\n  0x40\n  swap1\n  keccak256\n  sload\n  0xff\n  and\n  swap1\n    /* \"KIP37/Roles.sol\":541:746  function has(Role storage role, address account) internal view returns (bool) {... */\n  jump\t// out\n    /* \"#utility.yul\":14:304   */\ntag_3:\n    /* \"#utility.yul\":84:90   */\n  0x00\n    /* \"#utility.yul\":137:139   */\n  0x20\n    /* \"#utility.yul\":125:134   */\n  dup3\n    /* \"#utility.yul\":116:123   */\n  dup5\n    /* \"#utility.yul\":112:135   */\n  sub\n    /* \"#utility.yul\":108:140   */\n  slt\n    /* \"#utility.yul\":105:157   */\n  iszero\n  tag_24\n  jumpi\n    /* \"#utility.yul\":153:154   */\n  0x00\n    /* \"#utility.yul\":150:151   */\n  dup1\n    /* \"#utility.yul\":143:155   */\n  revert\n    /* \"#utility.yul\":105:157   */\ntag_24:\n    /* \"#utility.yul\":179:195   */\n  dup2\n  mload\n  sub(shl(0xa0, 0x01), 0x01)\n    /* \"#utility.yul\":224:255   */\n  dup2\n  and\n    /* \"#utility.yul\":214:256   */\n  dup2\n  eq\n    /* \"#utility.yul\":204:274   */\n  tag_25\n  jumpi\n    /* \"#utility.yul\":270:271   */\n  0x00\n    /* \"#utility.yul\":267:268   */\n  dup1\n    /* \"#utility.yul\":260:272   */\n  revert\n    /* \"#utility.yul\":204:274   */\ntag_25:\n    /* \"#utility.yul\":293:298   */\n  swap4\n    /* \"#utility.yul\":14:304   */\n  swap3\n  pop\n  pop\n  pop\n  jump\t// out\n    /* \"#utility.yul\":669:1067   */\ntag_22:\n    /* \"KIP37/PauserRole.sol\":93:1229  contract PauserRole {... */\n  dataSize(sub_0)\n  dup1\n  dataOffset(sub_0)\n  0x00\n  codecopy\n  0x00\n  return\nstop\n\nsub_0: assembly {\n        /* \"KIP37/PauserRole.sol\":93:1229  contract PauserRole {... */\n      mstore(0x40, 0x80)\n      callvalue\n      dup1\n      iszero\n      tag_1\n      jumpi\n      0x00\n      dup1\n      revert\n    tag_1:\n      pop\n      jumpi(tag_2, lt(calldatasize, 0x04))\n      shr(0xe0, calldataload(0x00))\n      dup1\n      0x46fbf68e\n      eq\n      tag_3\n      jumpi\n      dup1\n      0x6ef8d66d\n      eq\n      tag_4\n      jumpi\n      dup1\n      0x82dc1ec4\n      eq\n      tag_5\n      jumpi\n    tag_2:\n      0x00\n      dup1\n      revert\n        /* \"KIP37/PauserRole.sol\":507:613  function isPauser(address account) public view returns (bool) {... */\n    tag_3:\n      tag_6\n      tag_7\n      calldatasize\n      0x04\n      tag_8\n      jump\t// in\n    tag_7:\n      tag_9\n      jump\t// in\n    tag_6:\n      mload(0x40)\n        /* \"#utility.yul\":470:484   */\n      swap1\n      iszero\n        /* \"#utility.yul\":463:485   */\n      iszero\n        /* \"#utility.yul\":445:486   */\n      dup2\n      mstore\n        /* \"#utility.yul\":433:435   */\n      0x20\n        /* \"#utility.yul\":418:436   */\n      add\n        /* \"KIP37/PauserRole.sol\":507:613  function isPauser(address account) public view returns (bool) {... */\n      mload(0x40)\n      dup1\n      swap2\n      sub\n      swap1\n      return\n        /* \"KIP37/PauserRole.sol\":721:798  function renouncePauser() public {... */\n    tag_4:\n      tag_12\n      tag_13\n      jump\t// in\n    tag_12:\n      stop\n        /* \"KIP37/PauserRole.sol\":621:713  function addPauser(address account) public onlyPauser {... */\n    tag_5:\n      tag_12\n      tag_15\n      calldatasize\n      0x04\n      tag_8\n      jump\t// in\n    tag_15:\n      tag_16\n      jump\t// in\n        /* \"KIP37/PauserRole.sol\":507:613  function isPauser(address account) public view returns (bool) {... */\n    tag_9:\n        /* \"KIP37/PauserRole.sol\":563:567  bool */\n      0x00\n        /* \"KIP37/PauserRole.sol\":587:605  _isPauser(account) */\n      tag_18\n        /* \"KIP37/PauserRole.sol\":597:604  account */\n      dup3\n        /* \"KIP37/PauserRole.sol\":587:596  _isPauser */\n      tag_19\n        /* \"KIP37/PauserRole.sol\":587:605  _isPauser(account) */\n      jump\t// in\n    tag_18:\n        /* \"KIP37/PauserRole.sol\":580:605  return _isPauser(account) */\n      swap3\n        /* \"KIP37/PauserRole.sol\":507:613  function isPauser(address account) public view returns (bool) {... */\n      swap2\n      pop\n      pop\n      jump\t// out\n        /* \"KIP37/PauserRole.sol\":721:798  function renouncePauser() public {... */\n    tag_13:\n        /* \"KIP37/PauserRole.sol\":765:790  _removePauser(msg.sender) */\n      tag_21\n        /* \"KIP37/PauserRole.sol\":779:789  msg.sender */\n      caller\n        /* \"KIP37/PauserRole.sol\":765:778  _removePauser */\n      tag_22\n        /* \"KIP37/PauserRole.sol\":765:790  _removePauser(msg.sender) */\n      jump\t// in\n    tag_21:\n        /* \"KIP37/PauserRole.sol\":721:798  function renouncePauser() public {... */\n      jump\t// out\n        /* \"KIP37/PauserRole.sol\":621:713  function addPauser(address account) public onlyPauser {... */\n    tag_16:\n        /* \"KIP37/PauserRole.sol\":334:354  isPauser(msg.sender) */\n      tag_24\n        /* \"KIP37/PauserRole.sol\":343:353  msg.sender */\n      caller\n        /* \"KIP37/PauserRole.sol\":334:342  isPauser */\n      tag_9\n        /* \"KIP37/PauserRole.sol\":334:354  isPauser(msg.sender) */\n      jump\t// in\n    tag_24:\n        /* \"KIP37/PauserRole.sol\":326:407  require(isPauser(msg.sender), \"PauserRole: caller does not have the Pauser role\") */\n      tag_25\n      jumpi\n      mload(0x40)\n      shl(0xe5, 0x461bcd)\n      dup2\n      mstore\n        /* \"#utility.yul\":699:701   */\n      0x20\n        /* \"KIP37/PauserRole.sol\":326:407  require(isPauser(msg.sender), \"PauserRole: caller does not have the Pauser role\") */\n      0x04\n      dup3\n      add\n        /* \"#utility.yul\":681:702   */\n      mstore\n        /* \"#utility.yul\":738:740   */\n      0x30\n        /* \"#utility.yul\":718:736   */\n      0x24\n      dup3\n      add\n        /* \"#utility.yul\":711:741   */\n      mstore\n        /* \"#utility.yul\":777:811   */\n      0x506175736572526f6c653a2063616c6c657220646f6573206e6f742068617665\n        /* \"#utility.yul\":757:775   */\n      0x44\n      dup3\n      add\n        /* \"#utility.yul\":750:812   */\n      mstore\n      shl(0x80, 0x207468652050617573657220726f6c65)\n        /* \"#utility.yul\":828:846   */\n      0x64\n      dup3\n      add\n        /* \"#utility.yul\":821:867   */\n      mstore\n        /* \"#utility.yul\":884:903   */\n      0x84\n      add\n        /* \"KIP37/PauserRole.sol\":326:407  require(isPauser(msg.sender), \"PauserRole: caller does not have the Pauser role\") */\n    tag_26:\n      mload(0x40)\n      dup1\n      swap2\n      sub\n      swap1\n      revert\n    tag_25:\n        /* \"KIP37/PauserRole.sol\":686:705  _addPauser(account) */\n      tag_29\n        /* \"KIP37/PauserRole.sol\":697:704  account */\n      dup2\n        /* \"KIP37/PauserRole.sol\":686:696  _addPauser */\n      tag_30\n        /* \"KIP37/PauserRole.sol\":686:705  _addPauser(account) */\n      jump\t// in\n    tag_29:\n        /* \"KIP37/PauserRole.sol\":621:713  function addPauser(address account) public onlyPauser {... */\n      pop\n      jump\t// out\n        /* \"KIP37/PauserRole.sol\":842:954  function _isPauser(address account) internal view returns (bool) {... */\n    tag_19:\n        /* \"KIP37/PauserRole.sol\":901:905  bool */\n      0x00\n        /* \"KIP37/PauserRole.sol\":925:946  _pausers.has(account) */\n      tag_18\n        /* \"KIP37/PauserRole.sol\":901:905  bool */\n      dup2\n        /* \"KIP37/PauserRole.sol\":938:945  account */\n      dup4\n        /* \"KIP37/PauserRole.sol\":925:937  _pausers.has */\n      tag_33\n        /* \"KIP37/PauserRole.sol\":925:946  _pausers.has(account) */\n      jump\t// in\n        /* \"KIP37/PauserRole.sol\":1094:1226  function _removePauser(address account) internal {... */\n    tag_22:\n        /* \"KIP37/PauserRole.sol\":1154:1178  _pausers.remove(account) */\n      tag_35\n        /* \"KIP37/PauserRole.sol\":1154:1162  _pausers */\n      0x00\n        /* \"KIP37/PauserRole.sol\":1170:1177  account */\n      dup3\n        /* \"KIP37/PauserRole.sol\":1154:1169  _pausers.remove */\n      tag_36\n        /* \"KIP37/PauserRole.sol\":1154:1178  _pausers.remove(account) */\n      jump\t// in\n    tag_35:\n        /* \"KIP37/PauserRole.sol\":1196:1218  PauserRemoved(account) */\n      mload(0x40)\n      sub(shl(0xa0, 0x01), 0x01)\n      dup3\n      and\n      swap1\n      0xcd265ebaf09df2871cc7bd4133404a235ba12eff2041bb89d9c714a2621c7c7e\n      swap1\n      0x00\n      swap1\n      log2\n        /* \"KIP37/PauserRole.sol\":1094:1226  function _removePauser(address account) internal {... */\n      pop\n      jump\t// out\n        /* \"KIP37/PauserRole.sol\":962:1086  function _addPauser(address account) internal {... */\n    tag_30:\n        /* \"KIP37/PauserRole.sol\":1019:1040  _pausers.add(account) */\n      tag_38\n        /* \"KIP37/PauserRole.sol\":1019:1027  _pausers */\n      0x00\n        /* \"KIP37/PauserRole.sol\":1032:1039  account */\n      dup3\n        /* \"KIP37/PauserRole.sol\":1019:1031  _pausers.add */\n      tag_39\n        /* \"KIP37/PauserRole.sol\":1019:1040  _pausers.add(account) */\n      jump\t// in\n    tag_38:\n        /* \"KIP37/PauserRole.sol\":1058:1078  PauserAdded(account) */\n      mload(0x40)\n      sub(shl(0xa0, 0x01), 0x01)\n      dup3\n      and\n      swap1\n      0x6719d08c1888103bea251a4ed56406bd0c3e69723c8a1686e017e7bbe159b6f8\n      swap1\n      0x00\n      swap1\n      log2\n        /* \"KIP37/PauserRole.sol\":962:1086  function _addPauser(address account) internal {... */\n      pop\n      jump\t// out\n        /* \"KIP37/Roles.sol\":541:746  function has(Role storage role, address account) internal view returns (bool) {... */\n    tag_33:\n        /* \"KIP37/Roles.sol\":613:617  bool */\n      0x00\n      sub(shl(0xa0, 0x01), 0x01)\n        /* \"KIP37/Roles.sol\":638:659  account != address(0) */\n      dup3\n      and\n        /* \"KIP37/Roles.sol\":630:698  require(account != address(0), \"Roles: account is the zero address\") */\n      tag_41\n      jumpi\n      mload(0x40)\n      shl(0xe5, 0x461bcd)\n      dup2\n      mstore\n        /* \"#utility.yul\":1116:1118   */\n      0x20\n        /* \"KIP37/Roles.sol\":630:698  require(account != address(0), \"Roles: account is the zero address\") */\n      0x04\n      dup3\n      add\n        /* \"#utility.yul\":1098:1119   */\n      mstore\n        /* \"#utility.yul\":1155:1157   */\n      0x22\n        /* \"#utility.yul\":1135:1153   */\n      0x24\n      dup3\n      add\n        /* \"#utility.yul\":1128:1158   */\n      mstore\n        /* \"#utility.yul\":1194:1228   */\n      0x526f6c65733a206163636f756e7420697320746865207a65726f206164647265\n        /* \"#utility.yul\":1174:1192   */\n      0x44\n      dup3\n      add\n        /* \"#utility.yul\":1167:1229   */\n      mstore\n      shl(0xf0, 0x7373)\n        /* \"#utility.yul\":1245:1263   */\n      0x64\n      dup3\n      add\n        /* \"#utility.yul\":1238:1270   */\n      mstore\n        /* \"#utility.yul\":1287:1306   */\n      0x84\n      add\n        /* \"KIP37/Roles.sol\":630:698  require(account != address(0), \"Roles: account is the zero address\") */\n      tag_26\n        /* \"#utility.yul\":914:1312   */\n      jump\n        /* \"KIP37/Roles.sol\":630:698  require(account != address(0), \"Roles: account is the zero address\") */\n    tag_41:\n      pop\n      sub(shl(0xa0, 0x01), 0x01)\n        /* \"KIP37/Roles.sol\":718:738  role.bearer[account] */\n      and\n        /* \"KIP37/Roles.sol\":718:729  role.bearer */\n      0x00\n        /* \"KIP37/Roles.sol\":718:738  role.bearer[account] */\n      swap1\n      dup2\n      mstore\n      0x20\n      swap2\n      swap1\n      swap2\n      mstore\n      0x40\n      swap1\n      keccak256\n      sload\n      0xff\n      and\n      swap1\n        /* \"KIP37/Roles.sol\":541:746  function has(Role storage role, address account) internal view returns (bool) {... */\n      jump\t// out\n        /* \"KIP37/Roles.sol\":348:533  function remove(Role storage role, address account) internal {... */\n    tag_36:\n        /* \"KIP37/Roles.sol\":428:446  has(role, account) */\n      tag_45\n        /* \"KIP37/Roles.sol\":432:436  role */\n      dup3\n        /* \"KIP37/Roles.sol\":438:445  account */\n      dup3\n        /* \"KIP37/Roles.sol\":428:431  has */\n      tag_33\n        /* \"KIP37/Roles.sol\":428:446  has(role, account) */\n      jump\t// in\n    tag_45:\n        /* \"KIP37/Roles.sol\":420:484  require(has(role, account), \"Roles: account does not have role\") */\n      tag_46\n      jumpi\n      mload(0x40)\n      shl(0xe5, 0x461bcd)\n      dup2\n      mstore\n        /* \"#utility.yul\":1519:1521   */\n      0x20\n        /* \"KIP37/Roles.sol\":420:484  require(has(role, account), \"Roles: account does not have role\") */\n      0x04\n      dup3\n      add\n        /* \"#utility.yul\":1501:1522   */\n      mstore\n        /* \"#utility.yul\":1558:1560   */\n      0x21\n        /* \"#utility.yul\":1538:1556   */\n      0x24\n      dup3\n      add\n        /* \"#utility.yul\":1531:1561   */\n      mstore\n        /* \"#utility.yul\":1597:1631   */\n      0x526f6c65733a206163636f756e7420646f6573206e6f74206861766520726f6c\n        /* \"#utility.yul\":1577:1595   */\n      0x44\n      dup3\n      add\n        /* \"#utility.yul\":1570:1632   */\n      mstore\n      shl(0xf8, 0x65)\n        /* \"#utility.yul\":1648:1666   */\n      0x64\n      dup3\n      add\n        /* \"#utility.yul\":1641:1672   */\n      mstore\n        /* \"#utility.yul\":1689:1708   */\n      0x84\n      add\n        /* \"KIP37/Roles.sol\":420:484  require(has(role, account), \"Roles: account does not have role\") */\n      tag_26\n        /* \"#utility.yul\":1317:1714   */\n      jump\n        /* \"KIP37/Roles.sol\":420:484  require(has(role, account), \"Roles: account does not have role\") */\n    tag_46:\n      sub(shl(0xa0, 0x01), 0x01)\n        /* \"KIP37/Roles.sol\":497:517  role.bearer[account] */\n      and\n        /* \"KIP37/Roles.sol\":520:525  false */\n      0x00\n        /* \"KIP37/Roles.sol\":497:517  role.bearer[account] */\n      swap1\n      dup2\n      mstore\n      0x20\n      swap2\n      swap1\n      swap2\n      mstore\n      0x40\n      swap1\n      keccak256\n        /* \"KIP37/Roles.sol\":497:525  role.bearer[account] = false */\n      dup1\n      sload\n      not(0xff)\n      and\n      swap1\n      sstore\n        /* \"KIP37/Roles.sol\":348:533  function remove(Role storage role, address account) internal {... */\n      jump\t// out\n        /* \"KIP37/Roles.sol\":160:340  function add(Role storage role, address account) internal {... */\n    tag_39:\n        /* \"KIP37/Roles.sol\":238:256  has(role, account) */\n      tag_50\n        /* \"KIP37/Roles.sol\":242:246  role */\n      dup3\n        /* \"KIP37/Roles.sol\":248:255  account */\n      dup3\n        /* \"KIP37/Roles.sol\":238:241  has */\n      tag_33\n        /* \"KIP37/Roles.sol\":238:256  has(role, account) */\n      jump\t// in\n    tag_50:\n        /* \"KIP37/Roles.sol\":237:256  !has(role, account) */\n      iszero\n        /* \"KIP37/Roles.sol\":229:292  require(!has(role, account), \"Roles: account already has role\") */\n      tag_51\n      jumpi\n      mload(0x40)\n      shl(0xe5, 0x461bcd)\n      dup2\n      mstore\n        /* \"#utility.yul\":1921:1923   */\n      0x20\n        /* \"KIP37/Roles.sol\":229:292  require(!has(role, account), \"Roles: account already has role\") */\n      0x04\n      dup3\n      add\n        /* \"#utility.yul\":1903:1924   */\n      mstore\n        /* \"#utility.yul\":1960:1962   */\n      0x1f\n        /* \"#utility.yul\":1940:1958   */\n      0x24\n      dup3\n      add\n        /* \"#utility.yul\":1933:1963   */\n      mstore\n        /* \"#utility.yul\":1999:2032   */\n      0x526f6c65733a206163636f756e7420616c72656164792068617320726f6c6500\n        /* \"#utility.yul\":1979:1997   */\n      0x44\n      dup3\n      add\n        /* \"#utility.yul\":1972:2033   */\n      mstore\n        /* \"#utility.yul\":2050:2068   */\n      0x64\n      add\n        /* \"KIP37/Roles.sol\":229:292  require(!has(role, account), \"Roles: account already has role\") */\n      tag_26\n        /* \"#utility.yul\":1719:2074   */\n      jump\n        /* \"KIP37/Roles.sol\":229:292  require(!has(role, account), \"Roles: account already has role\") */\n    tag_51:\n      sub(shl(0xa0, 0x01), 0x01)\n        /* \"KIP37/Roles.sol\":305:325  role.bearer[account] */\n      and\n        /* \"KIP37/Roles.sol\":305:316  role.bearer */\n      0x00\n        /* \"KIP37/Roles.sol\":305:325  role.bearer[account] */\n      swap1\n      dup2\n      mstore\n      0x20\n      swap2\n      swap1\n      swap2\n      mstore\n      0x40\n      swap1\n      keccak256\n        /* \"KIP37/Roles.sol\":305:332  role.bearer[account] = true */\n      dup1\n      sload\n      not(0xff)\n      and\n        /* \"KIP37/Roles.sol\":328:332  true */\n      0x01\n        /* \"KIP37/Roles.sol\":305:332  role.bearer[account] = true */\n      or\n      swap1\n      sstore\n        /* \"KIP37/Roles.sol\":160:340  function add(Role storage role, address account) internal {... */\n      jump\t// out\n        /* \"#utility.yul\":14:300   */\n    tag_8:\n        /* \"#utility.yul\":73:79   */\n      0x00\n        /* \"#utility.yul\":126:128   */\n      0x20\n        /* \"#utility.yul\":114:123   */\n      dup3\n        /* \"#utility.yul\":105:112   */\n      dup5\n        /* \"#utility.yul\":101:124   */\n      sub\n        /* \"#utility.yul\":97:129   */\n      slt\n        /* \"#utility.yul\":94:146   */\n      iszero\n      tag_56\n      jumpi\n        /* \"#utility.yul\":142:143   */\n      0x00\n        /* \"#utility.yul\":139:140   */\n      dup1\n        /* \"#utility.yul\":132:144   */\n      revert\n        /* \"#utility.yul\":94:146   */\n    tag_56:\n        /* \"#utility.yul\":168:191   */\n      dup2\n      calldataload\n      sub(shl(0xa0, 0x01), 0x01)\n        /* \"#utility.yul\":220:251   */\n      dup2\n      and\n        /* \"#utility.yul\":210:252   */\n      dup2\n      eq\n        /* \"#utility.yul\":200:270   */\n      tag_57\n      jumpi\n        /* \"#utility.yul\":266:267   */\n      0x00\n        /* \"#utility.yul\":263:264   */\n      dup1\n        /* \"#utility.yul\":256:268   */\n      revert\n        /* \"#utility.yul\":200:270   */\n    tag_57:\n        /* \"#utility.yul\":289:294   */\n      swap4\n        /* \"#utility.yul\":14:300   */\n      swap3\n      pop\n      pop\n      pop\n      jump\t// out\n\n    auxdata: 0xa2646970667358221220acc6d046342a5e71d9e68d5824a92d8dc7370818697e6809ec4789cebc9c112964736f6c63430008130033\n}\n",
				"bytecode": {
					"linkReferences": {},
					"object": "608060405234801561001057600080fd5b5060405161055f38038061055f83398101604081905261002f91610184565b6100388161003e565b506101b4565b610049600082610080565b6040516001600160a01b038216907f6719d08c1888103bea251a4ed56406bd0c3e69723c8a1686e017e7bbe159b6f890600090a250565b61008a8282610101565b156100dc5760405162461bcd60e51b815260206004820152601f60248201527f526f6c65733a206163636f756e7420616c72656164792068617320726f6c650060448201526064015b60405180910390fd5b6001600160a01b0316600090815260209190915260409020805460ff19166001179055565b60006001600160a01b0382166101645760405162461bcd60e51b815260206004820152602260248201527f526f6c65733a206163636f756e7420697320746865207a65726f206164647265604482015261737360f01b60648201526084016100d3565b506001600160a01b03166000908152602091909152604090205460ff1690565b60006020828403121561019657600080fd5b81516001600160a01b03811681146101ad57600080fd5b9392505050565b61039c806101c36000396000f3fe608060405234801561001057600080fd5b50600436106100415760003560e01c806346fbf68e146100465780636ef8d66d1461006d57806382dc1ec414610077575b600080fd5b610059610054366004610336565b61008a565b604051901515815260200160405180910390f35b61007561009b565b005b610075610085366004610336565b6100a6565b600061009582610125565b92915050565b6100a433610131565b565b6100af3361008a565b6101195760405162461bcd60e51b815260206004820152603060248201527f506175736572526f6c653a2063616c6c657220646f6573206e6f74206861766560448201526f207468652050617573657220726f6c6560801b60648201526084015b60405180910390fd5b61012281610173565b50565b600061009581836101b5565b61013c600082610238565b6040516001600160a01b038216907fcd265ebaf09df2871cc7bd4133404a235ba12eff2041bb89d9c714a2621c7c7e90600090a250565b61017e6000826102ba565b6040516001600160a01b038216907f6719d08c1888103bea251a4ed56406bd0c3e69723c8a1686e017e7bbe159b6f890600090a250565b60006001600160a01b0382166102185760405162461bcd60e51b815260206004820152602260248201527f526f6c65733a206163636f756e7420697320746865207a65726f206164647265604482015261737360f01b6064820152608401610110565b506001600160a01b03166000908152602091909152604090205460ff1690565b61024282826101b5565b6102985760405162461bcd60e51b815260206004820152602160248201527f526f6c65733a206163636f756e7420646f6573206e6f74206861766520726f6c6044820152606560f81b6064820152608401610110565b6001600160a01b0316600090815260209190915260409020805460ff19169055565b6102c482826101b5565b156103115760405162461bcd60e51b815260206004820152601f60248201527f526f6c65733a206163636f756e7420616c72656164792068617320726f6c65006044820152606401610110565b6001600160a01b0316600090815260209190915260409020805460ff19166001179055565b60006020828403121561034857600080fd5b81356001600160a01b038116811461035f57600080fd5b939250505056fea2646970667358221220acc6d046342a5e71d9e68d5824a92d8dc7370818697e6809ec4789cebc9c112964736f6c63430008130033",
					"opcodes": "PUSH1 0x80 PUSH1 0x40 MSTORE CALLVALUE DUP1 ISZERO PUSH2 0x10 JUMPI PUSH1 0x0 DUP1 REVERT JUMPDEST POP PUSH1 0x40 MLOAD PUSH2 0x55F CODESIZE SUB DUP1 PUSH2 0x55F DUP4 CODECOPY DUP2 ADD PUSH1 0x40 DUP2 SWAP1 MSTORE PUSH2 0x2F SWAP2 PUSH2 0x184 JUMP JUMPDEST PUSH2 0x38 DUP2 PUSH2 0x3E JUMP JUMPDEST POP PUSH2 0x1B4 JUMP JUMPDEST PUSH2 0x49 PUSH1 0x0 DUP3 PUSH2 0x80 JUMP JUMPDEST PUSH1 0x40 MLOAD PUSH1 0x1 PUSH1 0x1 PUSH1 0xA0 SHL SUB DUP3 AND SWAP1 PUSH32 0x6719D08C1888103BEA251A4ED56406BD0C3E69723C8A1686E017E7BBE159B6F8 SWAP1 PUSH1 0x0 SWAP1 LOG2 POP JUMP JUMPDEST PUSH2 0x8A DUP3 DUP3 PUSH2 0x101 JUMP JUMPDEST ISZERO PUSH2 0xDC JUMPI PUSH1 0x40 MLOAD PUSH3 0x461BCD PUSH1 0xE5 SHL DUP2 MSTORE PUSH1 0x20 PUSH1 0x4 DUP3 ADD MSTORE PUSH1 0x1F PUSH1 0x24 DUP3 ADD MSTORE PUSH32 0x526F6C65733A206163636F756E7420616C72656164792068617320726F6C6500 PUSH1 0x44 DUP3 ADD MSTORE PUSH1 0x64 ADD JUMPDEST PUSH1 0x40 MLOAD DUP1 SWAP2 SUB SWAP1 REVERT JUMPDEST PUSH1 0x1 PUSH1 0x1 PUSH1 0xA0 SHL SUB AND PUSH1 0x0 SWAP1 DUP2 MSTORE PUSH1 0x20 SWAP2 SWAP1 SWAP2 MSTORE PUSH1 0x40 SWAP1 KECCAK256 DUP1 SLOAD PUSH1 0xFF NOT AND PUSH1 0x1 OR SWAP1 SSTORE JUMP JUMPDEST PUSH1 0x0 PUSH1 0x1 PUSH1 0x1 PUSH1 0xA0 SHL SUB DUP3 AND PUSH2 0x164 JUMPI PUSH1 0x40 MLOAD PUSH3 0x461BCD PUSH1 0xE5 SHL DUP2 MSTORE PUSH1 0x20 PUSH1 0x4 DUP3 ADD MSTORE PUSH1 0x22 PUSH1 0x24 DUP3 ADD MSTORE PUSH32 0x526F6C65733A206163636F756E7420697320746865207A65726F206164647265 PUSH1 0x44 DUP3 ADD MSTORE PUSH2 0x7373 PUSH1 0xF0 SHL PUSH1 0x64 DUP3 ADD MSTORE PUSH1 0x84 ADD PUSH2 0xD3 JUMP JUMPDEST POP PUSH1 0x1 PUSH1 0x1 PUSH1 0xA0 SHL SUB AND PUSH1 0x0 SWAP1 DUP2 MSTORE PUSH1 0x20 SWAP2 SWAP1 SWAP2 MSTORE PUSH1 0x40 SWAP1 KECCAK256 SLOAD PUSH1 0xFF AND SWAP1 JUMP JUMPDEST PUSH1 0x0 PUSH1 0x20 DUP3 DUP5 SUB SLT ISZERO PUSH2 0x196 JUMPI PUSH1 0x0 DUP1 REVERT JUMPDEST DUP2 MLOAD PUSH1 0x1 PUSH1 0x1 PUSH1 0xA0 SHL SUB DUP2 AND DUP2 EQ PUSH2 0x1AD JUMPI PUSH1 0x0 DUP1 REVERT JUMPDEST SWAP4 SWAP3 POP POP POP JUMP JUMPDEST PUSH2 0x39C DUP1 PUSH2 0x1C3 PUSH1 0x0 CODECOPY PUSH1 0x0 RETURN INVALID PUSH1 0x80 PUSH1 0x40 MSTORE CALLVALUE DUP1 ISZERO PUSH2 0x10 JUMPI PUSH1 0x0 DUP1 REVERT JUMPDEST POP PUSH1 0x4 CALLDATASIZE LT PUSH2 0x41 JUMPI PUSH1 0x0 CALLDATALOAD PUSH1 0xE0 SHR DUP1 PUSH4 0x46FBF68E EQ PUSH2 0x46 JUMPI DUP1 PUSH4 0x6EF8D66D EQ PUSH2 0x6D JUMPI DUP1 PUSH4 0x82DC1EC4 EQ PUSH2 0x77 JUMPI JUMPDEST PUSH1 0x0 DUP1 REVERT JUMPDEST PUSH2 0x59 PUSH2 0x54 CALLDATASIZE PUSH1 0x4 PUSH2 0x336 JUMP JUMPDEST PUSH2 0x8A JUMP JUMPDEST PUSH1 0x40 MLOAD SWAP1 ISZERO ISZERO DUP2 MSTORE PUSH1 0x20 ADD PUSH1 0x40 MLOAD DUP1 SWAP2 SUB SWAP1 RETURN JUMPDEST PUSH2 0x75 PUSH2 0x9B JUMP JUMPDEST STOP JUMPDEST PUSH2 0x75 PUSH2 0x85 CALLDATASIZE PUSH1 0x4 PUSH2 0x336 JUMP JUMPDEST PUSH2 0xA6 JUMP JUMPDEST PUSH1 0x0 PUSH2 0x95 DUP3 PUSH2 0x125 JUMP JUMPDEST SWAP3 SWAP2 POP POP JUMP JUMPDEST PUSH2 0xA4 CALLER PUSH2 0x131 JUMP JUMPDEST JUMP JUMPDEST PUSH2 0xAF CALLER PUSH2 0x8A JUMP JUMPDEST PUSH2 0x119 JUMPI PUSH1 0x40 MLOAD PUSH3 0x461BCD PUSH1 0xE5 SHL DUP2 MSTORE PUSH1 0x20 PUSH1 0x4 DUP3 ADD MSTORE PUSH1 0x30 PUSH1 0x24 DUP3 ADD MSTORE PUSH32 0x506175736572526F6C653A2063616C6C657220646F6573206E6F742068617665 PUSH1 0x44 DUP3 ADD MSTORE PUSH16 0x207468652050617573657220726F6C65 PUSH1 0x80 SHL PUSH1 0x64 DUP3 ADD MSTORE PUSH1 0x84 ADD JUMPDEST PUSH1 0x40 MLOAD DUP1 SWAP2 SUB SWAP1 REVERT JUMPDEST PUSH2 0x122 DUP2 PUSH2 0x173 JUMP JUMPDEST POP JUMP JUMPDEST PUSH1 0x0 PUSH2 0x95 DUP2 DUP4 PUSH2 0x1B5 JUMP JUMPDEST PUSH2 0x13C PUSH1 0x0 DUP3 PUSH2 0x238 JUMP JUMPDEST PUSH1 0x40 MLOAD PUSH1 0x1 PUSH1 0x1 PUSH1 0xA0 SHL SUB DUP3 AND SWAP1 PUSH32 0xCD265EBAF09DF2871CC7BD4133404A235BA12EFF2041BB89D9C714A2621C7C7E SWAP1 PUSH1 0x0 SWAP1 LOG2 POP JUMP JUMPDEST PUSH2 0x17E PUSH1 0x0 DUP3 PUSH2 0x2BA JUMP JUMPDEST PUSH1 0x40 MLOAD PUSH1 0x1 PUSH1 0x1 PUSH1 0xA0 SHL SUB DUP3 AND SWAP1 PUSH32 0x6719D08C1888103BEA251A4ED56406BD0C3E69723C8A1686E017E7BBE159B6F8 SWAP1 PUSH1 0x0 SWAP1 LOG2 POP JUMP JUMPDEST PUSH1 0x0 PUSH1 0x1 PUSH1 0x1 PUSH1 0xA0 SHL SUB DUP3 AND PUSH2 0x218 JUMPI PUSH1 0x40 MLOAD PUSH3 0x461BCD PUSH1 0xE5 SHL DUP2 MSTORE PUSH1 0x20 PUSH1 0x4 DUP3 ADD MSTORE PUSH1 0x22 PUSH1 0x24 DUP3 ADD MSTORE PUSH32 0x526F6C65733A206163636F756E7420697320746865207A65726F206164647265 PUSH1 0x44 DUP3 ADD MSTORE PUSH2 0x7373 PUSH1 0xF0 SHL PUSH1 0x64 DUP3 ADD MSTORE PUSH1 0x84 ADD PUSH2 0x110 JUMP JUMPDEST POP PUSH1 0x1 PUSH1 0x1 PUSH1 0xA0 SHL SUB AND PUSH1 0x0 SWAP1 DUP2 MSTORE PUSH1 0x20 SWAP2 SWAP1 SWAP2 MSTORE PUSH1 0x40 SWAP1 KECCAK256 SLOAD PUSH1 0xFF AND SWAP1 JUMP JUMPDEST PUSH2 0x242 DUP3 DUP3 PUSH2 0x1B5 JUMP JUMPDEST PUSH2 0x298 JUMPI PUSH1 0x40 MLOAD PUSH3 0x461BCD PUSH1 0xE5 SHL DUP2 MSTORE PUSH1 0x20 PUSH1 0x4 DUP3 ADD MSTORE PUSH1 0x21 PUSH1 0x24 DUP3 ADD MSTORE PUSH32 0x526F6C65733A206163636F756E7420646F6573206E6F74206861766520726F6C PUSH1 0x44 DUP3 ADD MSTORE PUSH1 0x65 PUSH1 0xF8 SHL PUSH1 0x64 DUP3 ADD MSTORE PUSH1 0x84 ADD PUSH2 0x110 JUMP JUMPDEST PUSH1 0x1 PUSH1 0x1 PUSH1 0xA0 SHL SUB AND PUSH1 0x0 SWAP1 DUP2 MSTORE PUSH1 0x20 SWAP2 SWAP1 SWAP2 MSTORE PUSH1 0x40 SWAP1 KECCAK256 DUP1 SLOAD PUSH1 0xFF NOT AND SWAP1 SSTORE JUMP JUMPDEST PUSH2 0x2C4 DUP3 DUP3 PUSH2 0x1B5 JUMP JUMPDEST ISZERO PUSH2 0x311 JUMPI PUSH1 0x40 MLOAD PUSH3 0x461BCD PUSH1 0xE5 SHL DUP2 MSTORE PUSH1 0x20 PUSH1 0x4 DUP3 ADD MSTORE PUSH1 0x1F PUSH1 0x24 DUP3 ADD MSTORE PUSH32 0x526F6C65733A206163636F756E7420616C72656164792068617320726F6C6500 PUSH1 0x44 DUP3 ADD MSTORE PUSH1 0x64 ADD PUSH2 0x110 JUMP JUMPDEST PUSH1 0x1 PUSH1 0x1 PUSH1 0xA0 SHL SUB AND PUSH1 0x0 SWAP1 DUP2 MSTORE PUSH1 0x20 SWAP2 SWAP1 SWAP2 MSTORE PUSH1 0x40 SWAP1 KECCAK256 DUP1 SLOAD PUSH1 0xFF NOT AND PUSH1 0x1 OR SWAP1 SSTORE JUMP JUMPDEST PUSH1 0x0 PUSH1 0x20 DUP3 DUP5 SUB SLT ISZERO PUSH2 0x348 JUMPI PUSH1 0x0 DUP1 REVERT JUMPDEST DUP2 CALLDATALOAD PUSH1 0x1 PUSH1 0x1 PUSH1 0xA0 SHL SUB DUP2 AND DUP2 EQ PUSH2 0x35F JUMPI PUSH1 0x0 DUP1 REVERT JUMPDEST SWAP4 SWAP3 POP POP POP JUMP INVALID LOG2 PUSH5 0x6970667358 0x22 SLT KECCAK256 0xAC 0xC6 0xD0 CHAINID CALLVALUE 0x2A 0x5E PUSH18 0xD9E68D5824A92D8DC7370818697E6809EC47 DUP10 0xCE 0xBC SWAP13 GT 0x29 PUSH5 0x736F6C6343 STOP ADDMOD SGT STOP CALLER "
				},
				"gasEstimates": {
					"creation": {
						"codeDepositCost": "184800",
						"executionCost": "infinite",
						"totalCost": "infinite"
					},
					"external": {
						"addPauser(address)": "infinite",
						"isPauser(address)": "infinite",
						"renouncePauser()": "27963"
					},
					"internal": {
						"_addPauser(address)": "infinite",
						"_isPauser(address)": "infinite",
						"_removePauser(address)": "infinite"
					}
				},
				"methodIdentifiers": {
					"addPauser(address)": "82dc1ec4",
					"isPauser(address)": "46fbf68e",
					"renouncePauser()": "6ef8d66d"
				}
			},
			"storageLayout": {
				"storage": [
					{
						"astId": 294,
						"contract": "KIP37/PauserRole.sol:PauserRole",
						"label": "_pausers",
						"offset": 0,
						"slot": "0",
						"type": "t_struct(Role)410_storage"
					}
				],
				"types": {
					"t_address": {
						"encoding": "inplace",
						"label": "address",
						"numberOfBytes": "20"
					},
					"t_bool": {
						"encoding": "inplace",
						"label": "bool",
						"numberOfBytes": "1"
					},
					"t_mapping(t_address,t_bool)": {
						"encoding": "mapping",
						"key": "t_address",
						"label": "mapping(address => bool)",
						"numberOfBytes": "32",
						"value": "t_bool"
					},
					"t_struct(Role)410_storage": {
						"encoding": "inplace",
						"label": "struct Roles.Role",
						"members": [
							{
								"astId": 409,
								"contract": "KIP37/PauserRole.sol:PauserRole",
								"label": "bearer",
								"offset": 0,
								"slot": "0",
								"type": "t_mapping(t_address,t_bool)"
							}
						],
						"numberOfBytes": "32"
					}
				}
			},
			"userdoc": {
				"kind": "user",
				"methods": {},
				"version": 1
			}
		}
	}
}