{
	"KIP37/OwnerRole.sol": {
		"OwnerRole": {
			"abi": [
				{
					"inputs": [
						{
							"internalType": "address payable",
							"name": "owner_",
							"type": "address"
						}
					],
					"stateMutability": "nonpayable",
					"type": "constructor"
				},
				{
					"anonymous": false,
					"inputs": [
						{
							"indexed": true,
							"internalType": "address",
							"name": "account",
							"type": "address"
						}
					],
					"name": "MinterAdded",
					"type": "event"
				},
				{
					"anonymous": false,
					"inputs": [
						{
							"indexed": true,
							"internalType": "address",
							"name": "account",
							"type": "address"
						}
					],
					"name": "MinterRemoved",
					"type": "event"
				},
				{
					"anonymous": false,
					"inputs": [
						{
							"indexed": true,
							"internalType": "address",
							"name": "previousOwner",
							"type": "address"
						},
						{
							"indexed": true,
							"internalType": "address",
							"name": "newOwner",
							"type": "address"
						}
					],
					"name": "OwnershipTransferred",
					"type": "event"
				},
				{
					"anonymous": false,
					"inputs": [
						{
							"indexed": true,
							"internalType": "address",
							"name": "account",
							"type": "address"
						}
					],
					"name": "PauserAdded",
					"type": "event"
				},
				{
					"anonymous": false,
					"inputs": [
						{
							"indexed": true,
							"internalType": "address",
							"name": "account",
							"type": "address"
						}
					],
					"name": "PauserRemoved",
					"type": "event"
				},
				{
					"inputs": [
						{
							"internalType": "address payable",
							"name": "newOwner",
							"type": "address"
						}
					],
					"name": "_transferOwnership",
					"outputs": [],
					"stateMutability": "nonpayable",
					"type": "function"
				},
				{
					"inputs": [
						{
							"internalType": "address",
							"name": "account",
							"type": "address"
						}
					],
					"name": "addMinter",
					"outputs": [],
					"stateMutability": "nonpayable",
					"type": "function"
				},
				{
					"inputs": [
						{
							"internalType": "address",
							"name": "account",
							"type": "address"
						}
					],
					"name": "addPauser",
					"outputs": [],
					"stateMutability": "nonpayable",
					"type": "function"
				},
				{
					"inputs": [
						{
							"internalType": "address",
							"name": "account",
							"type": "address"
						}
					],
					"name": "isMinter",
					"outputs": [
						{
							"internalType": "bool",
							"name": "",
							"type": "bool"
						}
					],
					"stateMutability": "view",
					"type": "function"
				},
				{
					"inputs": [
						{
							"internalType": "address",
							"name": "account",
							"type": "address"
						}
					],
					"name": "isOwner",
					"outputs": [
						{
							"internalType": "bool",
							"name": "",
							"type": "bool"
						}
					],
					"stateMutability": "view",
					"type": "function"
				},
				{
					"inputs": [
						{
							"internalType": "address",
							"name": "account",
							"type": "address"
						}
					],
					"name": "isPauser",
					"outputs": [
						{
							"internalType": "bool",
							"name": "",
							"type": "bool"
						}
					],
					"stateMutability": "view",
					"type": "function"
				},
				{
					"inputs": [],
					"name": "owner",
					"outputs": [
						{
							"internalType": "address",
							"name": "",
							"type": "address"
						}
					],
					"stateMutability": "view",
					"type": "function"
				},
				{
					"inputs": [],
					"name": "renounceMinter",
					"outputs": [],
					"stateMutability": "nonpayable",
					"type": "function"
				},
				{
					"inputs": [],
					"name": "renounceOwnership",
					"outputs": [],
					"stateMutability": "nonpayable",
					"type": "function"
				},
				{
					"inputs": [],
					"name": "renouncePauser",
					"outputs": [],
					"stateMutability": "nonpayable",
					"type": "function"
				},
				{
					"inputs": [
						{
							"internalType": "address payable",
							"name": "newOwner",
							"type": "address"
						}
					],
					"name": "transferOwnership",
					"outputs": [],
					"stateMutability": "nonpayable",
					"type": "function"
				}
			],
			"devdoc": {
				"kind": "dev",
				"methods": {},
				"version": 1
			},
			"evm": {
				"assembly": "    /* \"KIP37/OwnerRole.sol\":126:1733  contract OwnerRole is MinterRole, PauserRole {... */\n  mstore(0x40, 0x80)\n    /* \"KIP37/OwnerRole.sol\":432:584  constructor (address payable owner_) MinterRole(owner_) ... */\n  callvalue\n  dup1\n  iszero\n  tag_1\n  jumpi\n  0x00\n  dup1\n  revert\ntag_1:\n  pop\n  mload(0x40)\n  sub(codesize, bytecodeSize)\n  dup1\n  bytecodeSize\n  dup4\n  codecopy\n  dup2\n  add\n  0x40\n  dup2\n  swap1\n  mstore\n  tag_2\n  swap2\n  tag_3\n  jump\t// in\ntag_2:\n    /* \"KIP37/OwnerRole.sol\":542:548  owner_ */\n  dup1\n  dup1\n    /* \"KIP37/MinterRole.sol\":474:491  _addMinter(owner) */\n  tag_8\n    /* \"KIP37/OwnerRole.sol\":542:548  owner_ */\n  dup2\n    /* \"KIP37/MinterRole.sol\":474:484  _addMinter */\n  tag_9\n    /* \"KIP37/MinterRole.sol\":474:491  _addMinter(owner) */\n  jump\t// in\ntag_8:\n  pop\n    /* \"KIP37/PauserRole.sol\":474:491  _addPauser(owner) */\n  tag_11\n    /* \"KIP37/PauserRole.sol\":485:490  owner */\n  dup2\n    /* \"KIP37/PauserRole.sol\":474:484  _addPauser */\n  tag_12\n    /* \"KIP37/PauserRole.sol\":474:491  _addPauser(owner) */\n  jump\t// in\ntag_11:\n  pop\n    /* \"KIP37/OwnerRole.sol\":561:567  _owner */\n  0x02\n    /* \"KIP37/OwnerRole.sol\":561:576  _owner = owner_ */\n  dup1\n  sload\n  not(sub(shl(0xa0, 0x01), 0x01))\n  and\n  sub(shl(0xa0, 0x01), 0x01)\n  swap3\n  swap1\n  swap3\n  and\n  swap2\n  swap1\n  swap2\n  or\n  swap1\n  sstore\n    /* \"KIP37/OwnerRole.sol\":126:1733  contract OwnerRole is MinterRole, PauserRole {... */\n  jump(tag_30)\n    /* \"KIP37/MinterRole.sol\":962:1086  function _addMinter(address account) internal {... */\ntag_9:\n    /* \"KIP37/MinterRole.sol\":1019:1040  _minters.add(account) */\n  tag_16\n    /* \"KIP37/MinterRole.sol\":1019:1027  _minters */\n  0x00\n    /* \"KIP37/MinterRole.sol\":1032:1039  account */\n  dup3\n    /* \"KIP37/MinterRole.sol\":1019:1031  _minters.add */\n  tag_17\n    /* \"KIP37/MinterRole.sol\":1019:1040  _minters.add(account) */\n  jump\t// in\ntag_16:\n    /* \"KIP37/MinterRole.sol\":1058:1078  MinterAdded(account) */\n  mload(0x40)\n  sub(shl(0xa0, 0x01), 0x01)\n  dup3\n  and\n  swap1\n  0x6ae172837ea30b801fbfcdd4108aa1d5bf8ff775444fd70256b44e6bf3dfc3f6\n  swap1\n  0x00\n  swap1\n  log2\n    /* \"KIP37/MinterRole.sol\":962:1086  function _addMinter(address account) internal {... */\n  pop\n  jump\t// out\n    /* \"KIP37/PauserRole.sol\":962:1086  function _addPauser(address account) internal {... */\ntag_12:\n    /* \"KIP37/PauserRole.sol\":1019:1040  _pausers.add(account) */\n  tag_19\n    /* \"KIP37/PauserRole.sol\":1019:1027  _pausers */\n  0x01\n    /* \"KIP37/PauserRole.sol\":1032:1039  account */\n  dup3\n    /* \"KIP37/PauserRole.sol\":1019:1031  _pausers.add */\n  tag_17\n    /* \"KIP37/PauserRole.sol\":1019:1040  _pausers.add(account) */\n  jump\t// in\ntag_19:\n    /* \"KIP37/PauserRole.sol\":1058:1078  PauserAdded(account) */\n  mload(0x40)\n  sub(shl(0xa0, 0x01), 0x01)\n  dup3\n  and\n  swap1\n  0x6719d08c1888103bea251a4ed56406bd0c3e69723c8a1686e017e7bbe159b6f8\n  swap1\n  0x00\n  swap1\n  log2\n    /* \"KIP37/PauserRole.sol\":962:1086  function _addPauser(address account) internal {... */\n  pop\n  jump\t// out\n    /* \"KIP37/Roles.sol\":160:340  function add(Role storage role, address account) internal {... */\ntag_17:\n    /* \"KIP37/Roles.sol\":238:256  has(role, account) */\n  tag_21\n    /* \"KIP37/Roles.sol\":242:246  role */\n  dup3\n    /* \"KIP37/Roles.sol\":248:255  account */\n  dup3\n    /* \"KIP37/Roles.sol\":238:241  has */\n  tag_22\n    /* \"KIP37/Roles.sol\":238:256  has(role, account) */\n  jump\t// in\ntag_21:\n    /* \"KIP37/Roles.sol\":237:256  !has(role, account) */\n  iszero\n    /* \"KIP37/Roles.sol\":229:292  require(!has(role, account), \"Roles: account already has role\") */\n  tag_23\n  jumpi\n  mload(0x40)\n  shl(0xe5, 0x461bcd)\n  dup2\n  mstore\n    /* \"#utility.yul\":519:521   */\n  0x20\n    /* \"KIP37/Roles.sol\":229:292  require(!has(role, account), \"Roles: account already has role\") */\n  0x04\n  dup3\n  add\n    /* \"#utility.yul\":501:522   */\n  mstore\n    /* \"#utility.yul\":558:560   */\n  0x1f\n    /* \"#utility.yul\":538:556   */\n  0x24\n  dup3\n  add\n    /* \"#utility.yul\":531:561   */\n  mstore\n    /* \"#utility.yul\":597:630   */\n  0x526f6c65733a206163636f756e7420616c72656164792068617320726f6c6500\n    /* \"#utility.yul\":577:595   */\n  0x44\n  dup3\n  add\n    /* \"#utility.yul\":570:631   */\n  mstore\n    /* \"#utility.yul\":648:666   */\n  0x64\n  add\n    /* \"KIP37/Roles.sol\":229:292  require(!has(role, account), \"Roles: account already has role\") */\ntag_24:\n  mload(0x40)\n  dup1\n  swap2\n  sub\n  swap1\n  revert\ntag_23:\n  sub(shl(0xa0, 0x01), 0x01)\n    /* \"KIP37/Roles.sol\":305:325  role.bearer[account] */\n  and\n    /* \"KIP37/Roles.sol\":305:316  role.bearer */\n  0x00\n    /* \"KIP37/Roles.sol\":305:325  role.bearer[account] */\n  swap1\n  dup2\n  mstore\n  0x20\n  swap2\n  swap1\n  swap2\n  mstore\n  0x40\n  swap1\n  keccak256\n    /* \"KIP37/Roles.sol\":305:332  role.bearer[account] = true */\n  dup1\n  sload\n  not(0xff)\n  and\n    /* \"KIP37/Roles.sol\":328:332  true */\n  0x01\n    /* \"KIP37/Roles.sol\":305:332  role.bearer[account] = true */\n  or\n  swap1\n  sstore\n    /* \"KIP37/Roles.sol\":160:340  function add(Role storage role, address account) internal {... */\n  jump\t// out\n    /* \"KIP37/Roles.sol\":541:746  function has(Role storage role, address account) internal view returns (bool) {... */\ntag_22:\n    /* \"KIP37/Roles.sol\":613:617  bool */\n  0x00\n  sub(shl(0xa0, 0x01), 0x01)\n    /* \"KIP37/Roles.sol\":638:659  account != address(0) */\n  dup3\n  and\n    /* \"KIP37/Roles.sol\":630:698  require(account != address(0), \"Roles: account is the zero address\") */\n  tag_27\n  jumpi\n  mload(0x40)\n  shl(0xe5, 0x461bcd)\n  dup2\n  mstore\n    /* \"#utility.yul\":879:881   */\n  0x20\n    /* \"KIP37/Roles.sol\":630:698  require(account != address(0), \"Roles: account is the zero address\") */\n  0x04\n  dup3\n  add\n    /* \"#utility.yul\":861:882   */\n  mstore\n    /* \"#utility.yul\":918:920   */\n  0x22\n    /* \"#utility.yul\":898:916   */\n  0x24\n  dup3\n  add\n    /* \"#utility.yul\":891:921   */\n  mstore\n    /* \"#utility.yul\":957:991   */\n  0x526f6c65733a206163636f756e7420697320746865207a65726f206164647265\n    /* \"#utility.yul\":937:955   */\n  0x44\n  dup3\n  add\n    /* \"#utility.yul\":930:992   */\n  mstore\n  shl(0xf0, 0x7373)\n    /* \"#utility.yul\":1008:1026   */\n  0x64\n  dup3\n  add\n    /* \"#utility.yul\":1001:1033   */\n  mstore\n    /* \"#utility.yul\":1050:1069   */\n  0x84\n  add\n    /* \"KIP37/Roles.sol\":630:698  require(account != address(0), \"Roles: account is the zero address\") */\n  tag_24\n    /* \"#utility.yul\":677:1075   */\n  jump\n    /* \"KIP37/Roles.sol\":630:698  require(account != address(0), \"Roles: account is the zero address\") */\ntag_27:\n  pop\n  sub(shl(0xa0, 0x01), 0x01)\n    /* \"KIP37/Roles.sol\":718:738  role.bearer[account] */\n  and\n    /* \"KIP37/Roles.sol\":718:729  role.bearer */\n  0x00\n    /* \"KIP37/Roles.sol\":718:738  role.bearer[account] */\n  swap1\n  dup2\n  mstore\n  0x20\n  swap2\n  swap1\n  swap2\n  mstore\n  0x40\n  swap1\n  keccak256\n  sload\n  0xff\n  and\n  swap1\n    /* \"KIP37/Roles.sol\":541:746  function has(Role storage role, address account) internal view returns (bool) {... */\n  jump\t// out\n    /* \"#utility.yul\":14:312   */\ntag_3:\n    /* \"#utility.yul\":92:98   */\n  0x00\n    /* \"#utility.yul\":145:147   */\n  0x20\n    /* \"#utility.yul\":133:142   */\n  dup3\n    /* \"#utility.yul\":124:131   */\n  dup5\n    /* \"#utility.yul\":120:143   */\n  sub\n    /* \"#utility.yul\":116:148   */\n  slt\n    /* \"#utility.yul\":113:165   */\n  iszero\n  tag_32\n  jumpi\n    /* \"#utility.yul\":161:162   */\n  0x00\n    /* \"#utility.yul\":158:159   */\n  dup1\n    /* \"#utility.yul\":151:163   */\n  revert\n    /* \"#utility.yul\":113:165   */\ntag_32:\n    /* \"#utility.yul\":187:203   */\n  dup2\n  mload\n  sub(shl(0xa0, 0x01), 0x01)\n    /* \"#utility.yul\":232:263   */\n  dup2\n  and\n    /* \"#utility.yul\":222:264   */\n  dup2\n  eq\n    /* \"#utility.yul\":212:282   */\n  tag_33\n  jumpi\n    /* \"#utility.yul\":278:279   */\n  0x00\n    /* \"#utility.yul\":275:276   */\n  dup1\n    /* \"#utility.yul\":268:280   */\n  revert\n    /* \"#utility.yul\":212:282   */\ntag_33:\n    /* \"#utility.yul\":301:306   */\n  swap4\n    /* \"#utility.yul\":14:312   */\n  swap3\n  pop\n  pop\n  pop\n  jump\t// out\n    /* \"#utility.yul\":677:1075   */\ntag_30:\n    /* \"KIP37/OwnerRole.sol\":126:1733  contract OwnerRole is MinterRole, PauserRole {... */\n  dataSize(sub_0)\n  dup1\n  dataOffset(sub_0)\n  0x00\n  codecopy\n  0x00\n  return\nstop\n\nsub_0: assembly {\n        /* \"KIP37/OwnerRole.sol\":126:1733  contract OwnerRole is MinterRole, PauserRole {... */\n      mstore(0x40, 0x80)\n      callvalue\n      dup1\n      iszero\n      tag_1\n      jumpi\n      0x00\n      dup1\n      revert\n    tag_1:\n      pop\n      jumpi(tag_2, lt(calldatasize, 0x04))\n      shr(0xe0, calldataload(0x00))\n      dup1\n      0x8da5cb5b\n      gt\n      tag_14\n      jumpi\n      dup1\n      0x8da5cb5b\n      eq\n      tag_8\n      jumpi\n      dup1\n      0x983b2d56\n      eq\n      tag_9\n      jumpi\n      dup1\n      0x98650275\n      eq\n      tag_10\n      jumpi\n      dup1\n      0xaa271e1a\n      eq\n      tag_11\n      jumpi\n      dup1\n      0xd29d44ee\n      eq\n      tag_12\n      jumpi\n      dup1\n      0xf2fde38b\n      eq\n      tag_13\n      jumpi\n      0x00\n      dup1\n      revert\n    tag_14:\n      dup1\n      0x2f54bf6e\n      eq\n      tag_3\n      jumpi\n      dup1\n      0x46fbf68e\n      eq\n      tag_4\n      jumpi\n      dup1\n      0x6ef8d66d\n      eq\n      tag_5\n      jumpi\n      dup1\n      0x715018a6\n      eq\n      tag_6\n      jumpi\n      dup1\n      0x82dc1ec4\n      eq\n      tag_7\n      jumpi\n    tag_2:\n      0x00\n      dup1\n      revert\n        /* \"KIP37/OwnerRole.sol\":687:793  function isOwner(address account) public view returns (bool) {... */\n    tag_3:\n      tag_15\n      tag_16\n      calldatasize\n      0x04\n      tag_17\n      jump\t// in\n    tag_16:\n        /* \"KIP37/OwnerRole.sol\":778:784  _owner */\n      sload(0x02)\n      sub(shl(0xa0, 0x01), 0x01)\n        /* \"KIP37/OwnerRole.sol\":767:784  account == _owner */\n      swap2\n      dup3\n      and\n        /* \"KIP37/OwnerRole.sol\":778:784  _owner */\n      swap2\n      and\n        /* \"KIP37/OwnerRole.sol\":767:784  account == _owner */\n      eq\n      swap1\n        /* \"KIP37/OwnerRole.sol\":687:793  function isOwner(address account) public view returns (bool) {... */\n      jump\n    tag_15:\n      mload(0x40)\n        /* \"#utility.yul\":567:581   */\n      swap1\n      iszero\n        /* \"#utility.yul\":560:582   */\n      iszero\n        /* \"#utility.yul\":542:583   */\n      dup2\n      mstore\n        /* \"#utility.yul\":530:532   */\n      0x20\n        /* \"#utility.yul\":515:533   */\n      add\n        /* \"KIP37/OwnerRole.sol\":687:793  function isOwner(address account) public view returns (bool) {... */\n    tag_19:\n      mload(0x40)\n      dup1\n      swap2\n      sub\n      swap1\n      return\n        /* \"KIP37/PauserRole.sol\":507:613  function isPauser(address account) public view returns (bool) {... */\n    tag_4:\n      tag_15\n      tag_22\n      calldatasize\n      0x04\n      tag_17\n      jump\t// in\n    tag_22:\n      tag_23\n      jump\t// in\n        /* \"KIP37/PauserRole.sol\":721:798  function renouncePauser() public {... */\n    tag_5:\n      tag_25\n      tag_26\n      jump\t// in\n    tag_25:\n      stop\n        /* \"KIP37/OwnerRole.sol\":801:905  function renounceOwnership() public onlyOwner {... */\n    tag_6:\n      tag_25\n      tag_28\n      jump\t// in\n        /* \"KIP37/PauserRole.sol\":621:713  function addPauser(address account) public onlyPauser {... */\n    tag_7:\n      tag_25\n      tag_30\n      calldatasize\n      0x04\n      tag_17\n      jump\t// in\n    tag_30:\n      tag_31\n      jump\t// in\n        /* \"KIP37/OwnerRole.sol\":592:679  function owner() public view virtual returns (address) {... */\n    tag_8:\n        /* \"KIP37/OwnerRole.sol\":665:671  _owner */\n      sload(0x02)\n        /* \"KIP37/OwnerRole.sol\":592:679  function owner() public view virtual returns (address) {... */\n      mload(0x40)\n      sub(shl(0xa0, 0x01), 0x01)\n        /* \"KIP37/OwnerRole.sol\":665:671  _owner */\n      swap1\n      swap2\n      and\n        /* \"#utility.yul\":740:791   */\n      dup2\n      mstore\n        /* \"#utility.yul\":728:730   */\n      0x20\n        /* \"#utility.yul\":713:731   */\n      add\n        /* \"KIP37/OwnerRole.sol\":592:679  function owner() public view virtual returns (address) {... */\n      tag_19\n        /* \"#utility.yul\":594:797   */\n      jump\n        /* \"KIP37/MinterRole.sol\":621:713  function addMinter(address account) public onlyMinter {... */\n    tag_9:\n      tag_25\n      tag_37\n      calldatasize\n      0x04\n      tag_17\n      jump\t// in\n    tag_37:\n      tag_38\n      jump\t// in\n        /* \"KIP37/MinterRole.sol\":721:798  function renounceMinter() public {... */\n    tag_10:\n      tag_25\n      tag_40\n      jump\t// in\n        /* \"KIP37/MinterRole.sol\":507:613  function isMinter(address account) public view returns (bool) {... */\n    tag_11:\n      tag_15\n      tag_42\n      calldatasize\n      0x04\n      tag_17\n      jump\t// in\n    tag_42:\n      tag_43\n      jump\t// in\n        /* \"KIP37/OwnerRole.sol\":1231:1730  function _transferOwnership(address payable newOwner) public onlyOwner {... */\n    tag_12:\n      tag_25\n      tag_46\n      calldatasize\n      0x04\n      tag_17\n      jump\t// in\n    tag_46:\n      tag_48\n      jump\t// in\n        /* \"KIP37/OwnerRole.sol\":913:1191  function transferOwnership(address payable newOwner) public onlyOwner {... */\n    tag_13:\n      tag_25\n      tag_50\n      calldatasize\n      0x04\n      tag_17\n      jump\t// in\n    tag_50:\n      tag_51\n      jump\t// in\n        /* \"KIP37/PauserRole.sol\":507:613  function isPauser(address account) public view returns (bool) {... */\n    tag_23:\n        /* \"KIP37/PauserRole.sol\":563:567  bool */\n      0x00\n        /* \"KIP37/PauserRole.sol\":587:605  _isPauser(account) */\n      tag_54\n        /* \"KIP37/PauserRole.sol\":597:604  account */\n      dup3\n        /* \"KIP37/PauserRole.sol\":587:596  _isPauser */\n      tag_55\n        /* \"KIP37/PauserRole.sol\":587:605  _isPauser(account) */\n      jump\t// in\n    tag_54:\n        /* \"KIP37/PauserRole.sol\":580:605  return _isPauser(account) */\n      swap3\n        /* \"KIP37/PauserRole.sol\":507:613  function isPauser(address account) public view returns (bool) {... */\n      swap2\n      pop\n      pop\n      jump\t// out\n        /* \"KIP37/PauserRole.sol\":721:798  function renouncePauser() public {... */\n    tag_26:\n        /* \"KIP37/PauserRole.sol\":765:790  _removePauser(msg.sender) */\n      tag_57\n        /* \"KIP37/PauserRole.sol\":779:789  msg.sender */\n      caller\n        /* \"KIP37/PauserRole.sol\":765:778  _removePauser */\n      tag_58\n        /* \"KIP37/PauserRole.sol\":765:790  _removePauser(msg.sender) */\n      jump\t// in\n    tag_57:\n        /* \"KIP37/PauserRole.sol\":721:798  function renouncePauser() public {... */\n      jump\t// out\n        /* \"KIP37/OwnerRole.sol\":801:905  function renounceOwnership() public onlyOwner {... */\n    tag_28:\n        /* \"KIP37/OwnerRole.sol\":363:369  _owner */\n      and(sub(shl(0xa0, 0x01), 0x01), sload(0x02))\n        /* \"KIP37/OwnerRole.sol\":349:359  msg.sender */\n      caller\n        /* \"KIP37/OwnerRole.sol\":349:369  msg.sender == _owner */\n      eq\n        /* \"KIP37/OwnerRole.sol\":341:404  require(msg.sender == _owner, \"OwnerRole: caller is not owner\") */\n      tag_60\n      jumpi\n      mload(0x40)\n      shl(0xe5, 0x461bcd)\n      dup2\n      mstore\n      0x04\n      add\n      tag_61\n      swap1\n      tag_62\n      jump\t// in\n    tag_61:\n      mload(0x40)\n      dup1\n      swap2\n      sub\n      swap1\n      revert\n    tag_60:\n        /* \"KIP37/OwnerRole.sol\":858:897  _transferOwnership(payable(address(0))) */\n      tag_57\n        /* \"KIP37/OwnerRole.sol\":893:894  0 */\n      0x00\n        /* \"KIP37/OwnerRole.sol\":858:876  _transferOwnership */\n      tag_48\n        /* \"KIP37/OwnerRole.sol\":858:897  _transferOwnership(payable(address(0))) */\n      jump\t// in\n        /* \"KIP37/PauserRole.sol\":621:713  function addPauser(address account) public onlyPauser {... */\n    tag_31:\n        /* \"KIP37/PauserRole.sol\":334:354  isPauser(msg.sender) */\n      tag_66\n        /* \"KIP37/PauserRole.sol\":343:353  msg.sender */\n      caller\n        /* \"KIP37/PauserRole.sol\":334:342  isPauser */\n      tag_23\n        /* \"KIP37/PauserRole.sol\":334:354  isPauser(msg.sender) */\n      jump\t// in\n    tag_66:\n        /* \"KIP37/PauserRole.sol\":326:407  require(isPauser(msg.sender), \"PauserRole: caller does not have the Pauser role\") */\n      tag_67\n      jumpi\n      mload(0x40)\n      shl(0xe5, 0x461bcd)\n      dup2\n      mstore\n        /* \"#utility.yul\":1623:1625   */\n      0x20\n        /* \"KIP37/PauserRole.sol\":326:407  require(isPauser(msg.sender), \"PauserRole: caller does not have the Pauser role\") */\n      0x04\n      dup3\n      add\n        /* \"#utility.yul\":1605:1626   */\n      mstore\n        /* \"#utility.yul\":1662:1664   */\n      0x30\n        /* \"#utility.yul\":1642:1660   */\n      0x24\n      dup3\n      add\n        /* \"#utility.yul\":1635:1665   */\n      mstore\n        /* \"#utility.yul\":1701:1735   */\n      0x506175736572526f6c653a2063616c6c657220646f6573206e6f742068617665\n        /* \"#utility.yul\":1681:1699   */\n      0x44\n      dup3\n      add\n        /* \"#utility.yul\":1674:1736   */\n      mstore\n      shl(0x80, 0x207468652050617573657220726f6c65)\n        /* \"#utility.yul\":1752:1770   */\n      0x64\n      dup3\n      add\n        /* \"#utility.yul\":1745:1791   */\n      mstore\n        /* \"#utility.yul\":1808:1827   */\n      0x84\n      add\n        /* \"KIP37/PauserRole.sol\":326:407  require(isPauser(msg.sender), \"PauserRole: caller does not have the Pauser role\") */\n      tag_61\n        /* \"#utility.yul\":1421:1833   */\n      jump\n        /* \"KIP37/PauserRole.sol\":326:407  require(isPauser(msg.sender), \"PauserRole: caller does not have the Pauser role\") */\n    tag_67:\n        /* \"KIP37/PauserRole.sol\":686:705  _addPauser(account) */\n      tag_71\n        /* \"KIP37/PauserRole.sol\":697:704  account */\n      dup2\n        /* \"KIP37/PauserRole.sol\":686:696  _addPauser */\n      tag_72\n        /* \"KIP37/PauserRole.sol\":686:705  _addPauser(account) */\n      jump\t// in\n    tag_71:\n        /* \"KIP37/PauserRole.sol\":621:713  function addPauser(address account) public onlyPauser {... */\n      pop\n      jump\t// out\n        /* \"KIP37/MinterRole.sol\":621:713  function addMinter(address account) public onlyMinter {... */\n    tag_38:\n        /* \"KIP37/MinterRole.sol\":334:354  isMinter(msg.sender) */\n      tag_75\n        /* \"KIP37/MinterRole.sol\":343:353  msg.sender */\n      caller\n        /* \"KIP37/MinterRole.sol\":334:342  isMinter */\n      tag_43\n        /* \"KIP37/MinterRole.sol\":334:354  isMinter(msg.sender) */\n      jump\t// in\n    tag_75:\n        /* \"KIP37/MinterRole.sol\":326:407  require(isMinter(msg.sender), \"MinterRole: caller does not have the Minter role\") */\n      tag_76\n      jumpi\n      mload(0x40)\n      shl(0xe5, 0x461bcd)\n      dup2\n      mstore\n        /* \"#utility.yul\":2040:2042   */\n      0x20\n        /* \"KIP37/MinterRole.sol\":326:407  require(isMinter(msg.sender), \"MinterRole: caller does not have the Minter role\") */\n      0x04\n      dup3\n      add\n        /* \"#utility.yul\":2022:2043   */\n      mstore\n        /* \"#utility.yul\":2079:2081   */\n      0x30\n        /* \"#utility.yul\":2059:2077   */\n      0x24\n      dup3\n      add\n        /* \"#utility.yul\":2052:2082   */\n      mstore\n        /* \"#utility.yul\":2118:2152   */\n      0x4d696e746572526f6c653a2063616c6c657220646f6573206e6f742068617665\n        /* \"#utility.yul\":2098:2116   */\n      0x44\n      dup3\n      add\n        /* \"#utility.yul\":2091:2153   */\n      mstore\n      shl(0x80, 0x20746865204d696e74657220726f6c65)\n        /* \"#utility.yul\":2169:2187   */\n      0x64\n      dup3\n      add\n        /* \"#utility.yul\":2162:2208   */\n      mstore\n        /* \"#utility.yul\":2225:2244   */\n      0x84\n      add\n        /* \"KIP37/MinterRole.sol\":326:407  require(isMinter(msg.sender), \"MinterRole: caller does not have the Minter role\") */\n      tag_61\n        /* \"#utility.yul\":1838:2250   */\n      jump\n        /* \"KIP37/MinterRole.sol\":326:407  require(isMinter(msg.sender), \"MinterRole: caller does not have the Minter role\") */\n    tag_76:\n        /* \"KIP37/MinterRole.sol\":686:705  _addMinter(account) */\n      tag_71\n        /* \"KIP37/MinterRole.sol\":697:704  account */\n      dup2\n        /* \"KIP37/MinterRole.sol\":686:696  _addMinter */\n      tag_81\n        /* \"KIP37/MinterRole.sol\":686:705  _addMinter(account) */\n      jump\t// in\n        /* \"KIP37/MinterRole.sol\":721:798  function renounceMinter() public {... */\n    tag_40:\n        /* \"KIP37/MinterRole.sol\":765:790  _removeMinter(msg.sender) */\n      tag_57\n        /* \"KIP37/MinterRole.sol\":779:789  msg.sender */\n      caller\n        /* \"KIP37/MinterRole.sol\":765:778  _removeMinter */\n      tag_84\n        /* \"KIP37/MinterRole.sol\":765:790  _removeMinter(msg.sender) */\n      jump\t// in\n        /* \"KIP37/MinterRole.sol\":507:613  function isMinter(address account) public view returns (bool) {... */\n    tag_43:\n        /* \"KIP37/MinterRole.sol\":563:567  bool */\n      0x00\n        /* \"KIP37/MinterRole.sol\":587:605  _isMinter(account) */\n      tag_54\n        /* \"KIP37/MinterRole.sol\":597:604  account */\n      dup3\n        /* \"KIP37/MinterRole.sol\":587:596  _isMinter */\n      tag_87\n        /* \"KIP37/MinterRole.sol\":587:605  _isMinter(account) */\n      jump\t// in\n        /* \"KIP37/OwnerRole.sol\":1231:1730  function _transferOwnership(address payable newOwner) public onlyOwner {... */\n    tag_48:\n        /* \"KIP37/OwnerRole.sol\":363:369  _owner */\n      and(sub(shl(0xa0, 0x01), 0x01), sload(0x02))\n        /* \"KIP37/OwnerRole.sol\":349:359  msg.sender */\n      caller\n        /* \"KIP37/OwnerRole.sol\":349:369  msg.sender == _owner */\n      eq\n        /* \"KIP37/OwnerRole.sol\":341:404  require(msg.sender == _owner, \"OwnerRole: caller is not owner\") */\n      tag_89\n      jumpi\n      mload(0x40)\n      shl(0xe5, 0x461bcd)\n      dup2\n      mstore\n      0x04\n      add\n      tag_61\n      swap1\n      tag_62\n      jump\t// in\n    tag_89:\n        /* \"KIP37/OwnerRole.sol\":1318:1337  _isMinter(newOwner) */\n      tag_92\n        /* \"KIP37/OwnerRole.sol\":1328:1336  newOwner */\n      dup2\n        /* \"KIP37/OwnerRole.sol\":1318:1327  _isMinter */\n      tag_87\n        /* \"KIP37/OwnerRole.sol\":1318:1337  _isMinter(newOwner) */\n      jump\t// in\n    tag_92:\n        /* \"KIP37/OwnerRole.sol\":1313:1386  if (!_isMinter(newOwner)) {... */\n      tag_94\n      jumpi\n        /* \"KIP37/OwnerRole.sol\":1354:1374  _addMinter(newOwner) */\n      tag_94\n        /* \"KIP37/OwnerRole.sol\":1365:1373  newOwner */\n      dup2\n        /* \"KIP37/OwnerRole.sol\":1354:1364  _addMinter */\n      tag_81\n        /* \"KIP37/OwnerRole.sol\":1354:1374  _addMinter(newOwner) */\n      jump\t// in\n    tag_94:\n        /* \"KIP37/OwnerRole.sol\":1412:1418  _owner */\n      sload(0x02)\n        /* \"KIP37/OwnerRole.sol\":1402:1419  _isMinter(_owner) */\n      tag_95\n      swap1\n      sub(shl(0xa0, 0x01), 0x01)\n        /* \"KIP37/OwnerRole.sol\":1412:1418  _owner */\n      and\n        /* \"KIP37/OwnerRole.sol\":1402:1411  _isMinter */\n      tag_87\n        /* \"KIP37/OwnerRole.sol\":1402:1419  _isMinter(_owner) */\n      jump\t// in\n    tag_95:\n        /* \"KIP37/OwnerRole.sol\":1398:1469  if (_isMinter(_owner)) {... */\n      iszero\n      tag_97\n      jumpi\n        /* \"KIP37/OwnerRole.sol\":1450:1456  _owner */\n      sload(0x02)\n        /* \"KIP37/OwnerRole.sol\":1436:1457  _removeMinter(_owner) */\n      tag_97\n      swap1\n      sub(shl(0xa0, 0x01), 0x01)\n        /* \"KIP37/OwnerRole.sol\":1450:1456  _owner */\n      and\n        /* \"KIP37/OwnerRole.sol\":1436:1449  _removeMinter */\n      tag_84\n        /* \"KIP37/OwnerRole.sol\":1436:1457  _removeMinter(_owner) */\n      jump\t// in\n    tag_97:\n        /* \"KIP37/OwnerRole.sol\":1486:1505  _isPauser(newOwner) */\n      tag_98\n        /* \"KIP37/OwnerRole.sol\":1496:1504  newOwner */\n      dup2\n        /* \"KIP37/OwnerRole.sol\":1486:1495  _isPauser */\n      tag_55\n        /* \"KIP37/OwnerRole.sol\":1486:1505  _isPauser(newOwner) */\n      jump\t// in\n    tag_98:\n        /* \"KIP37/OwnerRole.sol\":1481:1554  if (!_isPauser(newOwner)) {... */\n      tag_100\n      jumpi\n        /* \"KIP37/OwnerRole.sol\":1522:1542  _addPauser(newOwner) */\n      tag_100\n        /* \"KIP37/OwnerRole.sol\":1533:1541  newOwner */\n      dup2\n        /* \"KIP37/OwnerRole.sol\":1522:1532  _addPauser */\n      tag_72\n        /* \"KIP37/OwnerRole.sol\":1522:1542  _addPauser(newOwner) */\n      jump\t// in\n    tag_100:\n        /* \"KIP37/OwnerRole.sol\":1580:1586  _owner */\n      sload(0x02)\n        /* \"KIP37/OwnerRole.sol\":1570:1587  _isPauser(_owner) */\n      tag_101\n      swap1\n      sub(shl(0xa0, 0x01), 0x01)\n        /* \"KIP37/OwnerRole.sol\":1580:1586  _owner */\n      and\n        /* \"KIP37/OwnerRole.sol\":1570:1579  _isPauser */\n      tag_55\n        /* \"KIP37/OwnerRole.sol\":1570:1587  _isPauser(_owner) */\n      jump\t// in\n    tag_101:\n        /* \"KIP37/OwnerRole.sol\":1566:1637  if (_isPauser(_owner)) {... */\n      iszero\n      tag_103\n      jumpi\n        /* \"KIP37/OwnerRole.sol\":1618:1624  _owner */\n      sload(0x02)\n        /* \"KIP37/OwnerRole.sol\":1604:1625  _removePauser(_owner) */\n      tag_103\n      swap1\n      sub(shl(0xa0, 0x01), 0x01)\n        /* \"KIP37/OwnerRole.sol\":1618:1624  _owner */\n      and\n        /* \"KIP37/OwnerRole.sol\":1604:1617  _removePauser */\n      tag_58\n        /* \"KIP37/OwnerRole.sol\":1604:1625  _removePauser(_owner) */\n      jump\t// in\n    tag_103:\n        /* \"KIP37/OwnerRole.sol\":1675:1681  _owner */\n      sload(0x02)\n        /* \"KIP37/OwnerRole.sol\":1654:1692  OwnershipTransferred(_owner, newOwner) */\n      mload(0x40)\n      sub(shl(0xa0, 0x01), 0x01)\n      dup1\n      dup5\n      and\n      swap3\n        /* \"KIP37/OwnerRole.sol\":1675:1681  _owner */\n      and\n      swap1\n        /* \"KIP37/OwnerRole.sol\":1654:1692  OwnershipTransferred(_owner, newOwner) */\n      0x8be0079c531659141344cd1fd0a4f28419497f9722a3daafe3b4186f6b6457e0\n      swap1\n        /* \"KIP37/OwnerRole.sol\":1675:1681  _owner */\n      0x00\n      swap1\n        /* \"KIP37/OwnerRole.sol\":1654:1692  OwnershipTransferred(_owner, newOwner) */\n      log3\n        /* \"KIP37/OwnerRole.sol\":1705:1711  _owner */\n      0x02\n        /* \"KIP37/OwnerRole.sol\":1705:1722  _owner = newOwner */\n      dup1\n      sload\n      not(sub(shl(0xa0, 0x01), 0x01))\n      and\n      sub(shl(0xa0, 0x01), 0x01)\n      swap3\n      swap1\n      swap3\n      and\n      swap2\n      swap1\n      swap2\n      or\n      swap1\n      sstore\n        /* \"KIP37/OwnerRole.sol\":1231:1730  function _transferOwnership(address payable newOwner) public onlyOwner {... */\n      jump\t// out\n        /* \"KIP37/OwnerRole.sol\":913:1191  function transferOwnership(address payable newOwner) public onlyOwner {... */\n    tag_51:\n        /* \"KIP37/OwnerRole.sol\":363:369  _owner */\n      and(sub(shl(0xa0, 0x01), 0x01), sload(0x02))\n        /* \"KIP37/OwnerRole.sol\":349:359  msg.sender */\n      caller\n        /* \"KIP37/OwnerRole.sol\":349:369  msg.sender == _owner */\n      eq\n        /* \"KIP37/OwnerRole.sol\":341:404  require(msg.sender == _owner, \"OwnerRole: caller is not owner\") */\n      tag_105\n      jumpi\n      mload(0x40)\n      shl(0xe5, 0x461bcd)\n      dup2\n      mstore\n      0x04\n      add\n      tag_61\n      swap1\n      tag_62\n      jump\t// in\n    tag_105:\n      sub(shl(0xa0, 0x01), 0x01)\n        /* \"KIP37/OwnerRole.sol\":1002:1024  newOwner != address(0) */\n      dup2\n      and\n        /* \"KIP37/OwnerRole.sol\":994:1069  require(newOwner != address(0), \"OwnerRole: new owner is the zero address\") */\n      tag_108\n      jumpi\n      mload(0x40)\n      shl(0xe5, 0x461bcd)\n      dup2\n      mstore\n        /* \"#utility.yul\":2457:2459   */\n      0x20\n        /* \"KIP37/OwnerRole.sol\":994:1069  require(newOwner != address(0), \"OwnerRole: new owner is the zero address\") */\n      0x04\n      dup3\n      add\n        /* \"#utility.yul\":2439:2460   */\n      mstore\n        /* \"#utility.yul\":2496:2498   */\n      0x28\n        /* \"#utility.yul\":2476:2494   */\n      0x24\n      dup3\n      add\n        /* \"#utility.yul\":2469:2499   */\n      mstore\n        /* \"#utility.yul\":2535:2569   */\n      0x4f776e6572526f6c653a206e6577206f776e657220697320746865207a65726f\n        /* \"#utility.yul\":2515:2533   */\n      0x44\n      dup3\n      add\n        /* \"#utility.yul\":2508:2570   */\n      mstore\n      shl(0xc0, 0x2061646472657373)\n        /* \"#utility.yul\":2586:2604   */\n      0x64\n      dup3\n      add\n        /* \"#utility.yul\":2579:2617   */\n      mstore\n        /* \"#utility.yul\":2634:2653   */\n      0x84\n      add\n        /* \"KIP37/OwnerRole.sol\":994:1069  require(newOwner != address(0), \"OwnerRole: new owner is the zero address\") */\n      tag_61\n        /* \"#utility.yul\":2255:2659   */\n      jump\n        /* \"KIP37/OwnerRole.sol\":994:1069  require(newOwner != address(0), \"OwnerRole: new owner is the zero address\") */\n    tag_108:\n        /* \"KIP37/OwnerRole.sol\":1100:1106  _owner */\n      sload(0x02)\n      sub(shl(0xa0, 0x01), 0x01)\n      swap1\n      dup2\n      and\n        /* \"KIP37/OwnerRole.sol\":1088:1106  newOwner != _owner */\n      swap1\n      dup3\n      and\n      sub\n        /* \"KIP37/OwnerRole.sol\":1080:1142  require(newOwner != _owner, \"OwnerRole: already is the owner\") */\n      tag_111\n      jumpi\n      mload(0x40)\n      shl(0xe5, 0x461bcd)\n      dup2\n      mstore\n        /* \"#utility.yul\":2866:2868   */\n      0x20\n        /* \"KIP37/OwnerRole.sol\":1080:1142  require(newOwner != _owner, \"OwnerRole: already is the owner\") */\n      0x04\n      dup3\n      add\n        /* \"#utility.yul\":2848:2869   */\n      mstore\n        /* \"#utility.yul\":2905:2907   */\n      0x1f\n        /* \"#utility.yul\":2885:2903   */\n      0x24\n      dup3\n      add\n        /* \"#utility.yul\":2878:2908   */\n      mstore\n        /* \"#utility.yul\":2944:2977   */\n      0x4f776e6572526f6c653a20616c726561647920697320746865206f776e657200\n        /* \"#utility.yul\":2924:2942   */\n      0x44\n      dup3\n      add\n        /* \"#utility.yul\":2917:2978   */\n      mstore\n        /* \"#utility.yul\":2995:3013   */\n      0x64\n      add\n        /* \"KIP37/OwnerRole.sol\":1080:1142  require(newOwner != _owner, \"OwnerRole: already is the owner\") */\n      tag_61\n        /* \"#utility.yul\":2664:3019   */\n      jump\n        /* \"KIP37/OwnerRole.sol\":1080:1142  require(newOwner != _owner, \"OwnerRole: already is the owner\") */\n    tag_111:\n        /* \"KIP37/OwnerRole.sol\":1155:1183  _transferOwnership(newOwner) */\n      tag_71\n        /* \"KIP37/OwnerRole.sol\":1174:1182  newOwner */\n      dup2\n        /* \"KIP37/OwnerRole.sol\":1155:1173  _transferOwnership */\n      tag_48\n        /* \"KIP37/OwnerRole.sol\":1155:1183  _transferOwnership(newOwner) */\n      jump\t// in\n        /* \"KIP37/PauserRole.sol\":842:954  function _isPauser(address account) internal view returns (bool) {... */\n    tag_55:\n        /* \"KIP37/PauserRole.sol\":901:905  bool */\n      0x00\n        /* \"KIP37/PauserRole.sol\":925:946  _pausers.has(account) */\n      tag_54\n        /* \"KIP37/PauserRole.sol\":925:933  _pausers */\n      0x01\n        /* \"KIP37/PauserRole.sol\":938:945  account */\n      dup4\n        /* \"KIP37/PauserRole.sol\":925:937  _pausers.has */\n      tag_117\n        /* \"KIP37/PauserRole.sol\":925:946  _pausers.has(account) */\n      jump\t// in\n        /* \"KIP37/PauserRole.sol\":1094:1226  function _removePauser(address account) internal {... */\n    tag_58:\n        /* \"KIP37/PauserRole.sol\":1154:1178  _pausers.remove(account) */\n      tag_119\n        /* \"KIP37/PauserRole.sol\":1154:1162  _pausers */\n      0x01\n        /* \"KIP37/PauserRole.sol\":1170:1177  account */\n      dup3\n        /* \"KIP37/PauserRole.sol\":1154:1169  _pausers.remove */\n      tag_120\n        /* \"KIP37/PauserRole.sol\":1154:1178  _pausers.remove(account) */\n      jump\t// in\n    tag_119:\n        /* \"KIP37/PauserRole.sol\":1196:1218  PauserRemoved(account) */\n      mload(0x40)\n      sub(shl(0xa0, 0x01), 0x01)\n      dup3\n      and\n      swap1\n      0xcd265ebaf09df2871cc7bd4133404a235ba12eff2041bb89d9c714a2621c7c7e\n      swap1\n      0x00\n      swap1\n      log2\n        /* \"KIP37/PauserRole.sol\":1094:1226  function _removePauser(address account) internal {... */\n      pop\n      jump\t// out\n        /* \"KIP37/PauserRole.sol\":962:1086  function _addPauser(address account) internal {... */\n    tag_72:\n        /* \"KIP37/PauserRole.sol\":1019:1040  _pausers.add(account) */\n      tag_122\n        /* \"KIP37/PauserRole.sol\":1019:1027  _pausers */\n      0x01\n        /* \"KIP37/PauserRole.sol\":1032:1039  account */\n      dup3\n        /* \"KIP37/PauserRole.sol\":1019:1031  _pausers.add */\n      tag_123\n        /* \"KIP37/PauserRole.sol\":1019:1040  _pausers.add(account) */\n      jump\t// in\n    tag_122:\n        /* \"KIP37/PauserRole.sol\":1058:1078  PauserAdded(account) */\n      mload(0x40)\n      sub(shl(0xa0, 0x01), 0x01)\n      dup3\n      and\n      swap1\n      0x6719d08c1888103bea251a4ed56406bd0c3e69723c8a1686e017e7bbe159b6f8\n      swap1\n      0x00\n      swap1\n      log2\n        /* \"KIP37/PauserRole.sol\":962:1086  function _addPauser(address account) internal {... */\n      pop\n      jump\t// out\n        /* \"KIP37/MinterRole.sol\":962:1086  function _addMinter(address account) internal {... */\n    tag_81:\n        /* \"KIP37/MinterRole.sol\":1019:1040  _minters.add(account) */\n      tag_125\n        /* \"KIP37/MinterRole.sol\":1019:1027  _minters */\n      0x00\n        /* \"KIP37/MinterRole.sol\":1032:1039  account */\n      dup3\n        /* \"KIP37/MinterRole.sol\":1019:1031  _minters.add */\n      tag_123\n        /* \"KIP37/MinterRole.sol\":1019:1040  _minters.add(account) */\n      jump\t// in\n    tag_125:\n        /* \"KIP37/MinterRole.sol\":1058:1078  MinterAdded(account) */\n      mload(0x40)\n      sub(shl(0xa0, 0x01), 0x01)\n      dup3\n      and\n      swap1\n      0x6ae172837ea30b801fbfcdd4108aa1d5bf8ff775444fd70256b44e6bf3dfc3f6\n      swap1\n      0x00\n      swap1\n      log2\n        /* \"KIP37/MinterRole.sol\":962:1086  function _addMinter(address account) internal {... */\n      pop\n      jump\t// out\n        /* \"KIP37/MinterRole.sol\":1094:1226  function _removeMinter(address account) internal {... */\n    tag_84:\n        /* \"KIP37/MinterRole.sol\":1154:1178  _minters.remove(account) */\n      tag_127\n        /* \"KIP37/MinterRole.sol\":1154:1162  _minters */\n      0x00\n        /* \"KIP37/MinterRole.sol\":1170:1177  account */\n      dup3\n        /* \"KIP37/MinterRole.sol\":1154:1169  _minters.remove */\n      tag_120\n        /* \"KIP37/MinterRole.sol\":1154:1178  _minters.remove(account) */\n      jump\t// in\n    tag_127:\n        /* \"KIP37/MinterRole.sol\":1196:1218  MinterRemoved(account) */\n      mload(0x40)\n      sub(shl(0xa0, 0x01), 0x01)\n      dup3\n      and\n      swap1\n      0xe94479a9f7e1952cc78f2d6baab678adc1b772d936c6583def489e524cb66692\n      swap1\n      0x00\n      swap1\n      log2\n        /* \"KIP37/MinterRole.sol\":1094:1226  function _removeMinter(address account) internal {... */\n      pop\n      jump\t// out\n        /* \"KIP37/MinterRole.sol\":842:954  function _isMinter(address account) internal view returns (bool) {... */\n    tag_87:\n        /* \"KIP37/MinterRole.sol\":901:905  bool */\n      0x00\n        /* \"KIP37/MinterRole.sol\":925:946  _minters.has(account) */\n      tag_54\n        /* \"KIP37/MinterRole.sol\":901:905  bool */\n      dup2\n        /* \"KIP37/MinterRole.sol\":938:945  account */\n      dup4\n        /* \"KIP37/Roles.sol\":541:746  function has(Role storage role, address account) internal view returns (bool) {... */\n    tag_117:\n        /* \"KIP37/Roles.sol\":613:617  bool */\n      0x00\n      sub(shl(0xa0, 0x01), 0x01)\n        /* \"KIP37/Roles.sol\":638:659  account != address(0) */\n      dup3\n      and\n        /* \"KIP37/Roles.sol\":630:698  require(account != address(0), \"Roles: account is the zero address\") */\n      tag_131\n      jumpi\n      mload(0x40)\n      shl(0xe5, 0x461bcd)\n      dup2\n      mstore\n        /* \"#utility.yul\":3226:3228   */\n      0x20\n        /* \"KIP37/Roles.sol\":630:698  require(account != address(0), \"Roles: account is the zero address\") */\n      0x04\n      dup3\n      add\n        /* \"#utility.yul\":3208:3229   */\n      mstore\n        /* \"#utility.yul\":3265:3267   */\n      0x22\n        /* \"#utility.yul\":3245:3263   */\n      0x24\n      dup3\n      add\n        /* \"#utility.yul\":3238:3268   */\n      mstore\n        /* \"#utility.yul\":3304:3338   */\n      0x526f6c65733a206163636f756e7420697320746865207a65726f206164647265\n        /* \"#utility.yul\":3284:3302   */\n      0x44\n      dup3\n      add\n        /* \"#utility.yul\":3277:3339   */\n      mstore\n      shl(0xf0, 0x7373)\n        /* \"#utility.yul\":3355:3373   */\n      0x64\n      dup3\n      add\n        /* \"#utility.yul\":3348:3380   */\n      mstore\n        /* \"#utility.yul\":3397:3416   */\n      0x84\n      add\n        /* \"KIP37/Roles.sol\":630:698  require(account != address(0), \"Roles: account is the zero address\") */\n      tag_61\n        /* \"#utility.yul\":3024:3422   */\n      jump\n        /* \"KIP37/Roles.sol\":630:698  require(account != address(0), \"Roles: account is the zero address\") */\n    tag_131:\n      pop\n      sub(shl(0xa0, 0x01), 0x01)\n        /* \"KIP37/Roles.sol\":718:738  role.bearer[account] */\n      and\n        /* \"KIP37/Roles.sol\":718:729  role.bearer */\n      0x00\n        /* \"KIP37/Roles.sol\":718:738  role.bearer[account] */\n      swap1\n      dup2\n      mstore\n      0x20\n      swap2\n      swap1\n      swap2\n      mstore\n      0x40\n      swap1\n      keccak256\n      sload\n      0xff\n      and\n      swap1\n        /* \"KIP37/Roles.sol\":541:746  function has(Role storage role, address account) internal view returns (bool) {... */\n      jump\t// out\n        /* \"KIP37/Roles.sol\":348:533  function remove(Role storage role, address account) internal {... */\n    tag_120:\n        /* \"KIP37/Roles.sol\":428:446  has(role, account) */\n      tag_135\n        /* \"KIP37/Roles.sol\":432:436  role */\n      dup3\n        /* \"KIP37/Roles.sol\":438:445  account */\n      dup3\n        /* \"KIP37/Roles.sol\":428:431  has */\n      tag_117\n        /* \"KIP37/Roles.sol\":428:446  has(role, account) */\n      jump\t// in\n    tag_135:\n        /* \"KIP37/Roles.sol\":420:484  require(has(role, account), \"Roles: account does not have role\") */\n      tag_136\n      jumpi\n      mload(0x40)\n      shl(0xe5, 0x461bcd)\n      dup2\n      mstore\n        /* \"#utility.yul\":3629:3631   */\n      0x20\n        /* \"KIP37/Roles.sol\":420:484  require(has(role, account), \"Roles: account does not have role\") */\n      0x04\n      dup3\n      add\n        /* \"#utility.yul\":3611:3632   */\n      mstore\n        /* \"#utility.yul\":3668:3670   */\n      0x21\n        /* \"#utility.yul\":3648:3666   */\n      0x24\n      dup3\n      add\n        /* \"#utility.yul\":3641:3671   */\n      mstore\n        /* \"#utility.yul\":3707:3741   */\n      0x526f6c65733a206163636f756e7420646f6573206e6f74206861766520726f6c\n        /* \"#utility.yul\":3687:3705   */\n      0x44\n      dup3\n      add\n        /* \"#utility.yul\":3680:3742   */\n      mstore\n      shl(0xf8, 0x65)\n        /* \"#utility.yul\":3758:3776   */\n      0x64\n      dup3\n      add\n        /* \"#utility.yul\":3751:3782   */\n      mstore\n        /* \"#utility.yul\":3799:3818   */\n      0x84\n      add\n        /* \"KIP37/Roles.sol\":420:484  require(has(role, account), \"Roles: account does not have role\") */\n      tag_61\n        /* \"#utility.yul\":3427:3824   */\n      jump\n        /* \"KIP37/Roles.sol\":420:484  require(has(role, account), \"Roles: account does not have role\") */\n    tag_136:\n      sub(shl(0xa0, 0x01), 0x01)\n        /* \"KIP37/Roles.sol\":497:517  role.bearer[account] */\n      and\n        /* \"KIP37/Roles.sol\":520:525  false */\n      0x00\n        /* \"KIP37/Roles.sol\":497:517  role.bearer[account] */\n      swap1\n      dup2\n      mstore\n      0x20\n      swap2\n      swap1\n      swap2\n      mstore\n      0x40\n      swap1\n      keccak256\n        /* \"KIP37/Roles.sol\":497:525  role.bearer[account] = false */\n      dup1\n      sload\n      not(0xff)\n      and\n      swap1\n      sstore\n        /* \"KIP37/Roles.sol\":348:533  function remove(Role storage role, address account) internal {... */\n      jump\t// out\n        /* \"KIP37/Roles.sol\":160:340  function add(Role storage role, address account) internal {... */\n    tag_123:\n        /* \"KIP37/Roles.sol\":238:256  has(role, account) */\n      tag_140\n        /* \"KIP37/Roles.sol\":242:246  role */\n      dup3\n        /* \"KIP37/Roles.sol\":248:255  account */\n      dup3\n        /* \"KIP37/Roles.sol\":238:241  has */\n      tag_117\n        /* \"KIP37/Roles.sol\":238:256  has(role, account) */\n      jump\t// in\n    tag_140:\n        /* \"KIP37/Roles.sol\":237:256  !has(role, account) */\n      iszero\n        /* \"KIP37/Roles.sol\":229:292  require(!has(role, account), \"Roles: account already has role\") */\n      tag_141\n      jumpi\n      mload(0x40)\n      shl(0xe5, 0x461bcd)\n      dup2\n      mstore\n        /* \"#utility.yul\":4031:4033   */\n      0x20\n        /* \"KIP37/Roles.sol\":229:292  require(!has(role, account), \"Roles: account already has role\") */\n      0x04\n      dup3\n      add\n        /* \"#utility.yul\":4013:4034   */\n      mstore\n        /* \"#utility.yul\":4070:4072   */\n      0x1f\n        /* \"#utility.yul\":4050:4068   */\n      0x24\n      dup3\n      add\n        /* \"#utility.yul\":4043:4073   */\n      mstore\n        /* \"#utility.yul\":4109:4142   */\n      0x526f6c65733a206163636f756e7420616c72656164792068617320726f6c6500\n        /* \"#utility.yul\":4089:4107   */\n      0x44\n      dup3\n      add\n        /* \"#utility.yul\":4082:4143   */\n      mstore\n        /* \"#utility.yul\":4160:4178   */\n      0x64\n      add\n        /* \"KIP37/Roles.sol\":229:292  require(!has(role, account), \"Roles: account already has role\") */\n      tag_61\n        /* \"#utility.yul\":3829:4184   */\n      jump\n        /* \"KIP37/Roles.sol\":229:292  require(!has(role, account), \"Roles: account already has role\") */\n    tag_141:\n      sub(shl(0xa0, 0x01), 0x01)\n        /* \"KIP37/Roles.sol\":305:325  role.bearer[account] */\n      and\n        /* \"KIP37/Roles.sol\":305:316  role.bearer */\n      0x00\n        /* \"KIP37/Roles.sol\":305:325  role.bearer[account] */\n      swap1\n      dup2\n      mstore\n      0x20\n      swap2\n      swap1\n      swap2\n      mstore\n      0x40\n      swap1\n      keccak256\n        /* \"KIP37/Roles.sol\":305:332  role.bearer[account] = true */\n      dup1\n      sload\n      not(0xff)\n      and\n        /* \"KIP37/Roles.sol\":328:332  true */\n      0x01\n        /* \"KIP37/Roles.sol\":305:332  role.bearer[account] = true */\n      or\n      swap1\n      sstore\n        /* \"KIP37/Roles.sol\":160:340  function add(Role storage role, address account) internal {... */\n      jump\t// out\n        /* \"#utility.yul\":14:145   */\n    tag_144:\n      sub(shl(0xa0, 0x01), 0x01)\n        /* \"#utility.yul\":89:120   */\n      dup2\n      and\n        /* \"#utility.yul\":79:121   */\n      dup2\n      eq\n        /* \"#utility.yul\":69:139   */\n      tag_71\n      jumpi\n        /* \"#utility.yul\":135:136   */\n      0x00\n        /* \"#utility.yul\":132:133   */\n      dup1\n        /* \"#utility.yul\":125:137   */\n      revert\n        /* \"#utility.yul\":150:397   */\n    tag_17:\n        /* \"#utility.yul\":209:215   */\n      0x00\n        /* \"#utility.yul\":262:264   */\n      0x20\n        /* \"#utility.yul\":250:259   */\n      dup3\n        /* \"#utility.yul\":241:248   */\n      dup5\n        /* \"#utility.yul\":237:260   */\n      sub\n        /* \"#utility.yul\":233:265   */\n      slt\n        /* \"#utility.yul\":230:282   */\n      iszero\n      tag_149\n      jumpi\n        /* \"#utility.yul\":278:279   */\n      0x00\n        /* \"#utility.yul\":275:276   */\n      dup1\n        /* \"#utility.yul\":268:280   */\n      revert\n        /* \"#utility.yul\":230:282   */\n    tag_149:\n        /* \"#utility.yul\":317:326   */\n      dup2\n        /* \"#utility.yul\":304:327   */\n      calldataload\n        /* \"#utility.yul\":336:367   */\n      tag_150\n        /* \"#utility.yul\":361:366   */\n      dup2\n        /* \"#utility.yul\":336:367   */\n      tag_144\n      jump\t// in\n    tag_150:\n        /* \"#utility.yul\":386:391   */\n      swap4\n        /* \"#utility.yul\":150:397   */\n      swap3\n      pop\n      pop\n      pop\n      jump\t// out\n        /* \"#utility.yul\":1062:1416   */\n    tag_62:\n        /* \"#utility.yul\":1264:1266   */\n      0x20\n        /* \"#utility.yul\":1246:1267   */\n      dup1\n      dup3\n      mstore\n        /* \"#utility.yul\":1303:1305   */\n      0x1e\n        /* \"#utility.yul\":1283:1301   */\n      swap1\n      dup3\n      add\n        /* \"#utility.yul\":1276:1306   */\n      mstore\n        /* \"#utility.yul\":1342:1374   */\n      0x4f776e6572526f6c653a2063616c6c6572206973206e6f74206f776e65720000\n        /* \"#utility.yul\":1337:1339   */\n      0x40\n        /* \"#utility.yul\":1322:1340   */\n      dup3\n      add\n        /* \"#utility.yul\":1315:1375   */\n      mstore\n        /* \"#utility.yul\":1407:1409   */\n      0x60\n        /* \"#utility.yul\":1392:1410   */\n      add\n      swap1\n        /* \"#utility.yul\":1062:1416   */\n      jump\t// out\n\n    auxdata: 0xa2646970667358221220bbe0774a9799fa0a934790d153deeac3f91e4113a81a82dfff8f4d69c953b0a764736f6c63430008130033\n}\n",
				"bytecode": {
					"linkReferences": {},
					"object": "608060405234801561001057600080fd5b50604051610a67380380610a6783398101604081905261002f916101f2565b808061003a8161006a565b50610044816100ac565b50600280546001600160a01b0319166001600160a01b0392909216919091179055610222565b6100756000826100ee565b6040516001600160a01b038216907f6ae172837ea30b801fbfcdd4108aa1d5bf8ff775444fd70256b44e6bf3dfc3f690600090a250565b6100b76001826100ee565b6040516001600160a01b038216907f6719d08c1888103bea251a4ed56406bd0c3e69723c8a1686e017e7bbe159b6f890600090a250565b6100f8828261016f565b1561014a5760405162461bcd60e51b815260206004820152601f60248201527f526f6c65733a206163636f756e7420616c72656164792068617320726f6c650060448201526064015b60405180910390fd5b6001600160a01b0316600090815260209190915260409020805460ff19166001179055565b60006001600160a01b0382166101d25760405162461bcd60e51b815260206004820152602260248201527f526f6c65733a206163636f756e7420697320746865207a65726f206164647265604482015261737360f01b6064820152608401610141565b506001600160a01b03166000908152602091909152604090205460ff1690565b60006020828403121561020457600080fd5b81516001600160a01b038116811461021b57600080fd5b9392505050565b610836806102316000396000f3fe608060405234801561001057600080fd5b50600436106100a95760003560e01c80638da5cb5b116100715780638da5cb5b1461011d578063983b2d5614610138578063986502751461014b578063aa271e1a14610153578063d29d44ee14610166578063f2fde38b1461017957600080fd5b80632f54bf6e146100ae57806346fbf68e146100e55780636ef8d66d146100f8578063715018a61461010257806382dc1ec41461010a575b600080fd5b6100d06100bc3660046107a5565b6002546001600160a01b0391821691161490565b60405190151581526020015b60405180910390f35b6100d06100f33660046107a5565b61018c565b61010061019d565b005b6101006101a8565b6101006101183660046107a5565b6101e5565b6002546040516001600160a01b0390911681526020016100dc565b6101006101463660046107a5565b61025f565b6101006102d6565b6100d06101613660046107a5565b6102df565b6101006101743660046107a5565b6102ea565b6101006101873660046107a5565b6103fa565b6000610197826104f2565b92915050565b6101a6336104ff565b565b6002546001600160a01b031633146101db5760405162461bcd60e51b81526004016101d2906107c9565b60405180910390fd5b6101a660006102ea565b6101ee3361018c565b6102535760405162461bcd60e51b815260206004820152603060248201527f506175736572526f6c653a2063616c6c657220646f6573206e6f74206861766560448201526f207468652050617573657220726f6c6560801b60648201526084016101d2565b61025c81610541565b50565b610268336102df565b6102cd5760405162461bcd60e51b815260206004820152603060248201527f4d696e746572526f6c653a2063616c6c657220646f6573206e6f74206861766560448201526f20746865204d696e74657220726f6c6560801b60648201526084016101d2565b61025c81610583565b6101a6336105c5565b600061019782610607565b6002546001600160a01b031633146103145760405162461bcd60e51b81526004016101d2906107c9565b61031d81610607565b61032a5761032a81610583565b60025461033f906001600160a01b0316610607565b1561035957600254610359906001600160a01b03166105c5565b610362816104f2565b61036f5761036f81610541565b600254610384906001600160a01b03166104f2565b1561039e5760025461039e906001600160a01b03166104ff565b6002546040516001600160a01b038084169216907f8be0079c531659141344cd1fd0a4f28419497f9722a3daafe3b4186f6b6457e090600090a3600280546001600160a01b0319166001600160a01b0392909216919091179055565b6002546001600160a01b031633146104245760405162461bcd60e51b81526004016101d2906107c9565b6001600160a01b03811661048b5760405162461bcd60e51b815260206004820152602860248201527f4f776e6572526f6c653a206e6577206f776e657220697320746865207a65726f604482015267206164647265737360c01b60648201526084016101d2565b6002546001600160a01b03908116908216036104e95760405162461bcd60e51b815260206004820152601f60248201527f4f776e6572526f6c653a20616c726561647920697320746865206f776e65720060448201526064016101d2565b61025c816102ea565b600061019760018361060f565b61050a600182610692565b6040516001600160a01b038216907fcd265ebaf09df2871cc7bd4133404a235ba12eff2041bb89d9c714a2621c7c7e90600090a250565b61054c600182610714565b6040516001600160a01b038216907f6719d08c1888103bea251a4ed56406bd0c3e69723c8a1686e017e7bbe159b6f890600090a250565b61058e600082610714565b6040516001600160a01b038216907f6ae172837ea30b801fbfcdd4108aa1d5bf8ff775444fd70256b44e6bf3dfc3f690600090a250565b6105d0600082610692565b6040516001600160a01b038216907fe94479a9f7e1952cc78f2d6baab678adc1b772d936c6583def489e524cb6669290600090a250565b600061019781835b60006001600160a01b0382166106725760405162461bcd60e51b815260206004820152602260248201527f526f6c65733a206163636f756e7420697320746865207a65726f206164647265604482015261737360f01b60648201526084016101d2565b506001600160a01b03166000908152602091909152604090205460ff1690565b61069c828261060f565b6106f25760405162461bcd60e51b815260206004820152602160248201527f526f6c65733a206163636f756e7420646f6573206e6f74206861766520726f6c6044820152606560f81b60648201526084016101d2565b6001600160a01b0316600090815260209190915260409020805460ff19169055565b61071e828261060f565b1561076b5760405162461bcd60e51b815260206004820152601f60248201527f526f6c65733a206163636f756e7420616c72656164792068617320726f6c650060448201526064016101d2565b6001600160a01b0316600090815260209190915260409020805460ff19166001179055565b6001600160a01b038116811461025c57600080fd5b6000602082840312156107b757600080fd5b81356107c281610790565b9392505050565b6020808252601e908201527f4f776e6572526f6c653a2063616c6c6572206973206e6f74206f776e6572000060408201526060019056fea2646970667358221220bbe0774a9799fa0a934790d153deeac3f91e4113a81a82dfff8f4d69c953b0a764736f6c63430008130033",
					"opcodes": "PUSH1 0x80 PUSH1 0x40 MSTORE CALLVALUE DUP1 ISZERO PUSH2 0x10 JUMPI PUSH1 0x0 DUP1 REVERT JUMPDEST POP PUSH1 0x40 MLOAD PUSH2 0xA67 CODESIZE SUB DUP1 PUSH2 0xA67 DUP4 CODECOPY DUP2 ADD PUSH1 0x40 DUP2 SWAP1 MSTORE PUSH2 0x2F SWAP2 PUSH2 0x1F2 JUMP JUMPDEST DUP1 DUP1 PUSH2 0x3A DUP2 PUSH2 0x6A JUMP JUMPDEST POP PUSH2 0x44 DUP2 PUSH2 0xAC JUMP JUMPDEST POP PUSH1 0x2 DUP1 SLOAD PUSH1 0x1 PUSH1 0x1 PUSH1 0xA0 SHL SUB NOT AND PUSH1 0x1 PUSH1 0x1 PUSH1 0xA0 SHL SUB SWAP3 SWAP1 SWAP3 AND SWAP2 SWAP1 SWAP2 OR SWAP1 SSTORE PUSH2 0x222 JUMP JUMPDEST PUSH2 0x75 PUSH1 0x0 DUP3 PUSH2 0xEE JUMP JUMPDEST PUSH1 0x40 MLOAD PUSH1 0x1 PUSH1 0x1 PUSH1 0xA0 SHL SUB DUP3 AND SWAP1 PUSH32 0x6AE172837EA30B801FBFCDD4108AA1D5BF8FF775444FD70256B44E6BF3DFC3F6 SWAP1 PUSH1 0x0 SWAP1 LOG2 POP JUMP JUMPDEST PUSH2 0xB7 PUSH1 0x1 DUP3 PUSH2 0xEE JUMP JUMPDEST PUSH1 0x40 MLOAD PUSH1 0x1 PUSH1 0x1 PUSH1 0xA0 SHL SUB DUP3 AND SWAP1 PUSH32 0x6719D08C1888103BEA251A4ED56406BD0C3E69723C8A1686E017E7BBE159B6F8 SWAP1 PUSH1 0x0 SWAP1 LOG2 POP JUMP JUMPDEST PUSH2 0xF8 DUP3 DUP3 PUSH2 0x16F JUMP JUMPDEST ISZERO PUSH2 0x14A JUMPI PUSH1 0x40 MLOAD PUSH3 0x461BCD PUSH1 0xE5 SHL DUP2 MSTORE PUSH1 0x20 PUSH1 0x4 DUP3 ADD MSTORE PUSH1 0x1F PUSH1 0x24 DUP3 ADD MSTORE PUSH32 0x526F6C65733A206163636F756E7420616C72656164792068617320726F6C6500 PUSH1 0x44 DUP3 ADD MSTORE PUSH1 0x64 ADD JUMPDEST PUSH1 0x40 MLOAD DUP1 SWAP2 SUB SWAP1 REVERT JUMPDEST PUSH1 0x1 PUSH1 0x1 PUSH1 0xA0 SHL SUB AND PUSH1 0x0 SWAP1 DUP2 MSTORE PUSH1 0x20 SWAP2 SWAP1 SWAP2 MSTORE PUSH1 0x40 SWAP1 KECCAK256 DUP1 SLOAD PUSH1 0xFF NOT AND PUSH1 0x1 OR SWAP1 SSTORE JUMP JUMPDEST PUSH1 0x0 PUSH1 0x1 PUSH1 0x1 PUSH1 0xA0 SHL SUB DUP3 AND PUSH2 0x1D2 JUMPI PUSH1 0x40 MLOAD PUSH3 0x461BCD PUSH1 0xE5 SHL DUP2 MSTORE PUSH1 0x20 PUSH1 0x4 DUP3 ADD MSTORE PUSH1 0x22 PUSH1 0x24 DUP3 ADD MSTORE PUSH32 0x526F6C65733A206163636F756E7420697320746865207A65726F206164647265 PUSH1 0x44 DUP3 ADD MSTORE PUSH2 0x7373 PUSH1 0xF0 SHL PUSH1 0x64 DUP3 ADD MSTORE PUSH1 0x84 ADD PUSH2 0x141 JUMP JUMPDEST POP PUSH1 0x1 PUSH1 0x1 PUSH1 0xA0 SHL SUB AND PUSH1 0x0 SWAP1 DUP2 MSTORE PUSH1 0x20 SWAP2 SWAP1 SWAP2 MSTORE PUSH1 0x40 SWAP1 KECCAK256 SLOAD PUSH1 0xFF AND SWAP1 JUMP JUMPDEST PUSH1 0x0 PUSH1 0x20 DUP3 DUP5 SUB SLT ISZERO PUSH2 0x204 JUMPI PUSH1 0x0 DUP1 REVERT JUMPDEST DUP2 MLOAD PUSH1 0x1 PUSH1 0x1 PUSH1 0xA0 SHL SUB DUP2 AND DUP2 EQ PUSH2 0x21B JUMPI PUSH1 0x0 DUP1 REVERT JUMPDEST SWAP4 SWAP3 POP POP POP JUMP JUMPDEST PUSH2 0x836 DUP1 PUSH2 0x231 PUSH1 0x0 CODECOPY PUSH1 0x0 RETURN INVALID PUSH1 0x80 PUSH1 0x40 MSTORE CALLVALUE DUP1 ISZERO PUSH2 0x10 JUMPI PUSH1 0x0 DUP1 REVERT JUMPDEST POP PUSH1 0x4 CALLDATASIZE LT PUSH2 0xA9 JUMPI PUSH1 0x0 CALLDATALOAD PUSH1 0xE0 SHR DUP1 PUSH4 0x8DA5CB5B GT PUSH2 0x71 JUMPI DUP1 PUSH4 0x8DA5CB5B EQ PUSH2 0x11D JUMPI DUP1 PUSH4 0x983B2D56 EQ PUSH2 0x138 JUMPI DUP1 PUSH4 0x98650275 EQ PUSH2 0x14B JUMPI DUP1 PUSH4 0xAA271E1A EQ PUSH2 0x153 JUMPI DUP1 PUSH4 0xD29D44EE EQ PUSH2 0x166 JUMPI DUP1 PUSH4 0xF2FDE38B EQ PUSH2 0x179 JUMPI PUSH1 0x0 DUP1 REVERT JUMPDEST DUP1 PUSH4 0x2F54BF6E EQ PUSH2 0xAE JUMPI DUP1 PUSH4 0x46FBF68E EQ PUSH2 0xE5 JUMPI DUP1 PUSH4 0x6EF8D66D EQ PUSH2 0xF8 JUMPI DUP1 PUSH4 0x715018A6 EQ PUSH2 0x102 JUMPI DUP1 PUSH4 0x82DC1EC4 EQ PUSH2 0x10A JUMPI JUMPDEST PUSH1 0x0 DUP1 REVERT JUMPDEST PUSH2 0xD0 PUSH2 0xBC CALLDATASIZE PUSH1 0x4 PUSH2 0x7A5 JUMP JUMPDEST PUSH1 0x2 SLOAD PUSH1 0x1 PUSH1 0x1 PUSH1 0xA0 SHL SUB SWAP2 DUP3 AND SWAP2 AND EQ SWAP1 JUMP JUMPDEST PUSH1 0x40 MLOAD SWAP1 ISZERO ISZERO DUP2 MSTORE PUSH1 0x20 ADD JUMPDEST PUSH1 0x40 MLOAD DUP1 SWAP2 SUB SWAP1 RETURN JUMPDEST PUSH2 0xD0 PUSH2 0xF3 CALLDATASIZE PUSH1 0x4 PUSH2 0x7A5 JUMP JUMPDEST PUSH2 0x18C JUMP JUMPDEST PUSH2 0x100 PUSH2 0x19D JUMP JUMPDEST STOP JUMPDEST PUSH2 0x100 PUSH2 0x1A8 JUMP JUMPDEST PUSH2 0x100 PUSH2 0x118 CALLDATASIZE PUSH1 0x4 PUSH2 0x7A5 JUMP JUMPDEST PUSH2 0x1E5 JUMP JUMPDEST PUSH1 0x2 SLOAD PUSH1 0x40 MLOAD PUSH1 0x1 PUSH1 0x1 PUSH1 0xA0 SHL SUB SWAP1 SWAP2 AND DUP2 MSTORE PUSH1 0x20 ADD PUSH2 0xDC JUMP JUMPDEST PUSH2 0x100 PUSH2 0x146 CALLDATASIZE PUSH1 0x4 PUSH2 0x7A5 JUMP JUMPDEST PUSH2 0x25F JUMP JUMPDEST PUSH2 0x100 PUSH2 0x2D6 JUMP JUMPDEST PUSH2 0xD0 PUSH2 0x161 CALLDATASIZE PUSH1 0x4 PUSH2 0x7A5 JUMP JUMPDEST PUSH2 0x2DF JUMP JUMPDEST PUSH2 0x100 PUSH2 0x174 CALLDATASIZE PUSH1 0x4 PUSH2 0x7A5 JUMP JUMPDEST PUSH2 0x2EA JUMP JUMPDEST PUSH2 0x100 PUSH2 0x187 CALLDATASIZE PUSH1 0x4 PUSH2 0x7A5 JUMP JUMPDEST PUSH2 0x3FA JUMP JUMPDEST PUSH1 0x0 PUSH2 0x197 DUP3 PUSH2 0x4F2 JUMP JUMPDEST SWAP3 SWAP2 POP POP JUMP JUMPDEST PUSH2 0x1A6 CALLER PUSH2 0x4FF JUMP JUMPDEST JUMP JUMPDEST PUSH1 0x2 SLOAD PUSH1 0x1 PUSH1 0x1 PUSH1 0xA0 SHL SUB AND CALLER EQ PUSH2 0x1DB JUMPI PUSH1 0x40 MLOAD PUSH3 0x461BCD PUSH1 0xE5 SHL DUP2 MSTORE PUSH1 0x4 ADD PUSH2 0x1D2 SWAP1 PUSH2 0x7C9 JUMP JUMPDEST PUSH1 0x40 MLOAD DUP1 SWAP2 SUB SWAP1 REVERT JUMPDEST PUSH2 0x1A6 PUSH1 0x0 PUSH2 0x2EA JUMP JUMPDEST PUSH2 0x1EE CALLER PUSH2 0x18C JUMP JUMPDEST PUSH2 0x253 JUMPI PUSH1 0x40 MLOAD PUSH3 0x461BCD PUSH1 0xE5 SHL DUP2 MSTORE PUSH1 0x20 PUSH1 0x4 DUP3 ADD MSTORE PUSH1 0x30 PUSH1 0x24 DUP3 ADD MSTORE PUSH32 0x506175736572526F6C653A2063616C6C657220646F6573206E6F742068617665 PUSH1 0x44 DUP3 ADD MSTORE PUSH16 0x207468652050617573657220726F6C65 PUSH1 0x80 SHL PUSH1 0x64 DUP3 ADD MSTORE PUSH1 0x84 ADD PUSH2 0x1D2 JUMP JUMPDEST PUSH2 0x25C DUP2 PUSH2 0x541 JUMP JUMPDEST POP JUMP JUMPDEST PUSH2 0x268 CALLER PUSH2 0x2DF JUMP JUMPDEST PUSH2 0x2CD JUMPI PUSH1 0x40 MLOAD PUSH3 0x461BCD PUSH1 0xE5 SHL DUP2 MSTORE PUSH1 0x20 PUSH1 0x4 DUP3 ADD MSTORE PUSH1 0x30 PUSH1 0x24 DUP3 ADD MSTORE PUSH32 0x4D696E746572526F6C653A2063616C6C657220646F6573206E6F742068617665 PUSH1 0x44 DUP3 ADD MSTORE PUSH16 0x20746865204D696E74657220726F6C65 PUSH1 0x80 SHL PUSH1 0x64 DUP3 ADD MSTORE PUSH1 0x84 ADD PUSH2 0x1D2 JUMP JUMPDEST PUSH2 0x25C DUP2 PUSH2 0x583 JUMP JUMPDEST PUSH2 0x1A6 CALLER PUSH2 0x5C5 JUMP JUMPDEST PUSH1 0x0 PUSH2 0x197 DUP3 PUSH2 0x607 JUMP JUMPDEST PUSH1 0x2 SLOAD PUSH1 0x1 PUSH1 0x1 PUSH1 0xA0 SHL SUB AND CALLER EQ PUSH2 0x314 JUMPI PUSH1 0x40 MLOAD PUSH3 0x461BCD PUSH1 0xE5 SHL DUP2 MSTORE PUSH1 0x4 ADD PUSH2 0x1D2 SWAP1 PUSH2 0x7C9 JUMP JUMPDEST PUSH2 0x31D DUP2 PUSH2 0x607 JUMP JUMPDEST PUSH2 0x32A JUMPI PUSH2 0x32A DUP2 PUSH2 0x583 JUMP JUMPDEST PUSH1 0x2 SLOAD PUSH2 0x33F SWAP1 PUSH1 0x1 PUSH1 0x1 PUSH1 0xA0 SHL SUB AND PUSH2 0x607 JUMP JUMPDEST ISZERO PUSH2 0x359 JUMPI PUSH1 0x2 SLOAD PUSH2 0x359 SWAP1 PUSH1 0x1 PUSH1 0x1 PUSH1 0xA0 SHL SUB AND PUSH2 0x5C5 JUMP JUMPDEST PUSH2 0x362 DUP2 PUSH2 0x4F2 JUMP JUMPDEST PUSH2 0x36F JUMPI PUSH2 0x36F DUP2 PUSH2 0x541 JUMP JUMPDEST PUSH1 0x2 SLOAD PUSH2 0x384 SWAP1 PUSH1 0x1 PUSH1 0x1 PUSH1 0xA0 SHL SUB AND PUSH2 0x4F2 JUMP JUMPDEST ISZERO PUSH2 0x39E JUMPI PUSH1 0x2 SLOAD PUSH2 0x39E SWAP1 PUSH1 0x1 PUSH1 0x1 PUSH1 0xA0 SHL SUB AND PUSH2 0x4FF JUMP JUMPDEST PUSH1 0x2 SLOAD PUSH1 0x40 MLOAD PUSH1 0x1 PUSH1 0x1 PUSH1 0xA0 SHL SUB DUP1 DUP5 AND SWAP3 AND SWAP1 PUSH32 0x8BE0079C531659141344CD1FD0A4F28419497F9722A3DAAFE3B4186F6B6457E0 SWAP1 PUSH1 0x0 SWAP1 LOG3 PUSH1 0x2 DUP1 SLOAD PUSH1 0x1 PUSH1 0x1 PUSH1 0xA0 SHL SUB NOT AND PUSH1 0x1 PUSH1 0x1 PUSH1 0xA0 SHL SUB SWAP3 SWAP1 SWAP3 AND SWAP2 SWAP1 SWAP2 OR SWAP1 SSTORE JUMP JUMPDEST PUSH1 0x2 SLOAD PUSH1 0x1 PUSH1 0x1 PUSH1 0xA0 SHL SUB AND CALLER EQ PUSH2 0x424 JUMPI PUSH1 0x40 MLOAD PUSH3 0x461BCD PUSH1 0xE5 SHL DUP2 MSTORE PUSH1 0x4 ADD PUSH2 0x1D2 SWAP1 PUSH2 0x7C9 JUMP JUMPDEST PUSH1 0x1 PUSH1 0x1 PUSH1 0xA0 SHL SUB DUP2 AND PUSH2 0x48B JUMPI PUSH1 0x40 MLOAD PUSH3 0x461BCD PUSH1 0xE5 SHL DUP2 MSTORE PUSH1 0x20 PUSH1 0x4 DUP3 ADD MSTORE PUSH1 0x28 PUSH1 0x24 DUP3 ADD MSTORE PUSH32 0x4F776E6572526F6C653A206E6577206F776E657220697320746865207A65726F PUSH1 0x44 DUP3 ADD MSTORE PUSH8 0x2061646472657373 PUSH1 0xC0 SHL PUSH1 0x64 DUP3 ADD MSTORE PUSH1 0x84 ADD PUSH2 0x1D2 JUMP JUMPDEST PUSH1 0x2 SLOAD PUSH1 0x1 PUSH1 0x1 PUSH1 0xA0 SHL SUB SWAP1 DUP2 AND SWAP1 DUP3 AND SUB PUSH2 0x4E9 JUMPI PUSH1 0x40 MLOAD PUSH3 0x461BCD PUSH1 0xE5 SHL DUP2 MSTORE PUSH1 0x20 PUSH1 0x4 DUP3 ADD MSTORE PUSH1 0x1F PUSH1 0x24 DUP3 ADD MSTORE PUSH32 0x4F776E6572526F6C653A20616C726561647920697320746865206F776E657200 PUSH1 0x44 DUP3 ADD MSTORE PUSH1 0x64 ADD PUSH2 0x1D2 JUMP JUMPDEST PUSH2 0x25C DUP2 PUSH2 0x2EA JUMP JUMPDEST PUSH1 0x0 PUSH2 0x197 PUSH1 0x1 DUP4 PUSH2 0x60F JUMP JUMPDEST PUSH2 0x50A PUSH1 0x1 DUP3 PUSH2 0x692 JUMP JUMPDEST PUSH1 0x40 MLOAD PUSH1 0x1 PUSH1 0x1 PUSH1 0xA0 SHL SUB DUP3 AND SWAP1 PUSH32 0xCD265EBAF09DF2871CC7BD4133404A235BA12EFF2041BB89D9C714A2621C7C7E SWAP1 PUSH1 0x0 SWAP1 LOG2 POP JUMP JUMPDEST PUSH2 0x54C PUSH1 0x1 DUP3 PUSH2 0x714 JUMP JUMPDEST PUSH1 0x40 MLOAD PUSH1 0x1 PUSH1 0x1 PUSH1 0xA0 SHL SUB DUP3 AND SWAP1 PUSH32 0x6719D08C1888103BEA251A4ED56406BD0C3E69723C8A1686E017E7BBE159B6F8 SWAP1 PUSH1 0x0 SWAP1 LOG2 POP JUMP JUMPDEST PUSH2 0x58E PUSH1 0x0 DUP3 PUSH2 0x714 JUMP JUMPDEST PUSH1 0x40 MLOAD PUSH1 0x1 PUSH1 0x1 PUSH1 0xA0 SHL SUB DUP3 AND SWAP1 PUSH32 0x6AE172837EA30B801FBFCDD4108AA1D5BF8FF775444FD70256B44E6BF3DFC3F6 SWAP1 PUSH1 0x0 SWAP1 LOG2 POP JUMP JUMPDEST PUSH2 0x5D0 PUSH1 0x0 DUP3 PUSH2 0x692 JUMP JUMPDEST PUSH1 0x40 MLOAD PUSH1 0x1 PUSH1 0x1 PUSH1 0xA0 SHL SUB DUP3 AND SWAP1 PUSH32 0xE94479A9F7E1952CC78F2D6BAAB678ADC1B772D936C6583DEF489E524CB66692 SWAP1 PUSH1 0x0 SWAP1 LOG2 POP JUMP JUMPDEST PUSH1 0x0 PUSH2 0x197 DUP2 DUP4 JUMPDEST PUSH1 0x0 PUSH1 0x1 PUSH1 0x1 PUSH1 0xA0 SHL SUB DUP3 AND PUSH2 0x672 JUMPI PUSH1 0x40 MLOAD PUSH3 0x461BCD PUSH1 0xE5 SHL DUP2 MSTORE PUSH1 0x20 PUSH1 0x4 DUP3 ADD MSTORE PUSH1 0x22 PUSH1 0x24 DUP3 ADD MSTORE PUSH32 0x526F6C65733A206163636F756E7420697320746865207A65726F206164647265 PUSH1 0x44 DUP3 ADD MSTORE PUSH2 0x7373 PUSH1 0xF0 SHL PUSH1 0x64 DUP3 ADD MSTORE PUSH1 0x84 ADD PUSH2 0x1D2 JUMP JUMPDEST POP PUSH1 0x1 PUSH1 0x1 PUSH1 0xA0 SHL SUB AND PUSH1 0x0 SWAP1 DUP2 MSTORE PUSH1 0x20 SWAP2 SWAP1 SWAP2 MSTORE PUSH1 0x40 SWAP1 KECCAK256 SLOAD PUSH1 0xFF AND SWAP1 JUMP JUMPDEST PUSH2 0x69C DUP3 DUP3 PUSH2 0x60F JUMP JUMPDEST PUSH2 0x6F2 JUMPI PUSH1 0x40 MLOAD PUSH3 0x461BCD PUSH1 0xE5 SHL DUP2 MSTORE PUSH1 0x20 PUSH1 0x4 DUP3 ADD MSTORE PUSH1 0x21 PUSH1 0x24 DUP3 ADD MSTORE PUSH32 0x526F6C65733A206163636F756E7420646F6573206E6F74206861766520726F6C PUSH1 0x44 DUP3 ADD MSTORE PUSH1 0x65 PUSH1 0xF8 SHL PUSH1 0x64 DUP3 ADD MSTORE PUSH1 0x84 ADD PUSH2 0x1D2 JUMP JUMPDEST PUSH1 0x1 PUSH1 0x1 PUSH1 0xA0 SHL SUB AND PUSH1 0x0 SWAP1 DUP2 MSTORE PUSH1 0x20 SWAP2 SWAP1 SWAP2 MSTORE PUSH1 0x40 SWAP1 KECCAK256 DUP1 SLOAD PUSH1 0xFF NOT AND SWAP1 SSTORE JUMP JUMPDEST PUSH2 0x71E DUP3 DUP3 PUSH2 0x60F JUMP JUMPDEST ISZERO PUSH2 0x76B JUMPI PUSH1 0x40 MLOAD PUSH3 0x461BCD PUSH1 0xE5 SHL DUP2 MSTORE PUSH1 0x20 PUSH1 0x4 DUP3 ADD MSTORE PUSH1 0x1F PUSH1 0x24 DUP3 ADD MSTORE PUSH32 0x526F6C65733A206163636F756E7420616C72656164792068617320726F6C6500 PUSH1 0x44 DUP3 ADD MSTORE PUSH1 0x64 ADD PUSH2 0x1D2 JUMP JUMPDEST PUSH1 0x1 PUSH1 0x1 PUSH1 0xA0 SHL SUB AND PUSH1 0x0 SWAP1 DUP2 MSTORE PUSH1 0x20 SWAP2 SWAP1 SWAP2 MSTORE PUSH1 0x40 SWAP1 KECCAK256 DUP1 SLOAD PUSH1 0xFF NOT AND PUSH1 0x1 OR SWAP1 SSTORE JUMP JUMPDEST PUSH1 0x1 PUSH1 0x1 PUSH1 0xA0 SHL SUB DUP2 AND DUP2 EQ PUSH2 0x25C JUMPI PUSH1 0x0 DUP1 REVERT JUMPDEST PUSH1 0x0 PUSH1 0x20 DUP3 DUP5 SUB SLT ISZERO PUSH2 0x7B7 JUMPI PUSH1 0x0 DUP1 REVERT JUMPDEST DUP2 CALLDATALOAD PUSH2 0x7C2 DUP2 PUSH2 0x790 JUMP JUMPDEST SWAP4 SWAP3 POP POP POP JUMP JUMPDEST PUSH1 0x20 DUP1 DUP3 MSTORE PUSH1 0x1E SWAP1 DUP3 ADD MSTORE PUSH32 0x4F776E6572526F6C653A2063616C6C6572206973206E6F74206F776E65720000 PUSH1 0x40 DUP3 ADD MSTORE PUSH1 0x60 ADD SWAP1 JUMP INVALID LOG2 PUSH5 0x6970667358 0x22 SLT KECCAK256 0xBB 0xE0 PUSH24 0x4A9799FA0A934790D153DEEAC3F91E4113A81A82DFFF8F4D PUSH10 0xC953B0A764736F6C6343 STOP ADDMOD SGT STOP CALLER "
				},
				"gasEstimates": {
					"creation": {
						"codeDepositCost": "420400",
						"executionCost": "infinite",
						"totalCost": "infinite"
					},
					"external": {
						"_transferOwnership(address)": "infinite",
						"addMinter(address)": "infinite",
						"addPauser(address)": "infinite",
						"isMinter(address)": "infinite",
						"isOwner(address)": "2476",
						"isPauser(address)": "infinite",
						"owner()": "2301",
						"renounceMinter()": "28007",
						"renounceOwnership()": "4709",
						"renouncePauser()": "28008",
						"transferOwnership(address)": "infinite"
					}
				},
				"methodIdentifiers": {
					"_transferOwnership(address)": "d29d44ee",
					"addMinter(address)": "983b2d56",
					"addPauser(address)": "82dc1ec4",
					"isMinter(address)": "aa271e1a",
					"isOwner(address)": "2f54bf6e",
					"isPauser(address)": "46fbf68e",
					"owner()": "8da5cb5b",
					"renounceMinter()": "98650275",
					"renounceOwnership()": "715018a6",
					"renouncePauser()": "6ef8d66d",
					"transferOwnership(address)": "f2fde38b"
				}
			},
			"storageLayout": {
				"storage": [
					{
						"astId": 9,
						"contract": "KIP37/OwnerRole.sol:OwnerRole",
						"label": "_minters",
						"offset": 0,
						"slot": "0",
						"type": "t_struct(Role)410_storage"
					},
					{
						"astId": 294,
						"contract": "KIP37/OwnerRole.sol:OwnerRole",
						"label": "_pausers",
						"offset": 0,
						"slot": "1",
						"type": "t_struct(Role)410_storage"
					},
					{
						"astId": 128,
						"contract": "KIP37/OwnerRole.sol:OwnerRole",
						"label": "_owner",
						"offset": 0,
						"slot": "2",
						"type": "t_address_payable"
					}
				],
				"types": {
					"t_address": {
						"encoding": "inplace",
						"label": "address",
						"numberOfBytes": "20"
					},
					"t_address_payable": {
						"encoding": "inplace",
						"label": "address payable",
						"numberOfBytes": "20"
					},
					"t_bool": {
						"encoding": "inplace",
						"label": "bool",
						"numberOfBytes": "1"
					},
					"t_mapping(t_address,t_bool)": {
						"encoding": "mapping",
						"key": "t_address",
						"label": "mapping(address => bool)",
						"numberOfBytes": "32",
						"value": "t_bool"
					},
					"t_struct(Role)410_storage": {
						"encoding": "inplace",
						"label": "struct Roles.Role",
						"members": [
							{
								"astId": 409,
								"contract": "KIP37/OwnerRole.sol:OwnerRole",
								"label": "bearer",
								"offset": 0,
								"slot": "0",
								"type": "t_mapping(t_address,t_bool)"
							}
						],
						"numberOfBytes": "32"
					}
				}
			},
			"userdoc": {
				"kind": "user",
				"methods": {},
				"version": 1
			}
		}
	}
}