{
	"KIP37/KIP37.sol": {
		"KIP37": {
			"abi": [
				{
					"inputs": [],
					"stateMutability": "nonpayable",
					"type": "constructor"
				},
				{
					"anonymous": false,
					"inputs": [
						{
							"indexed": true,
							"internalType": "address",
							"name": "owner",
							"type": "address"
						},
						{
							"indexed": true,
							"internalType": "address",
							"name": "operator",
							"type": "address"
						},
						{
							"indexed": false,
							"internalType": "bool",
							"name": "approved",
							"type": "bool"
						}
					],
					"name": "ApprovalForAll",
					"type": "event"
				},
				{
					"anonymous": false,
					"inputs": [
						{
							"indexed": true,
							"internalType": "address",
							"name": "operator",
							"type": "address"
						},
						{
							"indexed": true,
							"internalType": "address",
							"name": "from",
							"type": "address"
						},
						{
							"indexed": true,
							"internalType": "address",
							"name": "to",
							"type": "address"
						},
						{
							"indexed": false,
							"internalType": "uint256[]",
							"name": "ids",
							"type": "uint256[]"
						},
						{
							"indexed": false,
							"internalType": "uint256[]",
							"name": "amounts",
							"type": "uint256[]"
						}
					],
					"name": "TransferBatch",
					"type": "event"
				},
				{
					"anonymous": false,
					"inputs": [
						{
							"indexed": true,
							"internalType": "address",
							"name": "operator",
							"type": "address"
						},
						{
							"indexed": true,
							"internalType": "address",
							"name": "from",
							"type": "address"
						},
						{
							"indexed": true,
							"internalType": "address",
							"name": "to",
							"type": "address"
						},
						{
							"indexed": false,
							"internalType": "uint256",
							"name": "id",
							"type": "uint256"
						},
						{
							"indexed": false,
							"internalType": "uint256",
							"name": "amount",
							"type": "uint256"
						}
					],
					"name": "TransferSingle",
					"type": "event"
				},
				{
					"anonymous": false,
					"inputs": [
						{
							"indexed": false,
							"internalType": "string",
							"name": "value",
							"type": "string"
						},
						{
							"indexed": true,
							"internalType": "uint256",
							"name": "id",
							"type": "uint256"
						}
					],
					"name": "URI",
					"type": "event"
				},
				{
					"inputs": [
						{
							"internalType": "address",
							"name": "owner",
							"type": "address"
						},
						{
							"internalType": "uint256",
							"name": "id",
							"type": "uint256"
						}
					],
					"name": "balanceOf",
					"outputs": [
						{
							"internalType": "uint256",
							"name": "",
							"type": "uint256"
						}
					],
					"stateMutability": "view",
					"type": "function"
				},
				{
					"inputs": [
						{
							"internalType": "address[]",
							"name": "owners",
							"type": "address[]"
						},
						{
							"internalType": "uint256[]",
							"name": "ids",
							"type": "uint256[]"
						}
					],
					"name": "balanceOfBatch",
					"outputs": [
						{
							"internalType": "uint256[]",
							"name": "",
							"type": "uint256[]"
						}
					],
					"stateMutability": "view",
					"type": "function"
				},
				{
					"inputs": [
						{
							"internalType": "address",
							"name": "_addr",
							"type": "address"
						},
						{
							"internalType": "uint256[]",
							"name": "tokenIds",
							"type": "uint256[]"
						}
					],
					"name": "getAllLockedTokensByAddress",
					"outputs": [
						{
							"internalType": "uint256[]",
							"name": "",
							"type": "uint256[]"
						},
						{
							"internalType": "uint256[]",
							"name": "",
							"type": "uint256[]"
						}
					],
					"stateMutability": "view",
					"type": "function"
				},
				{
					"inputs": [
						{
							"internalType": "address",
							"name": "_addr",
							"type": "address"
						},
						{
							"internalType": "uint256[]",
							"name": "tokenIds",
							"type": "uint256[]"
						}
					],
					"name": "getAllProcerssLockedByAddress",
					"outputs": [
						{
							"internalType": "uint256[]",
							"name": "",
							"type": "uint256[]"
						},
						{
							"internalType": "uint256[]",
							"name": "",
							"type": "uint256[]"
						}
					],
					"stateMutability": "view",
					"type": "function"
				},
				{
					"inputs": [
						{
							"internalType": "address",
							"name": "owner",
							"type": "address"
						},
						{
							"internalType": "address",
							"name": "operator",
							"type": "address"
						}
					],
					"name": "isApprovedForAll",
					"outputs": [
						{
							"internalType": "bool",
							"name": "",
							"type": "bool"
						}
					],
					"stateMutability": "view",
					"type": "function"
				},
				{
					"inputs": [
						{
							"internalType": "uint256",
							"name": "tokenId",
							"type": "uint256"
						},
						{
							"internalType": "address",
							"name": "owner",
							"type": "address"
						}
					],
					"name": "isProcessLocked",
					"outputs": [
						{
							"internalType": "uint256",
							"name": "",
							"type": "uint256"
						}
					],
					"stateMutability": "view",
					"type": "function"
				},
				{
					"inputs": [
						{
							"internalType": "uint256",
							"name": "tokenId",
							"type": "uint256"
						},
						{
							"internalType": "address",
							"name": "owner",
							"type": "address"
						}
					],
					"name": "isTokenLocked",
					"outputs": [
						{
							"internalType": "uint256",
							"name": "",
							"type": "uint256"
						}
					],
					"stateMutability": "view",
					"type": "function"
				},
				{
					"inputs": [
						{
							"internalType": "address",
							"name": "from",
							"type": "address"
						},
						{
							"internalType": "address",
							"name": "to",
							"type": "address"
						},
						{
							"internalType": "uint256[]",
							"name": "ids",
							"type": "uint256[]"
						},
						{
							"internalType": "uint256[]",
							"name": "amounts",
							"type": "uint256[]"
						},
						{
							"internalType": "bytes",
							"name": "data",
							"type": "bytes"
						}
					],
					"name": "safeBatchTransferFrom",
					"outputs": [],
					"stateMutability": "nonpayable",
					"type": "function"
				},
				{
					"inputs": [
						{
							"internalType": "address",
							"name": "from",
							"type": "address"
						},
						{
							"internalType": "address",
							"name": "to",
							"type": "address"
						},
						{
							"internalType": "uint256",
							"name": "id",
							"type": "uint256"
						},
						{
							"internalType": "uint256",
							"name": "amount",
							"type": "uint256"
						},
						{
							"internalType": "bytes",
							"name": "data",
							"type": "bytes"
						}
					],
					"name": "safeTransferFrom",
					"outputs": [],
					"stateMutability": "nonpayable",
					"type": "function"
				},
				{
					"inputs": [
						{
							"internalType": "address",
							"name": "operator",
							"type": "address"
						},
						{
							"internalType": "bool",
							"name": "approved",
							"type": "bool"
						}
					],
					"name": "setApprovalForAll",
					"outputs": [],
					"stateMutability": "nonpayable",
					"type": "function"
				},
				{
					"inputs": [
						{
							"internalType": "bytes4",
							"name": "interfaceId",
							"type": "bytes4"
						}
					],
					"name": "supportsInterface",
					"outputs": [
						{
							"internalType": "bool",
							"name": "",
							"type": "bool"
						}
					],
					"stateMutability": "view",
					"type": "function"
				},
				{
					"inputs": [
						{
							"internalType": "uint256",
							"name": "id",
							"type": "uint256"
						}
					],
					"name": "totalSupply",
					"outputs": [
						{
							"internalType": "uint256",
							"name": "",
							"type": "uint256"
						}
					],
					"stateMutability": "view",
					"type": "function"
				},
				{
					"inputs": [
						{
							"internalType": "uint256",
							"name": "",
							"type": "uint256"
						}
					],
					"name": "uri",
					"outputs": [
						{
							"internalType": "string",
							"name": "",
							"type": "string"
						}
					],
					"stateMutability": "view",
					"type": "function"
				}
			],
			"devdoc": {
				"kind": "dev",
				"methods": {},
				"version": 1
			},
			"evm": {
				"assembly": "    /* \"KIP37/KIP37.sol\":322:19401  contract KIP37 is Context, KIP13, IKIP37, IKIP37MetadataURI {... */\n  mstore(0x40, 0x80)\n    /* \"KIP37/KIP37.sol\":834:850  constructor() {} */\n  callvalue\n  dup1\n  iszero\n  tag_1\n  jumpi\n  0x00\n  dup1\n  revert\ntag_1:\n  pop\n    /* \"KIP37/KIP37.sol\":322:19401  contract KIP37 is Context, KIP13, IKIP37, IKIP37MetadataURI {... */\n  dataSize(sub_0)\n  dup1\n  dataOffset(sub_0)\n  0x00\n  codecopy\n  0x00\n  return\nstop\n\nsub_0: assembly {\n        /* \"KIP37/KIP37.sol\":322:19401  contract KIP37 is Context, KIP13, IKIP37, IKIP37MetadataURI {... */\n      mstore(0x40, 0x80)\n      callvalue\n      dup1\n      iszero\n      tag_1\n      jumpi\n      0x00\n      dup1\n      revert\n    tag_1:\n      pop\n      jumpi(tag_2, lt(calldatasize, 0x04))\n      shr(0xe0, calldataload(0x00))\n      dup1\n      0xa22cb465\n      gt\n      tag_16\n      jumpi\n      dup1\n      0xbd85b039\n      gt\n      tag_17\n      jumpi\n      dup1\n      0xbd85b039\n      eq\n      tag_12\n      jumpi\n      dup1\n      0xe985e9c5\n      eq\n      tag_13\n      jumpi\n      dup1\n      0xee51d26a\n      eq\n      tag_14\n      jumpi\n      dup1\n      0xf242432a\n      eq\n      tag_15\n      jumpi\n      0x00\n      dup1\n      revert\n    tag_17:\n      dup1\n      0xa22cb465\n      eq\n      tag_9\n      jumpi\n      dup1\n      0xa4949b18\n      eq\n      tag_10\n      jumpi\n      dup1\n      0xb56cf84f\n      eq\n      tag_11\n      jumpi\n      0x00\n      dup1\n      revert\n    tag_16:\n      dup1\n      0xfdd58e\n      eq\n      tag_3\n      jumpi\n      dup1\n      0x01ffc9a7\n      eq\n      tag_4\n      jumpi\n      dup1\n      0x0e89341c\n      eq\n      tag_5\n      jumpi\n      dup1\n      0x2eb2c2d6\n      eq\n      tag_6\n      jumpi\n      dup1\n      0x4e1273f4\n      eq\n      tag_7\n      jumpi\n      dup1\n      0x6e1c1cbb\n      eq\n      tag_8\n      jumpi\n    tag_2:\n      0x00\n      dup1\n      revert\n        /* \"KIP37/KIP37.sol\":1399:1618  function balanceOf(address owner, uint256 id) public view virtual override returns (uint256) {... */\n    tag_3:\n      tag_18\n      tag_19\n      calldatasize\n      0x04\n      tag_20\n      jump\t// in\n    tag_19:\n      tag_21\n      jump\t// in\n    tag_18:\n      mload(0x40)\n        /* \"#utility.yul\":597:622   */\n      swap1\n      dup2\n      mstore\n        /* \"#utility.yul\":585:587   */\n      0x20\n        /* \"#utility.yul\":570:588   */\n      add\n        /* \"KIP37/KIP37.sol\":1399:1618  function balanceOf(address owner, uint256 id) public view virtual override returns (uint256) {... */\n    tag_22:\n      mload(0x40)\n      dup1\n      swap2\n      sub\n      swap1\n      return\n        /* \"KIP37/KIP37.sol\":860:1159  function supportsInterface(bytes4 interfaceId) public view virtual override(KIP13, IKIP13) returns (bool) {... */\n    tag_4:\n      tag_24\n      tag_25\n      calldatasize\n      0x04\n      tag_26\n      jump\t// in\n    tag_25:\n      tag_27\n      jump\t// in\n    tag_24:\n      mload(0x40)\n        /* \"#utility.yul\":1184:1198   */\n      swap1\n      iszero\n        /* \"#utility.yul\":1177:1199   */\n      iszero\n        /* \"#utility.yul\":1159:1200   */\n      dup2\n      mstore\n        /* \"#utility.yul\":1147:1149   */\n      0x20\n        /* \"#utility.yul\":1132:1150   */\n      add\n        /* \"KIP37/KIP37.sol\":860:1159  function supportsInterface(bytes4 interfaceId) public view virtual override(KIP13, IKIP13) returns (bool) {... */\n      tag_22\n        /* \"#utility.yul\":1019:1206   */\n      jump\n        /* \"KIP37/KIP37.sol\":1164:1267  function uri(uint256) public view virtual override returns (string memory) {... */\n    tag_5:\n      tag_30\n      tag_31\n      calldatasize\n      0x04\n      tag_32\n      jump\t// in\n    tag_31:\n      tag_33\n      jump\t// in\n    tag_30:\n      mload(0x40)\n      tag_22\n      swap2\n      swap1\n      tag_35\n      jump\t// in\n        /* \"KIP37/KIP37.sol\":7504:7932  function safeBatchTransferFrom(... */\n    tag_6:\n      tag_36\n      tag_37\n      calldatasize\n      0x04\n      tag_38\n      jump\t// in\n    tag_37:\n      tag_39\n      jump\t// in\n    tag_36:\n      stop\n        /* \"KIP37/KIP37.sol\":1914:2408  function balanceOfBatch(address[] memory owners, uint256[] memory ids)... */\n    tag_7:\n      tag_40\n      tag_41\n      calldatasize\n      0x04\n      tag_42\n      jump\t// in\n    tag_41:\n      tag_43\n      jump\t// in\n    tag_40:\n      mload(0x40)\n      tag_22\n      swap2\n      swap1\n      tag_45\n      jump\t// in\n        /* \"KIP37/KIP37.sol\":1768:1907  function isProcessLocked(uint256 tokenId, address owner) public view returns (uint256) {... */\n    tag_8:\n      tag_18\n      tag_47\n      calldatasize\n      0x04\n      tag_48\n      jump\t// in\n    tag_47:\n      sub(shl(0xa0, 0x01), 0x01)\n        /* \"KIP37/KIP37.sol\":1872:1891  _processLock[owner] */\n      and\n        /* \"KIP37/KIP37.sol\":1846:1853  uint256 */\n      0x00\n        /* \"KIP37/KIP37.sol\":1872:1891  _processLock[owner] */\n      swap1\n      dup2\n      mstore\n        /* \"KIP37/KIP37.sol\":1872:1884  _processLock */\n      0x04\n        /* \"KIP37/KIP37.sol\":1872:1891  _processLock[owner] */\n      0x20\n      swap1\n      dup2\n      mstore\n      0x40\n      dup1\n      dup4\n      keccak256\n        /* \"KIP37/KIP37.sol\":1872:1900  _processLock[owner][tokenId] */\n      swap4\n      dup4\n      mstore\n      swap3\n      swap1\n      mstore\n      keccak256\n      sload\n      swap1\n        /* \"KIP37/KIP37.sol\":1768:1907  function isProcessLocked(uint256 tokenId, address owner) public view returns (uint256) {... */\n      jump\n        /* \"KIP37/KIP37.sol\":6783:6936  function setApprovalForAll(address operator, bool approved) public virtual override {... */\n    tag_9:\n      tag_36\n      tag_52\n      calldatasize\n      0x04\n      tag_53\n      jump\t// in\n    tag_52:\n      tag_54\n      jump\t// in\n        /* \"KIP37/KIP37.sol\":2982:3545  function getAllProcerssLockedByAddress(address _addr, uint256[] memory tokenIds) public view virtual returns (uint256[] memory, uint256[] memory) {... */\n    tag_10:\n      tag_55\n      tag_56\n      calldatasize\n      0x04\n      tag_57\n      jump\t// in\n    tag_56:\n      tag_58\n      jump\t// in\n    tag_55:\n      mload(0x40)\n      tag_22\n      swap3\n      swap2\n      swap1\n      tag_60\n      jump\t// in\n        /* \"KIP37/KIP37.sol\":1624:1762  function isTokenLocked(uint256 tokenId, address owner) public view returns (uint256) {... */\n    tag_11:\n      tag_18\n      tag_62\n      calldatasize\n      0x04\n      tag_48\n      jump\t// in\n    tag_62:\n      sub(shl(0xa0, 0x01), 0x01)\n        /* \"KIP37/KIP37.sol\":1726:1746  _lockedTokens[owner] */\n      and\n        /* \"KIP37/KIP37.sol\":1700:1707  uint256 */\n      0x00\n        /* \"KIP37/KIP37.sol\":1726:1746  _lockedTokens[owner] */\n      swap1\n      dup2\n      mstore\n        /* \"KIP37/KIP37.sol\":1726:1739  _lockedTokens */\n      0x03\n        /* \"KIP37/KIP37.sol\":1726:1746  _lockedTokens[owner] */\n      0x20\n      swap1\n      dup2\n      mstore\n      0x40\n      dup1\n      dup4\n      keccak256\n        /* \"KIP37/KIP37.sol\":1726:1755  _lockedTokens[owner][tokenId] */\n      swap4\n      dup4\n      mstore\n      swap3\n      swap1\n      mstore\n      keccak256\n      sload\n      swap1\n        /* \"KIP37/KIP37.sol\":1624:1762  function isTokenLocked(uint256 tokenId, address owner) public view returns (uint256) {... */\n      jump\n        /* \"KIP37/KIP37.sol\":1273:1393  function totalSupply(uint256 id) public view virtual override returns (uint256) {... */\n    tag_12:\n      tag_18\n      tag_66\n      calldatasize\n      0x04\n      tag_32\n      jump\t// in\n    tag_66:\n        /* \"KIP37/KIP37.sol\":1344:1351  uint256 */\n      0x00\n        /* \"KIP37/KIP37.sol\":1370:1386  _totalSupply[id] */\n      swap1\n      dup2\n      mstore\n        /* \"KIP37/KIP37.sol\":1370:1382  _totalSupply */\n      0x01\n        /* \"KIP37/KIP37.sol\":1370:1386  _totalSupply[id] */\n      0x20\n      mstore\n      0x40\n      swap1\n      keccak256\n      sload\n      swap1\n        /* \"KIP37/KIP37.sol\":1273:1393  function totalSupply(uint256 id) public view virtual override returns (uint256) {... */\n      jump\n        /* \"KIP37/KIP37.sol\":6943:7105  function isApprovedForAll(address owner, address operator) public view virtual override returns (bool) {... */\n    tag_13:\n      tag_24\n      tag_70\n      calldatasize\n      0x04\n      tag_71\n      jump\t// in\n    tag_70:\n      sub(shl(0xa0, 0x01), 0x01)\n        /* \"KIP37/KIP37.sol\":7063:7088  _operatorApprovals[owner] */\n      swap2\n      dup3\n      and\n        /* \"KIP37/KIP37.sol\":7040:7044  bool */\n      0x00\n        /* \"KIP37/KIP37.sol\":7063:7088  _operatorApprovals[owner] */\n      swap1\n      dup2\n      mstore\n        /* \"KIP37/KIP37.sol\":7063:7081  _operatorApprovals */\n      0x02\n        /* \"KIP37/KIP37.sol\":7063:7088  _operatorApprovals[owner] */\n      0x20\n      swap1\n      dup2\n      mstore\n      0x40\n      dup1\n      dup4\n      keccak256\n        /* \"KIP37/KIP37.sol\":7063:7098  _operatorApprovals[owner][operator] */\n      swap4\n      swap1\n      swap5\n      and\n      dup3\n      mstore\n      swap2\n      swap1\n      swap2\n      mstore\n      keccak256\n      sload\n      0xff\n      and\n      swap1\n        /* \"KIP37/KIP37.sol\":6943:7105  function isApprovedForAll(address owner, address operator) public view virtual override returns (bool) {... */\n      jump\n        /* \"KIP37/KIP37.sol\":2414:2976  function getAllLockedTokensByAddress(address _addr, uint256[] memory tokenIds) public view virtual returns (uint256[] memory, uint256[] memory) {... */\n    tag_14:\n      tag_55\n      tag_75\n      calldatasize\n      0x04\n      tag_57\n      jump\t// in\n    tag_75:\n      tag_76\n      jump\t// in\n        /* \"KIP37/KIP37.sol\":7111:7498  function safeTransferFrom(... */\n    tag_15:\n      tag_36\n      tag_79\n      calldatasize\n      0x04\n      tag_80\n      jump\t// in\n    tag_79:\n      tag_81\n      jump\t// in\n        /* \"KIP37/KIP37.sol\":1399:1618  function balanceOf(address owner, uint256 id) public view virtual override returns (uint256) {... */\n    tag_21:\n        /* \"KIP37/KIP37.sol\":1483:1490  uint256 */\n      0x00\n      sub(shl(0xa0, 0x01), 0x01)\n        /* \"KIP37/KIP37.sol\":1510:1529  owner != address(0) */\n      dup4\n      and\n        /* \"KIP37/KIP37.sol\":1502:1574  require(owner != address(0), \"KIP37: address zero is not a valid owner\") */\n      tag_83\n      jumpi\n      mload(0x40)\n      shl(0xe5, 0x461bcd)\n      dup2\n      mstore\n        /* \"#utility.yul\":9242:9244   */\n      0x20\n        /* \"KIP37/KIP37.sol\":1502:1574  require(owner != address(0), \"KIP37: address zero is not a valid owner\") */\n      0x04\n      dup3\n      add\n        /* \"#utility.yul\":9224:9245   */\n      mstore\n        /* \"#utility.yul\":9281:9283   */\n      0x28\n        /* \"#utility.yul\":9261:9279   */\n      0x24\n      dup3\n      add\n        /* \"#utility.yul\":9254:9284   */\n      mstore\n        /* \"#utility.yul\":9320:9354   */\n      0x4b495033373a2061646472657373207a65726f206973206e6f7420612076616c\n        /* \"#utility.yul\":9300:9318   */\n      0x44\n      dup3\n      add\n        /* \"#utility.yul\":9293:9355   */\n      mstore\n      shl(0xc1, 0x34b21037bbb732b9)\n        /* \"#utility.yul\":9371:9389   */\n      0x64\n      dup3\n      add\n        /* \"#utility.yul\":9364:9402   */\n      mstore\n        /* \"#utility.yul\":9419:9438   */\n      0x84\n      add\n        /* \"KIP37/KIP37.sol\":1502:1574  require(owner != address(0), \"KIP37: address zero is not a valid owner\") */\n    tag_84:\n      mload(0x40)\n      dup1\n      swap2\n      sub\n      swap1\n      revert\n    tag_83:\n      pop\n        /* \"KIP37/KIP37.sol\":1591:1600  _balances */\n      0x00\n        /* \"KIP37/KIP37.sol\":1591:1604  _balances[id] */\n      dup2\n      dup2\n      mstore\n      0x20\n      dup2\n      dup2\n      mstore\n      0x40\n      dup1\n      dup4\n      keccak256\n      sub(shl(0xa0, 0x01), 0x01)\n        /* \"KIP37/KIP37.sol\":1591:1611  _balances[id][owner] */\n      dup7\n      and\n      dup5\n      mstore\n      swap1\n      swap2\n      mstore\n      swap1\n      keccak256\n      sload\n        /* \"KIP37/KIP37.sol\":1399:1618  function balanceOf(address owner, uint256 id) public view virtual override returns (uint256) {... */\n    tag_82:\n      swap3\n      swap2\n      pop\n      pop\n      jump\t// out\n        /* \"KIP37/KIP37.sol\":860:1159  function supportsInterface(bytes4 interfaceId) public view virtual override(KIP13, IKIP13) returns (bool) {... */\n    tag_27:\n        /* \"KIP37/KIP37.sol\":960:964  bool */\n      0x00\n      not(sub(shl(0xe0, 0x01), 0x01))\n        /* \"KIP37/KIP37.sol\":995:1034  interfaceId == type(IKIP37).interfaceId */\n      dup3\n      and\n      shl(0xe0, 0x6433ca1f)\n      eq\n      dup1\n        /* \"KIP37/KIP37.sol\":995:1100  interfaceId == type(IKIP37).interfaceId ||... */\n      tag_87\n      jumpi\n      pop\n      not(sub(shl(0xe0, 0x01), 0x01))\n        /* \"KIP37/KIP37.sol\":1050:1100  interfaceId == type(IKIP37MetadataURI).interfaceId */\n      dup3\n      and\n      shl(0xe2, 0x03a24d07)\n      eq\n        /* \"KIP37/KIP37.sol\":995:1100  interfaceId == type(IKIP37).interfaceId ||... */\n    tag_87:\n        /* \"KIP37/KIP37.sol\":995:1152  interfaceId == type(IKIP37).interfaceId ||... */\n      dup1\n      tag_82\n      jumpi\n      pop\n      shl(0xe0, 0x01ffc9a7)\n      not(sub(shl(0xe0, 0x01), 0x01))\n        /* \"KIP17/introspection/KIP13.sol\":240:279  interfaceId == type(IKIP13).interfaceId */\n      dup4\n      and\n      eq\n        /* \"KIP37/KIP37.sol\":1116:1152  KIP13.supportsInterface(interfaceId) */\n      tag_82\n        /* \"KIP17/introspection/KIP13.sol\":132:286  function supportsInterface(bytes4 interfaceId) public view virtual override returns (bool) {... */\n      jump\n        /* \"KIP37/KIP37.sol\":1164:1267  function uri(uint256) public view virtual override returns (string memory) {... */\n    tag_33:\n        /* \"KIP37/KIP37.sol\":1224:1237  string memory */\n      0x60\n        /* \"KIP37/KIP37.sol\":1256:1260  _uri */\n      0x05\n        /* \"KIP37/KIP37.sol\":1249:1260  return _uri */\n      dup1\n      sload\n      tag_92\n      swap1\n      tag_93\n      jump\t// in\n    tag_92:\n      dup1\n      0x1f\n      add\n      0x20\n      dup1\n      swap2\n      div\n      mul\n      0x20\n      add\n      mload(0x40)\n      swap1\n      dup2\n      add\n      0x40\n      mstore\n      dup1\n      swap3\n      swap2\n      swap1\n      dup2\n      dup2\n      mstore\n      0x20\n      add\n      dup3\n      dup1\n      sload\n      tag_94\n      swap1\n      tag_93\n      jump\t// in\n    tag_94:\n      dup1\n      iszero\n      tag_95\n      jumpi\n      dup1\n      0x1f\n      lt\n      tag_96\n      jumpi\n      0x0100\n      dup1\n      dup4\n      sload\n      div\n      mul\n      dup4\n      mstore\n      swap2\n      0x20\n      add\n      swap2\n      jump(tag_95)\n    tag_96:\n      dup3\n      add\n      swap2\n      swap1\n      0x00\n      mstore\n      keccak256(0x00, 0x20)\n      swap1\n    tag_97:\n      dup2\n      sload\n      dup2\n      mstore\n      swap1\n      0x01\n      add\n      swap1\n      0x20\n      add\n      dup1\n      dup4\n      gt\n      tag_97\n      jumpi\n      dup3\n      swap1\n      sub\n      0x1f\n      and\n      dup3\n      add\n      swap2\n    tag_95:\n      pop\n      pop\n      pop\n      pop\n      pop\n      swap1\n      pop\n        /* \"KIP37/KIP37.sol\":1164:1267  function uri(uint256) public view virtual override returns (string memory) {... */\n      swap2\n      swap1\n      pop\n      jump\t// out\n        /* \"KIP37/KIP37.sol\":7504:7932  function safeBatchTransferFrom(... */\n    tag_39:\n      sub(shl(0xa0, 0x01), 0x01)\n        /* \"KIP37/KIP37.sol\":7729:7749  from == _msgSender() */\n      dup6\n      and\n        /* \"KIP37/utils/Context.sol\":169:179  msg.sender */\n      caller\n        /* \"KIP37/KIP37.sol\":7729:7749  from == _msgSender() */\n      eq\n      dup1\n        /* \"KIP37/KIP37.sol\":7729:7789  from == _msgSender() || isApprovedForAll(from, _msgSender()) */\n      tag_102\n      jumpi\n      pop\n        /* \"KIP37/KIP37.sol\":7753:7789  isApprovedForAll(from, _msgSender()) */\n      tag_102\n        /* \"KIP37/KIP37.sol\":7770:7774  from */\n      dup6\n        /* \"KIP37/utils/Context.sol\":169:179  msg.sender */\n      caller\n        /* \"KIP37/KIP37.sol\":6943:7105  function isApprovedForAll(address owner, address operator) public view virtual override returns (bool) {... */\n      tag_70\n      jump\t// in\n        /* \"KIP37/KIP37.sol\":7753:7789  isApprovedForAll(from, _msgSender()) */\n    tag_102:\n        /* \"KIP37/KIP37.sol\":7708:7863  require(... */\n      tag_104\n      jumpi\n      mload(0x40)\n      shl(0xe5, 0x461bcd)\n      dup2\n      mstore\n        /* \"#utility.yul\":10036:10038   */\n      0x20\n        /* \"KIP37/KIP37.sol\":7708:7863  require(... */\n      0x04\n      dup3\n      add\n        /* \"#utility.yul\":10018:10039   */\n      mstore\n        /* \"#utility.yul\":10075:10077   */\n      0x30\n        /* \"#utility.yul\":10055:10073   */\n      0x24\n      dup3\n      add\n        /* \"#utility.yul\":10048:10078   */\n      mstore\n        /* \"#utility.yul\":10114:10148   */\n      0x4b495033373a207472616e736665722063616c6c6572206973206e6f74206f77\n        /* \"#utility.yul\":10094:10112   */\n      0x44\n      dup3\n      add\n        /* \"#utility.yul\":10087:10149   */\n      mstore\n      shl(0x82, 0x1b995c881b9bdc88185c1c1c9bdd9959)\n        /* \"#utility.yul\":10165:10183   */\n      0x64\n      dup3\n      add\n        /* \"#utility.yul\":10158:10204   */\n      mstore\n        /* \"#utility.yul\":10221:10240   */\n      0x84\n      add\n        /* \"KIP37/KIP37.sol\":7708:7863  require(... */\n      tag_84\n        /* \"#utility.yul\":9834:10246   */\n      jump\n        /* \"KIP37/KIP37.sol\":7708:7863  require(... */\n    tag_104:\n        /* \"KIP37/KIP37.sol\":7873:7925  _safeBatchTransferFrom(from, to, ids, amounts, data) */\n      tag_107\n        /* \"KIP37/KIP37.sol\":7896:7900  from */\n      dup6\n        /* \"KIP37/KIP37.sol\":7902:7904  to */\n      dup6\n        /* \"KIP37/KIP37.sol\":7906:7909  ids */\n      dup6\n        /* \"KIP37/KIP37.sol\":7911:7918  amounts */\n      dup6\n        /* \"KIP37/KIP37.sol\":7920:7924  data */\n      dup6\n        /* \"KIP37/KIP37.sol\":7873:7895  _safeBatchTransferFrom */\n      tag_108\n        /* \"KIP37/KIP37.sol\":7873:7925  _safeBatchTransferFrom(from, to, ids, amounts, data) */\n      jump\t// in\n    tag_107:\n        /* \"KIP37/KIP37.sol\":7504:7932  function safeBatchTransferFrom(... */\n      pop\n      pop\n      pop\n      pop\n      pop\n      jump\t// out\n        /* \"KIP37/KIP37.sol\":1914:2408  function balanceOfBatch(address[] memory owners, uint256[] memory ids)... */\n    tag_43:\n        /* \"KIP37/KIP37.sol\":2063:2079  uint256[] memory */\n      0x60\n        /* \"KIP37/KIP37.sol\":2120:2123  ids */\n      dup2\n        /* \"KIP37/KIP37.sol\":2120:2130  ids.length */\n      mload\n        /* \"KIP37/KIP37.sol\":2103:2109  owners */\n      dup4\n        /* \"KIP37/KIP37.sol\":2103:2116  owners.length */\n      mload\n        /* \"KIP37/KIP37.sol\":2103:2130  owners.length == ids.length */\n      eq\n        /* \"KIP37/KIP37.sol\":2095:2172  require(owners.length == ids.length, \"KIP37: owners and ids length mismatch\") */\n      tag_110\n      jumpi\n      mload(0x40)\n      shl(0xe5, 0x461bcd)\n      dup2\n      mstore\n        /* \"#utility.yul\":10453:10455   */\n      0x20\n        /* \"KIP37/KIP37.sol\":2095:2172  require(owners.length == ids.length, \"KIP37: owners and ids length mismatch\") */\n      0x04\n      dup3\n      add\n        /* \"#utility.yul\":10435:10456   */\n      mstore\n        /* \"#utility.yul\":10492:10494   */\n      0x25\n        /* \"#utility.yul\":10472:10490   */\n      0x24\n      dup3\n      add\n        /* \"#utility.yul\":10465:10495   */\n      mstore\n        /* \"#utility.yul\":10531:10565   */\n      0x4b495033373a206f776e65727320616e6420696473206c656e677468206d6973\n        /* \"#utility.yul\":10511:10529   */\n      0x44\n      dup3\n      add\n        /* \"#utility.yul\":10504:10566   */\n      mstore\n      shl(0xdb, 0x0dac2e8c6d)\n        /* \"#utility.yul\":10582:10600   */\n      0x64\n      dup3\n      add\n        /* \"#utility.yul\":10575:10610   */\n      mstore\n        /* \"#utility.yul\":10627:10646   */\n      0x84\n      add\n        /* \"KIP37/KIP37.sol\":2095:2172  require(owners.length == ids.length, \"KIP37: owners and ids length mismatch\") */\n      tag_84\n        /* \"#utility.yul\":10251:10652   */\n      jump\n        /* \"KIP37/KIP37.sol\":2095:2172  require(owners.length == ids.length, \"KIP37: owners and ids length mismatch\") */\n    tag_110:\n        /* \"KIP37/KIP37.sol\":2183:2213  uint256[] memory batchBalances */\n      0x00\n        /* \"KIP37/KIP37.sol\":2230:2236  owners */\n      dup4\n        /* \"KIP37/KIP37.sol\":2230:2243  owners.length */\n      mload\n        /* \"KIP37/KIP37.sol\":2216:2244  new uint256[](owners.length) */\n      0xffffffffffffffff\n      dup2\n      gt\n      iszero\n      tag_114\n      jumpi\n      tag_114\n      tag_115\n      jump\t// in\n    tag_114:\n      mload(0x40)\n      swap1\n      dup1\n      dup3\n      mstore\n      dup1\n      0x20\n      mul\n      0x20\n      add\n      dup3\n      add\n      0x40\n      mstore\n      dup1\n      iszero\n      tag_116\n      jumpi\n      dup2\n      0x20\n      add\n      0x20\n      dup3\n      mul\n      dup1\n      calldatasize\n      dup4\n      calldatacopy\n      add\n      swap1\n      pop\n    tag_116:\n      pop\n        /* \"KIP37/KIP37.sol\":2183:2244  uint256[] memory batchBalances = new uint256[](owners.length) */\n      swap1\n      pop\n        /* \"KIP37/KIP37.sol\":2260:2269  uint256 i */\n      0x00\n        /* \"KIP37/KIP37.sol\":2255:2371  for (uint256 i = 0; i < owners.length; ++i) {... */\n    tag_117:\n        /* \"KIP37/KIP37.sol\":2279:2285  owners */\n      dup5\n        /* \"KIP37/KIP37.sol\":2279:2292  owners.length */\n      mload\n        /* \"KIP37/KIP37.sol\":2275:2276  i */\n      dup2\n        /* \"KIP37/KIP37.sol\":2275:2292  i < owners.length */\n      lt\n        /* \"KIP37/KIP37.sol\":2255:2371  for (uint256 i = 0; i < owners.length; ++i) {... */\n      iszero\n      tag_118\n      jumpi\n        /* \"KIP37/KIP37.sol\":2332:2360  balanceOf(owners[i], ids[i]) */\n      tag_120\n        /* \"KIP37/KIP37.sol\":2342:2348  owners */\n      dup6\n        /* \"KIP37/KIP37.sol\":2349:2350  i */\n      dup3\n        /* \"KIP37/KIP37.sol\":2342:2351  owners[i] */\n      dup2\n      mload\n      dup2\n      lt\n      tag_122\n      jumpi\n      tag_122\n      tag_123\n      jump\t// in\n    tag_122:\n      0x20\n      mul\n      0x20\n      add\n      add\n      mload\n        /* \"KIP37/KIP37.sol\":2353:2356  ids */\n      dup6\n        /* \"KIP37/KIP37.sol\":2357:2358  i */\n      dup4\n        /* \"KIP37/KIP37.sol\":2353:2359  ids[i] */\n      dup2\n      mload\n      dup2\n      lt\n      tag_125\n      jumpi\n      tag_125\n      tag_123\n      jump\t// in\n    tag_125:\n      0x20\n      mul\n      0x20\n      add\n      add\n      mload\n        /* \"KIP37/KIP37.sol\":2332:2341  balanceOf */\n      tag_21\n        /* \"KIP37/KIP37.sol\":2332:2360  balanceOf(owners[i], ids[i]) */\n      jump\t// in\n    tag_120:\n        /* \"KIP37/KIP37.sol\":2313:2326  batchBalances */\n      dup3\n        /* \"KIP37/KIP37.sol\":2327:2328  i */\n      dup3\n        /* \"KIP37/KIP37.sol\":2313:2329  batchBalances[i] */\n      dup2\n      mload\n      dup2\n      lt\n      tag_127\n      jumpi\n      tag_127\n      tag_123\n      jump\t// in\n    tag_127:\n      0x20\n      swap1\n      dup2\n      mul\n      swap2\n      swap1\n      swap2\n      add\n      add\n        /* \"KIP37/KIP37.sol\":2313:2360  batchBalances[i] = balanceOf(owners[i], ids[i]) */\n      mstore\n        /* \"KIP37/KIP37.sol\":2294:2297  ++i */\n      tag_128\n      dup2\n      tag_129\n      jump\t// in\n    tag_128:\n      swap1\n      pop\n        /* \"KIP37/KIP37.sol\":2255:2371  for (uint256 i = 0; i < owners.length; ++i) {... */\n      jump(tag_117)\n    tag_118:\n      pop\n        /* \"KIP37/KIP37.sol\":2388:2401  batchBalances */\n      swap4\n        /* \"KIP37/KIP37.sol\":1914:2408  function balanceOfBatch(address[] memory owners, uint256[] memory ids)... */\n      swap3\n      pop\n      pop\n      pop\n      jump\t// out\n        /* \"KIP37/KIP37.sol\":6783:6936  function setApprovalForAll(address operator, bool approved) public virtual override {... */\n    tag_54:\n        /* \"KIP37/KIP37.sol\":6877:6929  _setApprovalForAll(_msgSender(), operator, approved) */\n      tag_132\n        /* \"KIP37/utils/Context.sol\":169:179  msg.sender */\n      caller\n        /* \"KIP37/KIP37.sol\":6910:6918  operator */\n      dup4\n        /* \"KIP37/KIP37.sol\":6920:6928  approved */\n      dup4\n        /* \"KIP37/KIP37.sol\":6877:6895  _setApprovalForAll */\n      tag_134\n        /* \"KIP37/KIP37.sol\":6877:6929  _setApprovalForAll(_msgSender(), operator, approved) */\n      jump\t// in\n    tag_132:\n        /* \"KIP37/KIP37.sol\":6783:6936  function setApprovalForAll(address operator, bool approved) public virtual override {... */\n      pop\n      pop\n      jump\t// out\n        /* \"KIP37/KIP37.sol\":2982:3545  function getAllProcerssLockedByAddress(address _addr, uint256[] memory tokenIds) public view virtual returns (uint256[] memory, uint256[] memory) {... */\n    tag_58:\n        /* \"KIP37/KIP37.sol\":3092:3108  uint256[] memory */\n      0x60\n        /* \"KIP37/KIP37.sol\":3110:3126  uint256[] memory */\n      dup1\n        /* \"KIP37/KIP37.sol\":3138:3162  uint256[] memory indices */\n      0x60\n        /* \"KIP37/KIP37.sol\":3172:3195  uint256[] memory values */\n      dup1\n        /* \"KIP37/KIP37.sol\":3211:3220  uint256 i */\n      0x00\n        /* \"KIP37/KIP37.sol\":3206:3504  for (uint256 i = 0; i < tokenIds.length - 1; i++) {... */\n    tag_136:\n        /* \"KIP37/KIP37.sol\":3248:3249  1 */\n      0x01\n        /* \"KIP37/KIP37.sol\":3230:3238  tokenIds */\n      dup7\n        /* \"KIP37/KIP37.sol\":3230:3245  tokenIds.length */\n      mload\n        /* \"KIP37/KIP37.sol\":3230:3249  tokenIds.length - 1 */\n      tag_139\n      swap2\n      swap1\n      tag_140\n      jump\t// in\n    tag_139:\n        /* \"KIP37/KIP37.sol\":3226:3227  i */\n      dup2\n        /* \"KIP37/KIP37.sol\":3226:3249  i < tokenIds.length - 1 */\n      lt\n        /* \"KIP37/KIP37.sol\":3206:3504  for (uint256 i = 0; i < tokenIds.length - 1; i++) {... */\n      iszero\n      tag_137\n      jumpi\n      sub(shl(0xa0, 0x01), 0x01)\n        /* \"KIP37/KIP37.sol\":3286:3305  _processLock[_addr] */\n      dup8\n      and\n        /* \"KIP37/KIP37.sol\":3270:3283  uint256 value */\n      0x00\n        /* \"KIP37/KIP37.sol\":3286:3305  _processLock[_addr] */\n      swap1\n      dup2\n      mstore\n        /* \"KIP37/KIP37.sol\":3286:3298  _processLock */\n      0x04\n        /* \"KIP37/KIP37.sol\":3286:3305  _processLock[_addr] */\n      0x20\n      mstore\n      0x40\n      dup2\n      keccak256\n        /* \"KIP37/KIP37.sol\":3306:3317  tokenIds[i] */\n      dup8\n      mload\n        /* \"KIP37/KIP37.sol\":3270:3283  uint256 value */\n      dup3\n      swap1\n        /* \"KIP37/KIP37.sol\":3306:3314  tokenIds */\n      dup10\n      swap1\n        /* \"KIP37/KIP37.sol\":3315:3316  i */\n      dup6\n      swap1\n        /* \"KIP37/KIP37.sol\":3306:3317  tokenIds[i] */\n      dup2\n      lt\n      tag_142\n      jumpi\n      tag_142\n      tag_123\n      jump\t// in\n    tag_142:\n      0x20\n      mul\n      0x20\n      add\n      add\n      mload\n        /* \"KIP37/KIP37.sol\":3286:3318  _processLock[_addr][tokenIds[i]] */\n      dup2\n      mstore\n      0x20\n      add\n      swap1\n      dup2\n      mstore\n      0x20\n      add\n      0x00\n      keccak256\n      sload\n        /* \"KIP37/KIP37.sol\":3270:3318  uint256 value = _processLock[_addr][tokenIds[i]] */\n      swap1\n      pop\n        /* \"KIP37/KIP37.sol\":3344:3345  0 */\n      0x00\n        /* \"KIP37/KIP37.sol\":3336:3341  value */\n      dup2\n        /* \"KIP37/KIP37.sol\":3336:3345  value > 0 */\n      gt\n        /* \"KIP37/KIP37.sol\":3332:3494  if (value > 0) {... */\n      iszero\n      tag_143\n      jumpi\n        /* \"KIP37/KIP37.sol\":3375:3417  appendUint256ToArray(indices, tokenIds[i]) */\n      tag_144\n        /* \"KIP37/KIP37.sol\":3396:3403  indices */\n      dup5\n        /* \"KIP37/KIP37.sol\":3405:3413  tokenIds */\n      dup9\n        /* \"KIP37/KIP37.sol\":3414:3415  i */\n      dup5\n        /* \"KIP37/KIP37.sol\":3405:3416  tokenIds[i] */\n      dup2\n      mload\n      dup2\n      lt\n      tag_146\n      jumpi\n      tag_146\n      tag_123\n      jump\t// in\n    tag_146:\n      0x20\n      mul\n      0x20\n      add\n      add\n      mload\n        /* \"KIP37/KIP37.sol\":3375:3395  appendUint256ToArray */\n      tag_147\n        /* \"KIP37/KIP37.sol\":3375:3417  appendUint256ToArray(indices, tokenIds[i]) */\n      jump\t// in\n    tag_144:\n        /* \"KIP37/KIP37.sol\":3365:3417  indices = appendUint256ToArray(indices, tokenIds[i]) */\n      swap4\n      pop\n        /* \"KIP37/KIP37.sol\":3444:3479  appendUint256ToArray(values, value) */\n      tag_148\n        /* \"KIP37/KIP37.sol\":3465:3471  values */\n      dup4\n        /* \"KIP37/KIP37.sol\":3473:3478  value */\n      dup3\n        /* \"KIP37/KIP37.sol\":3444:3464  appendUint256ToArray */\n      tag_147\n        /* \"KIP37/KIP37.sol\":3444:3479  appendUint256ToArray(values, value) */\n      jump\t// in\n    tag_148:\n        /* \"KIP37/KIP37.sol\":3435:3479  values = appendUint256ToArray(values, value) */\n      swap3\n      pop\n        /* \"KIP37/KIP37.sol\":3332:3494  if (value > 0) {... */\n    tag_143:\n      pop\n        /* \"KIP37/KIP37.sol\":3251:3254  i++ */\n      dup1\n      tag_149\n      dup2\n      tag_129\n      jump\t// in\n    tag_149:\n      swap2\n      pop\n      pop\n        /* \"KIP37/KIP37.sol\":3206:3504  for (uint256 i = 0; i < tokenIds.length - 1; i++) {... */\n      jump(tag_136)\n    tag_137:\n      pop\n        /* \"KIP37/KIP37.sol\":3522:3529  indices */\n      swap1\n      swap6\n      swap1\n      swap5\n      pop\n        /* \"KIP37/KIP37.sol\":2982:3545  function getAllProcerssLockedByAddress(address _addr, uint256[] memory tokenIds) public view virtual returns (uint256[] memory, uint256[] memory) {... */\n      swap3\n      pop\n      pop\n      pop\n      jump\t// out\n        /* \"KIP37/KIP37.sol\":2414:2976  function getAllLockedTokensByAddress(address _addr, uint256[] memory tokenIds) public view virtual returns (uint256[] memory, uint256[] memory) {... */\n    tag_76:\n        /* \"KIP37/KIP37.sol\":2522:2538  uint256[] memory */\n      0x60\n        /* \"KIP37/KIP37.sol\":2540:2556  uint256[] memory */\n      dup1\n        /* \"KIP37/KIP37.sol\":2568:2592  uint256[] memory indices */\n      0x60\n        /* \"KIP37/KIP37.sol\":2602:2625  uint256[] memory values */\n      dup1\n        /* \"KIP37/KIP37.sol\":2641:2650  uint256 i */\n      0x00\n        /* \"KIP37/KIP37.sol\":2636:2935  for (uint256 i = 0; i < tokenIds.length - 1; i++) {... */\n    tag_154:\n        /* \"KIP37/KIP37.sol\":2678:2679  1 */\n      0x01\n        /* \"KIP37/KIP37.sol\":2660:2668  tokenIds */\n      dup7\n        /* \"KIP37/KIP37.sol\":2660:2675  tokenIds.length */\n      mload\n        /* \"KIP37/KIP37.sol\":2660:2679  tokenIds.length - 1 */\n      tag_157\n      swap2\n      swap1\n      tag_140\n      jump\t// in\n    tag_157:\n        /* \"KIP37/KIP37.sol\":2656:2657  i */\n      dup2\n        /* \"KIP37/KIP37.sol\":2656:2679  i < tokenIds.length - 1 */\n      lt\n        /* \"KIP37/KIP37.sol\":2636:2935  for (uint256 i = 0; i < tokenIds.length - 1; i++) {... */\n      iszero\n      tag_137\n      jumpi\n      sub(shl(0xa0, 0x01), 0x01)\n        /* \"KIP37/KIP37.sol\":2716:2736  _lockedTokens[_addr] */\n      dup8\n      and\n        /* \"KIP37/KIP37.sol\":2700:2713  uint256 value */\n      0x00\n        /* \"KIP37/KIP37.sol\":2716:2736  _lockedTokens[_addr] */\n      swap1\n      dup2\n      mstore\n        /* \"KIP37/KIP37.sol\":2716:2729  _lockedTokens */\n      0x03\n        /* \"KIP37/KIP37.sol\":2716:2736  _lockedTokens[_addr] */\n      0x20\n      mstore\n      0x40\n      dup2\n      keccak256\n        /* \"KIP37/KIP37.sol\":2737:2748  tokenIds[i] */\n      dup8\n      mload\n        /* \"KIP37/KIP37.sol\":2700:2713  uint256 value */\n      dup3\n      swap1\n        /* \"KIP37/KIP37.sol\":2737:2745  tokenIds */\n      dup10\n      swap1\n        /* \"KIP37/KIP37.sol\":2746:2747  i */\n      dup6\n      swap1\n        /* \"KIP37/KIP37.sol\":2737:2748  tokenIds[i] */\n      dup2\n      lt\n      tag_159\n      jumpi\n      tag_159\n      tag_123\n      jump\t// in\n    tag_159:\n      0x20\n      mul\n      0x20\n      add\n      add\n      mload\n        /* \"KIP37/KIP37.sol\":2716:2749  _lockedTokens[_addr][tokenIds[i]] */\n      dup2\n      mstore\n      0x20\n      add\n      swap1\n      dup2\n      mstore\n      0x20\n      add\n      0x00\n      keccak256\n      sload\n        /* \"KIP37/KIP37.sol\":2700:2749  uint256 value = _lockedTokens[_addr][tokenIds[i]] */\n      swap1\n      pop\n        /* \"KIP37/KIP37.sol\":2775:2776  0 */\n      0x00\n        /* \"KIP37/KIP37.sol\":2767:2772  value */\n      dup2\n        /* \"KIP37/KIP37.sol\":2767:2776  value > 0 */\n      gt\n        /* \"KIP37/KIP37.sol\":2763:2925  if (value > 0) {... */\n      iszero\n      tag_160\n      jumpi\n        /* \"KIP37/KIP37.sol\":2806:2848  appendUint256ToArray(indices, tokenIds[i]) */\n      tag_161\n        /* \"KIP37/KIP37.sol\":2827:2834  indices */\n      dup5\n        /* \"KIP37/KIP37.sol\":2836:2844  tokenIds */\n      dup9\n        /* \"KIP37/KIP37.sol\":2845:2846  i */\n      dup5\n        /* \"KIP37/KIP37.sol\":2836:2847  tokenIds[i] */\n      dup2\n      mload\n      dup2\n      lt\n      tag_146\n      jumpi\n      tag_146\n      tag_123\n      jump\t// in\n        /* \"KIP37/KIP37.sol\":2806:2848  appendUint256ToArray(indices, tokenIds[i]) */\n    tag_161:\n        /* \"KIP37/KIP37.sol\":2796:2848  indices = appendUint256ToArray(indices, tokenIds[i]) */\n      swap4\n      pop\n        /* \"KIP37/KIP37.sol\":2875:2910  appendUint256ToArray(values, value) */\n      tag_164\n        /* \"KIP37/KIP37.sol\":2896:2902  values */\n      dup4\n        /* \"KIP37/KIP37.sol\":2904:2909  value */\n      dup3\n        /* \"KIP37/KIP37.sol\":2875:2895  appendUint256ToArray */\n      tag_147\n        /* \"KIP37/KIP37.sol\":2875:2910  appendUint256ToArray(values, value) */\n      jump\t// in\n    tag_164:\n        /* \"KIP37/KIP37.sol\":2866:2910  values = appendUint256ToArray(values, value) */\n      swap3\n      pop\n        /* \"KIP37/KIP37.sol\":2763:2925  if (value > 0) {... */\n    tag_160:\n      pop\n        /* \"KIP37/KIP37.sol\":2681:2684  i++ */\n      dup1\n      tag_165\n      dup2\n      tag_129\n      jump\t// in\n    tag_165:\n      swap2\n      pop\n      pop\n        /* \"KIP37/KIP37.sol\":2636:2935  for (uint256 i = 0; i < tokenIds.length - 1; i++) {... */\n      jump(tag_154)\n        /* \"KIP37/KIP37.sol\":7111:7498  function safeTransferFrom(... */\n    tag_81:\n      sub(shl(0xa0, 0x01), 0x01)\n        /* \"KIP37/KIP37.sol\":7311:7331  from == _msgSender() */\n      dup6\n      and\n        /* \"KIP37/utils/Context.sol\":169:179  msg.sender */\n      caller\n        /* \"KIP37/KIP37.sol\":7311:7331  from == _msgSender() */\n      eq\n      dup1\n        /* \"KIP37/KIP37.sol\":7311:7371  from == _msgSender() || isApprovedForAll(from, _msgSender()) */\n      tag_169\n      jumpi\n      pop\n        /* \"KIP37/KIP37.sol\":7335:7371  isApprovedForAll(from, _msgSender()) */\n      tag_169\n        /* \"KIP37/KIP37.sol\":7352:7356  from */\n      dup6\n        /* \"KIP37/utils/Context.sol\":169:179  msg.sender */\n      caller\n        /* \"KIP37/KIP37.sol\":6943:7105  function isApprovedForAll(address owner, address operator) public view virtual override returns (bool) {... */\n      tag_70\n      jump\t// in\n        /* \"KIP37/KIP37.sol\":7335:7371  isApprovedForAll(from, _msgSender()) */\n    tag_169:\n        /* \"KIP37/KIP37.sol\":7290:7436  require(... */\n      tag_171\n      jumpi\n      mload(0x40)\n      shl(0xe5, 0x461bcd)\n      dup2\n      mstore\n        /* \"#utility.yul\":11396:11398   */\n      0x20\n        /* \"KIP37/KIP37.sol\":7290:7436  require(... */\n      0x04\n      dup3\n      add\n        /* \"#utility.yul\":11378:11399   */\n      mstore\n        /* \"#utility.yul\":11435:11437   */\n      0x27\n        /* \"#utility.yul\":11415:11433   */\n      0x24\n      dup3\n      add\n        /* \"#utility.yul\":11408:11438   */\n      mstore\n        /* \"#utility.yul\":11474:11508   */\n      0x4b495033373a2063616c6c6572206973206e6f74206f776e6572206e6f722061\n        /* \"#utility.yul\":11454:11472   */\n      0x44\n      dup3\n      add\n        /* \"#utility.yul\":11447:11509   */\n      mstore\n      shl(0xca, 0x1c1c1c9bdd9959)\n        /* \"#utility.yul\":11525:11543   */\n      0x64\n      dup3\n      add\n        /* \"#utility.yul\":11518:11555   */\n      mstore\n        /* \"#utility.yul\":11572:11591   */\n      0x84\n      add\n        /* \"KIP37/KIP37.sol\":7290:7436  require(... */\n      tag_84\n        /* \"#utility.yul\":11194:11597   */\n      jump\n        /* \"KIP37/KIP37.sol\":7290:7436  require(... */\n    tag_171:\n        /* \"KIP37/KIP37.sol\":7446:7491  _safeTransferFrom(from, to, id, amount, data) */\n      tag_107\n        /* \"KIP37/KIP37.sol\":7464:7468  from */\n      dup6\n        /* \"KIP37/KIP37.sol\":7470:7472  to */\n      dup6\n        /* \"KIP37/KIP37.sol\":7474:7476  id */\n      dup6\n        /* \"KIP37/KIP37.sol\":7478:7484  amount */\n      dup6\n        /* \"KIP37/KIP37.sol\":7486:7490  data */\n      dup6\n        /* \"KIP37/KIP37.sol\":7446:7463  _safeTransferFrom */\n      tag_175\n        /* \"KIP37/KIP37.sol\":7446:7491  _safeTransferFrom(from, to, id, amount, data) */\n      jump\t// in\n        /* \"KIP37/KIP37.sol\":8887:9996  function _safeBatchTransferFrom(... */\n    tag_108:\n        /* \"KIP37/KIP37.sol\":9107:9114  amounts */\n      dup2\n        /* \"KIP37/KIP37.sol\":9107:9121  amounts.length */\n      mload\n        /* \"KIP37/KIP37.sol\":9093:9096  ids */\n      dup4\n        /* \"KIP37/KIP37.sol\":9093:9103  ids.length */\n      mload\n        /* \"KIP37/KIP37.sol\":9093:9121  ids.length == amounts.length */\n      eq\n        /* \"KIP37/KIP37.sol\":9085:9164  require(ids.length == amounts.length, \"KIP37: ids and amounts length mismatch\") */\n      tag_179\n      jumpi\n      mload(0x40)\n      shl(0xe5, 0x461bcd)\n      dup2\n      mstore\n        /* \"#utility.yul\":11804:11806   */\n      0x20\n        /* \"KIP37/KIP37.sol\":9085:9164  require(ids.length == amounts.length, \"KIP37: ids and amounts length mismatch\") */\n      0x04\n      dup3\n      add\n        /* \"#utility.yul\":11786:11807   */\n      mstore\n        /* \"#utility.yul\":11843:11845   */\n      0x26\n        /* \"#utility.yul\":11823:11841   */\n      0x24\n      dup3\n      add\n        /* \"#utility.yul\":11816:11846   */\n      mstore\n        /* \"#utility.yul\":11882:11916   */\n      0x4b495033373a2069647320616e6420616d6f756e7473206c656e677468206d69\n        /* \"#utility.yul\":11862:11880   */\n      0x44\n      dup3\n      add\n        /* \"#utility.yul\":11855:11917   */\n      mstore\n      shl(0xd3, 0x0e6dac2e8c6d)\n        /* \"#utility.yul\":11933:11951   */\n      0x64\n      dup3\n      add\n        /* \"#utility.yul\":11926:11962   */\n      mstore\n        /* \"#utility.yul\":11979:11998   */\n      0x84\n      add\n        /* \"KIP37/KIP37.sol\":9085:9164  require(ids.length == amounts.length, \"KIP37: ids and amounts length mismatch\") */\n      tag_84\n        /* \"#utility.yul\":11602:12004   */\n      jump\n        /* \"KIP37/KIP37.sol\":9085:9164  require(ids.length == amounts.length, \"KIP37: ids and amounts length mismatch\") */\n    tag_179:\n      sub(shl(0xa0, 0x01), 0x01)\n        /* \"KIP37/KIP37.sol\":9182:9198  to != address(0) */\n      dup5\n      and\n        /* \"KIP37/KIP37.sol\":9174:9238  require(to != address(0), \"KIP37: transfer to the zero address\") */\n      tag_182\n      jumpi\n      mload(0x40)\n      shl(0xe5, 0x461bcd)\n      dup2\n      mstore\n      0x04\n      add\n      tag_84\n      swap1\n      tag_184\n      jump\t// in\n    tag_182:\n        /* \"KIP37/utils/Context.sol\":169:179  msg.sender */\n      caller\n        /* \"KIP37/KIP37.sol\":9291:9351  _beforeTokenTransfer(operator, from, to, ids, amounts, data) */\n      tag_186\n        /* \"KIP37/utils/Context.sol\":169:179  msg.sender */\n      dup2\n        /* \"KIP37/KIP37.sol\":9322:9326  from */\n      dup8\n        /* \"KIP37/KIP37.sol\":9328:9330  to */\n      dup8\n        /* \"KIP37/KIP37.sol\":9332:9335  ids */\n      dup8\n        /* \"KIP37/KIP37.sol\":9337:9344  amounts */\n      dup8\n        /* \"KIP37/KIP37.sol\":9346:9350  data */\n      dup8\n        /* \"KIP37/KIP37.sol\":9291:9311  _beforeTokenTransfer */\n      tag_187\n        /* \"KIP37/KIP37.sol\":9291:9351  _beforeTokenTransfer(operator, from, to, ids, amounts, data) */\n      jump\t// in\n    tag_186:\n        /* \"KIP37/KIP37.sol\":9367:9376  uint256 i */\n      0x00\n        /* \"KIP37/KIP37.sol\":9362:9771  for (uint256 i = 0; i < ids.length; ++i) {... */\n    tag_188:\n        /* \"KIP37/KIP37.sol\":9386:9389  ids */\n      dup5\n        /* \"KIP37/KIP37.sol\":9386:9396  ids.length */\n      mload\n        /* \"KIP37/KIP37.sol\":9382:9383  i */\n      dup2\n        /* \"KIP37/KIP37.sol\":9382:9396  i < ids.length */\n      lt\n        /* \"KIP37/KIP37.sol\":9362:9771  for (uint256 i = 0; i < ids.length; ++i) {... */\n      iszero\n      tag_189\n      jumpi\n        /* \"KIP37/KIP37.sol\":9417:9427  uint256 id */\n      0x00\n        /* \"KIP37/KIP37.sol\":9430:9433  ids */\n      dup6\n        /* \"KIP37/KIP37.sol\":9434:9435  i */\n      dup3\n        /* \"KIP37/KIP37.sol\":9430:9436  ids[i] */\n      dup2\n      mload\n      dup2\n      lt\n      tag_192\n      jumpi\n      tag_192\n      tag_123\n      jump\t// in\n    tag_192:\n      0x20\n      mul\n      0x20\n      add\n      add\n      mload\n        /* \"KIP37/KIP37.sol\":9417:9436  uint256 id = ids[i] */\n      swap1\n      pop\n        /* \"KIP37/KIP37.sol\":9450:9464  uint256 amount */\n      0x00\n        /* \"KIP37/KIP37.sol\":9467:9474  amounts */\n      dup6\n        /* \"KIP37/KIP37.sol\":9475:9476  i */\n      dup4\n        /* \"KIP37/KIP37.sol\":9467:9477  amounts[i] */\n      dup2\n      mload\n      dup2\n      lt\n      tag_194\n      jumpi\n      tag_194\n      tag_123\n      jump\t// in\n    tag_194:\n      0x20\n      swap1\n      dup2\n      mul\n      swap2\n      swap1\n      swap2\n      add\n      dup2\n      add\n      mload\n        /* \"KIP37/KIP37.sol\":9492:9511  uint256 fromBalance */\n      0x00\n        /* \"KIP37/KIP37.sol\":9514:9527  _balances[id] */\n      dup5\n      dup2\n      mstore\n      dup1\n      dup4\n      mstore\n      0x40\n      dup1\n      dup3\n      keccak256\n      sub(shl(0xa0, 0x01), 0x01)\n        /* \"KIP37/KIP37.sol\":9514:9533  _balances[id][from] */\n      dup15\n      and\n      dup4\n      mstore\n      swap1\n      swap4\n      mstore\n      swap2\n      swap1\n      swap2\n      keccak256\n      sload\n        /* \"KIP37/KIP37.sol\":9467:9477  amounts[i] */\n      swap1\n      swap2\n      pop\n        /* \"KIP37/KIP37.sol\":9555:9576  fromBalance >= amount */\n      dup2\n      dup2\n      lt\n      iszero\n        /* \"KIP37/KIP37.sol\":9547:9621  require(fromBalance >= amount, \"KIP37: insufficient balance for transfer\") */\n      tag_195\n      jumpi\n      mload(0x40)\n      shl(0xe5, 0x461bcd)\n      dup2\n      mstore\n      0x04\n      add\n      tag_84\n      swap1\n      tag_197\n      jump\t// in\n    tag_195:\n        /* \"KIP37/KIP37.sol\":9663:9672  _balances */\n      0x00\n        /* \"KIP37/KIP37.sol\":9663:9676  _balances[id] */\n      dup4\n      dup2\n      mstore\n      0x20\n      dup2\n      dup2\n      mstore\n      0x40\n      dup1\n      dup4\n      keccak256\n      sub(shl(0xa0, 0x01), 0x01)\n        /* \"KIP37/KIP37.sol\":9663:9682  _balances[id][from] */\n      dup15\n      dup2\n      and\n      dup6\n      mstore\n      swap3\n      mstore\n      dup1\n      dup4\n      keccak256\n        /* \"KIP37/KIP37.sol\":9685:9705  fromBalance - amount */\n      dup6\n      dup6\n      sub\n        /* \"KIP37/KIP37.sol\":9663:9705  _balances[id][from] = fromBalance - amount */\n      swap1\n      sstore\n        /* \"KIP37/KIP37.sol\":9733:9750  _balances[id][to] */\n      swap1\n      dup12\n      and\n      dup3\n      mstore\n      dup2\n      keccak256\n        /* \"KIP37/KIP37.sol\":9733:9760  _balances[id][to] += amount */\n      dup1\n      sload\n        /* \"KIP37/KIP37.sol\":9685:9705  fromBalance - amount */\n      dup5\n      swap3\n        /* \"KIP37/KIP37.sol\":9663:9672  _balances */\n      swap1\n        /* \"KIP37/KIP37.sol\":9733:9760  _balances[id][to] += amount */\n      tag_198\n      swap1\n        /* \"KIP37/KIP37.sol\":9685:9705  fromBalance - amount */\n      dup5\n      swap1\n        /* \"KIP37/KIP37.sol\":9733:9760  _balances[id][to] += amount */\n      tag_199\n      jump\t// in\n    tag_198:\n      swap3\n      pop\n      pop\n      dup2\n      swap1\n      sstore\n      pop\n        /* \"KIP37/KIP37.sol\":9403:9771  {... */\n      pop\n      pop\n      pop\n        /* \"KIP37/KIP37.sol\":9398:9401  ++i */\n      dup1\n      tag_200\n      swap1\n      tag_129\n      jump\t// in\n    tag_200:\n      swap1\n      pop\n        /* \"KIP37/KIP37.sol\":9362:9771  for (uint256 i = 0; i < ids.length; ++i) {... */\n      jump(tag_188)\n    tag_189:\n      pop\n        /* \"KIP37/KIP37.sol\":9816:9818  to */\n      dup5\n      sub(shl(0xa0, 0x01), 0x01)\n        /* \"KIP37/KIP37.sol\":9786:9833  TransferBatch(operator, from, to, ids, amounts) */\n      and\n        /* \"KIP37/KIP37.sol\":9810:9814  from */\n      dup7\n      sub(shl(0xa0, 0x01), 0x01)\n        /* \"KIP37/KIP37.sol\":9786:9833  TransferBatch(operator, from, to, ids, amounts) */\n      and\n        /* \"KIP37/KIP37.sol\":9800:9808  operator */\n      dup3\n      sub(shl(0xa0, 0x01), 0x01)\n        /* \"KIP37/KIP37.sol\":9786:9833  TransferBatch(operator, from, to, ids, amounts) */\n      and\n      0x4a39dc06d4c0dbc64b70af90fd698a233a518aa5d07e595d983b8c0526c8f7fb\n        /* \"KIP37/KIP37.sol\":9820:9823  ids */\n      dup8\n        /* \"KIP37/KIP37.sol\":9825:9832  amounts */\n      dup8\n        /* \"KIP37/KIP37.sol\":9786:9833  TransferBatch(operator, from, to, ids, amounts) */\n      mload(0x40)\n      tag_201\n      swap3\n      swap2\n      swap1\n      tag_60\n      jump\t// in\n    tag_201:\n      mload(0x40)\n      dup1\n      swap2\n      sub\n      swap1\n      log4\n        /* \"KIP37/KIP37.sol\":9914:9989  _doSafeBatchTransferAcceptanceCheck(operator, from, to, ids, amounts, data) */\n      tag_204\n        /* \"KIP37/KIP37.sol\":9950:9958  operator */\n      dup2\n        /* \"KIP37/KIP37.sol\":9960:9964  from */\n      dup8\n        /* \"KIP37/KIP37.sol\":9966:9968  to */\n      dup8\n        /* \"KIP37/KIP37.sol\":9970:9973  ids */\n      dup8\n        /* \"KIP37/KIP37.sol\":9975:9982  amounts */\n      dup8\n        /* \"KIP37/KIP37.sol\":9984:9988  data */\n      dup8\n        /* \"KIP37/KIP37.sol\":9914:9949  _doSafeBatchTransferAcceptanceCheck */\n      tag_205\n        /* \"KIP37/KIP37.sol\":9914:9989  _doSafeBatchTransferAcceptanceCheck(operator, from, to, ids, amounts, data) */\n      jump\t// in\n    tag_204:\n        /* \"KIP37/KIP37.sol\":9075:9996  {... */\n      pop\n        /* \"KIP37/KIP37.sol\":8887:9996  function _safeBatchTransferFrom(... */\n      pop\n      pop\n      pop\n      pop\n      pop\n      jump\t// out\n        /* \"KIP37/KIP37.sol\":13332:13653  function _setApprovalForAll(... */\n    tag_134:\n        /* \"KIP37/KIP37.sol\":13482:13490  operator */\n      dup2\n      sub(shl(0xa0, 0x01), 0x01)\n        /* \"KIP37/KIP37.sol\":13473:13490  owner != operator */\n      and\n        /* \"KIP37/KIP37.sol\":13473:13478  owner */\n      dup4\n      sub(shl(0xa0, 0x01), 0x01)\n        /* \"KIP37/KIP37.sol\":13473:13490  owner != operator */\n      and\n      sub\n        /* \"KIP37/KIP37.sol\":13465:13534  require(owner != operator, \"KIP37: setting approval status for self\") */\n      tag_207\n      jumpi\n      mload(0x40)\n      shl(0xe5, 0x461bcd)\n      dup2\n      mstore\n        /* \"#utility.yul\":13154:13156   */\n      0x20\n        /* \"KIP37/KIP37.sol\":13465:13534  require(owner != operator, \"KIP37: setting approval status for self\") */\n      0x04\n      dup3\n      add\n        /* \"#utility.yul\":13136:13157   */\n      mstore\n        /* \"#utility.yul\":13193:13195   */\n      0x27\n        /* \"#utility.yul\":13173:13191   */\n      0x24\n      dup3\n      add\n        /* \"#utility.yul\":13166:13196   */\n      mstore\n        /* \"#utility.yul\":13232:13266   */\n      0x4b495033373a2073657474696e6720617070726f76616c207374617475732066\n        /* \"#utility.yul\":13212:13230   */\n      0x44\n      dup3\n      add\n        /* \"#utility.yul\":13205:13267   */\n      mstore\n      shl(0xc9, 0x37b91039b2b633)\n        /* \"#utility.yul\":13283:13301   */\n      0x64\n      dup3\n      add\n        /* \"#utility.yul\":13276:13313   */\n      mstore\n        /* \"#utility.yul\":13330:13349   */\n      0x84\n      add\n        /* \"KIP37/KIP37.sol\":13465:13534  require(owner != operator, \"KIP37: setting approval status for self\") */\n      tag_84\n        /* \"#utility.yul\":12952:13355   */\n      jump\n        /* \"KIP37/KIP37.sol\":13465:13534  require(owner != operator, \"KIP37: setting approval status for self\") */\n    tag_207:\n      sub(shl(0xa0, 0x01), 0x01)\n        /* \"KIP37/KIP37.sol\":13544:13569  _operatorApprovals[owner] */\n      dup4\n      dup2\n      and\n      0x00\n      dup2\n      dup2\n      mstore\n        /* \"KIP37/KIP37.sol\":13544:13562  _operatorApprovals */\n      0x02\n        /* \"KIP37/KIP37.sol\":13544:13569  _operatorApprovals[owner] */\n      0x20\n      swap1\n      dup2\n      mstore\n      0x40\n      dup1\n      dup4\n      keccak256\n        /* \"KIP37/KIP37.sol\":13544:13579  _operatorApprovals[owner][operator] */\n      swap5\n      dup8\n      and\n      dup1\n      dup5\n      mstore\n      swap5\n      dup3\n      mstore\n      swap2\n      dup3\n      swap1\n      keccak256\n        /* \"KIP37/KIP37.sol\":13544:13590  _operatorApprovals[owner][operator] = approved */\n      dup1\n      sload\n      not(0xff)\n      and\n      dup7\n      iszero\n      iszero\n      swap1\n      dup2\n      or\n      swap1\n      swap2\n      sstore\n        /* \"KIP37/KIP37.sol\":13605:13646  ApprovalForAll(owner, operator, approved) */\n      swap2\n      mload\n        /* \"#utility.yul\":1159:1200   */\n      swap2\n      dup3\n      mstore\n        /* \"KIP37/KIP37.sol\":13605:13646  ApprovalForAll(owner, operator, approved) */\n      0x17307eab39ab6107e8899845ad3d59bd9653f200f220920489ca2b5937696c31\n      swap2\n        /* \"#utility.yul\":1132:1150   */\n      add\n        /* \"KIP37/KIP37.sol\":13605:13646  ApprovalForAll(owner, operator, approved) */\n      mload(0x40)\n      dup1\n      swap2\n      sub\n      swap1\n      log3\n        /* \"KIP37/KIP37.sol\":13332:13653  function _setApprovalForAll(... */\n      pop\n      pop\n      pop\n      jump\t// out\n        /* \"KIP37/KIP37.sol\":3551:3905  function appendUint256ToArray(uint256[] memory array, uint256 element) internal pure returns (uint256[] memory) {... */\n    tag_147:\n        /* \"KIP37/KIP37.sol\":3645:3661  uint256[] memory */\n      0x60\n        /* \"KIP37/KIP37.sol\":3673:3698  uint256[] memory newArray */\n      0x00\n        /* \"KIP37/KIP37.sol\":3715:3720  array */\n      dup4\n        /* \"KIP37/KIP37.sol\":3715:3727  array.length */\n      mload\n        /* \"KIP37/KIP37.sol\":3730:3731  1 */\n      0x01\n        /* \"KIP37/KIP37.sol\":3715:3731  array.length + 1 */\n      tag_212\n      swap2\n      swap1\n      tag_199\n      jump\t// in\n    tag_212:\n        /* \"KIP37/KIP37.sol\":3701:3732  new uint256[](array.length + 1) */\n      0xffffffffffffffff\n      dup2\n      gt\n      iszero\n      tag_214\n      jumpi\n      tag_214\n      tag_115\n      jump\t// in\n    tag_214:\n      mload(0x40)\n      swap1\n      dup1\n      dup3\n      mstore\n      dup1\n      0x20\n      mul\n      0x20\n      add\n      dup3\n      add\n      0x40\n      mstore\n      dup1\n      iszero\n      tag_215\n      jumpi\n      dup2\n      0x20\n      add\n      0x20\n      dup3\n      mul\n      dup1\n      calldatasize\n      dup4\n      calldatacopy\n      add\n      swap1\n      pop\n    tag_215:\n      pop\n        /* \"KIP37/KIP37.sol\":3673:3732  uint256[] memory newArray = new uint256[](array.length + 1) */\n      swap1\n      pop\n        /* \"KIP37/KIP37.sol\":3747:3756  uint256 i */\n      0x00\n        /* \"KIP37/KIP37.sol\":3742:3832  for (uint256 i = 0; i < array.length; i++) {... */\n    tag_216:\n        /* \"KIP37/KIP37.sol\":3766:3771  array */\n      dup5\n        /* \"KIP37/KIP37.sol\":3766:3778  array.length */\n      mload\n        /* \"KIP37/KIP37.sol\":3762:3763  i */\n      dup2\n        /* \"KIP37/KIP37.sol\":3762:3778  i < array.length */\n      lt\n        /* \"KIP37/KIP37.sol\":3742:3832  for (uint256 i = 0; i < array.length; i++) {... */\n      iszero\n      tag_217\n      jumpi\n        /* \"KIP37/KIP37.sol\":3813:3818  array */\n      dup5\n        /* \"KIP37/KIP37.sol\":3819:3820  i */\n      dup2\n        /* \"KIP37/KIP37.sol\":3813:3821  array[i] */\n      dup2\n      mload\n      dup2\n      lt\n      tag_220\n      jumpi\n      tag_220\n      tag_123\n      jump\t// in\n    tag_220:\n      0x20\n      mul\n      0x20\n      add\n      add\n      mload\n        /* \"KIP37/KIP37.sol\":3799:3807  newArray */\n      dup3\n        /* \"KIP37/KIP37.sol\":3808:3809  i */\n      dup3\n        /* \"KIP37/KIP37.sol\":3799:3810  newArray[i] */\n      dup2\n      mload\n      dup2\n      lt\n      tag_222\n      jumpi\n      tag_222\n      tag_123\n      jump\t// in\n    tag_222:\n      0x20\n      swap1\n      dup2\n      mul\n      swap2\n      swap1\n      swap2\n      add\n      add\n        /* \"KIP37/KIP37.sol\":3799:3821  newArray[i] = array[i] */\n      mstore\n        /* \"KIP37/KIP37.sol\":3780:3783  i++ */\n      dup1\n      tag_223\n      dup2\n      tag_129\n      jump\t// in\n    tag_223:\n      swap2\n      pop\n      pop\n        /* \"KIP37/KIP37.sol\":3742:3832  for (uint256 i = 0; i < array.length; i++) {... */\n      jump(tag_216)\n    tag_217:\n      pop\n        /* \"KIP37/KIP37.sol\":3866:3873  element */\n      dup3\n        /* \"KIP37/KIP37.sol\":3841:3849  newArray */\n      dup2\n        /* \"KIP37/KIP37.sol\":3850:3855  array */\n      dup6\n        /* \"KIP37/KIP37.sol\":3850:3862  array.length */\n      mload\n        /* \"KIP37/KIP37.sol\":3841:3863  newArray[array.length] */\n      dup2\n      mload\n      dup2\n      lt\n      tag_225\n      jumpi\n      tag_225\n      tag_123\n      jump\t// in\n    tag_225:\n      0x20\n      swap1\n      dup2\n      mul\n      swap2\n      swap1\n      swap2\n      add\n      add\n        /* \"KIP37/KIP37.sol\":3841:3873  newArray[array.length] = element */\n      mstore\n        /* \"KIP37/KIP37.sol\":3890:3898  newArray */\n      swap4\n        /* \"KIP37/KIP37.sol\":3551:3905  function appendUint256ToArray(uint256[] memory array, uint256 element) internal pure returns (uint256[] memory) {... */\n      swap3\n      pop\n      pop\n      pop\n      jump\t// out\n        /* \"KIP37/KIP37.sol\":7938:8881  function _safeTransferFrom(... */\n    tag_175:\n      sub(shl(0xa0, 0x01), 0x01)\n        /* \"KIP37/KIP37.sol\":8119:8135  to != address(0) */\n      dup5\n      and\n        /* \"KIP37/KIP37.sol\":8111:8175  require(to != address(0), \"KIP37: transfer to the zero address\") */\n      tag_227\n      jumpi\n      mload(0x40)\n      shl(0xe5, 0x461bcd)\n      dup2\n      mstore\n      0x04\n      add\n      tag_84\n      swap1\n      tag_184\n      jump\t// in\n    tag_227:\n        /* \"KIP37/utils/Context.sol\":169:179  msg.sender */\n      caller\n        /* \"KIP37/KIP37.sol\":8186:8202  address operator */\n      0x00\n        /* \"KIP37/KIP37.sol\":8250:8271  _asSingletonArray(id) */\n      tag_230\n        /* \"KIP37/KIP37.sol\":8268:8270  id */\n      dup6\n        /* \"KIP37/KIP37.sol\":8250:8267  _asSingletonArray */\n      tag_231\n        /* \"KIP37/KIP37.sol\":8250:8271  _asSingletonArray(id) */\n      jump\t// in\n    tag_230:\n        /* \"KIP37/KIP37.sol\":8227:8271  uint256[] memory ids = _asSingletonArray(id) */\n      swap1\n      pop\n        /* \"KIP37/KIP37.sol\":8281:8305  uint256[] memory amounts */\n      0x00\n        /* \"KIP37/KIP37.sol\":8308:8333  _asSingletonArray(amount) */\n      tag_232\n        /* \"KIP37/KIP37.sol\":8326:8332  amount */\n      dup6\n        /* \"KIP37/KIP37.sol\":8308:8325  _asSingletonArray */\n      tag_231\n        /* \"KIP37/KIP37.sol\":8308:8333  _asSingletonArray(amount) */\n      jump\t// in\n    tag_232:\n        /* \"KIP37/KIP37.sol\":8281:8333  uint256[] memory amounts = _asSingletonArray(amount) */\n      swap1\n      pop\n        /* \"KIP37/KIP37.sol\":8344:8404  _beforeTokenTransfer(operator, from, to, ids, amounts, data) */\n      tag_233\n        /* \"KIP37/KIP37.sol\":8365:8373  operator */\n      dup4\n        /* \"KIP37/KIP37.sol\":8375:8379  from */\n      dup10\n        /* \"KIP37/KIP37.sol\":8381:8383  to */\n      dup10\n        /* \"KIP37/KIP37.sol\":8385:8388  ids */\n      dup6\n        /* \"KIP37/KIP37.sol\":8390:8397  amounts */\n      dup6\n        /* \"KIP37/KIP37.sol\":8399:8403  data */\n      dup10\n        /* \"KIP37/KIP37.sol\":8344:8364  _beforeTokenTransfer */\n      tag_187\n        /* \"KIP37/KIP37.sol\":8344:8404  _beforeTokenTransfer(operator, from, to, ids, amounts, data) */\n      jump\t// in\n    tag_233:\n        /* \"KIP37/KIP37.sol\":8415:8434  uint256 fromBalance */\n      0x00\n        /* \"KIP37/KIP37.sol\":8437:8450  _balances[id] */\n      dup7\n      dup2\n      mstore\n      0x20\n      dup2\n      dup2\n      mstore\n      0x40\n      dup1\n      dup4\n      keccak256\n      sub(shl(0xa0, 0x01), 0x01)\n        /* \"KIP37/KIP37.sol\":8437:8456  _balances[id][from] */\n      dup13\n      and\n      dup5\n      mstore\n      swap1\n      swap2\n      mstore\n      swap1\n      keccak256\n      sload\n        /* \"KIP37/KIP37.sol\":8474:8495  fromBalance >= amount */\n      dup6\n      dup2\n      lt\n      iszero\n        /* \"KIP37/KIP37.sol\":8466:8540  require(fromBalance >= amount, \"KIP37: insufficient balance for transfer\") */\n      tag_234\n      jumpi\n      mload(0x40)\n      shl(0xe5, 0x461bcd)\n      dup2\n      mstore\n      0x04\n      add\n      tag_84\n      swap1\n      tag_197\n      jump\t// in\n    tag_234:\n        /* \"KIP37/KIP37.sol\":8574:8583  _balances */\n      0x00\n        /* \"KIP37/KIP37.sol\":8574:8587  _balances[id] */\n      dup8\n      dup2\n      mstore\n      0x20\n      dup2\n      dup2\n      mstore\n      0x40\n      dup1\n      dup4\n      keccak256\n      sub(shl(0xa0, 0x01), 0x01)\n        /* \"KIP37/KIP37.sol\":8574:8593  _balances[id][from] */\n      dup14\n      dup2\n      and\n      dup6\n      mstore\n      swap3\n      mstore\n      dup1\n      dup4\n      keccak256\n        /* \"KIP37/KIP37.sol\":8596:8616  fromBalance - amount */\n      dup10\n      dup6\n      sub\n        /* \"KIP37/KIP37.sol\":8574:8616  _balances[id][from] = fromBalance - amount */\n      swap1\n      sstore\n        /* \"KIP37/KIP37.sol\":8636:8653  _balances[id][to] */\n      swap1\n      dup11\n      and\n      dup3\n      mstore\n      dup2\n      keccak256\n        /* \"KIP37/KIP37.sol\":8636:8663  _balances[id][to] += amount */\n      dup1\n      sload\n        /* \"KIP37/KIP37.sol\":8596:8616  fromBalance - amount */\n      dup9\n      swap3\n        /* \"KIP37/KIP37.sol\":8574:8583  _balances */\n      swap1\n        /* \"KIP37/KIP37.sol\":8636:8663  _balances[id][to] += amount */\n      tag_236\n      swap1\n        /* \"KIP37/KIP37.sol\":8596:8616  fromBalance - amount */\n      dup5\n      swap1\n        /* \"KIP37/KIP37.sol\":8636:8663  _balances[id][to] += amount */\n      tag_199\n      jump\t// in\n    tag_236:\n      swap1\n      swap2\n      sstore\n      pop\n      pop\n        /* \"KIP37/KIP37.sol\":8679:8725  TransferSingle(operator, from, to, id, amount) */\n      0x40\n      dup1\n      mload\n        /* \"#utility.yul\":13534:13559   */\n      dup9\n      dup2\n      mstore\n        /* \"#utility.yul\":13590:13592   */\n      0x20\n        /* \"#utility.yul\":13575:13593   */\n      dup2\n      add\n        /* \"#utility.yul\":13568:13602   */\n      dup9\n      swap1\n      mstore\n      sub(shl(0xa0, 0x01), 0x01)\n        /* \"KIP37/KIP37.sol\":8679:8725  TransferSingle(operator, from, to, id, amount) */\n      dup1\n      dup12\n      and\n      swap3\n      dup13\n      dup3\n      and\n      swap3\n      swap2\n      dup9\n      and\n      swap2\n      0xc3d58168c5ae7397731d063d5bbf3d657854427343f4c083240f7aacaa2d0f62\n      swap2\n        /* \"#utility.yul\":13507:13525   */\n      add\n        /* \"KIP37/KIP37.sol\":8679:8725  TransferSingle(operator, from, to, id, amount) */\n      mload(0x40)\n      dup1\n      swap2\n      sub\n      swap1\n      log4\n        /* \"KIP37/KIP37.sol\":8806:8874  _doSafeTransferAcceptanceCheck(operator, from, to, id, amount, data) */\n      tag_240\n        /* \"KIP37/KIP37.sol\":8837:8845  operator */\n      dup5\n        /* \"KIP37/KIP37.sol\":8847:8851  from */\n      dup11\n        /* \"KIP37/KIP37.sol\":8853:8855  to */\n      dup11\n        /* \"KIP37/KIP37.sol\":8857:8859  id */\n      dup11\n        /* \"KIP37/KIP37.sol\":8861:8867  amount */\n      dup11\n        /* \"KIP37/KIP37.sol\":8869:8873  data */\n      dup11\n        /* \"KIP37/KIP37.sol\":8806:8836  _doSafeTransferAcceptanceCheck */\n      tag_241\n        /* \"KIP37/KIP37.sol\":8806:8874  _doSafeTransferAcceptanceCheck(operator, from, to, id, amount, data) */\n      jump\t// in\n    tag_240:\n        /* \"KIP37/KIP37.sol\":8101:8881  {... */\n      pop\n      pop\n      pop\n      pop\n        /* \"KIP37/KIP37.sol\":7938:8881  function _safeTransferFrom(... */\n      pop\n      pop\n      pop\n      pop\n      pop\n      jump\t// out\n        /* \"KIP37/KIP37.sol\":13659:14788  function _beforeTokenTransfer(... */\n    tag_187:\n        /* \"KIP37/KIP37.sol\":13900:13909  uint256 i */\n      0x00\n        /* \"KIP37/KIP37.sol\":13895:14184  for (uint256 i = 0; i < ids.length; ++i) {... */\n    tag_243:\n        /* \"KIP37/KIP37.sol\":13919:13922  ids */\n      dup4\n        /* \"KIP37/KIP37.sol\":13919:13929  ids.length */\n      mload\n        /* \"KIP37/KIP37.sol\":13915:13916  i */\n      dup2\n        /* \"KIP37/KIP37.sol\":13915:13929  i < ids.length */\n      lt\n        /* \"KIP37/KIP37.sol\":13895:14184  for (uint256 i = 0; i < ids.length; ++i) {... */\n      iszero\n      tag_244\n      jumpi\n      sub(shl(0xa0, 0x01), 0x01)\n        /* \"KIP37/KIP37.sol\":14025:14043  _processLock[from] */\n      dup7\n      and\n        /* \"KIP37/KIP37.sol\":13950:13965  uint256 balance */\n      0x00\n        /* \"KIP37/KIP37.sol\":14025:14043  _processLock[from] */\n      swap1\n      dup2\n      mstore\n        /* \"KIP37/KIP37.sol\":14025:14037  _processLock */\n      0x04\n        /* \"KIP37/KIP37.sol\":14025:14043  _processLock[from] */\n      0x20\n      mstore\n      0x40\n      dup2\n      keccak256\n        /* \"KIP37/KIP37.sol\":14044:14050  ids[i] */\n      dup6\n      mload\n        /* \"KIP37/KIP37.sol\":13950:13965  uint256 balance */\n      dup3\n      swap1\n        /* \"KIP37/KIP37.sol\":14044:14047  ids */\n      dup8\n      swap1\n        /* \"KIP37/KIP37.sol\":14048:14049  i */\n      dup6\n      swap1\n        /* \"KIP37/KIP37.sol\":14044:14050  ids[i] */\n      dup2\n      lt\n      tag_247\n      jumpi\n      tag_247\n      tag_123\n      jump\t// in\n    tag_247:\n      0x20\n      mul\n      0x20\n      add\n      add\n      mload\n        /* \"KIP37/KIP37.sol\":14025:14051  _processLock[from][ids[i]] */\n      dup2\n      mstore\n      0x20\n      add\n      swap1\n      dup2\n      mstore\n      0x20\n      add\n      0x00\n      keccak256\n      sload\n        /* \"KIP37/KIP37.sol\":13995:14008  _lockedTokens */\n      0x03\n        /* \"KIP37/KIP37.sol\":13995:14014  _lockedTokens[from] */\n      0x00\n        /* \"KIP37/KIP37.sol\":14009:14013  from */\n      dup10\n      sub(shl(0xa0, 0x01), 0x01)\n        /* \"KIP37/KIP37.sol\":13995:14014  _lockedTokens[from] */\n      and\n      sub(shl(0xa0, 0x01), 0x01)\n      and\n      dup2\n      mstore\n      0x20\n      add\n      swap1\n      dup2\n      mstore\n      0x20\n      add\n      0x00\n      keccak256\n        /* \"KIP37/KIP37.sol\":13995:14022  _lockedTokens[from][ids[i]] */\n      0x00\n        /* \"KIP37/KIP37.sol\":14015:14018  ids */\n      dup8\n        /* \"KIP37/KIP37.sol\":14019:14020  i */\n      dup6\n        /* \"KIP37/KIP37.sol\":14015:14021  ids[i] */\n      dup2\n      mload\n      dup2\n      lt\n      tag_249\n      jumpi\n      tag_249\n      tag_123\n      jump\t// in\n    tag_249:\n      0x20\n      mul\n      0x20\n      add\n      add\n      mload\n        /* \"KIP37/KIP37.sol\":13995:14022  _lockedTokens[from][ids[i]] */\n      dup2\n      mstore\n      0x20\n      add\n      swap1\n      dup2\n      mstore\n      0x20\n      add\n      0x00\n      keccak256\n      sload\n        /* \"KIP37/KIP37.sol\":13995:14051  _lockedTokens[from][ids[i]] + _processLock[from][ids[i]] */\n      tag_250\n      swap2\n      swap1\n      tag_199\n      jump\t// in\n    tag_250:\n        /* \"KIP37/KIP37.sol\":13968:13977  _balances */\n      0x00\n        /* \"KIP37/KIP37.sol\":13968:13985  _balances[ids[i]] */\n      dup1\n        /* \"KIP37/KIP37.sol\":13978:13981  ids */\n      dup8\n        /* \"KIP37/KIP37.sol\":13982:13983  i */\n      dup6\n        /* \"KIP37/KIP37.sol\":13978:13984  ids[i] */\n      dup2\n      mload\n      dup2\n      lt\n      tag_252\n      jumpi\n      tag_252\n      tag_123\n      jump\t// in\n    tag_252:\n      0x20\n      mul\n      0x20\n      add\n      add\n      mload\n        /* \"KIP37/KIP37.sol\":13968:13985  _balances[ids[i]] */\n      dup2\n      mstore\n      0x20\n      add\n      swap1\n      dup2\n      mstore\n      0x20\n      add\n      0x00\n      keccak256\n        /* \"KIP37/KIP37.sol\":13968:13991  _balances[ids[i]][from] */\n      0x00\n        /* \"KIP37/KIP37.sol\":13986:13990  from */\n      dup10\n      sub(shl(0xa0, 0x01), 0x01)\n        /* \"KIP37/KIP37.sol\":13968:13991  _balances[ids[i]][from] */\n      and\n      sub(shl(0xa0, 0x01), 0x01)\n      and\n      dup2\n      mstore\n      0x20\n      add\n      swap1\n      dup2\n      mstore\n      0x20\n      add\n      0x00\n      keccak256\n      sload\n        /* \"KIP37/KIP37.sol\":13968:14052  _balances[ids[i]][from] - (_lockedTokens[from][ids[i]] + _processLock[from][ids[i]]) */\n      tag_253\n      swap2\n      swap1\n      tag_140\n      jump\t// in\n    tag_253:\n        /* \"KIP37/KIP37.sol\":13950:14052  uint256 balance = _balances[ids[i]][from] - (_lockedTokens[from][ids[i]] + _processLock[from][ids[i]]) */\n      swap1\n      pop\n      sub(shl(0xa0, 0x01), 0x01)\n        /* \"KIP37/KIP37.sol\":14071:14089  from != address(0) */\n      dup8\n      and\n      iszero\n      dup1\n      iszero\n      swap1\n        /* \"KIP37/KIP37.sol\":14071:14113  from != address(0) && balance < amounts[i] */\n      tag_254\n      jumpi\n      pop\n        /* \"KIP37/KIP37.sol\":14103:14110  amounts */\n      dup4\n        /* \"KIP37/KIP37.sol\":14111:14112  i */\n      dup3\n        /* \"KIP37/KIP37.sol\":14103:14113  amounts[i] */\n      dup2\n      mload\n      dup2\n      lt\n      tag_256\n      jumpi\n      tag_256\n      tag_123\n      jump\t// in\n    tag_256:\n      0x20\n      mul\n      0x20\n      add\n      add\n      mload\n        /* \"KIP37/KIP37.sol\":14093:14100  balance */\n      dup2\n        /* \"KIP37/KIP37.sol\":14093:14113  balance < amounts[i] */\n      lt\n        /* \"KIP37/KIP37.sol\":14071:14113  from != address(0) && balance < amounts[i] */\n    tag_254:\n        /* \"KIP37/KIP37.sol\":14067:14174  if (from != address(0) && balance < amounts[i] ) {... */\n      iszero\n      tag_257\n      jumpi\n        /* \"KIP37/KIP37.sol\":14134:14159  revert(\"Token is locked\") */\n      mload(0x40)\n      shl(0xe5, 0x461bcd)\n      dup2\n      mstore\n        /* \"#utility.yul\":13815:13817   */\n      0x20\n        /* \"KIP37/KIP37.sol\":14134:14159  revert(\"Token is locked\") */\n      0x04\n      dup3\n      add\n        /* \"#utility.yul\":13797:13818   */\n      mstore\n        /* \"#utility.yul\":13854:13856   */\n      0x0f\n        /* \"#utility.yul\":13834:13852   */\n      0x24\n      dup3\n      add\n        /* \"#utility.yul\":13827:13857   */\n      mstore\n      shl(0x8a, 0x151bdad95b881a5cc81b1bd8dad959)\n        /* \"#utility.yul\":13873:13891   */\n      0x44\n      dup3\n      add\n        /* \"#utility.yul\":13866:13911   */\n      mstore\n        /* \"#utility.yul\":13928:13946   */\n      0x64\n      add\n        /* \"KIP37/KIP37.sol\":14134:14159  revert(\"Token is locked\") */\n      tag_84\n        /* \"#utility.yul\":13613:13952   */\n      jump\n        /* \"KIP37/KIP37.sol\":14067:14174  if (from != address(0) && balance < amounts[i] ) {... */\n    tag_257:\n      pop\n        /* \"KIP37/KIP37.sol\":13931:13934  ++i */\n      tag_260\n      dup2\n      tag_129\n      jump\t// in\n    tag_260:\n      swap1\n      pop\n        /* \"KIP37/KIP37.sol\":13895:14184  for (uint256 i = 0; i < ids.length; ++i) {... */\n      jump(tag_243)\n    tag_244:\n      pop\n      sub(shl(0xa0, 0x01), 0x01)\n        /* \"KIP37/KIP37.sol\":14198:14216  from == address(0) */\n      dup6\n      and\n        /* \"KIP37/KIP37.sol\":14194:14350  if (from == address(0)) {... */\n      tag_261\n      jumpi\n        /* \"KIP37/KIP37.sol\":14237:14246  uint256 i */\n      0x00\n        /* \"KIP37/KIP37.sol\":14232:14340  for (uint256 i = 0; i < ids.length; ++i) {... */\n    tag_262:\n        /* \"KIP37/KIP37.sol\":14256:14259  ids */\n      dup4\n        /* \"KIP37/KIP37.sol\":14256:14266  ids.length */\n      mload\n        /* \"KIP37/KIP37.sol\":14252:14253  i */\n      dup2\n        /* \"KIP37/KIP37.sol\":14252:14266  i < ids.length */\n      lt\n        /* \"KIP37/KIP37.sol\":14232:14340  for (uint256 i = 0; i < ids.length; ++i) {... */\n      iszero\n      tag_263\n      jumpi\n        /* \"KIP37/KIP37.sol\":14315:14322  amounts */\n      dup3\n        /* \"KIP37/KIP37.sol\":14323:14324  i */\n      dup2\n        /* \"KIP37/KIP37.sol\":14315:14325  amounts[i] */\n      dup2\n      mload\n      dup2\n      lt\n      tag_266\n      jumpi\n      tag_266\n      tag_123\n      jump\t// in\n    tag_266:\n      0x20\n      mul\n      0x20\n      add\n      add\n      mload\n        /* \"KIP37/KIP37.sol\":14291:14303  _totalSupply */\n      0x01\n        /* \"KIP37/KIP37.sol\":14291:14311  _totalSupply[ids[i]] */\n      0x00\n        /* \"KIP37/KIP37.sol\":14304:14307  ids */\n      dup7\n        /* \"KIP37/KIP37.sol\":14308:14309  i */\n      dup5\n        /* \"KIP37/KIP37.sol\":14304:14310  ids[i] */\n      dup2\n      mload\n      dup2\n      lt\n      tag_268\n      jumpi\n      tag_268\n      tag_123\n      jump\t// in\n    tag_268:\n      0x20\n      mul\n      0x20\n      add\n      add\n      mload\n        /* \"KIP37/KIP37.sol\":14291:14311  _totalSupply[ids[i]] */\n      dup2\n      mstore\n      0x20\n      add\n      swap1\n      dup2\n      mstore\n      0x20\n      add\n      0x00\n      keccak256\n      0x00\n        /* \"KIP37/KIP37.sol\":14291:14325  _totalSupply[ids[i]] += amounts[i] */\n      dup3\n      dup3\n      sload\n      tag_269\n      swap2\n      swap1\n      tag_199\n      jump\t// in\n    tag_269:\n      swap1\n      swap2\n      sstore\n      pop\n        /* \"KIP37/KIP37.sol\":14268:14271  ++i */\n      tag_270\n      swap1\n      pop\n      dup2\n      tag_129\n      jump\t// in\n    tag_270:\n      swap1\n      pop\n        /* \"KIP37/KIP37.sol\":14232:14340  for (uint256 i = 0; i < ids.length; ++i) {... */\n      jump(tag_262)\n    tag_263:\n      pop\n        /* \"KIP37/KIP37.sol\":14194:14350  if (from == address(0)) {... */\n    tag_261:\n      sub(shl(0xa0, 0x01), 0x01)\n        /* \"KIP37/KIP37.sol\":14364:14380  to == address(0) */\n      dup5\n      and\n        /* \"KIP37/KIP37.sol\":14360:14782  if (to == address(0)) {... */\n      tag_204\n      jumpi\n        /* \"KIP37/KIP37.sol\":14401:14410  uint256 i */\n      0x00\n        /* \"KIP37/KIP37.sol\":14396:14772  for (uint256 i = 0; i < ids.length; ++i) {... */\n    tag_272:\n        /* \"KIP37/KIP37.sol\":14420:14423  ids */\n      dup4\n        /* \"KIP37/KIP37.sol\":14420:14430  ids.length */\n      mload\n        /* \"KIP37/KIP37.sol\":14416:14417  i */\n      dup2\n        /* \"KIP37/KIP37.sol\":14416:14430  i < ids.length */\n      lt\n        /* \"KIP37/KIP37.sol\":14396:14772  for (uint256 i = 0; i < ids.length; ++i) {... */\n      iszero\n      tag_273\n      jumpi\n        /* \"KIP37/KIP37.sol\":14455:14465  uint256 id */\n      0x00\n        /* \"KIP37/KIP37.sol\":14468:14471  ids */\n      dup5\n        /* \"KIP37/KIP37.sol\":14472:14473  i */\n      dup3\n        /* \"KIP37/KIP37.sol\":14468:14474  ids[i] */\n      dup2\n      mload\n      dup2\n      lt\n      tag_276\n      jumpi\n      tag_276\n      tag_123\n      jump\t// in\n    tag_276:\n      0x20\n      mul\n      0x20\n      add\n      add\n      mload\n        /* \"KIP37/KIP37.sol\":14455:14474  uint256 id = ids[i] */\n      swap1\n      pop\n        /* \"KIP37/KIP37.sol\":14492:14506  uint256 amount */\n      0x00\n        /* \"KIP37/KIP37.sol\":14509:14516  amounts */\n      dup5\n        /* \"KIP37/KIP37.sol\":14517:14518  i */\n      dup4\n        /* \"KIP37/KIP37.sol\":14509:14519  amounts[i] */\n      dup2\n      mload\n      dup2\n      lt\n      tag_278\n      jumpi\n      tag_278\n      tag_123\n      jump\t// in\n    tag_278:\n      0x20\n      mul\n      0x20\n      add\n      add\n      mload\n        /* \"KIP37/KIP37.sol\":14492:14519  uint256 amount = amounts[i] */\n      swap1\n      pop\n        /* \"KIP37/KIP37.sol\":14537:14551  uint256 supply */\n      0x00\n        /* \"KIP37/KIP37.sol\":14554:14566  _totalSupply */\n      0x01\n        /* \"KIP37/KIP37.sol\":14554:14570  _totalSupply[id] */\n      0x00\n        /* \"KIP37/KIP37.sol\":14567:14569  id */\n      dup5\n        /* \"KIP37/KIP37.sol\":14554:14570  _totalSupply[id] */\n      dup2\n      mstore\n      0x20\n      add\n      swap1\n      dup2\n      mstore\n      0x20\n      add\n      0x00\n      keccak256\n      sload\n        /* \"KIP37/KIP37.sol\":14537:14570  uint256 supply = _totalSupply[id] */\n      swap1\n      pop\n        /* \"KIP37/KIP37.sol\":14606:14612  amount */\n      dup2\n        /* \"KIP37/KIP37.sol\":14596:14602  supply */\n      dup2\n        /* \"KIP37/KIP37.sol\":14596:14612  supply >= amount */\n      lt\n      iszero\n        /* \"KIP37/KIP37.sol\":14588:14655  require(supply >= amount, \"KIP37: burn amount exceeds totalSupply\") */\n      tag_279\n      jumpi\n      mload(0x40)\n      shl(0xe5, 0x461bcd)\n      dup2\n      mstore\n        /* \"#utility.yul\":14159:14161   */\n      0x20\n        /* \"KIP37/KIP37.sol\":14588:14655  require(supply >= amount, \"KIP37: burn amount exceeds totalSupply\") */\n      0x04\n      dup3\n      add\n        /* \"#utility.yul\":14141:14162   */\n      mstore\n        /* \"#utility.yul\":14198:14200   */\n      0x26\n        /* \"#utility.yul\":14178:14196   */\n      0x24\n      dup3\n      add\n        /* \"#utility.yul\":14171:14201   */\n      mstore\n        /* \"#utility.yul\":14237:14271   */\n      0x4b495033373a206275726e20616d6f756e74206578636565647320746f74616c\n        /* \"#utility.yul\":14217:14235   */\n      0x44\n      dup3\n      add\n        /* \"#utility.yul\":14210:14272   */\n      mstore\n      shl(0xd0, 0x537570706c79)\n        /* \"#utility.yul\":14288:14306   */\n      0x64\n      dup3\n      add\n        /* \"#utility.yul\":14281:14317   */\n      mstore\n        /* \"#utility.yul\":14334:14353   */\n      0x84\n      add\n        /* \"KIP37/KIP37.sol\":14588:14655  require(supply >= amount, \"KIP37: burn amount exceeds totalSupply\") */\n      tag_84\n        /* \"#utility.yul\":13957:14359   */\n      jump\n        /* \"KIP37/KIP37.sol\":14588:14655  require(supply >= amount, \"KIP37: burn amount exceeds totalSupply\") */\n    tag_279:\n        /* \"KIP37/KIP37.sol\":14705:14721  _totalSupply[id] */\n      0x00\n      swap3\n      dup4\n      mstore\n        /* \"KIP37/KIP37.sol\":14705:14717  _totalSupply */\n      0x01\n        /* \"KIP37/KIP37.sol\":14705:14721  _totalSupply[id] */\n      0x20\n      mstore\n      0x40\n      swap1\n      swap3\n      keccak256\n        /* \"KIP37/KIP37.sol\":14724:14739  supply - amount */\n      swap2\n      sub\n        /* \"KIP37/KIP37.sol\":14705:14739  _totalSupply[id] = supply - amount */\n      swap1\n      sstore\n        /* \"KIP37/KIP37.sol\":14432:14435  ++i */\n      tag_282\n      dup2\n      tag_129\n      jump\t// in\n    tag_282:\n      swap1\n      pop\n        /* \"KIP37/KIP37.sol\":14396:14772  for (uint256 i = 0; i < ids.length; ++i) {... */\n      jump(tag_272)\n    tag_273:\n      pop\n        /* \"KIP37/KIP37.sol\":13659:14788  function _beforeTokenTransfer(... */\n      pop\n      pop\n      pop\n      pop\n      pop\n      pop\n      jump\t// out\n        /* \"KIP37/KIP37.sol\":15482:15984  function _doSafeBatchTransferAcceptanceCheck(... */\n    tag_205:\n        /* \"KIP37/KIP37.sol\":15731:15797  _checkOnKIP37BatchReceived(operator, from, to, ids, amounts, data) */\n      tag_285\n        /* \"KIP37/KIP37.sol\":15758:15766  operator */\n      dup7\n        /* \"KIP37/KIP37.sol\":15768:15772  from */\n      dup7\n        /* \"KIP37/KIP37.sol\":15774:15776  to */\n      dup7\n        /* \"KIP37/KIP37.sol\":15778:15781  ids */\n      dup7\n        /* \"KIP37/KIP37.sol\":15783:15790  amounts */\n      dup7\n        /* \"KIP37/KIP37.sol\":15792:15796  data */\n      dup7\n        /* \"KIP37/KIP37.sol\":15731:15757  _checkOnKIP37BatchReceived */\n      tag_286\n        /* \"KIP37/KIP37.sol\":15731:15797  _checkOnKIP37BatchReceived(operator, from, to, ids, amounts, data) */\n      jump\t// in\n    tag_285:\n        /* \"KIP37/KIP37.sol\":15731:15885  _checkOnKIP37BatchReceived(operator, from, to, ids, amounts, data) ||... */\n      dup1\n      tag_288\n      jumpi\n      pop\n        /* \"KIP37/KIP37.sol\":15817:15885  _checkOnERC1155BatchReceived(operator, from, to, ids, amounts, data) */\n      tag_288\n        /* \"KIP37/KIP37.sol\":15846:15854  operator */\n      dup7\n        /* \"KIP37/KIP37.sol\":15856:15860  from */\n      dup7\n        /* \"KIP37/KIP37.sol\":15862:15864  to */\n      dup7\n        /* \"KIP37/KIP37.sol\":15866:15869  ids */\n      dup7\n        /* \"KIP37/KIP37.sol\":15871:15878  amounts */\n      dup7\n        /* \"KIP37/KIP37.sol\":15880:15884  data */\n      dup7\n        /* \"KIP37/KIP37.sol\":15817:15845  _checkOnERC1155BatchReceived */\n      tag_289\n        /* \"KIP37/KIP37.sol\":15817:15885  _checkOnERC1155BatchReceived(operator, from, to, ids, amounts, data) */\n      jump\t// in\n    tag_288:\n        /* \"KIP37/KIP37.sol\":15710:15977  require(... */\n      tag_204\n      jumpi\n      mload(0x40)\n      shl(0xe5, 0x461bcd)\n      dup2\n      mstore\n        /* \"#utility.yul\":14566:14568   */\n      0x20\n        /* \"KIP37/KIP37.sol\":15710:15977  require(... */\n      0x04\n      dup3\n      add\n        /* \"#utility.yul\":14548:14569   */\n      mstore\n        /* \"#utility.yul\":14605:14607   */\n      0x42\n        /* \"#utility.yul\":14585:14603   */\n      0x24\n      dup3\n      add\n        /* \"#utility.yul\":14578:14608   */\n      mstore\n        /* \"#utility.yul\":14644:14678   */\n      0x4b495033373a207472616e7366657220746f206e6f6e20494b49503337526563\n        /* \"#utility.yul\":14624:14642   */\n      0x44\n      dup3\n      add\n        /* \"#utility.yul\":14617:14679   */\n      mstore\n        /* \"#utility.yul\":14715:14749   */\n      0x65697665722f4945524331313535526563656976657220696d706c656d656e74\n        /* \"#utility.yul\":14695:14713   */\n      0x64\n      dup3\n      add\n        /* \"#utility.yul\":14688:14750   */\n      mstore\n      shl(0xf1, 0x32b9)\n        /* \"#utility.yul\":14766:14785   */\n      0x84\n      dup3\n      add\n        /* \"#utility.yul\":14759:14792   */\n      mstore\n        /* \"#utility.yul\":14809:14828   */\n      0xa4\n      add\n        /* \"KIP37/KIP37.sol\":15710:15977  require(... */\n      tag_84\n        /* \"#utility.yul\":14364:14834   */\n      jump\n        /* \"KIP37/KIP37.sol\":15990:16183  function _asSingletonArray(uint256 element) private pure returns (uint256[] memory) {... */\n    tag_231:\n        /* \"KIP37/KIP37.sol\":16109:16125  new uint256[](1) */\n      0x40\n      dup1\n      mload\n        /* \"KIP37/KIP37.sol\":16123:16124  1 */\n      0x01\n        /* \"KIP37/KIP37.sol\":16109:16125  new uint256[](1) */\n      dup1\n      dup3\n      mstore\n      dup2\n      dup4\n      add\n      swap1\n      swap3\n      mstore\n        /* \"KIP37/KIP37.sol\":16056:16072  uint256[] memory */\n      0x60\n      swap2\n        /* \"KIP37/KIP37.sol\":16084:16106  uint256[] memory array */\n      0x00\n      swap2\n        /* \"KIP37/KIP37.sol\":16109:16125  new uint256[](1) */\n      swap1\n      0x20\n      dup1\n      dup4\n      add\n      swap1\n      dup1\n      calldatasize\n      dup4\n      calldatacopy\n      add\n      swap1\n      pop\n      pop\n        /* \"KIP37/KIP37.sol\":16084:16125  uint256[] memory array = new uint256[](1) */\n      swap1\n      pop\n        /* \"KIP37/KIP37.sol\":16146:16153  element */\n      dup3\n        /* \"KIP37/KIP37.sol\":16135:16140  array */\n      dup2\n        /* \"KIP37/KIP37.sol\":16141:16142  0 */\n      0x00\n        /* \"KIP37/KIP37.sol\":16135:16143  array[0] */\n      dup2\n      mload\n      dup2\n      lt\n      tag_298\n      jumpi\n      tag_298\n      tag_123\n      jump\t// in\n    tag_298:\n      0x20\n      swap1\n      dup2\n      mul\n      swap2\n      swap1\n      swap2\n      add\n      add\n        /* \"KIP37/KIP37.sol\":16135:16153  array[0] = element */\n      mstore\n        /* \"KIP37/KIP37.sol\":16171:16176  array */\n      swap3\n        /* \"KIP37/KIP37.sol\":15990:16183  function _asSingletonArray(uint256 element) private pure returns (uint256[] memory) {... */\n      swap2\n      pop\n      pop\n      jump\t// out\n        /* \"KIP37/KIP37.sol\":15013:15476  function _doSafeTransferAcceptanceCheck(... */\n    tag_241:\n        /* \"KIP37/KIP37.sol\":15237:15296  _checkOnKIP37Received(operator, from, to, id, amount, data) */\n      tag_300\n        /* \"KIP37/KIP37.sol\":15259:15267  operator */\n      dup7\n        /* \"KIP37/KIP37.sol\":15269:15273  from */\n      dup7\n        /* \"KIP37/KIP37.sol\":15275:15277  to */\n      dup7\n        /* \"KIP37/KIP37.sol\":15279:15281  id */\n      dup7\n        /* \"KIP37/KIP37.sol\":15283:15289  amount */\n      dup7\n        /* \"KIP37/KIP37.sol\":15291:15295  data */\n      dup7\n        /* \"KIP37/KIP37.sol\":15237:15258  _checkOnKIP37Received */\n      tag_301\n        /* \"KIP37/KIP37.sol\":15237:15296  _checkOnKIP37Received(operator, from, to, id, amount, data) */\n      jump\t// in\n    tag_300:\n        /* \"KIP37/KIP37.sol\":15237:15377  _checkOnKIP37Received(operator, from, to, id, amount, data) ||... */\n      dup1\n      tag_288\n      jumpi\n      pop\n        /* \"KIP37/KIP37.sol\":15316:15377  _checkOnERC1155Received(operator, from, to, id, amount, data) */\n      tag_288\n        /* \"KIP37/KIP37.sol\":15340:15348  operator */\n      dup7\n        /* \"KIP37/KIP37.sol\":15350:15354  from */\n      dup7\n        /* \"KIP37/KIP37.sol\":15356:15358  to */\n      dup7\n        /* \"KIP37/KIP37.sol\":15360:15362  id */\n      dup7\n        /* \"KIP37/KIP37.sol\":15364:15370  amount */\n      dup7\n        /* \"KIP37/KIP37.sol\":15372:15376  data */\n      dup7\n        /* \"KIP37/KIP37.sol\":15316:15339  _checkOnERC1155Received */\n      tag_304\n        /* \"KIP37/KIP37.sol\":15316:15377  _checkOnERC1155Received(operator, from, to, id, amount, data) */\n      jump\t// in\n        /* \"KIP37/KIP37.sol\":16962:17766  function _checkOnKIP37BatchReceived(... */\n    tag_286:\n        /* \"KIP37/KIP37.sol\":17180:17184  bool */\n      0x00\n      sub(shl(0xa0, 0x01), 0x01)\n        /* \"KIP37/KIP37.sol\":17200:17213  to.isContract */\n      dup6\n      and\n        /* \"KIP37/utils/Address.sol\":163:182  account.code.length */\n      extcodesize\n        /* \"KIP37/utils/Address.sol\":163:186  account.code.length > 0 */\n      iszero\n        /* \"KIP37/KIP37.sol\":17196:17760  if (to.isContract()) {... */\n      tag_310\n      jumpi\n        /* \"KIP37/KIP37.sol\":17235:17310  IKIP37Receiver(to).onKIP37BatchReceived(operator, from, ids, amounts, data) */\n      mload(0x40)\n      shl(0xe1, 0x4da4f199)\n      dup2\n      mstore\n      sub(shl(0xa0, 0x01), 0x01)\n        /* \"KIP37/KIP37.sol\":17235:17274  IKIP37Receiver(to).onKIP37BatchReceived */\n      dup7\n      and\n      swap1\n      0x9b49e332\n      swap1\n        /* \"KIP37/KIP37.sol\":17235:17310  IKIP37Receiver(to).onKIP37BatchReceived(operator, from, ids, amounts, data) */\n      tag_311\n      swap1\n        /* \"KIP37/KIP37.sol\":17275:17283  operator */\n      dup11\n      swap1\n        /* \"KIP37/KIP37.sol\":17285:17289  from */\n      dup11\n      swap1\n        /* \"KIP37/KIP37.sol\":17291:17294  ids */\n      dup10\n      swap1\n        /* \"KIP37/KIP37.sol\":17296:17303  amounts */\n      dup10\n      swap1\n        /* \"KIP37/KIP37.sol\":17305:17309  data */\n      dup10\n      swap1\n        /* \"KIP37/KIP37.sol\":17235:17310  IKIP37Receiver(to).onKIP37BatchReceived(operator, from, ids, amounts, data) */\n      0x04\n      add\n      tag_312\n      jump\t// in\n    tag_311:\n      0x20\n      mload(0x40)\n      dup1\n      dup4\n      sub\n      dup2\n      0x00\n      dup8\n      gas\n      call\n      swap3\n      pop\n      pop\n      pop\n      dup1\n      iszero\n      tag_313\n      jumpi\n      pop\n      0x40\n      dup1\n      mload\n      0x1f\n      returndatasize\n      swap1\n      dup2\n      add\n      not(0x1f)\n      and\n      dup3\n      add\n      swap1\n      swap3\n      mstore\n      tag_314\n      swap2\n      dup2\n      add\n      swap1\n      tag_315\n      jump\t// in\n    tag_314:\n      0x01\n    tag_313:\n        /* \"KIP37/KIP37.sol\":17231:17708  try IKIP37Receiver(to).onKIP37BatchReceived(operator, from, ids, amounts, data) returns (bytes4 retval) {... */\n      tag_316\n      jumpi\n      returndatasize\n      dup1\n      dup1\n      iszero\n      tag_321\n      jumpi\n      mload(0x40)\n      swap2\n      pop\n      and(add(returndatasize, 0x3f), not(0x1f))\n      dup3\n      add\n      0x40\n      mstore\n      returndatasize\n      dup3\n      mstore\n      returndatasize\n      0x00\n      0x20\n      dup5\n      add\n      returndatacopy\n      jump(tag_320)\n    tag_321:\n      0x60\n      swap2\n      pop\n    tag_320:\n      pop\n        /* \"KIP37/KIP37.sol\":17480:17486  reason */\n      dup1\n        /* \"KIP37/KIP37.sol\":17480:17493  reason.length */\n      mload\n        /* \"KIP37/KIP37.sol\":17497:17498  0 */\n      0x00\n        /* \"KIP37/KIP37.sol\":17480:17498  reason.length == 0 */\n      sub\n        /* \"KIP37/KIP37.sol\":17476:17694  if (reason.length == 0) {... */\n      tag_322\n      jumpi\n        /* \"KIP37/KIP37.sol\":17529:17534  false */\n      0x00\n        /* \"KIP37/KIP37.sol\":17522:17534  return false */\n      swap2\n      pop\n      pop\n      jump(tag_325)\n        /* \"KIP37/KIP37.sol\":17476:17694  if (reason.length == 0) {... */\n    tag_322:\n        /* \"KIP37/KIP37.sol\":17646:17652  reason */\n      dup1\n        /* \"KIP37/KIP37.sol\":17640:17653  mload(reason) */\n      mload\n        /* \"KIP37/KIP37.sol\":17631:17637  reason */\n      dup2\n        /* \"KIP37/KIP37.sol\":17627:17629  32 */\n      0x20\n        /* \"KIP37/KIP37.sol\":17623:17638  add(32, reason) */\n      add\n        /* \"KIP37/KIP37.sol\":17616:17654  revert(add(32, reason), mload(reason)) */\n      revert\n        /* \"KIP37/KIP37.sol\":17231:17708  try IKIP37Receiver(to).onKIP37BatchReceived(operator, from, ids, amounts, data) returns (bytes4 retval) {... */\n    tag_316:\n      not(sub(shl(0xe0, 0x01), 0x01))\n        /* \"KIP37/KIP37.sol\":17360:17414  retval == IKIP37Receiver.onKIP37BatchReceived.selector */\n      and\n      shl(0xe1, 0x4da4f199)\n      eq\n      swap1\n      pop\n        /* \"KIP37/KIP37.sol\":17353:17414  return retval == IKIP37Receiver.onKIP37BatchReceived.selector */\n      jump(tag_325)\n        /* \"KIP37/KIP37.sol\":17196:17760  if (to.isContract()) {... */\n    tag_310:\n      pop\n        /* \"KIP37/KIP37.sol\":17745:17749  true */\n      0x01\n        /* \"KIP37/KIP37.sol\":17196:17760  if (to.isContract()) {... */\n    tag_325:\n        /* \"KIP37/KIP37.sol\":16962:17766  function _checkOnKIP37BatchReceived(... */\n      swap7\n      swap6\n      pop\n      pop\n      pop\n      pop\n      pop\n      pop\n      jump\t// out\n        /* \"KIP37/KIP37.sol\":18555:19399  function _checkOnERC1155BatchReceived(... */\n    tag_289:\n        /* \"KIP37/KIP37.sol\":18775:18779  bool */\n      0x00\n      sub(shl(0xa0, 0x01), 0x01)\n        /* \"KIP37/KIP37.sol\":18795:18808  to.isContract */\n      dup6\n      and\n        /* \"KIP37/utils/Address.sol\":163:182  account.code.length */\n      extcodesize\n        /* \"KIP37/utils/Address.sol\":163:186  account.code.length > 0 */\n      iszero\n        /* \"KIP37/KIP37.sol\":18791:19393  if (to.isContract()) {... */\n      tag_310\n      jumpi\n        /* \"KIP37/KIP37.sol\":18830:18909  IERC1155Receiver(to).onERC1155BatchReceived(operator, from, ids, amounts, data) */\n      mload(0x40)\n      shl(0xe0, 0xbc197c81)\n      dup2\n      mstore\n      sub(shl(0xa0, 0x01), 0x01)\n        /* \"KIP37/KIP37.sol\":18830:18873  IERC1155Receiver(to).onERC1155BatchReceived */\n      dup7\n      and\n      swap1\n      0xbc197c81\n      swap1\n        /* \"KIP37/KIP37.sol\":18830:18909  IERC1155Receiver(to).onERC1155BatchReceived(operator, from, ids, amounts, data) */\n      tag_329\n      swap1\n        /* \"KIP37/KIP37.sol\":18874:18882  operator */\n      dup11\n      swap1\n        /* \"KIP37/KIP37.sol\":18884:18888  from */\n      dup11\n      swap1\n        /* \"KIP37/KIP37.sol\":18890:18893  ids */\n      dup10\n      swap1\n        /* \"KIP37/KIP37.sol\":18895:18902  amounts */\n      dup10\n      swap1\n        /* \"KIP37/KIP37.sol\":18904:18908  data */\n      dup10\n      swap1\n        /* \"KIP37/KIP37.sol\":18830:18909  IERC1155Receiver(to).onERC1155BatchReceived(operator, from, ids, amounts, data) */\n      0x04\n      add\n      tag_312\n      jump\t// in\n    tag_329:\n      0x20\n      mload(0x40)\n      dup1\n      dup4\n      sub\n      dup2\n      0x00\n      dup8\n      gas\n      call\n      swap3\n      pop\n      pop\n      pop\n      dup1\n      iszero\n      tag_330\n      jumpi\n      pop\n      0x40\n      dup1\n      mload\n      0x1f\n      returndatasize\n      swap1\n      dup2\n      add\n      not(0x1f)\n      and\n      dup3\n      add\n      swap1\n      swap3\n      mstore\n      tag_331\n      swap2\n      dup2\n      add\n      swap1\n      tag_315\n      jump\t// in\n    tag_331:\n      0x01\n    tag_330:\n        /* \"KIP37/KIP37.sol\":18826:19341  try IERC1155Receiver(to).onERC1155BatchReceived(operator, from, ids, amounts, data) returns (... */\n      tag_332\n      jumpi\n      returndatasize\n      dup1\n      dup1\n      iszero\n      tag_321\n      jumpi\n      mload(0x40)\n      swap2\n      pop\n      and(add(returndatasize, 0x3f), not(0x1f))\n      dup3\n      add\n      0x40\n      mstore\n      returndatasize\n      dup3\n      mstore\n      returndatasize\n      0x00\n      0x20\n      dup5\n      add\n      returndatacopy\n      jump(tag_320)\n    tag_332:\n      not(sub(shl(0xe0, 0x01), 0x01))\n        /* \"KIP37/KIP37.sol\":18989:19047  retval == IERC1155Receiver.onERC1155BatchReceived.selector */\n      and\n      shl(0xe0, 0xbc197c81)\n      eq\n      swap1\n      pop\n        /* \"KIP37/KIP37.sol\":18982:19047  return retval == IERC1155Receiver.onERC1155BatchReceived.selector */\n      jump(tag_325)\n        /* \"KIP37/KIP37.sol\":16189:16956  function _checkOnKIP37Received(... */\n    tag_301:\n        /* \"KIP37/KIP37.sol\":16382:16386  bool */\n      0x00\n      sub(shl(0xa0, 0x01), 0x01)\n        /* \"KIP37/KIP37.sol\":16402:16415  to.isContract */\n      dup6\n      and\n        /* \"KIP37/utils/Address.sol\":163:182  account.code.length */\n      extcodesize\n        /* \"KIP37/utils/Address.sol\":163:186  account.code.length > 0 */\n      iszero\n        /* \"KIP37/KIP37.sol\":16398:16950  if (to.isContract()) {... */\n      tag_310\n      jumpi\n        /* \"KIP37/KIP37.sol\":16437:16505  IKIP37Receiver(to).onKIP37Received(operator, from, id, amount, data) */\n      mload(0x40)\n      shl(0xe0, 0xe78b3325)\n      dup2\n      mstore\n      sub(shl(0xa0, 0x01), 0x01)\n        /* \"KIP37/KIP37.sol\":16437:16471  IKIP37Receiver(to).onKIP37Received */\n      dup7\n      and\n      swap1\n      0xe78b3325\n      swap1\n        /* \"KIP37/KIP37.sol\":16437:16505  IKIP37Receiver(to).onKIP37Received(operator, from, id, amount, data) */\n      tag_345\n      swap1\n        /* \"KIP37/KIP37.sol\":16472:16480  operator */\n      dup11\n      swap1\n        /* \"KIP37/KIP37.sol\":16482:16486  from */\n      dup11\n      swap1\n        /* \"KIP37/KIP37.sol\":16488:16490  id */\n      dup10\n      swap1\n        /* \"KIP37/KIP37.sol\":16492:16498  amount */\n      dup10\n      swap1\n        /* \"KIP37/KIP37.sol\":16500:16504  data */\n      dup10\n      swap1\n        /* \"KIP37/KIP37.sol\":16437:16505  IKIP37Receiver(to).onKIP37Received(operator, from, id, amount, data) */\n      0x04\n      add\n      tag_346\n      jump\t// in\n    tag_345:\n      0x20\n      mload(0x40)\n      dup1\n      dup4\n      sub\n      dup2\n      0x00\n      dup8\n      gas\n      call\n      swap3\n      pop\n      pop\n      pop\n      dup1\n      iszero\n      tag_347\n      jumpi\n      pop\n      0x40\n      dup1\n      mload\n      0x1f\n      returndatasize\n      swap1\n      dup2\n      add\n      not(0x1f)\n      and\n      dup3\n      add\n      swap1\n      swap3\n      mstore\n      tag_348\n      swap2\n      dup2\n      add\n      swap1\n      tag_315\n      jump\t// in\n    tag_348:\n      0x01\n    tag_347:\n        /* \"KIP37/KIP37.sol\":16433:16898  try IKIP37Receiver(to).onKIP37Received(operator, from, id, amount, data) returns (bytes4 retval) {... */\n      tag_349\n      jumpi\n      returndatasize\n      dup1\n      dup1\n      iszero\n      tag_321\n      jumpi\n      mload(0x40)\n      swap2\n      pop\n      and(add(returndatasize, 0x3f), not(0x1f))\n      dup3\n      add\n      0x40\n      mstore\n      returndatasize\n      dup3\n      mstore\n      returndatasize\n      0x00\n      0x20\n      dup5\n      add\n      returndatacopy\n      jump(tag_320)\n    tag_349:\n      not(sub(shl(0xe0, 0x01), 0x01))\n        /* \"KIP37/KIP37.sol\":16555:16604  retval == IKIP37Receiver.onKIP37Received.selector */\n      and\n      shl(0xe0, 0xe78b3325)\n      eq\n      swap1\n      pop\n        /* \"KIP37/KIP37.sol\":16548:16604  return retval == IKIP37Receiver.onKIP37Received.selector */\n      jump(tag_325)\n        /* \"KIP37/KIP37.sol\":17772:18549  function _checkOnERC1155Received(... */\n    tag_304:\n        /* \"KIP37/KIP37.sol\":17967:17971  bool */\n      0x00\n      sub(shl(0xa0, 0x01), 0x01)\n        /* \"KIP37/KIP37.sol\":17987:18000  to.isContract */\n      dup6\n      and\n        /* \"KIP37/utils/Address.sol\":163:182  account.code.length */\n      extcodesize\n        /* \"KIP37/utils/Address.sol\":163:186  account.code.length > 0 */\n      iszero\n        /* \"KIP37/KIP37.sol\":17983:18543  if (to.isContract()) {... */\n      tag_310\n      jumpi\n        /* \"KIP37/KIP37.sol\":18022:18094  IERC1155Receiver(to).onERC1155Received(operator, from, id, amount, data) */\n      mload(0x40)\n      shl(0xe0, 0xf23a6e61)\n      dup2\n      mstore\n      sub(shl(0xa0, 0x01), 0x01)\n        /* \"KIP37/KIP37.sol\":18022:18060  IERC1155Receiver(to).onERC1155Received */\n      dup7\n      and\n      swap1\n      0xf23a6e61\n      swap1\n        /* \"KIP37/KIP37.sol\":18022:18094  IERC1155Receiver(to).onERC1155Received(operator, from, id, amount, data) */\n      tag_362\n      swap1\n        /* \"KIP37/KIP37.sol\":18061:18069  operator */\n      dup11\n      swap1\n        /* \"KIP37/KIP37.sol\":18071:18075  from */\n      dup11\n      swap1\n        /* \"KIP37/KIP37.sol\":18077:18079  id */\n      dup10\n      swap1\n        /* \"KIP37/KIP37.sol\":18081:18087  amount */\n      dup10\n      swap1\n        /* \"KIP37/KIP37.sol\":18089:18093  data */\n      dup10\n      swap1\n        /* \"KIP37/KIP37.sol\":18022:18094  IERC1155Receiver(to).onERC1155Received(operator, from, id, amount, data) */\n      0x04\n      add\n      tag_346\n      jump\t// in\n    tag_362:\n      0x20\n      mload(0x40)\n      dup1\n      dup4\n      sub\n      dup2\n      0x00\n      dup8\n      gas\n      call\n      swap3\n      pop\n      pop\n      pop\n      dup1\n      iszero\n      tag_363\n      jumpi\n      pop\n      0x40\n      dup1\n      mload\n      0x1f\n      returndatasize\n      swap1\n      dup2\n      add\n      not(0x1f)\n      and\n      dup3\n      add\n      swap1\n      swap3\n      mstore\n      tag_364\n      swap2\n      dup2\n      add\n      swap1\n      tag_315\n      jump\t// in\n    tag_364:\n      0x01\n    tag_363:\n        /* \"KIP37/KIP37.sol\":18018:18491  try IERC1155Receiver(to).onERC1155Received(operator, from, id, amount, data) returns (bytes4 retval) {... */\n      tag_365\n      jumpi\n      returndatasize\n      dup1\n      dup1\n      iszero\n      tag_321\n      jumpi\n      mload(0x40)\n      swap2\n      pop\n      and(add(returndatasize, 0x3f), not(0x1f))\n      dup3\n      add\n      0x40\n      mstore\n      returndatasize\n      dup3\n      mstore\n      returndatasize\n      0x00\n      0x20\n      dup5\n      add\n      returndatacopy\n      jump(tag_320)\n    tag_365:\n      not(sub(shl(0xe0, 0x01), 0x01))\n        /* \"KIP37/KIP37.sol\":18144:18197  retval == IERC1155Receiver.onERC1155Received.selector */\n      and\n      shl(0xe0, 0xf23a6e61)\n      eq\n      swap1\n      pop\n        /* \"KIP37/KIP37.sol\":18137:18197  return retval == IERC1155Receiver.onERC1155Received.selector */\n      jump(tag_325)\n        /* \"#utility.yul\":14:187   */\n    tag_376:\n        /* \"#utility.yul\":82:102   */\n      dup1\n      calldataload\n      sub(shl(0xa0, 0x01), 0x01)\n        /* \"#utility.yul\":131:162   */\n      dup2\n      and\n        /* \"#utility.yul\":121:163   */\n      dup2\n      eq\n        /* \"#utility.yul\":111:181   */\n      tag_387\n      jumpi\n        /* \"#utility.yul\":177:178   */\n      0x00\n        /* \"#utility.yul\":174:175   */\n      dup1\n        /* \"#utility.yul\":167:179   */\n      revert\n        /* \"#utility.yul\":111:181   */\n    tag_387:\n        /* \"#utility.yul\":14:187   */\n      swap2\n      swap1\n      pop\n      jump\t// out\n        /* \"#utility.yul\":192:446   */\n    tag_20:\n        /* \"#utility.yul\":260:266   */\n      0x00\n        /* \"#utility.yul\":268:274   */\n      dup1\n        /* \"#utility.yul\":321:323   */\n      0x40\n        /* \"#utility.yul\":309:318   */\n      dup4\n        /* \"#utility.yul\":300:307   */\n      dup6\n        /* \"#utility.yul\":296:319   */\n      sub\n        /* \"#utility.yul\":292:324   */\n      slt\n        /* \"#utility.yul\":289:341   */\n      iszero\n      tag_389\n      jumpi\n        /* \"#utility.yul\":337:338   */\n      0x00\n        /* \"#utility.yul\":334:335   */\n      dup1\n        /* \"#utility.yul\":327:339   */\n      revert\n        /* \"#utility.yul\":289:341   */\n    tag_389:\n        /* \"#utility.yul\":360:389   */\n      tag_390\n        /* \"#utility.yul\":379:388   */\n      dup4\n        /* \"#utility.yul\":360:389   */\n      tag_376\n      jump\t// in\n    tag_390:\n        /* \"#utility.yul\":350:389   */\n      swap5\n        /* \"#utility.yul\":436:438   */\n      0x20\n        /* \"#utility.yul\":421:439   */\n      swap4\n      swap1\n      swap4\n      add\n        /* \"#utility.yul\":408:440   */\n      calldataload\n      swap4\n      pop\n      pop\n      pop\n        /* \"#utility.yul\":192:446   */\n      jump\t// out\n        /* \"#utility.yul\":633:764   */\n    tag_377:\n      not(sub(shl(0xe0, 0x01), 0x01))\n        /* \"#utility.yul\":707:739   */\n      dup2\n      and\n        /* \"#utility.yul\":697:740   */\n      dup2\n      eq\n        /* \"#utility.yul\":687:758   */\n      tag_393\n      jumpi\n        /* \"#utility.yul\":754:755   */\n      0x00\n        /* \"#utility.yul\":751:752   */\n      dup1\n        /* \"#utility.yul\":744:756   */\n      revert\n        /* \"#utility.yul\":687:758   */\n    tag_393:\n        /* \"#utility.yul\":633:764   */\n      pop\n      jump\t// out\n        /* \"#utility.yul\":769:1014   */\n    tag_26:\n        /* \"#utility.yul\":827:833   */\n      0x00\n        /* \"#utility.yul\":880:882   */\n      0x20\n        /* \"#utility.yul\":868:877   */\n      dup3\n        /* \"#utility.yul\":859:866   */\n      dup5\n        /* \"#utility.yul\":855:878   */\n      sub\n        /* \"#utility.yul\":851:883   */\n      slt\n        /* \"#utility.yul\":848:900   */\n      iszero\n      tag_395\n      jumpi\n        /* \"#utility.yul\":896:897   */\n      0x00\n        /* \"#utility.yul\":893:894   */\n      dup1\n        /* \"#utility.yul\":886:898   */\n      revert\n        /* \"#utility.yul\":848:900   */\n    tag_395:\n        /* \"#utility.yul\":935:944   */\n      dup2\n        /* \"#utility.yul\":922:945   */\n      calldataload\n        /* \"#utility.yul\":954:984   */\n      tag_396\n        /* \"#utility.yul\":978:983   */\n      dup2\n        /* \"#utility.yul\":954:984   */\n      tag_377\n      jump\t// in\n    tag_396:\n        /* \"#utility.yul\":1003:1008   */\n      swap4\n        /* \"#utility.yul\":769:1014   */\n      swap3\n      pop\n      pop\n      pop\n      jump\t// out\n        /* \"#utility.yul\":1211:1391   */\n    tag_32:\n        /* \"#utility.yul\":1270:1276   */\n      0x00\n        /* \"#utility.yul\":1323:1325   */\n      0x20\n        /* \"#utility.yul\":1311:1320   */\n      dup3\n        /* \"#utility.yul\":1302:1309   */\n      dup5\n        /* \"#utility.yul\":1298:1321   */\n      sub\n        /* \"#utility.yul\":1294:1326   */\n      slt\n        /* \"#utility.yul\":1291:1343   */\n      iszero\n      tag_399\n      jumpi\n        /* \"#utility.yul\":1339:1340   */\n      0x00\n        /* \"#utility.yul\":1336:1337   */\n      dup1\n        /* \"#utility.yul\":1329:1341   */\n      revert\n        /* \"#utility.yul\":1291:1343   */\n    tag_399:\n      pop\n        /* \"#utility.yul\":1362:1385   */\n      calldataload\n      swap2\n        /* \"#utility.yul\":1211:1391   */\n      swap1\n      pop\n      jump\t// out\n        /* \"#utility.yul\":1396:1819   */\n    tag_378:\n        /* \"#utility.yul\":1438:1441   */\n      0x00\n        /* \"#utility.yul\":1476:1481   */\n      dup2\n        /* \"#utility.yul\":1470:1482   */\n      mload\n        /* \"#utility.yul\":1503:1509   */\n      dup1\n        /* \"#utility.yul\":1498:1501   */\n      dup5\n        /* \"#utility.yul\":1491:1510   */\n      mstore\n        /* \"#utility.yul\":1528:1529   */\n      0x00\n        /* \"#utility.yul\":1538:1700   */\n    tag_401:\n        /* \"#utility.yul\":1552:1558   */\n      dup2\n        /* \"#utility.yul\":1549:1550   */\n      dup2\n        /* \"#utility.yul\":1546:1559   */\n      lt\n        /* \"#utility.yul\":1538:1700   */\n      iszero\n      tag_403\n      jumpi\n        /* \"#utility.yul\":1614:1618   */\n      0x20\n        /* \"#utility.yul\":1670:1683   */\n      dup2\n      dup6\n      add\n        /* \"#utility.yul\":1666:1688   */\n      dup2\n      add\n        /* \"#utility.yul\":1660:1689   */\n      mload\n        /* \"#utility.yul\":1642:1653   */\n      dup7\n      dup4\n      add\n        /* \"#utility.yul\":1638:1658   */\n      dup3\n      add\n        /* \"#utility.yul\":1631:1690   */\n      mstore\n        /* \"#utility.yul\":1567:1579   */\n      add\n        /* \"#utility.yul\":1538:1700   */\n      jump(tag_401)\n    tag_403:\n        /* \"#utility.yul\":1542:1545   */\n      pop\n        /* \"#utility.yul\":1745:1746   */\n      0x00\n        /* \"#utility.yul\":1738:1742   */\n      0x20\n        /* \"#utility.yul\":1729:1735   */\n      dup3\n        /* \"#utility.yul\":1724:1727   */\n      dup7\n        /* \"#utility.yul\":1720:1736   */\n      add\n        /* \"#utility.yul\":1716:1743   */\n      add\n        /* \"#utility.yul\":1709:1747   */\n      mstore\n        /* \"#utility.yul\":1808:1812   */\n      0x20\n        /* \"#utility.yul\":1801:1803   */\n      0x1f\n        /* \"#utility.yul\":1797:1804   */\n      not\n        /* \"#utility.yul\":1792:1794   */\n      0x1f\n        /* \"#utility.yul\":1784:1790   */\n      dup4\n        /* \"#utility.yul\":1780:1795   */\n      add\n        /* \"#utility.yul\":1776:1805   */\n      and\n        /* \"#utility.yul\":1771:1774   */\n      dup6\n        /* \"#utility.yul\":1767:1806   */\n      add\n        /* \"#utility.yul\":1763:1813   */\n      add\n        /* \"#utility.yul\":1756:1813   */\n      swap2\n      pop\n      pop\n        /* \"#utility.yul\":1396:1819   */\n      swap3\n      swap2\n      pop\n      pop\n      jump\t// out\n        /* \"#utility.yul\":1824:2044   */\n    tag_35:\n        /* \"#utility.yul\":1973:1975   */\n      0x20\n        /* \"#utility.yul\":1962:1971   */\n      dup2\n        /* \"#utility.yul\":1955:1976   */\n      mstore\n        /* \"#utility.yul\":1936:1940   */\n      0x00\n        /* \"#utility.yul\":1993:2038   */\n      tag_396\n        /* \"#utility.yul\":2034:2036   */\n      0x20\n        /* \"#utility.yul\":2023:2032   */\n      dup4\n        /* \"#utility.yul\":2019:2037   */\n      add\n        /* \"#utility.yul\":2011:2017   */\n      dup5\n        /* \"#utility.yul\":1993:2038   */\n      tag_378\n      jump\t// in\n        /* \"#utility.yul\":2049:2176   */\n    tag_115:\n        /* \"#utility.yul\":2110:2120   */\n      0x4e487b71\n        /* \"#utility.yul\":2105:2108   */\n      0xe0\n        /* \"#utility.yul\":2101:2121   */\n      shl\n        /* \"#utility.yul\":2098:2099   */\n      0x00\n        /* \"#utility.yul\":2091:2122   */\n      mstore\n        /* \"#utility.yul\":2141:2145   */\n      0x41\n        /* \"#utility.yul\":2138:2139   */\n      0x04\n        /* \"#utility.yul\":2131:2146   */\n      mstore\n        /* \"#utility.yul\":2165:2169   */\n      0x24\n        /* \"#utility.yul\":2162:2163   */\n      0x00\n        /* \"#utility.yul\":2155:2170   */\n      revert\n        /* \"#utility.yul\":2181:2456   */\n    tag_379:\n        /* \"#utility.yul\":2252:2254   */\n      0x40\n        /* \"#utility.yul\":2246:2255   */\n      mload\n        /* \"#utility.yul\":2317:2319   */\n      0x1f\n        /* \"#utility.yul\":2298:2311   */\n      dup3\n      add\n      not(0x1f)\n        /* \"#utility.yul\":2294:2321   */\n      and\n        /* \"#utility.yul\":2282:2322   */\n      dup2\n      add\n        /* \"#utility.yul\":2352:2370   */\n      0xffffffffffffffff\n        /* \"#utility.yul\":2337:2371   */\n      dup2\n      gt\n        /* \"#utility.yul\":2373:2395   */\n      dup3\n      dup3\n      lt\n        /* \"#utility.yul\":2334:2396   */\n      or\n        /* \"#utility.yul\":2331:2419   */\n      iszero\n      tag_409\n      jumpi\n        /* \"#utility.yul\":2399:2417   */\n      tag_409\n      tag_115\n      jump\t// in\n    tag_409:\n        /* \"#utility.yul\":2435:2437   */\n      0x40\n        /* \"#utility.yul\":2428:2450   */\n      mstore\n        /* \"#utility.yul\":2181:2456   */\n      swap2\n      swap1\n      pop\n      jump\t// out\n        /* \"#utility.yul\":2461:2644   */\n    tag_380:\n        /* \"#utility.yul\":2521:2525   */\n      0x00\n        /* \"#utility.yul\":2554:2572   */\n      0xffffffffffffffff\n        /* \"#utility.yul\":2546:2552   */\n      dup3\n        /* \"#utility.yul\":2543:2573   */\n      gt\n        /* \"#utility.yul\":2540:2596   */\n      iszero\n      tag_412\n      jumpi\n        /* \"#utility.yul\":2576:2594   */\n      tag_412\n      tag_115\n      jump\t// in\n    tag_412:\n      pop\n        /* \"#utility.yul\":2621:2622   */\n      0x05\n        /* \"#utility.yul\":2617:2631   */\n      shl\n        /* \"#utility.yul\":2633:2637   */\n      0x20\n        /* \"#utility.yul\":2613:2638   */\n      add\n      swap1\n        /* \"#utility.yul\":2461:2644   */\n      jump\t// out\n        /* \"#utility.yul\":2649:3311   */\n    tag_381:\n        /* \"#utility.yul\":2703:2708   */\n      0x00\n        /* \"#utility.yul\":2756:2759   */\n      dup3\n        /* \"#utility.yul\":2749:2753   */\n      0x1f\n        /* \"#utility.yul\":2741:2747   */\n      dup4\n        /* \"#utility.yul\":2737:2754   */\n      add\n        /* \"#utility.yul\":2733:2760   */\n      slt\n        /* \"#utility.yul\":2723:2778   */\n      tag_414\n      jumpi\n        /* \"#utility.yul\":2774:2775   */\n      0x00\n        /* \"#utility.yul\":2771:2772   */\n      dup1\n        /* \"#utility.yul\":2764:2776   */\n      revert\n        /* \"#utility.yul\":2723:2778   */\n    tag_414:\n        /* \"#utility.yul\":2810:2816   */\n      dup2\n        /* \"#utility.yul\":2797:2817   */\n      calldataload\n        /* \"#utility.yul\":2836:2840   */\n      0x20\n        /* \"#utility.yul\":2860:2920   */\n      tag_415\n        /* \"#utility.yul\":2876:2919   */\n      tag_416\n        /* \"#utility.yul\":2916:2918   */\n      dup4\n        /* \"#utility.yul\":2876:2919   */\n      tag_380\n      jump\t// in\n    tag_416:\n        /* \"#utility.yul\":2860:2920   */\n      tag_379\n      jump\t// in\n    tag_415:\n        /* \"#utility.yul\":2954:2969   */\n      dup3\n      dup2\n      mstore\n        /* \"#utility.yul\":3040:3041   */\n      0x05\n        /* \"#utility.yul\":3036:3046   */\n      swap3\n      swap1\n      swap3\n      shl\n        /* \"#utility.yul\":3024:3047   */\n      dup5\n      add\n        /* \"#utility.yul\":3020:3052   */\n      dup2\n      add\n      swap2\n        /* \"#utility.yul\":2985:2997   */\n      dup2\n      dup2\n      add\n      swap1\n        /* \"#utility.yul\":3064:3079   */\n      dup7\n      dup5\n      gt\n        /* \"#utility.yul\":3061:3096   */\n      iszero\n      tag_417\n      jumpi\n        /* \"#utility.yul\":3092:3093   */\n      0x00\n        /* \"#utility.yul\":3089:3090   */\n      dup1\n        /* \"#utility.yul\":3082:3094   */\n      revert\n        /* \"#utility.yul\":3061:3096   */\n    tag_417:\n        /* \"#utility.yul\":3128:3130   */\n      dup3\n        /* \"#utility.yul\":3120:3126   */\n      dup7\n        /* \"#utility.yul\":3116:3131   */\n      add\n        /* \"#utility.yul\":3140:3282   */\n    tag_418:\n        /* \"#utility.yul\":3156:3162   */\n      dup5\n        /* \"#utility.yul\":3151:3154   */\n      dup2\n        /* \"#utility.yul\":3148:3163   */\n      lt\n        /* \"#utility.yul\":3140:3282   */\n      iszero\n      tag_420\n      jumpi\n        /* \"#utility.yul\":3222:3239   */\n      dup1\n      calldataload\n        /* \"#utility.yul\":3210:3240   */\n      dup4\n      mstore\n        /* \"#utility.yul\":3260:3272   */\n      swap2\n      dup4\n      add\n      swap2\n        /* \"#utility.yul\":3173:3185   */\n      dup4\n      add\n        /* \"#utility.yul\":3140:3282   */\n      jump(tag_418)\n    tag_420:\n      pop\n        /* \"#utility.yul\":3300:3305   */\n      swap7\n        /* \"#utility.yul\":2649:3311   */\n      swap6\n      pop\n      pop\n      pop\n      pop\n      pop\n      pop\n      jump\t// out\n        /* \"#utility.yul\":3316:3846   */\n    tag_382:\n        /* \"#utility.yul\":3358:3363   */\n      0x00\n        /* \"#utility.yul\":3411:3414   */\n      dup3\n        /* \"#utility.yul\":3404:3408   */\n      0x1f\n        /* \"#utility.yul\":3396:3402   */\n      dup4\n        /* \"#utility.yul\":3392:3409   */\n      add\n        /* \"#utility.yul\":3388:3415   */\n      slt\n        /* \"#utility.yul\":3378:3433   */\n      tag_422\n      jumpi\n        /* \"#utility.yul\":3429:3430   */\n      0x00\n        /* \"#utility.yul\":3426:3427   */\n      dup1\n        /* \"#utility.yul\":3419:3431   */\n      revert\n        /* \"#utility.yul\":3378:3433   */\n    tag_422:\n        /* \"#utility.yul\":3465:3471   */\n      dup2\n        /* \"#utility.yul\":3452:3472   */\n      calldataload\n        /* \"#utility.yul\":3491:3509   */\n      0xffffffffffffffff\n        /* \"#utility.yul\":3487:3489   */\n      dup2\n        /* \"#utility.yul\":3484:3510   */\n      gt\n        /* \"#utility.yul\":3481:3533   */\n      iszero\n      tag_424\n      jumpi\n        /* \"#utility.yul\":3513:3531   */\n      tag_424\n      tag_115\n      jump\t// in\n    tag_424:\n        /* \"#utility.yul\":3557:3612   */\n      tag_425\n        /* \"#utility.yul\":3600:3602   */\n      0x1f\n        /* \"#utility.yul\":3581:3594   */\n      dup3\n      add\n      not(0x1f)\n        /* \"#utility.yul\":3577:3604   */\n      and\n        /* \"#utility.yul\":3606:3610   */\n      0x20\n        /* \"#utility.yul\":3573:3611   */\n      add\n        /* \"#utility.yul\":3557:3612   */\n      tag_379\n      jump\t// in\n    tag_425:\n        /* \"#utility.yul\":3637:3639   */\n      dup2\n        /* \"#utility.yul\":3628:3635   */\n      dup2\n        /* \"#utility.yul\":3621:3640   */\n      mstore\n        /* \"#utility.yul\":3683:3686   */\n      dup5\n        /* \"#utility.yul\":3676:3680   */\n      0x20\n        /* \"#utility.yul\":3671:3673   */\n      dup4\n        /* \"#utility.yul\":3663:3669   */\n      dup7\n        /* \"#utility.yul\":3659:3674   */\n      add\n        /* \"#utility.yul\":3655:3681   */\n      add\n        /* \"#utility.yul\":3652:3687   */\n      gt\n        /* \"#utility.yul\":3649:3704   */\n      iszero\n      tag_426\n      jumpi\n        /* \"#utility.yul\":3700:3701   */\n      0x00\n        /* \"#utility.yul\":3697:3698   */\n      dup1\n        /* \"#utility.yul\":3690:3702   */\n      revert\n        /* \"#utility.yul\":3649:3704   */\n    tag_426:\n        /* \"#utility.yul\":3765:3767   */\n      dup2\n        /* \"#utility.yul\":3758:3762   */\n      0x20\n        /* \"#utility.yul\":3750:3756   */\n      dup6\n        /* \"#utility.yul\":3746:3763   */\n      add\n        /* \"#utility.yul\":3739:3743   */\n      0x20\n        /* \"#utility.yul\":3730:3737   */\n      dup4\n        /* \"#utility.yul\":3726:3744   */\n      add\n        /* \"#utility.yul\":3713:3768   */\n      calldatacopy\n        /* \"#utility.yul\":3813:3814   */\n      0x00\n        /* \"#utility.yul\":3788:3804   */\n      swap2\n      dup2\n      add\n        /* \"#utility.yul\":3806:3810   */\n      0x20\n        /* \"#utility.yul\":3784:3811   */\n      add\n        /* \"#utility.yul\":3777:3815   */\n      swap2\n      swap1\n      swap2\n      mstore\n        /* \"#utility.yul\":3792:3799   */\n      swap4\n        /* \"#utility.yul\":3316:3846   */\n      swap3\n      pop\n      pop\n      pop\n      jump\t// out\n        /* \"#utility.yul\":3851:4794   */\n    tag_38:\n        /* \"#utility.yul\":4005:4011   */\n      0x00\n        /* \"#utility.yul\":4013:4019   */\n      dup1\n        /* \"#utility.yul\":4021:4027   */\n      0x00\n        /* \"#utility.yul\":4029:4035   */\n      dup1\n        /* \"#utility.yul\":4037:4043   */\n      0x00\n        /* \"#utility.yul\":4090:4093   */\n      0xa0\n        /* \"#utility.yul\":4078:4087   */\n      dup7\n        /* \"#utility.yul\":4069:4076   */\n      dup9\n        /* \"#utility.yul\":4065:4088   */\n      sub\n        /* \"#utility.yul\":4061:4094   */\n      slt\n        /* \"#utility.yul\":4058:4111   */\n      iszero\n      tag_428\n      jumpi\n        /* \"#utility.yul\":4107:4108   */\n      0x00\n        /* \"#utility.yul\":4104:4105   */\n      dup1\n        /* \"#utility.yul\":4097:4109   */\n      revert\n        /* \"#utility.yul\":4058:4111   */\n    tag_428:\n        /* \"#utility.yul\":4130:4159   */\n      tag_429\n        /* \"#utility.yul\":4149:4158   */\n      dup7\n        /* \"#utility.yul\":4130:4159   */\n      tag_376\n      jump\t// in\n    tag_429:\n        /* \"#utility.yul\":4120:4159   */\n      swap5\n      pop\n        /* \"#utility.yul\":4178:4216   */\n      tag_430\n        /* \"#utility.yul\":4212:4214   */\n      0x20\n        /* \"#utility.yul\":4201:4210   */\n      dup8\n        /* \"#utility.yul\":4197:4215   */\n      add\n        /* \"#utility.yul\":4178:4216   */\n      tag_376\n      jump\t// in\n    tag_430:\n        /* \"#utility.yul\":4168:4216   */\n      swap4\n      pop\n        /* \"#utility.yul\":4267:4269   */\n      0x40\n        /* \"#utility.yul\":4256:4265   */\n      dup7\n        /* \"#utility.yul\":4252:4270   */\n      add\n        /* \"#utility.yul\":4239:4271   */\n      calldataload\n        /* \"#utility.yul\":4290:4308   */\n      0xffffffffffffffff\n        /* \"#utility.yul\":4331:4333   */\n      dup1\n        /* \"#utility.yul\":4323:4329   */\n      dup3\n        /* \"#utility.yul\":4320:4334   */\n      gt\n        /* \"#utility.yul\":4317:4351   */\n      iszero\n      tag_431\n      jumpi\n        /* \"#utility.yul\":4347:4348   */\n      0x00\n        /* \"#utility.yul\":4344:4345   */\n      dup1\n        /* \"#utility.yul\":4337:4349   */\n      revert\n        /* \"#utility.yul\":4317:4351   */\n    tag_431:\n        /* \"#utility.yul\":4370:4431   */\n      tag_432\n        /* \"#utility.yul\":4423:4430   */\n      dup10\n        /* \"#utility.yul\":4414:4420   */\n      dup4\n        /* \"#utility.yul\":4403:4412   */\n      dup11\n        /* \"#utility.yul\":4399:4421   */\n      add\n        /* \"#utility.yul\":4370:4431   */\n      tag_381\n      jump\t// in\n    tag_432:\n        /* \"#utility.yul\":4360:4431   */\n      swap5\n      pop\n        /* \"#utility.yul\":4484:4486   */\n      0x60\n        /* \"#utility.yul\":4473:4482   */\n      dup9\n        /* \"#utility.yul\":4469:4487   */\n      add\n        /* \"#utility.yul\":4456:4488   */\n      calldataload\n        /* \"#utility.yul\":4440:4488   */\n      swap2\n      pop\n        /* \"#utility.yul\":4513:4515   */\n      dup1\n        /* \"#utility.yul\":4503:4511   */\n      dup3\n        /* \"#utility.yul\":4500:4516   */\n      gt\n        /* \"#utility.yul\":4497:4533   */\n      iszero\n      tag_433\n      jumpi\n        /* \"#utility.yul\":4529:4530   */\n      0x00\n        /* \"#utility.yul\":4526:4527   */\n      dup1\n        /* \"#utility.yul\":4519:4531   */\n      revert\n        /* \"#utility.yul\":4497:4533   */\n    tag_433:\n        /* \"#utility.yul\":4552:4615   */\n      tag_434\n        /* \"#utility.yul\":4607:4614   */\n      dup10\n        /* \"#utility.yul\":4596:4604   */\n      dup4\n        /* \"#utility.yul\":4585:4594   */\n      dup11\n        /* \"#utility.yul\":4581:4605   */\n      add\n        /* \"#utility.yul\":4552:4615   */\n      tag_381\n      jump\t// in\n    tag_434:\n        /* \"#utility.yul\":4542:4615   */\n      swap4\n      pop\n        /* \"#utility.yul\":4668:4671   */\n      0x80\n        /* \"#utility.yul\":4657:4666   */\n      dup9\n        /* \"#utility.yul\":4653:4672   */\n      add\n        /* \"#utility.yul\":4640:4673   */\n      calldataload\n        /* \"#utility.yul\":4624:4673   */\n      swap2\n      pop\n        /* \"#utility.yul\":4698:4700   */\n      dup1\n        /* \"#utility.yul\":4688:4696   */\n      dup3\n        /* \"#utility.yul\":4685:4701   */\n      gt\n        /* \"#utility.yul\":4682:4718   */\n      iszero\n      tag_435\n      jumpi\n        /* \"#utility.yul\":4714:4715   */\n      0x00\n        /* \"#utility.yul\":4711:4712   */\n      dup1\n        /* \"#utility.yul\":4704:4716   */\n      revert\n        /* \"#utility.yul\":4682:4718   */\n    tag_435:\n      pop\n        /* \"#utility.yul\":4737:4788   */\n      tag_436\n        /* \"#utility.yul\":4780:4787   */\n      dup9\n        /* \"#utility.yul\":4769:4777   */\n      dup3\n        /* \"#utility.yul\":4758:4767   */\n      dup10\n        /* \"#utility.yul\":4754:4778   */\n      add\n        /* \"#utility.yul\":4737:4788   */\n      tag_382\n      jump\t// in\n    tag_436:\n        /* \"#utility.yul\":4727:4788   */\n      swap2\n      pop\n      pop\n        /* \"#utility.yul\":3851:4794   */\n      swap3\n      swap6\n      pop\n      swap3\n      swap6\n      swap1\n      swap4\n      pop\n      jump\t// out\n        /* \"#utility.yul\":4799:5945   */\n    tag_42:\n        /* \"#utility.yul\":4917:4923   */\n      0x00\n        /* \"#utility.yul\":4925:4931   */\n      dup1\n        /* \"#utility.yul\":4978:4980   */\n      0x40\n        /* \"#utility.yul\":4966:4975   */\n      dup4\n        /* \"#utility.yul\":4957:4964   */\n      dup6\n        /* \"#utility.yul\":4953:4976   */\n      sub\n        /* \"#utility.yul\":4949:4981   */\n      slt\n        /* \"#utility.yul\":4946:4998   */\n      iszero\n      tag_438\n      jumpi\n        /* \"#utility.yul\":4994:4995   */\n      0x00\n        /* \"#utility.yul\":4991:4992   */\n      dup1\n        /* \"#utility.yul\":4984:4996   */\n      revert\n        /* \"#utility.yul\":4946:4998   */\n    tag_438:\n        /* \"#utility.yul\":5034:5043   */\n      dup3\n        /* \"#utility.yul\":5021:5044   */\n      calldataload\n        /* \"#utility.yul\":5063:5081   */\n      0xffffffffffffffff\n        /* \"#utility.yul\":5104:5106   */\n      dup1\n        /* \"#utility.yul\":5096:5102   */\n      dup3\n        /* \"#utility.yul\":5093:5107   */\n      gt\n        /* \"#utility.yul\":5090:5124   */\n      iszero\n      tag_439\n      jumpi\n        /* \"#utility.yul\":5120:5121   */\n      0x00\n        /* \"#utility.yul\":5117:5118   */\n      dup1\n        /* \"#utility.yul\":5110:5122   */\n      revert\n        /* \"#utility.yul\":5090:5124   */\n    tag_439:\n        /* \"#utility.yul\":5158:5164   */\n      dup2\n        /* \"#utility.yul\":5147:5156   */\n      dup6\n        /* \"#utility.yul\":5143:5165   */\n      add\n        /* \"#utility.yul\":5133:5165   */\n      swap2\n      pop\n        /* \"#utility.yul\":5203:5210   */\n      dup6\n        /* \"#utility.yul\":5196:5200   */\n      0x1f\n        /* \"#utility.yul\":5192:5194   */\n      dup4\n        /* \"#utility.yul\":5188:5201   */\n      add\n        /* \"#utility.yul\":5184:5211   */\n      slt\n        /* \"#utility.yul\":5174:5229   */\n      tag_440\n      jumpi\n        /* \"#utility.yul\":5225:5226   */\n      0x00\n        /* \"#utility.yul\":5222:5223   */\n      dup1\n        /* \"#utility.yul\":5215:5227   */\n      revert\n        /* \"#utility.yul\":5174:5229   */\n    tag_440:\n        /* \"#utility.yul\":5261:5263   */\n      dup2\n        /* \"#utility.yul\":5248:5264   */\n      calldataload\n        /* \"#utility.yul\":5283:5287   */\n      0x20\n        /* \"#utility.yul\":5307:5367   */\n      tag_441\n        /* \"#utility.yul\":5323:5366   */\n      tag_416\n        /* \"#utility.yul\":5363:5365   */\n      dup4\n        /* \"#utility.yul\":5323:5366   */\n      tag_380\n      jump\t// in\n        /* \"#utility.yul\":5307:5367   */\n    tag_441:\n        /* \"#utility.yul\":5401:5416   */\n      dup3\n      dup2\n      mstore\n        /* \"#utility.yul\":5483:5484   */\n      0x05\n        /* \"#utility.yul\":5479:5489   */\n      swap3\n      swap1\n      swap3\n      shl\n        /* \"#utility.yul\":5471:5490   */\n      dup5\n      add\n        /* \"#utility.yul\":5467:5495   */\n      dup2\n      add\n      swap2\n        /* \"#utility.yul\":5432:5444   */\n      dup2\n      dup2\n      add\n      swap1\n        /* \"#utility.yul\":5507:5526   */\n      dup10\n      dup5\n      gt\n        /* \"#utility.yul\":5504:5543   */\n      iszero\n      tag_443\n      jumpi\n        /* \"#utility.yul\":5539:5540   */\n      0x00\n        /* \"#utility.yul\":5536:5537   */\n      dup1\n        /* \"#utility.yul\":5529:5541   */\n      revert\n        /* \"#utility.yul\":5504:5543   */\n    tag_443:\n        /* \"#utility.yul\":5563:5574   */\n      swap5\n      dup3\n      add\n      swap5\n        /* \"#utility.yul\":5583:5731   */\n    tag_444:\n        /* \"#utility.yul\":5599:5605   */\n      dup4\n        /* \"#utility.yul\":5594:5597   */\n      dup7\n        /* \"#utility.yul\":5591:5606   */\n      lt\n        /* \"#utility.yul\":5583:5731   */\n      iszero\n      tag_446\n      jumpi\n        /* \"#utility.yul\":5665:5688   */\n      tag_447\n        /* \"#utility.yul\":5684:5687   */\n      dup7\n        /* \"#utility.yul\":5665:5688   */\n      tag_376\n      jump\t// in\n    tag_447:\n        /* \"#utility.yul\":5653:5689   */\n      dup3\n      mstore\n        /* \"#utility.yul\":5616:5628   */\n      swap5\n      dup3\n      add\n      swap5\n        /* \"#utility.yul\":5709:5721   */\n      swap1\n      dup3\n      add\n      swap1\n        /* \"#utility.yul\":5583:5731   */\n      jump(tag_444)\n    tag_446:\n        /* \"#utility.yul\":5750:5755   */\n      swap7\n      pop\n      pop\n        /* \"#utility.yul\":5793:5811   */\n      dup7\n      add\n        /* \"#utility.yul\":5780:5812   */\n      calldataload\n      swap3\n      pop\n      pop\n        /* \"#utility.yul\":5824:5840   */\n      dup1\n      dup3\n      gt\n        /* \"#utility.yul\":5821:5857   */\n      iszero\n      tag_448\n      jumpi\n        /* \"#utility.yul\":5853:5854   */\n      0x00\n        /* \"#utility.yul\":5850:5851   */\n      dup1\n        /* \"#utility.yul\":5843:5855   */\n      revert\n        /* \"#utility.yul\":5821:5857   */\n    tag_448:\n      pop\n        /* \"#utility.yul\":5876:5939   */\n      tag_449\n        /* \"#utility.yul\":5931:5938   */\n      dup6\n        /* \"#utility.yul\":5920:5928   */\n      dup3\n        /* \"#utility.yul\":5909:5918   */\n      dup7\n        /* \"#utility.yul\":5905:5929   */\n      add\n        /* \"#utility.yul\":5876:5939   */\n      tag_381\n      jump\t// in\n    tag_449:\n        /* \"#utility.yul\":5866:5939   */\n      swap2\n      pop\n      pop\n        /* \"#utility.yul\":4799:5945   */\n      swap3\n      pop\n      swap3\n      swap1\n      pop\n      jump\t// out\n        /* \"#utility.yul\":5950:6385   */\n    tag_383:\n        /* \"#utility.yul\":6003:6006   */\n      0x00\n        /* \"#utility.yul\":6041:6046   */\n      dup2\n        /* \"#utility.yul\":6035:6047   */\n      mload\n        /* \"#utility.yul\":6068:6074   */\n      dup1\n        /* \"#utility.yul\":6063:6066   */\n      dup5\n        /* \"#utility.yul\":6056:6075   */\n      mstore\n        /* \"#utility.yul\":6094:6098   */\n      0x20\n        /* \"#utility.yul\":6123:6125   */\n      dup1\n        /* \"#utility.yul\":6118:6121   */\n      dup6\n        /* \"#utility.yul\":6114:6126   */\n      add\n        /* \"#utility.yul\":6107:6126   */\n      swap5\n      pop\n        /* \"#utility.yul\":6160:6162   */\n      dup1\n        /* \"#utility.yul\":6153:6158   */\n      dup5\n        /* \"#utility.yul\":6149:6163   */\n      add\n        /* \"#utility.yul\":6181:6182   */\n      0x00\n        /* \"#utility.yul\":6191:6360   */\n    tag_451:\n        /* \"#utility.yul\":6205:6211   */\n      dup4\n        /* \"#utility.yul\":6202:6203   */\n      dup2\n        /* \"#utility.yul\":6199:6212   */\n      lt\n        /* \"#utility.yul\":6191:6360   */\n      iszero\n      tag_453\n      jumpi\n        /* \"#utility.yul\":6266:6279   */\n      dup2\n      mload\n        /* \"#utility.yul\":6254:6280   */\n      dup8\n      mstore\n        /* \"#utility.yul\":6300:6312   */\n      swap6\n      dup3\n      add\n      swap6\n        /* \"#utility.yul\":6335:6350   */\n      swap1\n      dup3\n      add\n      swap1\n        /* \"#utility.yul\":6227:6228   */\n      0x01\n        /* \"#utility.yul\":6220:6229   */\n      add\n        /* \"#utility.yul\":6191:6360   */\n      jump(tag_451)\n    tag_453:\n      pop\n        /* \"#utility.yul\":6376:6379   */\n      swap5\n      swap6\n        /* \"#utility.yul\":5950:6385   */\n      swap5\n      pop\n      pop\n      pop\n      pop\n      pop\n      jump\t// out\n        /* \"#utility.yul\":6390:6651   */\n    tag_45:\n        /* \"#utility.yul\":6569:6571   */\n      0x20\n        /* \"#utility.yul\":6558:6567   */\n      dup2\n        /* \"#utility.yul\":6551:6572   */\n      mstore\n        /* \"#utility.yul\":6532:6536   */\n      0x00\n        /* \"#utility.yul\":6589:6645   */\n      tag_396\n        /* \"#utility.yul\":6641:6643   */\n      0x20\n        /* \"#utility.yul\":6630:6639   */\n      dup4\n        /* \"#utility.yul\":6626:6644   */\n      add\n        /* \"#utility.yul\":6618:6624   */\n      dup5\n        /* \"#utility.yul\":6589:6645   */\n      tag_383\n      jump\t// in\n        /* \"#utility.yul\":6656:6910   */\n    tag_48:\n        /* \"#utility.yul\":6724:6730   */\n      0x00\n        /* \"#utility.yul\":6732:6738   */\n      dup1\n        /* \"#utility.yul\":6785:6787   */\n      0x40\n        /* \"#utility.yul\":6773:6782   */\n      dup4\n        /* \"#utility.yul\":6764:6771   */\n      dup6\n        /* \"#utility.yul\":6760:6783   */\n      sub\n        /* \"#utility.yul\":6756:6788   */\n      slt\n        /* \"#utility.yul\":6753:6805   */\n      iszero\n      tag_457\n      jumpi\n        /* \"#utility.yul\":6801:6802   */\n      0x00\n        /* \"#utility.yul\":6798:6799   */\n      dup1\n        /* \"#utility.yul\":6791:6803   */\n      revert\n        /* \"#utility.yul\":6753:6805   */\n    tag_457:\n        /* \"#utility.yul\":6837:6846   */\n      dup3\n        /* \"#utility.yul\":6824:6847   */\n      calldataload\n        /* \"#utility.yul\":6814:6847   */\n      swap2\n      pop\n        /* \"#utility.yul\":6866:6904   */\n      tag_458\n        /* \"#utility.yul\":6900:6902   */\n      0x20\n        /* \"#utility.yul\":6889:6898   */\n      dup5\n        /* \"#utility.yul\":6885:6903   */\n      add\n        /* \"#utility.yul\":6866:6904   */\n      tag_376\n      jump\t// in\n    tag_458:\n        /* \"#utility.yul\":6856:6904   */\n      swap1\n      pop\n        /* \"#utility.yul\":6656:6910   */\n      swap3\n      pop\n      swap3\n      swap1\n      pop\n      jump\t// out\n        /* \"#utility.yul\":6915:7262   */\n    tag_53:\n        /* \"#utility.yul\":6980:6986   */\n      0x00\n        /* \"#utility.yul\":6988:6994   */\n      dup1\n        /* \"#utility.yul\":7041:7043   */\n      0x40\n        /* \"#utility.yul\":7029:7038   */\n      dup4\n        /* \"#utility.yul\":7020:7027   */\n      dup6\n        /* \"#utility.yul\":7016:7039   */\n      sub\n        /* \"#utility.yul\":7012:7044   */\n      slt\n        /* \"#utility.yul\":7009:7061   */\n      iszero\n      tag_460\n      jumpi\n        /* \"#utility.yul\":7057:7058   */\n      0x00\n        /* \"#utility.yul\":7054:7055   */\n      dup1\n        /* \"#utility.yul\":7047:7059   */\n      revert\n        /* \"#utility.yul\":7009:7061   */\n    tag_460:\n        /* \"#utility.yul\":7080:7109   */\n      tag_461\n        /* \"#utility.yul\":7099:7108   */\n      dup4\n        /* \"#utility.yul\":7080:7109   */\n      tag_376\n      jump\t// in\n    tag_461:\n        /* \"#utility.yul\":7070:7109   */\n      swap2\n      pop\n        /* \"#utility.yul\":7159:7161   */\n      0x20\n        /* \"#utility.yul\":7148:7157   */\n      dup4\n        /* \"#utility.yul\":7144:7162   */\n      add\n        /* \"#utility.yul\":7131:7163   */\n      calldataload\n        /* \"#utility.yul\":7206:7211   */\n      dup1\n        /* \"#utility.yul\":7199:7212   */\n      iszero\n        /* \"#utility.yul\":7192:7213   */\n      iszero\n        /* \"#utility.yul\":7185:7190   */\n      dup2\n        /* \"#utility.yul\":7182:7214   */\n      eq\n        /* \"#utility.yul\":7172:7232   */\n      tag_462\n      jumpi\n        /* \"#utility.yul\":7228:7229   */\n      0x00\n        /* \"#utility.yul\":7225:7226   */\n      dup1\n        /* \"#utility.yul\":7218:7230   */\n      revert\n        /* \"#utility.yul\":7172:7232   */\n    tag_462:\n        /* \"#utility.yul\":7251:7256   */\n      dup1\n        /* \"#utility.yul\":7241:7256   */\n      swap2\n      pop\n      pop\n        /* \"#utility.yul\":6915:7262   */\n      swap3\n      pop\n      swap3\n      swap1\n      pop\n      jump\t// out\n        /* \"#utility.yul\":7267:7689   */\n    tag_57:\n        /* \"#utility.yul\":7360:7366   */\n      0x00\n        /* \"#utility.yul\":7368:7374   */\n      dup1\n        /* \"#utility.yul\":7421:7423   */\n      0x40\n        /* \"#utility.yul\":7409:7418   */\n      dup4\n        /* \"#utility.yul\":7400:7407   */\n      dup6\n        /* \"#utility.yul\":7396:7419   */\n      sub\n        /* \"#utility.yul\":7392:7424   */\n      slt\n        /* \"#utility.yul\":7389:7441   */\n      iszero\n      tag_464\n      jumpi\n        /* \"#utility.yul\":7437:7438   */\n      0x00\n        /* \"#utility.yul\":7434:7435   */\n      dup1\n        /* \"#utility.yul\":7427:7439   */\n      revert\n        /* \"#utility.yul\":7389:7441   */\n    tag_464:\n        /* \"#utility.yul\":7460:7489   */\n      tag_465\n        /* \"#utility.yul\":7479:7488   */\n      dup4\n        /* \"#utility.yul\":7460:7489   */\n      tag_376\n      jump\t// in\n    tag_465:\n        /* \"#utility.yul\":7450:7489   */\n      swap2\n      pop\n        /* \"#utility.yul\":7540:7542   */\n      0x20\n        /* \"#utility.yul\":7529:7538   */\n      dup4\n        /* \"#utility.yul\":7525:7543   */\n      add\n        /* \"#utility.yul\":7512:7544   */\n      calldataload\n        /* \"#utility.yul\":7567:7585   */\n      0xffffffffffffffff\n        /* \"#utility.yul\":7559:7565   */\n      dup2\n        /* \"#utility.yul\":7556:7586   */\n      gt\n        /* \"#utility.yul\":7553:7603   */\n      iszero\n      tag_466\n      jumpi\n        /* \"#utility.yul\":7599:7600   */\n      0x00\n        /* \"#utility.yul\":7596:7597   */\n      dup1\n        /* \"#utility.yul\":7589:7601   */\n      revert\n        /* \"#utility.yul\":7553:7603   */\n    tag_466:\n        /* \"#utility.yul\":7622:7683   */\n      tag_449\n        /* \"#utility.yul\":7675:7682   */\n      dup6\n        /* \"#utility.yul\":7666:7672   */\n      dup3\n        /* \"#utility.yul\":7655:7664   */\n      dup7\n        /* \"#utility.yul\":7651:7673   */\n      add\n        /* \"#utility.yul\":7622:7683   */\n      tag_381\n      jump\t// in\n        /* \"#utility.yul\":7694:8159   */\n    tag_60:\n        /* \"#utility.yul\":7951:7953   */\n      0x40\n        /* \"#utility.yul\":7940:7949   */\n      dup2\n        /* \"#utility.yul\":7933:7954   */\n      mstore\n        /* \"#utility.yul\":7914:7918   */\n      0x00\n        /* \"#utility.yul\":7977:8033   */\n      tag_469\n        /* \"#utility.yul\":8029:8031   */\n      0x40\n        /* \"#utility.yul\":8018:8027   */\n      dup4\n        /* \"#utility.yul\":8014:8032   */\n      add\n        /* \"#utility.yul\":8006:8012   */\n      dup6\n        /* \"#utility.yul\":7977:8033   */\n      tag_383\n      jump\t// in\n    tag_469:\n        /* \"#utility.yul\":8081:8090   */\n      dup3\n        /* \"#utility.yul\":8073:8079   */\n      dup2\n        /* \"#utility.yul\":8069:8091   */\n      sub\n        /* \"#utility.yul\":8064:8066   */\n      0x20\n        /* \"#utility.yul\":8053:8062   */\n      dup5\n        /* \"#utility.yul\":8049:8067   */\n      add\n        /* \"#utility.yul\":8042:8092   */\n      mstore\n        /* \"#utility.yul\":8109:8153   */\n      tag_470\n        /* \"#utility.yul\":8146:8152   */\n      dup2\n        /* \"#utility.yul\":8138:8144   */\n      dup6\n        /* \"#utility.yul\":8109:8153   */\n      tag_383\n      jump\t// in\n    tag_470:\n        /* \"#utility.yul\":8101:8153   */\n      swap6\n        /* \"#utility.yul\":7694:8159   */\n      swap5\n      pop\n      pop\n      pop\n      pop\n      pop\n      jump\t// out\n        /* \"#utility.yul\":8164:8424   */\n    tag_71:\n        /* \"#utility.yul\":8232:8238   */\n      0x00\n        /* \"#utility.yul\":8240:8246   */\n      dup1\n        /* \"#utility.yul\":8293:8295   */\n      0x40\n        /* \"#utility.yul\":8281:8290   */\n      dup4\n        /* \"#utility.yul\":8272:8279   */\n      dup6\n        /* \"#utility.yul\":8268:8291   */\n      sub\n        /* \"#utility.yul\":8264:8296   */\n      slt\n        /* \"#utility.yul\":8261:8313   */\n      iszero\n      tag_472\n      jumpi\n        /* \"#utility.yul\":8309:8310   */\n      0x00\n        /* \"#utility.yul\":8306:8307   */\n      dup1\n        /* \"#utility.yul\":8299:8311   */\n      revert\n        /* \"#utility.yul\":8261:8313   */\n    tag_472:\n        /* \"#utility.yul\":8332:8361   */\n      tag_473\n        /* \"#utility.yul\":8351:8360   */\n      dup4\n        /* \"#utility.yul\":8332:8361   */\n      tag_376\n      jump\t// in\n    tag_473:\n        /* \"#utility.yul\":8322:8361   */\n      swap2\n      pop\n        /* \"#utility.yul\":8380:8418   */\n      tag_458\n        /* \"#utility.yul\":8414:8416   */\n      0x20\n        /* \"#utility.yul\":8403:8412   */\n      dup5\n        /* \"#utility.yul\":8399:8417   */\n      add\n        /* \"#utility.yul\":8380:8418   */\n      tag_376\n      jump\t// in\n        /* \"#utility.yul\":8429:9035   */\n    tag_80:\n        /* \"#utility.yul\":8533:8539   */\n      0x00\n        /* \"#utility.yul\":8541:8547   */\n      dup1\n        /* \"#utility.yul\":8549:8555   */\n      0x00\n        /* \"#utility.yul\":8557:8563   */\n      dup1\n        /* \"#utility.yul\":8565:8571   */\n      0x00\n        /* \"#utility.yul\":8618:8621   */\n      0xa0\n        /* \"#utility.yul\":8606:8615   */\n      dup7\n        /* \"#utility.yul\":8597:8604   */\n      dup9\n        /* \"#utility.yul\":8593:8616   */\n      sub\n        /* \"#utility.yul\":8589:8622   */\n      slt\n        /* \"#utility.yul\":8586:8639   */\n      iszero\n      tag_476\n      jumpi\n        /* \"#utility.yul\":8635:8636   */\n      0x00\n        /* \"#utility.yul\":8632:8633   */\n      dup1\n        /* \"#utility.yul\":8625:8637   */\n      revert\n        /* \"#utility.yul\":8586:8639   */\n    tag_476:\n        /* \"#utility.yul\":8658:8687   */\n      tag_477\n        /* \"#utility.yul\":8677:8686   */\n      dup7\n        /* \"#utility.yul\":8658:8687   */\n      tag_376\n      jump\t// in\n    tag_477:\n        /* \"#utility.yul\":8648:8687   */\n      swap5\n      pop\n        /* \"#utility.yul\":8706:8744   */\n      tag_478\n        /* \"#utility.yul\":8740:8742   */\n      0x20\n        /* \"#utility.yul\":8729:8738   */\n      dup8\n        /* \"#utility.yul\":8725:8743   */\n      add\n        /* \"#utility.yul\":8706:8744   */\n      tag_376\n      jump\t// in\n    tag_478:\n        /* \"#utility.yul\":8696:8744   */\n      swap4\n      pop\n        /* \"#utility.yul\":8791:8793   */\n      0x40\n        /* \"#utility.yul\":8780:8789   */\n      dup7\n        /* \"#utility.yul\":8776:8794   */\n      add\n        /* \"#utility.yul\":8763:8795   */\n      calldataload\n        /* \"#utility.yul\":8753:8795   */\n      swap3\n      pop\n        /* \"#utility.yul\":8842:8844   */\n      0x60\n        /* \"#utility.yul\":8831:8840   */\n      dup7\n        /* \"#utility.yul\":8827:8845   */\n      add\n        /* \"#utility.yul\":8814:8846   */\n      calldataload\n        /* \"#utility.yul\":8804:8846   */\n      swap2\n      pop\n        /* \"#utility.yul\":8897:8900   */\n      0x80\n        /* \"#utility.yul\":8886:8895   */\n      dup7\n        /* \"#utility.yul\":8882:8901   */\n      add\n        /* \"#utility.yul\":8869:8902   */\n      calldataload\n        /* \"#utility.yul\":8925:8943   */\n      0xffffffffffffffff\n        /* \"#utility.yul\":8917:8923   */\n      dup2\n        /* \"#utility.yul\":8914:8944   */\n      gt\n        /* \"#utility.yul\":8911:8961   */\n      iszero\n      tag_479\n      jumpi\n        /* \"#utility.yul\":8957:8958   */\n      0x00\n        /* \"#utility.yul\":8954:8955   */\n      dup1\n        /* \"#utility.yul\":8947:8959   */\n      revert\n        /* \"#utility.yul\":8911:8961   */\n    tag_479:\n        /* \"#utility.yul\":8980:9029   */\n      tag_436\n        /* \"#utility.yul\":9021:9028   */\n      dup9\n        /* \"#utility.yul\":9012:9018   */\n      dup3\n        /* \"#utility.yul\":9001:9010   */\n      dup10\n        /* \"#utility.yul\":8997:9019   */\n      add\n        /* \"#utility.yul\":8980:9029   */\n      tag_382\n      jump\t// in\n        /* \"#utility.yul\":9449:9829   */\n    tag_93:\n        /* \"#utility.yul\":9528:9529   */\n      0x01\n        /* \"#utility.yul\":9524:9536   */\n      dup2\n      dup2\n      shr\n      swap1\n        /* \"#utility.yul\":9571:9583   */\n      dup3\n      and\n      dup1\n        /* \"#utility.yul\":9592:9653   */\n      tag_483\n      jumpi\n        /* \"#utility.yul\":9646:9650   */\n      0x7f\n        /* \"#utility.yul\":9638:9644   */\n      dup3\n        /* \"#utility.yul\":9634:9651   */\n      and\n        /* \"#utility.yul\":9624:9651   */\n      swap2\n      pop\n        /* \"#utility.yul\":9592:9653   */\n    tag_483:\n        /* \"#utility.yul\":9699:9701   */\n      0x20\n        /* \"#utility.yul\":9691:9697   */\n      dup3\n        /* \"#utility.yul\":9688:9702   */\n      lt\n        /* \"#utility.yul\":9668:9686   */\n      dup2\n        /* \"#utility.yul\":9665:9703   */\n      sub\n        /* \"#utility.yul\":9662:9823   */\n      tag_484\n      jumpi\n        /* \"#utility.yul\":9745:9755   */\n      0x4e487b71\n        /* \"#utility.yul\":9740:9743   */\n      0xe0\n        /* \"#utility.yul\":9736:9756   */\n      shl\n        /* \"#utility.yul\":9733:9734   */\n      0x00\n        /* \"#utility.yul\":9726:9757   */\n      mstore\n        /* \"#utility.yul\":9780:9784   */\n      0x22\n        /* \"#utility.yul\":9777:9778   */\n      0x04\n        /* \"#utility.yul\":9770:9785   */\n      mstore\n        /* \"#utility.yul\":9808:9812   */\n      0x24\n        /* \"#utility.yul\":9805:9806   */\n      0x00\n        /* \"#utility.yul\":9798:9813   */\n      revert\n        /* \"#utility.yul\":9662:9823   */\n    tag_484:\n      pop\n        /* \"#utility.yul\":9449:9829   */\n      swap2\n      swap1\n      pop\n      jump\t// out\n        /* \"#utility.yul\":10657:10784   */\n    tag_123:\n        /* \"#utility.yul\":10718:10728   */\n      0x4e487b71\n        /* \"#utility.yul\":10713:10716   */\n      0xe0\n        /* \"#utility.yul\":10709:10729   */\n      shl\n        /* \"#utility.yul\":10706:10707   */\n      0x00\n        /* \"#utility.yul\":10699:10730   */\n      mstore\n        /* \"#utility.yul\":10749:10753   */\n      0x32\n        /* \"#utility.yul\":10746:10747   */\n      0x04\n        /* \"#utility.yul\":10739:10754   */\n      mstore\n        /* \"#utility.yul\":10773:10777   */\n      0x24\n        /* \"#utility.yul\":10770:10771   */\n      0x00\n        /* \"#utility.yul\":10763:10778   */\n      revert\n        /* \"#utility.yul\":10789:10916   */\n    tag_384:\n        /* \"#utility.yul\":10850:10860   */\n      0x4e487b71\n        /* \"#utility.yul\":10845:10848   */\n      0xe0\n        /* \"#utility.yul\":10841:10861   */\n      shl\n        /* \"#utility.yul\":10838:10839   */\n      0x00\n        /* \"#utility.yul\":10831:10862   */\n      mstore\n        /* \"#utility.yul\":10881:10885   */\n      0x11\n        /* \"#utility.yul\":10878:10879   */\n      0x04\n        /* \"#utility.yul\":10871:10886   */\n      mstore\n        /* \"#utility.yul\":10905:10909   */\n      0x24\n        /* \"#utility.yul\":10902:10903   */\n      0x00\n        /* \"#utility.yul\":10895:10910   */\n      revert\n        /* \"#utility.yul\":10921:11056   */\n    tag_129:\n        /* \"#utility.yul\":10960:10963   */\n      0x00\n        /* \"#utility.yul\":10981:10998   */\n      0x01\n      dup3\n      add\n        /* \"#utility.yul\":10978:11021   */\n      tag_491\n      jumpi\n        /* \"#utility.yul\":11001:11019   */\n      tag_491\n      tag_384\n      jump\t// in\n    tag_491:\n      pop\n        /* \"#utility.yul\":11048:11049   */\n      0x01\n        /* \"#utility.yul\":11037:11050   */\n      add\n      swap1\n        /* \"#utility.yul\":10921:11056   */\n      jump\t// out\n        /* \"#utility.yul\":11061:11189   */\n    tag_140:\n        /* \"#utility.yul\":11128:11137   */\n      dup2\n      dup2\n      sub\n        /* \"#utility.yul\":11149:11160   */\n      dup2\n      dup2\n      gt\n        /* \"#utility.yul\":11146:11183   */\n      iszero\n      tag_82\n      jumpi\n        /* \"#utility.yul\":11163:11181   */\n      tag_82\n      tag_384\n      jump\t// in\n        /* \"#utility.yul\":12009:12408   */\n    tag_184:\n        /* \"#utility.yul\":12211:12213   */\n      0x20\n        /* \"#utility.yul\":12193:12214   */\n      dup1\n      dup3\n      mstore\n        /* \"#utility.yul\":12250:12252   */\n      0x23\n        /* \"#utility.yul\":12230:12248   */\n      swap1\n      dup3\n      add\n        /* \"#utility.yul\":12223:12253   */\n      mstore\n        /* \"#utility.yul\":12289:12323   */\n      0x4b495033373a207472616e7366657220746f20746865207a65726f2061646472\n        /* \"#utility.yul\":12284:12286   */\n      0x40\n        /* \"#utility.yul\":12269:12287   */\n      dup3\n      add\n        /* \"#utility.yul\":12262:12324   */\n      mstore\n      shl(0xe8, 0x657373)\n        /* \"#utility.yul\":12355:12357   */\n      0x60\n        /* \"#utility.yul\":12340:12358   */\n      dup3\n      add\n        /* \"#utility.yul\":12333:12366   */\n      mstore\n        /* \"#utility.yul\":12398:12401   */\n      0x80\n        /* \"#utility.yul\":12383:12402   */\n      add\n      swap1\n        /* \"#utility.yul\":12009:12408   */\n      jump\t// out\n        /* \"#utility.yul\":12413:12817   */\n    tag_197:\n        /* \"#utility.yul\":12615:12617   */\n      0x20\n        /* \"#utility.yul\":12597:12618   */\n      dup1\n      dup3\n      mstore\n        /* \"#utility.yul\":12654:12656   */\n      0x28\n        /* \"#utility.yul\":12634:12652   */\n      swap1\n      dup3\n      add\n        /* \"#utility.yul\":12627:12657   */\n      mstore\n        /* \"#utility.yul\":12693:12727   */\n      0x4b495033373a20696e73756666696369656e742062616c616e636520666f7220\n        /* \"#utility.yul\":12688:12690   */\n      0x40\n        /* \"#utility.yul\":12673:12691   */\n      dup3\n      add\n        /* \"#utility.yul\":12666:12728   */\n      mstore\n      shl(0xc1, 0x3a3930b739b332b9)\n        /* \"#utility.yul\":12759:12761   */\n      0x60\n        /* \"#utility.yul\":12744:12762   */\n      dup3\n      add\n        /* \"#utility.yul\":12737:12775   */\n      mstore\n        /* \"#utility.yul\":12807:12810   */\n      0x80\n        /* \"#utility.yul\":12792:12811   */\n      add\n      swap1\n        /* \"#utility.yul\":12413:12817   */\n      jump\t// out\n        /* \"#utility.yul\":12822:12947   */\n    tag_199:\n        /* \"#utility.yul\":12887:12896   */\n      dup1\n      dup3\n      add\n        /* \"#utility.yul\":12908:12918   */\n      dup1\n      dup3\n      gt\n        /* \"#utility.yul\":12905:12941   */\n      iszero\n      tag_82\n      jumpi\n        /* \"#utility.yul\":12921:12939   */\n      tag_82\n      tag_384\n      jump\t// in\n        /* \"#utility.yul\":14839:15666   */\n    tag_312:\n      sub(shl(0xa0, 0x01), 0x01)\n        /* \"#utility.yul\":15236:15251   */\n      dup7\n      dup2\n      and\n        /* \"#utility.yul\":15218:15252   */\n      dup3\n      mstore\n        /* \"#utility.yul\":15288:15303   */\n      dup6\n      and\n        /* \"#utility.yul\":15283:15285   */\n      0x20\n        /* \"#utility.yul\":15268:15286   */\n      dup3\n      add\n        /* \"#utility.yul\":15261:15304   */\n      mstore\n        /* \"#utility.yul\":15198:15201   */\n      0xa0\n        /* \"#utility.yul\":15335:15337   */\n      0x40\n        /* \"#utility.yul\":15320:15338   */\n      dup3\n      add\n        /* \"#utility.yul\":15313:15344   */\n      dup2\n      swap1\n      mstore\n        /* \"#utility.yul\":15161:15165   */\n      0x00\n      swap1\n        /* \"#utility.yul\":15367:15424   */\n      tag_508\n      swap1\n        /* \"#utility.yul\":15404:15423   */\n      dup4\n      add\n        /* \"#utility.yul\":15396:15402   */\n      dup7\n        /* \"#utility.yul\":15367:15424   */\n      tag_383\n      jump\t// in\n    tag_508:\n        /* \"#utility.yul\":15472:15481   */\n      dup3\n        /* \"#utility.yul\":15464:15470   */\n      dup2\n        /* \"#utility.yul\":15460:15482   */\n      sub\n        /* \"#utility.yul\":15455:15457   */\n      0x60\n        /* \"#utility.yul\":15444:15453   */\n      dup5\n        /* \"#utility.yul\":15440:15458   */\n      add\n        /* \"#utility.yul\":15433:15483   */\n      mstore\n        /* \"#utility.yul\":15506:15550   */\n      tag_509\n        /* \"#utility.yul\":15543:15549   */\n      dup2\n        /* \"#utility.yul\":15535:15541   */\n      dup7\n        /* \"#utility.yul\":15506:15550   */\n      tag_383\n      jump\t// in\n    tag_509:\n        /* \"#utility.yul\":15492:15550   */\n      swap1\n      pop\n        /* \"#utility.yul\":15599:15608   */\n      dup3\n        /* \"#utility.yul\":15591:15597   */\n      dup2\n        /* \"#utility.yul\":15587:15609   */\n      sub\n        /* \"#utility.yul\":15581:15584   */\n      0x80\n        /* \"#utility.yul\":15570:15579   */\n      dup5\n        /* \"#utility.yul\":15566:15585   */\n      add\n        /* \"#utility.yul\":15559:15610   */\n      mstore\n        /* \"#utility.yul\":15627:15660   */\n      tag_510\n        /* \"#utility.yul\":15653:15659   */\n      dup2\n        /* \"#utility.yul\":15645:15651   */\n      dup6\n        /* \"#utility.yul\":15627:15660   */\n      tag_378\n      jump\t// in\n    tag_510:\n        /* \"#utility.yul\":15619:15660   */\n      swap9\n        /* \"#utility.yul\":14839:15666   */\n      swap8\n      pop\n      pop\n      pop\n      pop\n      pop\n      pop\n      pop\n      pop\n      jump\t// out\n        /* \"#utility.yul\":15671:15920   */\n    tag_315:\n        /* \"#utility.yul\":15740:15746   */\n      0x00\n        /* \"#utility.yul\":15793:15795   */\n      0x20\n        /* \"#utility.yul\":15781:15790   */\n      dup3\n        /* \"#utility.yul\":15772:15779   */\n      dup5\n        /* \"#utility.yul\":15768:15791   */\n      sub\n        /* \"#utility.yul\":15764:15796   */\n      slt\n        /* \"#utility.yul\":15761:15813   */\n      iszero\n      tag_512\n      jumpi\n        /* \"#utility.yul\":15809:15810   */\n      0x00\n        /* \"#utility.yul\":15806:15807   */\n      dup1\n        /* \"#utility.yul\":15799:15811   */\n      revert\n        /* \"#utility.yul\":15761:15813   */\n    tag_512:\n        /* \"#utility.yul\":15841:15850   */\n      dup2\n        /* \"#utility.yul\":15835:15851   */\n      mload\n        /* \"#utility.yul\":15860:15890   */\n      tag_396\n        /* \"#utility.yul\":15884:15889   */\n      dup2\n        /* \"#utility.yul\":15860:15890   */\n      tag_377\n      jump\t// in\n        /* \"#utility.yul\":15925:16486   */\n    tag_346:\n      sub(shl(0xa0, 0x01), 0x01)\n        /* \"#utility.yul\":16222:16237   */\n      dup7\n      dup2\n      and\n        /* \"#utility.yul\":16204:16238   */\n      dup3\n      mstore\n        /* \"#utility.yul\":16274:16289   */\n      dup6\n      and\n        /* \"#utility.yul\":16269:16271   */\n      0x20\n        /* \"#utility.yul\":16254:16272   */\n      dup3\n      add\n        /* \"#utility.yul\":16247:16290   */\n      mstore\n        /* \"#utility.yul\":16321:16323   */\n      0x40\n        /* \"#utility.yul\":16306:16324   */\n      dup2\n      add\n        /* \"#utility.yul\":16299:16333   */\n      dup5\n      swap1\n      mstore\n        /* \"#utility.yul\":16364:16366   */\n      0x60\n        /* \"#utility.yul\":16349:16367   */\n      dup2\n      add\n        /* \"#utility.yul\":16342:16376   */\n      dup4\n      swap1\n      mstore\n        /* \"#utility.yul\":16184:16187   */\n      0xa0\n        /* \"#utility.yul\":16407:16410   */\n      0x80\n        /* \"#utility.yul\":16392:16411   */\n      dup3\n      add\n        /* \"#utility.yul\":16385:16417   */\n      dup2\n      swap1\n      mstore\n        /* \"#utility.yul\":16147:16151   */\n      0x00\n      swap1\n        /* \"#utility.yul\":16434:16480   */\n      tag_515\n      swap1\n        /* \"#utility.yul\":16460:16479   */\n      dup4\n      add\n        /* \"#utility.yul\":16452:16458   */\n      dup5\n        /* \"#utility.yul\":16434:16480   */\n      tag_378\n      jump\t// in\n    tag_515:\n        /* \"#utility.yul\":16426:16480   */\n      swap8\n        /* \"#utility.yul\":15925:16486   */\n      swap7\n      pop\n      pop\n      pop\n      pop\n      pop\n      pop\n      pop\n      jump\t// out\n\n    auxdata: 0xa26469706673582212201fd4f312a9bfeceb58ca2b48a32cb037eb1d1731aaaa53856e92610f934768e964736f6c63430008130033\n}\n",
				"bytecode": {
					"linkReferences": {},
					"object": "608060405234801561001057600080fd5b50611b75806100206000396000f3fe608060405234801561001057600080fd5b50600436106100ce5760003560e01c8063a22cb4651161008c578063bd85b03911610066578063bd85b0391461020b578063e985e9c51461022b578063ee51d26a14610267578063f242432a1461027a57600080fd5b8063a22cb465146101a4578063a4949b18146101b7578063b56cf84f146101d857600080fd5b8062fdd58e146100d357806301ffc9a7146100f95780630e89341c1461011c5780632eb2c2d61461013c5780634e1273f4146101515780636e1c1cbb14610171575b600080fd5b6100e66100e136600461140f565b61028d565b6040519081526020015b60405180910390f35b61010c610107366004611452565b610324565b60405190151581526020016100f0565b61012f61012a366004611476565b610374565b6040516100f091906114d5565b61014f61014a36600461162e565b610408565b005b61016461015f3660046116d8565b61049d565b6040516100f091906117d3565b6100e661017f3660046117e6565b6001600160a01b03166000908152600460209081526040808320938352929052205490565b61014f6101b2366004611812565b6105c3565b6101ca6101c536600461184e565b6105d2565b6040516100f0929190611892565b6100e66101e63660046117e6565b6001600160a01b03166000908152600360209081526040808320938352929052205490565b6100e6610219366004611476565b60009081526001602052604090205490565b61010c6102393660046118c0565b6001600160a01b03918216600090815260026020908152604080832093909416825291909152205460ff1690565b6101ca61027536600461184e565b610691565b61014f6102883660046118ea565b610737565b60006001600160a01b0383166102fb5760405162461bcd60e51b815260206004820152602860248201527f4b495033373a2061646472657373207a65726f206973206e6f7420612076616c60448201526734b21037bbb732b960c11b60648201526084015b60405180910390fd5b506000818152602081815260408083206001600160a01b03861684529091529020545b92915050565b60006001600160e01b03198216636433ca1f60e01b148061035557506001600160e01b031982166303a24d0760e21b145b8061031e57506301ffc9a760e01b6001600160e01b031983161461031e565b6060600580546103839061194f565b80601f01602080910402602001604051908101604052809291908181526020018280546103af9061194f565b80156103fc5780601f106103d1576101008083540402835291602001916103fc565b820191906000526020600020905b8154815290600101906020018083116103df57829003601f168201915b50505050509050919050565b6001600160a01b03851633148061042457506104248533610239565b6104895760405162461bcd60e51b815260206004820152603060248201527f4b495033373a207472616e736665722063616c6c6572206973206e6f74206f7760448201526f1b995c881b9bdc88185c1c1c9bdd995960821b60648201526084016102f2565b61049685858585856107bc565b5050505050565b606081518351146104fe5760405162461bcd60e51b815260206004820152602560248201527f4b495033373a206f776e65727320616e6420696473206c656e677468206d69736044820152640dac2e8c6d60db1b60648201526084016102f2565b6000835167ffffffffffffffff81111561051a5761051a6114e8565b604051908082528060200260200182016040528015610543578160200160208202803683370190505b50905060005b84518110156105bb5761058e85828151811061056757610567611989565b602002602001015185838151811061058157610581611989565b602002602001015161028d565b8282815181106105a0576105a0611989565b60209081029190910101526105b4816119b5565b9050610549565b509392505050565b6105ce3383836109a5565b5050565b60608060608060005b600186516105e991906119ce565b811015610685576001600160a01b03871660009081526004602052604081208751829089908590811061061e5761061e611989565b602002602001015181526020019081526020016000205490506000811115610672576106638488848151811061065657610656611989565b6020026020010151610a83565b935061066f8382610a83565b92505b508061067d816119b5565b9150506105db565b50909590945092505050565b60608060608060005b600186516106a891906119ce565b811015610685576001600160a01b0387166000908152600360205260408120875182908990859081106106dd576106dd611989565b602002602001015181526020019081526020016000205490506000811115610724576107158488848151811061065657610656611989565b93506107218382610a83565b92505b508061072f816119b5565b91505061069a565b6001600160a01b03851633148061075357506107538533610239565b6107af5760405162461bcd60e51b815260206004820152602760248201527f4b495033373a2063616c6c6572206973206e6f74206f776e6572206e6f7220616044820152661c1c1c9bdd995960ca1b60648201526084016102f2565b6104968585858585610b55565b815183511461081c5760405162461bcd60e51b815260206004820152602660248201527f4b495033373a2069647320616e6420616d6f756e7473206c656e677468206d696044820152650e6dac2e8c6d60d31b60648201526084016102f2565b6001600160a01b0384166108425760405162461bcd60e51b81526004016102f2906119e1565b33610851818787878787610c8d565b60005b845181101561093757600085828151811061087157610871611989565b60200260200101519050600085838151811061088f5761088f611989565b602090810291909101810151600084815280835260408082206001600160a01b038e1683529093529190912054909150818110156108df5760405162461bcd60e51b81526004016102f290611a24565b6000838152602081815260408083206001600160a01b038e8116855292528083208585039055908b1682528120805484929061091c908490611a6c565b9250508190555050505080610930906119b5565b9050610854565b50846001600160a01b0316866001600160a01b0316826001600160a01b03167f4a39dc06d4c0dbc64b70af90fd698a233a518aa5d07e595d983b8c0526c8f7fb8787604051610987929190611892565b60405180910390a461099d818787878787610f94565b505050505050565b816001600160a01b0316836001600160a01b031603610a165760405162461bcd60e51b815260206004820152602760248201527f4b495033373a2073657474696e6720617070726f76616c20737461747573206660448201526637b91039b2b63360c91b60648201526084016102f2565b6001600160a01b03838116600081815260026020908152604080832094871680845294825291829020805460ff191686151590811790915591519182527f17307eab39ab6107e8899845ad3d59bd9653f200f220920489ca2b5937696c31910160405180910390a3505050565b6060600083516001610a959190611a6c565b67ffffffffffffffff811115610aad57610aad6114e8565b604051908082528060200260200182016040528015610ad6578160200160208202803683370190505b50905060005b8451811015610b2e57848181518110610af757610af7611989565b6020026020010151828281518110610b1157610b11611989565b602090810291909101015280610b26816119b5565b915050610adc565b508281855181518110610b4357610b43611989565b60209081029190910101529392505050565b6001600160a01b038416610b7b5760405162461bcd60e51b81526004016102f2906119e1565b336000610b8785611033565b90506000610b9485611033565b9050610ba4838989858589610c8d565b6000868152602081815260408083206001600160a01b038c16845290915290205485811015610be55760405162461bcd60e51b81526004016102f290611a24565b6000878152602081815260408083206001600160a01b038d8116855292528083208985039055908a16825281208054889290610c22908490611a6c565b909155505060408051888152602081018890526001600160a01b03808b16928c821692918816917fc3d58168c5ae7397731d063d5bbf3d657854427343f4c083240f7aacaa2d0f62910160405180910390a4610c82848a8a8a8a8a61107e565b505050505050505050565b60005b8351811015610e13576001600160a01b038616600090815260046020526040812085518290879085908110610cc757610cc7611989565b602002602001015181526020019081526020016000205460036000896001600160a01b03166001600160a01b031681526020019081526020016000206000878581518110610d1757610d17611989565b6020026020010151815260200190815260200160002054610d389190611a6c565b600080878581518110610d4d57610d4d611989565b602002602001015181526020019081526020016000206000896001600160a01b03166001600160a01b0316815260200190815260200160002054610d9191906119ce565b90506001600160a01b03871615801590610dc35750838281518110610db857610db8611989565b602002602001015181105b15610e025760405162461bcd60e51b815260206004820152600f60248201526e151bdad95b881a5cc81b1bd8dad959608a1b60448201526064016102f2565b50610e0c816119b5565b9050610c90565b506001600160a01b038516610e9b5760005b8351811015610e9957828181518110610e4057610e40611989565b602002602001015160016000868481518110610e5e57610e5e611989565b602002602001015181526020019081526020016000206000828254610e839190611a6c565b90915550610e929050816119b5565b9050610e25565b505b6001600160a01b03841661099d5760005b8351811015610f8b576000848281518110610ec957610ec9611989565b602002602001015190506000848381518110610ee757610ee7611989565b6020026020010151905060006001600084815260200190815260200160002054905081811015610f685760405162461bcd60e51b815260206004820152602660248201527f4b495033373a206275726e20616d6f756e74206578636565647320746f74616c604482015265537570706c7960d01b60648201526084016102f2565b60009283526001602052604090922091039055610f84816119b5565b9050610eac565b50505050505050565b610fa28686868686866110a0565b80610fb65750610fb6868686868686611198565b61099d5760405162461bcd60e51b815260206004820152604260248201527f4b495033373a207472616e7366657220746f206e6f6e20494b4950333752656360448201527f65697665722f4945524331313535526563656976657220696d706c656d656e7460648201526132b960f11b608482015260a4016102f2565b6040805160018082528183019092526060916000919060208083019080368337019050509050828160008151811061106d5761106d611989565b602090810291909101015292915050565b61108c868686868686611261565b80610fb65750610fb686868686868661132a565b60006001600160a01b0385163b1561118a57604051634da4f19960e11b81526001600160a01b03861690639b49e332906110e6908a908a90899089908990600401611a7f565b6020604051808303816000875af1925050508015611121575060408051601f3d908101601f1916820190925261111e91810190611add565b60015b611170573d80801561114f576040519150601f19603f3d011682016040523d82523d6000602084013e611154565b606091505b50805160000361116857600091505061118e565b805181602001fd5b6001600160e01b031916634da4f19960e11b14905061118e565b5060015b9695505050505050565b60006001600160a01b0385163b1561118a5760405163bc197c8160e01b81526001600160a01b0386169063bc197c81906111de908a908a90899089908990600401611a7f565b6020604051808303816000875af1925050508015611219575060408051601f3d908101601f1916820190925261121691810190611add565b60015b611247573d80801561114f576040519150601f19603f3d011682016040523d82523d6000602084013e611154565b6001600160e01b03191663bc197c8160e01b14905061118e565b60006001600160a01b0385163b1561118a5760405163e78b332560e01b81526001600160a01b0386169063e78b3325906112a7908a908a90899089908990600401611afa565b6020604051808303816000875af19250505080156112e2575060408051601f3d908101601f191682019092526112df91810190611add565b60015b611310573d80801561114f576040519150601f19603f3d011682016040523d82523d6000602084013e611154565b6001600160e01b03191663e78b332560e01b14905061118e565b60006001600160a01b0385163b1561118a5760405163f23a6e6160e01b81526001600160a01b0386169063f23a6e6190611370908a908a90899089908990600401611afa565b6020604051808303816000875af19250505080156113ab575060408051601f3d908101601f191682019092526113a891810190611add565b60015b6113d9573d80801561114f576040519150601f19603f3d011682016040523d82523d6000602084013e611154565b6001600160e01b03191663f23a6e6160e01b14905061118e565b80356001600160a01b038116811461140a57600080fd5b919050565b6000806040838503121561142257600080fd5b61142b836113f3565b946020939093013593505050565b6001600160e01b03198116811461144f57600080fd5b50565b60006020828403121561146457600080fd5b813561146f81611439565b9392505050565b60006020828403121561148857600080fd5b5035919050565b6000815180845260005b818110156114b557602081850181015186830182015201611499565b506000602082860101526020601f19601f83011685010191505092915050565b60208152600061146f602083018461148f565b634e487b7160e01b600052604160045260246000fd5b604051601f8201601f1916810167ffffffffffffffff81118282101715611527576115276114e8565b604052919050565b600067ffffffffffffffff821115611549576115496114e8565b5060051b60200190565b600082601f83011261156457600080fd5b813560206115796115748361152f565b6114fe565b82815260059290921b8401810191818101908684111561159857600080fd5b8286015b848110156115b3578035835291830191830161159c565b509695505050505050565b600082601f8301126115cf57600080fd5b813567ffffffffffffffff8111156115e9576115e96114e8565b6115fc601f8201601f19166020016114fe565b81815284602083860101111561161157600080fd5b816020850160208301376000918101602001919091529392505050565b600080600080600060a0868803121561164657600080fd5b61164f866113f3565b945061165d602087016113f3565b9350604086013567ffffffffffffffff8082111561167a57600080fd5b61168689838a01611553565b9450606088013591508082111561169c57600080fd5b6116a889838a01611553565b935060808801359150808211156116be57600080fd5b506116cb888289016115be565b9150509295509295909350565b600080604083850312156116eb57600080fd5b823567ffffffffffffffff8082111561170357600080fd5b818501915085601f83011261171757600080fd5b813560206117276115748361152f565b82815260059290921b8401810191818101908984111561174657600080fd5b948201945b8386101561176b5761175c866113f3565b8252948201949082019061174b565b9650508601359250508082111561178157600080fd5b5061178e85828601611553565b9150509250929050565b600081518084526020808501945080840160005b838110156117c8578151875295820195908201906001016117ac565b509495945050505050565b60208152600061146f6020830184611798565b600080604083850312156117f957600080fd5b82359150611809602084016113f3565b90509250929050565b6000806040838503121561182557600080fd5b61182e836113f3565b91506020830135801515811461184357600080fd5b809150509250929050565b6000806040838503121561186157600080fd5b61186a836113f3565b9150602083013567ffffffffffffffff81111561188657600080fd5b61178e85828601611553565b6040815260006118a56040830185611798565b82810360208401526118b78185611798565b95945050505050565b600080604083850312156118d357600080fd5b6118dc836113f3565b9150611809602084016113f3565b600080600080600060a0868803121561190257600080fd5b61190b866113f3565b9450611919602087016113f3565b93506040860135925060608601359150608086013567ffffffffffffffff81111561194357600080fd5b6116cb888289016115be565b600181811c9082168061196357607f821691505b60208210810361198357634e487b7160e01b600052602260045260246000fd5b50919050565b634e487b7160e01b600052603260045260246000fd5b634e487b7160e01b600052601160045260246000fd5b6000600182016119c7576119c761199f565b5060010190565b8181038181111561031e5761031e61199f565b60208082526023908201527f4b495033373a207472616e7366657220746f20746865207a65726f206164647260408201526265737360e81b606082015260800190565b60208082526028908201527f4b495033373a20696e73756666696369656e742062616c616e636520666f72206040820152673a3930b739b332b960c11b606082015260800190565b8082018082111561031e5761031e61199f565b6001600160a01b0386811682528516602082015260a060408201819052600090611aab90830186611798565b8281036060840152611abd8186611798565b90508281036080840152611ad1818561148f565b98975050505050505050565b600060208284031215611aef57600080fd5b815161146f81611439565b6001600160a01b03868116825285166020820152604081018490526060810183905260a060808201819052600090611b349083018461148f565b97965050505050505056fea26469706673582212201fd4f312a9bfeceb58ca2b48a32cb037eb1d1731aaaa53856e92610f934768e964736f6c63430008130033",
					"opcodes": "PUSH1 0x80 PUSH1 0x40 MSTORE CALLVALUE DUP1 ISZERO PUSH2 0x10 JUMPI PUSH1 0x0 DUP1 REVERT JUMPDEST POP PUSH2 0x1B75 DUP1 PUSH2 0x20 PUSH1 0x0 CODECOPY PUSH1 0x0 RETURN INVALID PUSH1 0x80 PUSH1 0x40 MSTORE CALLVALUE DUP1 ISZERO PUSH2 0x10 JUMPI PUSH1 0x0 DUP1 REVERT JUMPDEST POP PUSH1 0x4 CALLDATASIZE LT PUSH2 0xCE JUMPI PUSH1 0x0 CALLDATALOAD PUSH1 0xE0 SHR DUP1 PUSH4 0xA22CB465 GT PUSH2 0x8C JUMPI DUP1 PUSH4 0xBD85B039 GT PUSH2 0x66 JUMPI DUP1 PUSH4 0xBD85B039 EQ PUSH2 0x20B JUMPI DUP1 PUSH4 0xE985E9C5 EQ PUSH2 0x22B JUMPI DUP1 PUSH4 0xEE51D26A EQ PUSH2 0x267 JUMPI DUP1 PUSH4 0xF242432A EQ PUSH2 0x27A JUMPI PUSH1 0x0 DUP1 REVERT JUMPDEST DUP1 PUSH4 0xA22CB465 EQ PUSH2 0x1A4 JUMPI DUP1 PUSH4 0xA4949B18 EQ PUSH2 0x1B7 JUMPI DUP1 PUSH4 0xB56CF84F EQ PUSH2 0x1D8 JUMPI PUSH1 0x0 DUP1 REVERT JUMPDEST DUP1 PUSH3 0xFDD58E EQ PUSH2 0xD3 JUMPI DUP1 PUSH4 0x1FFC9A7 EQ PUSH2 0xF9 JUMPI DUP1 PUSH4 0xE89341C EQ PUSH2 0x11C JUMPI DUP1 PUSH4 0x2EB2C2D6 EQ PUSH2 0x13C JUMPI DUP1 PUSH4 0x4E1273F4 EQ PUSH2 0x151 JUMPI DUP1 PUSH4 0x6E1C1CBB EQ PUSH2 0x171 JUMPI JUMPDEST PUSH1 0x0 DUP1 REVERT JUMPDEST PUSH2 0xE6 PUSH2 0xE1 CALLDATASIZE PUSH1 0x4 PUSH2 0x140F JUMP JUMPDEST PUSH2 0x28D JUMP JUMPDEST PUSH1 0x40 MLOAD SWAP1 DUP2 MSTORE PUSH1 0x20 ADD JUMPDEST PUSH1 0x40 MLOAD DUP1 SWAP2 SUB SWAP1 RETURN JUMPDEST PUSH2 0x10C PUSH2 0x107 CALLDATASIZE PUSH1 0x4 PUSH2 0x1452 JUMP JUMPDEST PUSH2 0x324 JUMP JUMPDEST PUSH1 0x40 MLOAD SWAP1 ISZERO ISZERO DUP2 MSTORE PUSH1 0x20 ADD PUSH2 0xF0 JUMP JUMPDEST PUSH2 0x12F PUSH2 0x12A CALLDATASIZE PUSH1 0x4 PUSH2 0x1476 JUMP JUMPDEST PUSH2 0x374 JUMP JUMPDEST PUSH1 0x40 MLOAD PUSH2 0xF0 SWAP2 SWAP1 PUSH2 0x14D5 JUMP JUMPDEST PUSH2 0x14F PUSH2 0x14A CALLDATASIZE PUSH1 0x4 PUSH2 0x162E JUMP JUMPDEST PUSH2 0x408 JUMP JUMPDEST STOP JUMPDEST PUSH2 0x164 PUSH2 0x15F CALLDATASIZE PUSH1 0x4 PUSH2 0x16D8 JUMP JUMPDEST PUSH2 0x49D JUMP JUMPDEST PUSH1 0x40 MLOAD PUSH2 0xF0 SWAP2 SWAP1 PUSH2 0x17D3 JUMP JUMPDEST PUSH2 0xE6 PUSH2 0x17F CALLDATASIZE PUSH1 0x4 PUSH2 0x17E6 JUMP JUMPDEST PUSH1 0x1 PUSH1 0x1 PUSH1 0xA0 SHL SUB AND PUSH1 0x0 SWAP1 DUP2 MSTORE PUSH1 0x4 PUSH1 0x20 SWAP1 DUP2 MSTORE PUSH1 0x40 DUP1 DUP4 KECCAK256 SWAP4 DUP4 MSTORE SWAP3 SWAP1 MSTORE KECCAK256 SLOAD SWAP1 JUMP JUMPDEST PUSH2 0x14F PUSH2 0x1B2 CALLDATASIZE PUSH1 0x4 PUSH2 0x1812 JUMP JUMPDEST PUSH2 0x5C3 JUMP JUMPDEST PUSH2 0x1CA PUSH2 0x1C5 CALLDATASIZE PUSH1 0x4 PUSH2 0x184E JUMP JUMPDEST PUSH2 0x5D2 JUMP JUMPDEST PUSH1 0x40 MLOAD PUSH2 0xF0 SWAP3 SWAP2 SWAP1 PUSH2 0x1892 JUMP JUMPDEST PUSH2 0xE6 PUSH2 0x1E6 CALLDATASIZE PUSH1 0x4 PUSH2 0x17E6 JUMP JUMPDEST PUSH1 0x1 PUSH1 0x1 PUSH1 0xA0 SHL SUB AND PUSH1 0x0 SWAP1 DUP2 MSTORE PUSH1 0x3 PUSH1 0x20 SWAP1 DUP2 MSTORE PUSH1 0x40 DUP1 DUP4 KECCAK256 SWAP4 DUP4 MSTORE SWAP3 SWAP1 MSTORE KECCAK256 SLOAD SWAP1 JUMP JUMPDEST PUSH2 0xE6 PUSH2 0x219 CALLDATASIZE PUSH1 0x4 PUSH2 0x1476 JUMP JUMPDEST PUSH1 0x0 SWAP1 DUP2 MSTORE PUSH1 0x1 PUSH1 0x20 MSTORE PUSH1 0x40 SWAP1 KECCAK256 SLOAD SWAP1 JUMP JUMPDEST PUSH2 0x10C PUSH2 0x239 CALLDATASIZE PUSH1 0x4 PUSH2 0x18C0 JUMP JUMPDEST PUSH1 0x1 PUSH1 0x1 PUSH1 0xA0 SHL SUB SWAP2 DUP3 AND PUSH1 0x0 SWAP1 DUP2 MSTORE PUSH1 0x2 PUSH1 0x20 SWAP1 DUP2 MSTORE PUSH1 0x40 DUP1 DUP4 KECCAK256 SWAP4 SWAP1 SWAP5 AND DUP3 MSTORE SWAP2 SWAP1 SWAP2 MSTORE KECCAK256 SLOAD PUSH1 0xFF AND SWAP1 JUMP JUMPDEST PUSH2 0x1CA PUSH2 0x275 CALLDATASIZE PUSH1 0x4 PUSH2 0x184E JUMP JUMPDEST PUSH2 0x691 JUMP JUMPDEST PUSH2 0x14F PUSH2 0x288 CALLDATASIZE PUSH1 0x4 PUSH2 0x18EA JUMP JUMPDEST PUSH2 0x737 JUMP JUMPDEST PUSH1 0x0 PUSH1 0x1 PUSH1 0x1 PUSH1 0xA0 SHL SUB DUP4 AND PUSH2 0x2FB JUMPI PUSH1 0x40 MLOAD PUSH3 0x461BCD PUSH1 0xE5 SHL DUP2 MSTORE PUSH1 0x20 PUSH1 0x4 DUP3 ADD MSTORE PUSH1 0x28 PUSH1 0x24 DUP3 ADD MSTORE PUSH32 0x4B495033373A2061646472657373207A65726F206973206E6F7420612076616C PUSH1 0x44 DUP3 ADD MSTORE PUSH8 0x34B21037BBB732B9 PUSH1 0xC1 SHL PUSH1 0x64 DUP3 ADD MSTORE PUSH1 0x84 ADD JUMPDEST PUSH1 0x40 MLOAD DUP1 SWAP2 SUB SWAP1 REVERT JUMPDEST POP PUSH1 0x0 DUP2 DUP2 MSTORE PUSH1 0x20 DUP2 DUP2 MSTORE PUSH1 0x40 DUP1 DUP4 KECCAK256 PUSH1 0x1 PUSH1 0x1 PUSH1 0xA0 SHL SUB DUP7 AND DUP5 MSTORE SWAP1 SWAP2 MSTORE SWAP1 KECCAK256 SLOAD JUMPDEST SWAP3 SWAP2 POP POP JUMP JUMPDEST PUSH1 0x0 PUSH1 0x1 PUSH1 0x1 PUSH1 0xE0 SHL SUB NOT DUP3 AND PUSH4 0x6433CA1F PUSH1 0xE0 SHL EQ DUP1 PUSH2 0x355 JUMPI POP PUSH1 0x1 PUSH1 0x1 PUSH1 0xE0 SHL SUB NOT DUP3 AND PUSH4 0x3A24D07 PUSH1 0xE2 SHL EQ JUMPDEST DUP1 PUSH2 0x31E JUMPI POP PUSH4 0x1FFC9A7 PUSH1 0xE0 SHL PUSH1 0x1 PUSH1 0x1 PUSH1 0xE0 SHL SUB NOT DUP4 AND EQ PUSH2 0x31E JUMP JUMPDEST PUSH1 0x60 PUSH1 0x5 DUP1 SLOAD PUSH2 0x383 SWAP1 PUSH2 0x194F JUMP JUMPDEST DUP1 PUSH1 0x1F ADD PUSH1 0x20 DUP1 SWAP2 DIV MUL PUSH1 0x20 ADD PUSH1 0x40 MLOAD SWAP1 DUP2 ADD PUSH1 0x40 MSTORE DUP1 SWAP3 SWAP2 SWAP1 DUP2 DUP2 MSTORE PUSH1 0x20 ADD DUP3 DUP1 SLOAD PUSH2 0x3AF SWAP1 PUSH2 0x194F JUMP JUMPDEST DUP1 ISZERO PUSH2 0x3FC JUMPI DUP1 PUSH1 0x1F LT PUSH2 0x3D1 JUMPI PUSH2 0x100 DUP1 DUP4 SLOAD DIV MUL DUP4 MSTORE SWAP2 PUSH1 0x20 ADD SWAP2 PUSH2 0x3FC JUMP JUMPDEST DUP3 ADD SWAP2 SWAP1 PUSH1 0x0 MSTORE PUSH1 0x20 PUSH1 0x0 KECCAK256 SWAP1 JUMPDEST DUP2 SLOAD DUP2 MSTORE SWAP1 PUSH1 0x1 ADD SWAP1 PUSH1 0x20 ADD DUP1 DUP4 GT PUSH2 0x3DF JUMPI DUP3 SWAP1 SUB PUSH1 0x1F AND DUP3 ADD SWAP2 JUMPDEST POP POP POP POP POP SWAP1 POP SWAP2 SWAP1 POP JUMP JUMPDEST PUSH1 0x1 PUSH1 0x1 PUSH1 0xA0 SHL SUB DUP6 AND CALLER EQ DUP1 PUSH2 0x424 JUMPI POP PUSH2 0x424 DUP6 CALLER PUSH2 0x239 JUMP JUMPDEST PUSH2 0x489 JUMPI PUSH1 0x40 MLOAD PUSH3 0x461BCD PUSH1 0xE5 SHL DUP2 MSTORE PUSH1 0x20 PUSH1 0x4 DUP3 ADD MSTORE PUSH1 0x30 PUSH1 0x24 DUP3 ADD MSTORE PUSH32 0x4B495033373A207472616E736665722063616C6C6572206973206E6F74206F77 PUSH1 0x44 DUP3 ADD MSTORE PUSH16 0x1B995C881B9BDC88185C1C1C9BDD9959 PUSH1 0x82 SHL PUSH1 0x64 DUP3 ADD MSTORE PUSH1 0x84 ADD PUSH2 0x2F2 JUMP JUMPDEST PUSH2 0x496 DUP6 DUP6 DUP6 DUP6 DUP6 PUSH2 0x7BC JUMP JUMPDEST POP POP POP POP POP JUMP JUMPDEST PUSH1 0x60 DUP2 MLOAD DUP4 MLOAD EQ PUSH2 0x4FE JUMPI PUSH1 0x40 MLOAD PUSH3 0x461BCD PUSH1 0xE5 SHL DUP2 MSTORE PUSH1 0x20 PUSH1 0x4 DUP3 ADD MSTORE PUSH1 0x25 PUSH1 0x24 DUP3 ADD MSTORE PUSH32 0x4B495033373A206F776E65727320616E6420696473206C656E677468206D6973 PUSH1 0x44 DUP3 ADD MSTORE PUSH5 0xDAC2E8C6D PUSH1 0xDB SHL PUSH1 0x64 DUP3 ADD MSTORE PUSH1 0x84 ADD PUSH2 0x2F2 JUMP JUMPDEST PUSH1 0x0 DUP4 MLOAD PUSH8 0xFFFFFFFFFFFFFFFF DUP2 GT ISZERO PUSH2 0x51A JUMPI PUSH2 0x51A PUSH2 0x14E8 JUMP JUMPDEST PUSH1 0x40 MLOAD SWAP1 DUP1 DUP3 MSTORE DUP1 PUSH1 0x20 MUL PUSH1 0x20 ADD DUP3 ADD PUSH1 0x40 MSTORE DUP1 ISZERO PUSH2 0x543 JUMPI DUP2 PUSH1 0x20 ADD PUSH1 0x20 DUP3 MUL DUP1 CALLDATASIZE DUP4 CALLDATACOPY ADD SWAP1 POP JUMPDEST POP SWAP1 POP PUSH1 0x0 JUMPDEST DUP5 MLOAD DUP2 LT ISZERO PUSH2 0x5BB JUMPI PUSH2 0x58E DUP6 DUP3 DUP2 MLOAD DUP2 LT PUSH2 0x567 JUMPI PUSH2 0x567 PUSH2 0x1989 JUMP JUMPDEST PUSH1 0x20 MUL PUSH1 0x20 ADD ADD MLOAD DUP6 DUP4 DUP2 MLOAD DUP2 LT PUSH2 0x581 JUMPI PUSH2 0x581 PUSH2 0x1989 JUMP JUMPDEST PUSH1 0x20 MUL PUSH1 0x20 ADD ADD MLOAD PUSH2 0x28D JUMP JUMPDEST DUP3 DUP3 DUP2 MLOAD DUP2 LT PUSH2 0x5A0 JUMPI PUSH2 0x5A0 PUSH2 0x1989 JUMP JUMPDEST PUSH1 0x20 SWAP1 DUP2 MUL SWAP2 SWAP1 SWAP2 ADD ADD MSTORE PUSH2 0x5B4 DUP2 PUSH2 0x19B5 JUMP JUMPDEST SWAP1 POP PUSH2 0x549 JUMP JUMPDEST POP SWAP4 SWAP3 POP POP POP JUMP JUMPDEST PUSH2 0x5CE CALLER DUP4 DUP4 PUSH2 0x9A5 JUMP JUMPDEST POP POP JUMP JUMPDEST PUSH1 0x60 DUP1 PUSH1 0x60 DUP1 PUSH1 0x0 JUMPDEST PUSH1 0x1 DUP7 MLOAD PUSH2 0x5E9 SWAP2 SWAP1 PUSH2 0x19CE JUMP JUMPDEST DUP2 LT ISZERO PUSH2 0x685 JUMPI PUSH1 0x1 PUSH1 0x1 PUSH1 0xA0 SHL SUB DUP8 AND PUSH1 0x0 SWAP1 DUP2 MSTORE PUSH1 0x4 PUSH1 0x20 MSTORE PUSH1 0x40 DUP2 KECCAK256 DUP8 MLOAD DUP3 SWAP1 DUP10 SWAP1 DUP6 SWAP1 DUP2 LT PUSH2 0x61E JUMPI PUSH2 0x61E PUSH2 0x1989 JUMP JUMPDEST PUSH1 0x20 MUL PUSH1 0x20 ADD ADD MLOAD DUP2 MSTORE PUSH1 0x20 ADD SWAP1 DUP2 MSTORE PUSH1 0x20 ADD PUSH1 0x0 KECCAK256 SLOAD SWAP1 POP PUSH1 0x0 DUP2 GT ISZERO PUSH2 0x672 JUMPI PUSH2 0x663 DUP5 DUP9 DUP5 DUP2 MLOAD DUP2 LT PUSH2 0x656 JUMPI PUSH2 0x656 PUSH2 0x1989 JUMP JUMPDEST PUSH1 0x20 MUL PUSH1 0x20 ADD ADD MLOAD PUSH2 0xA83 JUMP JUMPDEST SWAP4 POP PUSH2 0x66F DUP4 DUP3 PUSH2 0xA83 JUMP JUMPDEST SWAP3 POP JUMPDEST POP DUP1 PUSH2 0x67D DUP2 PUSH2 0x19B5 JUMP JUMPDEST SWAP2 POP POP PUSH2 0x5DB JUMP JUMPDEST POP SWAP1 SWAP6 SWAP1 SWAP5 POP SWAP3 POP POP POP JUMP JUMPDEST PUSH1 0x60 DUP1 PUSH1 0x60 DUP1 PUSH1 0x0 JUMPDEST PUSH1 0x1 DUP7 MLOAD PUSH2 0x6A8 SWAP2 SWAP1 PUSH2 0x19CE JUMP JUMPDEST DUP2 LT ISZERO PUSH2 0x685 JUMPI PUSH1 0x1 PUSH1 0x1 PUSH1 0xA0 SHL SUB DUP8 AND PUSH1 0x0 SWAP1 DUP2 MSTORE PUSH1 0x3 PUSH1 0x20 MSTORE PUSH1 0x40 DUP2 KECCAK256 DUP8 MLOAD DUP3 SWAP1 DUP10 SWAP1 DUP6 SWAP1 DUP2 LT PUSH2 0x6DD JUMPI PUSH2 0x6DD PUSH2 0x1989 JUMP JUMPDEST PUSH1 0x20 MUL PUSH1 0x20 ADD ADD MLOAD DUP2 MSTORE PUSH1 0x20 ADD SWAP1 DUP2 MSTORE PUSH1 0x20 ADD PUSH1 0x0 KECCAK256 SLOAD SWAP1 POP PUSH1 0x0 DUP2 GT ISZERO PUSH2 0x724 JUMPI PUSH2 0x715 DUP5 DUP9 DUP5 DUP2 MLOAD DUP2 LT PUSH2 0x656 JUMPI PUSH2 0x656 PUSH2 0x1989 JUMP JUMPDEST SWAP4 POP PUSH2 0x721 DUP4 DUP3 PUSH2 0xA83 JUMP JUMPDEST SWAP3 POP JUMPDEST POP DUP1 PUSH2 0x72F DUP2 PUSH2 0x19B5 JUMP JUMPDEST SWAP2 POP POP PUSH2 0x69A JUMP JUMPDEST PUSH1 0x1 PUSH1 0x1 PUSH1 0xA0 SHL SUB DUP6 AND CALLER EQ DUP1 PUSH2 0x753 JUMPI POP PUSH2 0x753 DUP6 CALLER PUSH2 0x239 JUMP JUMPDEST PUSH2 0x7AF JUMPI PUSH1 0x40 MLOAD PUSH3 0x461BCD PUSH1 0xE5 SHL DUP2 MSTORE PUSH1 0x20 PUSH1 0x4 DUP3 ADD MSTORE PUSH1 0x27 PUSH1 0x24 DUP3 ADD MSTORE PUSH32 0x4B495033373A2063616C6C6572206973206E6F74206F776E6572206E6F722061 PUSH1 0x44 DUP3 ADD MSTORE PUSH7 0x1C1C1C9BDD9959 PUSH1 0xCA SHL PUSH1 0x64 DUP3 ADD MSTORE PUSH1 0x84 ADD PUSH2 0x2F2 JUMP JUMPDEST PUSH2 0x496 DUP6 DUP6 DUP6 DUP6 DUP6 PUSH2 0xB55 JUMP JUMPDEST DUP2 MLOAD DUP4 MLOAD EQ PUSH2 0x81C JUMPI PUSH1 0x40 MLOAD PUSH3 0x461BCD PUSH1 0xE5 SHL DUP2 MSTORE PUSH1 0x20 PUSH1 0x4 DUP3 ADD MSTORE PUSH1 0x26 PUSH1 0x24 DUP3 ADD MSTORE PUSH32 0x4B495033373A2069647320616E6420616D6F756E7473206C656E677468206D69 PUSH1 0x44 DUP3 ADD MSTORE PUSH6 0xE6DAC2E8C6D PUSH1 0xD3 SHL PUSH1 0x64 DUP3 ADD MSTORE PUSH1 0x84 ADD PUSH2 0x2F2 JUMP JUMPDEST PUSH1 0x1 PUSH1 0x1 PUSH1 0xA0 SHL SUB DUP5 AND PUSH2 0x842 JUMPI PUSH1 0x40 MLOAD PUSH3 0x461BCD PUSH1 0xE5 SHL DUP2 MSTORE PUSH1 0x4 ADD PUSH2 0x2F2 SWAP1 PUSH2 0x19E1 JUMP JUMPDEST CALLER PUSH2 0x851 DUP2 DUP8 DUP8 DUP8 DUP8 DUP8 PUSH2 0xC8D JUMP JUMPDEST PUSH1 0x0 JUMPDEST DUP5 MLOAD DUP2 LT ISZERO PUSH2 0x937 JUMPI PUSH1 0x0 DUP6 DUP3 DUP2 MLOAD DUP2 LT PUSH2 0x871 JUMPI PUSH2 0x871 PUSH2 0x1989 JUMP JUMPDEST PUSH1 0x20 MUL PUSH1 0x20 ADD ADD MLOAD SWAP1 POP PUSH1 0x0 DUP6 DUP4 DUP2 MLOAD DUP2 LT PUSH2 0x88F JUMPI PUSH2 0x88F PUSH2 0x1989 JUMP JUMPDEST PUSH1 0x20 SWAP1 DUP2 MUL SWAP2 SWAP1 SWAP2 ADD DUP2 ADD MLOAD PUSH1 0x0 DUP5 DUP2 MSTORE DUP1 DUP4 MSTORE PUSH1 0x40 DUP1 DUP3 KECCAK256 PUSH1 0x1 PUSH1 0x1 PUSH1 0xA0 SHL SUB DUP15 AND DUP4 MSTORE SWAP1 SWAP4 MSTORE SWAP2 SWAP1 SWAP2 KECCAK256 SLOAD SWAP1 SWAP2 POP DUP2 DUP2 LT ISZERO PUSH2 0x8DF JUMPI PUSH1 0x40 MLOAD PUSH3 0x461BCD PUSH1 0xE5 SHL DUP2 MSTORE PUSH1 0x4 ADD PUSH2 0x2F2 SWAP1 PUSH2 0x1A24 JUMP JUMPDEST PUSH1 0x0 DUP4 DUP2 MSTORE PUSH1 0x20 DUP2 DUP2 MSTORE PUSH1 0x40 DUP1 DUP4 KECCAK256 PUSH1 0x1 PUSH1 0x1 PUSH1 0xA0 SHL SUB DUP15 DUP2 AND DUP6 MSTORE SWAP3 MSTORE DUP1 DUP4 KECCAK256 DUP6 DUP6 SUB SWAP1 SSTORE SWAP1 DUP12 AND DUP3 MSTORE DUP2 KECCAK256 DUP1 SLOAD DUP5 SWAP3 SWAP1 PUSH2 0x91C SWAP1 DUP5 SWAP1 PUSH2 0x1A6C JUMP JUMPDEST SWAP3 POP POP DUP2 SWAP1 SSTORE POP POP POP POP DUP1 PUSH2 0x930 SWAP1 PUSH2 0x19B5 JUMP JUMPDEST SWAP1 POP PUSH2 0x854 JUMP JUMPDEST POP DUP5 PUSH1 0x1 PUSH1 0x1 PUSH1 0xA0 SHL SUB AND DUP7 PUSH1 0x1 PUSH1 0x1 PUSH1 0xA0 SHL SUB AND DUP3 PUSH1 0x1 PUSH1 0x1 PUSH1 0xA0 SHL SUB AND PUSH32 0x4A39DC06D4C0DBC64B70AF90FD698A233A518AA5D07E595D983B8C0526C8F7FB DUP8 DUP8 PUSH1 0x40 MLOAD PUSH2 0x987 SWAP3 SWAP2 SWAP1 PUSH2 0x1892 JUMP JUMPDEST PUSH1 0x40 MLOAD DUP1 SWAP2 SUB SWAP1 LOG4 PUSH2 0x99D DUP2 DUP8 DUP8 DUP8 DUP8 DUP8 PUSH2 0xF94 JUMP JUMPDEST POP POP POP POP POP POP JUMP JUMPDEST DUP2 PUSH1 0x1 PUSH1 0x1 PUSH1 0xA0 SHL SUB AND DUP4 PUSH1 0x1 PUSH1 0x1 PUSH1 0xA0 SHL SUB AND SUB PUSH2 0xA16 JUMPI PUSH1 0x40 MLOAD PUSH3 0x461BCD PUSH1 0xE5 SHL DUP2 MSTORE PUSH1 0x20 PUSH1 0x4 DUP3 ADD MSTORE PUSH1 0x27 PUSH1 0x24 DUP3 ADD MSTORE PUSH32 0x4B495033373A2073657474696E6720617070726F76616C207374617475732066 PUSH1 0x44 DUP3 ADD MSTORE PUSH7 0x37B91039B2B633 PUSH1 0xC9 SHL PUSH1 0x64 DUP3 ADD MSTORE PUSH1 0x84 ADD PUSH2 0x2F2 JUMP JUMPDEST PUSH1 0x1 PUSH1 0x1 PUSH1 0xA0 SHL SUB DUP4 DUP2 AND PUSH1 0x0 DUP2 DUP2 MSTORE PUSH1 0x2 PUSH1 0x20 SWAP1 DUP2 MSTORE PUSH1 0x40 DUP1 DUP4 KECCAK256 SWAP5 DUP8 AND DUP1 DUP5 MSTORE SWAP5 DUP3 MSTORE SWAP2 DUP3 SWAP1 KECCAK256 DUP1 SLOAD PUSH1 0xFF NOT AND DUP7 ISZERO ISZERO SWAP1 DUP2 OR SWAP1 SWAP2 SSTORE SWAP2 MLOAD SWAP2 DUP3 MSTORE PUSH32 0x17307EAB39AB6107E8899845AD3D59BD9653F200F220920489CA2B5937696C31 SWAP2 ADD PUSH1 0x40 MLOAD DUP1 SWAP2 SUB SWAP1 LOG3 POP POP POP JUMP JUMPDEST PUSH1 0x60 PUSH1 0x0 DUP4 MLOAD PUSH1 0x1 PUSH2 0xA95 SWAP2 SWAP1 PUSH2 0x1A6C JUMP JUMPDEST PUSH8 0xFFFFFFFFFFFFFFFF DUP2 GT ISZERO PUSH2 0xAAD JUMPI PUSH2 0xAAD PUSH2 0x14E8 JUMP JUMPDEST PUSH1 0x40 MLOAD SWAP1 DUP1 DUP3 MSTORE DUP1 PUSH1 0x20 MUL PUSH1 0x20 ADD DUP3 ADD PUSH1 0x40 MSTORE DUP1 ISZERO PUSH2 0xAD6 JUMPI DUP2 PUSH1 0x20 ADD PUSH1 0x20 DUP3 MUL DUP1 CALLDATASIZE DUP4 CALLDATACOPY ADD SWAP1 POP JUMPDEST POP SWAP1 POP PUSH1 0x0 JUMPDEST DUP5 MLOAD DUP2 LT ISZERO PUSH2 0xB2E JUMPI DUP5 DUP2 DUP2 MLOAD DUP2 LT PUSH2 0xAF7 JUMPI PUSH2 0xAF7 PUSH2 0x1989 JUMP JUMPDEST PUSH1 0x20 MUL PUSH1 0x20 ADD ADD MLOAD DUP3 DUP3 DUP2 MLOAD DUP2 LT PUSH2 0xB11 JUMPI PUSH2 0xB11 PUSH2 0x1989 JUMP JUMPDEST PUSH1 0x20 SWAP1 DUP2 MUL SWAP2 SWAP1 SWAP2 ADD ADD MSTORE DUP1 PUSH2 0xB26 DUP2 PUSH2 0x19B5 JUMP JUMPDEST SWAP2 POP POP PUSH2 0xADC JUMP JUMPDEST POP DUP3 DUP2 DUP6 MLOAD DUP2 MLOAD DUP2 LT PUSH2 0xB43 JUMPI PUSH2 0xB43 PUSH2 0x1989 JUMP JUMPDEST PUSH1 0x20 SWAP1 DUP2 MUL SWAP2 SWAP1 SWAP2 ADD ADD MSTORE SWAP4 SWAP3 POP POP POP JUMP JUMPDEST PUSH1 0x1 PUSH1 0x1 PUSH1 0xA0 SHL SUB DUP5 AND PUSH2 0xB7B JUMPI PUSH1 0x40 MLOAD PUSH3 0x461BCD PUSH1 0xE5 SHL DUP2 MSTORE PUSH1 0x4 ADD PUSH2 0x2F2 SWAP1 PUSH2 0x19E1 JUMP JUMPDEST CALLER PUSH1 0x0 PUSH2 0xB87 DUP6 PUSH2 0x1033 JUMP JUMPDEST SWAP1 POP PUSH1 0x0 PUSH2 0xB94 DUP6 PUSH2 0x1033 JUMP JUMPDEST SWAP1 POP PUSH2 0xBA4 DUP4 DUP10 DUP10 DUP6 DUP6 DUP10 PUSH2 0xC8D JUMP JUMPDEST PUSH1 0x0 DUP7 DUP2 MSTORE PUSH1 0x20 DUP2 DUP2 MSTORE PUSH1 0x40 DUP1 DUP4 KECCAK256 PUSH1 0x1 PUSH1 0x1 PUSH1 0xA0 SHL SUB DUP13 AND DUP5 MSTORE SWAP1 SWAP2 MSTORE SWAP1 KECCAK256 SLOAD DUP6 DUP2 LT ISZERO PUSH2 0xBE5 JUMPI PUSH1 0x40 MLOAD PUSH3 0x461BCD PUSH1 0xE5 SHL DUP2 MSTORE PUSH1 0x4 ADD PUSH2 0x2F2 SWAP1 PUSH2 0x1A24 JUMP JUMPDEST PUSH1 0x0 DUP8 DUP2 MSTORE PUSH1 0x20 DUP2 DUP2 MSTORE PUSH1 0x40 DUP1 DUP4 KECCAK256 PUSH1 0x1 PUSH1 0x1 PUSH1 0xA0 SHL SUB DUP14 DUP2 AND DUP6 MSTORE SWAP3 MSTORE DUP1 DUP4 KECCAK256 DUP10 DUP6 SUB SWAP1 SSTORE SWAP1 DUP11 AND DUP3 MSTORE DUP2 KECCAK256 DUP1 SLOAD DUP9 SWAP3 SWAP1 PUSH2 0xC22 SWAP1 DUP5 SWAP1 PUSH2 0x1A6C JUMP JUMPDEST SWAP1 SWAP2 SSTORE POP POP PUSH1 0x40 DUP1 MLOAD DUP9 DUP2 MSTORE PUSH1 0x20 DUP2 ADD DUP9 SWAP1 MSTORE PUSH1 0x1 PUSH1 0x1 PUSH1 0xA0 SHL SUB DUP1 DUP12 AND SWAP3 DUP13 DUP3 AND SWAP3 SWAP2 DUP9 AND SWAP2 PUSH32 0xC3D58168C5AE7397731D063D5BBF3D657854427343F4C083240F7AACAA2D0F62 SWAP2 ADD PUSH1 0x40 MLOAD DUP1 SWAP2 SUB SWAP1 LOG4 PUSH2 0xC82 DUP5 DUP11 DUP11 DUP11 DUP11 DUP11 PUSH2 0x107E JUMP JUMPDEST POP POP POP POP POP POP POP POP POP JUMP JUMPDEST PUSH1 0x0 JUMPDEST DUP4 MLOAD DUP2 LT ISZERO PUSH2 0xE13 JUMPI PUSH1 0x1 PUSH1 0x1 PUSH1 0xA0 SHL SUB DUP7 AND PUSH1 0x0 SWAP1 DUP2 MSTORE PUSH1 0x4 PUSH1 0x20 MSTORE PUSH1 0x40 DUP2 KECCAK256 DUP6 MLOAD DUP3 SWAP1 DUP8 SWAP1 DUP6 SWAP1 DUP2 LT PUSH2 0xCC7 JUMPI PUSH2 0xCC7 PUSH2 0x1989 JUMP JUMPDEST PUSH1 0x20 MUL PUSH1 0x20 ADD ADD MLOAD DUP2 MSTORE PUSH1 0x20 ADD SWAP1 DUP2 MSTORE PUSH1 0x20 ADD PUSH1 0x0 KECCAK256 SLOAD PUSH1 0x3 PUSH1 0x0 DUP10 PUSH1 0x1 PUSH1 0x1 PUSH1 0xA0 SHL SUB AND PUSH1 0x1 PUSH1 0x1 PUSH1 0xA0 SHL SUB AND DUP2 MSTORE PUSH1 0x20 ADD SWAP1 DUP2 MSTORE PUSH1 0x20 ADD PUSH1 0x0 KECCAK256 PUSH1 0x0 DUP8 DUP6 DUP2 MLOAD DUP2 LT PUSH2 0xD17 JUMPI PUSH2 0xD17 PUSH2 0x1989 JUMP JUMPDEST PUSH1 0x20 MUL PUSH1 0x20 ADD ADD MLOAD DUP2 MSTORE PUSH1 0x20 ADD SWAP1 DUP2 MSTORE PUSH1 0x20 ADD PUSH1 0x0 KECCAK256 SLOAD PUSH2 0xD38 SWAP2 SWAP1 PUSH2 0x1A6C JUMP JUMPDEST PUSH1 0x0 DUP1 DUP8 DUP6 DUP2 MLOAD DUP2 LT PUSH2 0xD4D JUMPI PUSH2 0xD4D PUSH2 0x1989 JUMP JUMPDEST PUSH1 0x20 MUL PUSH1 0x20 ADD ADD MLOAD DUP2 MSTORE PUSH1 0x20 ADD SWAP1 DUP2 MSTORE PUSH1 0x20 ADD PUSH1 0x0 KECCAK256 PUSH1 0x0 DUP10 PUSH1 0x1 PUSH1 0x1 PUSH1 0xA0 SHL SUB AND PUSH1 0x1 PUSH1 0x1 PUSH1 0xA0 SHL SUB AND DUP2 MSTORE PUSH1 0x20 ADD SWAP1 DUP2 MSTORE PUSH1 0x20 ADD PUSH1 0x0 KECCAK256 SLOAD PUSH2 0xD91 SWAP2 SWAP1 PUSH2 0x19CE JUMP JUMPDEST SWAP1 POP PUSH1 0x1 PUSH1 0x1 PUSH1 0xA0 SHL SUB DUP8 AND ISZERO DUP1 ISZERO SWAP1 PUSH2 0xDC3 JUMPI POP DUP4 DUP3 DUP2 MLOAD DUP2 LT PUSH2 0xDB8 JUMPI PUSH2 0xDB8 PUSH2 0x1989 JUMP JUMPDEST PUSH1 0x20 MUL PUSH1 0x20 ADD ADD MLOAD DUP2 LT JUMPDEST ISZERO PUSH2 0xE02 JUMPI PUSH1 0x40 MLOAD PUSH3 0x461BCD PUSH1 0xE5 SHL DUP2 MSTORE PUSH1 0x20 PUSH1 0x4 DUP3 ADD MSTORE PUSH1 0xF PUSH1 0x24 DUP3 ADD MSTORE PUSH15 0x151BDAD95B881A5CC81B1BD8DAD959 PUSH1 0x8A SHL PUSH1 0x44 DUP3 ADD MSTORE PUSH1 0x64 ADD PUSH2 0x2F2 JUMP JUMPDEST POP PUSH2 0xE0C DUP2 PUSH2 0x19B5 JUMP JUMPDEST SWAP1 POP PUSH2 0xC90 JUMP JUMPDEST POP PUSH1 0x1 PUSH1 0x1 PUSH1 0xA0 SHL SUB DUP6 AND PUSH2 0xE9B JUMPI PUSH1 0x0 JUMPDEST DUP4 MLOAD DUP2 LT ISZERO PUSH2 0xE99 JUMPI DUP3 DUP2 DUP2 MLOAD DUP2 LT PUSH2 0xE40 JUMPI PUSH2 0xE40 PUSH2 0x1989 JUMP JUMPDEST PUSH1 0x20 MUL PUSH1 0x20 ADD ADD MLOAD PUSH1 0x1 PUSH1 0x0 DUP7 DUP5 DUP2 MLOAD DUP2 LT PUSH2 0xE5E JUMPI PUSH2 0xE5E PUSH2 0x1989 JUMP JUMPDEST PUSH1 0x20 MUL PUSH1 0x20 ADD ADD MLOAD DUP2 MSTORE PUSH1 0x20 ADD SWAP1 DUP2 MSTORE PUSH1 0x20 ADD PUSH1 0x0 KECCAK256 PUSH1 0x0 DUP3 DUP3 SLOAD PUSH2 0xE83 SWAP2 SWAP1 PUSH2 0x1A6C JUMP JUMPDEST SWAP1 SWAP2 SSTORE POP PUSH2 0xE92 SWAP1 POP DUP2 PUSH2 0x19B5 JUMP JUMPDEST SWAP1 POP PUSH2 0xE25 JUMP JUMPDEST POP JUMPDEST PUSH1 0x1 PUSH1 0x1 PUSH1 0xA0 SHL SUB DUP5 AND PUSH2 0x99D JUMPI PUSH1 0x0 JUMPDEST DUP4 MLOAD DUP2 LT ISZERO PUSH2 0xF8B JUMPI PUSH1 0x0 DUP5 DUP3 DUP2 MLOAD DUP2 LT PUSH2 0xEC9 JUMPI PUSH2 0xEC9 PUSH2 0x1989 JUMP JUMPDEST PUSH1 0x20 MUL PUSH1 0x20 ADD ADD MLOAD SWAP1 POP PUSH1 0x0 DUP5 DUP4 DUP2 MLOAD DUP2 LT PUSH2 0xEE7 JUMPI PUSH2 0xEE7 PUSH2 0x1989 JUMP JUMPDEST PUSH1 0x20 MUL PUSH1 0x20 ADD ADD MLOAD SWAP1 POP PUSH1 0x0 PUSH1 0x1 PUSH1 0x0 DUP5 DUP2 MSTORE PUSH1 0x20 ADD SWAP1 DUP2 MSTORE PUSH1 0x20 ADD PUSH1 0x0 KECCAK256 SLOAD SWAP1 POP DUP2 DUP2 LT ISZERO PUSH2 0xF68 JUMPI PUSH1 0x40 MLOAD PUSH3 0x461BCD PUSH1 0xE5 SHL DUP2 MSTORE PUSH1 0x20 PUSH1 0x4 DUP3 ADD MSTORE PUSH1 0x26 PUSH1 0x24 DUP3 ADD MSTORE PUSH32 0x4B495033373A206275726E20616D6F756E74206578636565647320746F74616C PUSH1 0x44 DUP3 ADD MSTORE PUSH6 0x537570706C79 PUSH1 0xD0 SHL PUSH1 0x64 DUP3 ADD MSTORE PUSH1 0x84 ADD PUSH2 0x2F2 JUMP JUMPDEST PUSH1 0x0 SWAP3 DUP4 MSTORE PUSH1 0x1 PUSH1 0x20 MSTORE PUSH1 0x40 SWAP1 SWAP3 KECCAK256 SWAP2 SUB SWAP1 SSTORE PUSH2 0xF84 DUP2 PUSH2 0x19B5 JUMP JUMPDEST SWAP1 POP PUSH2 0xEAC JUMP JUMPDEST POP POP POP POP POP POP POP JUMP JUMPDEST PUSH2 0xFA2 DUP7 DUP7 DUP7 DUP7 DUP7 DUP7 PUSH2 0x10A0 JUMP JUMPDEST DUP1 PUSH2 0xFB6 JUMPI POP PUSH2 0xFB6 DUP7 DUP7 DUP7 DUP7 DUP7 DUP7 PUSH2 0x1198 JUMP JUMPDEST PUSH2 0x99D JUMPI PUSH1 0x40 MLOAD PUSH3 0x461BCD PUSH1 0xE5 SHL DUP2 MSTORE PUSH1 0x20 PUSH1 0x4 DUP3 ADD MSTORE PUSH1 0x42 PUSH1 0x24 DUP3 ADD MSTORE PUSH32 0x4B495033373A207472616E7366657220746F206E6F6E20494B49503337526563 PUSH1 0x44 DUP3 ADD MSTORE PUSH32 0x65697665722F4945524331313535526563656976657220696D706C656D656E74 PUSH1 0x64 DUP3 ADD MSTORE PUSH2 0x32B9 PUSH1 0xF1 SHL PUSH1 0x84 DUP3 ADD MSTORE PUSH1 0xA4 ADD PUSH2 0x2F2 JUMP JUMPDEST PUSH1 0x40 DUP1 MLOAD PUSH1 0x1 DUP1 DUP3 MSTORE DUP2 DUP4 ADD SWAP1 SWAP3 MSTORE PUSH1 0x60 SWAP2 PUSH1 0x0 SWAP2 SWAP1 PUSH1 0x20 DUP1 DUP4 ADD SWAP1 DUP1 CALLDATASIZE DUP4 CALLDATACOPY ADD SWAP1 POP POP SWAP1 POP DUP3 DUP2 PUSH1 0x0 DUP2 MLOAD DUP2 LT PUSH2 0x106D JUMPI PUSH2 0x106D PUSH2 0x1989 JUMP JUMPDEST PUSH1 0x20 SWAP1 DUP2 MUL SWAP2 SWAP1 SWAP2 ADD ADD MSTORE SWAP3 SWAP2 POP POP JUMP JUMPDEST PUSH2 0x108C DUP7 DUP7 DUP7 DUP7 DUP7 DUP7 PUSH2 0x1261 JUMP JUMPDEST DUP1 PUSH2 0xFB6 JUMPI POP PUSH2 0xFB6 DUP7 DUP7 DUP7 DUP7 DUP7 DUP7 PUSH2 0x132A JUMP JUMPDEST PUSH1 0x0 PUSH1 0x1 PUSH1 0x1 PUSH1 0xA0 SHL SUB DUP6 AND EXTCODESIZE ISZERO PUSH2 0x118A JUMPI PUSH1 0x40 MLOAD PUSH4 0x4DA4F199 PUSH1 0xE1 SHL DUP2 MSTORE PUSH1 0x1 PUSH1 0x1 PUSH1 0xA0 SHL SUB DUP7 AND SWAP1 PUSH4 0x9B49E332 SWAP1 PUSH2 0x10E6 SWAP1 DUP11 SWAP1 DUP11 SWAP1 DUP10 SWAP1 DUP10 SWAP1 DUP10 SWAP1 PUSH1 0x4 ADD PUSH2 0x1A7F JUMP JUMPDEST PUSH1 0x20 PUSH1 0x40 MLOAD DUP1 DUP4 SUB DUP2 PUSH1 0x0 DUP8 GAS CALL SWAP3 POP POP POP DUP1 ISZERO PUSH2 0x1121 JUMPI POP PUSH1 0x40 DUP1 MLOAD PUSH1 0x1F RETURNDATASIZE SWAP1 DUP2 ADD PUSH1 0x1F NOT AND DUP3 ADD SWAP1 SWAP3 MSTORE PUSH2 0x111E SWAP2 DUP2 ADD SWAP1 PUSH2 0x1ADD JUMP JUMPDEST PUSH1 0x1 JUMPDEST PUSH2 0x1170 JUMPI RETURNDATASIZE DUP1 DUP1 ISZERO PUSH2 0x114F JUMPI PUSH1 0x40 MLOAD SWAP2 POP PUSH1 0x1F NOT PUSH1 0x3F RETURNDATASIZE ADD AND DUP3 ADD PUSH1 0x40 MSTORE RETURNDATASIZE DUP3 MSTORE RETURNDATASIZE PUSH1 0x0 PUSH1 0x20 DUP5 ADD RETURNDATACOPY PUSH2 0x1154 JUMP JUMPDEST PUSH1 0x60 SWAP2 POP JUMPDEST POP DUP1 MLOAD PUSH1 0x0 SUB PUSH2 0x1168 JUMPI PUSH1 0x0 SWAP2 POP POP PUSH2 0x118E JUMP JUMPDEST DUP1 MLOAD DUP2 PUSH1 0x20 ADD REVERT JUMPDEST PUSH1 0x1 PUSH1 0x1 PUSH1 0xE0 SHL SUB NOT AND PUSH4 0x4DA4F199 PUSH1 0xE1 SHL EQ SWAP1 POP PUSH2 0x118E JUMP JUMPDEST POP PUSH1 0x1 JUMPDEST SWAP7 SWAP6 POP POP POP POP POP POP JUMP JUMPDEST PUSH1 0x0 PUSH1 0x1 PUSH1 0x1 PUSH1 0xA0 SHL SUB DUP6 AND EXTCODESIZE ISZERO PUSH2 0x118A JUMPI PUSH1 0x40 MLOAD PUSH4 0xBC197C81 PUSH1 0xE0 SHL DUP2 MSTORE PUSH1 0x1 PUSH1 0x1 PUSH1 0xA0 SHL SUB DUP7 AND SWAP1 PUSH4 0xBC197C81 SWAP1 PUSH2 0x11DE SWAP1 DUP11 SWAP1 DUP11 SWAP1 DUP10 SWAP1 DUP10 SWAP1 DUP10 SWAP1 PUSH1 0x4 ADD PUSH2 0x1A7F JUMP JUMPDEST PUSH1 0x20 PUSH1 0x40 MLOAD DUP1 DUP4 SUB DUP2 PUSH1 0x0 DUP8 GAS CALL SWAP3 POP POP POP DUP1 ISZERO PUSH2 0x1219 JUMPI POP PUSH1 0x40 DUP1 MLOAD PUSH1 0x1F RETURNDATASIZE SWAP1 DUP2 ADD PUSH1 0x1F NOT AND DUP3 ADD SWAP1 SWAP3 MSTORE PUSH2 0x1216 SWAP2 DUP2 ADD SWAP1 PUSH2 0x1ADD JUMP JUMPDEST PUSH1 0x1 JUMPDEST PUSH2 0x1247 JUMPI RETURNDATASIZE DUP1 DUP1 ISZERO PUSH2 0x114F JUMPI PUSH1 0x40 MLOAD SWAP2 POP PUSH1 0x1F NOT PUSH1 0x3F RETURNDATASIZE ADD AND DUP3 ADD PUSH1 0x40 MSTORE RETURNDATASIZE DUP3 MSTORE RETURNDATASIZE PUSH1 0x0 PUSH1 0x20 DUP5 ADD RETURNDATACOPY PUSH2 0x1154 JUMP JUMPDEST PUSH1 0x1 PUSH1 0x1 PUSH1 0xE0 SHL SUB NOT AND PUSH4 0xBC197C81 PUSH1 0xE0 SHL EQ SWAP1 POP PUSH2 0x118E JUMP JUMPDEST PUSH1 0x0 PUSH1 0x1 PUSH1 0x1 PUSH1 0xA0 SHL SUB DUP6 AND EXTCODESIZE ISZERO PUSH2 0x118A JUMPI PUSH1 0x40 MLOAD PUSH4 0xE78B3325 PUSH1 0xE0 SHL DUP2 MSTORE PUSH1 0x1 PUSH1 0x1 PUSH1 0xA0 SHL SUB DUP7 AND SWAP1 PUSH4 0xE78B3325 SWAP1 PUSH2 0x12A7 SWAP1 DUP11 SWAP1 DUP11 SWAP1 DUP10 SWAP1 DUP10 SWAP1 DUP10 SWAP1 PUSH1 0x4 ADD PUSH2 0x1AFA JUMP JUMPDEST PUSH1 0x20 PUSH1 0x40 MLOAD DUP1 DUP4 SUB DUP2 PUSH1 0x0 DUP8 GAS CALL SWAP3 POP POP POP DUP1 ISZERO PUSH2 0x12E2 JUMPI POP PUSH1 0x40 DUP1 MLOAD PUSH1 0x1F RETURNDATASIZE SWAP1 DUP2 ADD PUSH1 0x1F NOT AND DUP3 ADD SWAP1 SWAP3 MSTORE PUSH2 0x12DF SWAP2 DUP2 ADD SWAP1 PUSH2 0x1ADD JUMP JUMPDEST PUSH1 0x1 JUMPDEST PUSH2 0x1310 JUMPI RETURNDATASIZE DUP1 DUP1 ISZERO PUSH2 0x114F JUMPI PUSH1 0x40 MLOAD SWAP2 POP PUSH1 0x1F NOT PUSH1 0x3F RETURNDATASIZE ADD AND DUP3 ADD PUSH1 0x40 MSTORE RETURNDATASIZE DUP3 MSTORE RETURNDATASIZE PUSH1 0x0 PUSH1 0x20 DUP5 ADD RETURNDATACOPY PUSH2 0x1154 JUMP JUMPDEST PUSH1 0x1 PUSH1 0x1 PUSH1 0xE0 SHL SUB NOT AND PUSH4 0xE78B3325 PUSH1 0xE0 SHL EQ SWAP1 POP PUSH2 0x118E JUMP JUMPDEST PUSH1 0x0 PUSH1 0x1 PUSH1 0x1 PUSH1 0xA0 SHL SUB DUP6 AND EXTCODESIZE ISZERO PUSH2 0x118A JUMPI PUSH1 0x40 MLOAD PUSH4 0xF23A6E61 PUSH1 0xE0 SHL DUP2 MSTORE PUSH1 0x1 PUSH1 0x1 PUSH1 0xA0 SHL SUB DUP7 AND SWAP1 PUSH4 0xF23A6E61 SWAP1 PUSH2 0x1370 SWAP1 DUP11 SWAP1 DUP11 SWAP1 DUP10 SWAP1 DUP10 SWAP1 DUP10 SWAP1 PUSH1 0x4 ADD PUSH2 0x1AFA JUMP JUMPDEST PUSH1 0x20 PUSH1 0x40 MLOAD DUP1 DUP4 SUB DUP2 PUSH1 0x0 DUP8 GAS CALL SWAP3 POP POP POP DUP1 ISZERO PUSH2 0x13AB JUMPI POP PUSH1 0x40 DUP1 MLOAD PUSH1 0x1F RETURNDATASIZE SWAP1 DUP2 ADD PUSH1 0x1F NOT AND DUP3 ADD SWAP1 SWAP3 MSTORE PUSH2 0x13A8 SWAP2 DUP2 ADD SWAP1 PUSH2 0x1ADD JUMP JUMPDEST PUSH1 0x1 JUMPDEST PUSH2 0x13D9 JUMPI RETURNDATASIZE DUP1 DUP1 ISZERO PUSH2 0x114F JUMPI PUSH1 0x40 MLOAD SWAP2 POP PUSH1 0x1F NOT PUSH1 0x3F RETURNDATASIZE ADD AND DUP3 ADD PUSH1 0x40 MSTORE RETURNDATASIZE DUP3 MSTORE RETURNDATASIZE PUSH1 0x0 PUSH1 0x20 DUP5 ADD RETURNDATACOPY PUSH2 0x1154 JUMP JUMPDEST PUSH1 0x1 PUSH1 0x1 PUSH1 0xE0 SHL SUB NOT AND PUSH4 0xF23A6E61 PUSH1 0xE0 SHL EQ SWAP1 POP PUSH2 0x118E JUMP JUMPDEST DUP1 CALLDATALOAD PUSH1 0x1 PUSH1 0x1 PUSH1 0xA0 SHL SUB DUP2 AND DUP2 EQ PUSH2 0x140A JUMPI PUSH1 0x0 DUP1 REVERT JUMPDEST SWAP2 SWAP1 POP JUMP JUMPDEST PUSH1 0x0 DUP1 PUSH1 0x40 DUP4 DUP6 SUB SLT ISZERO PUSH2 0x1422 JUMPI PUSH1 0x0 DUP1 REVERT JUMPDEST PUSH2 0x142B DUP4 PUSH2 0x13F3 JUMP JUMPDEST SWAP5 PUSH1 0x20 SWAP4 SWAP1 SWAP4 ADD CALLDATALOAD SWAP4 POP POP POP JUMP JUMPDEST PUSH1 0x1 PUSH1 0x1 PUSH1 0xE0 SHL SUB NOT DUP2 AND DUP2 EQ PUSH2 0x144F JUMPI PUSH1 0x0 DUP1 REVERT JUMPDEST POP JUMP JUMPDEST PUSH1 0x0 PUSH1 0x20 DUP3 DUP5 SUB SLT ISZERO PUSH2 0x1464 JUMPI PUSH1 0x0 DUP1 REVERT JUMPDEST DUP2 CALLDATALOAD PUSH2 0x146F DUP2 PUSH2 0x1439 JUMP JUMPDEST SWAP4 SWAP3 POP POP POP JUMP JUMPDEST PUSH1 0x0 PUSH1 0x20 DUP3 DUP5 SUB SLT ISZERO PUSH2 0x1488 JUMPI PUSH1 0x0 DUP1 REVERT JUMPDEST POP CALLDATALOAD SWAP2 SWAP1 POP JUMP JUMPDEST PUSH1 0x0 DUP2 MLOAD DUP1 DUP5 MSTORE PUSH1 0x0 JUMPDEST DUP2 DUP2 LT ISZERO PUSH2 0x14B5 JUMPI PUSH1 0x20 DUP2 DUP6 ADD DUP2 ADD MLOAD DUP7 DUP4 ADD DUP3 ADD MSTORE ADD PUSH2 0x1499 JUMP JUMPDEST POP PUSH1 0x0 PUSH1 0x20 DUP3 DUP7 ADD ADD MSTORE PUSH1 0x20 PUSH1 0x1F NOT PUSH1 0x1F DUP4 ADD AND DUP6 ADD ADD SWAP2 POP POP SWAP3 SWAP2 POP POP JUMP JUMPDEST PUSH1 0x20 DUP2 MSTORE PUSH1 0x0 PUSH2 0x146F PUSH1 0x20 DUP4 ADD DUP5 PUSH2 0x148F JUMP JUMPDEST PUSH4 0x4E487B71 PUSH1 0xE0 SHL PUSH1 0x0 MSTORE PUSH1 0x41 PUSH1 0x4 MSTORE PUSH1 0x24 PUSH1 0x0 REVERT JUMPDEST PUSH1 0x40 MLOAD PUSH1 0x1F DUP3 ADD PUSH1 0x1F NOT AND DUP2 ADD PUSH8 0xFFFFFFFFFFFFFFFF DUP2 GT DUP3 DUP3 LT OR ISZERO PUSH2 0x1527 JUMPI PUSH2 0x1527 PUSH2 0x14E8 JUMP JUMPDEST PUSH1 0x40 MSTORE SWAP2 SWAP1 POP JUMP JUMPDEST PUSH1 0x0 PUSH8 0xFFFFFFFFFFFFFFFF DUP3 GT ISZERO PUSH2 0x1549 JUMPI PUSH2 0x1549 PUSH2 0x14E8 JUMP JUMPDEST POP PUSH1 0x5 SHL PUSH1 0x20 ADD SWAP1 JUMP JUMPDEST PUSH1 0x0 DUP3 PUSH1 0x1F DUP4 ADD SLT PUSH2 0x1564 JUMPI PUSH1 0x0 DUP1 REVERT JUMPDEST DUP2 CALLDATALOAD PUSH1 0x20 PUSH2 0x1579 PUSH2 0x1574 DUP4 PUSH2 0x152F JUMP JUMPDEST PUSH2 0x14FE JUMP JUMPDEST DUP3 DUP2 MSTORE PUSH1 0x5 SWAP3 SWAP1 SWAP3 SHL DUP5 ADD DUP2 ADD SWAP2 DUP2 DUP2 ADD SWAP1 DUP7 DUP5 GT ISZERO PUSH2 0x1598 JUMPI PUSH1 0x0 DUP1 REVERT JUMPDEST DUP3 DUP7 ADD JUMPDEST DUP5 DUP2 LT ISZERO PUSH2 0x15B3 JUMPI DUP1 CALLDATALOAD DUP4 MSTORE SWAP2 DUP4 ADD SWAP2 DUP4 ADD PUSH2 0x159C JUMP JUMPDEST POP SWAP7 SWAP6 POP POP POP POP POP POP JUMP JUMPDEST PUSH1 0x0 DUP3 PUSH1 0x1F DUP4 ADD SLT PUSH2 0x15CF JUMPI PUSH1 0x0 DUP1 REVERT JUMPDEST DUP2 CALLDATALOAD PUSH8 0xFFFFFFFFFFFFFFFF DUP2 GT ISZERO PUSH2 0x15E9 JUMPI PUSH2 0x15E9 PUSH2 0x14E8 JUMP JUMPDEST PUSH2 0x15FC PUSH1 0x1F DUP3 ADD PUSH1 0x1F NOT AND PUSH1 0x20 ADD PUSH2 0x14FE JUMP JUMPDEST DUP2 DUP2 MSTORE DUP5 PUSH1 0x20 DUP4 DUP7 ADD ADD GT ISZERO PUSH2 0x1611 JUMPI PUSH1 0x0 DUP1 REVERT JUMPDEST DUP2 PUSH1 0x20 DUP6 ADD PUSH1 0x20 DUP4 ADD CALLDATACOPY PUSH1 0x0 SWAP2 DUP2 ADD PUSH1 0x20 ADD SWAP2 SWAP1 SWAP2 MSTORE SWAP4 SWAP3 POP POP POP JUMP JUMPDEST PUSH1 0x0 DUP1 PUSH1 0x0 DUP1 PUSH1 0x0 PUSH1 0xA0 DUP7 DUP9 SUB SLT ISZERO PUSH2 0x1646 JUMPI PUSH1 0x0 DUP1 REVERT JUMPDEST PUSH2 0x164F DUP7 PUSH2 0x13F3 JUMP JUMPDEST SWAP5 POP PUSH2 0x165D PUSH1 0x20 DUP8 ADD PUSH2 0x13F3 JUMP JUMPDEST SWAP4 POP PUSH1 0x40 DUP7 ADD CALLDATALOAD PUSH8 0xFFFFFFFFFFFFFFFF DUP1 DUP3 GT ISZERO PUSH2 0x167A JUMPI PUSH1 0x0 DUP1 REVERT JUMPDEST PUSH2 0x1686 DUP10 DUP4 DUP11 ADD PUSH2 0x1553 JUMP JUMPDEST SWAP5 POP PUSH1 0x60 DUP9 ADD CALLDATALOAD SWAP2 POP DUP1 DUP3 GT ISZERO PUSH2 0x169C JUMPI PUSH1 0x0 DUP1 REVERT JUMPDEST PUSH2 0x16A8 DUP10 DUP4 DUP11 ADD PUSH2 0x1553 JUMP JUMPDEST SWAP4 POP PUSH1 0x80 DUP9 ADD CALLDATALOAD SWAP2 POP DUP1 DUP3 GT ISZERO PUSH2 0x16BE JUMPI PUSH1 0x0 DUP1 REVERT JUMPDEST POP PUSH2 0x16CB DUP9 DUP3 DUP10 ADD PUSH2 0x15BE JUMP JUMPDEST SWAP2 POP POP SWAP3 SWAP6 POP SWAP3 SWAP6 SWAP1 SWAP4 POP JUMP JUMPDEST PUSH1 0x0 DUP1 PUSH1 0x40 DUP4 DUP6 SUB SLT ISZERO PUSH2 0x16EB JUMPI PUSH1 0x0 DUP1 REVERT JUMPDEST DUP3 CALLDATALOAD PUSH8 0xFFFFFFFFFFFFFFFF DUP1 DUP3 GT ISZERO PUSH2 0x1703 JUMPI PUSH1 0x0 DUP1 REVERT JUMPDEST DUP2 DUP6 ADD SWAP2 POP DUP6 PUSH1 0x1F DUP4 ADD SLT PUSH2 0x1717 JUMPI PUSH1 0x0 DUP1 REVERT JUMPDEST DUP2 CALLDATALOAD PUSH1 0x20 PUSH2 0x1727 PUSH2 0x1574 DUP4 PUSH2 0x152F JUMP JUMPDEST DUP3 DUP2 MSTORE PUSH1 0x5 SWAP3 SWAP1 SWAP3 SHL DUP5 ADD DUP2 ADD SWAP2 DUP2 DUP2 ADD SWAP1 DUP10 DUP5 GT ISZERO PUSH2 0x1746 JUMPI PUSH1 0x0 DUP1 REVERT JUMPDEST SWAP5 DUP3 ADD SWAP5 JUMPDEST DUP4 DUP7 LT ISZERO PUSH2 0x176B JUMPI PUSH2 0x175C DUP7 PUSH2 0x13F3 JUMP JUMPDEST DUP3 MSTORE SWAP5 DUP3 ADD SWAP5 SWAP1 DUP3 ADD SWAP1 PUSH2 0x174B JUMP JUMPDEST SWAP7 POP POP DUP7 ADD CALLDATALOAD SWAP3 POP POP DUP1 DUP3 GT ISZERO PUSH2 0x1781 JUMPI PUSH1 0x0 DUP1 REVERT JUMPDEST POP PUSH2 0x178E DUP6 DUP3 DUP7 ADD PUSH2 0x1553 JUMP JUMPDEST SWAP2 POP POP SWAP3 POP SWAP3 SWAP1 POP JUMP JUMPDEST PUSH1 0x0 DUP2 MLOAD DUP1 DUP5 MSTORE PUSH1 0x20 DUP1 DUP6 ADD SWAP5 POP DUP1 DUP5 ADD PUSH1 0x0 JUMPDEST DUP4 DUP2 LT ISZERO PUSH2 0x17C8 JUMPI DUP2 MLOAD DUP8 MSTORE SWAP6 DUP3 ADD SWAP6 SWAP1 DUP3 ADD SWAP1 PUSH1 0x1 ADD PUSH2 0x17AC JUMP JUMPDEST POP SWAP5 SWAP6 SWAP5 POP POP POP POP POP JUMP JUMPDEST PUSH1 0x20 DUP2 MSTORE PUSH1 0x0 PUSH2 0x146F PUSH1 0x20 DUP4 ADD DUP5 PUSH2 0x1798 JUMP JUMPDEST PUSH1 0x0 DUP1 PUSH1 0x40 DUP4 DUP6 SUB SLT ISZERO PUSH2 0x17F9 JUMPI PUSH1 0x0 DUP1 REVERT JUMPDEST DUP3 CALLDATALOAD SWAP2 POP PUSH2 0x1809 PUSH1 0x20 DUP5 ADD PUSH2 0x13F3 JUMP JUMPDEST SWAP1 POP SWAP3 POP SWAP3 SWAP1 POP JUMP JUMPDEST PUSH1 0x0 DUP1 PUSH1 0x40 DUP4 DUP6 SUB SLT ISZERO PUSH2 0x1825 JUMPI PUSH1 0x0 DUP1 REVERT JUMPDEST PUSH2 0x182E DUP4 PUSH2 0x13F3 JUMP JUMPDEST SWAP2 POP PUSH1 0x20 DUP4 ADD CALLDATALOAD DUP1 ISZERO ISZERO DUP2 EQ PUSH2 0x1843 JUMPI PUSH1 0x0 DUP1 REVERT JUMPDEST DUP1 SWAP2 POP POP SWAP3 POP SWAP3 SWAP1 POP JUMP JUMPDEST PUSH1 0x0 DUP1 PUSH1 0x40 DUP4 DUP6 SUB SLT ISZERO PUSH2 0x1861 JUMPI PUSH1 0x0 DUP1 REVERT JUMPDEST PUSH2 0x186A DUP4 PUSH2 0x13F3 JUMP JUMPDEST SWAP2 POP PUSH1 0x20 DUP4 ADD CALLDATALOAD PUSH8 0xFFFFFFFFFFFFFFFF DUP2 GT ISZERO PUSH2 0x1886 JUMPI PUSH1 0x0 DUP1 REVERT JUMPDEST PUSH2 0x178E DUP6 DUP3 DUP7 ADD PUSH2 0x1553 JUMP JUMPDEST PUSH1 0x40 DUP2 MSTORE PUSH1 0x0 PUSH2 0x18A5 PUSH1 0x40 DUP4 ADD DUP6 PUSH2 0x1798 JUMP JUMPDEST DUP3 DUP2 SUB PUSH1 0x20 DUP5 ADD MSTORE PUSH2 0x18B7 DUP2 DUP6 PUSH2 0x1798 JUMP JUMPDEST SWAP6 SWAP5 POP POP POP POP POP JUMP JUMPDEST PUSH1 0x0 DUP1 PUSH1 0x40 DUP4 DUP6 SUB SLT ISZERO PUSH2 0x18D3 JUMPI PUSH1 0x0 DUP1 REVERT JUMPDEST PUSH2 0x18DC DUP4 PUSH2 0x13F3 JUMP JUMPDEST SWAP2 POP PUSH2 0x1809 PUSH1 0x20 DUP5 ADD PUSH2 0x13F3 JUMP JUMPDEST PUSH1 0x0 DUP1 PUSH1 0x0 DUP1 PUSH1 0x0 PUSH1 0xA0 DUP7 DUP9 SUB SLT ISZERO PUSH2 0x1902 JUMPI PUSH1 0x0 DUP1 REVERT JUMPDEST PUSH2 0x190B DUP7 PUSH2 0x13F3 JUMP JUMPDEST SWAP5 POP PUSH2 0x1919 PUSH1 0x20 DUP8 ADD PUSH2 0x13F3 JUMP JUMPDEST SWAP4 POP PUSH1 0x40 DUP7 ADD CALLDATALOAD SWAP3 POP PUSH1 0x60 DUP7 ADD CALLDATALOAD SWAP2 POP PUSH1 0x80 DUP7 ADD CALLDATALOAD PUSH8 0xFFFFFFFFFFFFFFFF DUP2 GT ISZERO PUSH2 0x1943 JUMPI PUSH1 0x0 DUP1 REVERT JUMPDEST PUSH2 0x16CB DUP9 DUP3 DUP10 ADD PUSH2 0x15BE JUMP JUMPDEST PUSH1 0x1 DUP2 DUP2 SHR SWAP1 DUP3 AND DUP1 PUSH2 0x1963 JUMPI PUSH1 0x7F DUP3 AND SWAP2 POP JUMPDEST PUSH1 0x20 DUP3 LT DUP2 SUB PUSH2 0x1983 JUMPI PUSH4 0x4E487B71 PUSH1 0xE0 SHL PUSH1 0x0 MSTORE PUSH1 0x22 PUSH1 0x4 MSTORE PUSH1 0x24 PUSH1 0x0 REVERT JUMPDEST POP SWAP2 SWAP1 POP JUMP JUMPDEST PUSH4 0x4E487B71 PUSH1 0xE0 SHL PUSH1 0x0 MSTORE PUSH1 0x32 PUSH1 0x4 MSTORE PUSH1 0x24 PUSH1 0x0 REVERT JUMPDEST PUSH4 0x4E487B71 PUSH1 0xE0 SHL PUSH1 0x0 MSTORE PUSH1 0x11 PUSH1 0x4 MSTORE PUSH1 0x24 PUSH1 0x0 REVERT JUMPDEST PUSH1 0x0 PUSH1 0x1 DUP3 ADD PUSH2 0x19C7 JUMPI PUSH2 0x19C7 PUSH2 0x199F JUMP JUMPDEST POP PUSH1 0x1 ADD SWAP1 JUMP JUMPDEST DUP2 DUP2 SUB DUP2 DUP2 GT ISZERO PUSH2 0x31E JUMPI PUSH2 0x31E PUSH2 0x199F JUMP JUMPDEST PUSH1 0x20 DUP1 DUP3 MSTORE PUSH1 0x23 SWAP1 DUP3 ADD MSTORE PUSH32 0x4B495033373A207472616E7366657220746F20746865207A65726F2061646472 PUSH1 0x40 DUP3 ADD MSTORE PUSH3 0x657373 PUSH1 0xE8 SHL PUSH1 0x60 DUP3 ADD MSTORE PUSH1 0x80 ADD SWAP1 JUMP JUMPDEST PUSH1 0x20 DUP1 DUP3 MSTORE PUSH1 0x28 SWAP1 DUP3 ADD MSTORE PUSH32 0x4B495033373A20696E73756666696369656E742062616C616E636520666F7220 PUSH1 0x40 DUP3 ADD MSTORE PUSH8 0x3A3930B739B332B9 PUSH1 0xC1 SHL PUSH1 0x60 DUP3 ADD MSTORE PUSH1 0x80 ADD SWAP1 JUMP JUMPDEST DUP1 DUP3 ADD DUP1 DUP3 GT ISZERO PUSH2 0x31E JUMPI PUSH2 0x31E PUSH2 0x199F JUMP JUMPDEST PUSH1 0x1 PUSH1 0x1 PUSH1 0xA0 SHL SUB DUP7 DUP2 AND DUP3 MSTORE DUP6 AND PUSH1 0x20 DUP3 ADD MSTORE PUSH1 0xA0 PUSH1 0x40 DUP3 ADD DUP2 SWAP1 MSTORE PUSH1 0x0 SWAP1 PUSH2 0x1AAB SWAP1 DUP4 ADD DUP7 PUSH2 0x1798 JUMP JUMPDEST DUP3 DUP2 SUB PUSH1 0x60 DUP5 ADD MSTORE PUSH2 0x1ABD DUP2 DUP7 PUSH2 0x1798 JUMP JUMPDEST SWAP1 POP DUP3 DUP2 SUB PUSH1 0x80 DUP5 ADD MSTORE PUSH2 0x1AD1 DUP2 DUP6 PUSH2 0x148F JUMP JUMPDEST SWAP9 SWAP8 POP POP POP POP POP POP POP POP JUMP JUMPDEST PUSH1 0x0 PUSH1 0x20 DUP3 DUP5 SUB SLT ISZERO PUSH2 0x1AEF JUMPI PUSH1 0x0 DUP1 REVERT JUMPDEST DUP2 MLOAD PUSH2 0x146F DUP2 PUSH2 0x1439 JUMP JUMPDEST PUSH1 0x1 PUSH1 0x1 PUSH1 0xA0 SHL SUB DUP7 DUP2 AND DUP3 MSTORE DUP6 AND PUSH1 0x20 DUP3 ADD MSTORE PUSH1 0x40 DUP2 ADD DUP5 SWAP1 MSTORE PUSH1 0x60 DUP2 ADD DUP4 SWAP1 MSTORE PUSH1 0xA0 PUSH1 0x80 DUP3 ADD DUP2 SWAP1 MSTORE PUSH1 0x0 SWAP1 PUSH2 0x1B34 SWAP1 DUP4 ADD DUP5 PUSH2 0x148F JUMP JUMPDEST SWAP8 SWAP7 POP POP POP POP POP POP POP JUMP INVALID LOG2 PUSH5 0x6970667358 0x22 SLT KECCAK256 0x1F 0xD4 RETURN SLT 0xA9 0xBF 0xEC 0xEB PC 0xCA 0x2B BASEFEE LOG3 0x2C 0xB0 CALLDATACOPY 0xEB SAR OR BALANCE 0xAA 0xAA MSTORE8 DUP6 PUSH15 0x92610F934768E964736F6C63430008 SGT STOP CALLER "
				},
				"gasEstimates": {
					"creation": {
						"codeDepositCost": "1405800",
						"executionCost": "1465",
						"totalCost": "1407265"
					},
					"external": {
						"balanceOf(address,uint256)": "2677",
						"balanceOfBatch(address[],uint256[])": "infinite",
						"getAllLockedTokensByAddress(address,uint256[])": "infinite",
						"getAllProcerssLockedByAddress(address,uint256[])": "infinite",
						"isApprovedForAll(address,address)": "infinite",
						"isProcessLocked(uint256,address)": "2732",
						"isTokenLocked(uint256,address)": "2688",
						"safeBatchTransferFrom(address,address,uint256[],uint256[],bytes)": "infinite",
						"safeTransferFrom(address,address,uint256,uint256,bytes)": "infinite",
						"setApprovalForAll(address,bool)": "26706",
						"supportsInterface(bytes4)": "555",
						"totalSupply(uint256)": "2449",
						"uri(uint256)": "infinite"
					},
					"internal": {
						"_afterTokenTransfer(address,address,address,uint256[] memory,uint256[] memory,bytes memory)": "infinite",
						"_asSingletonArray(uint256)": "infinite",
						"_beforeTokenTransfer(address,address,address,uint256[] memory,uint256[] memory,bytes memory)": "infinite",
						"_burn(address,uint256,uint256)": "infinite",
						"_burnBatch(address,uint256[] memory,uint256[] memory)": "infinite",
						"_checkOnERC1155BatchReceived(address,address,address,uint256[] memory,uint256[] memory,bytes memory)": "infinite",
						"_checkOnERC1155Received(address,address,address,uint256,uint256,bytes memory)": "infinite",
						"_checkOnKIP37BatchReceived(address,address,address,uint256[] memory,uint256[] memory,bytes memory)": "infinite",
						"_checkOnKIP37Received(address,address,address,uint256,uint256,bytes memory)": "infinite",
						"_doSafeBatchTransferAcceptanceCheck(address,address,address,uint256[] memory,uint256[] memory,bytes memory)": "infinite",
						"_doSafeTransferAcceptanceCheck(address,address,address,uint256,uint256,bytes memory)": "infinite",
						"_lockTokens(address,uint256[] calldata,uint256[] calldata)": "infinite",
						"_mint(address,uint256,uint256,bytes memory)": "infinite",
						"_mintBatch(address,uint256[] memory,uint256[] memory,bytes memory)": "infinite",
						"_processLockTokens(address,uint256[] calldata,uint256[] calldata)": "infinite",
						"_processUnLockTokens(address,uint256[] calldata,uint256[] calldata)": "infinite",
						"_safeBatchTransferFrom(address,address,uint256[] memory,uint256[] memory,bytes memory)": "infinite",
						"_safeTransferFrom(address,address,uint256,uint256,bytes memory)": "infinite",
						"_setApprovalForAll(address,address,bool)": "infinite",
						"_setURI(string memory)": "infinite",
						"_unLockTokens(address,uint256[] calldata,uint256[] calldata)": "infinite",
						"appendUint256ToArray(uint256[] memory,uint256)": "infinite"
					}
				},
				"methodIdentifiers": {
					"balanceOf(address,uint256)": "00fdd58e",
					"balanceOfBatch(address[],uint256[])": "4e1273f4",
					"getAllLockedTokensByAddress(address,uint256[])": "ee51d26a",
					"getAllProcerssLockedByAddress(address,uint256[])": "a4949b18",
					"isApprovedForAll(address,address)": "e985e9c5",
					"isProcessLocked(uint256,address)": "6e1c1cbb",
					"isTokenLocked(uint256,address)": "b56cf84f",
					"safeBatchTransferFrom(address,address,uint256[],uint256[],bytes)": "2eb2c2d6",
					"safeTransferFrom(address,address,uint256,uint256,bytes)": "f242432a",
					"setApprovalForAll(address,bool)": "a22cb465",
					"supportsInterface(bytes4)": "01ffc9a7",
					"totalSupply(uint256)": "bd85b039",
					"uri(uint256)": "0e89341c"
				}
			},
			"storageLayout": {
				"storage": [
					{
						"astId": 220,
						"contract": "KIP37/KIP37.sol:KIP37",
						"label": "_balances",
						"offset": 0,
						"slot": "0",
						"type": "t_mapping(t_uint256,t_mapping(t_address,t_uint256))"
					},
					{
						"astId": 224,
						"contract": "KIP37/KIP37.sol:KIP37",
						"label": "_totalSupply",
						"offset": 0,
						"slot": "1",
						"type": "t_mapping(t_uint256,t_uint256)"
					},
					{
						"astId": 230,
						"contract": "KIP37/KIP37.sol:KIP37",
						"label": "_operatorApprovals",
						"offset": 0,
						"slot": "2",
						"type": "t_mapping(t_address,t_mapping(t_address,t_bool))"
					},
					{
						"astId": 236,
						"contract": "KIP37/KIP37.sol:KIP37",
						"label": "_lockedTokens",
						"offset": 0,
						"slot": "3",
						"type": "t_mapping(t_address,t_mapping(t_uint256,t_uint256))"
					},
					{
						"astId": 242,
						"contract": "KIP37/KIP37.sol:KIP37",
						"label": "_processLock",
						"offset": 0,
						"slot": "4",
						"type": "t_mapping(t_address,t_mapping(t_uint256,t_uint256))"
					},
					{
						"astId": 244,
						"contract": "KIP37/KIP37.sol:KIP37",
						"label": "_uri",
						"offset": 0,
						"slot": "5",
						"type": "t_string_storage"
					}
				],
				"types": {
					"t_address": {
						"encoding": "inplace",
						"label": "address",
						"numberOfBytes": "20"
					},
					"t_bool": {
						"encoding": "inplace",
						"label": "bool",
						"numberOfBytes": "1"
					},
					"t_mapping(t_address,t_bool)": {
						"encoding": "mapping",
						"key": "t_address",
						"label": "mapping(address => bool)",
						"numberOfBytes": "32",
						"value": "t_bool"
					},
					"t_mapping(t_address,t_mapping(t_address,t_bool))": {
						"encoding": "mapping",
						"key": "t_address",
						"label": "mapping(address => mapping(address => bool))",
						"numberOfBytes": "32",
						"value": "t_mapping(t_address,t_bool)"
					},
					"t_mapping(t_address,t_mapping(t_uint256,t_uint256))": {
						"encoding": "mapping",
						"key": "t_address",
						"label": "mapping(address => mapping(uint256 => uint256))",
						"numberOfBytes": "32",
						"value": "t_mapping(t_uint256,t_uint256)"
					},
					"t_mapping(t_address,t_uint256)": {
						"encoding": "mapping",
						"key": "t_address",
						"label": "mapping(address => uint256)",
						"numberOfBytes": "32",
						"value": "t_uint256"
					},
					"t_mapping(t_uint256,t_mapping(t_address,t_uint256))": {
						"encoding": "mapping",
						"key": "t_uint256",
						"label": "mapping(uint256 => mapping(address => uint256))",
						"numberOfBytes": "32",
						"value": "t_mapping(t_address,t_uint256)"
					},
					"t_mapping(t_uint256,t_uint256)": {
						"encoding": "mapping",
						"key": "t_uint256",
						"label": "mapping(uint256 => uint256)",
						"numberOfBytes": "32",
						"value": "t_uint256"
					},
					"t_string_storage": {
						"encoding": "bytes",
						"label": "string",
						"numberOfBytes": "32"
					},
					"t_uint256": {
						"encoding": "inplace",
						"label": "uint256",
						"numberOfBytes": "32"
					}
				}
			},
			"userdoc": {
				"kind": "user",
				"methods": {},
				"version": 1
			}
		}
	}
}