{
	"KIP37/KIP37.sol": {
		"KIP37": {
			"abi": [
				{
					"inputs": [],
					"stateMutability": "nonpayable",
					"type": "constructor"
				},
				{
					"anonymous": false,
					"inputs": [
						{
							"indexed": true,
							"internalType": "address",
							"name": "owner",
							"type": "address"
						},
						{
							"indexed": true,
							"internalType": "address",
							"name": "operator",
							"type": "address"
						},
						{
							"indexed": false,
							"internalType": "bool",
							"name": "approved",
							"type": "bool"
						}
					],
					"name": "ApprovalForAll",
					"type": "event"
				},
				{
					"anonymous": false,
					"inputs": [
						{
							"indexed": true,
							"internalType": "address",
							"name": "operator",
							"type": "address"
						},
						{
							"indexed": true,
							"internalType": "address",
							"name": "from",
							"type": "address"
						},
						{
							"indexed": true,
							"internalType": "address",
							"name": "to",
							"type": "address"
						},
						{
							"indexed": false,
							"internalType": "uint256[]",
							"name": "ids",
							"type": "uint256[]"
						},
						{
							"indexed": false,
							"internalType": "uint256[]",
							"name": "amounts",
							"type": "uint256[]"
						}
					],
					"name": "TransferBatch",
					"type": "event"
				},
				{
					"anonymous": false,
					"inputs": [
						{
							"indexed": true,
							"internalType": "address",
							"name": "operator",
							"type": "address"
						},
						{
							"indexed": true,
							"internalType": "address",
							"name": "from",
							"type": "address"
						},
						{
							"indexed": true,
							"internalType": "address",
							"name": "to",
							"type": "address"
						},
						{
							"indexed": false,
							"internalType": "uint256",
							"name": "id",
							"type": "uint256"
						},
						{
							"indexed": false,
							"internalType": "uint256",
							"name": "amount",
							"type": "uint256"
						}
					],
					"name": "TransferSingle",
					"type": "event"
				},
				{
					"anonymous": false,
					"inputs": [
						{
							"indexed": false,
							"internalType": "string",
							"name": "value",
							"type": "string"
						},
						{
							"indexed": true,
							"internalType": "uint256",
							"name": "id",
							"type": "uint256"
						}
					],
					"name": "URI",
					"type": "event"
				},
				{
					"inputs": [
						{
							"internalType": "address",
							"name": "owner",
							"type": "address"
						},
						{
							"internalType": "uint256",
							"name": "id",
							"type": "uint256"
						}
					],
					"name": "balanceOf",
					"outputs": [
						{
							"internalType": "uint256",
							"name": "",
							"type": "uint256"
						}
					],
					"stateMutability": "view",
					"type": "function"
				},
				{
					"inputs": [
						{
							"internalType": "address[]",
							"name": "owners",
							"type": "address[]"
						},
						{
							"internalType": "uint256[]",
							"name": "ids",
							"type": "uint256[]"
						}
					],
					"name": "balanceOfBatch",
					"outputs": [
						{
							"internalType": "uint256[]",
							"name": "",
							"type": "uint256[]"
						}
					],
					"stateMutability": "view",
					"type": "function"
				},
				{
					"inputs": [
						{
							"internalType": "address",
							"name": "owner",
							"type": "address"
						},
						{
							"internalType": "address",
							"name": "operator",
							"type": "address"
						}
					],
					"name": "isApprovedForAll",
					"outputs": [
						{
							"internalType": "bool",
							"name": "",
							"type": "bool"
						}
					],
					"stateMutability": "view",
					"type": "function"
				},
				{
					"inputs": [
						{
							"internalType": "uint256",
							"name": "tokenId",
							"type": "uint256"
						},
						{
							"internalType": "address",
							"name": "owner",
							"type": "address"
						}
					],
					"name": "isTokenLocked",
					"outputs": [
						{
							"internalType": "uint256",
							"name": "",
							"type": "uint256"
						}
					],
					"stateMutability": "view",
					"type": "function"
				},
				{
					"inputs": [
						{
							"internalType": "address",
							"name": "",
							"type": "address"
						},
						{
							"internalType": "uint256",
							"name": "",
							"type": "uint256"
						}
					],
					"name": "lockedTokens",
					"outputs": [
						{
							"internalType": "uint256",
							"name": "",
							"type": "uint256"
						}
					],
					"stateMutability": "view",
					"type": "function"
				},
				{
					"inputs": [
						{
							"internalType": "address",
							"name": "from",
							"type": "address"
						},
						{
							"internalType": "address",
							"name": "to",
							"type": "address"
						},
						{
							"internalType": "uint256[]",
							"name": "ids",
							"type": "uint256[]"
						},
						{
							"internalType": "uint256[]",
							"name": "amounts",
							"type": "uint256[]"
						},
						{
							"internalType": "bytes",
							"name": "data",
							"type": "bytes"
						}
					],
					"name": "safeBatchTransferFrom",
					"outputs": [],
					"stateMutability": "nonpayable",
					"type": "function"
				},
				{
					"inputs": [
						{
							"internalType": "address",
							"name": "from",
							"type": "address"
						},
						{
							"internalType": "address",
							"name": "to",
							"type": "address"
						},
						{
							"internalType": "uint256",
							"name": "id",
							"type": "uint256"
						},
						{
							"internalType": "uint256",
							"name": "amount",
							"type": "uint256"
						},
						{
							"internalType": "bytes",
							"name": "data",
							"type": "bytes"
						}
					],
					"name": "safeTransferFrom",
					"outputs": [],
					"stateMutability": "nonpayable",
					"type": "function"
				},
				{
					"inputs": [
						{
							"internalType": "address",
							"name": "operator",
							"type": "address"
						},
						{
							"internalType": "bool",
							"name": "approved",
							"type": "bool"
						}
					],
					"name": "setApprovalForAll",
					"outputs": [],
					"stateMutability": "nonpayable",
					"type": "function"
				},
				{
					"inputs": [
						{
							"internalType": "bytes4",
							"name": "interfaceId",
							"type": "bytes4"
						}
					],
					"name": "supportsInterface",
					"outputs": [
						{
							"internalType": "bool",
							"name": "",
							"type": "bool"
						}
					],
					"stateMutability": "view",
					"type": "function"
				},
				{
					"inputs": [
						{
							"internalType": "uint256",
							"name": "id",
							"type": "uint256"
						}
					],
					"name": "totalSupply",
					"outputs": [
						{
							"internalType": "uint256",
							"name": "",
							"type": "uint256"
						}
					],
					"stateMutability": "view",
					"type": "function"
				},
				{
					"inputs": [
						{
							"internalType": "uint256",
							"name": "",
							"type": "uint256"
						}
					],
					"name": "uri",
					"outputs": [
						{
							"internalType": "string",
							"name": "",
							"type": "string"
						}
					],
					"stateMutability": "view",
					"type": "function"
				}
			],
			"devdoc": {
				"kind": "dev",
				"methods": {},
				"version": 1
			},
			"evm": {
				"assembly": "    /* \"KIP37/KIP37.sol\":322:14844  contract KIP37 is Context, KIP13, IKIP37, IKIP37MetadataURI {... */\n  mstore(0x40, 0x80)\n    /* \"KIP37/KIP37.sol\":757:773  constructor() {} */\n  callvalue\n  dup1\n  iszero\n  tag_1\n  jumpi\n  0x00\n  dup1\n  revert\ntag_1:\n  pop\n    /* \"KIP37/KIP37.sol\":322:14844  contract KIP37 is Context, KIP13, IKIP37, IKIP37MetadataURI {... */\n  dataSize(sub_0)\n  dup1\n  dataOffset(sub_0)\n  0x00\n  codecopy\n  0x00\n  return\nstop\n\nsub_0: assembly {\n        /* \"KIP37/KIP37.sol\":322:14844  contract KIP37 is Context, KIP13, IKIP37, IKIP37MetadataURI {... */\n      mstore(0x40, 0x80)\n      callvalue\n      dup1\n      iszero\n      tag_1\n      jumpi\n      0x00\n      dup1\n      revert\n    tag_1:\n      pop\n      jumpi(tag_2, lt(calldatasize, 0x04))\n      shr(0xe0, calldataload(0x00))\n      dup1\n      0x53719b6e\n      gt\n      tag_14\n      jumpi\n      dup1\n      0x53719b6e\n      eq\n      tag_8\n      jumpi\n      dup1\n      0xa22cb465\n      eq\n      tag_9\n      jumpi\n      dup1\n      0xb56cf84f\n      eq\n      tag_10\n      jumpi\n      dup1\n      0xbd85b039\n      eq\n      tag_11\n      jumpi\n      dup1\n      0xe985e9c5\n      eq\n      tag_12\n      jumpi\n      dup1\n      0xf242432a\n      eq\n      tag_13\n      jumpi\n      0x00\n      dup1\n      revert\n    tag_14:\n      dup1\n      0xfdd58e\n      eq\n      tag_3\n      jumpi\n      dup1\n      0x01ffc9a7\n      eq\n      tag_4\n      jumpi\n      dup1\n      0x0e89341c\n      eq\n      tag_5\n      jumpi\n      dup1\n      0x2eb2c2d6\n      eq\n      tag_6\n      jumpi\n      dup1\n      0x4e1273f4\n      eq\n      tag_7\n      jumpi\n    tag_2:\n      0x00\n      dup1\n      revert\n        /* \"KIP37/KIP37.sol\":1322:1541  function balanceOf(address owner, uint256 id) public view virtual override returns (uint256) {... */\n    tag_3:\n      tag_15\n      tag_16\n      calldatasize\n      0x04\n      tag_17\n      jump\t// in\n    tag_16:\n      tag_18\n      jump\t// in\n    tag_15:\n      mload(0x40)\n        /* \"#utility.yul\":597:622   */\n      swap1\n      dup2\n      mstore\n        /* \"#utility.yul\":585:587   */\n      0x20\n        /* \"#utility.yul\":570:588   */\n      add\n        /* \"KIP37/KIP37.sol\":1322:1541  function balanceOf(address owner, uint256 id) public view virtual override returns (uint256) {... */\n    tag_19:\n      mload(0x40)\n      dup1\n      swap2\n      sub\n      swap1\n      return\n        /* \"KIP37/KIP37.sol\":783:1082  function supportsInterface(bytes4 interfaceId) public view virtual override(KIP13, IKIP13) returns (bool) {... */\n    tag_4:\n      tag_21\n      tag_22\n      calldatasize\n      0x04\n      tag_23\n      jump\t// in\n    tag_22:\n      tag_24\n      jump\t// in\n    tag_21:\n      mload(0x40)\n        /* \"#utility.yul\":1184:1198   */\n      swap1\n      iszero\n        /* \"#utility.yul\":1177:1199   */\n      iszero\n        /* \"#utility.yul\":1159:1200   */\n      dup2\n      mstore\n        /* \"#utility.yul\":1147:1149   */\n      0x20\n        /* \"#utility.yul\":1132:1150   */\n      add\n        /* \"KIP37/KIP37.sol\":783:1082  function supportsInterface(bytes4 interfaceId) public view virtual override(KIP13, IKIP13) returns (bool) {... */\n      tag_19\n        /* \"#utility.yul\":1019:1206   */\n      jump\n        /* \"KIP37/KIP37.sol\":1087:1190  function uri(uint256) public view virtual override returns (string memory) {... */\n    tag_5:\n      tag_27\n      tag_28\n      calldatasize\n      0x04\n      tag_29\n      jump\t// in\n    tag_28:\n      tag_30\n      jump\t// in\n    tag_27:\n      mload(0x40)\n      tag_19\n      swap2\n      swap1\n      tag_32\n      jump\t// in\n        /* \"KIP37/KIP37.sol\":2913:3341  function safeBatchTransferFrom(... */\n    tag_6:\n      tag_33\n      tag_34\n      calldatasize\n      0x04\n      tag_35\n      jump\t// in\n    tag_34:\n      tag_36\n      jump\t// in\n    tag_33:\n      stop\n        /* \"KIP37/KIP37.sol\":1691:2185  function balanceOfBatch(address[] memory owners, uint256[] memory ids)... */\n    tag_7:\n      tag_37\n      tag_38\n      calldatasize\n      0x04\n      tag_39\n      jump\t// in\n    tag_38:\n      tag_40\n      jump\t// in\n    tag_37:\n      mload(0x40)\n      tag_19\n      swap2\n      swap1\n      tag_42\n      jump\t// in\n        /* \"KIP37/KIP37.sol\":657:724  mapping(address => mapping(uint256 => uint256)) public lockedTokens */\n    tag_8:\n      tag_15\n      tag_44\n      calldatasize\n      0x04\n      tag_17\n      jump\t// in\n    tag_44:\n      0x03\n      0x20\n      swap1\n      dup2\n      mstore\n      0x00\n      swap3\n      dup4\n      mstore\n      0x40\n      dup1\n      dup5\n      keccak256\n      swap1\n      swap2\n      mstore\n      swap1\n      dup3\n      mstore\n      swap1\n      keccak256\n      sload\n      dup2\n      jump\n        /* \"KIP37/KIP37.sol\":2192:2345  function setApprovalForAll(address operator, bool approved) public virtual override {... */\n    tag_9:\n      tag_33\n      tag_48\n      calldatasize\n      0x04\n      tag_49\n      jump\t// in\n    tag_48:\n      tag_50\n      jump\t// in\n        /* \"KIP37/KIP37.sol\":1547:1684  function isTokenLocked(uint256 tokenId, address owner) public view returns (uint256) {... */\n    tag_10:\n      tag_15\n      tag_52\n      calldatasize\n      0x04\n      tag_53\n      jump\t// in\n    tag_52:\n      sub(shl(0xa0, 0x01), 0x01)\n        /* \"KIP37/KIP37.sol\":1649:1668  lockedTokens[owner] */\n      and\n        /* \"KIP37/KIP37.sol\":1623:1630  uint256 */\n      0x00\n        /* \"KIP37/KIP37.sol\":1649:1668  lockedTokens[owner] */\n      swap1\n      dup2\n      mstore\n        /* \"KIP37/KIP37.sol\":1649:1661  lockedTokens */\n      0x03\n        /* \"KIP37/KIP37.sol\":1649:1668  lockedTokens[owner] */\n      0x20\n      swap1\n      dup2\n      mstore\n      0x40\n      dup1\n      dup4\n      keccak256\n        /* \"KIP37/KIP37.sol\":1649:1677  lockedTokens[owner][tokenId] */\n      swap4\n      dup4\n      mstore\n      swap3\n      swap1\n      mstore\n      keccak256\n      sload\n      swap1\n        /* \"KIP37/KIP37.sol\":1547:1684  function isTokenLocked(uint256 tokenId, address owner) public view returns (uint256) {... */\n      jump\n        /* \"KIP37/KIP37.sol\":1196:1316  function totalSupply(uint256 id) public view virtual override returns (uint256) {... */\n    tag_11:\n      tag_15\n      tag_57\n      calldatasize\n      0x04\n      tag_29\n      jump\t// in\n    tag_57:\n        /* \"KIP37/KIP37.sol\":1267:1274  uint256 */\n      0x00\n        /* \"KIP37/KIP37.sol\":1293:1309  _totalSupply[id] */\n      swap1\n      dup2\n      mstore\n        /* \"KIP37/KIP37.sol\":1293:1305  _totalSupply */\n      0x01\n        /* \"KIP37/KIP37.sol\":1293:1309  _totalSupply[id] */\n      0x20\n      mstore\n      0x40\n      swap1\n      keccak256\n      sload\n      swap1\n        /* \"KIP37/KIP37.sol\":1196:1316  function totalSupply(uint256 id) public view virtual override returns (uint256) {... */\n      jump\n        /* \"KIP37/KIP37.sol\":2352:2514  function isApprovedForAll(address owner, address operator) public view virtual override returns (bool) {... */\n    tag_12:\n      tag_21\n      tag_61\n      calldatasize\n      0x04\n      tag_62\n      jump\t// in\n    tag_61:\n      sub(shl(0xa0, 0x01), 0x01)\n        /* \"KIP37/KIP37.sol\":2472:2497  _operatorApprovals[owner] */\n      swap2\n      dup3\n      and\n        /* \"KIP37/KIP37.sol\":2449:2453  bool */\n      0x00\n        /* \"KIP37/KIP37.sol\":2472:2497  _operatorApprovals[owner] */\n      swap1\n      dup2\n      mstore\n        /* \"KIP37/KIP37.sol\":2472:2490  _operatorApprovals */\n      0x02\n        /* \"KIP37/KIP37.sol\":2472:2497  _operatorApprovals[owner] */\n      0x20\n      swap1\n      dup2\n      mstore\n      0x40\n      dup1\n      dup4\n      keccak256\n        /* \"KIP37/KIP37.sol\":2472:2507  _operatorApprovals[owner][operator] */\n      swap4\n      swap1\n      swap5\n      and\n      dup3\n      mstore\n      swap2\n      swap1\n      swap2\n      mstore\n      keccak256\n      sload\n      0xff\n      and\n      swap1\n        /* \"KIP37/KIP37.sol\":2352:2514  function isApprovedForAll(address owner, address operator) public view virtual override returns (bool) {... */\n      jump\n        /* \"KIP37/KIP37.sol\":2520:2907  function safeTransferFrom(... */\n    tag_13:\n      tag_33\n      tag_66\n      calldatasize\n      0x04\n      tag_67\n      jump\t// in\n    tag_66:\n      tag_68\n      jump\t// in\n        /* \"KIP37/KIP37.sol\":1322:1541  function balanceOf(address owner, uint256 id) public view virtual override returns (uint256) {... */\n    tag_18:\n        /* \"KIP37/KIP37.sol\":1406:1413  uint256 */\n      0x00\n      sub(shl(0xa0, 0x01), 0x01)\n        /* \"KIP37/KIP37.sol\":1433:1452  owner != address(0) */\n      dup4\n      and\n        /* \"KIP37/KIP37.sol\":1425:1497  require(owner != address(0), \"KIP37: address zero is not a valid owner\") */\n      tag_70\n      jumpi\n      mload(0x40)\n      shl(0xe5, 0x461bcd)\n      dup2\n      mstore\n        /* \"#utility.yul\":8345:8347   */\n      0x20\n        /* \"KIP37/KIP37.sol\":1425:1497  require(owner != address(0), \"KIP37: address zero is not a valid owner\") */\n      0x04\n      dup3\n      add\n        /* \"#utility.yul\":8327:8348   */\n      mstore\n        /* \"#utility.yul\":8384:8386   */\n      0x28\n        /* \"#utility.yul\":8364:8382   */\n      0x24\n      dup3\n      add\n        /* \"#utility.yul\":8357:8387   */\n      mstore\n        /* \"#utility.yul\":8423:8457   */\n      0x4b495033373a2061646472657373207a65726f206973206e6f7420612076616c\n        /* \"#utility.yul\":8403:8421   */\n      0x44\n      dup3\n      add\n        /* \"#utility.yul\":8396:8458   */\n      mstore\n      shl(0xc1, 0x34b21037bbb732b9)\n        /* \"#utility.yul\":8474:8492   */\n      0x64\n      dup3\n      add\n        /* \"#utility.yul\":8467:8505   */\n      mstore\n        /* \"#utility.yul\":8522:8541   */\n      0x84\n      add\n        /* \"KIP37/KIP37.sol\":1425:1497  require(owner != address(0), \"KIP37: address zero is not a valid owner\") */\n    tag_71:\n      mload(0x40)\n      dup1\n      swap2\n      sub\n      swap1\n      revert\n    tag_70:\n      pop\n        /* \"KIP37/KIP37.sol\":1514:1523  _balances */\n      0x00\n        /* \"KIP37/KIP37.sol\":1514:1527  _balances[id] */\n      dup2\n      dup2\n      mstore\n      0x20\n      dup2\n      dup2\n      mstore\n      0x40\n      dup1\n      dup4\n      keccak256\n      sub(shl(0xa0, 0x01), 0x01)\n        /* \"KIP37/KIP37.sol\":1514:1534  _balances[id][owner] */\n      dup7\n      and\n      dup5\n      mstore\n      swap1\n      swap2\n      mstore\n      swap1\n      keccak256\n      sload\n        /* \"KIP37/KIP37.sol\":1322:1541  function balanceOf(address owner, uint256 id) public view virtual override returns (uint256) {... */\n    tag_69:\n      swap3\n      swap2\n      pop\n      pop\n      jump\t// out\n        /* \"KIP37/KIP37.sol\":783:1082  function supportsInterface(bytes4 interfaceId) public view virtual override(KIP13, IKIP13) returns (bool) {... */\n    tag_24:\n        /* \"KIP37/KIP37.sol\":883:887  bool */\n      0x00\n      not(sub(shl(0xe0, 0x01), 0x01))\n        /* \"KIP37/KIP37.sol\":918:957  interfaceId == type(IKIP37).interfaceId */\n      dup3\n      and\n      shl(0xe0, 0x6433ca1f)\n      eq\n      dup1\n        /* \"KIP37/KIP37.sol\":918:1023  interfaceId == type(IKIP37).interfaceId ||... */\n      tag_74\n      jumpi\n      pop\n      not(sub(shl(0xe0, 0x01), 0x01))\n        /* \"KIP37/KIP37.sol\":973:1023  interfaceId == type(IKIP37MetadataURI).interfaceId */\n      dup3\n      and\n      shl(0xe2, 0x03a24d07)\n      eq\n        /* \"KIP37/KIP37.sol\":918:1023  interfaceId == type(IKIP37).interfaceId ||... */\n    tag_74:\n        /* \"KIP37/KIP37.sol\":918:1075  interfaceId == type(IKIP37).interfaceId ||... */\n      dup1\n      tag_69\n      jumpi\n      pop\n      shl(0xe0, 0x01ffc9a7)\n      not(sub(shl(0xe0, 0x01), 0x01))\n        /* \"KIP17/introspection/KIP13.sol\":240:279  interfaceId == type(IKIP13).interfaceId */\n      dup4\n      and\n      eq\n        /* \"KIP37/KIP37.sol\":1039:1075  KIP13.supportsInterface(interfaceId) */\n      tag_69\n        /* \"KIP17/introspection/KIP13.sol\":132:286  function supportsInterface(bytes4 interfaceId) public view virtual override returns (bool) {... */\n      jump\n        /* \"KIP37/KIP37.sol\":1087:1190  function uri(uint256) public view virtual override returns (string memory) {... */\n    tag_30:\n        /* \"KIP37/KIP37.sol\":1147:1160  string memory */\n      0x60\n        /* \"KIP37/KIP37.sol\":1179:1183  _uri */\n      0x04\n        /* \"KIP37/KIP37.sol\":1172:1183  return _uri */\n      dup1\n      sload\n      tag_79\n      swap1\n      tag_80\n      jump\t// in\n    tag_79:\n      dup1\n      0x1f\n      add\n      0x20\n      dup1\n      swap2\n      div\n      mul\n      0x20\n      add\n      mload(0x40)\n      swap1\n      dup2\n      add\n      0x40\n      mstore\n      dup1\n      swap3\n      swap2\n      swap1\n      dup2\n      dup2\n      mstore\n      0x20\n      add\n      dup3\n      dup1\n      sload\n      tag_81\n      swap1\n      tag_80\n      jump\t// in\n    tag_81:\n      dup1\n      iszero\n      tag_82\n      jumpi\n      dup1\n      0x1f\n      lt\n      tag_83\n      jumpi\n      0x0100\n      dup1\n      dup4\n      sload\n      div\n      mul\n      dup4\n      mstore\n      swap2\n      0x20\n      add\n      swap2\n      jump(tag_82)\n    tag_83:\n      dup3\n      add\n      swap2\n      swap1\n      0x00\n      mstore\n      keccak256(0x00, 0x20)\n      swap1\n    tag_84:\n      dup2\n      sload\n      dup2\n      mstore\n      swap1\n      0x01\n      add\n      swap1\n      0x20\n      add\n      dup1\n      dup4\n      gt\n      tag_84\n      jumpi\n      dup3\n      swap1\n      sub\n      0x1f\n      and\n      dup3\n      add\n      swap2\n    tag_82:\n      pop\n      pop\n      pop\n      pop\n      pop\n      swap1\n      pop\n        /* \"KIP37/KIP37.sol\":1087:1190  function uri(uint256) public view virtual override returns (string memory) {... */\n      swap2\n      swap1\n      pop\n      jump\t// out\n        /* \"KIP37/KIP37.sol\":2913:3341  function safeBatchTransferFrom(... */\n    tag_36:\n      sub(shl(0xa0, 0x01), 0x01)\n        /* \"KIP37/KIP37.sol\":3138:3158  from == _msgSender() */\n      dup6\n      and\n        /* \"KIP37/utils/Context.sol\":169:179  msg.sender */\n      caller\n        /* \"KIP37/KIP37.sol\":3138:3158  from == _msgSender() */\n      eq\n      dup1\n        /* \"KIP37/KIP37.sol\":3138:3198  from == _msgSender() || isApprovedForAll(from, _msgSender()) */\n      tag_89\n      jumpi\n      pop\n        /* \"KIP37/KIP37.sol\":3162:3198  isApprovedForAll(from, _msgSender()) */\n      tag_89\n        /* \"KIP37/KIP37.sol\":3179:3183  from */\n      dup6\n        /* \"KIP37/utils/Context.sol\":169:179  msg.sender */\n      caller\n        /* \"KIP37/KIP37.sol\":2352:2514  function isApprovedForAll(address owner, address operator) public view virtual override returns (bool) {... */\n      tag_61\n      jump\t// in\n        /* \"KIP37/KIP37.sol\":3162:3198  isApprovedForAll(from, _msgSender()) */\n    tag_89:\n        /* \"KIP37/KIP37.sol\":3117:3272  require(... */\n      tag_91\n      jumpi\n      mload(0x40)\n      shl(0xe5, 0x461bcd)\n      dup2\n      mstore\n        /* \"#utility.yul\":9139:9141   */\n      0x20\n        /* \"KIP37/KIP37.sol\":3117:3272  require(... */\n      0x04\n      dup3\n      add\n        /* \"#utility.yul\":9121:9142   */\n      mstore\n        /* \"#utility.yul\":9178:9180   */\n      0x30\n        /* \"#utility.yul\":9158:9176   */\n      0x24\n      dup3\n      add\n        /* \"#utility.yul\":9151:9181   */\n      mstore\n        /* \"#utility.yul\":9217:9251   */\n      0x4b495033373a207472616e736665722063616c6c6572206973206e6f74206f77\n        /* \"#utility.yul\":9197:9215   */\n      0x44\n      dup3\n      add\n        /* \"#utility.yul\":9190:9252   */\n      mstore\n      shl(0x82, 0x1b995c881b9bdc88185c1c1c9bdd9959)\n        /* \"#utility.yul\":9268:9286   */\n      0x64\n      dup3\n      add\n        /* \"#utility.yul\":9261:9307   */\n      mstore\n        /* \"#utility.yul\":9324:9343   */\n      0x84\n      add\n        /* \"KIP37/KIP37.sol\":3117:3272  require(... */\n      tag_71\n        /* \"#utility.yul\":8937:9349   */\n      jump\n        /* \"KIP37/KIP37.sol\":3117:3272  require(... */\n    tag_91:\n        /* \"KIP37/KIP37.sol\":3282:3334  _safeBatchTransferFrom(from, to, ids, amounts, data) */\n      tag_94\n        /* \"KIP37/KIP37.sol\":3305:3309  from */\n      dup6\n        /* \"KIP37/KIP37.sol\":3311:3313  to */\n      dup6\n        /* \"KIP37/KIP37.sol\":3315:3318  ids */\n      dup6\n        /* \"KIP37/KIP37.sol\":3320:3327  amounts */\n      dup6\n        /* \"KIP37/KIP37.sol\":3329:3333  data */\n      dup6\n        /* \"KIP37/KIP37.sol\":3282:3304  _safeBatchTransferFrom */\n      tag_95\n        /* \"KIP37/KIP37.sol\":3282:3334  _safeBatchTransferFrom(from, to, ids, amounts, data) */\n      jump\t// in\n    tag_94:\n        /* \"KIP37/KIP37.sol\":2913:3341  function safeBatchTransferFrom(... */\n      pop\n      pop\n      pop\n      pop\n      pop\n      jump\t// out\n        /* \"KIP37/KIP37.sol\":1691:2185  function balanceOfBatch(address[] memory owners, uint256[] memory ids)... */\n    tag_40:\n        /* \"KIP37/KIP37.sol\":1840:1856  uint256[] memory */\n      0x60\n        /* \"KIP37/KIP37.sol\":1897:1900  ids */\n      dup2\n        /* \"KIP37/KIP37.sol\":1897:1907  ids.length */\n      mload\n        /* \"KIP37/KIP37.sol\":1880:1886  owners */\n      dup4\n        /* \"KIP37/KIP37.sol\":1880:1893  owners.length */\n      mload\n        /* \"KIP37/KIP37.sol\":1880:1907  owners.length == ids.length */\n      eq\n        /* \"KIP37/KIP37.sol\":1872:1949  require(owners.length == ids.length, \"KIP37: owners and ids length mismatch\") */\n      tag_97\n      jumpi\n      mload(0x40)\n      shl(0xe5, 0x461bcd)\n      dup2\n      mstore\n        /* \"#utility.yul\":9556:9558   */\n      0x20\n        /* \"KIP37/KIP37.sol\":1872:1949  require(owners.length == ids.length, \"KIP37: owners and ids length mismatch\") */\n      0x04\n      dup3\n      add\n        /* \"#utility.yul\":9538:9559   */\n      mstore\n        /* \"#utility.yul\":9595:9597   */\n      0x25\n        /* \"#utility.yul\":9575:9593   */\n      0x24\n      dup3\n      add\n        /* \"#utility.yul\":9568:9598   */\n      mstore\n        /* \"#utility.yul\":9634:9668   */\n      0x4b495033373a206f776e65727320616e6420696473206c656e677468206d6973\n        /* \"#utility.yul\":9614:9632   */\n      0x44\n      dup3\n      add\n        /* \"#utility.yul\":9607:9669   */\n      mstore\n      shl(0xdb, 0x0dac2e8c6d)\n        /* \"#utility.yul\":9685:9703   */\n      0x64\n      dup3\n      add\n        /* \"#utility.yul\":9678:9713   */\n      mstore\n        /* \"#utility.yul\":9730:9749   */\n      0x84\n      add\n        /* \"KIP37/KIP37.sol\":1872:1949  require(owners.length == ids.length, \"KIP37: owners and ids length mismatch\") */\n      tag_71\n        /* \"#utility.yul\":9354:9755   */\n      jump\n        /* \"KIP37/KIP37.sol\":1872:1949  require(owners.length == ids.length, \"KIP37: owners and ids length mismatch\") */\n    tag_97:\n        /* \"KIP37/KIP37.sol\":1960:1990  uint256[] memory batchBalances */\n      0x00\n        /* \"KIP37/KIP37.sol\":2007:2013  owners */\n      dup4\n        /* \"KIP37/KIP37.sol\":2007:2020  owners.length */\n      mload\n        /* \"KIP37/KIP37.sol\":1993:2021  new uint256[](owners.length) */\n      0xffffffffffffffff\n      dup2\n      gt\n      iszero\n      tag_101\n      jumpi\n      tag_101\n      tag_102\n      jump\t// in\n    tag_101:\n      mload(0x40)\n      swap1\n      dup1\n      dup3\n      mstore\n      dup1\n      0x20\n      mul\n      0x20\n      add\n      dup3\n      add\n      0x40\n      mstore\n      dup1\n      iszero\n      tag_103\n      jumpi\n      dup2\n      0x20\n      add\n      0x20\n      dup3\n      mul\n      dup1\n      calldatasize\n      dup4\n      calldatacopy\n      add\n      swap1\n      pop\n    tag_103:\n      pop\n        /* \"KIP37/KIP37.sol\":1960:2021  uint256[] memory batchBalances = new uint256[](owners.length) */\n      swap1\n      pop\n        /* \"KIP37/KIP37.sol\":2037:2046  uint256 i */\n      0x00\n        /* \"KIP37/KIP37.sol\":2032:2148  for (uint256 i = 0; i < owners.length; ++i) {... */\n    tag_104:\n        /* \"KIP37/KIP37.sol\":2056:2062  owners */\n      dup5\n        /* \"KIP37/KIP37.sol\":2056:2069  owners.length */\n      mload\n        /* \"KIP37/KIP37.sol\":2052:2053  i */\n      dup2\n        /* \"KIP37/KIP37.sol\":2052:2069  i < owners.length */\n      lt\n        /* \"KIP37/KIP37.sol\":2032:2148  for (uint256 i = 0; i < owners.length; ++i) {... */\n      iszero\n      tag_105\n      jumpi\n        /* \"KIP37/KIP37.sol\":2109:2137  balanceOf(owners[i], ids[i]) */\n      tag_107\n        /* \"KIP37/KIP37.sol\":2119:2125  owners */\n      dup6\n        /* \"KIP37/KIP37.sol\":2126:2127  i */\n      dup3\n        /* \"KIP37/KIP37.sol\":2119:2128  owners[i] */\n      dup2\n      mload\n      dup2\n      lt\n      tag_109\n      jumpi\n      tag_109\n      tag_110\n      jump\t// in\n    tag_109:\n      0x20\n      mul\n      0x20\n      add\n      add\n      mload\n        /* \"KIP37/KIP37.sol\":2130:2133  ids */\n      dup6\n        /* \"KIP37/KIP37.sol\":2134:2135  i */\n      dup4\n        /* \"KIP37/KIP37.sol\":2130:2136  ids[i] */\n      dup2\n      mload\n      dup2\n      lt\n      tag_112\n      jumpi\n      tag_112\n      tag_110\n      jump\t// in\n    tag_112:\n      0x20\n      mul\n      0x20\n      add\n      add\n      mload\n        /* \"KIP37/KIP37.sol\":2109:2118  balanceOf */\n      tag_18\n        /* \"KIP37/KIP37.sol\":2109:2137  balanceOf(owners[i], ids[i]) */\n      jump\t// in\n    tag_107:\n        /* \"KIP37/KIP37.sol\":2090:2103  batchBalances */\n      dup3\n        /* \"KIP37/KIP37.sol\":2104:2105  i */\n      dup3\n        /* \"KIP37/KIP37.sol\":2090:2106  batchBalances[i] */\n      dup2\n      mload\n      dup2\n      lt\n      tag_114\n      jumpi\n      tag_114\n      tag_110\n      jump\t// in\n    tag_114:\n      0x20\n      swap1\n      dup2\n      mul\n      swap2\n      swap1\n      swap2\n      add\n      add\n        /* \"KIP37/KIP37.sol\":2090:2137  batchBalances[i] = balanceOf(owners[i], ids[i]) */\n      mstore\n        /* \"KIP37/KIP37.sol\":2071:2074  ++i */\n      tag_115\n      dup2\n      tag_116\n      jump\t// in\n    tag_115:\n      swap1\n      pop\n        /* \"KIP37/KIP37.sol\":2032:2148  for (uint256 i = 0; i < owners.length; ++i) {... */\n      jump(tag_104)\n    tag_105:\n      pop\n        /* \"KIP37/KIP37.sol\":2165:2178  batchBalances */\n      swap4\n        /* \"KIP37/KIP37.sol\":1691:2185  function balanceOfBatch(address[] memory owners, uint256[] memory ids)... */\n      swap3\n      pop\n      pop\n      pop\n      jump\t// out\n        /* \"KIP37/KIP37.sol\":2192:2345  function setApprovalForAll(address operator, bool approved) public virtual override {... */\n    tag_50:\n        /* \"KIP37/KIP37.sol\":2286:2338  _setApprovalForAll(_msgSender(), operator, approved) */\n      tag_118\n        /* \"KIP37/utils/Context.sol\":169:179  msg.sender */\n      caller\n        /* \"KIP37/KIP37.sol\":2319:2327  operator */\n      dup4\n        /* \"KIP37/KIP37.sol\":2329:2337  approved */\n      dup4\n        /* \"KIP37/KIP37.sol\":2286:2304  _setApprovalForAll */\n      tag_120\n        /* \"KIP37/KIP37.sol\":2286:2338  _setApprovalForAll(_msgSender(), operator, approved) */\n      jump\t// in\n    tag_118:\n        /* \"KIP37/KIP37.sol\":2192:2345  function setApprovalForAll(address operator, bool approved) public virtual override {... */\n      pop\n      pop\n      jump\t// out\n        /* \"KIP37/KIP37.sol\":2520:2907  function safeTransferFrom(... */\n    tag_68:\n      sub(shl(0xa0, 0x01), 0x01)\n        /* \"KIP37/KIP37.sol\":2720:2740  from == _msgSender() */\n      dup6\n      and\n        /* \"KIP37/utils/Context.sol\":169:179  msg.sender */\n      caller\n        /* \"KIP37/KIP37.sol\":2720:2740  from == _msgSender() */\n      eq\n      dup1\n        /* \"KIP37/KIP37.sol\":2720:2780  from == _msgSender() || isApprovedForAll(from, _msgSender()) */\n      tag_127\n      jumpi\n      pop\n        /* \"KIP37/KIP37.sol\":2744:2780  isApprovedForAll(from, _msgSender()) */\n      tag_127\n        /* \"KIP37/KIP37.sol\":2761:2765  from */\n      dup6\n        /* \"KIP37/utils/Context.sol\":169:179  msg.sender */\n      caller\n        /* \"KIP37/KIP37.sol\":2352:2514  function isApprovedForAll(address owner, address operator) public view virtual override returns (bool) {... */\n      tag_61\n      jump\t// in\n        /* \"KIP37/KIP37.sol\":2744:2780  isApprovedForAll(from, _msgSender()) */\n    tag_127:\n        /* \"KIP37/KIP37.sol\":2699:2845  require(... */\n      tag_129\n      jumpi\n      mload(0x40)\n      shl(0xe5, 0x461bcd)\n      dup2\n      mstore\n        /* \"#utility.yul\":10366:10368   */\n      0x20\n        /* \"KIP37/KIP37.sol\":2699:2845  require(... */\n      0x04\n      dup3\n      add\n        /* \"#utility.yul\":10348:10369   */\n      mstore\n        /* \"#utility.yul\":10405:10407   */\n      0x27\n        /* \"#utility.yul\":10385:10403   */\n      0x24\n      dup3\n      add\n        /* \"#utility.yul\":10378:10408   */\n      mstore\n        /* \"#utility.yul\":10444:10478   */\n      0x4b495033373a2063616c6c6572206973206e6f74206f776e6572206e6f722061\n        /* \"#utility.yul\":10424:10442   */\n      0x44\n      dup3\n      add\n        /* \"#utility.yul\":10417:10479   */\n      mstore\n      shl(0xca, 0x1c1c1c9bdd9959)\n        /* \"#utility.yul\":10495:10513   */\n      0x64\n      dup3\n      add\n        /* \"#utility.yul\":10488:10525   */\n      mstore\n        /* \"#utility.yul\":10542:10561   */\n      0x84\n      add\n        /* \"KIP37/KIP37.sol\":2699:2845  require(... */\n      tag_71\n        /* \"#utility.yul\":10164:10567   */\n      jump\n        /* \"KIP37/KIP37.sol\":2699:2845  require(... */\n    tag_129:\n        /* \"KIP37/KIP37.sol\":2855:2900  _safeTransferFrom(from, to, id, amount, data) */\n      tag_94\n        /* \"KIP37/KIP37.sol\":2873:2877  from */\n      dup6\n        /* \"KIP37/KIP37.sol\":2879:2881  to */\n      dup6\n        /* \"KIP37/KIP37.sol\":2883:2885  id */\n      dup6\n        /* \"KIP37/KIP37.sol\":2887:2893  amount */\n      dup6\n        /* \"KIP37/KIP37.sol\":2895:2899  data */\n      dup6\n        /* \"KIP37/KIP37.sol\":2855:2872  _safeTransferFrom */\n      tag_133\n        /* \"KIP37/KIP37.sol\":2855:2900  _safeTransferFrom(from, to, id, amount, data) */\n      jump\t// in\n        /* \"KIP37/KIP37.sol\":4296:5405  function _safeBatchTransferFrom(... */\n    tag_95:\n        /* \"KIP37/KIP37.sol\":4516:4523  amounts */\n      dup2\n        /* \"KIP37/KIP37.sol\":4516:4530  amounts.length */\n      mload\n        /* \"KIP37/KIP37.sol\":4502:4505  ids */\n      dup4\n        /* \"KIP37/KIP37.sol\":4502:4512  ids.length */\n      mload\n        /* \"KIP37/KIP37.sol\":4502:4530  ids.length == amounts.length */\n      eq\n        /* \"KIP37/KIP37.sol\":4494:4573  require(ids.length == amounts.length, \"KIP37: ids and amounts length mismatch\") */\n      tag_137\n      jumpi\n      mload(0x40)\n      shl(0xe5, 0x461bcd)\n      dup2\n      mstore\n        /* \"#utility.yul\":10774:10776   */\n      0x20\n        /* \"KIP37/KIP37.sol\":4494:4573  require(ids.length == amounts.length, \"KIP37: ids and amounts length mismatch\") */\n      0x04\n      dup3\n      add\n        /* \"#utility.yul\":10756:10777   */\n      mstore\n        /* \"#utility.yul\":10813:10815   */\n      0x26\n        /* \"#utility.yul\":10793:10811   */\n      0x24\n      dup3\n      add\n        /* \"#utility.yul\":10786:10816   */\n      mstore\n        /* \"#utility.yul\":10852:10886   */\n      0x4b495033373a2069647320616e6420616d6f756e7473206c656e677468206d69\n        /* \"#utility.yul\":10832:10850   */\n      0x44\n      dup3\n      add\n        /* \"#utility.yul\":10825:10887   */\n      mstore\n      shl(0xd3, 0x0e6dac2e8c6d)\n        /* \"#utility.yul\":10903:10921   */\n      0x64\n      dup3\n      add\n        /* \"#utility.yul\":10896:10932   */\n      mstore\n        /* \"#utility.yul\":10949:10968   */\n      0x84\n      add\n        /* \"KIP37/KIP37.sol\":4494:4573  require(ids.length == amounts.length, \"KIP37: ids and amounts length mismatch\") */\n      tag_71\n        /* \"#utility.yul\":10572:10974   */\n      jump\n        /* \"KIP37/KIP37.sol\":4494:4573  require(ids.length == amounts.length, \"KIP37: ids and amounts length mismatch\") */\n    tag_137:\n      sub(shl(0xa0, 0x01), 0x01)\n        /* \"KIP37/KIP37.sol\":4591:4607  to != address(0) */\n      dup5\n      and\n        /* \"KIP37/KIP37.sol\":4583:4647  require(to != address(0), \"KIP37: transfer to the zero address\") */\n      tag_140\n      jumpi\n      mload(0x40)\n      shl(0xe5, 0x461bcd)\n      dup2\n      mstore\n      0x04\n      add\n      tag_71\n      swap1\n      tag_142\n      jump\t// in\n    tag_140:\n        /* \"KIP37/utils/Context.sol\":169:179  msg.sender */\n      caller\n        /* \"KIP37/KIP37.sol\":4700:4760  _beforeTokenTransfer(operator, from, to, ids, amounts, data) */\n      tag_144\n        /* \"KIP37/utils/Context.sol\":169:179  msg.sender */\n      dup2\n        /* \"KIP37/KIP37.sol\":4731:4735  from */\n      dup8\n        /* \"KIP37/KIP37.sol\":4737:4739  to */\n      dup8\n        /* \"KIP37/KIP37.sol\":4741:4744  ids */\n      dup8\n        /* \"KIP37/KIP37.sol\":4746:4753  amounts */\n      dup8\n        /* \"KIP37/KIP37.sol\":4755:4759  data */\n      dup8\n        /* \"KIP37/KIP37.sol\":4700:4720  _beforeTokenTransfer */\n      tag_145\n        /* \"KIP37/KIP37.sol\":4700:4760  _beforeTokenTransfer(operator, from, to, ids, amounts, data) */\n      jump\t// in\n    tag_144:\n        /* \"KIP37/KIP37.sol\":4776:4785  uint256 i */\n      0x00\n        /* \"KIP37/KIP37.sol\":4771:5180  for (uint256 i = 0; i < ids.length; ++i) {... */\n    tag_146:\n        /* \"KIP37/KIP37.sol\":4795:4798  ids */\n      dup5\n        /* \"KIP37/KIP37.sol\":4795:4805  ids.length */\n      mload\n        /* \"KIP37/KIP37.sol\":4791:4792  i */\n      dup2\n        /* \"KIP37/KIP37.sol\":4791:4805  i < ids.length */\n      lt\n        /* \"KIP37/KIP37.sol\":4771:5180  for (uint256 i = 0; i < ids.length; ++i) {... */\n      iszero\n      tag_147\n      jumpi\n        /* \"KIP37/KIP37.sol\":4826:4836  uint256 id */\n      0x00\n        /* \"KIP37/KIP37.sol\":4839:4842  ids */\n      dup6\n        /* \"KIP37/KIP37.sol\":4843:4844  i */\n      dup3\n        /* \"KIP37/KIP37.sol\":4839:4845  ids[i] */\n      dup2\n      mload\n      dup2\n      lt\n      tag_150\n      jumpi\n      tag_150\n      tag_110\n      jump\t// in\n    tag_150:\n      0x20\n      mul\n      0x20\n      add\n      add\n      mload\n        /* \"KIP37/KIP37.sol\":4826:4845  uint256 id = ids[i] */\n      swap1\n      pop\n        /* \"KIP37/KIP37.sol\":4859:4873  uint256 amount */\n      0x00\n        /* \"KIP37/KIP37.sol\":4876:4883  amounts */\n      dup6\n        /* \"KIP37/KIP37.sol\":4884:4885  i */\n      dup4\n        /* \"KIP37/KIP37.sol\":4876:4886  amounts[i] */\n      dup2\n      mload\n      dup2\n      lt\n      tag_152\n      jumpi\n      tag_152\n      tag_110\n      jump\t// in\n    tag_152:\n      0x20\n      swap1\n      dup2\n      mul\n      swap2\n      swap1\n      swap2\n      add\n      dup2\n      add\n      mload\n        /* \"KIP37/KIP37.sol\":4901:4920  uint256 fromBalance */\n      0x00\n        /* \"KIP37/KIP37.sol\":4923:4936  _balances[id] */\n      dup5\n      dup2\n      mstore\n      dup1\n      dup4\n      mstore\n      0x40\n      dup1\n      dup3\n      keccak256\n      sub(shl(0xa0, 0x01), 0x01)\n        /* \"KIP37/KIP37.sol\":4923:4942  _balances[id][from] */\n      dup15\n      and\n      dup4\n      mstore\n      swap1\n      swap4\n      mstore\n      swap2\n      swap1\n      swap2\n      keccak256\n      sload\n        /* \"KIP37/KIP37.sol\":4876:4886  amounts[i] */\n      swap1\n      swap2\n      pop\n        /* \"KIP37/KIP37.sol\":4964:4985  fromBalance >= amount */\n      dup2\n      dup2\n      lt\n      iszero\n        /* \"KIP37/KIP37.sol\":4956:5030  require(fromBalance >= amount, \"KIP37: insufficient balance for transfer\") */\n      tag_153\n      jumpi\n      mload(0x40)\n      shl(0xe5, 0x461bcd)\n      dup2\n      mstore\n      0x04\n      add\n      tag_71\n      swap1\n      tag_155\n      jump\t// in\n    tag_153:\n        /* \"KIP37/KIP37.sol\":5072:5081  _balances */\n      0x00\n        /* \"KIP37/KIP37.sol\":5072:5085  _balances[id] */\n      dup4\n      dup2\n      mstore\n      0x20\n      dup2\n      dup2\n      mstore\n      0x40\n      dup1\n      dup4\n      keccak256\n      sub(shl(0xa0, 0x01), 0x01)\n        /* \"KIP37/KIP37.sol\":5072:5091  _balances[id][from] */\n      dup15\n      dup2\n      and\n      dup6\n      mstore\n      swap3\n      mstore\n      dup1\n      dup4\n      keccak256\n        /* \"KIP37/KIP37.sol\":5094:5114  fromBalance - amount */\n      dup6\n      dup6\n      sub\n        /* \"KIP37/KIP37.sol\":5072:5114  _balances[id][from] = fromBalance - amount */\n      swap1\n      sstore\n        /* \"KIP37/KIP37.sol\":5142:5159  _balances[id][to] */\n      swap1\n      dup12\n      and\n      dup3\n      mstore\n      dup2\n      keccak256\n        /* \"KIP37/KIP37.sol\":5142:5169  _balances[id][to] += amount */\n      dup1\n      sload\n        /* \"KIP37/KIP37.sol\":5094:5114  fromBalance - amount */\n      dup5\n      swap3\n        /* \"KIP37/KIP37.sol\":5072:5081  _balances */\n      swap1\n        /* \"KIP37/KIP37.sol\":5142:5169  _balances[id][to] += amount */\n      tag_156\n      swap1\n        /* \"KIP37/KIP37.sol\":5094:5114  fromBalance - amount */\n      dup5\n      swap1\n        /* \"KIP37/KIP37.sol\":5142:5169  _balances[id][to] += amount */\n      tag_157\n      jump\t// in\n    tag_156:\n      swap3\n      pop\n      pop\n      dup2\n      swap1\n      sstore\n      pop\n        /* \"KIP37/KIP37.sol\":4812:5180  {... */\n      pop\n      pop\n      pop\n        /* \"KIP37/KIP37.sol\":4807:4810  ++i */\n      dup1\n      tag_158\n      swap1\n      tag_116\n      jump\t// in\n    tag_158:\n      swap1\n      pop\n        /* \"KIP37/KIP37.sol\":4771:5180  for (uint256 i = 0; i < ids.length; ++i) {... */\n      jump(tag_146)\n    tag_147:\n      pop\n        /* \"KIP37/KIP37.sol\":5225:5227  to */\n      dup5\n      sub(shl(0xa0, 0x01), 0x01)\n        /* \"KIP37/KIP37.sol\":5195:5242  TransferBatch(operator, from, to, ids, amounts) */\n      and\n        /* \"KIP37/KIP37.sol\":5219:5223  from */\n      dup7\n      sub(shl(0xa0, 0x01), 0x01)\n        /* \"KIP37/KIP37.sol\":5195:5242  TransferBatch(operator, from, to, ids, amounts) */\n      and\n        /* \"KIP37/KIP37.sol\":5209:5217  operator */\n      dup3\n      sub(shl(0xa0, 0x01), 0x01)\n        /* \"KIP37/KIP37.sol\":5195:5242  TransferBatch(operator, from, to, ids, amounts) */\n      and\n      0x4a39dc06d4c0dbc64b70af90fd698a233a518aa5d07e595d983b8c0526c8f7fb\n        /* \"KIP37/KIP37.sol\":5229:5232  ids */\n      dup8\n        /* \"KIP37/KIP37.sol\":5234:5241  amounts */\n      dup8\n        /* \"KIP37/KIP37.sol\":5195:5242  TransferBatch(operator, from, to, ids, amounts) */\n      mload(0x40)\n      tag_159\n      swap3\n      swap2\n      swap1\n      tag_160\n      jump\t// in\n    tag_159:\n      mload(0x40)\n      dup1\n      swap2\n      sub\n      swap1\n      log4\n        /* \"KIP37/KIP37.sol\":5323:5398  _doSafeBatchTransferAcceptanceCheck(operator, from, to, ids, amounts, data) */\n      tag_163\n        /* \"KIP37/KIP37.sol\":5359:5367  operator */\n      dup2\n        /* \"KIP37/KIP37.sol\":5369:5373  from */\n      dup8\n        /* \"KIP37/KIP37.sol\":5375:5377  to */\n      dup8\n        /* \"KIP37/KIP37.sol\":5379:5382  ids */\n      dup8\n        /* \"KIP37/KIP37.sol\":5384:5391  amounts */\n      dup8\n        /* \"KIP37/KIP37.sol\":5393:5397  data */\n      dup8\n        /* \"KIP37/KIP37.sol\":5323:5358  _doSafeBatchTransferAcceptanceCheck */\n      tag_164\n        /* \"KIP37/KIP37.sol\":5323:5398  _doSafeBatchTransferAcceptanceCheck(operator, from, to, ids, amounts, data) */\n      jump\t// in\n    tag_163:\n        /* \"KIP37/KIP37.sol\":4484:5405  {... */\n      pop\n        /* \"KIP37/KIP37.sol\":4296:5405  function _safeBatchTransferFrom(... */\n      pop\n      pop\n      pop\n      pop\n      pop\n      jump\t// out\n        /* \"KIP37/KIP37.sol\":8741:9062  function _setApprovalForAll(... */\n    tag_120:\n        /* \"KIP37/KIP37.sol\":8891:8899  operator */\n      dup2\n      sub(shl(0xa0, 0x01), 0x01)\n        /* \"KIP37/KIP37.sol\":8882:8899  owner != operator */\n      and\n        /* \"KIP37/KIP37.sol\":8882:8887  owner */\n      dup4\n      sub(shl(0xa0, 0x01), 0x01)\n        /* \"KIP37/KIP37.sol\":8882:8899  owner != operator */\n      and\n      sub\n        /* \"KIP37/KIP37.sol\":8874:8943  require(owner != operator, \"KIP37: setting approval status for self\") */\n      tag_166\n      jumpi\n      mload(0x40)\n      shl(0xe5, 0x461bcd)\n      dup2\n      mstore\n        /* \"#utility.yul\":12594:12596   */\n      0x20\n        /* \"KIP37/KIP37.sol\":8874:8943  require(owner != operator, \"KIP37: setting approval status for self\") */\n      0x04\n      dup3\n      add\n        /* \"#utility.yul\":12576:12597   */\n      mstore\n        /* \"#utility.yul\":12633:12635   */\n      0x27\n        /* \"#utility.yul\":12613:12631   */\n      0x24\n      dup3\n      add\n        /* \"#utility.yul\":12606:12636   */\n      mstore\n        /* \"#utility.yul\":12672:12706   */\n      0x4b495033373a2073657474696e6720617070726f76616c207374617475732066\n        /* \"#utility.yul\":12652:12670   */\n      0x44\n      dup3\n      add\n        /* \"#utility.yul\":12645:12707   */\n      mstore\n      shl(0xc9, 0x37b91039b2b633)\n        /* \"#utility.yul\":12723:12741   */\n      0x64\n      dup3\n      add\n        /* \"#utility.yul\":12716:12753   */\n      mstore\n        /* \"#utility.yul\":12770:12789   */\n      0x84\n      add\n        /* \"KIP37/KIP37.sol\":8874:8943  require(owner != operator, \"KIP37: setting approval status for self\") */\n      tag_71\n        /* \"#utility.yul\":12392:12795   */\n      jump\n        /* \"KIP37/KIP37.sol\":8874:8943  require(owner != operator, \"KIP37: setting approval status for self\") */\n    tag_166:\n      sub(shl(0xa0, 0x01), 0x01)\n        /* \"KIP37/KIP37.sol\":8953:8978  _operatorApprovals[owner] */\n      dup4\n      dup2\n      and\n      0x00\n      dup2\n      dup2\n      mstore\n        /* \"KIP37/KIP37.sol\":8953:8971  _operatorApprovals */\n      0x02\n        /* \"KIP37/KIP37.sol\":8953:8978  _operatorApprovals[owner] */\n      0x20\n      swap1\n      dup2\n      mstore\n      0x40\n      dup1\n      dup4\n      keccak256\n        /* \"KIP37/KIP37.sol\":8953:8988  _operatorApprovals[owner][operator] */\n      swap5\n      dup8\n      and\n      dup1\n      dup5\n      mstore\n      swap5\n      dup3\n      mstore\n      swap2\n      dup3\n      swap1\n      keccak256\n        /* \"KIP37/KIP37.sol\":8953:8999  _operatorApprovals[owner][operator] = approved */\n      dup1\n      sload\n      not(0xff)\n      and\n      dup7\n      iszero\n      iszero\n      swap1\n      dup2\n      or\n      swap1\n      swap2\n      sstore\n        /* \"KIP37/KIP37.sol\":9014:9055  ApprovalForAll(owner, operator, approved) */\n      swap2\n      mload\n        /* \"#utility.yul\":1159:1200   */\n      swap2\n      dup3\n      mstore\n        /* \"KIP37/KIP37.sol\":9014:9055  ApprovalForAll(owner, operator, approved) */\n      0x17307eab39ab6107e8899845ad3d59bd9653f200f220920489ca2b5937696c31\n      swap2\n        /* \"#utility.yul\":1132:1150   */\n      add\n        /* \"KIP37/KIP37.sol\":9014:9055  ApprovalForAll(owner, operator, approved) */\n      mload(0x40)\n      dup1\n      swap2\n      sub\n      swap1\n      log3\n        /* \"KIP37/KIP37.sol\":8741:9062  function _setApprovalForAll(... */\n      pop\n      pop\n      pop\n      jump\t// out\n        /* \"KIP37/KIP37.sol\":3347:4290  function _safeTransferFrom(... */\n    tag_133:\n      sub(shl(0xa0, 0x01), 0x01)\n        /* \"KIP37/KIP37.sol\":3528:3544  to != address(0) */\n      dup5\n      and\n        /* \"KIP37/KIP37.sol\":3520:3584  require(to != address(0), \"KIP37: transfer to the zero address\") */\n      tag_171\n      jumpi\n      mload(0x40)\n      shl(0xe5, 0x461bcd)\n      dup2\n      mstore\n      0x04\n      add\n      tag_71\n      swap1\n      tag_142\n      jump\t// in\n    tag_171:\n        /* \"KIP37/utils/Context.sol\":169:179  msg.sender */\n      caller\n        /* \"KIP37/KIP37.sol\":3595:3611  address operator */\n      0x00\n        /* \"KIP37/KIP37.sol\":3659:3680  _asSingletonArray(id) */\n      tag_174\n        /* \"KIP37/KIP37.sol\":3677:3679  id */\n      dup6\n        /* \"KIP37/KIP37.sol\":3659:3676  _asSingletonArray */\n      tag_175\n        /* \"KIP37/KIP37.sol\":3659:3680  _asSingletonArray(id) */\n      jump\t// in\n    tag_174:\n        /* \"KIP37/KIP37.sol\":3636:3680  uint256[] memory ids = _asSingletonArray(id) */\n      swap1\n      pop\n        /* \"KIP37/KIP37.sol\":3690:3714  uint256[] memory amounts */\n      0x00\n        /* \"KIP37/KIP37.sol\":3717:3742  _asSingletonArray(amount) */\n      tag_176\n        /* \"KIP37/KIP37.sol\":3735:3741  amount */\n      dup6\n        /* \"KIP37/KIP37.sol\":3717:3734  _asSingletonArray */\n      tag_175\n        /* \"KIP37/KIP37.sol\":3717:3742  _asSingletonArray(amount) */\n      jump\t// in\n    tag_176:\n        /* \"KIP37/KIP37.sol\":3690:3742  uint256[] memory amounts = _asSingletonArray(amount) */\n      swap1\n      pop\n        /* \"KIP37/KIP37.sol\":3753:3813  _beforeTokenTransfer(operator, from, to, ids, amounts, data) */\n      tag_177\n        /* \"KIP37/KIP37.sol\":3774:3782  operator */\n      dup4\n        /* \"KIP37/KIP37.sol\":3784:3788  from */\n      dup10\n        /* \"KIP37/KIP37.sol\":3790:3792  to */\n      dup10\n        /* \"KIP37/KIP37.sol\":3794:3797  ids */\n      dup6\n        /* \"KIP37/KIP37.sol\":3799:3806  amounts */\n      dup6\n        /* \"KIP37/KIP37.sol\":3808:3812  data */\n      dup10\n        /* \"KIP37/KIP37.sol\":3753:3773  _beforeTokenTransfer */\n      tag_145\n        /* \"KIP37/KIP37.sol\":3753:3813  _beforeTokenTransfer(operator, from, to, ids, amounts, data) */\n      jump\t// in\n    tag_177:\n        /* \"KIP37/KIP37.sol\":3824:3843  uint256 fromBalance */\n      0x00\n        /* \"KIP37/KIP37.sol\":3846:3859  _balances[id] */\n      dup7\n      dup2\n      mstore\n      0x20\n      dup2\n      dup2\n      mstore\n      0x40\n      dup1\n      dup4\n      keccak256\n      sub(shl(0xa0, 0x01), 0x01)\n        /* \"KIP37/KIP37.sol\":3846:3865  _balances[id][from] */\n      dup13\n      and\n      dup5\n      mstore\n      swap1\n      swap2\n      mstore\n      swap1\n      keccak256\n      sload\n        /* \"KIP37/KIP37.sol\":3883:3904  fromBalance >= amount */\n      dup6\n      dup2\n      lt\n      iszero\n        /* \"KIP37/KIP37.sol\":3875:3949  require(fromBalance >= amount, \"KIP37: insufficient balance for transfer\") */\n      tag_178\n      jumpi\n      mload(0x40)\n      shl(0xe5, 0x461bcd)\n      dup2\n      mstore\n      0x04\n      add\n      tag_71\n      swap1\n      tag_155\n      jump\t// in\n    tag_178:\n        /* \"KIP37/KIP37.sol\":3983:3992  _balances */\n      0x00\n        /* \"KIP37/KIP37.sol\":3983:3996  _balances[id] */\n      dup8\n      dup2\n      mstore\n      0x20\n      dup2\n      dup2\n      mstore\n      0x40\n      dup1\n      dup4\n      keccak256\n      sub(shl(0xa0, 0x01), 0x01)\n        /* \"KIP37/KIP37.sol\":3983:4002  _balances[id][from] */\n      dup14\n      dup2\n      and\n      dup6\n      mstore\n      swap3\n      mstore\n      dup1\n      dup4\n      keccak256\n        /* \"KIP37/KIP37.sol\":4005:4025  fromBalance - amount */\n      dup10\n      dup6\n      sub\n        /* \"KIP37/KIP37.sol\":3983:4025  _balances[id][from] = fromBalance - amount */\n      swap1\n      sstore\n        /* \"KIP37/KIP37.sol\":4045:4062  _balances[id][to] */\n      swap1\n      dup11\n      and\n      dup3\n      mstore\n      dup2\n      keccak256\n        /* \"KIP37/KIP37.sol\":4045:4072  _balances[id][to] += amount */\n      dup1\n      sload\n        /* \"KIP37/KIP37.sol\":4005:4025  fromBalance - amount */\n      dup9\n      swap3\n        /* \"KIP37/KIP37.sol\":3983:3992  _balances */\n      swap1\n        /* \"KIP37/KIP37.sol\":4045:4072  _balances[id][to] += amount */\n      tag_180\n      swap1\n        /* \"KIP37/KIP37.sol\":4005:4025  fromBalance - amount */\n      dup5\n      swap1\n        /* \"KIP37/KIP37.sol\":4045:4072  _balances[id][to] += amount */\n      tag_157\n      jump\t// in\n    tag_180:\n      swap1\n      swap2\n      sstore\n      pop\n      pop\n        /* \"KIP37/KIP37.sol\":4088:4134  TransferSingle(operator, from, to, id, amount) */\n      0x40\n      dup1\n      mload\n        /* \"#utility.yul\":12974:12999   */\n      dup9\n      dup2\n      mstore\n        /* \"#utility.yul\":13030:13032   */\n      0x20\n        /* \"#utility.yul\":13015:13033   */\n      dup2\n      add\n        /* \"#utility.yul\":13008:13042   */\n      dup9\n      swap1\n      mstore\n      sub(shl(0xa0, 0x01), 0x01)\n        /* \"KIP37/KIP37.sol\":4088:4134  TransferSingle(operator, from, to, id, amount) */\n      dup1\n      dup12\n      and\n      swap3\n      dup13\n      dup3\n      and\n      swap3\n      swap2\n      dup9\n      and\n      swap2\n      0xc3d58168c5ae7397731d063d5bbf3d657854427343f4c083240f7aacaa2d0f62\n      swap2\n        /* \"#utility.yul\":12947:12965   */\n      add\n        /* \"KIP37/KIP37.sol\":4088:4134  TransferSingle(operator, from, to, id, amount) */\n      mload(0x40)\n      dup1\n      swap2\n      sub\n      swap1\n      log4\n        /* \"KIP37/KIP37.sol\":4215:4283  _doSafeTransferAcceptanceCheck(operator, from, to, id, amount, data) */\n      tag_184\n        /* \"KIP37/KIP37.sol\":4246:4254  operator */\n      dup5\n        /* \"KIP37/KIP37.sol\":4256:4260  from */\n      dup11\n        /* \"KIP37/KIP37.sol\":4262:4264  to */\n      dup11\n        /* \"KIP37/KIP37.sol\":4266:4268  id */\n      dup11\n        /* \"KIP37/KIP37.sol\":4270:4276  amount */\n      dup11\n        /* \"KIP37/KIP37.sol\":4278:4282  data */\n      dup11\n        /* \"KIP37/KIP37.sol\":4215:4245  _doSafeTransferAcceptanceCheck */\n      tag_185\n        /* \"KIP37/KIP37.sol\":4215:4283  _doSafeTransferAcceptanceCheck(operator, from, to, id, amount, data) */\n      jump\t// in\n    tag_184:\n        /* \"KIP37/KIP37.sol\":3510:4290  {... */\n      pop\n      pop\n      pop\n      pop\n        /* \"KIP37/KIP37.sol\":3347:4290  function _safeTransferFrom(... */\n      pop\n      pop\n      pop\n      pop\n      pop\n      jump\t// out\n        /* \"KIP37/KIP37.sol\":9068:10231  function _beforeTokenTransfer(... */\n    tag_145:\n        /* \"KIP37/KIP37.sol\":9376:9385  uint256 i */\n      0x00\n        /* \"KIP37/KIP37.sol\":9371:9627  for (uint256 i = 0; i < ids.length; ++i) {... */\n    tag_187:\n        /* \"KIP37/KIP37.sol\":9395:9398  ids */\n      dup4\n        /* \"KIP37/KIP37.sol\":9395:9405  ids.length */\n      mload\n        /* \"KIP37/KIP37.sol\":9391:9392  i */\n      dup2\n        /* \"KIP37/KIP37.sol\":9391:9405  i < ids.length */\n      lt\n        /* \"KIP37/KIP37.sol\":9371:9627  for (uint256 i = 0; i < ids.length; ++i) {... */\n      iszero\n      tag_188\n      jumpi\n      sub(shl(0xa0, 0x01), 0x01)\n        /* \"KIP37/KIP37.sol\":9470:9488  lockedTokens[from] */\n      dup7\n      and\n        /* \"KIP37/KIP37.sol\":9426:9441  uint256 balance */\n      0x00\n        /* \"KIP37/KIP37.sol\":9470:9488  lockedTokens[from] */\n      swap1\n      dup2\n      mstore\n        /* \"KIP37/KIP37.sol\":9470:9482  lockedTokens */\n      0x03\n        /* \"KIP37/KIP37.sol\":9470:9488  lockedTokens[from] */\n      0x20\n      mstore\n      0x40\n      dup2\n      keccak256\n        /* \"KIP37/KIP37.sol\":9489:9495  ids[i] */\n      dup6\n      mload\n        /* \"KIP37/KIP37.sol\":9426:9441  uint256 balance */\n      dup3\n      swap1\n        /* \"KIP37/KIP37.sol\":9489:9492  ids */\n      dup8\n      swap1\n        /* \"KIP37/KIP37.sol\":9493:9494  i */\n      dup6\n      swap1\n        /* \"KIP37/KIP37.sol\":9489:9495  ids[i] */\n      dup2\n      lt\n      tag_191\n      jumpi\n      tag_191\n      tag_110\n      jump\t// in\n    tag_191:\n      0x20\n      mul\n      0x20\n      add\n      add\n      mload\n        /* \"KIP37/KIP37.sol\":9470:9496  lockedTokens[from][ids[i]] */\n      dup2\n      mstore\n      0x20\n      add\n      swap1\n      dup2\n      mstore\n      0x20\n      add\n      0x00\n      keccak256\n      sload\n        /* \"KIP37/KIP37.sol\":9444:9453  _balances */\n      0x00\n        /* \"KIP37/KIP37.sol\":9444:9461  _balances[ids[i]] */\n      dup1\n        /* \"KIP37/KIP37.sol\":9454:9457  ids */\n      dup8\n        /* \"KIP37/KIP37.sol\":9458:9459  i */\n      dup6\n        /* \"KIP37/KIP37.sol\":9454:9460  ids[i] */\n      dup2\n      mload\n      dup2\n      lt\n      tag_193\n      jumpi\n      tag_193\n      tag_110\n      jump\t// in\n    tag_193:\n      0x20\n      mul\n      0x20\n      add\n      add\n      mload\n        /* \"KIP37/KIP37.sol\":9444:9461  _balances[ids[i]] */\n      dup2\n      mstore\n      0x20\n      add\n      swap1\n      dup2\n      mstore\n      0x20\n      add\n      0x00\n      keccak256\n        /* \"KIP37/KIP37.sol\":9444:9467  _balances[ids[i]][from] */\n      0x00\n        /* \"KIP37/KIP37.sol\":9462:9466  from */\n      dup10\n      sub(shl(0xa0, 0x01), 0x01)\n        /* \"KIP37/KIP37.sol\":9444:9467  _balances[ids[i]][from] */\n      and\n      sub(shl(0xa0, 0x01), 0x01)\n      and\n      dup2\n      mstore\n      0x20\n      add\n      swap1\n      dup2\n      mstore\n      0x20\n      add\n      0x00\n      keccak256\n      sload\n        /* \"KIP37/KIP37.sol\":9444:9496  _balances[ids[i]][from] - lockedTokens[from][ids[i]] */\n      tag_194\n      swap2\n      swap1\n      tag_195\n      jump\t// in\n    tag_194:\n        /* \"KIP37/KIP37.sol\":9426:9496  uint256 balance = _balances[ids[i]][from] - lockedTokens[from][ids[i]] */\n      swap1\n      pop\n      sub(shl(0xa0, 0x01), 0x01)\n        /* \"KIP37/KIP37.sol\":9514:9532  from != address(0) */\n      dup8\n      and\n      iszero\n      dup1\n      iszero\n      swap1\n        /* \"KIP37/KIP37.sol\":9514:9556  from != address(0) && balance < amounts[i] */\n      tag_196\n      jumpi\n      pop\n        /* \"KIP37/KIP37.sol\":9546:9553  amounts */\n      dup4\n        /* \"KIP37/KIP37.sol\":9554:9555  i */\n      dup3\n        /* \"KIP37/KIP37.sol\":9546:9556  amounts[i] */\n      dup2\n      mload\n      dup2\n      lt\n      tag_198\n      jumpi\n      tag_198\n      tag_110\n      jump\t// in\n    tag_198:\n      0x20\n      mul\n      0x20\n      add\n      add\n      mload\n        /* \"KIP37/KIP37.sol\":9536:9543  balance */\n      dup2\n        /* \"KIP37/KIP37.sol\":9536:9556  balance < amounts[i] */\n      lt\n        /* \"KIP37/KIP37.sol\":9514:9556  from != address(0) && balance < amounts[i] */\n    tag_196:\n        /* \"KIP37/KIP37.sol\":9510:9617  if (from != address(0) && balance < amounts[i] ) {... */\n      iszero\n      tag_199\n      jumpi\n        /* \"KIP37/KIP37.sol\":9577:9602  revert(\"Token is locked\") */\n      mload(0x40)\n      shl(0xe5, 0x461bcd)\n      dup2\n      mstore\n        /* \"#utility.yul\":13388:13390   */\n      0x20\n        /* \"KIP37/KIP37.sol\":9577:9602  revert(\"Token is locked\") */\n      0x04\n      dup3\n      add\n        /* \"#utility.yul\":13370:13391   */\n      mstore\n        /* \"#utility.yul\":13427:13429   */\n      0x0f\n        /* \"#utility.yul\":13407:13425   */\n      0x24\n      dup3\n      add\n        /* \"#utility.yul\":13400:13430   */\n      mstore\n      shl(0x8a, 0x151bdad95b881a5cc81b1bd8dad959)\n        /* \"#utility.yul\":13446:13464   */\n      0x44\n      dup3\n      add\n        /* \"#utility.yul\":13439:13484   */\n      mstore\n        /* \"#utility.yul\":13501:13519   */\n      0x64\n      add\n        /* \"KIP37/KIP37.sol\":9577:9602  revert(\"Token is locked\") */\n      tag_71\n        /* \"#utility.yul\":13186:13525   */\n      jump\n        /* \"KIP37/KIP37.sol\":9510:9617  if (from != address(0) && balance < amounts[i] ) {... */\n    tag_199:\n      pop\n        /* \"KIP37/KIP37.sol\":9407:9410  ++i */\n      tag_202\n      dup2\n      tag_116\n      jump\t// in\n    tag_202:\n      swap1\n      pop\n        /* \"KIP37/KIP37.sol\":9371:9627  for (uint256 i = 0; i < ids.length; ++i) {... */\n      jump(tag_187)\n    tag_188:\n      pop\n      sub(shl(0xa0, 0x01), 0x01)\n        /* \"KIP37/KIP37.sol\":9641:9659  from == address(0) */\n      dup6\n      and\n        /* \"KIP37/KIP37.sol\":9637:9793  if (from == address(0)) {... */\n      tag_203\n      jumpi\n        /* \"KIP37/KIP37.sol\":9680:9689  uint256 i */\n      0x00\n        /* \"KIP37/KIP37.sol\":9675:9783  for (uint256 i = 0; i < ids.length; ++i) {... */\n    tag_204:\n        /* \"KIP37/KIP37.sol\":9699:9702  ids */\n      dup4\n        /* \"KIP37/KIP37.sol\":9699:9709  ids.length */\n      mload\n        /* \"KIP37/KIP37.sol\":9695:9696  i */\n      dup2\n        /* \"KIP37/KIP37.sol\":9695:9709  i < ids.length */\n      lt\n        /* \"KIP37/KIP37.sol\":9675:9783  for (uint256 i = 0; i < ids.length; ++i) {... */\n      iszero\n      tag_205\n      jumpi\n        /* \"KIP37/KIP37.sol\":9758:9765  amounts */\n      dup3\n        /* \"KIP37/KIP37.sol\":9766:9767  i */\n      dup2\n        /* \"KIP37/KIP37.sol\":9758:9768  amounts[i] */\n      dup2\n      mload\n      dup2\n      lt\n      tag_208\n      jumpi\n      tag_208\n      tag_110\n      jump\t// in\n    tag_208:\n      0x20\n      mul\n      0x20\n      add\n      add\n      mload\n        /* \"KIP37/KIP37.sol\":9734:9746  _totalSupply */\n      0x01\n        /* \"KIP37/KIP37.sol\":9734:9754  _totalSupply[ids[i]] */\n      0x00\n        /* \"KIP37/KIP37.sol\":9747:9750  ids */\n      dup7\n        /* \"KIP37/KIP37.sol\":9751:9752  i */\n      dup5\n        /* \"KIP37/KIP37.sol\":9747:9753  ids[i] */\n      dup2\n      mload\n      dup2\n      lt\n      tag_210\n      jumpi\n      tag_210\n      tag_110\n      jump\t// in\n    tag_210:\n      0x20\n      mul\n      0x20\n      add\n      add\n      mload\n        /* \"KIP37/KIP37.sol\":9734:9754  _totalSupply[ids[i]] */\n      dup2\n      mstore\n      0x20\n      add\n      swap1\n      dup2\n      mstore\n      0x20\n      add\n      0x00\n      keccak256\n      0x00\n        /* \"KIP37/KIP37.sol\":9734:9768  _totalSupply[ids[i]] += amounts[i] */\n      dup3\n      dup3\n      sload\n      tag_211\n      swap2\n      swap1\n      tag_157\n      jump\t// in\n    tag_211:\n      swap1\n      swap2\n      sstore\n      pop\n        /* \"KIP37/KIP37.sol\":9711:9714  ++i */\n      tag_212\n      swap1\n      pop\n      dup2\n      tag_116\n      jump\t// in\n    tag_212:\n      swap1\n      pop\n        /* \"KIP37/KIP37.sol\":9675:9783  for (uint256 i = 0; i < ids.length; ++i) {... */\n      jump(tag_204)\n    tag_205:\n      pop\n        /* \"KIP37/KIP37.sol\":9637:9793  if (from == address(0)) {... */\n    tag_203:\n      sub(shl(0xa0, 0x01), 0x01)\n        /* \"KIP37/KIP37.sol\":9807:9823  to == address(0) */\n      dup5\n      and\n        /* \"KIP37/KIP37.sol\":9803:10225  if (to == address(0)) {... */\n      tag_163\n      jumpi\n        /* \"KIP37/KIP37.sol\":9844:9853  uint256 i */\n      0x00\n        /* \"KIP37/KIP37.sol\":9839:10215  for (uint256 i = 0; i < ids.length; ++i) {... */\n    tag_214:\n        /* \"KIP37/KIP37.sol\":9863:9866  ids */\n      dup4\n        /* \"KIP37/KIP37.sol\":9863:9873  ids.length */\n      mload\n        /* \"KIP37/KIP37.sol\":9859:9860  i */\n      dup2\n        /* \"KIP37/KIP37.sol\":9859:9873  i < ids.length */\n      lt\n        /* \"KIP37/KIP37.sol\":9839:10215  for (uint256 i = 0; i < ids.length; ++i) {... */\n      iszero\n      tag_215\n      jumpi\n        /* \"KIP37/KIP37.sol\":9898:9908  uint256 id */\n      0x00\n        /* \"KIP37/KIP37.sol\":9911:9914  ids */\n      dup5\n        /* \"KIP37/KIP37.sol\":9915:9916  i */\n      dup3\n        /* \"KIP37/KIP37.sol\":9911:9917  ids[i] */\n      dup2\n      mload\n      dup2\n      lt\n      tag_218\n      jumpi\n      tag_218\n      tag_110\n      jump\t// in\n    tag_218:\n      0x20\n      mul\n      0x20\n      add\n      add\n      mload\n        /* \"KIP37/KIP37.sol\":9898:9917  uint256 id = ids[i] */\n      swap1\n      pop\n        /* \"KIP37/KIP37.sol\":9935:9949  uint256 amount */\n      0x00\n        /* \"KIP37/KIP37.sol\":9952:9959  amounts */\n      dup5\n        /* \"KIP37/KIP37.sol\":9960:9961  i */\n      dup4\n        /* \"KIP37/KIP37.sol\":9952:9962  amounts[i] */\n      dup2\n      mload\n      dup2\n      lt\n      tag_220\n      jumpi\n      tag_220\n      tag_110\n      jump\t// in\n    tag_220:\n      0x20\n      mul\n      0x20\n      add\n      add\n      mload\n        /* \"KIP37/KIP37.sol\":9935:9962  uint256 amount = amounts[i] */\n      swap1\n      pop\n        /* \"KIP37/KIP37.sol\":9980:9994  uint256 supply */\n      0x00\n        /* \"KIP37/KIP37.sol\":9997:10009  _totalSupply */\n      0x01\n        /* \"KIP37/KIP37.sol\":9997:10013  _totalSupply[id] */\n      0x00\n        /* \"KIP37/KIP37.sol\":10010:10012  id */\n      dup5\n        /* \"KIP37/KIP37.sol\":9997:10013  _totalSupply[id] */\n      dup2\n      mstore\n      0x20\n      add\n      swap1\n      dup2\n      mstore\n      0x20\n      add\n      0x00\n      keccak256\n      sload\n        /* \"KIP37/KIP37.sol\":9980:10013  uint256 supply = _totalSupply[id] */\n      swap1\n      pop\n        /* \"KIP37/KIP37.sol\":10049:10055  amount */\n      dup2\n        /* \"KIP37/KIP37.sol\":10039:10045  supply */\n      dup2\n        /* \"KIP37/KIP37.sol\":10039:10055  supply >= amount */\n      lt\n      iszero\n        /* \"KIP37/KIP37.sol\":10031:10098  require(supply >= amount, \"KIP37: burn amount exceeds totalSupply\") */\n      tag_221\n      jumpi\n      mload(0x40)\n      shl(0xe5, 0x461bcd)\n      dup2\n      mstore\n        /* \"#utility.yul\":13732:13734   */\n      0x20\n        /* \"KIP37/KIP37.sol\":10031:10098  require(supply >= amount, \"KIP37: burn amount exceeds totalSupply\") */\n      0x04\n      dup3\n      add\n        /* \"#utility.yul\":13714:13735   */\n      mstore\n        /* \"#utility.yul\":13771:13773   */\n      0x26\n        /* \"#utility.yul\":13751:13769   */\n      0x24\n      dup3\n      add\n        /* \"#utility.yul\":13744:13774   */\n      mstore\n        /* \"#utility.yul\":13810:13844   */\n      0x4b495033373a206275726e20616d6f756e74206578636565647320746f74616c\n        /* \"#utility.yul\":13790:13808   */\n      0x44\n      dup3\n      add\n        /* \"#utility.yul\":13783:13845   */\n      mstore\n      shl(0xd0, 0x537570706c79)\n        /* \"#utility.yul\":13861:13879   */\n      0x64\n      dup3\n      add\n        /* \"#utility.yul\":13854:13890   */\n      mstore\n        /* \"#utility.yul\":13907:13926   */\n      0x84\n      add\n        /* \"KIP37/KIP37.sol\":10031:10098  require(supply >= amount, \"KIP37: burn amount exceeds totalSupply\") */\n      tag_71\n        /* \"#utility.yul\":13530:13932   */\n      jump\n        /* \"KIP37/KIP37.sol\":10031:10098  require(supply >= amount, \"KIP37: burn amount exceeds totalSupply\") */\n    tag_221:\n        /* \"KIP37/KIP37.sol\":10148:10164  _totalSupply[id] */\n      0x00\n      swap3\n      dup4\n      mstore\n        /* \"KIP37/KIP37.sol\":10148:10160  _totalSupply */\n      0x01\n        /* \"KIP37/KIP37.sol\":10148:10164  _totalSupply[id] */\n      0x20\n      mstore\n      0x40\n      swap1\n      swap3\n      keccak256\n        /* \"KIP37/KIP37.sol\":10167:10182  supply - amount */\n      swap2\n      sub\n        /* \"KIP37/KIP37.sol\":10148:10182  _totalSupply[id] = supply - amount */\n      swap1\n      sstore\n        /* \"KIP37/KIP37.sol\":9875:9878  ++i */\n      tag_224\n      dup2\n      tag_116\n      jump\t// in\n    tag_224:\n      swap1\n      pop\n        /* \"KIP37/KIP37.sol\":9839:10215  for (uint256 i = 0; i < ids.length; ++i) {... */\n      jump(tag_214)\n    tag_215:\n      pop\n        /* \"KIP37/KIP37.sol\":9068:10231  function _beforeTokenTransfer(... */\n      pop\n      pop\n      pop\n      pop\n      pop\n      pop\n      jump\t// out\n        /* \"KIP37/KIP37.sol\":10925:11427  function _doSafeBatchTransferAcceptanceCheck(... */\n    tag_164:\n        /* \"KIP37/KIP37.sol\":11174:11240  _checkOnKIP37BatchReceived(operator, from, to, ids, amounts, data) */\n      tag_227\n        /* \"KIP37/KIP37.sol\":11201:11209  operator */\n      dup7\n        /* \"KIP37/KIP37.sol\":11211:11215  from */\n      dup7\n        /* \"KIP37/KIP37.sol\":11217:11219  to */\n      dup7\n        /* \"KIP37/KIP37.sol\":11221:11224  ids */\n      dup7\n        /* \"KIP37/KIP37.sol\":11226:11233  amounts */\n      dup7\n        /* \"KIP37/KIP37.sol\":11235:11239  data */\n      dup7\n        /* \"KIP37/KIP37.sol\":11174:11200  _checkOnKIP37BatchReceived */\n      tag_228\n        /* \"KIP37/KIP37.sol\":11174:11240  _checkOnKIP37BatchReceived(operator, from, to, ids, amounts, data) */\n      jump\t// in\n    tag_227:\n        /* \"KIP37/KIP37.sol\":11174:11328  _checkOnKIP37BatchReceived(operator, from, to, ids, amounts, data) ||... */\n      dup1\n      tag_230\n      jumpi\n      pop\n        /* \"KIP37/KIP37.sol\":11260:11328  _checkOnERC1155BatchReceived(operator, from, to, ids, amounts, data) */\n      tag_230\n        /* \"KIP37/KIP37.sol\":11289:11297  operator */\n      dup7\n        /* \"KIP37/KIP37.sol\":11299:11303  from */\n      dup7\n        /* \"KIP37/KIP37.sol\":11305:11307  to */\n      dup7\n        /* \"KIP37/KIP37.sol\":11309:11312  ids */\n      dup7\n        /* \"KIP37/KIP37.sol\":11314:11321  amounts */\n      dup7\n        /* \"KIP37/KIP37.sol\":11323:11327  data */\n      dup7\n        /* \"KIP37/KIP37.sol\":11260:11288  _checkOnERC1155BatchReceived */\n      tag_231\n        /* \"KIP37/KIP37.sol\":11260:11328  _checkOnERC1155BatchReceived(operator, from, to, ids, amounts, data) */\n      jump\t// in\n    tag_230:\n        /* \"KIP37/KIP37.sol\":11153:11420  require(... */\n      tag_163\n      jumpi\n      mload(0x40)\n      shl(0xe5, 0x461bcd)\n      dup2\n      mstore\n        /* \"#utility.yul\":14139:14141   */\n      0x20\n        /* \"KIP37/KIP37.sol\":11153:11420  require(... */\n      0x04\n      dup3\n      add\n        /* \"#utility.yul\":14121:14142   */\n      mstore\n        /* \"#utility.yul\":14178:14180   */\n      0x42\n        /* \"#utility.yul\":14158:14176   */\n      0x24\n      dup3\n      add\n        /* \"#utility.yul\":14151:14181   */\n      mstore\n        /* \"#utility.yul\":14217:14251   */\n      0x4b495033373a207472616e7366657220746f206e6f6e20494b49503337526563\n        /* \"#utility.yul\":14197:14215   */\n      0x44\n      dup3\n      add\n        /* \"#utility.yul\":14190:14252   */\n      mstore\n        /* \"#utility.yul\":14288:14322   */\n      0x65697665722f4945524331313535526563656976657220696d706c656d656e74\n        /* \"#utility.yul\":14268:14286   */\n      0x64\n      dup3\n      add\n        /* \"#utility.yul\":14261:14323   */\n      mstore\n      shl(0xf1, 0x32b9)\n        /* \"#utility.yul\":14339:14358   */\n      0x84\n      dup3\n      add\n        /* \"#utility.yul\":14332:14365   */\n      mstore\n        /* \"#utility.yul\":14382:14401   */\n      0xa4\n      add\n        /* \"KIP37/KIP37.sol\":11153:11420  require(... */\n      tag_71\n        /* \"#utility.yul\":13937:14407   */\n      jump\n        /* \"KIP37/KIP37.sol\":11433:11626  function _asSingletonArray(uint256 element) private pure returns (uint256[] memory) {... */\n    tag_175:\n        /* \"KIP37/KIP37.sol\":11552:11568  new uint256[](1) */\n      0x40\n      dup1\n      mload\n        /* \"KIP37/KIP37.sol\":11566:11567  1 */\n      0x01\n        /* \"KIP37/KIP37.sol\":11552:11568  new uint256[](1) */\n      dup1\n      dup3\n      mstore\n      dup2\n      dup4\n      add\n      swap1\n      swap3\n      mstore\n        /* \"KIP37/KIP37.sol\":11499:11515  uint256[] memory */\n      0x60\n      swap2\n        /* \"KIP37/KIP37.sol\":11527:11549  uint256[] memory array */\n      0x00\n      swap2\n        /* \"KIP37/KIP37.sol\":11552:11568  new uint256[](1) */\n      swap1\n      0x20\n      dup1\n      dup4\n      add\n      swap1\n      dup1\n      calldatasize\n      dup4\n      calldatacopy\n      add\n      swap1\n      pop\n      pop\n        /* \"KIP37/KIP37.sol\":11527:11568  uint256[] memory array = new uint256[](1) */\n      swap1\n      pop\n        /* \"KIP37/KIP37.sol\":11589:11596  element */\n      dup3\n        /* \"KIP37/KIP37.sol\":11578:11583  array */\n      dup2\n        /* \"KIP37/KIP37.sol\":11584:11585  0 */\n      0x00\n        /* \"KIP37/KIP37.sol\":11578:11586  array[0] */\n      dup2\n      mload\n      dup2\n      lt\n      tag_240\n      jumpi\n      tag_240\n      tag_110\n      jump\t// in\n    tag_240:\n      0x20\n      swap1\n      dup2\n      mul\n      swap2\n      swap1\n      swap2\n      add\n      add\n        /* \"KIP37/KIP37.sol\":11578:11596  array[0] = element */\n      mstore\n        /* \"KIP37/KIP37.sol\":11614:11619  array */\n      swap3\n        /* \"KIP37/KIP37.sol\":11433:11626  function _asSingletonArray(uint256 element) private pure returns (uint256[] memory) {... */\n      swap2\n      pop\n      pop\n      jump\t// out\n        /* \"KIP37/KIP37.sol\":10456:10919  function _doSafeTransferAcceptanceCheck(... */\n    tag_185:\n        /* \"KIP37/KIP37.sol\":10680:10739  _checkOnKIP37Received(operator, from, to, id, amount, data) */\n      tag_242\n        /* \"KIP37/KIP37.sol\":10702:10710  operator */\n      dup7\n        /* \"KIP37/KIP37.sol\":10712:10716  from */\n      dup7\n        /* \"KIP37/KIP37.sol\":10718:10720  to */\n      dup7\n        /* \"KIP37/KIP37.sol\":10722:10724  id */\n      dup7\n        /* \"KIP37/KIP37.sol\":10726:10732  amount */\n      dup7\n        /* \"KIP37/KIP37.sol\":10734:10738  data */\n      dup7\n        /* \"KIP37/KIP37.sol\":10680:10701  _checkOnKIP37Received */\n      tag_243\n        /* \"KIP37/KIP37.sol\":10680:10739  _checkOnKIP37Received(operator, from, to, id, amount, data) */\n      jump\t// in\n    tag_242:\n        /* \"KIP37/KIP37.sol\":10680:10820  _checkOnKIP37Received(operator, from, to, id, amount, data) ||... */\n      dup1\n      tag_230\n      jumpi\n      pop\n        /* \"KIP37/KIP37.sol\":10759:10820  _checkOnERC1155Received(operator, from, to, id, amount, data) */\n      tag_230\n        /* \"KIP37/KIP37.sol\":10783:10791  operator */\n      dup7\n        /* \"KIP37/KIP37.sol\":10793:10797  from */\n      dup7\n        /* \"KIP37/KIP37.sol\":10799:10801  to */\n      dup7\n        /* \"KIP37/KIP37.sol\":10803:10805  id */\n      dup7\n        /* \"KIP37/KIP37.sol\":10807:10813  amount */\n      dup7\n        /* \"KIP37/KIP37.sol\":10815:10819  data */\n      dup7\n        /* \"KIP37/KIP37.sol\":10759:10782  _checkOnERC1155Received */\n      tag_246\n        /* \"KIP37/KIP37.sol\":10759:10820  _checkOnERC1155Received(operator, from, to, id, amount, data) */\n      jump\t// in\n        /* \"KIP37/KIP37.sol\":12405:13209  function _checkOnKIP37BatchReceived(... */\n    tag_228:\n        /* \"KIP37/KIP37.sol\":12623:12627  bool */\n      0x00\n      sub(shl(0xa0, 0x01), 0x01)\n        /* \"KIP37/KIP37.sol\":12643:12656  to.isContract */\n      dup6\n      and\n        /* \"KIP37/utils/Address.sol\":163:182  account.code.length */\n      extcodesize\n        /* \"KIP37/utils/Address.sol\":163:186  account.code.length > 0 */\n      iszero\n        /* \"KIP37/KIP37.sol\":12639:13203  if (to.isContract()) {... */\n      tag_252\n      jumpi\n        /* \"KIP37/KIP37.sol\":12678:12753  IKIP37Receiver(to).onKIP37BatchReceived(operator, from, ids, amounts, data) */\n      mload(0x40)\n      shl(0xe1, 0x4da4f199)\n      dup2\n      mstore\n      sub(shl(0xa0, 0x01), 0x01)\n        /* \"KIP37/KIP37.sol\":12678:12717  IKIP37Receiver(to).onKIP37BatchReceived */\n      dup7\n      and\n      swap1\n      0x9b49e332\n      swap1\n        /* \"KIP37/KIP37.sol\":12678:12753  IKIP37Receiver(to).onKIP37BatchReceived(operator, from, ids, amounts, data) */\n      tag_253\n      swap1\n        /* \"KIP37/KIP37.sol\":12718:12726  operator */\n      dup11\n      swap1\n        /* \"KIP37/KIP37.sol\":12728:12732  from */\n      dup11\n      swap1\n        /* \"KIP37/KIP37.sol\":12734:12737  ids */\n      dup10\n      swap1\n        /* \"KIP37/KIP37.sol\":12739:12746  amounts */\n      dup10\n      swap1\n        /* \"KIP37/KIP37.sol\":12748:12752  data */\n      dup10\n      swap1\n        /* \"KIP37/KIP37.sol\":12678:12753  IKIP37Receiver(to).onKIP37BatchReceived(operator, from, ids, amounts, data) */\n      0x04\n      add\n      tag_254\n      jump\t// in\n    tag_253:\n      0x20\n      mload(0x40)\n      dup1\n      dup4\n      sub\n      dup2\n      0x00\n      dup8\n      gas\n      call\n      swap3\n      pop\n      pop\n      pop\n      dup1\n      iszero\n      tag_255\n      jumpi\n      pop\n      0x40\n      dup1\n      mload\n      0x1f\n      returndatasize\n      swap1\n      dup2\n      add\n      not(0x1f)\n      and\n      dup3\n      add\n      swap1\n      swap3\n      mstore\n      tag_256\n      swap2\n      dup2\n      add\n      swap1\n      tag_257\n      jump\t// in\n    tag_256:\n      0x01\n    tag_255:\n        /* \"KIP37/KIP37.sol\":12674:13151  try IKIP37Receiver(to).onKIP37BatchReceived(operator, from, ids, amounts, data) returns (bytes4 retval) {... */\n      tag_258\n      jumpi\n      returndatasize\n      dup1\n      dup1\n      iszero\n      tag_263\n      jumpi\n      mload(0x40)\n      swap2\n      pop\n      and(add(returndatasize, 0x3f), not(0x1f))\n      dup3\n      add\n      0x40\n      mstore\n      returndatasize\n      dup3\n      mstore\n      returndatasize\n      0x00\n      0x20\n      dup5\n      add\n      returndatacopy\n      jump(tag_262)\n    tag_263:\n      0x60\n      swap2\n      pop\n    tag_262:\n      pop\n        /* \"KIP37/KIP37.sol\":12923:12929  reason */\n      dup1\n        /* \"KIP37/KIP37.sol\":12923:12936  reason.length */\n      mload\n        /* \"KIP37/KIP37.sol\":12940:12941  0 */\n      0x00\n        /* \"KIP37/KIP37.sol\":12923:12941  reason.length == 0 */\n      sub\n        /* \"KIP37/KIP37.sol\":12919:13137  if (reason.length == 0) {... */\n      tag_264\n      jumpi\n        /* \"KIP37/KIP37.sol\":12972:12977  false */\n      0x00\n        /* \"KIP37/KIP37.sol\":12965:12977  return false */\n      swap2\n      pop\n      pop\n      jump(tag_267)\n        /* \"KIP37/KIP37.sol\":12919:13137  if (reason.length == 0) {... */\n    tag_264:\n        /* \"KIP37/KIP37.sol\":13089:13095  reason */\n      dup1\n        /* \"KIP37/KIP37.sol\":13083:13096  mload(reason) */\n      mload\n        /* \"KIP37/KIP37.sol\":13074:13080  reason */\n      dup2\n        /* \"KIP37/KIP37.sol\":13070:13072  32 */\n      0x20\n        /* \"KIP37/KIP37.sol\":13066:13081  add(32, reason) */\n      add\n        /* \"KIP37/KIP37.sol\":13059:13097  revert(add(32, reason), mload(reason)) */\n      revert\n        /* \"KIP37/KIP37.sol\":12674:13151  try IKIP37Receiver(to).onKIP37BatchReceived(operator, from, ids, amounts, data) returns (bytes4 retval) {... */\n    tag_258:\n      not(sub(shl(0xe0, 0x01), 0x01))\n        /* \"KIP37/KIP37.sol\":12803:12857  retval == IKIP37Receiver.onKIP37BatchReceived.selector */\n      and\n      shl(0xe1, 0x4da4f199)\n      eq\n      swap1\n      pop\n        /* \"KIP37/KIP37.sol\":12796:12857  return retval == IKIP37Receiver.onKIP37BatchReceived.selector */\n      jump(tag_267)\n        /* \"KIP37/KIP37.sol\":12639:13203  if (to.isContract()) {... */\n    tag_252:\n      pop\n        /* \"KIP37/KIP37.sol\":13188:13192  true */\n      0x01\n        /* \"KIP37/KIP37.sol\":12639:13203  if (to.isContract()) {... */\n    tag_267:\n        /* \"KIP37/KIP37.sol\":12405:13209  function _checkOnKIP37BatchReceived(... */\n      swap7\n      swap6\n      pop\n      pop\n      pop\n      pop\n      pop\n      pop\n      jump\t// out\n        /* \"KIP37/KIP37.sol\":13998:14842  function _checkOnERC1155BatchReceived(... */\n    tag_231:\n        /* \"KIP37/KIP37.sol\":14218:14222  bool */\n      0x00\n      sub(shl(0xa0, 0x01), 0x01)\n        /* \"KIP37/KIP37.sol\":14238:14251  to.isContract */\n      dup6\n      and\n        /* \"KIP37/utils/Address.sol\":163:182  account.code.length */\n      extcodesize\n        /* \"KIP37/utils/Address.sol\":163:186  account.code.length > 0 */\n      iszero\n        /* \"KIP37/KIP37.sol\":14234:14836  if (to.isContract()) {... */\n      tag_252\n      jumpi\n        /* \"KIP37/KIP37.sol\":14273:14352  IERC1155Receiver(to).onERC1155BatchReceived(operator, from, ids, amounts, data) */\n      mload(0x40)\n      shl(0xe0, 0xbc197c81)\n      dup2\n      mstore\n      sub(shl(0xa0, 0x01), 0x01)\n        /* \"KIP37/KIP37.sol\":14273:14316  IERC1155Receiver(to).onERC1155BatchReceived */\n      dup7\n      and\n      swap1\n      0xbc197c81\n      swap1\n        /* \"KIP37/KIP37.sol\":14273:14352  IERC1155Receiver(to).onERC1155BatchReceived(operator, from, ids, amounts, data) */\n      tag_271\n      swap1\n        /* \"KIP37/KIP37.sol\":14317:14325  operator */\n      dup11\n      swap1\n        /* \"KIP37/KIP37.sol\":14327:14331  from */\n      dup11\n      swap1\n        /* \"KIP37/KIP37.sol\":14333:14336  ids */\n      dup10\n      swap1\n        /* \"KIP37/KIP37.sol\":14338:14345  amounts */\n      dup10\n      swap1\n        /* \"KIP37/KIP37.sol\":14347:14351  data */\n      dup10\n      swap1\n        /* \"KIP37/KIP37.sol\":14273:14352  IERC1155Receiver(to).onERC1155BatchReceived(operator, from, ids, amounts, data) */\n      0x04\n      add\n      tag_254\n      jump\t// in\n    tag_271:\n      0x20\n      mload(0x40)\n      dup1\n      dup4\n      sub\n      dup2\n      0x00\n      dup8\n      gas\n      call\n      swap3\n      pop\n      pop\n      pop\n      dup1\n      iszero\n      tag_272\n      jumpi\n      pop\n      0x40\n      dup1\n      mload\n      0x1f\n      returndatasize\n      swap1\n      dup2\n      add\n      not(0x1f)\n      and\n      dup3\n      add\n      swap1\n      swap3\n      mstore\n      tag_273\n      swap2\n      dup2\n      add\n      swap1\n      tag_257\n      jump\t// in\n    tag_273:\n      0x01\n    tag_272:\n        /* \"KIP37/KIP37.sol\":14269:14784  try IERC1155Receiver(to).onERC1155BatchReceived(operator, from, ids, amounts, data) returns (... */\n      tag_274\n      jumpi\n      returndatasize\n      dup1\n      dup1\n      iszero\n      tag_263\n      jumpi\n      mload(0x40)\n      swap2\n      pop\n      and(add(returndatasize, 0x3f), not(0x1f))\n      dup3\n      add\n      0x40\n      mstore\n      returndatasize\n      dup3\n      mstore\n      returndatasize\n      0x00\n      0x20\n      dup5\n      add\n      returndatacopy\n      jump(tag_262)\n    tag_274:\n      not(sub(shl(0xe0, 0x01), 0x01))\n        /* \"KIP37/KIP37.sol\":14432:14490  retval == IERC1155Receiver.onERC1155BatchReceived.selector */\n      and\n      shl(0xe0, 0xbc197c81)\n      eq\n      swap1\n      pop\n        /* \"KIP37/KIP37.sol\":14425:14490  return retval == IERC1155Receiver.onERC1155BatchReceived.selector */\n      jump(tag_267)\n        /* \"KIP37/KIP37.sol\":11632:12399  function _checkOnKIP37Received(... */\n    tag_243:\n        /* \"KIP37/KIP37.sol\":11825:11829  bool */\n      0x00\n      sub(shl(0xa0, 0x01), 0x01)\n        /* \"KIP37/KIP37.sol\":11845:11858  to.isContract */\n      dup6\n      and\n        /* \"KIP37/utils/Address.sol\":163:182  account.code.length */\n      extcodesize\n        /* \"KIP37/utils/Address.sol\":163:186  account.code.length > 0 */\n      iszero\n        /* \"KIP37/KIP37.sol\":11841:12393  if (to.isContract()) {... */\n      tag_252\n      jumpi\n        /* \"KIP37/KIP37.sol\":11880:11948  IKIP37Receiver(to).onKIP37Received(operator, from, id, amount, data) */\n      mload(0x40)\n      shl(0xe0, 0xe78b3325)\n      dup2\n      mstore\n      sub(shl(0xa0, 0x01), 0x01)\n        /* \"KIP37/KIP37.sol\":11880:11914  IKIP37Receiver(to).onKIP37Received */\n      dup7\n      and\n      swap1\n      0xe78b3325\n      swap1\n        /* \"KIP37/KIP37.sol\":11880:11948  IKIP37Receiver(to).onKIP37Received(operator, from, id, amount, data) */\n      tag_287\n      swap1\n        /* \"KIP37/KIP37.sol\":11915:11923  operator */\n      dup11\n      swap1\n        /* \"KIP37/KIP37.sol\":11925:11929  from */\n      dup11\n      swap1\n        /* \"KIP37/KIP37.sol\":11931:11933  id */\n      dup10\n      swap1\n        /* \"KIP37/KIP37.sol\":11935:11941  amount */\n      dup10\n      swap1\n        /* \"KIP37/KIP37.sol\":11943:11947  data */\n      dup10\n      swap1\n        /* \"KIP37/KIP37.sol\":11880:11948  IKIP37Receiver(to).onKIP37Received(operator, from, id, amount, data) */\n      0x04\n      add\n      tag_288\n      jump\t// in\n    tag_287:\n      0x20\n      mload(0x40)\n      dup1\n      dup4\n      sub\n      dup2\n      0x00\n      dup8\n      gas\n      call\n      swap3\n      pop\n      pop\n      pop\n      dup1\n      iszero\n      tag_289\n      jumpi\n      pop\n      0x40\n      dup1\n      mload\n      0x1f\n      returndatasize\n      swap1\n      dup2\n      add\n      not(0x1f)\n      and\n      dup3\n      add\n      swap1\n      swap3\n      mstore\n      tag_290\n      swap2\n      dup2\n      add\n      swap1\n      tag_257\n      jump\t// in\n    tag_290:\n      0x01\n    tag_289:\n        /* \"KIP37/KIP37.sol\":11876:12341  try IKIP37Receiver(to).onKIP37Received(operator, from, id, amount, data) returns (bytes4 retval) {... */\n      tag_291\n      jumpi\n      returndatasize\n      dup1\n      dup1\n      iszero\n      tag_263\n      jumpi\n      mload(0x40)\n      swap2\n      pop\n      and(add(returndatasize, 0x3f), not(0x1f))\n      dup3\n      add\n      0x40\n      mstore\n      returndatasize\n      dup3\n      mstore\n      returndatasize\n      0x00\n      0x20\n      dup5\n      add\n      returndatacopy\n      jump(tag_262)\n    tag_291:\n      not(sub(shl(0xe0, 0x01), 0x01))\n        /* \"KIP37/KIP37.sol\":11998:12047  retval == IKIP37Receiver.onKIP37Received.selector */\n      and\n      shl(0xe0, 0xe78b3325)\n      eq\n      swap1\n      pop\n        /* \"KIP37/KIP37.sol\":11991:12047  return retval == IKIP37Receiver.onKIP37Received.selector */\n      jump(tag_267)\n        /* \"KIP37/KIP37.sol\":13215:13992  function _checkOnERC1155Received(... */\n    tag_246:\n        /* \"KIP37/KIP37.sol\":13410:13414  bool */\n      0x00\n      sub(shl(0xa0, 0x01), 0x01)\n        /* \"KIP37/KIP37.sol\":13430:13443  to.isContract */\n      dup6\n      and\n        /* \"KIP37/utils/Address.sol\":163:182  account.code.length */\n      extcodesize\n        /* \"KIP37/utils/Address.sol\":163:186  account.code.length > 0 */\n      iszero\n        /* \"KIP37/KIP37.sol\":13426:13986  if (to.isContract()) {... */\n      tag_252\n      jumpi\n        /* \"KIP37/KIP37.sol\":13465:13537  IERC1155Receiver(to).onERC1155Received(operator, from, id, amount, data) */\n      mload(0x40)\n      shl(0xe0, 0xf23a6e61)\n      dup2\n      mstore\n      sub(shl(0xa0, 0x01), 0x01)\n        /* \"KIP37/KIP37.sol\":13465:13503  IERC1155Receiver(to).onERC1155Received */\n      dup7\n      and\n      swap1\n      0xf23a6e61\n      swap1\n        /* \"KIP37/KIP37.sol\":13465:13537  IERC1155Receiver(to).onERC1155Received(operator, from, id, amount, data) */\n      tag_304\n      swap1\n        /* \"KIP37/KIP37.sol\":13504:13512  operator */\n      dup11\n      swap1\n        /* \"KIP37/KIP37.sol\":13514:13518  from */\n      dup11\n      swap1\n        /* \"KIP37/KIP37.sol\":13520:13522  id */\n      dup10\n      swap1\n        /* \"KIP37/KIP37.sol\":13524:13530  amount */\n      dup10\n      swap1\n        /* \"KIP37/KIP37.sol\":13532:13536  data */\n      dup10\n      swap1\n        /* \"KIP37/KIP37.sol\":13465:13537  IERC1155Receiver(to).onERC1155Received(operator, from, id, amount, data) */\n      0x04\n      add\n      tag_288\n      jump\t// in\n    tag_304:\n      0x20\n      mload(0x40)\n      dup1\n      dup4\n      sub\n      dup2\n      0x00\n      dup8\n      gas\n      call\n      swap3\n      pop\n      pop\n      pop\n      dup1\n      iszero\n      tag_305\n      jumpi\n      pop\n      0x40\n      dup1\n      mload\n      0x1f\n      returndatasize\n      swap1\n      dup2\n      add\n      not(0x1f)\n      and\n      dup3\n      add\n      swap1\n      swap3\n      mstore\n      tag_306\n      swap2\n      dup2\n      add\n      swap1\n      tag_257\n      jump\t// in\n    tag_306:\n      0x01\n    tag_305:\n        /* \"KIP37/KIP37.sol\":13461:13934  try IERC1155Receiver(to).onERC1155Received(operator, from, id, amount, data) returns (bytes4 retval) {... */\n      tag_307\n      jumpi\n      returndatasize\n      dup1\n      dup1\n      iszero\n      tag_263\n      jumpi\n      mload(0x40)\n      swap2\n      pop\n      and(add(returndatasize, 0x3f), not(0x1f))\n      dup3\n      add\n      0x40\n      mstore\n      returndatasize\n      dup3\n      mstore\n      returndatasize\n      0x00\n      0x20\n      dup5\n      add\n      returndatacopy\n      jump(tag_262)\n    tag_307:\n      not(sub(shl(0xe0, 0x01), 0x01))\n        /* \"KIP37/KIP37.sol\":13587:13640  retval == IERC1155Receiver.onERC1155Received.selector */\n      and\n      shl(0xe0, 0xf23a6e61)\n      eq\n      swap1\n      pop\n        /* \"KIP37/KIP37.sol\":13580:13640  return retval == IERC1155Receiver.onERC1155Received.selector */\n      jump(tag_267)\n        /* \"#utility.yul\":14:187   */\n    tag_318:\n        /* \"#utility.yul\":82:102   */\n      dup1\n      calldataload\n      sub(shl(0xa0, 0x01), 0x01)\n        /* \"#utility.yul\":131:162   */\n      dup2\n      and\n        /* \"#utility.yul\":121:163   */\n      dup2\n      eq\n        /* \"#utility.yul\":111:181   */\n      tag_329\n      jumpi\n        /* \"#utility.yul\":177:178   */\n      0x00\n        /* \"#utility.yul\":174:175   */\n      dup1\n        /* \"#utility.yul\":167:179   */\n      revert\n        /* \"#utility.yul\":111:181   */\n    tag_329:\n        /* \"#utility.yul\":14:187   */\n      swap2\n      swap1\n      pop\n      jump\t// out\n        /* \"#utility.yul\":192:446   */\n    tag_17:\n        /* \"#utility.yul\":260:266   */\n      0x00\n        /* \"#utility.yul\":268:274   */\n      dup1\n        /* \"#utility.yul\":321:323   */\n      0x40\n        /* \"#utility.yul\":309:318   */\n      dup4\n        /* \"#utility.yul\":300:307   */\n      dup6\n        /* \"#utility.yul\":296:319   */\n      sub\n        /* \"#utility.yul\":292:324   */\n      slt\n        /* \"#utility.yul\":289:341   */\n      iszero\n      tag_331\n      jumpi\n        /* \"#utility.yul\":337:338   */\n      0x00\n        /* \"#utility.yul\":334:335   */\n      dup1\n        /* \"#utility.yul\":327:339   */\n      revert\n        /* \"#utility.yul\":289:341   */\n    tag_331:\n        /* \"#utility.yul\":360:389   */\n      tag_332\n        /* \"#utility.yul\":379:388   */\n      dup4\n        /* \"#utility.yul\":360:389   */\n      tag_318\n      jump\t// in\n    tag_332:\n        /* \"#utility.yul\":350:389   */\n      swap5\n        /* \"#utility.yul\":436:438   */\n      0x20\n        /* \"#utility.yul\":421:439   */\n      swap4\n      swap1\n      swap4\n      add\n        /* \"#utility.yul\":408:440   */\n      calldataload\n      swap4\n      pop\n      pop\n      pop\n        /* \"#utility.yul\":192:446   */\n      jump\t// out\n        /* \"#utility.yul\":633:764   */\n    tag_319:\n      not(sub(shl(0xe0, 0x01), 0x01))\n        /* \"#utility.yul\":707:739   */\n      dup2\n      and\n        /* \"#utility.yul\":697:740   */\n      dup2\n      eq\n        /* \"#utility.yul\":687:758   */\n      tag_335\n      jumpi\n        /* \"#utility.yul\":754:755   */\n      0x00\n        /* \"#utility.yul\":751:752   */\n      dup1\n        /* \"#utility.yul\":744:756   */\n      revert\n        /* \"#utility.yul\":687:758   */\n    tag_335:\n        /* \"#utility.yul\":633:764   */\n      pop\n      jump\t// out\n        /* \"#utility.yul\":769:1014   */\n    tag_23:\n        /* \"#utility.yul\":827:833   */\n      0x00\n        /* \"#utility.yul\":880:882   */\n      0x20\n        /* \"#utility.yul\":868:877   */\n      dup3\n        /* \"#utility.yul\":859:866   */\n      dup5\n        /* \"#utility.yul\":855:878   */\n      sub\n        /* \"#utility.yul\":851:883   */\n      slt\n        /* \"#utility.yul\":848:900   */\n      iszero\n      tag_337\n      jumpi\n        /* \"#utility.yul\":896:897   */\n      0x00\n        /* \"#utility.yul\":893:894   */\n      dup1\n        /* \"#utility.yul\":886:898   */\n      revert\n        /* \"#utility.yul\":848:900   */\n    tag_337:\n        /* \"#utility.yul\":935:944   */\n      dup2\n        /* \"#utility.yul\":922:945   */\n      calldataload\n        /* \"#utility.yul\":954:984   */\n      tag_338\n        /* \"#utility.yul\":978:983   */\n      dup2\n        /* \"#utility.yul\":954:984   */\n      tag_319\n      jump\t// in\n    tag_338:\n        /* \"#utility.yul\":1003:1008   */\n      swap4\n        /* \"#utility.yul\":769:1014   */\n      swap3\n      pop\n      pop\n      pop\n      jump\t// out\n        /* \"#utility.yul\":1211:1391   */\n    tag_29:\n        /* \"#utility.yul\":1270:1276   */\n      0x00\n        /* \"#utility.yul\":1323:1325   */\n      0x20\n        /* \"#utility.yul\":1311:1320   */\n      dup3\n        /* \"#utility.yul\":1302:1309   */\n      dup5\n        /* \"#utility.yul\":1298:1321   */\n      sub\n        /* \"#utility.yul\":1294:1326   */\n      slt\n        /* \"#utility.yul\":1291:1343   */\n      iszero\n      tag_341\n      jumpi\n        /* \"#utility.yul\":1339:1340   */\n      0x00\n        /* \"#utility.yul\":1336:1337   */\n      dup1\n        /* \"#utility.yul\":1329:1341   */\n      revert\n        /* \"#utility.yul\":1291:1343   */\n    tag_341:\n      pop\n        /* \"#utility.yul\":1362:1385   */\n      calldataload\n      swap2\n        /* \"#utility.yul\":1211:1391   */\n      swap1\n      pop\n      jump\t// out\n        /* \"#utility.yul\":1396:1819   */\n    tag_320:\n        /* \"#utility.yul\":1438:1441   */\n      0x00\n        /* \"#utility.yul\":1476:1481   */\n      dup2\n        /* \"#utility.yul\":1470:1482   */\n      mload\n        /* \"#utility.yul\":1503:1509   */\n      dup1\n        /* \"#utility.yul\":1498:1501   */\n      dup5\n        /* \"#utility.yul\":1491:1510   */\n      mstore\n        /* \"#utility.yul\":1528:1529   */\n      0x00\n        /* \"#utility.yul\":1538:1700   */\n    tag_343:\n        /* \"#utility.yul\":1552:1558   */\n      dup2\n        /* \"#utility.yul\":1549:1550   */\n      dup2\n        /* \"#utility.yul\":1546:1559   */\n      lt\n        /* \"#utility.yul\":1538:1700   */\n      iszero\n      tag_345\n      jumpi\n        /* \"#utility.yul\":1614:1618   */\n      0x20\n        /* \"#utility.yul\":1670:1683   */\n      dup2\n      dup6\n      add\n        /* \"#utility.yul\":1666:1688   */\n      dup2\n      add\n        /* \"#utility.yul\":1660:1689   */\n      mload\n        /* \"#utility.yul\":1642:1653   */\n      dup7\n      dup4\n      add\n        /* \"#utility.yul\":1638:1658   */\n      dup3\n      add\n        /* \"#utility.yul\":1631:1690   */\n      mstore\n        /* \"#utility.yul\":1567:1579   */\n      add\n        /* \"#utility.yul\":1538:1700   */\n      jump(tag_343)\n    tag_345:\n        /* \"#utility.yul\":1542:1545   */\n      pop\n        /* \"#utility.yul\":1745:1746   */\n      0x00\n        /* \"#utility.yul\":1738:1742   */\n      0x20\n        /* \"#utility.yul\":1729:1735   */\n      dup3\n        /* \"#utility.yul\":1724:1727   */\n      dup7\n        /* \"#utility.yul\":1720:1736   */\n      add\n        /* \"#utility.yul\":1716:1743   */\n      add\n        /* \"#utility.yul\":1709:1747   */\n      mstore\n        /* \"#utility.yul\":1808:1812   */\n      0x20\n        /* \"#utility.yul\":1801:1803   */\n      0x1f\n        /* \"#utility.yul\":1797:1804   */\n      not\n        /* \"#utility.yul\":1792:1794   */\n      0x1f\n        /* \"#utility.yul\":1784:1790   */\n      dup4\n        /* \"#utility.yul\":1780:1795   */\n      add\n        /* \"#utility.yul\":1776:1805   */\n      and\n        /* \"#utility.yul\":1771:1774   */\n      dup6\n        /* \"#utility.yul\":1767:1806   */\n      add\n        /* \"#utility.yul\":1763:1813   */\n      add\n        /* \"#utility.yul\":1756:1813   */\n      swap2\n      pop\n      pop\n        /* \"#utility.yul\":1396:1819   */\n      swap3\n      swap2\n      pop\n      pop\n      jump\t// out\n        /* \"#utility.yul\":1824:2044   */\n    tag_32:\n        /* \"#utility.yul\":1973:1975   */\n      0x20\n        /* \"#utility.yul\":1962:1971   */\n      dup2\n        /* \"#utility.yul\":1955:1976   */\n      mstore\n        /* \"#utility.yul\":1936:1940   */\n      0x00\n        /* \"#utility.yul\":1993:2038   */\n      tag_338\n        /* \"#utility.yul\":2034:2036   */\n      0x20\n        /* \"#utility.yul\":2023:2032   */\n      dup4\n        /* \"#utility.yul\":2019:2037   */\n      add\n        /* \"#utility.yul\":2011:2017   */\n      dup5\n        /* \"#utility.yul\":1993:2038   */\n      tag_320\n      jump\t// in\n        /* \"#utility.yul\":2049:2176   */\n    tag_102:\n        /* \"#utility.yul\":2110:2120   */\n      0x4e487b71\n        /* \"#utility.yul\":2105:2108   */\n      0xe0\n        /* \"#utility.yul\":2101:2121   */\n      shl\n        /* \"#utility.yul\":2098:2099   */\n      0x00\n        /* \"#utility.yul\":2091:2122   */\n      mstore\n        /* \"#utility.yul\":2141:2145   */\n      0x41\n        /* \"#utility.yul\":2138:2139   */\n      0x04\n        /* \"#utility.yul\":2131:2146   */\n      mstore\n        /* \"#utility.yul\":2165:2169   */\n      0x24\n        /* \"#utility.yul\":2162:2163   */\n      0x00\n        /* \"#utility.yul\":2155:2170   */\n      revert\n        /* \"#utility.yul\":2181:2456   */\n    tag_321:\n        /* \"#utility.yul\":2252:2254   */\n      0x40\n        /* \"#utility.yul\":2246:2255   */\n      mload\n        /* \"#utility.yul\":2317:2319   */\n      0x1f\n        /* \"#utility.yul\":2298:2311   */\n      dup3\n      add\n      not(0x1f)\n        /* \"#utility.yul\":2294:2321   */\n      and\n        /* \"#utility.yul\":2282:2322   */\n      dup2\n      add\n        /* \"#utility.yul\":2352:2370   */\n      0xffffffffffffffff\n        /* \"#utility.yul\":2337:2371   */\n      dup2\n      gt\n        /* \"#utility.yul\":2373:2395   */\n      dup3\n      dup3\n      lt\n        /* \"#utility.yul\":2334:2396   */\n      or\n        /* \"#utility.yul\":2331:2419   */\n      iszero\n      tag_351\n      jumpi\n        /* \"#utility.yul\":2399:2417   */\n      tag_351\n      tag_102\n      jump\t// in\n    tag_351:\n        /* \"#utility.yul\":2435:2437   */\n      0x40\n        /* \"#utility.yul\":2428:2450   */\n      mstore\n        /* \"#utility.yul\":2181:2456   */\n      swap2\n      swap1\n      pop\n      jump\t// out\n        /* \"#utility.yul\":2461:2644   */\n    tag_322:\n        /* \"#utility.yul\":2521:2525   */\n      0x00\n        /* \"#utility.yul\":2554:2572   */\n      0xffffffffffffffff\n        /* \"#utility.yul\":2546:2552   */\n      dup3\n        /* \"#utility.yul\":2543:2573   */\n      gt\n        /* \"#utility.yul\":2540:2596   */\n      iszero\n      tag_354\n      jumpi\n        /* \"#utility.yul\":2576:2594   */\n      tag_354\n      tag_102\n      jump\t// in\n    tag_354:\n      pop\n        /* \"#utility.yul\":2621:2622   */\n      0x05\n        /* \"#utility.yul\":2617:2631   */\n      shl\n        /* \"#utility.yul\":2633:2637   */\n      0x20\n        /* \"#utility.yul\":2613:2638   */\n      add\n      swap1\n        /* \"#utility.yul\":2461:2644   */\n      jump\t// out\n        /* \"#utility.yul\":2649:3311   */\n    tag_323:\n        /* \"#utility.yul\":2703:2708   */\n      0x00\n        /* \"#utility.yul\":2756:2759   */\n      dup3\n        /* \"#utility.yul\":2749:2753   */\n      0x1f\n        /* \"#utility.yul\":2741:2747   */\n      dup4\n        /* \"#utility.yul\":2737:2754   */\n      add\n        /* \"#utility.yul\":2733:2760   */\n      slt\n        /* \"#utility.yul\":2723:2778   */\n      tag_356\n      jumpi\n        /* \"#utility.yul\":2774:2775   */\n      0x00\n        /* \"#utility.yul\":2771:2772   */\n      dup1\n        /* \"#utility.yul\":2764:2776   */\n      revert\n        /* \"#utility.yul\":2723:2778   */\n    tag_356:\n        /* \"#utility.yul\":2810:2816   */\n      dup2\n        /* \"#utility.yul\":2797:2817   */\n      calldataload\n        /* \"#utility.yul\":2836:2840   */\n      0x20\n        /* \"#utility.yul\":2860:2920   */\n      tag_357\n        /* \"#utility.yul\":2876:2919   */\n      tag_358\n        /* \"#utility.yul\":2916:2918   */\n      dup4\n        /* \"#utility.yul\":2876:2919   */\n      tag_322\n      jump\t// in\n    tag_358:\n        /* \"#utility.yul\":2860:2920   */\n      tag_321\n      jump\t// in\n    tag_357:\n        /* \"#utility.yul\":2954:2969   */\n      dup3\n      dup2\n      mstore\n        /* \"#utility.yul\":3040:3041   */\n      0x05\n        /* \"#utility.yul\":3036:3046   */\n      swap3\n      swap1\n      swap3\n      shl\n        /* \"#utility.yul\":3024:3047   */\n      dup5\n      add\n        /* \"#utility.yul\":3020:3052   */\n      dup2\n      add\n      swap2\n        /* \"#utility.yul\":2985:2997   */\n      dup2\n      dup2\n      add\n      swap1\n        /* \"#utility.yul\":3064:3079   */\n      dup7\n      dup5\n      gt\n        /* \"#utility.yul\":3061:3096   */\n      iszero\n      tag_359\n      jumpi\n        /* \"#utility.yul\":3092:3093   */\n      0x00\n        /* \"#utility.yul\":3089:3090   */\n      dup1\n        /* \"#utility.yul\":3082:3094   */\n      revert\n        /* \"#utility.yul\":3061:3096   */\n    tag_359:\n        /* \"#utility.yul\":3128:3130   */\n      dup3\n        /* \"#utility.yul\":3120:3126   */\n      dup7\n        /* \"#utility.yul\":3116:3131   */\n      add\n        /* \"#utility.yul\":3140:3282   */\n    tag_360:\n        /* \"#utility.yul\":3156:3162   */\n      dup5\n        /* \"#utility.yul\":3151:3154   */\n      dup2\n        /* \"#utility.yul\":3148:3163   */\n      lt\n        /* \"#utility.yul\":3140:3282   */\n      iszero\n      tag_362\n      jumpi\n        /* \"#utility.yul\":3222:3239   */\n      dup1\n      calldataload\n        /* \"#utility.yul\":3210:3240   */\n      dup4\n      mstore\n        /* \"#utility.yul\":3260:3272   */\n      swap2\n      dup4\n      add\n      swap2\n        /* \"#utility.yul\":3173:3185   */\n      dup4\n      add\n        /* \"#utility.yul\":3140:3282   */\n      jump(tag_360)\n    tag_362:\n      pop\n        /* \"#utility.yul\":3300:3305   */\n      swap7\n        /* \"#utility.yul\":2649:3311   */\n      swap6\n      pop\n      pop\n      pop\n      pop\n      pop\n      pop\n      jump\t// out\n        /* \"#utility.yul\":3316:3846   */\n    tag_324:\n        /* \"#utility.yul\":3358:3363   */\n      0x00\n        /* \"#utility.yul\":3411:3414   */\n      dup3\n        /* \"#utility.yul\":3404:3408   */\n      0x1f\n        /* \"#utility.yul\":3396:3402   */\n      dup4\n        /* \"#utility.yul\":3392:3409   */\n      add\n        /* \"#utility.yul\":3388:3415   */\n      slt\n        /* \"#utility.yul\":3378:3433   */\n      tag_364\n      jumpi\n        /* \"#utility.yul\":3429:3430   */\n      0x00\n        /* \"#utility.yul\":3426:3427   */\n      dup1\n        /* \"#utility.yul\":3419:3431   */\n      revert\n        /* \"#utility.yul\":3378:3433   */\n    tag_364:\n        /* \"#utility.yul\":3465:3471   */\n      dup2\n        /* \"#utility.yul\":3452:3472   */\n      calldataload\n        /* \"#utility.yul\":3491:3509   */\n      0xffffffffffffffff\n        /* \"#utility.yul\":3487:3489   */\n      dup2\n        /* \"#utility.yul\":3484:3510   */\n      gt\n        /* \"#utility.yul\":3481:3533   */\n      iszero\n      tag_366\n      jumpi\n        /* \"#utility.yul\":3513:3531   */\n      tag_366\n      tag_102\n      jump\t// in\n    tag_366:\n        /* \"#utility.yul\":3557:3612   */\n      tag_367\n        /* \"#utility.yul\":3600:3602   */\n      0x1f\n        /* \"#utility.yul\":3581:3594   */\n      dup3\n      add\n      not(0x1f)\n        /* \"#utility.yul\":3577:3604   */\n      and\n        /* \"#utility.yul\":3606:3610   */\n      0x20\n        /* \"#utility.yul\":3573:3611   */\n      add\n        /* \"#utility.yul\":3557:3612   */\n      tag_321\n      jump\t// in\n    tag_367:\n        /* \"#utility.yul\":3637:3639   */\n      dup2\n        /* \"#utility.yul\":3628:3635   */\n      dup2\n        /* \"#utility.yul\":3621:3640   */\n      mstore\n        /* \"#utility.yul\":3683:3686   */\n      dup5\n        /* \"#utility.yul\":3676:3680   */\n      0x20\n        /* \"#utility.yul\":3671:3673   */\n      dup4\n        /* \"#utility.yul\":3663:3669   */\n      dup7\n        /* \"#utility.yul\":3659:3674   */\n      add\n        /* \"#utility.yul\":3655:3681   */\n      add\n        /* \"#utility.yul\":3652:3687   */\n      gt\n        /* \"#utility.yul\":3649:3704   */\n      iszero\n      tag_368\n      jumpi\n        /* \"#utility.yul\":3700:3701   */\n      0x00\n        /* \"#utility.yul\":3697:3698   */\n      dup1\n        /* \"#utility.yul\":3690:3702   */\n      revert\n        /* \"#utility.yul\":3649:3704   */\n    tag_368:\n        /* \"#utility.yul\":3765:3767   */\n      dup2\n        /* \"#utility.yul\":3758:3762   */\n      0x20\n        /* \"#utility.yul\":3750:3756   */\n      dup6\n        /* \"#utility.yul\":3746:3763   */\n      add\n        /* \"#utility.yul\":3739:3743   */\n      0x20\n        /* \"#utility.yul\":3730:3737   */\n      dup4\n        /* \"#utility.yul\":3726:3744   */\n      add\n        /* \"#utility.yul\":3713:3768   */\n      calldatacopy\n        /* \"#utility.yul\":3813:3814   */\n      0x00\n        /* \"#utility.yul\":3788:3804   */\n      swap2\n      dup2\n      add\n        /* \"#utility.yul\":3806:3810   */\n      0x20\n        /* \"#utility.yul\":3784:3811   */\n      add\n        /* \"#utility.yul\":3777:3815   */\n      swap2\n      swap1\n      swap2\n      mstore\n        /* \"#utility.yul\":3792:3799   */\n      swap4\n        /* \"#utility.yul\":3316:3846   */\n      swap3\n      pop\n      pop\n      pop\n      jump\t// out\n        /* \"#utility.yul\":3851:4794   */\n    tag_35:\n        /* \"#utility.yul\":4005:4011   */\n      0x00\n        /* \"#utility.yul\":4013:4019   */\n      dup1\n        /* \"#utility.yul\":4021:4027   */\n      0x00\n        /* \"#utility.yul\":4029:4035   */\n      dup1\n        /* \"#utility.yul\":4037:4043   */\n      0x00\n        /* \"#utility.yul\":4090:4093   */\n      0xa0\n        /* \"#utility.yul\":4078:4087   */\n      dup7\n        /* \"#utility.yul\":4069:4076   */\n      dup9\n        /* \"#utility.yul\":4065:4088   */\n      sub\n        /* \"#utility.yul\":4061:4094   */\n      slt\n        /* \"#utility.yul\":4058:4111   */\n      iszero\n      tag_370\n      jumpi\n        /* \"#utility.yul\":4107:4108   */\n      0x00\n        /* \"#utility.yul\":4104:4105   */\n      dup1\n        /* \"#utility.yul\":4097:4109   */\n      revert\n        /* \"#utility.yul\":4058:4111   */\n    tag_370:\n        /* \"#utility.yul\":4130:4159   */\n      tag_371\n        /* \"#utility.yul\":4149:4158   */\n      dup7\n        /* \"#utility.yul\":4130:4159   */\n      tag_318\n      jump\t// in\n    tag_371:\n        /* \"#utility.yul\":4120:4159   */\n      swap5\n      pop\n        /* \"#utility.yul\":4178:4216   */\n      tag_372\n        /* \"#utility.yul\":4212:4214   */\n      0x20\n        /* \"#utility.yul\":4201:4210   */\n      dup8\n        /* \"#utility.yul\":4197:4215   */\n      add\n        /* \"#utility.yul\":4178:4216   */\n      tag_318\n      jump\t// in\n    tag_372:\n        /* \"#utility.yul\":4168:4216   */\n      swap4\n      pop\n        /* \"#utility.yul\":4267:4269   */\n      0x40\n        /* \"#utility.yul\":4256:4265   */\n      dup7\n        /* \"#utility.yul\":4252:4270   */\n      add\n        /* \"#utility.yul\":4239:4271   */\n      calldataload\n        /* \"#utility.yul\":4290:4308   */\n      0xffffffffffffffff\n        /* \"#utility.yul\":4331:4333   */\n      dup1\n        /* \"#utility.yul\":4323:4329   */\n      dup3\n        /* \"#utility.yul\":4320:4334   */\n      gt\n        /* \"#utility.yul\":4317:4351   */\n      iszero\n      tag_373\n      jumpi\n        /* \"#utility.yul\":4347:4348   */\n      0x00\n        /* \"#utility.yul\":4344:4345   */\n      dup1\n        /* \"#utility.yul\":4337:4349   */\n      revert\n        /* \"#utility.yul\":4317:4351   */\n    tag_373:\n        /* \"#utility.yul\":4370:4431   */\n      tag_374\n        /* \"#utility.yul\":4423:4430   */\n      dup10\n        /* \"#utility.yul\":4414:4420   */\n      dup4\n        /* \"#utility.yul\":4403:4412   */\n      dup11\n        /* \"#utility.yul\":4399:4421   */\n      add\n        /* \"#utility.yul\":4370:4431   */\n      tag_323\n      jump\t// in\n    tag_374:\n        /* \"#utility.yul\":4360:4431   */\n      swap5\n      pop\n        /* \"#utility.yul\":4484:4486   */\n      0x60\n        /* \"#utility.yul\":4473:4482   */\n      dup9\n        /* \"#utility.yul\":4469:4487   */\n      add\n        /* \"#utility.yul\":4456:4488   */\n      calldataload\n        /* \"#utility.yul\":4440:4488   */\n      swap2\n      pop\n        /* \"#utility.yul\":4513:4515   */\n      dup1\n        /* \"#utility.yul\":4503:4511   */\n      dup3\n        /* \"#utility.yul\":4500:4516   */\n      gt\n        /* \"#utility.yul\":4497:4533   */\n      iszero\n      tag_375\n      jumpi\n        /* \"#utility.yul\":4529:4530   */\n      0x00\n        /* \"#utility.yul\":4526:4527   */\n      dup1\n        /* \"#utility.yul\":4519:4531   */\n      revert\n        /* \"#utility.yul\":4497:4533   */\n    tag_375:\n        /* \"#utility.yul\":4552:4615   */\n      tag_376\n        /* \"#utility.yul\":4607:4614   */\n      dup10\n        /* \"#utility.yul\":4596:4604   */\n      dup4\n        /* \"#utility.yul\":4585:4594   */\n      dup11\n        /* \"#utility.yul\":4581:4605   */\n      add\n        /* \"#utility.yul\":4552:4615   */\n      tag_323\n      jump\t// in\n    tag_376:\n        /* \"#utility.yul\":4542:4615   */\n      swap4\n      pop\n        /* \"#utility.yul\":4668:4671   */\n      0x80\n        /* \"#utility.yul\":4657:4666   */\n      dup9\n        /* \"#utility.yul\":4653:4672   */\n      add\n        /* \"#utility.yul\":4640:4673   */\n      calldataload\n        /* \"#utility.yul\":4624:4673   */\n      swap2\n      pop\n        /* \"#utility.yul\":4698:4700   */\n      dup1\n        /* \"#utility.yul\":4688:4696   */\n      dup3\n        /* \"#utility.yul\":4685:4701   */\n      gt\n        /* \"#utility.yul\":4682:4718   */\n      iszero\n      tag_377\n      jumpi\n        /* \"#utility.yul\":4714:4715   */\n      0x00\n        /* \"#utility.yul\":4711:4712   */\n      dup1\n        /* \"#utility.yul\":4704:4716   */\n      revert\n        /* \"#utility.yul\":4682:4718   */\n    tag_377:\n      pop\n        /* \"#utility.yul\":4737:4788   */\n      tag_378\n        /* \"#utility.yul\":4780:4787   */\n      dup9\n        /* \"#utility.yul\":4769:4777   */\n      dup3\n        /* \"#utility.yul\":4758:4767   */\n      dup10\n        /* \"#utility.yul\":4754:4778   */\n      add\n        /* \"#utility.yul\":4737:4788   */\n      tag_324\n      jump\t// in\n    tag_378:\n        /* \"#utility.yul\":4727:4788   */\n      swap2\n      pop\n      pop\n        /* \"#utility.yul\":3851:4794   */\n      swap3\n      swap6\n      pop\n      swap3\n      swap6\n      swap1\n      swap4\n      pop\n      jump\t// out\n        /* \"#utility.yul\":4799:5945   */\n    tag_39:\n        /* \"#utility.yul\":4917:4923   */\n      0x00\n        /* \"#utility.yul\":4925:4931   */\n      dup1\n        /* \"#utility.yul\":4978:4980   */\n      0x40\n        /* \"#utility.yul\":4966:4975   */\n      dup4\n        /* \"#utility.yul\":4957:4964   */\n      dup6\n        /* \"#utility.yul\":4953:4976   */\n      sub\n        /* \"#utility.yul\":4949:4981   */\n      slt\n        /* \"#utility.yul\":4946:4998   */\n      iszero\n      tag_380\n      jumpi\n        /* \"#utility.yul\":4994:4995   */\n      0x00\n        /* \"#utility.yul\":4991:4992   */\n      dup1\n        /* \"#utility.yul\":4984:4996   */\n      revert\n        /* \"#utility.yul\":4946:4998   */\n    tag_380:\n        /* \"#utility.yul\":5034:5043   */\n      dup3\n        /* \"#utility.yul\":5021:5044   */\n      calldataload\n        /* \"#utility.yul\":5063:5081   */\n      0xffffffffffffffff\n        /* \"#utility.yul\":5104:5106   */\n      dup1\n        /* \"#utility.yul\":5096:5102   */\n      dup3\n        /* \"#utility.yul\":5093:5107   */\n      gt\n        /* \"#utility.yul\":5090:5124   */\n      iszero\n      tag_381\n      jumpi\n        /* \"#utility.yul\":5120:5121   */\n      0x00\n        /* \"#utility.yul\":5117:5118   */\n      dup1\n        /* \"#utility.yul\":5110:5122   */\n      revert\n        /* \"#utility.yul\":5090:5124   */\n    tag_381:\n        /* \"#utility.yul\":5158:5164   */\n      dup2\n        /* \"#utility.yul\":5147:5156   */\n      dup6\n        /* \"#utility.yul\":5143:5165   */\n      add\n        /* \"#utility.yul\":5133:5165   */\n      swap2\n      pop\n        /* \"#utility.yul\":5203:5210   */\n      dup6\n        /* \"#utility.yul\":5196:5200   */\n      0x1f\n        /* \"#utility.yul\":5192:5194   */\n      dup4\n        /* \"#utility.yul\":5188:5201   */\n      add\n        /* \"#utility.yul\":5184:5211   */\n      slt\n        /* \"#utility.yul\":5174:5229   */\n      tag_382\n      jumpi\n        /* \"#utility.yul\":5225:5226   */\n      0x00\n        /* \"#utility.yul\":5222:5223   */\n      dup1\n        /* \"#utility.yul\":5215:5227   */\n      revert\n        /* \"#utility.yul\":5174:5229   */\n    tag_382:\n        /* \"#utility.yul\":5261:5263   */\n      dup2\n        /* \"#utility.yul\":5248:5264   */\n      calldataload\n        /* \"#utility.yul\":5283:5287   */\n      0x20\n        /* \"#utility.yul\":5307:5367   */\n      tag_383\n        /* \"#utility.yul\":5323:5366   */\n      tag_358\n        /* \"#utility.yul\":5363:5365   */\n      dup4\n        /* \"#utility.yul\":5323:5366   */\n      tag_322\n      jump\t// in\n        /* \"#utility.yul\":5307:5367   */\n    tag_383:\n        /* \"#utility.yul\":5401:5416   */\n      dup3\n      dup2\n      mstore\n        /* \"#utility.yul\":5483:5484   */\n      0x05\n        /* \"#utility.yul\":5479:5489   */\n      swap3\n      swap1\n      swap3\n      shl\n        /* \"#utility.yul\":5471:5490   */\n      dup5\n      add\n        /* \"#utility.yul\":5467:5495   */\n      dup2\n      add\n      swap2\n        /* \"#utility.yul\":5432:5444   */\n      dup2\n      dup2\n      add\n      swap1\n        /* \"#utility.yul\":5507:5526   */\n      dup10\n      dup5\n      gt\n        /* \"#utility.yul\":5504:5543   */\n      iszero\n      tag_385\n      jumpi\n        /* \"#utility.yul\":5539:5540   */\n      0x00\n        /* \"#utility.yul\":5536:5537   */\n      dup1\n        /* \"#utility.yul\":5529:5541   */\n      revert\n        /* \"#utility.yul\":5504:5543   */\n    tag_385:\n        /* \"#utility.yul\":5563:5574   */\n      swap5\n      dup3\n      add\n      swap5\n        /* \"#utility.yul\":5583:5731   */\n    tag_386:\n        /* \"#utility.yul\":5599:5605   */\n      dup4\n        /* \"#utility.yul\":5594:5597   */\n      dup7\n        /* \"#utility.yul\":5591:5606   */\n      lt\n        /* \"#utility.yul\":5583:5731   */\n      iszero\n      tag_388\n      jumpi\n        /* \"#utility.yul\":5665:5688   */\n      tag_389\n        /* \"#utility.yul\":5684:5687   */\n      dup7\n        /* \"#utility.yul\":5665:5688   */\n      tag_318\n      jump\t// in\n    tag_389:\n        /* \"#utility.yul\":5653:5689   */\n      dup3\n      mstore\n        /* \"#utility.yul\":5616:5628   */\n      swap5\n      dup3\n      add\n      swap5\n        /* \"#utility.yul\":5709:5721   */\n      swap1\n      dup3\n      add\n      swap1\n        /* \"#utility.yul\":5583:5731   */\n      jump(tag_386)\n    tag_388:\n        /* \"#utility.yul\":5750:5755   */\n      swap7\n      pop\n      pop\n        /* \"#utility.yul\":5793:5811   */\n      dup7\n      add\n        /* \"#utility.yul\":5780:5812   */\n      calldataload\n      swap3\n      pop\n      pop\n        /* \"#utility.yul\":5824:5840   */\n      dup1\n      dup3\n      gt\n        /* \"#utility.yul\":5821:5857   */\n      iszero\n      tag_390\n      jumpi\n        /* \"#utility.yul\":5853:5854   */\n      0x00\n        /* \"#utility.yul\":5850:5851   */\n      dup1\n        /* \"#utility.yul\":5843:5855   */\n      revert\n        /* \"#utility.yul\":5821:5857   */\n    tag_390:\n      pop\n        /* \"#utility.yul\":5876:5939   */\n      tag_391\n        /* \"#utility.yul\":5931:5938   */\n      dup6\n        /* \"#utility.yul\":5920:5928   */\n      dup3\n        /* \"#utility.yul\":5909:5918   */\n      dup7\n        /* \"#utility.yul\":5905:5929   */\n      add\n        /* \"#utility.yul\":5876:5939   */\n      tag_323\n      jump\t// in\n    tag_391:\n        /* \"#utility.yul\":5866:5939   */\n      swap2\n      pop\n      pop\n        /* \"#utility.yul\":4799:5945   */\n      swap3\n      pop\n      swap3\n      swap1\n      pop\n      jump\t// out\n        /* \"#utility.yul\":5950:6385   */\n    tag_325:\n        /* \"#utility.yul\":6003:6006   */\n      0x00\n        /* \"#utility.yul\":6041:6046   */\n      dup2\n        /* \"#utility.yul\":6035:6047   */\n      mload\n        /* \"#utility.yul\":6068:6074   */\n      dup1\n        /* \"#utility.yul\":6063:6066   */\n      dup5\n        /* \"#utility.yul\":6056:6075   */\n      mstore\n        /* \"#utility.yul\":6094:6098   */\n      0x20\n        /* \"#utility.yul\":6123:6125   */\n      dup1\n        /* \"#utility.yul\":6118:6121   */\n      dup6\n        /* \"#utility.yul\":6114:6126   */\n      add\n        /* \"#utility.yul\":6107:6126   */\n      swap5\n      pop\n        /* \"#utility.yul\":6160:6162   */\n      dup1\n        /* \"#utility.yul\":6153:6158   */\n      dup5\n        /* \"#utility.yul\":6149:6163   */\n      add\n        /* \"#utility.yul\":6181:6182   */\n      0x00\n        /* \"#utility.yul\":6191:6360   */\n    tag_393:\n        /* \"#utility.yul\":6205:6211   */\n      dup4\n        /* \"#utility.yul\":6202:6203   */\n      dup2\n        /* \"#utility.yul\":6199:6212   */\n      lt\n        /* \"#utility.yul\":6191:6360   */\n      iszero\n      tag_395\n      jumpi\n        /* \"#utility.yul\":6266:6279   */\n      dup2\n      mload\n        /* \"#utility.yul\":6254:6280   */\n      dup8\n      mstore\n        /* \"#utility.yul\":6300:6312   */\n      swap6\n      dup3\n      add\n      swap6\n        /* \"#utility.yul\":6335:6350   */\n      swap1\n      dup3\n      add\n      swap1\n        /* \"#utility.yul\":6227:6228   */\n      0x01\n        /* \"#utility.yul\":6220:6229   */\n      add\n        /* \"#utility.yul\":6191:6360   */\n      jump(tag_393)\n    tag_395:\n      pop\n        /* \"#utility.yul\":6376:6379   */\n      swap5\n      swap6\n        /* \"#utility.yul\":5950:6385   */\n      swap5\n      pop\n      pop\n      pop\n      pop\n      pop\n      jump\t// out\n        /* \"#utility.yul\":6390:6651   */\n    tag_42:\n        /* \"#utility.yul\":6569:6571   */\n      0x20\n        /* \"#utility.yul\":6558:6567   */\n      dup2\n        /* \"#utility.yul\":6551:6572   */\n      mstore\n        /* \"#utility.yul\":6532:6536   */\n      0x00\n        /* \"#utility.yul\":6589:6645   */\n      tag_338\n        /* \"#utility.yul\":6641:6643   */\n      0x20\n        /* \"#utility.yul\":6630:6639   */\n      dup4\n        /* \"#utility.yul\":6626:6644   */\n      add\n        /* \"#utility.yul\":6618:6624   */\n      dup5\n        /* \"#utility.yul\":6589:6645   */\n      tag_325\n      jump\t// in\n        /* \"#utility.yul\":6656:7003   */\n    tag_49:\n        /* \"#utility.yul\":6721:6727   */\n      0x00\n        /* \"#utility.yul\":6729:6735   */\n      dup1\n        /* \"#utility.yul\":6782:6784   */\n      0x40\n        /* \"#utility.yul\":6770:6779   */\n      dup4\n        /* \"#utility.yul\":6761:6768   */\n      dup6\n        /* \"#utility.yul\":6757:6780   */\n      sub\n        /* \"#utility.yul\":6753:6785   */\n      slt\n        /* \"#utility.yul\":6750:6802   */\n      iszero\n      tag_399\n      jumpi\n        /* \"#utility.yul\":6798:6799   */\n      0x00\n        /* \"#utility.yul\":6795:6796   */\n      dup1\n        /* \"#utility.yul\":6788:6800   */\n      revert\n        /* \"#utility.yul\":6750:6802   */\n    tag_399:\n        /* \"#utility.yul\":6821:6850   */\n      tag_400\n        /* \"#utility.yul\":6840:6849   */\n      dup4\n        /* \"#utility.yul\":6821:6850   */\n      tag_318\n      jump\t// in\n    tag_400:\n        /* \"#utility.yul\":6811:6850   */\n      swap2\n      pop\n        /* \"#utility.yul\":6900:6902   */\n      0x20\n        /* \"#utility.yul\":6889:6898   */\n      dup4\n        /* \"#utility.yul\":6885:6903   */\n      add\n        /* \"#utility.yul\":6872:6904   */\n      calldataload\n        /* \"#utility.yul\":6947:6952   */\n      dup1\n        /* \"#utility.yul\":6940:6953   */\n      iszero\n        /* \"#utility.yul\":6933:6954   */\n      iszero\n        /* \"#utility.yul\":6926:6931   */\n      dup2\n        /* \"#utility.yul\":6923:6955   */\n      eq\n        /* \"#utility.yul\":6913:6973   */\n      tag_401\n      jumpi\n        /* \"#utility.yul\":6969:6970   */\n      0x00\n        /* \"#utility.yul\":6966:6967   */\n      dup1\n        /* \"#utility.yul\":6959:6971   */\n      revert\n        /* \"#utility.yul\":6913:6973   */\n    tag_401:\n        /* \"#utility.yul\":6992:6997   */\n      dup1\n        /* \"#utility.yul\":6982:6997   */\n      swap2\n      pop\n      pop\n        /* \"#utility.yul\":6656:7003   */\n      swap3\n      pop\n      swap3\n      swap1\n      pop\n      jump\t// out\n        /* \"#utility.yul\":7008:7262   */\n    tag_53:\n        /* \"#utility.yul\":7076:7082   */\n      0x00\n        /* \"#utility.yul\":7084:7090   */\n      dup1\n        /* \"#utility.yul\":7137:7139   */\n      0x40\n        /* \"#utility.yul\":7125:7134   */\n      dup4\n        /* \"#utility.yul\":7116:7123   */\n      dup6\n        /* \"#utility.yul\":7112:7135   */\n      sub\n        /* \"#utility.yul\":7108:7140   */\n      slt\n        /* \"#utility.yul\":7105:7157   */\n      iszero\n      tag_403\n      jumpi\n        /* \"#utility.yul\":7153:7154   */\n      0x00\n        /* \"#utility.yul\":7150:7151   */\n      dup1\n        /* \"#utility.yul\":7143:7155   */\n      revert\n        /* \"#utility.yul\":7105:7157   */\n    tag_403:\n        /* \"#utility.yul\":7189:7198   */\n      dup3\n        /* \"#utility.yul\":7176:7199   */\n      calldataload\n        /* \"#utility.yul\":7166:7199   */\n      swap2\n      pop\n        /* \"#utility.yul\":7218:7256   */\n      tag_404\n        /* \"#utility.yul\":7252:7254   */\n      0x20\n        /* \"#utility.yul\":7241:7250   */\n      dup5\n        /* \"#utility.yul\":7237:7255   */\n      add\n        /* \"#utility.yul\":7218:7256   */\n      tag_318\n      jump\t// in\n    tag_404:\n        /* \"#utility.yul\":7208:7256   */\n      swap1\n      pop\n        /* \"#utility.yul\":7008:7262   */\n      swap3\n      pop\n      swap3\n      swap1\n      pop\n      jump\t// out\n        /* \"#utility.yul\":7267:7527   */\n    tag_62:\n        /* \"#utility.yul\":7335:7341   */\n      0x00\n        /* \"#utility.yul\":7343:7349   */\n      dup1\n        /* \"#utility.yul\":7396:7398   */\n      0x40\n        /* \"#utility.yul\":7384:7393   */\n      dup4\n        /* \"#utility.yul\":7375:7382   */\n      dup6\n        /* \"#utility.yul\":7371:7394   */\n      sub\n        /* \"#utility.yul\":7367:7399   */\n      slt\n        /* \"#utility.yul\":7364:7416   */\n      iszero\n      tag_406\n      jumpi\n        /* \"#utility.yul\":7412:7413   */\n      0x00\n        /* \"#utility.yul\":7409:7410   */\n      dup1\n        /* \"#utility.yul\":7402:7414   */\n      revert\n        /* \"#utility.yul\":7364:7416   */\n    tag_406:\n        /* \"#utility.yul\":7435:7464   */\n      tag_407\n        /* \"#utility.yul\":7454:7463   */\n      dup4\n        /* \"#utility.yul\":7435:7464   */\n      tag_318\n      jump\t// in\n    tag_407:\n        /* \"#utility.yul\":7425:7464   */\n      swap2\n      pop\n        /* \"#utility.yul\":7483:7521   */\n      tag_404\n        /* \"#utility.yul\":7517:7519   */\n      0x20\n        /* \"#utility.yul\":7506:7515   */\n      dup5\n        /* \"#utility.yul\":7502:7520   */\n      add\n        /* \"#utility.yul\":7483:7521   */\n      tag_318\n      jump\t// in\n        /* \"#utility.yul\":7532:8138   */\n    tag_67:\n        /* \"#utility.yul\":7636:7642   */\n      0x00\n        /* \"#utility.yul\":7644:7650   */\n      dup1\n        /* \"#utility.yul\":7652:7658   */\n      0x00\n        /* \"#utility.yul\":7660:7666   */\n      dup1\n        /* \"#utility.yul\":7668:7674   */\n      0x00\n        /* \"#utility.yul\":7721:7724   */\n      0xa0\n        /* \"#utility.yul\":7709:7718   */\n      dup7\n        /* \"#utility.yul\":7700:7707   */\n      dup9\n        /* \"#utility.yul\":7696:7719   */\n      sub\n        /* \"#utility.yul\":7692:7725   */\n      slt\n        /* \"#utility.yul\":7689:7742   */\n      iszero\n      tag_410\n      jumpi\n        /* \"#utility.yul\":7738:7739   */\n      0x00\n        /* \"#utility.yul\":7735:7736   */\n      dup1\n        /* \"#utility.yul\":7728:7740   */\n      revert\n        /* \"#utility.yul\":7689:7742   */\n    tag_410:\n        /* \"#utility.yul\":7761:7790   */\n      tag_411\n        /* \"#utility.yul\":7780:7789   */\n      dup7\n        /* \"#utility.yul\":7761:7790   */\n      tag_318\n      jump\t// in\n    tag_411:\n        /* \"#utility.yul\":7751:7790   */\n      swap5\n      pop\n        /* \"#utility.yul\":7809:7847   */\n      tag_412\n        /* \"#utility.yul\":7843:7845   */\n      0x20\n        /* \"#utility.yul\":7832:7841   */\n      dup8\n        /* \"#utility.yul\":7828:7846   */\n      add\n        /* \"#utility.yul\":7809:7847   */\n      tag_318\n      jump\t// in\n    tag_412:\n        /* \"#utility.yul\":7799:7847   */\n      swap4\n      pop\n        /* \"#utility.yul\":7894:7896   */\n      0x40\n        /* \"#utility.yul\":7883:7892   */\n      dup7\n        /* \"#utility.yul\":7879:7897   */\n      add\n        /* \"#utility.yul\":7866:7898   */\n      calldataload\n        /* \"#utility.yul\":7856:7898   */\n      swap3\n      pop\n        /* \"#utility.yul\":7945:7947   */\n      0x60\n        /* \"#utility.yul\":7934:7943   */\n      dup7\n        /* \"#utility.yul\":7930:7948   */\n      add\n        /* \"#utility.yul\":7917:7949   */\n      calldataload\n        /* \"#utility.yul\":7907:7949   */\n      swap2\n      pop\n        /* \"#utility.yul\":8000:8003   */\n      0x80\n        /* \"#utility.yul\":7989:7998   */\n      dup7\n        /* \"#utility.yul\":7985:8004   */\n      add\n        /* \"#utility.yul\":7972:8005   */\n      calldataload\n        /* \"#utility.yul\":8028:8046   */\n      0xffffffffffffffff\n        /* \"#utility.yul\":8020:8026   */\n      dup2\n        /* \"#utility.yul\":8017:8047   */\n      gt\n        /* \"#utility.yul\":8014:8064   */\n      iszero\n      tag_413\n      jumpi\n        /* \"#utility.yul\":8060:8061   */\n      0x00\n        /* \"#utility.yul\":8057:8058   */\n      dup1\n        /* \"#utility.yul\":8050:8062   */\n      revert\n        /* \"#utility.yul\":8014:8064   */\n    tag_413:\n        /* \"#utility.yul\":8083:8132   */\n      tag_378\n        /* \"#utility.yul\":8124:8131   */\n      dup9\n        /* \"#utility.yul\":8115:8121   */\n      dup3\n        /* \"#utility.yul\":8104:8113   */\n      dup10\n        /* \"#utility.yul\":8100:8122   */\n      add\n        /* \"#utility.yul\":8083:8132   */\n      tag_324\n      jump\t// in\n        /* \"#utility.yul\":8552:8932   */\n    tag_80:\n        /* \"#utility.yul\":8631:8632   */\n      0x01\n        /* \"#utility.yul\":8627:8639   */\n      dup2\n      dup2\n      shr\n      swap1\n        /* \"#utility.yul\":8674:8686   */\n      dup3\n      and\n      dup1\n        /* \"#utility.yul\":8695:8756   */\n      tag_417\n      jumpi\n        /* \"#utility.yul\":8749:8753   */\n      0x7f\n        /* \"#utility.yul\":8741:8747   */\n      dup3\n        /* \"#utility.yul\":8737:8754   */\n      and\n        /* \"#utility.yul\":8727:8754   */\n      swap2\n      pop\n        /* \"#utility.yul\":8695:8756   */\n    tag_417:\n        /* \"#utility.yul\":8802:8804   */\n      0x20\n        /* \"#utility.yul\":8794:8800   */\n      dup3\n        /* \"#utility.yul\":8791:8805   */\n      lt\n        /* \"#utility.yul\":8771:8789   */\n      dup2\n        /* \"#utility.yul\":8768:8806   */\n      sub\n        /* \"#utility.yul\":8765:8926   */\n      tag_418\n      jumpi\n        /* \"#utility.yul\":8848:8858   */\n      0x4e487b71\n        /* \"#utility.yul\":8843:8846   */\n      0xe0\n        /* \"#utility.yul\":8839:8859   */\n      shl\n        /* \"#utility.yul\":8836:8837   */\n      0x00\n        /* \"#utility.yul\":8829:8860   */\n      mstore\n        /* \"#utility.yul\":8883:8887   */\n      0x22\n        /* \"#utility.yul\":8880:8881   */\n      0x04\n        /* \"#utility.yul\":8873:8888   */\n      mstore\n        /* \"#utility.yul\":8911:8915   */\n      0x24\n        /* \"#utility.yul\":8908:8909   */\n      0x00\n        /* \"#utility.yul\":8901:8916   */\n      revert\n        /* \"#utility.yul\":8765:8926   */\n    tag_418:\n      pop\n        /* \"#utility.yul\":8552:8932   */\n      swap2\n      swap1\n      pop\n      jump\t// out\n        /* \"#utility.yul\":9760:9887   */\n    tag_110:\n        /* \"#utility.yul\":9821:9831   */\n      0x4e487b71\n        /* \"#utility.yul\":9816:9819   */\n      0xe0\n        /* \"#utility.yul\":9812:9832   */\n      shl\n        /* \"#utility.yul\":9809:9810   */\n      0x00\n        /* \"#utility.yul\":9802:9833   */\n      mstore\n        /* \"#utility.yul\":9852:9856   */\n      0x32\n        /* \"#utility.yul\":9849:9850   */\n      0x04\n        /* \"#utility.yul\":9842:9857   */\n      mstore\n        /* \"#utility.yul\":9876:9880   */\n      0x24\n        /* \"#utility.yul\":9873:9874   */\n      0x00\n        /* \"#utility.yul\":9866:9881   */\n      revert\n        /* \"#utility.yul\":9892:10019   */\n    tag_326:\n        /* \"#utility.yul\":9953:9963   */\n      0x4e487b71\n        /* \"#utility.yul\":9948:9951   */\n      0xe0\n        /* \"#utility.yul\":9944:9964   */\n      shl\n        /* \"#utility.yul\":9941:9942   */\n      0x00\n        /* \"#utility.yul\":9934:9965   */\n      mstore\n        /* \"#utility.yul\":9984:9988   */\n      0x11\n        /* \"#utility.yul\":9981:9982   */\n      0x04\n        /* \"#utility.yul\":9974:9989   */\n      mstore\n        /* \"#utility.yul\":10008:10012   */\n      0x24\n        /* \"#utility.yul\":10005:10006   */\n      0x00\n        /* \"#utility.yul\":9998:10013   */\n      revert\n        /* \"#utility.yul\":10024:10159   */\n    tag_116:\n        /* \"#utility.yul\":10063:10066   */\n      0x00\n        /* \"#utility.yul\":10084:10101   */\n      0x01\n      dup3\n      add\n        /* \"#utility.yul\":10081:10124   */\n      tag_425\n      jumpi\n        /* \"#utility.yul\":10104:10122   */\n      tag_425\n      tag_326\n      jump\t// in\n    tag_425:\n      pop\n        /* \"#utility.yul\":10151:10152   */\n      0x01\n        /* \"#utility.yul\":10140:10153   */\n      add\n      swap1\n        /* \"#utility.yul\":10024:10159   */\n      jump\t// out\n        /* \"#utility.yul\":10979:11378   */\n    tag_142:\n        /* \"#utility.yul\":11181:11183   */\n      0x20\n        /* \"#utility.yul\":11163:11184   */\n      dup1\n      dup3\n      mstore\n        /* \"#utility.yul\":11220:11222   */\n      0x23\n        /* \"#utility.yul\":11200:11218   */\n      swap1\n      dup3\n      add\n        /* \"#utility.yul\":11193:11223   */\n      mstore\n        /* \"#utility.yul\":11259:11293   */\n      0x4b495033373a207472616e7366657220746f20746865207a65726f2061646472\n        /* \"#utility.yul\":11254:11256   */\n      0x40\n        /* \"#utility.yul\":11239:11257   */\n      dup3\n      add\n        /* \"#utility.yul\":11232:11294   */\n      mstore\n      shl(0xe8, 0x657373)\n        /* \"#utility.yul\":11325:11327   */\n      0x60\n        /* \"#utility.yul\":11310:11328   */\n      dup3\n      add\n        /* \"#utility.yul\":11303:11336   */\n      mstore\n        /* \"#utility.yul\":11368:11371   */\n      0x80\n        /* \"#utility.yul\":11353:11372   */\n      add\n      swap1\n        /* \"#utility.yul\":10979:11378   */\n      jump\t// out\n        /* \"#utility.yul\":11383:11787   */\n    tag_155:\n        /* \"#utility.yul\":11585:11587   */\n      0x20\n        /* \"#utility.yul\":11567:11588   */\n      dup1\n      dup3\n      mstore\n        /* \"#utility.yul\":11624:11626   */\n      0x28\n        /* \"#utility.yul\":11604:11622   */\n      swap1\n      dup3\n      add\n        /* \"#utility.yul\":11597:11627   */\n      mstore\n        /* \"#utility.yul\":11663:11697   */\n      0x4b495033373a20696e73756666696369656e742062616c616e636520666f7220\n        /* \"#utility.yul\":11658:11660   */\n      0x40\n        /* \"#utility.yul\":11643:11661   */\n      dup3\n      add\n        /* \"#utility.yul\":11636:11698   */\n      mstore\n      shl(0xc1, 0x3a3930b739b332b9)\n        /* \"#utility.yul\":11729:11731   */\n      0x60\n        /* \"#utility.yul\":11714:11732   */\n      dup3\n      add\n        /* \"#utility.yul\":11707:11745   */\n      mstore\n        /* \"#utility.yul\":11777:11780   */\n      0x80\n        /* \"#utility.yul\":11762:11781   */\n      add\n      swap1\n        /* \"#utility.yul\":11383:11787   */\n      jump\t// out\n        /* \"#utility.yul\":11792:11917   */\n    tag_157:\n        /* \"#utility.yul\":11857:11866   */\n      dup1\n      dup3\n      add\n        /* \"#utility.yul\":11878:11888   */\n      dup1\n      dup3\n      gt\n        /* \"#utility.yul\":11875:11911   */\n      iszero\n      tag_69\n      jumpi\n        /* \"#utility.yul\":11891:11909   */\n      tag_69\n      tag_326\n      jump\t// in\n        /* \"#utility.yul\":11922:12387   */\n    tag_160:\n        /* \"#utility.yul\":12179:12181   */\n      0x40\n        /* \"#utility.yul\":12168:12177   */\n      dup2\n        /* \"#utility.yul\":12161:12182   */\n      mstore\n        /* \"#utility.yul\":12142:12146   */\n      0x00\n        /* \"#utility.yul\":12205:12261   */\n      tag_434\n        /* \"#utility.yul\":12257:12259   */\n      0x40\n        /* \"#utility.yul\":12246:12255   */\n      dup4\n        /* \"#utility.yul\":12242:12260   */\n      add\n        /* \"#utility.yul\":12234:12240   */\n      dup6\n        /* \"#utility.yul\":12205:12261   */\n      tag_325\n      jump\t// in\n    tag_434:\n        /* \"#utility.yul\":12309:12318   */\n      dup3\n        /* \"#utility.yul\":12301:12307   */\n      dup2\n        /* \"#utility.yul\":12297:12319   */\n      sub\n        /* \"#utility.yul\":12292:12294   */\n      0x20\n        /* \"#utility.yul\":12281:12290   */\n      dup5\n        /* \"#utility.yul\":12277:12295   */\n      add\n        /* \"#utility.yul\":12270:12320   */\n      mstore\n        /* \"#utility.yul\":12337:12381   */\n      tag_435\n        /* \"#utility.yul\":12374:12380   */\n      dup2\n        /* \"#utility.yul\":12366:12372   */\n      dup6\n        /* \"#utility.yul\":12337:12381   */\n      tag_325\n      jump\t// in\n    tag_435:\n        /* \"#utility.yul\":12329:12381   */\n      swap6\n        /* \"#utility.yul\":11922:12387   */\n      swap5\n      pop\n      pop\n      pop\n      pop\n      pop\n      jump\t// out\n        /* \"#utility.yul\":13053:13181   */\n    tag_195:\n        /* \"#utility.yul\":13120:13129   */\n      dup2\n      dup2\n      sub\n        /* \"#utility.yul\":13141:13152   */\n      dup2\n      dup2\n      gt\n        /* \"#utility.yul\":13138:13175   */\n      iszero\n      tag_69\n      jumpi\n        /* \"#utility.yul\":13155:13173   */\n      tag_69\n      tag_326\n      jump\t// in\n        /* \"#utility.yul\":14412:15239   */\n    tag_254:\n      sub(shl(0xa0, 0x01), 0x01)\n        /* \"#utility.yul\":14809:14824   */\n      dup7\n      dup2\n      and\n        /* \"#utility.yul\":14791:14825   */\n      dup3\n      mstore\n        /* \"#utility.yul\":14861:14876   */\n      dup6\n      and\n        /* \"#utility.yul\":14856:14858   */\n      0x20\n        /* \"#utility.yul\":14841:14859   */\n      dup3\n      add\n        /* \"#utility.yul\":14834:14877   */\n      mstore\n        /* \"#utility.yul\":14771:14774   */\n      0xa0\n        /* \"#utility.yul\":14908:14910   */\n      0x40\n        /* \"#utility.yul\":14893:14911   */\n      dup3\n      add\n        /* \"#utility.yul\":14886:14917   */\n      dup2\n      swap1\n      mstore\n        /* \"#utility.yul\":14734:14738   */\n      0x00\n      swap1\n        /* \"#utility.yul\":14940:14997   */\n      tag_445\n      swap1\n        /* \"#utility.yul\":14977:14996   */\n      dup4\n      add\n        /* \"#utility.yul\":14969:14975   */\n      dup7\n        /* \"#utility.yul\":14940:14997   */\n      tag_325\n      jump\t// in\n    tag_445:\n        /* \"#utility.yul\":15045:15054   */\n      dup3\n        /* \"#utility.yul\":15037:15043   */\n      dup2\n        /* \"#utility.yul\":15033:15055   */\n      sub\n        /* \"#utility.yul\":15028:15030   */\n      0x60\n        /* \"#utility.yul\":15017:15026   */\n      dup5\n        /* \"#utility.yul\":15013:15031   */\n      add\n        /* \"#utility.yul\":15006:15056   */\n      mstore\n        /* \"#utility.yul\":15079:15123   */\n      tag_446\n        /* \"#utility.yul\":15116:15122   */\n      dup2\n        /* \"#utility.yul\":15108:15114   */\n      dup7\n        /* \"#utility.yul\":15079:15123   */\n      tag_325\n      jump\t// in\n    tag_446:\n        /* \"#utility.yul\":15065:15123   */\n      swap1\n      pop\n        /* \"#utility.yul\":15172:15181   */\n      dup3\n        /* \"#utility.yul\":15164:15170   */\n      dup2\n        /* \"#utility.yul\":15160:15182   */\n      sub\n        /* \"#utility.yul\":15154:15157   */\n      0x80\n        /* \"#utility.yul\":15143:15152   */\n      dup5\n        /* \"#utility.yul\":15139:15158   */\n      add\n        /* \"#utility.yul\":15132:15183   */\n      mstore\n        /* \"#utility.yul\":15200:15233   */\n      tag_447\n        /* \"#utility.yul\":15226:15232   */\n      dup2\n        /* \"#utility.yul\":15218:15224   */\n      dup6\n        /* \"#utility.yul\":15200:15233   */\n      tag_320\n      jump\t// in\n    tag_447:\n        /* \"#utility.yul\":15192:15233   */\n      swap9\n        /* \"#utility.yul\":14412:15239   */\n      swap8\n      pop\n      pop\n      pop\n      pop\n      pop\n      pop\n      pop\n      pop\n      jump\t// out\n        /* \"#utility.yul\":15244:15493   */\n    tag_257:\n        /* \"#utility.yul\":15313:15319   */\n      0x00\n        /* \"#utility.yul\":15366:15368   */\n      0x20\n        /* \"#utility.yul\":15354:15363   */\n      dup3\n        /* \"#utility.yul\":15345:15352   */\n      dup5\n        /* \"#utility.yul\":15341:15364   */\n      sub\n        /* \"#utility.yul\":15337:15369   */\n      slt\n        /* \"#utility.yul\":15334:15386   */\n      iszero\n      tag_449\n      jumpi\n        /* \"#utility.yul\":15382:15383   */\n      0x00\n        /* \"#utility.yul\":15379:15380   */\n      dup1\n        /* \"#utility.yul\":15372:15384   */\n      revert\n        /* \"#utility.yul\":15334:15386   */\n    tag_449:\n        /* \"#utility.yul\":15414:15423   */\n      dup2\n        /* \"#utility.yul\":15408:15424   */\n      mload\n        /* \"#utility.yul\":15433:15463   */\n      tag_338\n        /* \"#utility.yul\":15457:15462   */\n      dup2\n        /* \"#utility.yul\":15433:15463   */\n      tag_319\n      jump\t// in\n        /* \"#utility.yul\":15498:16059   */\n    tag_288:\n      sub(shl(0xa0, 0x01), 0x01)\n        /* \"#utility.yul\":15795:15810   */\n      dup7\n      dup2\n      and\n        /* \"#utility.yul\":15777:15811   */\n      dup3\n      mstore\n        /* \"#utility.yul\":15847:15862   */\n      dup6\n      and\n        /* \"#utility.yul\":15842:15844   */\n      0x20\n        /* \"#utility.yul\":15827:15845   */\n      dup3\n      add\n        /* \"#utility.yul\":15820:15863   */\n      mstore\n        /* \"#utility.yul\":15894:15896   */\n      0x40\n        /* \"#utility.yul\":15879:15897   */\n      dup2\n      add\n        /* \"#utility.yul\":15872:15906   */\n      dup5\n      swap1\n      mstore\n        /* \"#utility.yul\":15937:15939   */\n      0x60\n        /* \"#utility.yul\":15922:15940   */\n      dup2\n      add\n        /* \"#utility.yul\":15915:15949   */\n      dup4\n      swap1\n      mstore\n        /* \"#utility.yul\":15757:15760   */\n      0xa0\n        /* \"#utility.yul\":15980:15983   */\n      0x80\n        /* \"#utility.yul\":15965:15984   */\n      dup3\n      add\n        /* \"#utility.yul\":15958:15990   */\n      dup2\n      swap1\n      mstore\n        /* \"#utility.yul\":15720:15724   */\n      0x00\n      swap1\n        /* \"#utility.yul\":16007:16053   */\n      tag_452\n      swap1\n        /* \"#utility.yul\":16033:16052   */\n      dup4\n      add\n        /* \"#utility.yul\":16025:16031   */\n      dup5\n        /* \"#utility.yul\":16007:16053   */\n      tag_320\n      jump\t// in\n    tag_452:\n        /* \"#utility.yul\":15999:16053   */\n      swap8\n        /* \"#utility.yul\":15498:16059   */\n      swap7\n      pop\n      pop\n      pop\n      pop\n      pop\n      pop\n      pop\n      jump\t// out\n\n    auxdata: 0xa264697066735822122083ec77c8a7d595fc2696915559e984a34d87057d48012b9e060294812f526d2a64736f6c63430008130033\n}\n",
				"bytecode": {
					"linkReferences": {},
					"object": "608060405234801561001057600080fd5b5061183e806100206000396000f3fe608060405234801561001057600080fd5b50600436106100a85760003560e01c806353719b6e1161007157806353719b6e1461014b578063a22cb46514610176578063b56cf84f14610189578063bd85b039146101bc578063e985e9c5146101dc578063f242432a1461021857600080fd5b8062fdd58e146100ad57806301ffc9a7146100d35780630e89341c146100f65780632eb2c2d6146101165780634e1273f41461012b575b600080fd5b6100c06100bb36600461111c565b61022b565b6040519081526020015b60405180910390f35b6100e66100e136600461115f565b6102c2565b60405190151581526020016100ca565b610109610104366004611183565b610312565b6040516100ca91906111e2565b61012961012436600461133b565b6103a6565b005b61013e6101393660046113e5565b61043b565b6040516100ca91906114e0565b6100c061015936600461111c565b600360209081526000928352604080842090915290825290205481565b6101296101843660046114f3565b610561565b6100c061019736600461152f565b6001600160a01b03166000908152600360209081526040808320938352929052205490565b6100c06101ca366004611183565b60009081526001602052604090205490565b6100e66101ea36600461155b565b6001600160a01b03918216600090815260026020908152604080832093909416825291909152205460ff1690565b610129610226366004611585565b610570565b60006001600160a01b0383166102995760405162461bcd60e51b815260206004820152602860248201527f4b495033373a2061646472657373207a65726f206973206e6f7420612076616c60448201526734b21037bbb732b960c11b60648201526084015b60405180910390fd5b506000818152602081815260408083206001600160a01b03861684529091529020545b92915050565b60006001600160e01b03198216636433ca1f60e01b14806102f357506001600160e01b031982166303a24d0760e21b145b806102bc57506301ffc9a760e01b6001600160e01b03198316146102bc565b606060048054610321906115ea565b80601f016020809104026020016040519081016040528092919081815260200182805461034d906115ea565b801561039a5780601f1061036f5761010080835404028352916020019161039a565b820191906000526020600020905b81548152906001019060200180831161037d57829003601f168201915b50505050509050919050565b6001600160a01b0385163314806103c257506103c285336101ea565b6104275760405162461bcd60e51b815260206004820152603060248201527f4b495033373a207472616e736665722063616c6c6572206973206e6f74206f7760448201526f1b995c881b9bdc88185c1c1c9bdd995960821b6064820152608401610290565b61043485858585856105f5565b5050505050565b6060815183511461049c5760405162461bcd60e51b815260206004820152602560248201527f4b495033373a206f776e65727320616e6420696473206c656e677468206d69736044820152640dac2e8c6d60db1b6064820152608401610290565b6000835167ffffffffffffffff8111156104b8576104b86111f5565b6040519080825280602002602001820160405280156104e1578160200160208202803683370190505b50905060005b84518110156105595761052c85828151811061050557610505611624565b602002602001015185838151811061051f5761051f611624565b602002602001015161022b565b82828151811061053e5761053e611624565b602090810291909101015261055281611650565b90506104e7565b509392505050565b61056c3383836107de565b5050565b6001600160a01b03851633148061058c575061058c85336101ea565b6105e85760405162461bcd60e51b815260206004820152602760248201527f4b495033373a2063616c6c6572206973206e6f74206f776e6572206e6f7220616044820152661c1c1c9bdd995960ca1b6064820152608401610290565b61043485858585856108bc565b81518351146106555760405162461bcd60e51b815260206004820152602660248201527f4b495033373a2069647320616e6420616d6f756e7473206c656e677468206d696044820152650e6dac2e8c6d60d31b6064820152608401610290565b6001600160a01b03841661067b5760405162461bcd60e51b815260040161029090611669565b3361068a8187878787876109f4565b60005b84518110156107705760008582815181106106aa576106aa611624565b6020026020010151905060008583815181106106c8576106c8611624565b602090810291909101810151600084815280835260408082206001600160a01b038e1683529093529190912054909150818110156107185760405162461bcd60e51b8152600401610290906116ac565b6000838152602081815260408083206001600160a01b038e8116855292528083208585039055908b168252812080548492906107559084906116f4565b925050819055505050508061076990611650565b905061068d565b50846001600160a01b0316866001600160a01b0316826001600160a01b03167f4a39dc06d4c0dbc64b70af90fd698a233a518aa5d07e595d983b8c0526c8f7fb87876040516107c0929190611707565b60405180910390a46107d6818787878787610ca1565b505050505050565b816001600160a01b0316836001600160a01b03160361084f5760405162461bcd60e51b815260206004820152602760248201527f4b495033373a2073657474696e6720617070726f76616c20737461747573206660448201526637b91039b2b63360c91b6064820152608401610290565b6001600160a01b03838116600081815260026020908152604080832094871680845294825291829020805460ff191686151590811790915591519182527f17307eab39ab6107e8899845ad3d59bd9653f200f220920489ca2b5937696c31910160405180910390a3505050565b6001600160a01b0384166108e25760405162461bcd60e51b815260040161029090611669565b3360006108ee85610d40565b905060006108fb85610d40565b905061090b8389898585896109f4565b6000868152602081815260408083206001600160a01b038c1684529091529020548581101561094c5760405162461bcd60e51b8152600401610290906116ac565b6000878152602081815260408083206001600160a01b038d8116855292528083208985039055908a168252812080548892906109899084906116f4565b909155505060408051888152602081018890526001600160a01b03808b16928c821692918816917fc3d58168c5ae7397731d063d5bbf3d657854427343f4c083240f7aacaa2d0f62910160405180910390a46109e9848a8a8a8a8a610d8b565b505050505050505050565b60005b8351811015610b20576001600160a01b038616600090815260036020526040812085518290879085908110610a2e57610a2e611624565b6020026020010151815260200190815260200160002054600080878581518110610a5a57610a5a611624565b602002602001015181526020019081526020016000206000896001600160a01b03166001600160a01b0316815260200190815260200160002054610a9e9190611735565b90506001600160a01b03871615801590610ad05750838281518110610ac557610ac5611624565b602002602001015181105b15610b0f5760405162461bcd60e51b815260206004820152600f60248201526e151bdad95b881a5cc81b1bd8dad959608a1b6044820152606401610290565b50610b1981611650565b90506109f7565b506001600160a01b038516610ba85760005b8351811015610ba657828181518110610b4d57610b4d611624565b602002602001015160016000868481518110610b6b57610b6b611624565b602002602001015181526020019081526020016000206000828254610b9091906116f4565b90915550610b9f905081611650565b9050610b32565b505b6001600160a01b0384166107d65760005b8351811015610c98576000848281518110610bd657610bd6611624565b602002602001015190506000848381518110610bf457610bf4611624565b6020026020010151905060006001600084815260200190815260200160002054905081811015610c755760405162461bcd60e51b815260206004820152602660248201527f4b495033373a206275726e20616d6f756e74206578636565647320746f74616c604482015265537570706c7960d01b6064820152608401610290565b60009283526001602052604090922091039055610c9181611650565b9050610bb9565b50505050505050565b610caf868686868686610dad565b80610cc35750610cc3868686868686610ea5565b6107d65760405162461bcd60e51b815260206004820152604260248201527f4b495033373a207472616e7366657220746f206e6f6e20494b4950333752656360448201527f65697665722f4945524331313535526563656976657220696d706c656d656e7460648201526132b960f11b608482015260a401610290565b60408051600180825281830190925260609160009190602080830190803683370190505090508281600081518110610d7a57610d7a611624565b602090810291909101015292915050565b610d99868686868686610f6e565b80610cc35750610cc3868686868686611037565b60006001600160a01b0385163b15610e9757604051634da4f19960e11b81526001600160a01b03861690639b49e33290610df3908a908a90899089908990600401611748565b6020604051808303816000875af1925050508015610e2e575060408051601f3d908101601f19168201909252610e2b918101906117a6565b60015b610e7d573d808015610e5c576040519150601f19603f3d011682016040523d82523d6000602084013e610e61565b606091505b508051600003610e75576000915050610e9b565b805181602001fd5b6001600160e01b031916634da4f19960e11b149050610e9b565b5060015b9695505050505050565b60006001600160a01b0385163b15610e975760405163bc197c8160e01b81526001600160a01b0386169063bc197c8190610eeb908a908a90899089908990600401611748565b6020604051808303816000875af1925050508015610f26575060408051601f3d908101601f19168201909252610f23918101906117a6565b60015b610f54573d808015610e5c576040519150601f19603f3d011682016040523d82523d6000602084013e610e61565b6001600160e01b03191663bc197c8160e01b149050610e9b565b60006001600160a01b0385163b15610e975760405163e78b332560e01b81526001600160a01b0386169063e78b332590610fb4908a908a908990899089906004016117c3565b6020604051808303816000875af1925050508015610fef575060408051601f3d908101601f19168201909252610fec918101906117a6565b60015b61101d573d808015610e5c576040519150601f19603f3d011682016040523d82523d6000602084013e610e61565b6001600160e01b03191663e78b332560e01b149050610e9b565b60006001600160a01b0385163b15610e975760405163f23a6e6160e01b81526001600160a01b0386169063f23a6e619061107d908a908a908990899089906004016117c3565b6020604051808303816000875af19250505080156110b8575060408051601f3d908101601f191682019092526110b5918101906117a6565b60015b6110e6573d808015610e5c576040519150601f19603f3d011682016040523d82523d6000602084013e610e61565b6001600160e01b03191663f23a6e6160e01b149050610e9b565b80356001600160a01b038116811461111757600080fd5b919050565b6000806040838503121561112f57600080fd5b61113883611100565b946020939093013593505050565b6001600160e01b03198116811461115c57600080fd5b50565b60006020828403121561117157600080fd5b813561117c81611146565b9392505050565b60006020828403121561119557600080fd5b5035919050565b6000815180845260005b818110156111c2576020818501810151868301820152016111a6565b506000602082860101526020601f19601f83011685010191505092915050565b60208152600061117c602083018461119c565b634e487b7160e01b600052604160045260246000fd5b604051601f8201601f1916810167ffffffffffffffff81118282101715611234576112346111f5565b604052919050565b600067ffffffffffffffff821115611256576112566111f5565b5060051b60200190565b600082601f83011261127157600080fd5b813560206112866112818361123c565b61120b565b82815260059290921b840181019181810190868411156112a557600080fd5b8286015b848110156112c057803583529183019183016112a9565b509695505050505050565b600082601f8301126112dc57600080fd5b813567ffffffffffffffff8111156112f6576112f66111f5565b611309601f8201601f191660200161120b565b81815284602083860101111561131e57600080fd5b816020850160208301376000918101602001919091529392505050565b600080600080600060a0868803121561135357600080fd5b61135c86611100565b945061136a60208701611100565b9350604086013567ffffffffffffffff8082111561138757600080fd5b61139389838a01611260565b945060608801359150808211156113a957600080fd5b6113b589838a01611260565b935060808801359150808211156113cb57600080fd5b506113d8888289016112cb565b9150509295509295909350565b600080604083850312156113f857600080fd5b823567ffffffffffffffff8082111561141057600080fd5b818501915085601f83011261142457600080fd5b813560206114346112818361123c565b82815260059290921b8401810191818101908984111561145357600080fd5b948201945b838610156114785761146986611100565b82529482019490820190611458565b9650508601359250508082111561148e57600080fd5b5061149b85828601611260565b9150509250929050565b600081518084526020808501945080840160005b838110156114d5578151875295820195908201906001016114b9565b509495945050505050565b60208152600061117c60208301846114a5565b6000806040838503121561150657600080fd5b61150f83611100565b91506020830135801515811461152457600080fd5b809150509250929050565b6000806040838503121561154257600080fd5b8235915061155260208401611100565b90509250929050565b6000806040838503121561156e57600080fd5b61157783611100565b915061155260208401611100565b600080600080600060a0868803121561159d57600080fd5b6115a686611100565b94506115b460208701611100565b93506040860135925060608601359150608086013567ffffffffffffffff8111156115de57600080fd5b6113d8888289016112cb565b600181811c908216806115fe57607f821691505b60208210810361161e57634e487b7160e01b600052602260045260246000fd5b50919050565b634e487b7160e01b600052603260045260246000fd5b634e487b7160e01b600052601160045260246000fd5b6000600182016116625761166261163a565b5060010190565b60208082526023908201527f4b495033373a207472616e7366657220746f20746865207a65726f206164647260408201526265737360e81b606082015260800190565b60208082526028908201527f4b495033373a20696e73756666696369656e742062616c616e636520666f72206040820152673a3930b739b332b960c11b606082015260800190565b808201808211156102bc576102bc61163a565b60408152600061171a60408301856114a5565b828103602084015261172c81856114a5565b95945050505050565b818103818111156102bc576102bc61163a565b6001600160a01b0386811682528516602082015260a060408201819052600090611774908301866114a5565b828103606084015261178681866114a5565b9050828103608084015261179a818561119c565b98975050505050505050565b6000602082840312156117b857600080fd5b815161117c81611146565b6001600160a01b03868116825285166020820152604081018490526060810183905260a0608082018190526000906117fd9083018461119c565b97965050505050505056fea264697066735822122083ec77c8a7d595fc2696915559e984a34d87057d48012b9e060294812f526d2a64736f6c63430008130033",
					"opcodes": "PUSH1 0x80 PUSH1 0x40 MSTORE CALLVALUE DUP1 ISZERO PUSH2 0x10 JUMPI PUSH1 0x0 DUP1 REVERT JUMPDEST POP PUSH2 0x183E DUP1 PUSH2 0x20 PUSH1 0x0 CODECOPY PUSH1 0x0 RETURN INVALID PUSH1 0x80 PUSH1 0x40 MSTORE CALLVALUE DUP1 ISZERO PUSH2 0x10 JUMPI PUSH1 0x0 DUP1 REVERT JUMPDEST POP PUSH1 0x4 CALLDATASIZE LT PUSH2 0xA8 JUMPI PUSH1 0x0 CALLDATALOAD PUSH1 0xE0 SHR DUP1 PUSH4 0x53719B6E GT PUSH2 0x71 JUMPI DUP1 PUSH4 0x53719B6E EQ PUSH2 0x14B JUMPI DUP1 PUSH4 0xA22CB465 EQ PUSH2 0x176 JUMPI DUP1 PUSH4 0xB56CF84F EQ PUSH2 0x189 JUMPI DUP1 PUSH4 0xBD85B039 EQ PUSH2 0x1BC JUMPI DUP1 PUSH4 0xE985E9C5 EQ PUSH2 0x1DC JUMPI DUP1 PUSH4 0xF242432A EQ PUSH2 0x218 JUMPI PUSH1 0x0 DUP1 REVERT JUMPDEST DUP1 PUSH3 0xFDD58E EQ PUSH2 0xAD JUMPI DUP1 PUSH4 0x1FFC9A7 EQ PUSH2 0xD3 JUMPI DUP1 PUSH4 0xE89341C EQ PUSH2 0xF6 JUMPI DUP1 PUSH4 0x2EB2C2D6 EQ PUSH2 0x116 JUMPI DUP1 PUSH4 0x4E1273F4 EQ PUSH2 0x12B JUMPI JUMPDEST PUSH1 0x0 DUP1 REVERT JUMPDEST PUSH2 0xC0 PUSH2 0xBB CALLDATASIZE PUSH1 0x4 PUSH2 0x111C JUMP JUMPDEST PUSH2 0x22B JUMP JUMPDEST PUSH1 0x40 MLOAD SWAP1 DUP2 MSTORE PUSH1 0x20 ADD JUMPDEST PUSH1 0x40 MLOAD DUP1 SWAP2 SUB SWAP1 RETURN JUMPDEST PUSH2 0xE6 PUSH2 0xE1 CALLDATASIZE PUSH1 0x4 PUSH2 0x115F JUMP JUMPDEST PUSH2 0x2C2 JUMP JUMPDEST PUSH1 0x40 MLOAD SWAP1 ISZERO ISZERO DUP2 MSTORE PUSH1 0x20 ADD PUSH2 0xCA JUMP JUMPDEST PUSH2 0x109 PUSH2 0x104 CALLDATASIZE PUSH1 0x4 PUSH2 0x1183 JUMP JUMPDEST PUSH2 0x312 JUMP JUMPDEST PUSH1 0x40 MLOAD PUSH2 0xCA SWAP2 SWAP1 PUSH2 0x11E2 JUMP JUMPDEST PUSH2 0x129 PUSH2 0x124 CALLDATASIZE PUSH1 0x4 PUSH2 0x133B JUMP JUMPDEST PUSH2 0x3A6 JUMP JUMPDEST STOP JUMPDEST PUSH2 0x13E PUSH2 0x139 CALLDATASIZE PUSH1 0x4 PUSH2 0x13E5 JUMP JUMPDEST PUSH2 0x43B JUMP JUMPDEST PUSH1 0x40 MLOAD PUSH2 0xCA SWAP2 SWAP1 PUSH2 0x14E0 JUMP JUMPDEST PUSH2 0xC0 PUSH2 0x159 CALLDATASIZE PUSH1 0x4 PUSH2 0x111C JUMP JUMPDEST PUSH1 0x3 PUSH1 0x20 SWAP1 DUP2 MSTORE PUSH1 0x0 SWAP3 DUP4 MSTORE PUSH1 0x40 DUP1 DUP5 KECCAK256 SWAP1 SWAP2 MSTORE SWAP1 DUP3 MSTORE SWAP1 KECCAK256 SLOAD DUP2 JUMP JUMPDEST PUSH2 0x129 PUSH2 0x184 CALLDATASIZE PUSH1 0x4 PUSH2 0x14F3 JUMP JUMPDEST PUSH2 0x561 JUMP JUMPDEST PUSH2 0xC0 PUSH2 0x197 CALLDATASIZE PUSH1 0x4 PUSH2 0x152F JUMP JUMPDEST PUSH1 0x1 PUSH1 0x1 PUSH1 0xA0 SHL SUB AND PUSH1 0x0 SWAP1 DUP2 MSTORE PUSH1 0x3 PUSH1 0x20 SWAP1 DUP2 MSTORE PUSH1 0x40 DUP1 DUP4 KECCAK256 SWAP4 DUP4 MSTORE SWAP3 SWAP1 MSTORE KECCAK256 SLOAD SWAP1 JUMP JUMPDEST PUSH2 0xC0 PUSH2 0x1CA CALLDATASIZE PUSH1 0x4 PUSH2 0x1183 JUMP JUMPDEST PUSH1 0x0 SWAP1 DUP2 MSTORE PUSH1 0x1 PUSH1 0x20 MSTORE PUSH1 0x40 SWAP1 KECCAK256 SLOAD SWAP1 JUMP JUMPDEST PUSH2 0xE6 PUSH2 0x1EA CALLDATASIZE PUSH1 0x4 PUSH2 0x155B JUMP JUMPDEST PUSH1 0x1 PUSH1 0x1 PUSH1 0xA0 SHL SUB SWAP2 DUP3 AND PUSH1 0x0 SWAP1 DUP2 MSTORE PUSH1 0x2 PUSH1 0x20 SWAP1 DUP2 MSTORE PUSH1 0x40 DUP1 DUP4 KECCAK256 SWAP4 SWAP1 SWAP5 AND DUP3 MSTORE SWAP2 SWAP1 SWAP2 MSTORE KECCAK256 SLOAD PUSH1 0xFF AND SWAP1 JUMP JUMPDEST PUSH2 0x129 PUSH2 0x226 CALLDATASIZE PUSH1 0x4 PUSH2 0x1585 JUMP JUMPDEST PUSH2 0x570 JUMP JUMPDEST PUSH1 0x0 PUSH1 0x1 PUSH1 0x1 PUSH1 0xA0 SHL SUB DUP4 AND PUSH2 0x299 JUMPI PUSH1 0x40 MLOAD PUSH3 0x461BCD PUSH1 0xE5 SHL DUP2 MSTORE PUSH1 0x20 PUSH1 0x4 DUP3 ADD MSTORE PUSH1 0x28 PUSH1 0x24 DUP3 ADD MSTORE PUSH32 0x4B495033373A2061646472657373207A65726F206973206E6F7420612076616C PUSH1 0x44 DUP3 ADD MSTORE PUSH8 0x34B21037BBB732B9 PUSH1 0xC1 SHL PUSH1 0x64 DUP3 ADD MSTORE PUSH1 0x84 ADD JUMPDEST PUSH1 0x40 MLOAD DUP1 SWAP2 SUB SWAP1 REVERT JUMPDEST POP PUSH1 0x0 DUP2 DUP2 MSTORE PUSH1 0x20 DUP2 DUP2 MSTORE PUSH1 0x40 DUP1 DUP4 KECCAK256 PUSH1 0x1 PUSH1 0x1 PUSH1 0xA0 SHL SUB DUP7 AND DUP5 MSTORE SWAP1 SWAP2 MSTORE SWAP1 KECCAK256 SLOAD JUMPDEST SWAP3 SWAP2 POP POP JUMP JUMPDEST PUSH1 0x0 PUSH1 0x1 PUSH1 0x1 PUSH1 0xE0 SHL SUB NOT DUP3 AND PUSH4 0x6433CA1F PUSH1 0xE0 SHL EQ DUP1 PUSH2 0x2F3 JUMPI POP PUSH1 0x1 PUSH1 0x1 PUSH1 0xE0 SHL SUB NOT DUP3 AND PUSH4 0x3A24D07 PUSH1 0xE2 SHL EQ JUMPDEST DUP1 PUSH2 0x2BC JUMPI POP PUSH4 0x1FFC9A7 PUSH1 0xE0 SHL PUSH1 0x1 PUSH1 0x1 PUSH1 0xE0 SHL SUB NOT DUP4 AND EQ PUSH2 0x2BC JUMP JUMPDEST PUSH1 0x60 PUSH1 0x4 DUP1 SLOAD PUSH2 0x321 SWAP1 PUSH2 0x15EA JUMP JUMPDEST DUP1 PUSH1 0x1F ADD PUSH1 0x20 DUP1 SWAP2 DIV MUL PUSH1 0x20 ADD PUSH1 0x40 MLOAD SWAP1 DUP2 ADD PUSH1 0x40 MSTORE DUP1 SWAP3 SWAP2 SWAP1 DUP2 DUP2 MSTORE PUSH1 0x20 ADD DUP3 DUP1 SLOAD PUSH2 0x34D SWAP1 PUSH2 0x15EA JUMP JUMPDEST DUP1 ISZERO PUSH2 0x39A JUMPI DUP1 PUSH1 0x1F LT PUSH2 0x36F JUMPI PUSH2 0x100 DUP1 DUP4 SLOAD DIV MUL DUP4 MSTORE SWAP2 PUSH1 0x20 ADD SWAP2 PUSH2 0x39A JUMP JUMPDEST DUP3 ADD SWAP2 SWAP1 PUSH1 0x0 MSTORE PUSH1 0x20 PUSH1 0x0 KECCAK256 SWAP1 JUMPDEST DUP2 SLOAD DUP2 MSTORE SWAP1 PUSH1 0x1 ADD SWAP1 PUSH1 0x20 ADD DUP1 DUP4 GT PUSH2 0x37D JUMPI DUP3 SWAP1 SUB PUSH1 0x1F AND DUP3 ADD SWAP2 JUMPDEST POP POP POP POP POP SWAP1 POP SWAP2 SWAP1 POP JUMP JUMPDEST PUSH1 0x1 PUSH1 0x1 PUSH1 0xA0 SHL SUB DUP6 AND CALLER EQ DUP1 PUSH2 0x3C2 JUMPI POP PUSH2 0x3C2 DUP6 CALLER PUSH2 0x1EA JUMP JUMPDEST PUSH2 0x427 JUMPI PUSH1 0x40 MLOAD PUSH3 0x461BCD PUSH1 0xE5 SHL DUP2 MSTORE PUSH1 0x20 PUSH1 0x4 DUP3 ADD MSTORE PUSH1 0x30 PUSH1 0x24 DUP3 ADD MSTORE PUSH32 0x4B495033373A207472616E736665722063616C6C6572206973206E6F74206F77 PUSH1 0x44 DUP3 ADD MSTORE PUSH16 0x1B995C881B9BDC88185C1C1C9BDD9959 PUSH1 0x82 SHL PUSH1 0x64 DUP3 ADD MSTORE PUSH1 0x84 ADD PUSH2 0x290 JUMP JUMPDEST PUSH2 0x434 DUP6 DUP6 DUP6 DUP6 DUP6 PUSH2 0x5F5 JUMP JUMPDEST POP POP POP POP POP JUMP JUMPDEST PUSH1 0x60 DUP2 MLOAD DUP4 MLOAD EQ PUSH2 0x49C JUMPI PUSH1 0x40 MLOAD PUSH3 0x461BCD PUSH1 0xE5 SHL DUP2 MSTORE PUSH1 0x20 PUSH1 0x4 DUP3 ADD MSTORE PUSH1 0x25 PUSH1 0x24 DUP3 ADD MSTORE PUSH32 0x4B495033373A206F776E65727320616E6420696473206C656E677468206D6973 PUSH1 0x44 DUP3 ADD MSTORE PUSH5 0xDAC2E8C6D PUSH1 0xDB SHL PUSH1 0x64 DUP3 ADD MSTORE PUSH1 0x84 ADD PUSH2 0x290 JUMP JUMPDEST PUSH1 0x0 DUP4 MLOAD PUSH8 0xFFFFFFFFFFFFFFFF DUP2 GT ISZERO PUSH2 0x4B8 JUMPI PUSH2 0x4B8 PUSH2 0x11F5 JUMP JUMPDEST PUSH1 0x40 MLOAD SWAP1 DUP1 DUP3 MSTORE DUP1 PUSH1 0x20 MUL PUSH1 0x20 ADD DUP3 ADD PUSH1 0x40 MSTORE DUP1 ISZERO PUSH2 0x4E1 JUMPI DUP2 PUSH1 0x20 ADD PUSH1 0x20 DUP3 MUL DUP1 CALLDATASIZE DUP4 CALLDATACOPY ADD SWAP1 POP JUMPDEST POP SWAP1 POP PUSH1 0x0 JUMPDEST DUP5 MLOAD DUP2 LT ISZERO PUSH2 0x559 JUMPI PUSH2 0x52C DUP6 DUP3 DUP2 MLOAD DUP2 LT PUSH2 0x505 JUMPI PUSH2 0x505 PUSH2 0x1624 JUMP JUMPDEST PUSH1 0x20 MUL PUSH1 0x20 ADD ADD MLOAD DUP6 DUP4 DUP2 MLOAD DUP2 LT PUSH2 0x51F JUMPI PUSH2 0x51F PUSH2 0x1624 JUMP JUMPDEST PUSH1 0x20 MUL PUSH1 0x20 ADD ADD MLOAD PUSH2 0x22B JUMP JUMPDEST DUP3 DUP3 DUP2 MLOAD DUP2 LT PUSH2 0x53E JUMPI PUSH2 0x53E PUSH2 0x1624 JUMP JUMPDEST PUSH1 0x20 SWAP1 DUP2 MUL SWAP2 SWAP1 SWAP2 ADD ADD MSTORE PUSH2 0x552 DUP2 PUSH2 0x1650 JUMP JUMPDEST SWAP1 POP PUSH2 0x4E7 JUMP JUMPDEST POP SWAP4 SWAP3 POP POP POP JUMP JUMPDEST PUSH2 0x56C CALLER DUP4 DUP4 PUSH2 0x7DE JUMP JUMPDEST POP POP JUMP JUMPDEST PUSH1 0x1 PUSH1 0x1 PUSH1 0xA0 SHL SUB DUP6 AND CALLER EQ DUP1 PUSH2 0x58C JUMPI POP PUSH2 0x58C DUP6 CALLER PUSH2 0x1EA JUMP JUMPDEST PUSH2 0x5E8 JUMPI PUSH1 0x40 MLOAD PUSH3 0x461BCD PUSH1 0xE5 SHL DUP2 MSTORE PUSH1 0x20 PUSH1 0x4 DUP3 ADD MSTORE PUSH1 0x27 PUSH1 0x24 DUP3 ADD MSTORE PUSH32 0x4B495033373A2063616C6C6572206973206E6F74206F776E6572206E6F722061 PUSH1 0x44 DUP3 ADD MSTORE PUSH7 0x1C1C1C9BDD9959 PUSH1 0xCA SHL PUSH1 0x64 DUP3 ADD MSTORE PUSH1 0x84 ADD PUSH2 0x290 JUMP JUMPDEST PUSH2 0x434 DUP6 DUP6 DUP6 DUP6 DUP6 PUSH2 0x8BC JUMP JUMPDEST DUP2 MLOAD DUP4 MLOAD EQ PUSH2 0x655 JUMPI PUSH1 0x40 MLOAD PUSH3 0x461BCD PUSH1 0xE5 SHL DUP2 MSTORE PUSH1 0x20 PUSH1 0x4 DUP3 ADD MSTORE PUSH1 0x26 PUSH1 0x24 DUP3 ADD MSTORE PUSH32 0x4B495033373A2069647320616E6420616D6F756E7473206C656E677468206D69 PUSH1 0x44 DUP3 ADD MSTORE PUSH6 0xE6DAC2E8C6D PUSH1 0xD3 SHL PUSH1 0x64 DUP3 ADD MSTORE PUSH1 0x84 ADD PUSH2 0x290 JUMP JUMPDEST PUSH1 0x1 PUSH1 0x1 PUSH1 0xA0 SHL SUB DUP5 AND PUSH2 0x67B JUMPI PUSH1 0x40 MLOAD PUSH3 0x461BCD PUSH1 0xE5 SHL DUP2 MSTORE PUSH1 0x4 ADD PUSH2 0x290 SWAP1 PUSH2 0x1669 JUMP JUMPDEST CALLER PUSH2 0x68A DUP2 DUP8 DUP8 DUP8 DUP8 DUP8 PUSH2 0x9F4 JUMP JUMPDEST PUSH1 0x0 JUMPDEST DUP5 MLOAD DUP2 LT ISZERO PUSH2 0x770 JUMPI PUSH1 0x0 DUP6 DUP3 DUP2 MLOAD DUP2 LT PUSH2 0x6AA JUMPI PUSH2 0x6AA PUSH2 0x1624 JUMP JUMPDEST PUSH1 0x20 MUL PUSH1 0x20 ADD ADD MLOAD SWAP1 POP PUSH1 0x0 DUP6 DUP4 DUP2 MLOAD DUP2 LT PUSH2 0x6C8 JUMPI PUSH2 0x6C8 PUSH2 0x1624 JUMP JUMPDEST PUSH1 0x20 SWAP1 DUP2 MUL SWAP2 SWAP1 SWAP2 ADD DUP2 ADD MLOAD PUSH1 0x0 DUP5 DUP2 MSTORE DUP1 DUP4 MSTORE PUSH1 0x40 DUP1 DUP3 KECCAK256 PUSH1 0x1 PUSH1 0x1 PUSH1 0xA0 SHL SUB DUP15 AND DUP4 MSTORE SWAP1 SWAP4 MSTORE SWAP2 SWAP1 SWAP2 KECCAK256 SLOAD SWAP1 SWAP2 POP DUP2 DUP2 LT ISZERO PUSH2 0x718 JUMPI PUSH1 0x40 MLOAD PUSH3 0x461BCD PUSH1 0xE5 SHL DUP2 MSTORE PUSH1 0x4 ADD PUSH2 0x290 SWAP1 PUSH2 0x16AC JUMP JUMPDEST PUSH1 0x0 DUP4 DUP2 MSTORE PUSH1 0x20 DUP2 DUP2 MSTORE PUSH1 0x40 DUP1 DUP4 KECCAK256 PUSH1 0x1 PUSH1 0x1 PUSH1 0xA0 SHL SUB DUP15 DUP2 AND DUP6 MSTORE SWAP3 MSTORE DUP1 DUP4 KECCAK256 DUP6 DUP6 SUB SWAP1 SSTORE SWAP1 DUP12 AND DUP3 MSTORE DUP2 KECCAK256 DUP1 SLOAD DUP5 SWAP3 SWAP1 PUSH2 0x755 SWAP1 DUP5 SWAP1 PUSH2 0x16F4 JUMP JUMPDEST SWAP3 POP POP DUP2 SWAP1 SSTORE POP POP POP POP DUP1 PUSH2 0x769 SWAP1 PUSH2 0x1650 JUMP JUMPDEST SWAP1 POP PUSH2 0x68D JUMP JUMPDEST POP DUP5 PUSH1 0x1 PUSH1 0x1 PUSH1 0xA0 SHL SUB AND DUP7 PUSH1 0x1 PUSH1 0x1 PUSH1 0xA0 SHL SUB AND DUP3 PUSH1 0x1 PUSH1 0x1 PUSH1 0xA0 SHL SUB AND PUSH32 0x4A39DC06D4C0DBC64B70AF90FD698A233A518AA5D07E595D983B8C0526C8F7FB DUP8 DUP8 PUSH1 0x40 MLOAD PUSH2 0x7C0 SWAP3 SWAP2 SWAP1 PUSH2 0x1707 JUMP JUMPDEST PUSH1 0x40 MLOAD DUP1 SWAP2 SUB SWAP1 LOG4 PUSH2 0x7D6 DUP2 DUP8 DUP8 DUP8 DUP8 DUP8 PUSH2 0xCA1 JUMP JUMPDEST POP POP POP POP POP POP JUMP JUMPDEST DUP2 PUSH1 0x1 PUSH1 0x1 PUSH1 0xA0 SHL SUB AND DUP4 PUSH1 0x1 PUSH1 0x1 PUSH1 0xA0 SHL SUB AND SUB PUSH2 0x84F JUMPI PUSH1 0x40 MLOAD PUSH3 0x461BCD PUSH1 0xE5 SHL DUP2 MSTORE PUSH1 0x20 PUSH1 0x4 DUP3 ADD MSTORE PUSH1 0x27 PUSH1 0x24 DUP3 ADD MSTORE PUSH32 0x4B495033373A2073657474696E6720617070726F76616C207374617475732066 PUSH1 0x44 DUP3 ADD MSTORE PUSH7 0x37B91039B2B633 PUSH1 0xC9 SHL PUSH1 0x64 DUP3 ADD MSTORE PUSH1 0x84 ADD PUSH2 0x290 JUMP JUMPDEST PUSH1 0x1 PUSH1 0x1 PUSH1 0xA0 SHL SUB DUP4 DUP2 AND PUSH1 0x0 DUP2 DUP2 MSTORE PUSH1 0x2 PUSH1 0x20 SWAP1 DUP2 MSTORE PUSH1 0x40 DUP1 DUP4 KECCAK256 SWAP5 DUP8 AND DUP1 DUP5 MSTORE SWAP5 DUP3 MSTORE SWAP2 DUP3 SWAP1 KECCAK256 DUP1 SLOAD PUSH1 0xFF NOT AND DUP7 ISZERO ISZERO SWAP1 DUP2 OR SWAP1 SWAP2 SSTORE SWAP2 MLOAD SWAP2 DUP3 MSTORE PUSH32 0x17307EAB39AB6107E8899845AD3D59BD9653F200F220920489CA2B5937696C31 SWAP2 ADD PUSH1 0x40 MLOAD DUP1 SWAP2 SUB SWAP1 LOG3 POP POP POP JUMP JUMPDEST PUSH1 0x1 PUSH1 0x1 PUSH1 0xA0 SHL SUB DUP5 AND PUSH2 0x8E2 JUMPI PUSH1 0x40 MLOAD PUSH3 0x461BCD PUSH1 0xE5 SHL DUP2 MSTORE PUSH1 0x4 ADD PUSH2 0x290 SWAP1 PUSH2 0x1669 JUMP JUMPDEST CALLER PUSH1 0x0 PUSH2 0x8EE DUP6 PUSH2 0xD40 JUMP JUMPDEST SWAP1 POP PUSH1 0x0 PUSH2 0x8FB DUP6 PUSH2 0xD40 JUMP JUMPDEST SWAP1 POP PUSH2 0x90B DUP4 DUP10 DUP10 DUP6 DUP6 DUP10 PUSH2 0x9F4 JUMP JUMPDEST PUSH1 0x0 DUP7 DUP2 MSTORE PUSH1 0x20 DUP2 DUP2 MSTORE PUSH1 0x40 DUP1 DUP4 KECCAK256 PUSH1 0x1 PUSH1 0x1 PUSH1 0xA0 SHL SUB DUP13 AND DUP5 MSTORE SWAP1 SWAP2 MSTORE SWAP1 KECCAK256 SLOAD DUP6 DUP2 LT ISZERO PUSH2 0x94C JUMPI PUSH1 0x40 MLOAD PUSH3 0x461BCD PUSH1 0xE5 SHL DUP2 MSTORE PUSH1 0x4 ADD PUSH2 0x290 SWAP1 PUSH2 0x16AC JUMP JUMPDEST PUSH1 0x0 DUP8 DUP2 MSTORE PUSH1 0x20 DUP2 DUP2 MSTORE PUSH1 0x40 DUP1 DUP4 KECCAK256 PUSH1 0x1 PUSH1 0x1 PUSH1 0xA0 SHL SUB DUP14 DUP2 AND DUP6 MSTORE SWAP3 MSTORE DUP1 DUP4 KECCAK256 DUP10 DUP6 SUB SWAP1 SSTORE SWAP1 DUP11 AND DUP3 MSTORE DUP2 KECCAK256 DUP1 SLOAD DUP9 SWAP3 SWAP1 PUSH2 0x989 SWAP1 DUP5 SWAP1 PUSH2 0x16F4 JUMP JUMPDEST SWAP1 SWAP2 SSTORE POP POP PUSH1 0x40 DUP1 MLOAD DUP9 DUP2 MSTORE PUSH1 0x20 DUP2 ADD DUP9 SWAP1 MSTORE PUSH1 0x1 PUSH1 0x1 PUSH1 0xA0 SHL SUB DUP1 DUP12 AND SWAP3 DUP13 DUP3 AND SWAP3 SWAP2 DUP9 AND SWAP2 PUSH32 0xC3D58168C5AE7397731D063D5BBF3D657854427343F4C083240F7AACAA2D0F62 SWAP2 ADD PUSH1 0x40 MLOAD DUP1 SWAP2 SUB SWAP1 LOG4 PUSH2 0x9E9 DUP5 DUP11 DUP11 DUP11 DUP11 DUP11 PUSH2 0xD8B JUMP JUMPDEST POP POP POP POP POP POP POP POP POP JUMP JUMPDEST PUSH1 0x0 JUMPDEST DUP4 MLOAD DUP2 LT ISZERO PUSH2 0xB20 JUMPI PUSH1 0x1 PUSH1 0x1 PUSH1 0xA0 SHL SUB DUP7 AND PUSH1 0x0 SWAP1 DUP2 MSTORE PUSH1 0x3 PUSH1 0x20 MSTORE PUSH1 0x40 DUP2 KECCAK256 DUP6 MLOAD DUP3 SWAP1 DUP8 SWAP1 DUP6 SWAP1 DUP2 LT PUSH2 0xA2E JUMPI PUSH2 0xA2E PUSH2 0x1624 JUMP JUMPDEST PUSH1 0x20 MUL PUSH1 0x20 ADD ADD MLOAD DUP2 MSTORE PUSH1 0x20 ADD SWAP1 DUP2 MSTORE PUSH1 0x20 ADD PUSH1 0x0 KECCAK256 SLOAD PUSH1 0x0 DUP1 DUP8 DUP6 DUP2 MLOAD DUP2 LT PUSH2 0xA5A JUMPI PUSH2 0xA5A PUSH2 0x1624 JUMP JUMPDEST PUSH1 0x20 MUL PUSH1 0x20 ADD ADD MLOAD DUP2 MSTORE PUSH1 0x20 ADD SWAP1 DUP2 MSTORE PUSH1 0x20 ADD PUSH1 0x0 KECCAK256 PUSH1 0x0 DUP10 PUSH1 0x1 PUSH1 0x1 PUSH1 0xA0 SHL SUB AND PUSH1 0x1 PUSH1 0x1 PUSH1 0xA0 SHL SUB AND DUP2 MSTORE PUSH1 0x20 ADD SWAP1 DUP2 MSTORE PUSH1 0x20 ADD PUSH1 0x0 KECCAK256 SLOAD PUSH2 0xA9E SWAP2 SWAP1 PUSH2 0x1735 JUMP JUMPDEST SWAP1 POP PUSH1 0x1 PUSH1 0x1 PUSH1 0xA0 SHL SUB DUP8 AND ISZERO DUP1 ISZERO SWAP1 PUSH2 0xAD0 JUMPI POP DUP4 DUP3 DUP2 MLOAD DUP2 LT PUSH2 0xAC5 JUMPI PUSH2 0xAC5 PUSH2 0x1624 JUMP JUMPDEST PUSH1 0x20 MUL PUSH1 0x20 ADD ADD MLOAD DUP2 LT JUMPDEST ISZERO PUSH2 0xB0F JUMPI PUSH1 0x40 MLOAD PUSH3 0x461BCD PUSH1 0xE5 SHL DUP2 MSTORE PUSH1 0x20 PUSH1 0x4 DUP3 ADD MSTORE PUSH1 0xF PUSH1 0x24 DUP3 ADD MSTORE PUSH15 0x151BDAD95B881A5CC81B1BD8DAD959 PUSH1 0x8A SHL PUSH1 0x44 DUP3 ADD MSTORE PUSH1 0x64 ADD PUSH2 0x290 JUMP JUMPDEST POP PUSH2 0xB19 DUP2 PUSH2 0x1650 JUMP JUMPDEST SWAP1 POP PUSH2 0x9F7 JUMP JUMPDEST POP PUSH1 0x1 PUSH1 0x1 PUSH1 0xA0 SHL SUB DUP6 AND PUSH2 0xBA8 JUMPI PUSH1 0x0 JUMPDEST DUP4 MLOAD DUP2 LT ISZERO PUSH2 0xBA6 JUMPI DUP3 DUP2 DUP2 MLOAD DUP2 LT PUSH2 0xB4D JUMPI PUSH2 0xB4D PUSH2 0x1624 JUMP JUMPDEST PUSH1 0x20 MUL PUSH1 0x20 ADD ADD MLOAD PUSH1 0x1 PUSH1 0x0 DUP7 DUP5 DUP2 MLOAD DUP2 LT PUSH2 0xB6B JUMPI PUSH2 0xB6B PUSH2 0x1624 JUMP JUMPDEST PUSH1 0x20 MUL PUSH1 0x20 ADD ADD MLOAD DUP2 MSTORE PUSH1 0x20 ADD SWAP1 DUP2 MSTORE PUSH1 0x20 ADD PUSH1 0x0 KECCAK256 PUSH1 0x0 DUP3 DUP3 SLOAD PUSH2 0xB90 SWAP2 SWAP1 PUSH2 0x16F4 JUMP JUMPDEST SWAP1 SWAP2 SSTORE POP PUSH2 0xB9F SWAP1 POP DUP2 PUSH2 0x1650 JUMP JUMPDEST SWAP1 POP PUSH2 0xB32 JUMP JUMPDEST POP JUMPDEST PUSH1 0x1 PUSH1 0x1 PUSH1 0xA0 SHL SUB DUP5 AND PUSH2 0x7D6 JUMPI PUSH1 0x0 JUMPDEST DUP4 MLOAD DUP2 LT ISZERO PUSH2 0xC98 JUMPI PUSH1 0x0 DUP5 DUP3 DUP2 MLOAD DUP2 LT PUSH2 0xBD6 JUMPI PUSH2 0xBD6 PUSH2 0x1624 JUMP JUMPDEST PUSH1 0x20 MUL PUSH1 0x20 ADD ADD MLOAD SWAP1 POP PUSH1 0x0 DUP5 DUP4 DUP2 MLOAD DUP2 LT PUSH2 0xBF4 JUMPI PUSH2 0xBF4 PUSH2 0x1624 JUMP JUMPDEST PUSH1 0x20 MUL PUSH1 0x20 ADD ADD MLOAD SWAP1 POP PUSH1 0x0 PUSH1 0x1 PUSH1 0x0 DUP5 DUP2 MSTORE PUSH1 0x20 ADD SWAP1 DUP2 MSTORE PUSH1 0x20 ADD PUSH1 0x0 KECCAK256 SLOAD SWAP1 POP DUP2 DUP2 LT ISZERO PUSH2 0xC75 JUMPI PUSH1 0x40 MLOAD PUSH3 0x461BCD PUSH1 0xE5 SHL DUP2 MSTORE PUSH1 0x20 PUSH1 0x4 DUP3 ADD MSTORE PUSH1 0x26 PUSH1 0x24 DUP3 ADD MSTORE PUSH32 0x4B495033373A206275726E20616D6F756E74206578636565647320746F74616C PUSH1 0x44 DUP3 ADD MSTORE PUSH6 0x537570706C79 PUSH1 0xD0 SHL PUSH1 0x64 DUP3 ADD MSTORE PUSH1 0x84 ADD PUSH2 0x290 JUMP JUMPDEST PUSH1 0x0 SWAP3 DUP4 MSTORE PUSH1 0x1 PUSH1 0x20 MSTORE PUSH1 0x40 SWAP1 SWAP3 KECCAK256 SWAP2 SUB SWAP1 SSTORE PUSH2 0xC91 DUP2 PUSH2 0x1650 JUMP JUMPDEST SWAP1 POP PUSH2 0xBB9 JUMP JUMPDEST POP POP POP POP POP POP POP JUMP JUMPDEST PUSH2 0xCAF DUP7 DUP7 DUP7 DUP7 DUP7 DUP7 PUSH2 0xDAD JUMP JUMPDEST DUP1 PUSH2 0xCC3 JUMPI POP PUSH2 0xCC3 DUP7 DUP7 DUP7 DUP7 DUP7 DUP7 PUSH2 0xEA5 JUMP JUMPDEST PUSH2 0x7D6 JUMPI PUSH1 0x40 MLOAD PUSH3 0x461BCD PUSH1 0xE5 SHL DUP2 MSTORE PUSH1 0x20 PUSH1 0x4 DUP3 ADD MSTORE PUSH1 0x42 PUSH1 0x24 DUP3 ADD MSTORE PUSH32 0x4B495033373A207472616E7366657220746F206E6F6E20494B49503337526563 PUSH1 0x44 DUP3 ADD MSTORE PUSH32 0x65697665722F4945524331313535526563656976657220696D706C656D656E74 PUSH1 0x64 DUP3 ADD MSTORE PUSH2 0x32B9 PUSH1 0xF1 SHL PUSH1 0x84 DUP3 ADD MSTORE PUSH1 0xA4 ADD PUSH2 0x290 JUMP JUMPDEST PUSH1 0x40 DUP1 MLOAD PUSH1 0x1 DUP1 DUP3 MSTORE DUP2 DUP4 ADD SWAP1 SWAP3 MSTORE PUSH1 0x60 SWAP2 PUSH1 0x0 SWAP2 SWAP1 PUSH1 0x20 DUP1 DUP4 ADD SWAP1 DUP1 CALLDATASIZE DUP4 CALLDATACOPY ADD SWAP1 POP POP SWAP1 POP DUP3 DUP2 PUSH1 0x0 DUP2 MLOAD DUP2 LT PUSH2 0xD7A JUMPI PUSH2 0xD7A PUSH2 0x1624 JUMP JUMPDEST PUSH1 0x20 SWAP1 DUP2 MUL SWAP2 SWAP1 SWAP2 ADD ADD MSTORE SWAP3 SWAP2 POP POP JUMP JUMPDEST PUSH2 0xD99 DUP7 DUP7 DUP7 DUP7 DUP7 DUP7 PUSH2 0xF6E JUMP JUMPDEST DUP1 PUSH2 0xCC3 JUMPI POP PUSH2 0xCC3 DUP7 DUP7 DUP7 DUP7 DUP7 DUP7 PUSH2 0x1037 JUMP JUMPDEST PUSH1 0x0 PUSH1 0x1 PUSH1 0x1 PUSH1 0xA0 SHL SUB DUP6 AND EXTCODESIZE ISZERO PUSH2 0xE97 JUMPI PUSH1 0x40 MLOAD PUSH4 0x4DA4F199 PUSH1 0xE1 SHL DUP2 MSTORE PUSH1 0x1 PUSH1 0x1 PUSH1 0xA0 SHL SUB DUP7 AND SWAP1 PUSH4 0x9B49E332 SWAP1 PUSH2 0xDF3 SWAP1 DUP11 SWAP1 DUP11 SWAP1 DUP10 SWAP1 DUP10 SWAP1 DUP10 SWAP1 PUSH1 0x4 ADD PUSH2 0x1748 JUMP JUMPDEST PUSH1 0x20 PUSH1 0x40 MLOAD DUP1 DUP4 SUB DUP2 PUSH1 0x0 DUP8 GAS CALL SWAP3 POP POP POP DUP1 ISZERO PUSH2 0xE2E JUMPI POP PUSH1 0x40 DUP1 MLOAD PUSH1 0x1F RETURNDATASIZE SWAP1 DUP2 ADD PUSH1 0x1F NOT AND DUP3 ADD SWAP1 SWAP3 MSTORE PUSH2 0xE2B SWAP2 DUP2 ADD SWAP1 PUSH2 0x17A6 JUMP JUMPDEST PUSH1 0x1 JUMPDEST PUSH2 0xE7D JUMPI RETURNDATASIZE DUP1 DUP1 ISZERO PUSH2 0xE5C JUMPI PUSH1 0x40 MLOAD SWAP2 POP PUSH1 0x1F NOT PUSH1 0x3F RETURNDATASIZE ADD AND DUP3 ADD PUSH1 0x40 MSTORE RETURNDATASIZE DUP3 MSTORE RETURNDATASIZE PUSH1 0x0 PUSH1 0x20 DUP5 ADD RETURNDATACOPY PUSH2 0xE61 JUMP JUMPDEST PUSH1 0x60 SWAP2 POP JUMPDEST POP DUP1 MLOAD PUSH1 0x0 SUB PUSH2 0xE75 JUMPI PUSH1 0x0 SWAP2 POP POP PUSH2 0xE9B JUMP JUMPDEST DUP1 MLOAD DUP2 PUSH1 0x20 ADD REVERT JUMPDEST PUSH1 0x1 PUSH1 0x1 PUSH1 0xE0 SHL SUB NOT AND PUSH4 0x4DA4F199 PUSH1 0xE1 SHL EQ SWAP1 POP PUSH2 0xE9B JUMP JUMPDEST POP PUSH1 0x1 JUMPDEST SWAP7 SWAP6 POP POP POP POP POP POP JUMP JUMPDEST PUSH1 0x0 PUSH1 0x1 PUSH1 0x1 PUSH1 0xA0 SHL SUB DUP6 AND EXTCODESIZE ISZERO PUSH2 0xE97 JUMPI PUSH1 0x40 MLOAD PUSH4 0xBC197C81 PUSH1 0xE0 SHL DUP2 MSTORE PUSH1 0x1 PUSH1 0x1 PUSH1 0xA0 SHL SUB DUP7 AND SWAP1 PUSH4 0xBC197C81 SWAP1 PUSH2 0xEEB SWAP1 DUP11 SWAP1 DUP11 SWAP1 DUP10 SWAP1 DUP10 SWAP1 DUP10 SWAP1 PUSH1 0x4 ADD PUSH2 0x1748 JUMP JUMPDEST PUSH1 0x20 PUSH1 0x40 MLOAD DUP1 DUP4 SUB DUP2 PUSH1 0x0 DUP8 GAS CALL SWAP3 POP POP POP DUP1 ISZERO PUSH2 0xF26 JUMPI POP PUSH1 0x40 DUP1 MLOAD PUSH1 0x1F RETURNDATASIZE SWAP1 DUP2 ADD PUSH1 0x1F NOT AND DUP3 ADD SWAP1 SWAP3 MSTORE PUSH2 0xF23 SWAP2 DUP2 ADD SWAP1 PUSH2 0x17A6 JUMP JUMPDEST PUSH1 0x1 JUMPDEST PUSH2 0xF54 JUMPI RETURNDATASIZE DUP1 DUP1 ISZERO PUSH2 0xE5C JUMPI PUSH1 0x40 MLOAD SWAP2 POP PUSH1 0x1F NOT PUSH1 0x3F RETURNDATASIZE ADD AND DUP3 ADD PUSH1 0x40 MSTORE RETURNDATASIZE DUP3 MSTORE RETURNDATASIZE PUSH1 0x0 PUSH1 0x20 DUP5 ADD RETURNDATACOPY PUSH2 0xE61 JUMP JUMPDEST PUSH1 0x1 PUSH1 0x1 PUSH1 0xE0 SHL SUB NOT AND PUSH4 0xBC197C81 PUSH1 0xE0 SHL EQ SWAP1 POP PUSH2 0xE9B JUMP JUMPDEST PUSH1 0x0 PUSH1 0x1 PUSH1 0x1 PUSH1 0xA0 SHL SUB DUP6 AND EXTCODESIZE ISZERO PUSH2 0xE97 JUMPI PUSH1 0x40 MLOAD PUSH4 0xE78B3325 PUSH1 0xE0 SHL DUP2 MSTORE PUSH1 0x1 PUSH1 0x1 PUSH1 0xA0 SHL SUB DUP7 AND SWAP1 PUSH4 0xE78B3325 SWAP1 PUSH2 0xFB4 SWAP1 DUP11 SWAP1 DUP11 SWAP1 DUP10 SWAP1 DUP10 SWAP1 DUP10 SWAP1 PUSH1 0x4 ADD PUSH2 0x17C3 JUMP JUMPDEST PUSH1 0x20 PUSH1 0x40 MLOAD DUP1 DUP4 SUB DUP2 PUSH1 0x0 DUP8 GAS CALL SWAP3 POP POP POP DUP1 ISZERO PUSH2 0xFEF JUMPI POP PUSH1 0x40 DUP1 MLOAD PUSH1 0x1F RETURNDATASIZE SWAP1 DUP2 ADD PUSH1 0x1F NOT AND DUP3 ADD SWAP1 SWAP3 MSTORE PUSH2 0xFEC SWAP2 DUP2 ADD SWAP1 PUSH2 0x17A6 JUMP JUMPDEST PUSH1 0x1 JUMPDEST PUSH2 0x101D JUMPI RETURNDATASIZE DUP1 DUP1 ISZERO PUSH2 0xE5C JUMPI PUSH1 0x40 MLOAD SWAP2 POP PUSH1 0x1F NOT PUSH1 0x3F RETURNDATASIZE ADD AND DUP3 ADD PUSH1 0x40 MSTORE RETURNDATASIZE DUP3 MSTORE RETURNDATASIZE PUSH1 0x0 PUSH1 0x20 DUP5 ADD RETURNDATACOPY PUSH2 0xE61 JUMP JUMPDEST PUSH1 0x1 PUSH1 0x1 PUSH1 0xE0 SHL SUB NOT AND PUSH4 0xE78B3325 PUSH1 0xE0 SHL EQ SWAP1 POP PUSH2 0xE9B JUMP JUMPDEST PUSH1 0x0 PUSH1 0x1 PUSH1 0x1 PUSH1 0xA0 SHL SUB DUP6 AND EXTCODESIZE ISZERO PUSH2 0xE97 JUMPI PUSH1 0x40 MLOAD PUSH4 0xF23A6E61 PUSH1 0xE0 SHL DUP2 MSTORE PUSH1 0x1 PUSH1 0x1 PUSH1 0xA0 SHL SUB DUP7 AND SWAP1 PUSH4 0xF23A6E61 SWAP1 PUSH2 0x107D SWAP1 DUP11 SWAP1 DUP11 SWAP1 DUP10 SWAP1 DUP10 SWAP1 DUP10 SWAP1 PUSH1 0x4 ADD PUSH2 0x17C3 JUMP JUMPDEST PUSH1 0x20 PUSH1 0x40 MLOAD DUP1 DUP4 SUB DUP2 PUSH1 0x0 DUP8 GAS CALL SWAP3 POP POP POP DUP1 ISZERO PUSH2 0x10B8 JUMPI POP PUSH1 0x40 DUP1 MLOAD PUSH1 0x1F RETURNDATASIZE SWAP1 DUP2 ADD PUSH1 0x1F NOT AND DUP3 ADD SWAP1 SWAP3 MSTORE PUSH2 0x10B5 SWAP2 DUP2 ADD SWAP1 PUSH2 0x17A6 JUMP JUMPDEST PUSH1 0x1 JUMPDEST PUSH2 0x10E6 JUMPI RETURNDATASIZE DUP1 DUP1 ISZERO PUSH2 0xE5C JUMPI PUSH1 0x40 MLOAD SWAP2 POP PUSH1 0x1F NOT PUSH1 0x3F RETURNDATASIZE ADD AND DUP3 ADD PUSH1 0x40 MSTORE RETURNDATASIZE DUP3 MSTORE RETURNDATASIZE PUSH1 0x0 PUSH1 0x20 DUP5 ADD RETURNDATACOPY PUSH2 0xE61 JUMP JUMPDEST PUSH1 0x1 PUSH1 0x1 PUSH1 0xE0 SHL SUB NOT AND PUSH4 0xF23A6E61 PUSH1 0xE0 SHL EQ SWAP1 POP PUSH2 0xE9B JUMP JUMPDEST DUP1 CALLDATALOAD PUSH1 0x1 PUSH1 0x1 PUSH1 0xA0 SHL SUB DUP2 AND DUP2 EQ PUSH2 0x1117 JUMPI PUSH1 0x0 DUP1 REVERT JUMPDEST SWAP2 SWAP1 POP JUMP JUMPDEST PUSH1 0x0 DUP1 PUSH1 0x40 DUP4 DUP6 SUB SLT ISZERO PUSH2 0x112F JUMPI PUSH1 0x0 DUP1 REVERT JUMPDEST PUSH2 0x1138 DUP4 PUSH2 0x1100 JUMP JUMPDEST SWAP5 PUSH1 0x20 SWAP4 SWAP1 SWAP4 ADD CALLDATALOAD SWAP4 POP POP POP JUMP JUMPDEST PUSH1 0x1 PUSH1 0x1 PUSH1 0xE0 SHL SUB NOT DUP2 AND DUP2 EQ PUSH2 0x115C JUMPI PUSH1 0x0 DUP1 REVERT JUMPDEST POP JUMP JUMPDEST PUSH1 0x0 PUSH1 0x20 DUP3 DUP5 SUB SLT ISZERO PUSH2 0x1171 JUMPI PUSH1 0x0 DUP1 REVERT JUMPDEST DUP2 CALLDATALOAD PUSH2 0x117C DUP2 PUSH2 0x1146 JUMP JUMPDEST SWAP4 SWAP3 POP POP POP JUMP JUMPDEST PUSH1 0x0 PUSH1 0x20 DUP3 DUP5 SUB SLT ISZERO PUSH2 0x1195 JUMPI PUSH1 0x0 DUP1 REVERT JUMPDEST POP CALLDATALOAD SWAP2 SWAP1 POP JUMP JUMPDEST PUSH1 0x0 DUP2 MLOAD DUP1 DUP5 MSTORE PUSH1 0x0 JUMPDEST DUP2 DUP2 LT ISZERO PUSH2 0x11C2 JUMPI PUSH1 0x20 DUP2 DUP6 ADD DUP2 ADD MLOAD DUP7 DUP4 ADD DUP3 ADD MSTORE ADD PUSH2 0x11A6 JUMP JUMPDEST POP PUSH1 0x0 PUSH1 0x20 DUP3 DUP7 ADD ADD MSTORE PUSH1 0x20 PUSH1 0x1F NOT PUSH1 0x1F DUP4 ADD AND DUP6 ADD ADD SWAP2 POP POP SWAP3 SWAP2 POP POP JUMP JUMPDEST PUSH1 0x20 DUP2 MSTORE PUSH1 0x0 PUSH2 0x117C PUSH1 0x20 DUP4 ADD DUP5 PUSH2 0x119C JUMP JUMPDEST PUSH4 0x4E487B71 PUSH1 0xE0 SHL PUSH1 0x0 MSTORE PUSH1 0x41 PUSH1 0x4 MSTORE PUSH1 0x24 PUSH1 0x0 REVERT JUMPDEST PUSH1 0x40 MLOAD PUSH1 0x1F DUP3 ADD PUSH1 0x1F NOT AND DUP2 ADD PUSH8 0xFFFFFFFFFFFFFFFF DUP2 GT DUP3 DUP3 LT OR ISZERO PUSH2 0x1234 JUMPI PUSH2 0x1234 PUSH2 0x11F5 JUMP JUMPDEST PUSH1 0x40 MSTORE SWAP2 SWAP1 POP JUMP JUMPDEST PUSH1 0x0 PUSH8 0xFFFFFFFFFFFFFFFF DUP3 GT ISZERO PUSH2 0x1256 JUMPI PUSH2 0x1256 PUSH2 0x11F5 JUMP JUMPDEST POP PUSH1 0x5 SHL PUSH1 0x20 ADD SWAP1 JUMP JUMPDEST PUSH1 0x0 DUP3 PUSH1 0x1F DUP4 ADD SLT PUSH2 0x1271 JUMPI PUSH1 0x0 DUP1 REVERT JUMPDEST DUP2 CALLDATALOAD PUSH1 0x20 PUSH2 0x1286 PUSH2 0x1281 DUP4 PUSH2 0x123C JUMP JUMPDEST PUSH2 0x120B JUMP JUMPDEST DUP3 DUP2 MSTORE PUSH1 0x5 SWAP3 SWAP1 SWAP3 SHL DUP5 ADD DUP2 ADD SWAP2 DUP2 DUP2 ADD SWAP1 DUP7 DUP5 GT ISZERO PUSH2 0x12A5 JUMPI PUSH1 0x0 DUP1 REVERT JUMPDEST DUP3 DUP7 ADD JUMPDEST DUP5 DUP2 LT ISZERO PUSH2 0x12C0 JUMPI DUP1 CALLDATALOAD DUP4 MSTORE SWAP2 DUP4 ADD SWAP2 DUP4 ADD PUSH2 0x12A9 JUMP JUMPDEST POP SWAP7 SWAP6 POP POP POP POP POP POP JUMP JUMPDEST PUSH1 0x0 DUP3 PUSH1 0x1F DUP4 ADD SLT PUSH2 0x12DC JUMPI PUSH1 0x0 DUP1 REVERT JUMPDEST DUP2 CALLDATALOAD PUSH8 0xFFFFFFFFFFFFFFFF DUP2 GT ISZERO PUSH2 0x12F6 JUMPI PUSH2 0x12F6 PUSH2 0x11F5 JUMP JUMPDEST PUSH2 0x1309 PUSH1 0x1F DUP3 ADD PUSH1 0x1F NOT AND PUSH1 0x20 ADD PUSH2 0x120B JUMP JUMPDEST DUP2 DUP2 MSTORE DUP5 PUSH1 0x20 DUP4 DUP7 ADD ADD GT ISZERO PUSH2 0x131E JUMPI PUSH1 0x0 DUP1 REVERT JUMPDEST DUP2 PUSH1 0x20 DUP6 ADD PUSH1 0x20 DUP4 ADD CALLDATACOPY PUSH1 0x0 SWAP2 DUP2 ADD PUSH1 0x20 ADD SWAP2 SWAP1 SWAP2 MSTORE SWAP4 SWAP3 POP POP POP JUMP JUMPDEST PUSH1 0x0 DUP1 PUSH1 0x0 DUP1 PUSH1 0x0 PUSH1 0xA0 DUP7 DUP9 SUB SLT ISZERO PUSH2 0x1353 JUMPI PUSH1 0x0 DUP1 REVERT JUMPDEST PUSH2 0x135C DUP7 PUSH2 0x1100 JUMP JUMPDEST SWAP5 POP PUSH2 0x136A PUSH1 0x20 DUP8 ADD PUSH2 0x1100 JUMP JUMPDEST SWAP4 POP PUSH1 0x40 DUP7 ADD CALLDATALOAD PUSH8 0xFFFFFFFFFFFFFFFF DUP1 DUP3 GT ISZERO PUSH2 0x1387 JUMPI PUSH1 0x0 DUP1 REVERT JUMPDEST PUSH2 0x1393 DUP10 DUP4 DUP11 ADD PUSH2 0x1260 JUMP JUMPDEST SWAP5 POP PUSH1 0x60 DUP9 ADD CALLDATALOAD SWAP2 POP DUP1 DUP3 GT ISZERO PUSH2 0x13A9 JUMPI PUSH1 0x0 DUP1 REVERT JUMPDEST PUSH2 0x13B5 DUP10 DUP4 DUP11 ADD PUSH2 0x1260 JUMP JUMPDEST SWAP4 POP PUSH1 0x80 DUP9 ADD CALLDATALOAD SWAP2 POP DUP1 DUP3 GT ISZERO PUSH2 0x13CB JUMPI PUSH1 0x0 DUP1 REVERT JUMPDEST POP PUSH2 0x13D8 DUP9 DUP3 DUP10 ADD PUSH2 0x12CB JUMP JUMPDEST SWAP2 POP POP SWAP3 SWAP6 POP SWAP3 SWAP6 SWAP1 SWAP4 POP JUMP JUMPDEST PUSH1 0x0 DUP1 PUSH1 0x40 DUP4 DUP6 SUB SLT ISZERO PUSH2 0x13F8 JUMPI PUSH1 0x0 DUP1 REVERT JUMPDEST DUP3 CALLDATALOAD PUSH8 0xFFFFFFFFFFFFFFFF DUP1 DUP3 GT ISZERO PUSH2 0x1410 JUMPI PUSH1 0x0 DUP1 REVERT JUMPDEST DUP2 DUP6 ADD SWAP2 POP DUP6 PUSH1 0x1F DUP4 ADD SLT PUSH2 0x1424 JUMPI PUSH1 0x0 DUP1 REVERT JUMPDEST DUP2 CALLDATALOAD PUSH1 0x20 PUSH2 0x1434 PUSH2 0x1281 DUP4 PUSH2 0x123C JUMP JUMPDEST DUP3 DUP2 MSTORE PUSH1 0x5 SWAP3 SWAP1 SWAP3 SHL DUP5 ADD DUP2 ADD SWAP2 DUP2 DUP2 ADD SWAP1 DUP10 DUP5 GT ISZERO PUSH2 0x1453 JUMPI PUSH1 0x0 DUP1 REVERT JUMPDEST SWAP5 DUP3 ADD SWAP5 JUMPDEST DUP4 DUP7 LT ISZERO PUSH2 0x1478 JUMPI PUSH2 0x1469 DUP7 PUSH2 0x1100 JUMP JUMPDEST DUP3 MSTORE SWAP5 DUP3 ADD SWAP5 SWAP1 DUP3 ADD SWAP1 PUSH2 0x1458 JUMP JUMPDEST SWAP7 POP POP DUP7 ADD CALLDATALOAD SWAP3 POP POP DUP1 DUP3 GT ISZERO PUSH2 0x148E JUMPI PUSH1 0x0 DUP1 REVERT JUMPDEST POP PUSH2 0x149B DUP6 DUP3 DUP7 ADD PUSH2 0x1260 JUMP JUMPDEST SWAP2 POP POP SWAP3 POP SWAP3 SWAP1 POP JUMP JUMPDEST PUSH1 0x0 DUP2 MLOAD DUP1 DUP5 MSTORE PUSH1 0x20 DUP1 DUP6 ADD SWAP5 POP DUP1 DUP5 ADD PUSH1 0x0 JUMPDEST DUP4 DUP2 LT ISZERO PUSH2 0x14D5 JUMPI DUP2 MLOAD DUP8 MSTORE SWAP6 DUP3 ADD SWAP6 SWAP1 DUP3 ADD SWAP1 PUSH1 0x1 ADD PUSH2 0x14B9 JUMP JUMPDEST POP SWAP5 SWAP6 SWAP5 POP POP POP POP POP JUMP JUMPDEST PUSH1 0x20 DUP2 MSTORE PUSH1 0x0 PUSH2 0x117C PUSH1 0x20 DUP4 ADD DUP5 PUSH2 0x14A5 JUMP JUMPDEST PUSH1 0x0 DUP1 PUSH1 0x40 DUP4 DUP6 SUB SLT ISZERO PUSH2 0x1506 JUMPI PUSH1 0x0 DUP1 REVERT JUMPDEST PUSH2 0x150F DUP4 PUSH2 0x1100 JUMP JUMPDEST SWAP2 POP PUSH1 0x20 DUP4 ADD CALLDATALOAD DUP1 ISZERO ISZERO DUP2 EQ PUSH2 0x1524 JUMPI PUSH1 0x0 DUP1 REVERT JUMPDEST DUP1 SWAP2 POP POP SWAP3 POP SWAP3 SWAP1 POP JUMP JUMPDEST PUSH1 0x0 DUP1 PUSH1 0x40 DUP4 DUP6 SUB SLT ISZERO PUSH2 0x1542 JUMPI PUSH1 0x0 DUP1 REVERT JUMPDEST DUP3 CALLDATALOAD SWAP2 POP PUSH2 0x1552 PUSH1 0x20 DUP5 ADD PUSH2 0x1100 JUMP JUMPDEST SWAP1 POP SWAP3 POP SWAP3 SWAP1 POP JUMP JUMPDEST PUSH1 0x0 DUP1 PUSH1 0x40 DUP4 DUP6 SUB SLT ISZERO PUSH2 0x156E JUMPI PUSH1 0x0 DUP1 REVERT JUMPDEST PUSH2 0x1577 DUP4 PUSH2 0x1100 JUMP JUMPDEST SWAP2 POP PUSH2 0x1552 PUSH1 0x20 DUP5 ADD PUSH2 0x1100 JUMP JUMPDEST PUSH1 0x0 DUP1 PUSH1 0x0 DUP1 PUSH1 0x0 PUSH1 0xA0 DUP7 DUP9 SUB SLT ISZERO PUSH2 0x159D JUMPI PUSH1 0x0 DUP1 REVERT JUMPDEST PUSH2 0x15A6 DUP7 PUSH2 0x1100 JUMP JUMPDEST SWAP5 POP PUSH2 0x15B4 PUSH1 0x20 DUP8 ADD PUSH2 0x1100 JUMP JUMPDEST SWAP4 POP PUSH1 0x40 DUP7 ADD CALLDATALOAD SWAP3 POP PUSH1 0x60 DUP7 ADD CALLDATALOAD SWAP2 POP PUSH1 0x80 DUP7 ADD CALLDATALOAD PUSH8 0xFFFFFFFFFFFFFFFF DUP2 GT ISZERO PUSH2 0x15DE JUMPI PUSH1 0x0 DUP1 REVERT JUMPDEST PUSH2 0x13D8 DUP9 DUP3 DUP10 ADD PUSH2 0x12CB JUMP JUMPDEST PUSH1 0x1 DUP2 DUP2 SHR SWAP1 DUP3 AND DUP1 PUSH2 0x15FE JUMPI PUSH1 0x7F DUP3 AND SWAP2 POP JUMPDEST PUSH1 0x20 DUP3 LT DUP2 SUB PUSH2 0x161E JUMPI PUSH4 0x4E487B71 PUSH1 0xE0 SHL PUSH1 0x0 MSTORE PUSH1 0x22 PUSH1 0x4 MSTORE PUSH1 0x24 PUSH1 0x0 REVERT JUMPDEST POP SWAP2 SWAP1 POP JUMP JUMPDEST PUSH4 0x4E487B71 PUSH1 0xE0 SHL PUSH1 0x0 MSTORE PUSH1 0x32 PUSH1 0x4 MSTORE PUSH1 0x24 PUSH1 0x0 REVERT JUMPDEST PUSH4 0x4E487B71 PUSH1 0xE0 SHL PUSH1 0x0 MSTORE PUSH1 0x11 PUSH1 0x4 MSTORE PUSH1 0x24 PUSH1 0x0 REVERT JUMPDEST PUSH1 0x0 PUSH1 0x1 DUP3 ADD PUSH2 0x1662 JUMPI PUSH2 0x1662 PUSH2 0x163A JUMP JUMPDEST POP PUSH1 0x1 ADD SWAP1 JUMP JUMPDEST PUSH1 0x20 DUP1 DUP3 MSTORE PUSH1 0x23 SWAP1 DUP3 ADD MSTORE PUSH32 0x4B495033373A207472616E7366657220746F20746865207A65726F2061646472 PUSH1 0x40 DUP3 ADD MSTORE PUSH3 0x657373 PUSH1 0xE8 SHL PUSH1 0x60 DUP3 ADD MSTORE PUSH1 0x80 ADD SWAP1 JUMP JUMPDEST PUSH1 0x20 DUP1 DUP3 MSTORE PUSH1 0x28 SWAP1 DUP3 ADD MSTORE PUSH32 0x4B495033373A20696E73756666696369656E742062616C616E636520666F7220 PUSH1 0x40 DUP3 ADD MSTORE PUSH8 0x3A3930B739B332B9 PUSH1 0xC1 SHL PUSH1 0x60 DUP3 ADD MSTORE PUSH1 0x80 ADD SWAP1 JUMP JUMPDEST DUP1 DUP3 ADD DUP1 DUP3 GT ISZERO PUSH2 0x2BC JUMPI PUSH2 0x2BC PUSH2 0x163A JUMP JUMPDEST PUSH1 0x40 DUP2 MSTORE PUSH1 0x0 PUSH2 0x171A PUSH1 0x40 DUP4 ADD DUP6 PUSH2 0x14A5 JUMP JUMPDEST DUP3 DUP2 SUB PUSH1 0x20 DUP5 ADD MSTORE PUSH2 0x172C DUP2 DUP6 PUSH2 0x14A5 JUMP JUMPDEST SWAP6 SWAP5 POP POP POP POP POP JUMP JUMPDEST DUP2 DUP2 SUB DUP2 DUP2 GT ISZERO PUSH2 0x2BC JUMPI PUSH2 0x2BC PUSH2 0x163A JUMP JUMPDEST PUSH1 0x1 PUSH1 0x1 PUSH1 0xA0 SHL SUB DUP7 DUP2 AND DUP3 MSTORE DUP6 AND PUSH1 0x20 DUP3 ADD MSTORE PUSH1 0xA0 PUSH1 0x40 DUP3 ADD DUP2 SWAP1 MSTORE PUSH1 0x0 SWAP1 PUSH2 0x1774 SWAP1 DUP4 ADD DUP7 PUSH2 0x14A5 JUMP JUMPDEST DUP3 DUP2 SUB PUSH1 0x60 DUP5 ADD MSTORE PUSH2 0x1786 DUP2 DUP7 PUSH2 0x14A5 JUMP JUMPDEST SWAP1 POP DUP3 DUP2 SUB PUSH1 0x80 DUP5 ADD MSTORE PUSH2 0x179A DUP2 DUP6 PUSH2 0x119C JUMP JUMPDEST SWAP9 SWAP8 POP POP POP POP POP POP POP POP JUMP JUMPDEST PUSH1 0x0 PUSH1 0x20 DUP3 DUP5 SUB SLT ISZERO PUSH2 0x17B8 JUMPI PUSH1 0x0 DUP1 REVERT JUMPDEST DUP2 MLOAD PUSH2 0x117C DUP2 PUSH2 0x1146 JUMP JUMPDEST PUSH1 0x1 PUSH1 0x1 PUSH1 0xA0 SHL SUB DUP7 DUP2 AND DUP3 MSTORE DUP6 AND PUSH1 0x20 DUP3 ADD MSTORE PUSH1 0x40 DUP2 ADD DUP5 SWAP1 MSTORE PUSH1 0x60 DUP2 ADD DUP4 SWAP1 MSTORE PUSH1 0xA0 PUSH1 0x80 DUP3 ADD DUP2 SWAP1 MSTORE PUSH1 0x0 SWAP1 PUSH2 0x17FD SWAP1 DUP4 ADD DUP5 PUSH2 0x119C JUMP JUMPDEST SWAP8 SWAP7 POP POP POP POP POP POP POP JUMP INVALID LOG2 PUSH5 0x6970667358 0x22 SLT KECCAK256 DUP4 0xEC PUSH24 0xC8A7D595FC2696915559E984A34D87057D48012B9E060294 DUP2 0x2F MSTORE PUSH14 0x2A64736F6C634300081300330000 "
				},
				"gasEstimates": {
					"creation": {
						"codeDepositCost": "1241200",
						"executionCost": "1288",
						"totalCost": "1242488"
					},
					"external": {
						"balanceOf(address,uint256)": "2677",
						"balanceOfBatch(address[],uint256[])": "infinite",
						"isApprovedForAll(address,address)": "infinite",
						"isTokenLocked(uint256,address)": "2665",
						"lockedTokens(address,uint256)": "2601",
						"safeBatchTransferFrom(address,address,uint256[],uint256[],bytes)": "infinite",
						"safeTransferFrom(address,address,uint256,uint256,bytes)": "infinite",
						"setApprovalForAll(address,bool)": "26705",
						"supportsInterface(bytes4)": "555",
						"totalSupply(uint256)": "2493",
						"uri(uint256)": "infinite"
					},
					"internal": {
						"_afterTokenTransfer(address,address,address,uint256[] memory,uint256[] memory,bytes memory)": "infinite",
						"_asSingletonArray(uint256)": "infinite",
						"_beforeTokenTransfer(address,address,address,uint256[] memory,uint256[] memory,bytes memory)": "infinite",
						"_burn(address,uint256,uint256)": "infinite",
						"_burnBatch(address,uint256[] memory,uint256[] memory)": "infinite",
						"_checkOnERC1155BatchReceived(address,address,address,uint256[] memory,uint256[] memory,bytes memory)": "infinite",
						"_checkOnERC1155Received(address,address,address,uint256,uint256,bytes memory)": "infinite",
						"_checkOnKIP37BatchReceived(address,address,address,uint256[] memory,uint256[] memory,bytes memory)": "infinite",
						"_checkOnKIP37Received(address,address,address,uint256,uint256,bytes memory)": "infinite",
						"_doSafeBatchTransferAcceptanceCheck(address,address,address,uint256[] memory,uint256[] memory,bytes memory)": "infinite",
						"_doSafeTransferAcceptanceCheck(address,address,address,uint256,uint256,bytes memory)": "infinite",
						"_mint(address,uint256,uint256,bytes memory)": "infinite",
						"_mintBatch(address,uint256[] memory,uint256[] memory,bytes memory)": "infinite",
						"_safeBatchTransferFrom(address,address,uint256[] memory,uint256[] memory,bytes memory)": "infinite",
						"_safeTransferFrom(address,address,uint256,uint256,bytes memory)": "infinite",
						"_setApprovalForAll(address,address,bool)": "infinite",
						"_setURI(string memory)": "infinite"
					}
				},
				"methodIdentifiers": {
					"balanceOf(address,uint256)": "00fdd58e",
					"balanceOfBatch(address[],uint256[])": "4e1273f4",
					"isApprovedForAll(address,address)": "e985e9c5",
					"isTokenLocked(uint256,address)": "b56cf84f",
					"lockedTokens(address,uint256)": "53719b6e",
					"safeBatchTransferFrom(address,address,uint256[],uint256[],bytes)": "2eb2c2d6",
					"safeTransferFrom(address,address,uint256,uint256,bytes)": "f242432a",
					"setApprovalForAll(address,bool)": "a22cb465",
					"supportsInterface(bytes4)": "01ffc9a7",
					"totalSupply(uint256)": "bd85b039",
					"uri(uint256)": "0e89341c"
				}
			},
			"storageLayout": {
				"storage": [
					{
						"astId": 220,
						"contract": "KIP37/KIP37.sol:KIP37",
						"label": "_balances",
						"offset": 0,
						"slot": "0",
						"type": "t_mapping(t_uint256,t_mapping(t_address,t_uint256))"
					},
					{
						"astId": 224,
						"contract": "KIP37/KIP37.sol:KIP37",
						"label": "_totalSupply",
						"offset": 0,
						"slot": "1",
						"type": "t_mapping(t_uint256,t_uint256)"
					},
					{
						"astId": 230,
						"contract": "KIP37/KIP37.sol:KIP37",
						"label": "_operatorApprovals",
						"offset": 0,
						"slot": "2",
						"type": "t_mapping(t_address,t_mapping(t_address,t_bool))"
					},
					{
						"astId": 236,
						"contract": "KIP37/KIP37.sol:KIP37",
						"label": "lockedTokens",
						"offset": 0,
						"slot": "3",
						"type": "t_mapping(t_address,t_mapping(t_uint256,t_uint256))"
					},
					{
						"astId": 238,
						"contract": "KIP37/KIP37.sol:KIP37",
						"label": "_uri",
						"offset": 0,
						"slot": "4",
						"type": "t_string_storage"
					}
				],
				"types": {
					"t_address": {
						"encoding": "inplace",
						"label": "address",
						"numberOfBytes": "20"
					},
					"t_bool": {
						"encoding": "inplace",
						"label": "bool",
						"numberOfBytes": "1"
					},
					"t_mapping(t_address,t_bool)": {
						"encoding": "mapping",
						"key": "t_address",
						"label": "mapping(address => bool)",
						"numberOfBytes": "32",
						"value": "t_bool"
					},
					"t_mapping(t_address,t_mapping(t_address,t_bool))": {
						"encoding": "mapping",
						"key": "t_address",
						"label": "mapping(address => mapping(address => bool))",
						"numberOfBytes": "32",
						"value": "t_mapping(t_address,t_bool)"
					},
					"t_mapping(t_address,t_mapping(t_uint256,t_uint256))": {
						"encoding": "mapping",
						"key": "t_address",
						"label": "mapping(address => mapping(uint256 => uint256))",
						"numberOfBytes": "32",
						"value": "t_mapping(t_uint256,t_uint256)"
					},
					"t_mapping(t_address,t_uint256)": {
						"encoding": "mapping",
						"key": "t_address",
						"label": "mapping(address => uint256)",
						"numberOfBytes": "32",
						"value": "t_uint256"
					},
					"t_mapping(t_uint256,t_mapping(t_address,t_uint256))": {
						"encoding": "mapping",
						"key": "t_uint256",
						"label": "mapping(uint256 => mapping(address => uint256))",
						"numberOfBytes": "32",
						"value": "t_mapping(t_address,t_uint256)"
					},
					"t_mapping(t_uint256,t_uint256)": {
						"encoding": "mapping",
						"key": "t_uint256",
						"label": "mapping(uint256 => uint256)",
						"numberOfBytes": "32",
						"value": "t_uint256"
					},
					"t_string_storage": {
						"encoding": "bytes",
						"label": "string",
						"numberOfBytes": "32"
					},
					"t_uint256": {
						"encoding": "inplace",
						"label": "uint256",
						"numberOfBytes": "32"
					}
				}
			},
			"userdoc": {
				"kind": "user",
				"methods": {},
				"version": 1
			}
		}
	}
}