{
	"KIP37/utils/KIP37ERC1155Holder.sol": {
		"KIP37ERC1155Holder": {
			"abi": [
				{
					"inputs": [
						{
							"internalType": "address",
							"name": "",
							"type": "address"
						},
						{
							"internalType": "address",
							"name": "",
							"type": "address"
						},
						{
							"internalType": "uint256[]",
							"name": "",
							"type": "uint256[]"
						},
						{
							"internalType": "uint256[]",
							"name": "",
							"type": "uint256[]"
						},
						{
							"internalType": "bytes",
							"name": "",
							"type": "bytes"
						}
					],
					"name": "onERC1155BatchReceived",
					"outputs": [
						{
							"internalType": "bytes4",
							"name": "",
							"type": "bytes4"
						}
					],
					"stateMutability": "nonpayable",
					"type": "function"
				},
				{
					"inputs": [
						{
							"internalType": "address",
							"name": "",
							"type": "address"
						},
						{
							"internalType": "address",
							"name": "",
							"type": "address"
						},
						{
							"internalType": "uint256",
							"name": "",
							"type": "uint256"
						},
						{
							"internalType": "uint256",
							"name": "",
							"type": "uint256"
						},
						{
							"internalType": "bytes",
							"name": "",
							"type": "bytes"
						}
					],
					"name": "onERC1155Received",
					"outputs": [
						{
							"internalType": "bytes4",
							"name": "",
							"type": "bytes4"
						}
					],
					"stateMutability": "nonpayable",
					"type": "function"
				},
				{
					"inputs": [
						{
							"internalType": "address",
							"name": "",
							"type": "address"
						},
						{
							"internalType": "address",
							"name": "",
							"type": "address"
						},
						{
							"internalType": "uint256[]",
							"name": "",
							"type": "uint256[]"
						},
						{
							"internalType": "uint256[]",
							"name": "",
							"type": "uint256[]"
						},
						{
							"internalType": "bytes",
							"name": "",
							"type": "bytes"
						}
					],
					"name": "onKIP37BatchReceived",
					"outputs": [
						{
							"internalType": "bytes4",
							"name": "",
							"type": "bytes4"
						}
					],
					"stateMutability": "nonpayable",
					"type": "function"
				},
				{
					"inputs": [
						{
							"internalType": "address",
							"name": "",
							"type": "address"
						},
						{
							"internalType": "address",
							"name": "",
							"type": "address"
						},
						{
							"internalType": "uint256",
							"name": "",
							"type": "uint256"
						},
						{
							"internalType": "uint256",
							"name": "",
							"type": "uint256"
						},
						{
							"internalType": "bytes",
							"name": "",
							"type": "bytes"
						}
					],
					"name": "onKIP37Received",
					"outputs": [
						{
							"internalType": "bytes4",
							"name": "",
							"type": "bytes4"
						}
					],
					"stateMutability": "nonpayable",
					"type": "function"
				},
				{
					"inputs": [
						{
							"internalType": "bytes4",
							"name": "interfaceId",
							"type": "bytes4"
						}
					],
					"name": "supportsInterface",
					"outputs": [
						{
							"internalType": "bool",
							"name": "",
							"type": "bool"
						}
					],
					"stateMutability": "view",
					"type": "function"
				}
			],
			"devdoc": {
				"kind": "dev",
				"methods": {},
				"version": 1
			},
			"evm": {
				"assembly": "    /* \"KIP37/utils/KIP37ERC1155Holder.sol\":121:1424  contract KIP37ERC1155Holder is KIP37Receiver, ERC1155Receiver {... */\n  mstore(0x40, 0x80)\n  callvalue\n  dup1\n  iszero\n  tag_1\n  jumpi\n  0x00\n  dup1\n  revert\ntag_1:\n  pop\n  dataSize(sub_0)\n  dup1\n  dataOffset(sub_0)\n  0x00\n  codecopy\n  0x00\n  return\nstop\n\nsub_0: assembly {\n        /* \"KIP37/utils/KIP37ERC1155Holder.sol\":121:1424  contract KIP37ERC1155Holder is KIP37Receiver, ERC1155Receiver {... */\n      mstore(0x40, 0x80)\n      callvalue\n      dup1\n      iszero\n      tag_1\n      jumpi\n      0x00\n      dup1\n      revert\n    tag_1:\n      pop\n      jumpi(tag_2, lt(calldatasize, 0x04))\n      shr(0xe0, calldataload(0x00))\n      dup1\n      0x01ffc9a7\n      eq\n      tag_3\n      jumpi\n      dup1\n      0x9b49e332\n      eq\n      tag_4\n      jumpi\n      dup1\n      0xbc197c81\n      eq\n      tag_5\n      jumpi\n      dup1\n      0xe78b3325\n      eq\n      tag_6\n      jumpi\n      dup1\n      0xf23a6e61\n      eq\n      tag_7\n      jumpi\n    tag_2:\n      0x00\n      dup1\n      revert\n        /* \"KIP37/utils/KIP37ERC1155Holder.sol\":189:474  function supportsInterface(bytes4 interfaceId)... */\n    tag_3:\n      tag_8\n      tag_9\n      calldatasize\n      0x04\n      tag_10\n      jump\t// in\n    tag_9:\n      tag_11\n      jump\t// in\n    tag_8:\n      mload(0x40)\n        /* \"#utility.yul\":470:484   */\n      swap1\n      iszero\n        /* \"#utility.yul\":463:485   */\n      iszero\n        /* \"#utility.yul\":445:486   */\n      dup2\n      mstore\n        /* \"#utility.yul\":433:435   */\n      0x20\n        /* \"#utility.yul\":418:436   */\n      add\n        /* \"KIP37/utils/KIP37ERC1155Holder.sol\":189:474  function supportsInterface(bytes4 interfaceId)... */\n    tag_12:\n      mload(0x40)\n      dup1\n      swap2\n      sub\n      swap1\n      return\n        /* \"KIP37/utils/KIP37ERC1155Holder.sol\":701:944  function onKIP37BatchReceived(... */\n    tag_4:\n      tag_14\n      tag_15\n      calldatasize\n      0x04\n      tag_16\n      jump\t// in\n    tag_15:\n      shl(0xe1, 0x4da4f199)\n      swap6\n      swap5\n      pop\n      pop\n      pop\n      pop\n      pop\n      jump\n    tag_14:\n      mload(0x40)\n      not(sub(shl(0xe0, 0x01), 0x01))\n        /* \"#utility.yul\":3449:3482   */\n      swap1\n      swap2\n      and\n        /* \"#utility.yul\":3431:3483   */\n      dup2\n      mstore\n        /* \"#utility.yul\":3419:3421   */\n      0x20\n        /* \"#utility.yul\":3404:3422   */\n      add\n        /* \"KIP37/utils/KIP37ERC1155Holder.sol\":701:944  function onKIP37BatchReceived(... */\n      tag_12\n        /* \"#utility.yul\":3287:3489   */\n      jump\n        /* \"KIP37/utils/KIP37ERC1155Holder.sol\":1175:1422  function onERC1155BatchReceived(... */\n    tag_5:\n      tag_14\n      tag_21\n      calldatasize\n      0x04\n      tag_16\n      jump\t// in\n    tag_21:\n      shl(0xe0, 0xbc197c81)\n      swap6\n      swap5\n      pop\n      pop\n      pop\n      pop\n      pop\n      jump\n        /* \"KIP37/utils/KIP37ERC1155Holder.sol\":480:695  function onKIP37Received(... */\n    tag_6:\n      tag_14\n      tag_25\n      calldatasize\n      0x04\n      tag_26\n      jump\t// in\n    tag_25:\n      shl(0xe0, 0xe78b3325)\n      swap6\n      swap5\n      pop\n      pop\n      pop\n      pop\n      pop\n      jump\n        /* \"KIP37/utils/KIP37ERC1155Holder.sol\":950:1169  function onERC1155Received(... */\n    tag_7:\n      tag_14\n      tag_30\n      calldatasize\n      0x04\n      tag_26\n      jump\t// in\n    tag_30:\n      shl(0xe0, 0xf23a6e61)\n      swap6\n      swap5\n      pop\n      pop\n      pop\n      pop\n      pop\n      jump\n        /* \"KIP37/utils/KIP37ERC1155Holder.sol\":189:474  function supportsInterface(bytes4 interfaceId)... */\n    tag_11:\n        /* \"KIP37/utils/KIP37ERC1155Holder.sol\":346:350  bool */\n      0x00\n        /* \"KIP37/utils/KIP37ERC1155Holder.sol\":373:417  KIP37Receiver.supportsInterface(interfaceId) */\n      tag_34\n        /* \"KIP37/utils/KIP37ERC1155Holder.sol\":405:416  interfaceId */\n      dup3\n        /* \"KIP37/utils/KIP37ERC1155Holder.sol\":373:404  KIP37Receiver.supportsInterface */\n      tag_35\n        /* \"KIP37/utils/KIP37ERC1155Holder.sol\":373:417  KIP37Receiver.supportsInterface(interfaceId) */\n      jump\t// in\n    tag_34:\n        /* \"KIP37/utils/KIP37ERC1155Holder.sol\":373:467  KIP37Receiver.supportsInterface(interfaceId) || ERC1155Receiver.supportsInterface(interfaceId) */\n      dup1\n      tag_37\n      jumpi\n      pop\n        /* \"KIP37/utils/KIP37ERC1155Holder.sol\":421:467  ERC1155Receiver.supportsInterface(interfaceId) */\n      tag_37\n        /* \"KIP37/utils/KIP37ERC1155Holder.sol\":455:466  interfaceId */\n      dup3\n        /* \"KIP37/utils/KIP37ERC1155Holder.sol\":421:454  ERC1155Receiver.supportsInterface */\n      tag_38\n        /* \"KIP37/utils/KIP37ERC1155Holder.sol\":421:467  ERC1155Receiver.supportsInterface(interfaceId) */\n      jump\t// in\n    tag_37:\n        /* \"KIP37/utils/KIP37ERC1155Holder.sol\":366:467  return KIP37Receiver.supportsInterface(interfaceId) || ERC1155Receiver.supportsInterface(interfaceId) */\n      swap3\n        /* \"KIP37/utils/KIP37ERC1155Holder.sol\":189:474  function supportsInterface(bytes4 interfaceId)... */\n      swap2\n      pop\n      pop\n      jump\t// out\n        /* \"KIP37/utils/KIP37Receiver.sol\":200:417  function supportsInterface(bytes4 interfaceId) public view virtual override(KIP13, IKIP13) returns (bool) {... */\n    tag_35:\n        /* \"KIP37/utils/KIP37Receiver.sol\":300:304  bool */\n      0x00\n      not(sub(shl(0xe0, 0x01), 0x01))\n        /* \"KIP37/utils/KIP37Receiver.sol\":323:370  interfaceId == type(IKIP37Receiver).interfaceId */\n      dup3\n      and\n      shl(0xe0, 0x7cc2d017)\n      eq\n      dup1\n        /* \"KIP37/utils/KIP37Receiver.sol\":323:410  interfaceId == type(IKIP37Receiver).interfaceId || super.supportsInterface(interfaceId) */\n      tag_37\n      jumpi\n      pop\n      shl(0xe0, 0x01ffc9a7)\n      not(sub(shl(0xe0, 0x01), 0x01))\n        /* \"KIP17/introspection/KIP13.sol\":240:279  interfaceId == type(IKIP13).interfaceId */\n      dup4\n      and\n      eq\n        /* \"KIP37/utils/KIP37Receiver.sol\":374:410  super.supportsInterface(interfaceId) */\n      tag_37\n        /* \"KIP17/introspection/KIP13.sol\":132:286  function supportsInterface(bytes4 interfaceId) public view virtual override returns (bool) {... */\n      jump\n        /* \"KIP37/utils/ERC1155Receiver.sol\":367:588  function supportsInterface(bytes4 interfaceId) public view virtual override(ERC165, IERC165) returns (bool) {... */\n    tag_38:\n        /* \"KIP37/utils/ERC1155Receiver.sol\":469:473  bool */\n      0x00\n      not(sub(shl(0xe0, 0x01), 0x01))\n        /* \"KIP37/utils/ERC1155Receiver.sol\":492:541  interfaceId == type(IERC1155Receiver).interfaceId */\n      dup3\n      and\n      shl(0xe5, 0x02711897)\n      eq\n      dup1\n        /* \"KIP37/utils/ERC1155Receiver.sol\":492:581  interfaceId == type(IERC1155Receiver).interfaceId || super.supportsInterface(interfaceId) */\n      tag_37\n      jumpi\n      pop\n      shl(0xe0, 0x01ffc9a7)\n      not(sub(shl(0xe0, 0x01), 0x01))\n        /* \"KIP17/introspection/KIP13.sol\":240:279  interfaceId == type(IKIP13).interfaceId */\n      dup4\n      and\n      eq\n        /* \"KIP37/utils/ERC1155Receiver.sol\":545:581  super.supportsInterface(interfaceId) */\n      tag_37\n        /* \"KIP17/introspection/KIP13.sol\":132:286  function supportsInterface(bytes4 interfaceId) public view virtual override returns (bool) {... */\n      jump\t// out\n        /* \"#utility.yul\":14:300   */\n    tag_10:\n        /* \"#utility.yul\":72:78   */\n      0x00\n        /* \"#utility.yul\":125:127   */\n      0x20\n        /* \"#utility.yul\":113:122   */\n      dup3\n        /* \"#utility.yul\":104:111   */\n      dup5\n        /* \"#utility.yul\":100:123   */\n      sub\n        /* \"#utility.yul\":96:128   */\n      slt\n        /* \"#utility.yul\":93:145   */\n      iszero\n      tag_60\n      jumpi\n        /* \"#utility.yul\":141:142   */\n      0x00\n        /* \"#utility.yul\":138:139   */\n      dup1\n        /* \"#utility.yul\":131:143   */\n      revert\n        /* \"#utility.yul\":93:145   */\n    tag_60:\n        /* \"#utility.yul\":167:190   */\n      dup2\n      calldataload\n      not(sub(shl(0xe0, 0x01), 0x01))\n        /* \"#utility.yul\":219:251   */\n      dup2\n      and\n        /* \"#utility.yul\":209:252   */\n      dup2\n      eq\n        /* \"#utility.yul\":199:270   */\n      tag_61\n      jumpi\n        /* \"#utility.yul\":266:267   */\n      0x00\n        /* \"#utility.yul\":263:264   */\n      dup1\n        /* \"#utility.yul\":256:268   */\n      revert\n        /* \"#utility.yul\":199:270   */\n    tag_61:\n        /* \"#utility.yul\":289:294   */\n      swap4\n        /* \"#utility.yul\":14:300   */\n      swap3\n      pop\n      pop\n      pop\n      jump\t// out\n        /* \"#utility.yul\":497:670   */\n    tag_53:\n        /* \"#utility.yul\":565:585   */\n      dup1\n      calldataload\n      sub(shl(0xa0, 0x01), 0x01)\n        /* \"#utility.yul\":614:645   */\n      dup2\n      and\n        /* \"#utility.yul\":604:646   */\n      dup2\n      eq\n        /* \"#utility.yul\":594:664   */\n      tag_64\n      jumpi\n        /* \"#utility.yul\":660:661   */\n      0x00\n        /* \"#utility.yul\":657:658   */\n      dup1\n        /* \"#utility.yul\":650:662   */\n      revert\n        /* \"#utility.yul\":594:664   */\n    tag_64:\n        /* \"#utility.yul\":497:670   */\n      swap2\n      swap1\n      pop\n      jump\t// out\n        /* \"#utility.yul\":675:802   */\n    tag_54:\n        /* \"#utility.yul\":736:746   */\n      0x4e487b71\n        /* \"#utility.yul\":731:734   */\n      0xe0\n        /* \"#utility.yul\":727:747   */\n      shl\n        /* \"#utility.yul\":724:725   */\n      0x00\n        /* \"#utility.yul\":717:748   */\n      mstore\n        /* \"#utility.yul\":767:771   */\n      0x41\n        /* \"#utility.yul\":764:765   */\n      0x04\n        /* \"#utility.yul\":757:772   */\n      mstore\n        /* \"#utility.yul\":791:795   */\n      0x24\n        /* \"#utility.yul\":788:789   */\n      0x00\n        /* \"#utility.yul\":781:796   */\n      revert\n        /* \"#utility.yul\":807:1082   */\n    tag_55:\n        /* \"#utility.yul\":878:880   */\n      0x40\n        /* \"#utility.yul\":872:881   */\n      mload\n        /* \"#utility.yul\":943:945   */\n      0x1f\n        /* \"#utility.yul\":924:937   */\n      dup3\n      add\n      not(0x1f)\n        /* \"#utility.yul\":920:947   */\n      and\n        /* \"#utility.yul\":908:948   */\n      dup2\n      add\n        /* \"#utility.yul\":978:996   */\n      0xffffffffffffffff\n        /* \"#utility.yul\":963:997   */\n      dup2\n      gt\n        /* \"#utility.yul\":999:1021   */\n      dup3\n      dup3\n      lt\n        /* \"#utility.yul\":960:1022   */\n      or\n        /* \"#utility.yul\":957:1045   */\n      iszero\n      tag_68\n      jumpi\n        /* \"#utility.yul\":1025:1043   */\n      tag_68\n      tag_54\n      jump\t// in\n    tag_68:\n        /* \"#utility.yul\":1061:1063   */\n      0x40\n        /* \"#utility.yul\":1054:1076   */\n      mstore\n        /* \"#utility.yul\":807:1082   */\n      swap2\n      swap1\n      pop\n      jump\t// out\n        /* \"#utility.yul\":1087:1799   */\n    tag_56:\n        /* \"#utility.yul\":1141:1146   */\n      0x00\n        /* \"#utility.yul\":1194:1197   */\n      dup3\n        /* \"#utility.yul\":1187:1191   */\n      0x1f\n        /* \"#utility.yul\":1179:1185   */\n      dup4\n        /* \"#utility.yul\":1175:1192   */\n      add\n        /* \"#utility.yul\":1171:1198   */\n      slt\n        /* \"#utility.yul\":1161:1216   */\n      tag_70\n      jumpi\n        /* \"#utility.yul\":1212:1213   */\n      0x00\n        /* \"#utility.yul\":1209:1210   */\n      dup1\n        /* \"#utility.yul\":1202:1214   */\n      revert\n        /* \"#utility.yul\":1161:1216   */\n    tag_70:\n        /* \"#utility.yul\":1248:1254   */\n      dup2\n        /* \"#utility.yul\":1235:1255   */\n      calldataload\n        /* \"#utility.yul\":1274:1278   */\n      0x20\n        /* \"#utility.yul\":1297:1315   */\n      0xffffffffffffffff\n        /* \"#utility.yul\":1293:1295   */\n      dup3\n        /* \"#utility.yul\":1290:1316   */\n      gt\n        /* \"#utility.yul\":1287:1339   */\n      iszero\n      tag_72\n      jumpi\n        /* \"#utility.yul\":1319:1337   */\n      tag_72\n      tag_54\n      jump\t// in\n    tag_72:\n        /* \"#utility.yul\":1365:1367   */\n      dup2\n        /* \"#utility.yul\":1362:1363   */\n      0x05\n        /* \"#utility.yul\":1358:1368   */\n      shl\n        /* \"#utility.yul\":1388:1416   */\n      tag_73\n        /* \"#utility.yul\":1412:1414   */\n      dup3\n        /* \"#utility.yul\":1408:1410   */\n      dup3\n        /* \"#utility.yul\":1404:1415   */\n      add\n        /* \"#utility.yul\":1388:1416   */\n      tag_55\n      jump\t// in\n    tag_73:\n        /* \"#utility.yul\":1450:1465   */\n      swap3\n      dup4\n      mstore\n        /* \"#utility.yul\":1520:1535   */\n      dup5\n      dup2\n      add\n        /* \"#utility.yul\":1516:1540   */\n      dup3\n      add\n      swap3\n        /* \"#utility.yul\":1481:1493   */\n      dup3\n      dup2\n      add\n      swap1\n        /* \"#utility.yul\":1552:1567   */\n      dup8\n      dup6\n      gt\n        /* \"#utility.yul\":1549:1584   */\n      iszero\n      tag_74\n      jumpi\n        /* \"#utility.yul\":1580:1581   */\n      0x00\n        /* \"#utility.yul\":1577:1578   */\n      dup1\n        /* \"#utility.yul\":1570:1582   */\n      revert\n        /* \"#utility.yul\":1549:1584   */\n    tag_74:\n        /* \"#utility.yul\":1616:1618   */\n      dup4\n        /* \"#utility.yul\":1608:1614   */\n      dup8\n        /* \"#utility.yul\":1604:1619   */\n      add\n        /* \"#utility.yul\":1593:1619   */\n      swap3\n      pop\n        /* \"#utility.yul\":1628:1770   */\n    tag_75:\n        /* \"#utility.yul\":1644:1650   */\n      dup5\n        /* \"#utility.yul\":1639:1642   */\n      dup4\n        /* \"#utility.yul\":1636:1651   */\n      lt\n        /* \"#utility.yul\":1628:1770   */\n      iszero\n      tag_77\n      jumpi\n        /* \"#utility.yul\":1710:1727   */\n      dup3\n      calldataload\n        /* \"#utility.yul\":1698:1728   */\n      dup3\n      mstore\n        /* \"#utility.yul\":1661:1673   */\n      swap2\n      dup4\n      add\n      swap2\n        /* \"#utility.yul\":1748:1760   */\n      swap1\n      dup4\n      add\n      swap1\n        /* \"#utility.yul\":1628:1770   */\n      jump(tag_75)\n    tag_77:\n        /* \"#utility.yul\":1788:1793   */\n      swap8\n        /* \"#utility.yul\":1087:1799   */\n      swap7\n      pop\n      pop\n      pop\n      pop\n      pop\n      pop\n      pop\n      jump\t// out\n        /* \"#utility.yul\":1804:2334   */\n    tag_57:\n        /* \"#utility.yul\":1846:1851   */\n      0x00\n        /* \"#utility.yul\":1899:1902   */\n      dup3\n        /* \"#utility.yul\":1892:1896   */\n      0x1f\n        /* \"#utility.yul\":1884:1890   */\n      dup4\n        /* \"#utility.yul\":1880:1897   */\n      add\n        /* \"#utility.yul\":1876:1903   */\n      slt\n        /* \"#utility.yul\":1866:1921   */\n      tag_79\n      jumpi\n        /* \"#utility.yul\":1917:1918   */\n      0x00\n        /* \"#utility.yul\":1914:1915   */\n      dup1\n        /* \"#utility.yul\":1907:1919   */\n      revert\n        /* \"#utility.yul\":1866:1921   */\n    tag_79:\n        /* \"#utility.yul\":1953:1959   */\n      dup2\n        /* \"#utility.yul\":1940:1960   */\n      calldataload\n        /* \"#utility.yul\":1979:1997   */\n      0xffffffffffffffff\n        /* \"#utility.yul\":1975:1977   */\n      dup2\n        /* \"#utility.yul\":1972:1998   */\n      gt\n        /* \"#utility.yul\":1969:2021   */\n      iszero\n      tag_81\n      jumpi\n        /* \"#utility.yul\":2001:2019   */\n      tag_81\n      tag_54\n      jump\t// in\n    tag_81:\n        /* \"#utility.yul\":2045:2100   */\n      tag_82\n        /* \"#utility.yul\":2088:2090   */\n      0x1f\n        /* \"#utility.yul\":2069:2082   */\n      dup3\n      add\n      not(0x1f)\n        /* \"#utility.yul\":2065:2092   */\n      and\n        /* \"#utility.yul\":2094:2098   */\n      0x20\n        /* \"#utility.yul\":2061:2099   */\n      add\n        /* \"#utility.yul\":2045:2100   */\n      tag_55\n      jump\t// in\n    tag_82:\n        /* \"#utility.yul\":2125:2127   */\n      dup2\n        /* \"#utility.yul\":2116:2123   */\n      dup2\n        /* \"#utility.yul\":2109:2128   */\n      mstore\n        /* \"#utility.yul\":2171:2174   */\n      dup5\n        /* \"#utility.yul\":2164:2168   */\n      0x20\n        /* \"#utility.yul\":2159:2161   */\n      dup4\n        /* \"#utility.yul\":2151:2157   */\n      dup7\n        /* \"#utility.yul\":2147:2162   */\n      add\n        /* \"#utility.yul\":2143:2169   */\n      add\n        /* \"#utility.yul\":2140:2175   */\n      gt\n        /* \"#utility.yul\":2137:2192   */\n      iszero\n      tag_83\n      jumpi\n        /* \"#utility.yul\":2188:2189   */\n      0x00\n        /* \"#utility.yul\":2185:2186   */\n      dup1\n        /* \"#utility.yul\":2178:2190   */\n      revert\n        /* \"#utility.yul\":2137:2192   */\n    tag_83:\n        /* \"#utility.yul\":2253:2255   */\n      dup2\n        /* \"#utility.yul\":2246:2250   */\n      0x20\n        /* \"#utility.yul\":2238:2244   */\n      dup6\n        /* \"#utility.yul\":2234:2251   */\n      add\n        /* \"#utility.yul\":2227:2231   */\n      0x20\n        /* \"#utility.yul\":2218:2225   */\n      dup4\n        /* \"#utility.yul\":2214:2232   */\n      add\n        /* \"#utility.yul\":2201:2256   */\n      calldatacopy\n        /* \"#utility.yul\":2301:2302   */\n      0x00\n        /* \"#utility.yul\":2276:2292   */\n      swap2\n      dup2\n      add\n        /* \"#utility.yul\":2294:2298   */\n      0x20\n        /* \"#utility.yul\":2272:2299   */\n      add\n        /* \"#utility.yul\":2265:2303   */\n      swap2\n      swap1\n      swap2\n      mstore\n        /* \"#utility.yul\":2280:2287   */\n      swap4\n        /* \"#utility.yul\":1804:2334   */\n      swap3\n      pop\n      pop\n      pop\n      jump\t// out\n        /* \"#utility.yul\":2339:3282   */\n    tag_16:\n        /* \"#utility.yul\":2493:2499   */\n      0x00\n        /* \"#utility.yul\":2501:2507   */\n      dup1\n        /* \"#utility.yul\":2509:2515   */\n      0x00\n        /* \"#utility.yul\":2517:2523   */\n      dup1\n        /* \"#utility.yul\":2525:2531   */\n      0x00\n        /* \"#utility.yul\":2578:2581   */\n      0xa0\n        /* \"#utility.yul\":2566:2575   */\n      dup7\n        /* \"#utility.yul\":2557:2564   */\n      dup9\n        /* \"#utility.yul\":2553:2576   */\n      sub\n        /* \"#utility.yul\":2549:2582   */\n      slt\n        /* \"#utility.yul\":2546:2599   */\n      iszero\n      tag_85\n      jumpi\n        /* \"#utility.yul\":2595:2596   */\n      0x00\n        /* \"#utility.yul\":2592:2593   */\n      dup1\n        /* \"#utility.yul\":2585:2597   */\n      revert\n        /* \"#utility.yul\":2546:2599   */\n    tag_85:\n        /* \"#utility.yul\":2618:2647   */\n      tag_86\n        /* \"#utility.yul\":2637:2646   */\n      dup7\n        /* \"#utility.yul\":2618:2647   */\n      tag_53\n      jump\t// in\n    tag_86:\n        /* \"#utility.yul\":2608:2647   */\n      swap5\n      pop\n        /* \"#utility.yul\":2666:2704   */\n      tag_87\n        /* \"#utility.yul\":2700:2702   */\n      0x20\n        /* \"#utility.yul\":2689:2698   */\n      dup8\n        /* \"#utility.yul\":2685:2703   */\n      add\n        /* \"#utility.yul\":2666:2704   */\n      tag_53\n      jump\t// in\n    tag_87:\n        /* \"#utility.yul\":2656:2704   */\n      swap4\n      pop\n        /* \"#utility.yul\":2755:2757   */\n      0x40\n        /* \"#utility.yul\":2744:2753   */\n      dup7\n        /* \"#utility.yul\":2740:2758   */\n      add\n        /* \"#utility.yul\":2727:2759   */\n      calldataload\n        /* \"#utility.yul\":2778:2796   */\n      0xffffffffffffffff\n        /* \"#utility.yul\":2819:2821   */\n      dup1\n        /* \"#utility.yul\":2811:2817   */\n      dup3\n        /* \"#utility.yul\":2808:2822   */\n      gt\n        /* \"#utility.yul\":2805:2839   */\n      iszero\n      tag_88\n      jumpi\n        /* \"#utility.yul\":2835:2836   */\n      0x00\n        /* \"#utility.yul\":2832:2833   */\n      dup1\n        /* \"#utility.yul\":2825:2837   */\n      revert\n        /* \"#utility.yul\":2805:2839   */\n    tag_88:\n        /* \"#utility.yul\":2858:2919   */\n      tag_89\n        /* \"#utility.yul\":2911:2918   */\n      dup10\n        /* \"#utility.yul\":2902:2908   */\n      dup4\n        /* \"#utility.yul\":2891:2900   */\n      dup11\n        /* \"#utility.yul\":2887:2909   */\n      add\n        /* \"#utility.yul\":2858:2919   */\n      tag_56\n      jump\t// in\n    tag_89:\n        /* \"#utility.yul\":2848:2919   */\n      swap5\n      pop\n        /* \"#utility.yul\":2972:2974   */\n      0x60\n        /* \"#utility.yul\":2961:2970   */\n      dup9\n        /* \"#utility.yul\":2957:2975   */\n      add\n        /* \"#utility.yul\":2944:2976   */\n      calldataload\n        /* \"#utility.yul\":2928:2976   */\n      swap2\n      pop\n        /* \"#utility.yul\":3001:3003   */\n      dup1\n        /* \"#utility.yul\":2991:2999   */\n      dup3\n        /* \"#utility.yul\":2988:3004   */\n      gt\n        /* \"#utility.yul\":2985:3021   */\n      iszero\n      tag_90\n      jumpi\n        /* \"#utility.yul\":3017:3018   */\n      0x00\n        /* \"#utility.yul\":3014:3015   */\n      dup1\n        /* \"#utility.yul\":3007:3019   */\n      revert\n        /* \"#utility.yul\":2985:3021   */\n    tag_90:\n        /* \"#utility.yul\":3040:3103   */\n      tag_91\n        /* \"#utility.yul\":3095:3102   */\n      dup10\n        /* \"#utility.yul\":3084:3092   */\n      dup4\n        /* \"#utility.yul\":3073:3082   */\n      dup11\n        /* \"#utility.yul\":3069:3093   */\n      add\n        /* \"#utility.yul\":3040:3103   */\n      tag_56\n      jump\t// in\n    tag_91:\n        /* \"#utility.yul\":3030:3103   */\n      swap4\n      pop\n        /* \"#utility.yul\":3156:3159   */\n      0x80\n        /* \"#utility.yul\":3145:3154   */\n      dup9\n        /* \"#utility.yul\":3141:3160   */\n      add\n        /* \"#utility.yul\":3128:3161   */\n      calldataload\n        /* \"#utility.yul\":3112:3161   */\n      swap2\n      pop\n        /* \"#utility.yul\":3186:3188   */\n      dup1\n        /* \"#utility.yul\":3176:3184   */\n      dup3\n        /* \"#utility.yul\":3173:3189   */\n      gt\n        /* \"#utility.yul\":3170:3206   */\n      iszero\n      tag_92\n      jumpi\n        /* \"#utility.yul\":3202:3203   */\n      0x00\n        /* \"#utility.yul\":3199:3200   */\n      dup1\n        /* \"#utility.yul\":3192:3204   */\n      revert\n        /* \"#utility.yul\":3170:3206   */\n    tag_92:\n      pop\n        /* \"#utility.yul\":3225:3276   */\n      tag_93\n        /* \"#utility.yul\":3268:3275   */\n      dup9\n        /* \"#utility.yul\":3257:3265   */\n      dup3\n        /* \"#utility.yul\":3246:3255   */\n      dup10\n        /* \"#utility.yul\":3242:3266   */\n      add\n        /* \"#utility.yul\":3225:3276   */\n      tag_57\n      jump\t// in\n    tag_93:\n        /* \"#utility.yul\":3215:3276   */\n      swap2\n      pop\n      pop\n        /* \"#utility.yul\":2339:3282   */\n      swap3\n      swap6\n      pop\n      swap3\n      swap6\n      swap1\n      swap4\n      pop\n      jump\t// out\n        /* \"#utility.yul\":3494:4100   */\n    tag_26:\n        /* \"#utility.yul\":3598:3604   */\n      0x00\n        /* \"#utility.yul\":3606:3612   */\n      dup1\n        /* \"#utility.yul\":3614:3620   */\n      0x00\n        /* \"#utility.yul\":3622:3628   */\n      dup1\n        /* \"#utility.yul\":3630:3636   */\n      0x00\n        /* \"#utility.yul\":3683:3686   */\n      0xa0\n        /* \"#utility.yul\":3671:3680   */\n      dup7\n        /* \"#utility.yul\":3662:3669   */\n      dup9\n        /* \"#utility.yul\":3658:3681   */\n      sub\n        /* \"#utility.yul\":3654:3687   */\n      slt\n        /* \"#utility.yul\":3651:3704   */\n      iszero\n      tag_96\n      jumpi\n        /* \"#utility.yul\":3700:3701   */\n      0x00\n        /* \"#utility.yul\":3697:3698   */\n      dup1\n        /* \"#utility.yul\":3690:3702   */\n      revert\n        /* \"#utility.yul\":3651:3704   */\n    tag_96:\n        /* \"#utility.yul\":3723:3752   */\n      tag_97\n        /* \"#utility.yul\":3742:3751   */\n      dup7\n        /* \"#utility.yul\":3723:3752   */\n      tag_53\n      jump\t// in\n    tag_97:\n        /* \"#utility.yul\":3713:3752   */\n      swap5\n      pop\n        /* \"#utility.yul\":3771:3809   */\n      tag_98\n        /* \"#utility.yul\":3805:3807   */\n      0x20\n        /* \"#utility.yul\":3794:3803   */\n      dup8\n        /* \"#utility.yul\":3790:3808   */\n      add\n        /* \"#utility.yul\":3771:3809   */\n      tag_53\n      jump\t// in\n    tag_98:\n        /* \"#utility.yul\":3761:3809   */\n      swap4\n      pop\n        /* \"#utility.yul\":3856:3858   */\n      0x40\n        /* \"#utility.yul\":3845:3854   */\n      dup7\n        /* \"#utility.yul\":3841:3859   */\n      add\n        /* \"#utility.yul\":3828:3860   */\n      calldataload\n        /* \"#utility.yul\":3818:3860   */\n      swap3\n      pop\n        /* \"#utility.yul\":3907:3909   */\n      0x60\n        /* \"#utility.yul\":3896:3905   */\n      dup7\n        /* \"#utility.yul\":3892:3910   */\n      add\n        /* \"#utility.yul\":3879:3911   */\n      calldataload\n        /* \"#utility.yul\":3869:3911   */\n      swap2\n      pop\n        /* \"#utility.yul\":3962:3965   */\n      0x80\n        /* \"#utility.yul\":3951:3960   */\n      dup7\n        /* \"#utility.yul\":3947:3966   */\n      add\n        /* \"#utility.yul\":3934:3967   */\n      calldataload\n        /* \"#utility.yul\":3990:4008   */\n      0xffffffffffffffff\n        /* \"#utility.yul\":3982:3988   */\n      dup2\n        /* \"#utility.yul\":3979:4009   */\n      gt\n        /* \"#utility.yul\":3976:4026   */\n      iszero\n      tag_99\n      jumpi\n        /* \"#utility.yul\":4022:4023   */\n      0x00\n        /* \"#utility.yul\":4019:4020   */\n      dup1\n        /* \"#utility.yul\":4012:4024   */\n      revert\n        /* \"#utility.yul\":3976:4026   */\n    tag_99:\n        /* \"#utility.yul\":4045:4094   */\n      tag_93\n        /* \"#utility.yul\":4086:4093   */\n      dup9\n        /* \"#utility.yul\":4077:4083   */\n      dup3\n        /* \"#utility.yul\":4066:4075   */\n      dup10\n        /* \"#utility.yul\":4062:4084   */\n      add\n        /* \"#utility.yul\":4045:4094   */\n      tag_57\n      jump\t// in\n\n    auxdata: 0xa26469706673582212205ead41eaacd86f294fc56c5a6b94fbd3af7add0852dc334e0203e14c7356aacd64736f6c63430008120033\n}\n",
				"bytecode": {
					"linkReferences": {},
					"object": "608060405234801561001057600080fd5b5061046c806100206000396000f3fe608060405234801561001057600080fd5b50600436106100575760003560e01c806301ffc9a71461005c5780639b49e33214610084578063bc197c81146100bc578063e78b3325146100db578063f23a6e61146100fa575b600080fd5b61006f61006a3660046101a3565b610119565b60405190151581526020015b60405180910390f35b6100a3610092366004610327565b634da4f19960e11b95945050505050565b6040516001600160e01b0319909116815260200161007b565b6100a36100ca366004610327565b63bc197c8160e01b95945050505050565b6100a36100e93660046103d1565b63e78b332560e01b95945050505050565b6100a36101083660046103d1565b63f23a6e6160e01b95945050505050565b600061012482610139565b8061013357506101338261016e565b92915050565b60006001600160e01b03198216637cc2d01760e01b148061013357506301ffc9a760e01b6001600160e01b0319831614610133565b60006001600160e01b03198216630271189760e51b148061013357506301ffc9a760e01b6001600160e01b0319831614610133565b6000602082840312156101b557600080fd5b81356001600160e01b0319811681146101cd57600080fd5b9392505050565b80356001600160a01b03811681146101eb57600080fd5b919050565b634e487b7160e01b600052604160045260246000fd5b604051601f8201601f1916810167ffffffffffffffff8111828210171561022f5761022f6101f0565b604052919050565b600082601f83011261024857600080fd5b8135602067ffffffffffffffff821115610264576102646101f0565b8160051b610273828201610206565b928352848101820192828101908785111561028d57600080fd5b83870192505b848310156102ac57823582529183019190830190610293565b979650505050505050565b600082601f8301126102c857600080fd5b813567ffffffffffffffff8111156102e2576102e26101f0565b6102f5601f8201601f1916602001610206565b81815284602083860101111561030a57600080fd5b816020850160208301376000918101602001919091529392505050565b600080600080600060a0868803121561033f57600080fd5b610348866101d4565b9450610356602087016101d4565b9350604086013567ffffffffffffffff8082111561037357600080fd5b61037f89838a01610237565b9450606088013591508082111561039557600080fd5b6103a189838a01610237565b935060808801359150808211156103b757600080fd5b506103c4888289016102b7565b9150509295509295909350565b600080600080600060a086880312156103e957600080fd5b6103f2866101d4565b9450610400602087016101d4565b93506040860135925060608601359150608086013567ffffffffffffffff81111561042a57600080fd5b6103c4888289016102b756fea26469706673582212205ead41eaacd86f294fc56c5a6b94fbd3af7add0852dc334e0203e14c7356aacd64736f6c63430008120033",
					"opcodes": "PUSH1 0x80 PUSH1 0x40 MSTORE CALLVALUE DUP1 ISZERO PUSH2 0x10 JUMPI PUSH1 0x0 DUP1 REVERT JUMPDEST POP PUSH2 0x46C DUP1 PUSH2 0x20 PUSH1 0x0 CODECOPY PUSH1 0x0 RETURN INVALID PUSH1 0x80 PUSH1 0x40 MSTORE CALLVALUE DUP1 ISZERO PUSH2 0x10 JUMPI PUSH1 0x0 DUP1 REVERT JUMPDEST POP PUSH1 0x4 CALLDATASIZE LT PUSH2 0x57 JUMPI PUSH1 0x0 CALLDATALOAD PUSH1 0xE0 SHR DUP1 PUSH4 0x1FFC9A7 EQ PUSH2 0x5C JUMPI DUP1 PUSH4 0x9B49E332 EQ PUSH2 0x84 JUMPI DUP1 PUSH4 0xBC197C81 EQ PUSH2 0xBC JUMPI DUP1 PUSH4 0xE78B3325 EQ PUSH2 0xDB JUMPI DUP1 PUSH4 0xF23A6E61 EQ PUSH2 0xFA JUMPI JUMPDEST PUSH1 0x0 DUP1 REVERT JUMPDEST PUSH2 0x6F PUSH2 0x6A CALLDATASIZE PUSH1 0x4 PUSH2 0x1A3 JUMP JUMPDEST PUSH2 0x119 JUMP JUMPDEST PUSH1 0x40 MLOAD SWAP1 ISZERO ISZERO DUP2 MSTORE PUSH1 0x20 ADD JUMPDEST PUSH1 0x40 MLOAD DUP1 SWAP2 SUB SWAP1 RETURN JUMPDEST PUSH2 0xA3 PUSH2 0x92 CALLDATASIZE PUSH1 0x4 PUSH2 0x327 JUMP JUMPDEST PUSH4 0x4DA4F199 PUSH1 0xE1 SHL SWAP6 SWAP5 POP POP POP POP POP JUMP JUMPDEST PUSH1 0x40 MLOAD PUSH1 0x1 PUSH1 0x1 PUSH1 0xE0 SHL SUB NOT SWAP1 SWAP2 AND DUP2 MSTORE PUSH1 0x20 ADD PUSH2 0x7B JUMP JUMPDEST PUSH2 0xA3 PUSH2 0xCA CALLDATASIZE PUSH1 0x4 PUSH2 0x327 JUMP JUMPDEST PUSH4 0xBC197C81 PUSH1 0xE0 SHL SWAP6 SWAP5 POP POP POP POP POP JUMP JUMPDEST PUSH2 0xA3 PUSH2 0xE9 CALLDATASIZE PUSH1 0x4 PUSH2 0x3D1 JUMP JUMPDEST PUSH4 0xE78B3325 PUSH1 0xE0 SHL SWAP6 SWAP5 POP POP POP POP POP JUMP JUMPDEST PUSH2 0xA3 PUSH2 0x108 CALLDATASIZE PUSH1 0x4 PUSH2 0x3D1 JUMP JUMPDEST PUSH4 0xF23A6E61 PUSH1 0xE0 SHL SWAP6 SWAP5 POP POP POP POP POP JUMP JUMPDEST PUSH1 0x0 PUSH2 0x124 DUP3 PUSH2 0x139 JUMP JUMPDEST DUP1 PUSH2 0x133 JUMPI POP PUSH2 0x133 DUP3 PUSH2 0x16E JUMP JUMPDEST SWAP3 SWAP2 POP POP JUMP JUMPDEST PUSH1 0x0 PUSH1 0x1 PUSH1 0x1 PUSH1 0xE0 SHL SUB NOT DUP3 AND PUSH4 0x7CC2D017 PUSH1 0xE0 SHL EQ DUP1 PUSH2 0x133 JUMPI POP PUSH4 0x1FFC9A7 PUSH1 0xE0 SHL PUSH1 0x1 PUSH1 0x1 PUSH1 0xE0 SHL SUB NOT DUP4 AND EQ PUSH2 0x133 JUMP JUMPDEST PUSH1 0x0 PUSH1 0x1 PUSH1 0x1 PUSH1 0xE0 SHL SUB NOT DUP3 AND PUSH4 0x2711897 PUSH1 0xE5 SHL EQ DUP1 PUSH2 0x133 JUMPI POP PUSH4 0x1FFC9A7 PUSH1 0xE0 SHL PUSH1 0x1 PUSH1 0x1 PUSH1 0xE0 SHL SUB NOT DUP4 AND EQ PUSH2 0x133 JUMP JUMPDEST PUSH1 0x0 PUSH1 0x20 DUP3 DUP5 SUB SLT ISZERO PUSH2 0x1B5 JUMPI PUSH1 0x0 DUP1 REVERT JUMPDEST DUP2 CALLDATALOAD PUSH1 0x1 PUSH1 0x1 PUSH1 0xE0 SHL SUB NOT DUP2 AND DUP2 EQ PUSH2 0x1CD JUMPI PUSH1 0x0 DUP1 REVERT JUMPDEST SWAP4 SWAP3 POP POP POP JUMP JUMPDEST DUP1 CALLDATALOAD PUSH1 0x1 PUSH1 0x1 PUSH1 0xA0 SHL SUB DUP2 AND DUP2 EQ PUSH2 0x1EB JUMPI PUSH1 0x0 DUP1 REVERT JUMPDEST SWAP2 SWAP1 POP JUMP JUMPDEST PUSH4 0x4E487B71 PUSH1 0xE0 SHL PUSH1 0x0 MSTORE PUSH1 0x41 PUSH1 0x4 MSTORE PUSH1 0x24 PUSH1 0x0 REVERT JUMPDEST PUSH1 0x40 MLOAD PUSH1 0x1F DUP3 ADD PUSH1 0x1F NOT AND DUP2 ADD PUSH8 0xFFFFFFFFFFFFFFFF DUP2 GT DUP3 DUP3 LT OR ISZERO PUSH2 0x22F JUMPI PUSH2 0x22F PUSH2 0x1F0 JUMP JUMPDEST PUSH1 0x40 MSTORE SWAP2 SWAP1 POP JUMP JUMPDEST PUSH1 0x0 DUP3 PUSH1 0x1F DUP4 ADD SLT PUSH2 0x248 JUMPI PUSH1 0x0 DUP1 REVERT JUMPDEST DUP2 CALLDATALOAD PUSH1 0x20 PUSH8 0xFFFFFFFFFFFFFFFF DUP3 GT ISZERO PUSH2 0x264 JUMPI PUSH2 0x264 PUSH2 0x1F0 JUMP JUMPDEST DUP2 PUSH1 0x5 SHL PUSH2 0x273 DUP3 DUP3 ADD PUSH2 0x206 JUMP JUMPDEST SWAP3 DUP4 MSTORE DUP5 DUP2 ADD DUP3 ADD SWAP3 DUP3 DUP2 ADD SWAP1 DUP8 DUP6 GT ISZERO PUSH2 0x28D JUMPI PUSH1 0x0 DUP1 REVERT JUMPDEST DUP4 DUP8 ADD SWAP3 POP JUMPDEST DUP5 DUP4 LT ISZERO PUSH2 0x2AC JUMPI DUP3 CALLDATALOAD DUP3 MSTORE SWAP2 DUP4 ADD SWAP2 SWAP1 DUP4 ADD SWAP1 PUSH2 0x293 JUMP JUMPDEST SWAP8 SWAP7 POP POP POP POP POP POP POP JUMP JUMPDEST PUSH1 0x0 DUP3 PUSH1 0x1F DUP4 ADD SLT PUSH2 0x2C8 JUMPI PUSH1 0x0 DUP1 REVERT JUMPDEST DUP2 CALLDATALOAD PUSH8 0xFFFFFFFFFFFFFFFF DUP2 GT ISZERO PUSH2 0x2E2 JUMPI PUSH2 0x2E2 PUSH2 0x1F0 JUMP JUMPDEST PUSH2 0x2F5 PUSH1 0x1F DUP3 ADD PUSH1 0x1F NOT AND PUSH1 0x20 ADD PUSH2 0x206 JUMP JUMPDEST DUP2 DUP2 MSTORE DUP5 PUSH1 0x20 DUP4 DUP7 ADD ADD GT ISZERO PUSH2 0x30A JUMPI PUSH1 0x0 DUP1 REVERT JUMPDEST DUP2 PUSH1 0x20 DUP6 ADD PUSH1 0x20 DUP4 ADD CALLDATACOPY PUSH1 0x0 SWAP2 DUP2 ADD PUSH1 0x20 ADD SWAP2 SWAP1 SWAP2 MSTORE SWAP4 SWAP3 POP POP POP JUMP JUMPDEST PUSH1 0x0 DUP1 PUSH1 0x0 DUP1 PUSH1 0x0 PUSH1 0xA0 DUP7 DUP9 SUB SLT ISZERO PUSH2 0x33F JUMPI PUSH1 0x0 DUP1 REVERT JUMPDEST PUSH2 0x348 DUP7 PUSH2 0x1D4 JUMP JUMPDEST SWAP5 POP PUSH2 0x356 PUSH1 0x20 DUP8 ADD PUSH2 0x1D4 JUMP JUMPDEST SWAP4 POP PUSH1 0x40 DUP7 ADD CALLDATALOAD PUSH8 0xFFFFFFFFFFFFFFFF DUP1 DUP3 GT ISZERO PUSH2 0x373 JUMPI PUSH1 0x0 DUP1 REVERT JUMPDEST PUSH2 0x37F DUP10 DUP4 DUP11 ADD PUSH2 0x237 JUMP JUMPDEST SWAP5 POP PUSH1 0x60 DUP9 ADD CALLDATALOAD SWAP2 POP DUP1 DUP3 GT ISZERO PUSH2 0x395 JUMPI PUSH1 0x0 DUP1 REVERT JUMPDEST PUSH2 0x3A1 DUP10 DUP4 DUP11 ADD PUSH2 0x237 JUMP JUMPDEST SWAP4 POP PUSH1 0x80 DUP9 ADD CALLDATALOAD SWAP2 POP DUP1 DUP3 GT ISZERO PUSH2 0x3B7 JUMPI PUSH1 0x0 DUP1 REVERT JUMPDEST POP PUSH2 0x3C4 DUP9 DUP3 DUP10 ADD PUSH2 0x2B7 JUMP JUMPDEST SWAP2 POP POP SWAP3 SWAP6 POP SWAP3 SWAP6 SWAP1 SWAP4 POP JUMP JUMPDEST PUSH1 0x0 DUP1 PUSH1 0x0 DUP1 PUSH1 0x0 PUSH1 0xA0 DUP7 DUP9 SUB SLT ISZERO PUSH2 0x3E9 JUMPI PUSH1 0x0 DUP1 REVERT JUMPDEST PUSH2 0x3F2 DUP7 PUSH2 0x1D4 JUMP JUMPDEST SWAP5 POP PUSH2 0x400 PUSH1 0x20 DUP8 ADD PUSH2 0x1D4 JUMP JUMPDEST SWAP4 POP PUSH1 0x40 DUP7 ADD CALLDATALOAD SWAP3 POP PUSH1 0x60 DUP7 ADD CALLDATALOAD SWAP2 POP PUSH1 0x80 DUP7 ADD CALLDATALOAD PUSH8 0xFFFFFFFFFFFFFFFF DUP2 GT ISZERO PUSH2 0x42A JUMPI PUSH1 0x0 DUP1 REVERT JUMPDEST PUSH2 0x3C4 DUP9 DUP3 DUP10 ADD PUSH2 0x2B7 JUMP INVALID LOG2 PUSH5 0x6970667358 0x22 SLT KECCAK256 0x5E 0xAD COINBASE 0xEA 0xAC 0xD8 PUSH16 0x294FC56C5A6B94FBD3AF7ADD0852DC33 0x4E MUL SUB 0xE1 0x4C PUSH20 0x56AACD64736F6C63430008120033000000000000 "
				},
				"gasEstimates": {
					"creation": {
						"codeDepositCost": "226400",
						"executionCost": "269",
						"totalCost": "226669"
					},
					"external": {
						"onERC1155BatchReceived(address,address,uint256[],uint256[],bytes)": "infinite",
						"onERC1155Received(address,address,uint256,uint256,bytes)": "infinite",
						"onKIP37BatchReceived(address,address,uint256[],uint256[],bytes)": "infinite",
						"onKIP37Received(address,address,uint256,uint256,bytes)": "infinite",
						"supportsInterface(bytes4)": "infinite"
					}
				},
				"methodIdentifiers": {
					"onERC1155BatchReceived(address,address,uint256[],uint256[],bytes)": "bc197c81",
					"onERC1155Received(address,address,uint256,uint256,bytes)": "f23a6e61",
					"onKIP37BatchReceived(address,address,uint256[],uint256[],bytes)": "9b49e332",
					"onKIP37Received(address,address,uint256,uint256,bytes)": "e78b3325",
					"supportsInterface(bytes4)": "01ffc9a7"
				}
			},
			"storageLayout": {
				"storage": [],
				"types": null
			},
			"userdoc": {
				"kind": "user",
				"methods": {},
				"version": 1
			}
		}
	}
}